:020000040801F1
:1000000000000220612401087523010877230108FC
:10001000792301087B2301087D23010800000000EB
:1000200000000000000000000000000001A5010821
:100030007F23010800000000A1A5010859830108E1
:10004000B1240108B1240108B1240108B124010838
:10005000B1240108B1240108B1240108B124010828
:10006000B1240108B1240108B1240108B124010818
:10007000B1240108B1240108B1240108B124010808
:10008000B1240108B1240108B124010800000000D6
:10009000000000000000000000000000B124010882
:1000A00081230108B1240108B1240108B124010809
:1000B000B1240108B1240108B1240108B1240108C8
:1000C000B1240108B1240108B1240108B1240108B8
:1000D000B1240108B1240108B12401080000000086
:1000E000B1240108B1240108B12401080000000076
:1000F000000000000000000000000000B124010822
:1001000000000000B1240108B1240108B124010855
:1001100000000000000000000000000000000000DF
:10012000B1240108B1240108B1240108B124010857
:10013000B1240108000000000000000000000000E1
:10014000000000000000000000000000B1240108D1
:10015000B1240108B1240108B1240108B124010827
:10016000B1240108B12401080000000000000000D3
:10017000000000000000000000000000000000007F
:1001800000000000B1240108000000000000000091
:08019000B1240108B1240108AB
:1001A00010B5054C237833B9044B13B10448AFF3B1
:1001B00000800123237010BD7008002000000000A3
:1001C000FC5B030808B5034B1BB103490348AFF3BD
:1001D000008008BD0000000074080020FC5B0308DC
:1001E00010F8012B11F8013B012A28BF9A42F7D0E1
:1001F000D01A70470000000000000000000000005E
:1002000001F0FF01102A2BDB10F0070F08D010F8C7
:10021000013B013A8B422DD010F0070F42B3F6D1CB
:10022000F0B441EA012141EA014122F007047FF0E4
:1002300000070023F0E80256083C85EA010586EA3B
:10024000010685FA47F5A3FA87F586FA47F6A5FA77
:1002500087F68EB9EED1F0BC01F0FF0102F0070283
:1002600032B110F8013B013A83EA010313B1F8D12E
:100270000020704701387047002D06BF354603380F
:10028000073815F0010F07D1013015F4807F02BF48
:10029000013015F4C03F0130F0BC0138704700BF99
:1002A000034613F8012B002AFBD1181A01387047B6
:1002B00081F0004102E000BF83F0004330B54FEA17
:1002C00041044FEA430594EA050F08BF90EA020F84
:1002D0001FBF54EA000C55EA020C7FEA645C7FEA17
:1002E000655C00F0E2804FEA5454D4EB5555B8BF3A
:1002F0006D420CDD2C4480EA020281EA030382EAAB
:10030000000083EA010180EA020281EA0303362D3C
:1003100088BF30BD11F0004F4FEA01314FF4801C0F
:100320004CEA113102D0404261EB410113F0004F21
:100330004FEA03334CEA133302D0524263EB4303D8
:1003400094EA050F00F0A780A4F10104D5F1200E76
:100350000DDB02FA0EFC22FA05F2801841F10001D1
:1003600003FA0EF2801843FA05F359410EE0A5F1A5
:1003700020050EF1200E012A03FA0EFC28BF4CF0D6
:10038000020C43FA05F3C01851EBE37101F000458C
:1003900007D54FF0000EDCF1000C7EEB00006EEB99
:1003A0000101B1F5801F1BD3B1F5001F0CD3490823
:1003B0005FEA30004FEA3C0C04F101044FEA44527A
:1003C00012F5800F80F09A80BCF1004F08BF5FEA01
:1003D000500C50F1000041EB045141EA050130BDE1
:1003E0005FEA4C0C404141EB0101013C28BFB1F5F3
:1003F000801FE9D291F0000F04BF01460020B1FA3E
:1004000081F308BF2033A3F10B03B3F120020CDA10
:100410000C3208DD02F1140CC2F10C0201FA0CF0EE
:1004200021FA02F10CE002F11402D8BFC2F1200C53
:1004300001FA02F120FA0CFCDCBF41EA0C01904009
:10044000E41AA2BF01EB0451294330BD6FEA040452
:100450001F3C1CDA0C340EDC04F11404C4F120023D
:1004600020FA04F001FA02F340EA030021FA04F34F
:1004700045EA030130BDC4F10C04C4F1200220FAA6
:1004800002F001FA04F340EA0300294630BD21FAE4
:1004900004F0294630BD94F0000F83F4801306BFAA
:1004A00081F480110134013D4EE77FEA645C18BF9E
:1004B0007FEA655C29D094EA050F08BF90EA020F35
:1004C00005D054EA000C04BF1946104630BD91EA2D
:1004D000030F1EBF0021002030BD5FEA545C05D130
:1004E0004000494128BF41F0004130BD14F580046F
:1004F0003CBF01F5801130BD01F0004545F0FE41E3
:1005000041F470014FF0000030BD7FEA645C1ABF17
:10051000194610467FEA655C1CBF0B46024650EA4E
:10052000013406BF52EA033591EA030F41F400217A
:1005300030BD00BF90F0000F04BF0021704730B500
:100540004FF4806404F132044FF000054FF00001D5
:1005500050E700BF90F0000F04BF0021704730B596
:100560004FF4806404F1320410F0004548BF40426B
:100570004FF000013EE700BF42004FEAE2014FEAC0
:1005800031014FEA02701FBF12F07F4393F07F4F9B
:1005900081F06051704732F07F4208BF704793F09E
:1005A0007F4F04BF41F40021704730B54FF46074B1
:1005B00001F0004521F000411CE700BF50EA0102B4
:1005C00008BF704730B54FF000050AE050EA01025D
:1005D00008BF704730B511F0004502D5404261EBCD
:1005E00041014FF4806404F132045FEA915C3FF40E
:1005F000D8AE4FF003025FEADC0C18BF03325FEAAB
:10060000DC0C18BF033202EBDC02C2F1200300FA5B
:1006100003FC20FA02F001FA03FE40EA0E0021FA80
:1006200002F11444BDE600BF70B54FF0FF0C4CF46E
:10063000E06C1CEA11541DBF1CEA135594EA0C0F20
:1006400095EA0C0F00F0DEF82C4481EA030621EA5B
:100650004C5123EA4C5350EA013518BF52EA033596
:1006600041F4801143F4801338D0A0FB02CE4FF048
:100670000005E1FB02E506F00042E0FB03E54FF078
:100680000006E1FB03569CF0000F18BF4EF0010E70
:10069000A4F1FF04B6F5007F64F5407404D25FEA6C
:1006A0004E0E6D4146EB060642EAC62141EA55511F
:1006B0004FEAC52040EA5E504FEACE2EB4F1FD0C61
:1006C00088BFBCF5E06F1ED8BEF1004F08BF5FEADF
:1006D000500E50F1000041EB045170BD06F0004691
:1006E00046EA010140EA020081EA0301B4EB5C043E
:1006F000C2BFD4EB0C0541EA045170BD41F4801136
:100700004FF0000E013C00F3AB8014F1360FDEBF5A
:10071000002001F0004170BDC4F10004203C35DA36
:100720000C341BDC04F11404C4F1200500FA05F3B9
:1007300020FA04F001FA05F240EA020001F000425A
:1007400021F0004110EBD37021FA04F642EB0601D0
:100750005EEA430E08BF20EAD37070BDC4F10C04FA
:10076000C4F1200500FA04F320FA05F001FA04F2BE
:1007700040EA020001F0004110EBD37041F10001AA
:100780005EEA430E08BF20EAD37070BDC4F12005B5
:1007900000FA05F24EEA020E20FA04F301FA05F21D
:1007A00043EA020321FA04F001F0004121FA04F2C5
:1007B00020EA020000EBD3705EEA430E08BF20EA95
:1007C000D37070BD94F0000F0FD101F000464000CF
:1007D00041EB010111F4801F08BF013CF7D041EA51
:1007E000060195F0000F18BF704703F00046520055
:1007F00043EB030313F4801F08BF013DF7D043EA26
:100800000603704794EA0C0F0CEA135518BF95EADB
:100810000C0F0CD050EA410618BF52EA4306D1D162
:1008200081EA030101F000414FF0000070BD50EA81
:10083000410606BF1046194652EA430619D094EA0B
:100840000C0F02D150EA013613D195EA0C0F05D1F5
:1008500052EA03361CBF104619460AD181EA030149
:1008600001F0004141F0FE4141F470014FF0000001
:1008700070BD41F0FE4141F4780170BD70B54FF09C
:10088000FF0C4CF4E06C1CEA11541DBF1CEA13551C
:1008900094EA0C0F95EA0C0F00F0A7F8A4EB0504FE
:1008A00081EA030E52EA03354FEA013100F08880F5
:1008B0004FEA03334FF0805545EA131343EA1263BE
:1008C0004FEA022245EA111545EA10654FEA002673
:1008D0000EF000419D4208BF964244F1FD0404F52C
:1008E000407402D25B084FEA3202B61A65EB030588
:1008F0005B084FEA32024FF480104FF4002CB6EB45
:10090000020E75EB030E22BFB61A754640EA0C00C4
:100910005B084FEA3202B6EB020E75EB030E22BF04
:10092000B61A754640EA5C005B084FEA3202B6EB45
:10093000020E75EB030E22BFB61A754640EA9C0004
:100940005B084FEA3202B6EB020E75EB030E22BFD4
:10095000B61A754640EADC0055EA060E18D04FEA92
:10096000051545EA16754FEA06164FEAC30343EA32
:1009700052734FEAC2025FEA1C1CC0D111F4801FFF
:100980000BD141EA00014FF000004FF0004CB6E7F8
:1009900011F4801F04BF01430020B4F1FD0C88BF97
:1009A000BCF5E06F3FF6AFAEB5EB030C04BFB6EBA2
:1009B000020C5FEA500C50F1000041EB045170BD95
:1009C0000EF0004E4EEA113114EB5C04C2BFD4EBC2
:1009D0000C0541EA045170BD41F480114FF0000E46
:1009E000013C90E645EA060E8DE60CEA135594EAC2
:1009F0000C0F08BF95EA0C0F3FF43BAF94EA0C0FC5
:100A00000AD150EA01347FF434AF95EA0C0F7FF439
:100A100025AF104619462CE795EA0C0F06D152EA8D
:100A200003353FF4FDAE1046194622E750EA410671
:100A300018BF52EA43067FF4C5AE50EA41047FF482
:100A40000DAF52EA43057FF4EBAE12E74FF0FF3CE7
:100A500006E000BF4FF0010C02E000BF4FF0010CB8
:100A60004DF804CD4FEA410C7FEA6C5C4FEA430C31
:100A700018BF7FEA6C5C1BD001B050EA410C0CBF80
:100A800052EA430C91EA030F02BF90EA020F0020E2
:100A9000704710F1000F91EA030F58BF994208BF49
:100AA00090422CBFD8176FEAE37040F00100704706
:100AB0004FEA410C7FEA6C5C02D150EA013C07D15D
:100AC0004FEA430C7FEA6C5CD6D152EA033CD3D0A8
:100AD0005DF8040B704700BF8446104662468C46A2
:100AE0001946634600E000BF01B5FFF7B7FF0028D5
:100AF00048BF10F1000F01BD4DF808EDFFF7F4FFFE
:100B00000CBF012000205DF808FB00BF4DF808ED88
:100B1000FFF7EAFF34BF012000205DF808FB00BFAB
:100B20004DF808EDFFF7E0FF94BF012000205DF8CD
:100B300008FB00BF4DF808EDFFF7CEFF94BF012082
:100B400000205DF808FB00BF4DF808EDFFF7C4FF7B
:100B500034BF012000205DF808FB00BF4FEA410CC4
:100B60007FEA6C5C02D150EA013C0AD14FEA430CA7
:100B70007FEA6C5C02D152EA033C02D14FF00000E4
:100B800070474FF0010070474FEA410212F5001222
:100B900015D211D56FF47873B3EB625212D94FEAC4
:100BA000C12343F0004343EA505311F0004F23FAAE
:100BB00002F018BF404270474FF00000704750EA03
:100BC000013005D111F0004008BF6FF000407047C0
:100BD0004FF00000704700BF4A0011D212F500121A
:100BE00011D20DD56FF47873B3EB62520ED44FEA85
:100BF000C12343F0004343EA505323FA02F0704705
:100C00004FF00000704750EA013002D14FF0FF3042
:100C100070474FF0000070474FEA4102B2F1E043E5
:100C200024BFB3F5001CDCF1FE5C0DD901F0004CD3
:100C30004FEAC0024CEA5070B2F1004F40EB830023
:100C400008BF20F00100704711F0804F21D113F14F
:100C50003872BCBF01F00040704741F480114FEA88
:100C60005252C2F11802C2F1200C10FA0CF320FA11
:100C700002F018BF40F001004FEAC1234FEAD3232E
:100C800003FA0CFC40EA0C0023FA02F34FEA430398
:100C9000CCE77FEA625307D150EA01331EBF4FF021
:100CA000FE4040F44000704701F0004040F0FE403C
:100CB00040F40000704700BF7BB972B90029BEBF85
:100CC00000204FF0004106E008BF00281CBF6FF075
:100CD00000414FF0FF3000F0FFB9ADF1080C6DE9B5
:100CE00004CE002909DB002B1ADB00F097F8DDF8B1
:100CF00004E0DDE9022304B07047404261EB4101AA
:100D0000002B1BDB00F08AF8DDF804E0DDE90223AC
:100D100004B0404261EB4101524263EB4303704730
:100D2000524263EB430300F079F8DDF804E0DDE9BB
:100D3000022304B0404261EB41017047524263EB31
:100D4000430300F06BF8DDF804E0DDE9022304B0B2
:100D5000524263EB4303704753B94AB9002908BFB5
:100D600000281CBF4FF0FF314FF0FF3000F0B4B946
:100D7000ADF1080C6DE904CE00F050F8DDF804E0A8
:100D8000DDE9022304B07047430803F05533C01A6D
:100D9000830803F0333300F03330184400EB1010B5
:100DA00000F00F3000EB002000EB0040000E704719
:100DB00038B50022002304460D46FFF7A7FE28B9E8
:100DC00020462946BDE8384000F00AB8204605F123
:100DD000004100F005F8404261EB410138BD00BF21
:100DE000D0B50C4B002206460F46FFF71DFCFFF75F
:100DF000F3FE0446FFF79EFB074B0022FFF714FCAF
:100E000002460B4630463946FFF756FAFFF7E4FE36
:100E10002146D0BD0000F03D0000F0412DE9F04733
:100E2000089D0C46002B4ED194468C458646B2FA5E
:100E300082F262D94AB1C2F12003914020FA03F351
:100E40000CFA02FC194300FA02FE4FEA1C471FFA93
:100E50008CF6B1FBF7F44FEA1E4307FB141143EA8B
:100E6000014304FB06F199420AD91CEB030304F188
:100E7000FF3080F01281994240F20F81023C6344BE
:100E8000591A1FFA8EF3B1FBF7F007FB101143EA72
:100E9000014300FB06F69E420AD91CEB030300F156
:100EA000FF3180F0FC809E4240F2F98063440238BA
:100EB0009B1B40EA044000211DB1D3400022C5E93C
:100EC0000032BDE8F0878B4205D90DB1C5E90001BC
:100ED00000210846F5E7B3FA83F1002946D1A34281
:100EE00002D39042C0F0F080861A64EB0303012025
:100EF000002DE6D0C5E90063E3E7002A40F09080CA
:100F0000A1EB0C044FEA1C481FFA8CF70121B4FB3B
:100F1000F8F64FEA1E4308FB164443EA044307FB76
:100F200006F0984208D91CEB030306F1FF3402D205
:100F3000984200F2CD8026461C1A1FFA8EF3B4FBAD
:100F4000F8F008FB104443EA044300FB07F79F4214
:100F500008D91CEB030300F1FF3402D29F4200F2D8
:100F6000B0802046DB1B40EA0640A5E7C1F1200621
:100F70008B4022FA06F71F4320FA06FC04FA01F31D
:100F800043EA0C03F44000FA01F8380C4FEA134925
:100F9000B4FBF0FE1FFA87FC00FB1E4449EA044440
:100FA0000EFB0CF9A14502FA01F20AD93C190EF127
:100FB000FF3A80F08480A14540F28180AEF1020EBC
:100FC0003C44A4EB09041FFA83F9B4FBF0F300FBE3
:100FD000134449EA044403FB0CFCA44507D93C191B
:100FE00003F1FF3067D2A44565D9023B3C4443EA94
:100FF0000E40A0FB0293A4EB0C049C42CE469C4600
:1010000051D34ED055B1B8EB0E0364EB0C0404FA87
:1010100006F6CB401E43CC40C5E90064002150E7F2
:10102000C2F1200320FA03F10CFA02FC24FA03F3C4
:1010300094400C434FEA1C4800FA02FE1FFA8CF75A
:10104000B3FBF8F008FB1031230C43EA014300FB2B
:1010500007F1994208D91CEB030300F1FF362CD2AB
:1010600099422AD9023863445B1AA4B2B3FBF8F15F
:1010700008FB113344EA034401FB07F3A34208D9F8
:101080001CEB040401F1FF3613D2A34211D902393B
:101090006444E41A41EA004139E70446F0E60846B0
:1010A00006E7C845AED2B9EB020E63EB070C013878
:1010B000A8E73146EDE7034699E73046D4E7D64640
:1010C0007FE7634402384DE70646234608460FE7AC
:1010D000023E634430E700BF704700BF08B50022FE
:1010E0004FF48051014805F05EFA08BD000402404B
:1010F00008B501224FF48051014805F054FA08BDAB
:101100000004024008B500224FF40041014805F0F8
:101110004AFA08BD0000024008B501224FF4004120
:10112000014805F040FA08BD0000024010B58EB03D
:10113000484B93E803000C90ADF834100DF1240CEB
:1011400003F1080494E807008CE80700143393E8DF
:1011500003000790ADF8201004AB94E8070083E883
:1011600007006FE000231A4601A93B48006807F01A
:10117000C6FA00240EE000220EAB03EB440333F862
:10118000081C0EAB03EB840353F8140C05F00BFAA8
:101190000134E4B2022C5BD804F138036B4413F839
:1011A000343C002BE7D001220EAB03EB440333F8B1
:1011B000081C0EAB03EB840353F8140C05F0F3F991
:1011C000E6E70EAB03EB440203EB840332F8081CA2
:1011D00053F8140C05F0E0F904F138036B4403F8FC
:1011E000300C0134E4B2022CEBD91C4C206807F01F
:1011F000D4FA00231A4602A9206807F03EFA002418
:1012000011E00EAB03EB440203EB840332F81C1C29
:1012100053F8280C05F0C0F904F138036B4403F8C7
:101220002C0C0134E4B2022CEBD90D4C206807F0F1
:10123000B4FA00231A4603A9206807F01EFA012019
:1012400007F023F9044B186807F09AFA002889D1AF
:101250000024C8E7185C03089C080020A0080020B0
:10126000A408002084B008B50DF1080C8CE80F002C
:1012700000231A4661460448006807F0FEF9BDE8FD
:10128000084004B0704700BF9408002070B58AB0D1
:101290004FF47A7007F0F9F806F090FF642007F039
:1012A000F4F80021012006F0EDFE002006F0AEFE6D
:1012B000484C01222146484806F038FF01222146C9
:1012C000464806F033FF0B21012006F0DBFE012229
:1012D0002146434806F02AFF1621012006F0D2FEDF
:1012E000012221463F4806F021FF2121012006F07E
:1012F000C9FE3D4B59680A784B788878CD780E79CD
:1013000049790391029601950090384905A81AF091
:1013100035FF0122214605A806F008FF06F0F8FF78
:1013200040F6B83008F01CFC002503E04FF47A705A
:1013300007F0ABF80021012006F0A4FE002006F023
:1013400065FE244C01222146294806F0EFFE264B7B
:101350005B689A68130E0193C2F307430093C2F3CC
:101360000723D2B2234905A81AF008FF012221461B
:1013700005A806F0DBFE0A21012006F083FE01220B
:1013800021461D4806F0D2FE01352A461B4905A814
:101390001AF0F4FE0122214605A806F0C7FE06F069
:1013A000B7FF4FF47A7301227821154805F046FC07
:1013B0000028BBD0124805F06BFB4FF47A7008F0A0
:1013C000CFFB00F0F3FC4FF47A7008F0C9FB06F095
:1013D000F5FEE6E70C010020945E0308A05E03081A
:1013E000AC5E0308B85E0308C0080020C05E0308B6
:1013F000E05E0308E45E0308F45E030860B30308DC
:10140000C808002070B5BAB000233993794B7A4AE6
:101410007A497B4804F05AFC7A497B4809F06EFC13
:1014200000283BDB794809F057FC794C204609F04D
:1014300047FC784809F044FC204609F04DFC76480A
:1014400009F04AFC754809F047FC754809F044FC6E
:10145000744809F041FC002239A9734809F084FB63
:10146000F8B10121704809F0BDFB0446C62207A966
:1014700009F0E8FB204609F0D9FB00228DF81C207A
:10148000022307A96948006807F05EFB002239A91A
:10149000674809F069FB88B1002482E004F00CFF82
:1014A000C0E7C622002107A81BF02AFA0223002267
:1014B00007A95E48006807F047FBE7E740F29A603B
:1014C00009F0EAF9044690B35A49012000F016FDEC
:1014D000594B186820609B88A38001AD574E0FCEF2
:1014E0000FC596E8030045F8040B297001AD0FCD38
:1014F000C4F88000C4F88410C4F88820C4F88C3084
:101500002868C4F890002B7984F894300221484868
:1015100009F068FB054640F29A62214609F09EFBFD
:10152000284609F083FB204609F038FAB4E744491D
:10153000032000F0E3FCF6E73B4D284609F0C0FB32
:101540000221284609F04EFB0546002833D0C6226A
:1015500007A909F083FB284609F068FB00228DF8F3
:101560001C20022307A93148006807F0EDFA22E0A9
:10157000012006F08AFF4FF48071324805F00CF824
:101580000028F5D04FF47A7006F07FFF284809F064
:1015900097FB04F091FE00E000244FF47A7006F00F
:1015A00074FF002207A9214B186807F0E0FD9DF8A1
:1015B0001C30002BC0D14FF48071224804F0ECFFA6
:1015C0000028E9D10134E4B21E4D0122022128464F
:1015D00004F0E9FF642006F058FF002202212846AB
:1015E00004F0E1FF082CD8D101220221284604F0A2
:1015F000DAFFC0E7291801084D1801081911010880
:10160000051101087918010865180108F85E03083A
:10161000005F03080C5F03081C5F0308285F0308D2
:10162000E4780308305F0308385F03089808002057
:101630004C5F0308885F0308C05F0308C85F0308A6
:101640005C5F03080004024008B5012914D0022998
:101650001AD001B108BD4AB1012AFBD102230022F0
:1016600001461248006807F06FFAF3E701460F4B96
:10167000186807F07CFDEDE7002AEBD101460C4B22
:10168000186807F074FDE5E74AB1012AE2D10223A8
:10169000002201460748006807F056FADAE70146DB
:1016A000054B186807F063FDD4E700BF98080020D9
:1016B000A40800209C080020A008002030B5D1B06C
:1016C0003E4800F00FFC012000F012FC3C490120D4
:1016D00000F014FC4FF4FA6006F0D7FE4FF4FA6401
:1016E00048E000231A4607A93648006807F007F8C3
:1016F0000221354809F076FA05469DF81D210DF1C5
:101700001D0109F0ABFA284609F090FA38E048A824
:1017100009F082F94E9B04934D9B03934C9B0293DB
:101720004B9B01934A9B0093499B489A2749012070
:1017300000F0E4FB264C63689A68130E0193C2F331
:1017400007430093C2F30723D2B22249012000F0DD
:10175000D5FB61680A784B788878CC780D7949791F
:1017600003910295019400901B49012000F0C6FBF3
:1017700000240134134B186807F002F80028B0D198
:101780004FF4FA7006F081FEB4F5FA6FF1D1002241
:101790004FA90D4809F0E8F94F9A4CF250339A429C
:1017A000B5D90E4C204609F08BFA2146064809F0BF
:1017B0007BFA0B49012000F0A1FBA8E765120108A4
:1017C000E05F030894080020F45F03082860030822
:1017D000C0080020BC600308D86003080460030848
:1017E0001460030808B5044805F01EFB4FF4FA70B6
:1017F00006F04BFEF7E700BF1C09002000B587B0DC
:101800008DF80F104FF0FF33009301230DF11702F5
:101810000DF10F01034806F096F89DF8170007B088
:101820005DF804FB2C09002000B583B08DF807009B
:101830004FF0FF3301220DF10701034805F0A1FF2E
:1018400003B05DF804FB00BF8409002008B50A4618
:101850004FF0FF330146024806F09FF908BD00BF74
:101860008409002008B54FF0FF31024B186806F0DC
:1018700063FE08BD8C08002008B5024B186806F00E
:101880008AFE08BD8C08002008B52C4806F00BFE27
:101890002B4B18602B4806F006FE2B4B18602B4A8A
:1018A0000321012006F09EFE294B1860294A0321DE
:1018B000012006F097FE284B1860284A03210120DA
:1018C00006F090FE264B1860264AC621012006F03D
:1018D00089FE254B1860254A4FF48171142006F0CB
:1018E00081FE234B1860234A0021234806F06EFD39
:1018F000224B1860224A0021224806F067FD224B45
:101900001860224A0021224806F060FD214B186031
:10191000214A0021214806F059FD214B1860214A37
:101920000021214806F052FD204B1860204A00217A
:10193000204806F04BFD204B186008BDE861030805
:1019400090080020D86103088C0800205862030822
:10195000A408002040620308A008002028620308B1
:101960009C0800201062030898080020F861030812
:101970009408002024630308E5190108BC0800202E
:10198000006303082D110108B8080020DC62030879
:101990008D120108B4080020B8620308051401087C
:1019A000B008002094620308BD160108AC080020AE
:1019B00070620308E5170108A808002008B5002296
:1019C0004FF48071014804F0EEFD08BD00000240B4
:1019D00008B501224FF48071014804F0E4FD08BD10
:1019E0000000024030B5EBB022AD644B0FCB85E870
:1019F0000F0002AC8022002120461AF081FF402314
:101A00008DF8083022238DF809305D4B1A7C8DF853
:101A10000A209A7C8DF80B201A7D8DF80C201B7EF5
:101A20008DF80D3001238DF827308DF82830554B77
:101A30000B930C95544B58AA1A605C6003E04FF46A
:101A4000FA7006F022FD09F053F90028F7D058A8E3
:101A500011F048FD4D4B03221A6002F017FF0446B7
:101A60000FE0FFF7ABFF4FF4FA7006F00EFDFFF743
:101A7000AFFF4FF4FA6006F008FD02A958A817F06E
:101A800061F9BDF84C30002BEBD0062102A803F021
:101A900029FB3F4802F008FF3B4B22463D4958A82E
:101AA00015F07EFB06E0012158A817F0E5FE0120A5
:101AB00006F0EBFC9DF88430032BF4D1324B5B68CD
:101AC0009A68130E0193C2F307430093C2F30723EE
:101AD000D2B23149012000F011FA0022114626A8A5
:101AE000FFF7B2FD9DF89930EBB12C49012000F0D1
:101AF00005FA274B01930DF23D13009347AB0DF10F
:101B00009A0202A958A803F02BFA58A803F0C0FEC5
:101B100002A958A804F088F858A801F053F807F073
:101B200011FF054608E01E49012000F0E7F9ECE747
:101B3000012006F0AAFC254607F004FF0446411BDD
:101B400058A817F099FE0B9BDB6802A8984700285D
:101B5000EED1FFF733FF642006F097FCFFF738FF64
:101B600040F6B83006F091FC0B9B1B6802A8984722
:101B700041F6583006F089FCE5E700BF345C030805
:101B8000007AFF1F18010020C00800202C0100204F
:101B90004916010800610308BC60030814610308CA
:101BA0002C6103080BB2002B20DD70B582B0064615
:101BB00015468B18042B02DD012002B070BD4C1EAF
:101BC000A4B20022012101A8FFF73EFD0AE004F1C2
:101BD00008036B4413F8043C0122A1B2304600F024
:101BE00047FE0134A542F2DC0020E6E70120704701
:101BF000F0B583B016460AB2002A43DD05461F46FB
:101C00008B19042B41DC27B3012F39D101398CB258
:101C10000022022101A8FFF717FD27460FE001224D
:101C2000B9B2284600F058FE01220021284600F0F3
:101C300053FE07F108036B4403F8040C0137331912
:101C4000BB42ECDC0122022101A8FFF7FDFC0020D1
:101C500019E04C1EA4B20022022101A8FFF7F4FCF7
:101C60000AE004F108036B4413F8043C0122A1B21A
:101C7000284600F0FDFD0134A642F2DC384602E0C1
:101C8000012000E0012003B0F0BD0120FBE70120AE
:101C900070470120704700002DE9F04389B000240F
:101CA0000394049405940694079400943C4B1A6B97
:101CB00042F080021A631A6B02F080020092009ACE
:101CC00001941A6B42F001021A631A6B02F00102CE
:101CD0000192019A02941A6B42F002021A631B6B82
:101CE00003F002030293029B2E4E22464FF4F07142
:101CF000304604F058FC2C4D22460721284604F0BB
:101D000052FC01224FF48051284604F04CFC012281
:101D10004FF40041304604F046FC4FF00709CDF87F
:101D20000C9004944FF00208CDF8148003A93046BB
:101D300004F0C6FAE0230393012704970594069460
:101D400003A9304604F0BCFACDF80C900497059432
:101D5000069403A9284604F0B3FA4FF48053039382
:101D600004970594CDF8188003A9284604F0A8FA32
:101D70004FF40143039304970594CDF8188003A909
:101D8000304604F09DFA4FF4807303930494059455
:101D900003A9284604F094FA09B0BDE8F08300BF17
:101DA00000380240000002400004024008B50B4821
:101DB0000B4B03600B4B436000238360C3604FF405
:101DC0008042026143618361C361036204F082FD6A
:101DD00000B908BD00F03CF9FBE700BFC8080020CF
:101DE00000540040400D030030B589B00023039338
:101DF00004930593069307930268154B9A4201D00A
:101E000009B030BD00250195124C236B43F002034D
:101E10002363236B03F002030193019BC02303930D
:101E200012230493012305930323069304230793AA
:101E300003A9094804F044FA0295236C43F4001303
:101E40002364236C03F400130293029BD8E700BFC2
:101E500000540040003802400004024002680A4B6F
:101E60009A4200D0704710B5084A136C23F400134F
:101E70001364074C4021204604F006FB80212046D5
:101E800004F002FB10BD00BF0054004000380240C7
:101E90000004024008B50748074B03600323436072
:101EA00040F6FF73836004F093FF00B908BD00F0B3
:101EB000CFF8FBE71C0900200030004084B08DE81B
:101EC0000F0004B0704738B501FB00F4204608F05D
:101ED000E3FC054618B1224600211AF011FD284600
:101EE00038BD000008B1014A1060704700000020B2
:101EF000014B1870704700BF280900200EB4F0B5E0
:101F0000ADF51C7D444B1B78834205D90DF51C7D36
:101F1000BDE8F04003B07047044601214FF48070E3
:101F2000FFF7D1FF05460028F0D04FF48172002161
:101F30005BA81AF0E5FC8DF86C4117F031FDFEF757
:101F40003DFB06460F460022344BFEF797FCFEF79A
:101F50002FFFCDE958014FA958A81AF067FD4FABE4
:101F60002F4A40213FA81BF073FB044630463946F8
:101F7000FEF70AFE2B4A82FB0032C317C3EBA21303
:101F80004FF47A7202FB1303274AC4F140013FA8C1
:101F9000204419F08BFF0444631C20223FA90A55FA
:101FA0000022CA54A2AB5A930DF26D16A19AFD21DC
:101FB00030461AF043FA04469DF86C2101961B4BFB
:101FC00053F8223000933FAB194A4FF480712846F2
:101FD00019F06CFFF52C1BD82846FEF761F98DF837
:101FE0006D024FF4807229460DF26D101AF0CFFC8D
:101FF000104B1E6846B15BACF2225FA968461BF02D
:10200000BBFE94E80F00B047284608F0C7FC7DE708
:10201000F6238DF86D32E4E72809002000408F4058
:1020200048630308D34D62105C630308040000207A
:10203000646303080000002008B50268034B9A425D
:1020400000D008BD04F098F8FBE700BF0040014055
:1020500072B6FEE700B595B03022002108A81AF04C
:102060004FFC002303930493059306930793019376
:10207000204A116C41F080511164126C02F08052C0
:102080000192019A02931C4B1A6842F440421A6072
:102090001B6803F440430293029B0A230893012325
:1020A0000B9310220C920D9302220E924FF4800398
:1020B0000F9304231093642111911292139308A893
:1020C00004F0B8FE88B90F2303930223049300237E
:1020D00005934FF4805206920793032103A805F05D
:1020E00013F920B915B05DF804FBFFF7B1FFFFF756
:1020F000AFFF00BF003802400070004000B583B061
:1021000072B6114B114A9A6062B6114B019302E00C
:10211000019B013B0193019B002BF9DC04F012F8B9
:10212000FFF798FFFFF7B8FD00F036F8FFF73EFE27
:1021300000F010F8FFF7AEFE06F01AF9FFF7A4FB67
:1021400006F028F9FEE700BF00ED00E000000108FE
:1021500040420F0008B50E480E4B03604FF48273E7
:10216000436000238360C360036143614FF40072E6
:1021700082610822C2610362436283620A23C362EE
:1021800005F0A0FA00B908BDFFF762FFFBE700BF4A
:10219000840900200030014008B50D480D4B036054
:1021A0004FF48273436000238360C3600361436123
:1021B0004FF400728261C3610362436283620A2347
:1021C000C36205F07FFA00B908BDFFF741FFFBE7E6
:1021D0002C0900200038004000B58BB00023059387
:1021E00006930793089309930368284A934205D0FE
:1021F000274A934225D00BB05DF804FB00210191E2
:10220000244B5A6C42F480525A645A6C02F4805245
:102210000192019A02911A6B42F002021A631B6B3F
:1022200003F002030293029B3823059302230693D3
:10223000032308930523099305A9174804F040F8E0
:10224000D9E700210391134B1A6C42F480421A64BF
:102250001A6C02F480420392039A04911A6B42F0C2
:1022600002021A631B6B03F002030493049B4FF4F6
:1022700060430593022306930323089305230993E0
:1022800005A9054804F01CF8B5E700BF003001407F
:1022900000380040003802400004024000B583B01E
:1022A000002200920D4B596C41F480415964596CE5
:1022B00001F48041009100990192196C41F0805124
:1022C00019641B6C03F080530193019B0F216FF085
:1022D000010003F0DDFF03B05DF804FB00380240AD
:1022E00030B589B00546002401941D4B5A6C42F468
:1022F00080325A645B6C03F480330193019B02A922
:1023000003A805F0D7F805F0C5F8164AA2FB00238C
:102310009B0C013B1448154A026040F2E732C26050
:10232000436004618460846105F042FE044610B19C
:10233000204609B030BD0C4805F0F4FC04460028E6
:10234000F6D1182003F0B4FF0F2D01D90124EFE7D7
:1023500000222946182003F09BFF054B1D60E7E78C
:102360000038024083DE1B43DC09002000400140AE
:1023700008010020FEE7FEE7FEE7FEE7FEE7704704
:1023800008B5024805F00EFD08BD00BFDC090020BD
:102390000120704708B51BF0B7FC162303604FF00F
:1023A000FF3008BD08B54FF0FF31FFF7F3FFFEE740
:1023B00070B50C461646002506E0AFF300802146B6
:1023C00001F8010B01350C46B542F6DB304670BD15
:1023D00070B50C461646002504E014F8010BAFF367
:1023E00000800135B542F8DB304670BD4FF0FF305C
:1023F00070474FF400534B60002070470120704736
:102400000020704710B503460C4A0D490D4800687E
:1024100040B10C4800680344521A934206D8094A56
:10242000136010BD0748084C0460F2E71BF06CFC19
:102430000C2303604FF0FF30F3E700BF00000220E1
:1024400000080000280A002018A20120034AD2F840
:10245000883043F47003C2F88830704700ED00E024
:10246000DFF834D0FFF7F2FF0C480D490D4A002386
:1024700002E0D458C4500433C4188C42F9D30A4A39
:102480000A4C002301E013600432A242FBD31BF08C
:1024900049FCFFF733FE70470000022000000020D7
:1024A00070080020DCC203087008002018A2012078
:1024B000FEE738B50B88052B01D0032038BD0C464C
:1024C0004378817841EA0321013189B2C3780279E6
:1024D00042EA0322531E9BB240F2CE7C634520D8D1
:1024E000002323800123037023880133238012F00B
:1024F000070F10D0C2F3C7030133DDB24570238844
:102500000133238000230230FFF772FB30B92388A8
:102510002B442380D2E7C2F3C705EFE700F0F0F9C0
:10252000CCE70320CAE70B88052B01D003207047B6
:102530004378817841EA0321013189B20379F3B903
:10254000C278531EDBB2FD2B1BD900B583B000232C
:102550008DF80530FF2A0BD000238DF804300123BD
:102560001A4601A8FFF744FB30B903B05DF804FB3D
:1025700001238DF80430F2E700F0C2F9F5E70320FB
:102580007047032070470B88052B2DD910B50C46DA
:102590004278837843EA0223013399B2C2780379FF
:1025A00043EA022290F805E013F0070F0ED0C2F3C1
:1025B000C70C0CF1010C5FFA8CFC531E9BB2B3F5F7
:1025C000F66F13D2F44504D0032010BDC2F3C70C3C
:1025D000F3E701230630FFF70BFB10B90523238037
:1025E000F3E700F08DF9F0E7032070470320ECE7F4
:1025F00038B50B88052B01D0032038BD0C46437835
:10260000817841EA0321013189B2C378027942EA33
:102610000322531E9BB240F2CE7C63451FD8002399
:1026200023800223037023880133238012F0070FD5
:102630000FD0C2F3C7030133DDB2457023880133E5
:1026400023800230FFF7AEFA30B923882B44238071
:10265000D3E7C2F3C705F0E700F052F9CDE7032056
:10266000CBE708B50B88052B01D0032008BD4378C4
:10267000817841EA0321013101231A4689B20330EE
:10268000FFF707FB0028F1D000F03AF9EEE70B88DE
:10269000052B22D910B50C464278837843EA0223F1
:1026A000013399B2C378027942EA032290F805C057
:1026B000531E9BB2772B12D85300DBB2634501D077
:1026C000032010BD01230630FFF7E3FA10B90523FC
:1026D0002380F6E700F014F9F3E7032070470320A6
:1026E000EFE738B50B88052B01D0032038BD024633
:1026F0000C464378817841EA0321013189B205799A
:102700006B1E9BB27C2B01D90320EFE700232380B3
:102710004FF0030C00F802CBB4F800C00CF1010C30
:10272000A4F800C04FEA450C82F801C022880132AB
:1027300022802A46FFF7ADFA20B9238803EB450330
:102740002380D3E700F0DCF8D0E7F8B50B88092B3D
:1027500043D904460D464378817841EA032101318B
:102760008EB2C378077947EA03274379817941EA32
:102770000321013189B2C379027A42EA0322407A05
:102780007B1E9BB27C2B2AD85AB3792A2BD8B0EB6C
:10279000420F01D0032021E0012304F10A00FFF7DA
:1027A00078FA0346B0B928802046172200F8022B99
:1027B0002A8801322A807A0062702A8801322A80AF
:1027C0003A463146FFF765FA20B92B8803EB4703F9
:1027D0002B8003E000F094F800E00020F8BD032017
:1027E000FCE70320FAE70320F8E70A88052A01D06E
:1027F0000320704738B503460C464278817841EA99
:102800000221013189B2C278057945EA02256A1EA2
:1028100092B27B2A01D9032038BD002222800422F3
:1028200000F8022B2288013222806A005A70238825
:10283000013323802A46FFF72AFA20B9238803EBC5
:1028400045032380E8E700F05BF8E5E738B50D467F
:10285000054B1C882246054901301BF08DFA0134D6
:102860002C80002038BD00BF2C0A0020300A002038
:1028700010B5082A23D84FEAD10E01F0070403FA55
:1028800004F44FF0010C0CFA02F292B2013A92B247
:1028900001F0070102FA01F110F80E300EEB0C0204
:1028A00010F802C043EA0C231BB223EA01031BB257
:1028B000234300F80E30C3F30723835410BD034BAA
:1028C000034A3721034817F0C9FA00BFA863030879
:1028D00000640308B86303084FEAD10C0123934056
:1028E0009BB2013B10F80C206044407842EA002281
:1028F00001F007010A4192B203EA0200C0B2704738
:10290000012805D0072805D008B10420704770477A
:10291000022070470620704710B500F0CEF904463B
:1029200020B1114B01221A70204610BD00F0CAF8E8
:10293000C0B10E4B0E4A1A600E4B0F4A1A600F4B75
:102940000F4A1A600F4B104A1A60104B00221A608F
:102950000F4BFF221A700F4B02221A70024B0122FA
:102960001A70E1E70324DFE79C000020680A0020DA
:10297000CB2C0108640A0020CD2C0108600A00203D
:10298000D52C01086C0A0020152D01085C0A0020D6
:10299000710A0020700A002008B5064B1B78012B35
:1029A00001D0062008BD044B1B6898470020014B4E
:1029B0001870F7E79C000020680A002030B583B04B
:1029C000364B1C78002C63D10DF1070000F08EF817
:1029D000012802D0204603B030BD9DF80730012BFE
:1029E00014D0022BF6D12E4B186801782D4B19709C
:1029F0002D4B01221A7000230F2B25DC2B4A12F8D5
:102A000033200AB3914217D00133F5E7284B1B68F6
:102A1000284A23492848984705460028DAD1264BFA
:102A20001B78264A1278934201D0002B32D1022023
:102A300000F050F82C46CDE71C4A02EBC3035B685C
:102A40001C499847184B18701B4B1B7823B3164B27
:102A50001B789BB1174A0021118012490978104850
:102A600005684FF0010CA2F800C041F08001297008
:102A70000068118801EB0C0515804354104B1B684E
:102A80000C4A1288064909680C4800789847A1E763
:102A900006249FE704469DE71C469BE79C00002018
:102AA000540A0020510A0020500A00201C00002077
:102AB000600A0020520A0020580A0020710A0020F3
:102AC0006C0A0020024B00221A700120704700BFE0
:102AD000720A00200123034A1370034A107018463B
:102AE000704700BF720A0020730A00200346054A9F
:102AF000107830B1044A12781A70024B00221A7012
:102B000001207047720A0020730A0020072900D0B4
:102B1000704738B504461E4B00F11C0293E80300D1
:102B200013F08CFA012806D094F8AD3043F020035E
:102B300084F8AD3038BD226C93B216490B8033B99E
:102B400094F8AD3043F0200384F8AD30F2E71A4634
:102B5000A16B11481BF010F90120FFF7BBFFFFF735
:102B60002DFFFFF72BFF0D4B1B7833B994F8AD30D9
:102B700043F0200384F8AD30DCE70025074B1D70DF
:102B8000074B1A880749204614F072FB2564D1E7E9
:102B9000740A002080120020841200207C0A002089
:102BA0007E0A0020800A002038B501FB00F4204690
:102BB00007F072FE054618B12246002119F0A0FE6A
:102BC000284638BD30B583B00023244A244914F088
:102BD00063FA0020FFF7A0FEFFF7DEFE002201925D
:102BE00001A9204807F0C0FF0198421E40F2FE33C1
:102BF0009A4215D801210844FFF7D6FF1A4D2860E4
:102C00000121184807F0EEFF0446019A296808F0F0
:102C100019F8019B6B60204608F008F803B030BD3E
:102C200001210B20FFF7C0FF03460F4C20600B2251
:102C300062600E4A03CA186059601188927819813F
:102C40009A720221074807F0CDFF054662682168A5
:102C500008F004F8284607F0E9FFDFE70D2B01082C
:102C60001064030824640308740A0020386403080D
:102C700001207047044B0360044B1A880A8000222D
:102C80001A800120704700BF8412002080120020AB
:102C900010B50C460A46014604481BF06DF8044B7B
:102CA0001C800120034B187010BD00BF800A00205B
:102CB0007E0A00207C0A0020704708B5FFF7D8FF85
:102CC00008B1002008BD0320FCE7704708B5FFF7F6
:102CD000F3FF08BD70B582B006460D4614460DF1EF
:102CE000020101A8FFF7C6FF80B1019B9978DA784D
:102CF00052EA01220CD107332B60BDF80230073BAA
:102D00002380FF233370002002B070BD0520FBE755
:102D10000520F9E708B50846D11D531C1B1200F821
:102D2000033C013200F8022C89B20738FFF7B0FFEC
:102D300008B1002008BD0520FCE7000008B5034BE2
:102D4000034AC82111F0E2F808BD00BFC0AC030877
:102D50004464030870B584B005460C4602AE1049C1
:102D6000304611F05DFA0023009396E80C0094E8D9
:102D7000030011F077FC58B10A4B01930A4B009302
:102D80000A4B0B4AC821284611F0C0F804B070BDA8
:102D9000084B074A40F29511284611F0B7F8F5E7BD
:102DA000E46403089065030894650308E864030875
:102DB000206503089865030870B584B005460C4685
:102DC00002AE1449304611F02BFA0023009396E826
:102DD0000C0094E8030011F045FC98B10E4B1B6AFF
:102DE0000E48984738B10E4B0E4AC821284611F0BC
:102DF0008DF804B070BD0C4B0A4AC821284611F06A
:102E000085F8F6E7094B074A40F29511284611F07C
:102E10007DF8EEE7E8650308A00000200C5F0308DA
:102E2000F0650308206503082C6603087066030834
:102E300070B584B005460C4602AE1249304611F01A
:102E4000EFF90023009396E80C0094E8030011F0DA
:102E500009FC78B10C4E336A0C4C20469847736AD3
:102E6000204698470A4B0B4AC821284611F04EF8D5
:102E700004B070BD084B074A40F29511284611F086
:102E800045F8F5E7E8650308A0000020F85E0308B0
:102E9000C06603082065030870660308F0B5C3B078
:102EA00006460D46002422947C273A46214623A854
:102EB00019F026FD02943A46214603A819F020FD98
:102EC0008022009202AB22A9284612F0D1F89DF888
:102ED000883013B19DF8082062B913B99DF8083005
:102EE0004BBB214B214A4FF4CA71304611F00EF80A
:102EF00043B0F0BD1E4B1D4A4FF4CA71304611F06D
:102F000005F8F5E7B82303FB04F41A4FE5192A4640
:102F100019490120FEF7F2FF002385F880300020D8
:102F20000021C5E92C013B55144B104AC8213046FD
:102F300010F0ECFFDCE70024092C0CDCB82304FBC8
:102F400003F3803302A90B481844FDF749F9002820
:102F5000D8D00134F0E70A4B044A4FF4CA71304626
:102F600010F0D4FFC4E700BF0C6803082065030815
:102F700008670308881A0020886703089C6703080D
:102F8000D867030830B5C7B005460C4690F8AC309A
:102F900013F0400224D0144B04F1800112B3134A01
:102FA0001348029001920091124A4FF4807106A8D2
:102FB00010F0AEFA0594002204920F4B03930F49D0
:102FC0000291019200930E4B06AAC821284610F0E8
:102FD0009DFF22460B490120FEF790FF47B030BD10
:102FE000094BD9E7094ADBE784680308A8680308A6
:102FF00000A30200B4680308CD2602082C79030858
:10300000F868030800690308986803080C6B030854
:103010002DE9F043E5B005460C46164600215991CE
:1030200025225AA819F06CFC8022009202AB22A93A
:10303000204612F01DF89DF8883013B19DF8082045
:103040004AB9002B40F0BB809DF80830002B40F0BF
:10305000B2800020B4E022AA5B490120FEF74EFFB7
:1030600042A811F02BF802A8FDF71AF9024602A9AE
:1030700042A811F03DF842A959A811F073F80024B4
:103080002AE041462846FFF77DFF66E04F4F802249
:1030900022A9384619F07BFC16F082FC4C4BC31871
:1030A00041F10001C7F8B030C7F8B410282107F18A
:1030B000800012F023FC4EB9B822464B02FB0432CA
:1030C00045490120FEF71AFF012079E039462846DC
:1030D000FFF758FFF0E70134092C45DC22A9A920AD
:1030E0003E4B00FB0430FDF77BF80028F3D1A92309
:1030F00004FB03F3803359A938481844FDF770F8EE
:103100000028E8D1334BB82202FB0433D3F8B08057
:10311000D3F8B47016F044FC80458F41B6D2B8277E
:1031200004FB07F7DFF8AC9007EB0908802222A91F
:10313000404619F02CFC16F033FC254BC01841F129
:103140000001C8F8B000C8F8B41007F180002821C9
:10315000484412F0D3FB002E93D142461E49012071
:10316000FEF7CCFE01202BE0002029E0B822194B0D
:1031700002FB043300931A4B1A4AC821284610F068
:10318000C5FE16E00134092C17DCB82304FB03F359
:10319000803302A90F481844FDF722F80028F1D126
:1031A000B82304FB03F30B4AD35C002BEAD0002EB8
:1031B000DCD1012004E00024E5E7002000E000204D
:1031C00065B0BDE8F08300BF1C690308401B002008
:1031D00000B84C0A881A00203C690308B821002076
:1031E000586903082065030810B504460122FFF75B
:1031F0000FFF00B110BD044B044A40F2931120466A
:1032000010F084FEF6E700BF986903082065030804
:1032100010B590B0044609A807F0FEFB0F9B06937B
:103220000E9B05930D9B04930C9B03930B9B0293A6
:103230000A9B0193099B0093034B044AC821204633
:1032400010F064FE10B010BDC8690308CC6A030812
:10325000F0B591B006460C460CAD4B49284610F02F
:10326000DFFF0023009395E80C0094E8030011F0C1
:10327000F9F928B3454C2368002201210AA8984790
:103280002368002202210DF12B0098479DF8283079
:103290009DF829209DF82A109DF82B009DF82C40C0
:1032A0009DF82D500595049403900291019200938E
:1032B000374B384AC821304610F028FE11B0F0BD17
:1032C0000EAD3549284610F0ABFF0023009395E87A
:1032D0000C0094E8030011F0C5F900284BD008ABAE
:1032E0002E4A04F5007103C90FF0D6FE00283AD02B
:1032F0000AAB2B4A04F5007494E803000FF0CCFEEF
:10330000002830D0DDE90801FDF766FCC4B2DDE934
:103310000A01FDF761FCC5B2631EDBB2022B01D8C6
:10332000012D07D91F4B1B4A4FF4C871304610F0CE
:10333000EDFDC3E7154F3B680022022107A898471F
:1033400004F13F036B4403F8245C3B680122022133
:1033500007A8984701950094134B0E4AC8213046A0
:1033600010F0D4FDAAE7114B0A4A4FF4C871304659
:1033700010F0CCFDA2E70E4B064A40F29511304604
:1033800010F0C4FD9AE700BFE4640308542800204D
:10339000106B030820650308E8650308446B030805
:1033A000506B0308906B0308586B0308CC6B030841
:1033B000086C030838B501FB00F4204607F06CFAEE
:1033C000054618B12246002119F09AFA284638BD60
:1033D000F0B58BB006460C4606AD8449284610F081
:1033E0001FFF0023009395E80C0094E8030011F000
:1033F00039F900283BD0C6210120FFF7DBFF054645
:1034000040B37B4B1B6800221146984705F1A50786
:103410003846FCF745FFC4B222462A21384619F047
:103420006FFA2C44002384F8A5306B78EBB1714B14
:10343000AA1C05F1840103970291019200936E4B3F
:103440006E4AC821304610F061FD284607F0A6FA02
:103450000BB0F0BD6A4B694A4FF4FA71304610F078
:1034600055FD284607F09AFAF2E7664BE0E708AD0B
:103470006549284610F0D4FE0023009395E80C001F
:1034800094E8030011F0EEF8002800F0A780C621B0
:103490000120FFF78FFF054610B305AB5B4A04F52B
:1034A000007103C90FF08EFB002824DB6B1C584A07
:1034B00004F5007797E803000FF014FE554A97E8EB
:1034C000030011F09DFF074628B316F085FC034664
:1034D000E0B10433032B79D8DFE803F07068605261
:1034E000474B464A4FF4FA71304610F00FFD28461C
:1034F00007F054FAACE7484B404A4FF4C8713046E5
:1035000010F004FD284607F049FAA1E77F2239466A
:10351000A81C19F03CFA384607F040FA3F4A04F577
:10352000007393E8030011F06BFF074628B12022D7
:10353000014605F1840019F02AFA384607F02EFA00
:10354000374A04F5007494E8030011F059FF04466B
:1035500028B12022014605F1A50019F018FA2046ED
:1035600007F01CFA01222A70214B1B680021284613
:1035700098472C4B214AC821304610F0C7FCC1E7C0
:10358000294B1E4A4FF4C871304610F0BFFC384634
:1035900007F004FA284607F001FA59E7234B174AC7
:1035A0004FF4C871304610F0B1FCF0E7204B134ADD
:1035B0004FF4C871304610F0A9FCE8E71D4B0F4AE4
:1035C0004FF4C871304610F0A1FCE0E71A4B0B4AEB
:1035D0004FF4C871304610F099FCD8E7174B074AF2
:1035E00040F29511304610F091FC31E7E464030895
:1035F000542800205C6C0308A86C030820650308AD
:103600006C6C0308646C0308E8650308F06C03083D
:10361000246D0308306D0308F46C0308786E03080A
:10362000846E0308906E03083C6D0308806D0308E8
:10363000CC6D03080C6E0308446E0308086C030885
:1036400070B58AB006460C4604AD5E49284610F0B7
:10365000E7FD0023009395E80C0094E8030011F0C7
:1036600001F800283DD00022039203A9564807F034
:103670007BFA0398421E40F2FE339A4229D8012178
:103680000844FFF797FE0446B8B101214E4807F001
:10369000A9FA0546039A214607F0D4FA284607F00E
:1036A000C5FA0094494B4A4AC821304610F02EFC16
:1036B000204607F073F90AB070BD46490320FEF7B3
:1036C0001DFC454B424A4FF4FA71304610F01EFC87
:1036D000F1E7424B3E4A4FF4FA71304610F016FCC7
:1036E000E9E706AD3E49284610F09AFD0023009315
:1036F00095E80C0094E8030010F0B4FF002858D0BF
:1037000003AB384A04F5007103C90FF05BFA0028D7
:1037100034DB354A04F5007494E8030011F070FEC0
:10372000044600283DD008AD0146284610F078FD3B
:1037300006F11C0295E8030012F080FC002825DB4E
:10374000214D284607F0BCFA0221284607F04AFA24
:1037500005462046FCF7A4FD421C2146284607F0FA
:103760007DFA284607F062FA204B194AC8213046F4
:1037700010F0CCFB204607F011F99CE71C4B144AD3
:103780004FF4C871304610F0C1FB94E7194B104A52
:103790004FF4C871304610F0B9FB204607F0FEF830
:1037A00089E7154B0A4A4FF4C871304610F0AEFB5A
:1037B00081E7124B064A40F29511304610F0A6FB05
:1037C00079E700BFE464030824640308286F030852
:1037D00020650308CC6E0308006F0308546F0308CC
:1037E000E8650308F06C0308886F0308D06F0308CE
:1037F000F46C0308986F0308247003086C700308C6
:103800002DE9F04FC7B081468A4672228E4927A81B
:103810001AF0B2FA01211E20FFF7CCFD0646012165
:103820002E20FFF7C7FD074601212E20FFF7C2FD1E
:10383000804601214FF44070FFF7BCFD0446012192
:103840004FF4C070FFF7B6FD0546002E00F0E38090
:10385000002F00F0E080B8F1000F00F0DC80002CB9
:1038600000F0D980002800F0D6800DF5887B7749DC
:10387000584610F0D5FC002300939BE80C009AE812
:10388000030010F0EFFE002800F0BD8001F062FBA5
:10389000824658B390F8AC3013F0200F2CD190F83A
:1038A000AD3013F0200F2DD01E226949304619F09B
:1038B0006EF8DFF8C4B10AF1080300935B46654A6D
:1038C0002E2140460FF024FE0AF11C0300935B46B4
:1038D000604A2E2138460FF01BFE2046FCF7E0FC24
:1038E0005D4B1B8823524FF0010A28E01E225B49E2
:1038F000304619F04CF8F0E71E225949304619F0CD
:1039000046F8D6E71E225749304619F040F8D0E76E
:103910005FFA8AF30122802107A801F00BFF07A9B3
:10392000204618F0F5FF2046FCF7BAFC03462118A4
:103930004D4A1068E05013790B710AF1010ABAF18F
:10394000030FE5DD4FF0010A07E02046FCF7A8FC75
:10395000414B1B8823520AF1010ABAF1030F18DC0C
:103960005FFA8AF30222802107A801F0E3FE07A98B
:10397000204618F0CDFFBAF1020FE6DC2046FCF736
:103980008FFC03462118384A1068E05013790B71F8
:10399000E1E72846FCF784FC2F4B1B882B524FF0A5
:1039A000010A07E02846FCF77BFC2B4B1B882B52B7
:1039B0000AF1010ABAF1030F18DC5FFA8AF3022256
:1039C000802107A801F09EFE07A9284618F0A0FF55
:1039D000BAF1020FE6DC2846FCF762FC0346291820
:1039E000214A1068E85013790B71E1E704950394BC
:1039F0000297CDF80480009627AB1C4AC8214846A0
:103A000010F084FA0EE01A4B184A40F2951148461D
:103A100010F07CFA06E0174B144A4FF4FA7148464E
:103A200010F074FA304606F0B9FF384606F0B6FFDB
:103A3000404606F0B3FF204606F0B0FF284606F0E9
:103A4000ADFF47B0BDE8F08F2C710308E4640308B4
:103A5000CC700308E0700308E470030850AE03085C
:103A6000C0700308D4700308E870030820650308D9
:103A7000086C0308F0700308BD5F0208F0B58DB054
:103A800007460C46154608AE2349304610F0C8FBE1
:103A90000023009396E80C0094E8030010F0E2FD88
:103AA00018B300230293039304930593069307939B
:103AB0001A4B02931A4B079345B1012D0ED002AB5E
:103AC000184A2146384610F089FF05E002AB154A36
:103AD0002146384610F082FF0DB0F0BD02AB124A0D
:103AE0002146384610F07AFFF6E70AAD0F4928461E
:103AF00010F096FB0023009395E80C0094E8030077
:103B000010F0B0FD0028E7D1094B0A4A40F29511A8
:103B1000384610F0FBF9DFE7E4640308E4780308B3
:103B2000A0000020F45F030804600308E8650308B0
:103B3000A071030820650308F8B504460D46164633
:103B40000B4F3B6A98470222214638460EF050FF41
:103B500004467B69A92206FB02F2294600689847C1
:103B600020460EF05EFF03490120FEF7C7F9F8BDBD
:103B7000A0000020F87103082DE9F041AEB0064620
:103B80000C4626ADA849284610F04AFB00230093B6
:103B900095E80C0094E8030010F064FD002843D180
:103BA00028ADA249284610F03BFB0023009395E87E
:103BB0000C0094E8030010F055FD002800F0FD8093
:103BC00003AB9B4A04F5007103C90EF0FBFF00280C
:103BD000C0F28980974A04F5007494E8030011F05C
:103BE0000FFC0546944A94E8030011F009FC0746CF
:103BF000002D00F0D480002800F0D1802B78002B1D
:103C000000F0CD800378002B00F0C9800024092C3F
:103C10007FDC2946A920894B00FB0430FCF7E0FA41
:103C2000002868D00134F2E701214FF48060FFF7EB
:103C3000C1FB07460121A020FFF7BCFB8046002FF7
:103C40003DD000283BD07E4B07CB38607960BA600E
:103C50001B783B730C25002408E04346794AC5F5E0
:103C60008061781918F022F905440134092C18DC18
:103C7000A92204FB02F2714B9A5C002AF5D0A9221A
:103C800002FB0433704AA021404618F00FF90C2DB6
:103C9000E3D96E4AC5F58061781918F007F9054433
:103CA000DBE76B4AC5F58061781918F0FFF80097DB
:103CB000644B684AC821304610F028F90AE066498A
:103CC0000320FEF71BF9654B624A4FF4FA71304648
:103CD00010F01CF9384606F061FE404606F05EFE24
:103CE0002EB0BDE8F0815E4B5A4A4FF4C8713046A1
:103CF00010F00CF9F4E75B4B564A4FF4C8713046AC
:103D000010F004F9284606F049FE384606F046FE53
:103D1000E6E7002404942522214605A818F0F0FDCA
:103D20000FA810F0CBF93846FCF7BAFA024639462C
:103D30000FA810F0DDF90FA904A810F013FA21461E
:103D4000092924DCA92301FB03F33C4AD35C0BB112
:103D50000131F5E7A92303FB01F490467F222946B0
:103D600008EB040018F013FE8034282204A908EBA5
:103D7000040018F00CFE0A2241463B48FFF7DCFE27
:103D80003A4B344AC821304610F0C0F80EE0384BA8
:103D9000304A4FF4C871304610F0B8F806E0354BA1
:103DA0002C4A4FF4C871304610F0B0F8284606F09F
:103DB000F5FD384606F0F2FD92E72AAD2E49284679
:103DC00010F02EFA0023009395E80C0094E803000D
:103DD00010F048FC002855D12CAD2849284610F099
:103DE0001FFA0023009395E80C0094E8030010F0FC
:103DF00039FC002800F0F3800E4A04F5007494E8C2
:103E0000030011F0FDFA074618B10378002B40F0CB
:103E1000CF801B4B0F4A4FF4C871304610F076F834
:103E2000384606F0BBFD5BE7E4640308E865030879
:103E3000F06C03083872030840720308B8210020B0
:103E4000107203085CAE0308207203083072030886
:103E50003472030820650308CC6E0308006F030862
:103E6000F46C0308487203084C5F0308847203086B
:103E7000C0720308F472030834730308F073030874
:103E80008C74030803AB5A4A04F5007103C90EF0A1
:103E900099FE002821DB574A04F5007494E80300DA
:103EA00011F0AEFA0546544A94E8030011F0A8FA5E
:103EB000044625B118B12B780BB10378BBB94F4B31
:103EC0004F4A4FF4C871304610F020F8284606F0EB
:103ED00065FD204606F062FD02E74A4B484A4FF472
:103EE000C871304610F012F800242546EEE700278E
:103EF00004972522394605A818F002FD0FA810F0F6
:103F0000DDF82046FCF7CCF9024621460FA810F058
:103F1000EFF80FA904A810F025F9092F25DC294690
:103F2000A920394B00FB0730FCF75AF908B10137DB
:103F3000F3E7A92303FB07F707F18000DFF8C88048
:103F4000282204A9404418F022FD4744002387F8A2
:103F5000A8300A2241462D48FFF7EEFD2C4B284A97
:103F6000C82130460FF0D2FFB0E72A4B244A4FF465
:103F7000CA7130460FF0CAFFA8E780220021284608
:103F800018F0BEFCA92303FB04F080301E4C29224C
:103F90000021204418F0B4FC0A2221461B48FFF7F8
:103FA000CBFD1D4B164AC82130460FF0AFFF37E757
:103FB0000124092C0BDCA923134D03FB04553946BE
:103FC0002846FCF70DF90028D7D00134F1E7134B50
:103FD0000B4A4FF4C87130460FF098FF20E7104BA2
:103FE000074A40F2951130460FF090FF78E600BF87
:103FF000F06C03083872030840720308AC730308BE
:1040000020650308F46C0308B82100204C5F030806
:10401000387303087C730308F873030838740308C3
:10402000CC74030870B50E461446012201460E48B2
:104030000EF0DEFC88B105460B4B1B69A92204FB80
:1040400002F231460068984728460EF0EAFC07491C
:104050000120FDF753FF012070BD05490320FDF746
:104060004DFF0020F8E700BFA000002048750308BE
:104070002C75030870B586B005460C4604AE15498C
:10408000304610F0CDF80023009396E80C0094E839
:10409000030010F0E7FAA0B1EB6F18680023029359
:1040A0000D4B0193012300934FF4FA62002311F0AA
:1040B00099FA0A4B0A4AC82128460FF027FF06B092
:1040C00070BD084B064A40F2951128460FF01EFFBE
:1040D000F5E700BFE8650308B962010864750308E5
:1040E000206503087066030870B584B005460C4669
:1040F00002AE1449304610F093F80023009396E87E
:104100000C0094E8030010F0ADFA98B10E4BDB6997
:104110000E490F48984728B121462846FFF7AAFFC5
:1041200004B070BD0B4B0C4A4FF4FA7128460FF0E7
:10413000EDFEF5E7094B084A40F2951128460FF0CD
:10414000E5FEEDE7E8650308A00000200C5F03082A
:104150009C750308B475030820650308706603089E
:1041600070B5C4B006460C4642AD2049284610F052
:1041700057F80023009395E80C0094E8030010F032
:1041800071FA50B37B2323AA194904F5007010F08B
:1041900034FF002819DD23AB164A802103A817F04D
:1041A00085FE154B5B6A03A8984730B1134B144A40
:1041B000C82130460FF0AAFE16E0124B104A4FF409
:1041C000FA7130460FF0A2FE0EE00F4B0C4A4FF48E
:1041D000C87130460FF09AFE06E00C4B084A40F2D8
:1041E000951130460FF092FE44B070BDE8650308AB
:1041F000F875030800760308A0000020087603087D
:10420000206503083C760308787603087066030887
:1042100070B5A4B005460C4622AE1C4930460FF0DE
:10422000FFFF0023009396E80C0094E8030010F0D1
:1042300019FA08B3802302AA154904F1100010F0FE
:10424000DCFE144902A8FBF7CBFF58B9124B0093D0
:10425000124B134A2146284612F096FC012005F025
:104260007FFC10E00B4B00930E4B0F4A4FF4C871CC
:1042700028460FF04BFE06E00C4B0B4A40F295111E
:1042800028460FF043FE24B070BD00BFE865030868
:10429000ACAD0308B476030890D00300005F0308B8
:1042A000A0000020C4760308206503087066030898
:1042B000F0B597B004460E4601214FF48060FFF739
:1042C00079F8054650B10122214628480EF090FBAE
:1042D000044640B168460EF09BFF10E006F05EFB1E
:1042E0004FF0FF3040E00EF09CFB284606F056FBF6
:1042F0006FF0010038E0294668460EF09FFF1B4B27
:104300001B694FF4806229462068984702460028BE
:10431000F1D120460EF085FB01211020FFF74AF86D
:10432000074628B1014668460EF0DFFF002412E080
:10433000284606F033FB384606F030FB4FF0FF30DE
:1043400012E061003B5D0A4AC1F1210106EB440025
:1043500017F0ACFD01340F2CF3DD284606F01EFBF0
:10436000384606F01BFB002017B0F0BDA00000206F
:104370001077030870B584B005460C4602AE1949A3
:1043800030460FF04DFF0023009396E80C0094E8B0
:10439000030010F067F9E8B101212120FFF70AF8C6
:1043A000044601461048FFF783FF58B900940F4BAD
:1043B0000F4AC82128460FF0A9FD204606F0EEFA64
:1043C00004B070BD0B4B0A4A4FF4CA7128460FF077
:1043D0009DFDF2E7084B064A40F2951128460FF082
:1043E00095FDEDE7E46403089C750308187703085E
:1043F000206503083C770308986503080B2900D063
:104400007047F0B5B3B00546144600222146FEF7CA
:10441000FFFD074608AEAD4930460FF001FF00230F
:10442000009396E80C0094E8030010F01BF920B10B
:104430002846FEF783FC33B0F0BD0AAEA4493046EF
:104440000FF0EEFE0023009396E80C0004F1080143
:1044500003C910F007F900B1BFB10CAE9D49304659
:104460000FF0DEFE0023009396E80C0004F1080133
:1044700003C910F0F7F880B197490120FDF73EFD20
:1044800021462846FEF7B0FED5E7944B944A40F209
:10449000931128460FF03AFDCDE70EAE9149304614
:1044A0000FF0BEFE0023009396E80C0004F1080113
:1044B00003C910F0D7F840B18B490120FDF71EFD6C
:1044C00021462846FEF7EAFCB5E710AE874930469C
:1044D0000FF0A6FE0023009396E80C0004F10801FB
:1044E00003C910F0BFF838B181490120FDF706FD7E
:1044F0002846FEF78DFE9EE712AE7E4930460FF04D
:104500008FFE0023009396E80C0004F1080103C914
:1045100010F0A8F840B178490120FDF7EFFC2146E2
:104520002846FEF795FE86E714AE744930460FF034
:1045300077FE0023009396E80C0004F1080103C9FC
:1045400010F090F840B16E490120FDF7D7FC2146EC
:104550002846FEF73DFF6EE716AE6A4930460FF07B
:104560005FFE0023009396E80C0004F1080103C9E4
:1045700010F078F840B164490120FDF7BFFC2146F6
:104580002846FFF75DF856E718AE604930460FF051
:1045900047FE0023009396E80C0004F1080103C9CC
:1045A00010F060F840B15A490120FDF7A7FC214600
:1045B0002846FFF725F93EE71AAE564930460FF078
:1045C0002FFE0023009396E80C00E168A06810F02D
:1045D00049F848B150490120FDF790FC00222146DE
:1045E0002846FFF74BFA26E71CAE4C4930460FF041
:1045F00017FE0023009396E80C00E168A06810F015
:1046000031F848B146490120FDF778FC01222146E6
:104610002846FFF733FA0EE71EAE424930460FF048
:10462000FFFD0023009396E80C00E168A06810F0FD
:1046300019F840B13C490120FDF760FC21462846AD
:10464000FFF79AFAF7E620AE384930460FF0E8FD5A
:104650000023009396E80C00E168A06810F002F8CF
:1046600040B133490120FDF749FC21462846FFF7B8
:1046700001FDE0E622AE2F4930460FF0D1FD0023C8
:10468000009396E80C00E168A0680FF0EBFF40B1E2
:1046900029490120FDF732FC21462846FEF75AFB46
:1046A000C9E624AE254930460FF0BAFD0023009339
:1046B00096E80C00E168A0680FF0D4FF00283FD016
:1046C00021462846FFF7A4FDB5E600BF7C77030826
:1046D000847703089C770308A87703088C7703087E
:1046E0000C6B0308BC770308C8770308E07703085E
:1046F000F07703080C7803081C7803083478030863
:1047000048780308647803087478030890780308ED
:10471000A4780308C0780308D0780308EC7803086D
:1047200000790308207903083479030850790308D5
:10473000647903088479030898790308B879030831
:1047400026AE474930460FF06BFD0023009396E8F4
:104750000C00E168A0680FF085FF40B141490120DD
:10476000FDF7CCFB21462846FFF704FE63E628AEA2
:104770003D4930460FF054FD0023009396E80C00AD
:10478000E168A0680FF06EFF40B138490120FDF7E5
:10479000B5FB21462846FFF7A7FC4CE62AAE344974
:1047A00030460FF03DFD0023009396E80C00E168D1
:1047B000A0680FF057FF20B121462846FEF7FCFA0B
:1047C00039E62CAE2B4930460FF02AFD002300932A
:1047D00096E80C00E168A0680FF044FF20B1214684
:1047E0002846FEF725FB26E62EAE234930460FF07D
:1047F00017FD0023009396E80C00E168A0680FF015
:1048000031FF40B11D4B00931D4B1E4A21462846E7
:1048100012F0BAF90FE630AE1B4930460FF000FD3A
:104820000023009396E80C00E168A0680FF01AFFDF
:1048300020B121462846FFF793FCFCE500230293B4
:10484000039304930593069307930D4B02930D4B2B
:10485000079302AA2146284612F0B0F8EBE500BF04
:10486000D0790308E4790308007A0308147A03086E
:10487000347A0308507A03086C7A030860E3160060
:10488000F85E0308A0000020887A030808B50A2211
:1048900002490348FFF7C6FB024808BDB8210020C3
:1048A0004C5F0308FD430108014B1860704700BFCF
:1048B000542800201A4B1B6803B1704730B585B0EF
:1048C00018490120FDF71AFB174C40220021204611
:1048D00018F016F802AD154B196828460FF0A0FC29
:1048E00095E8030084E80300114B196828460FF08F
:1048F00097FC04F1080395E8030083E803003C23D8
:104900006385002300930B4B22460B4909680B4833
:10491000006814F0F9F9024B186005B030BD00BF13
:1049200078280020A47A03087C280020D0280020C2
:10493000CC280020914E0108D4280020C028002057
:104940002DE9F04F85B08146884692462A4C00F109
:1049500008030093294B2A4A282120680EF0D8FD2D
:1049600024682046FBF79CFC0146204600F0E0FB53
:1049700000263BE008EBC60318F836401D79214FAE
:104980002B4622468021386800F0F0FBDFF880B02B
:104990002B4622464FF41671DBF8000000F096FC1F
:1049A000194D02AC396820460FF03AFC05F11803A6
:1049B00094E8030083E80300DBF8001020460FF0C2
:1049C0002FFC05F1200394E8030083E80300012491
:1049D00085F8284085F82E402946484612F0FAFE10
:1049E0003A680A492046FDF789FA26445645C1D35C
:1049F00005B0BDE8F08F00BF74280020A15F020859
:104A0000E0700308C82800207C280020C47A03082E
:104A1000C428002070B584B000230193056886681F
:104A200026B3044615B3714B1B680022022103A86C
:104A30009847039BADF808301B0C8DF80A306C4981
:104A4000284617F0DDFF002800F0BA8001AA694966
:104A500017F0B4FB012818D0674B1B68002B00F33C
:104A6000A58066490320FDF749FAB2E0624B1B6856
:104A7000002B40F3AE80624B92226249012011F07C
:104A800043FB61480FF0EEF9A3E05B4B1B68012B81
:104A900018DC2B46019A5D490120FDF72FFA019D94
:104AA0006B1E022B1AD8E468022C2ED0032C4FD098
:104AB000514B1B68002B6EDC324655490320FDF735
:104AC0001DFA86E04E4B9F224E49022011F01CFB3E
:104AD0002A4601994F480FF0C5F9DAE7464B1B68A3
:104AE000002B06DC019B03224B491046FDF706FA1A
:104AF0006FE0434BA4224349012011F005FB019ACA
:104B0000032145480FF0AEF9ECE702224349304655
:104B100017F02BFF0028C9D105F10F036B440122C8
:104B200003F8082C344B1B68934206DC2F4B1B68A0
:104B30000122022102A898474BE0314BAE223149B5
:104B4000022011F0E1FA019935480FF08BF9EDE7F9
:104B500003223449304617F008FF0028A8D105F198
:104B60000F036B44002203F8082C234B1B68012B16
:104B700006DC1E4B1B680122022102A8984728E090
:104B80001F4BB2221F49022011F0BEFA019926489C
:104B90000FF068F9EDE71A4BB6221A49012011F01F
:104BA000B3FA31461A480FF05DF985E7144BBB2282
:104BB0001449012011F0A8FA1C480FF053F950E7EE
:104BC0000D4B1B68002B06DC2A4619490320FDF714
:104BD00095F904B070BD0A4BBF220A49012011F0BB
:104BE00093FA294612480FF03DF9EDE760280020BE
:104BF000587B0308607B03082C010020B47C030869
:104C0000E87A0308087B0308347B0308987B0308D1
:104C1000407C03086C7B0308C07B0308107C0308FE
:104C2000147C0308287C03082C7C03087C7C030884
:104C3000EC7C030838B501FB00F4204605F02CFE9F
:104C4000054618B12246002117F05AFE284638BD05
:104C50002DE9F04387B007460C46584D2B680022DB
:104C6000012104A898472B68002202210DF11300AE
:104C700098470322524904A817F0AEFD48B9032211
:104C800050490DF1130017F0A7FD10B9002C00F0EA
:104C900091804B4B06AA12E903001860998001210C
:104CA0004FF41670FFF7C6FF064601218020FFF77C
:104CB000C1FF0546002238E002F101085FFA88F8DA
:104CC00002F118030DEB030212F8083C009343466F
:104CD00001224FF41671304600F0ECFC43460122ED
:104CE0008021284600F026FDDFF8DC9002AC294642
:104CF00020460FF095FA09F1180394E8030083E8C1
:104D00000300314620460FF08BFA09F1200394E8A6
:104D1000030083E80300002389F8283089F82E3047
:104D20004946384612F056FD4246022AC4D90022AE
:104D300038E002F101085FFA88F802F118030DEB80
:104D4000030212F8053C0093434602224FF4167109
:104D5000304600F0AFFC434602228021284600F096
:104D6000E9FCDFF8649002AC294620460FF058FABF
:104D700009F1180394E8030083E803003146204654
:104D80000FF04EFA09F1200394E8030083E80300D2
:104D9000002389F8283089F82E304946384612F029
:104DA00019FD4246022AC4D9304605F0F7FD2846CF
:104DB00005F0F4FD07B0BDE8F08300BF60280020D7
:104DC000582800205B2800207C28002008B5054BCF
:104DD000186810B1044B1B7803B908BD0021FFF718
:104DE00037FFFAE7782800206428002008B5054B33
:104DF0001B7803B908BD0121034B1868FFF728FF92
:104E0000F8E700BF64280020782800202DE9F04F43
:104E100083B081460D461646002400E00134B442BA
:104E20002ED205EBC40855F83430022BF6D10121FF
:104E30008020FFF7FFFE074698F804300222802109
:104E400000F060FCDFF844804FF0010B88F828B0D8
:104E5000EA46394650460FF0E3F908F118039AE89C
:104E6000030083E803004146484612F065FC3A46D9
:104E700005495846FDF742F8384605F08FFDCDE765
:104E800003B0BDE8F08F00BF1C7D03087C28002024
:104E900070B5102931D00546112902D009293AD020
:104EA00070BD224B1B68022B1DDC21490120FDF740
:104EB00025F8204B1D60204B1B78002BF0D11F4E96
:104EC000062231462846FFF73BFD1A4C0121206897
:104ED000FFF7BEFE062231462068FFF797FF164B0C
:104EE00001221A70DCE7164BCD221649032011F07F
:104EF0000BF915480EF0B6FFD7E714461349012009
:104F0000FCF7FCFF2046FFF785FD0021094B1868E0
:104F1000FFF79EFEC4E70E490120FCF7EFFF0023D8
:104F2000044A1360044A1370BAE700BF2C01002042
:104F3000647D03087828002064280020C800002031
:104F4000387D0308087B03084C7D03087C7D03083B
:104F5000A07D0308014B1868704700BF7828002027
:104F60002DE9F04786B006460C4691461D460121C4
:104F70008020FFF75FFEDFF848A1CAF8000001219A
:104F80002120FFF757FEDFF83C81C8F8000001211F
:104F90002120FFF74FFE3B4F386001218020FFF7B3
:104FA00049FE394B186001214FF41670FFF742FE9D
:104FB000364B186001212820FFF73CFE344B186067
:104FC0000F9A344B1A60DAF800A04946504618F0A0
:104FD000A1FED8F800902946484618F09BFE0E998D
:104FE000386818F097FE4B4652462B490120FCF7D3
:104FF00085FF2A4D2E602A4B1C600621204600F0BA
:1050000071F8284E04ACD8F8001020460FF008F9CB
:1050100094E8030086E80300396820460FF000F9A1
:1050200006F1080394E8030083E803003C2373853A
:10503000002402941C4B01930323009342F210724C
:105040000023286810F0CEFA184B18600294184B11
:1050500001930126009643F698220023286810F059
:10506000C1FA144B18600294134B019300964FF44D
:10507000FA720023286810F0B5FA104B186006B0D9
:10508000BDE8F087CC280020C8280020C4280020D4
:105090007428002060280020B87D0308C028002064
:1050A000BC2800207C280020B5480108702800207A
:1050B000ED4D01086C280020CD4D01086828002026
:1050C000D4280020D028002038B501FB00F4204669
:1050D00005F0E2FB054618B12246002117F010FC4E
:1050E000284638BD70B506460D460F4B186808B106
:1050F00005F054FC680001210844FFF7E5FF0A4B66
:10510000186008B100240BE04FF0FF300BE0064BB5
:105110001868325D054900EB440017F02FF80134A0
:10512000AC42F4D3002070BDDC280020E47D0308ED
:1051300038B505460C460C4B186808B105F02EFC36
:1051400001216018FFF7C0FF074B186040B12246ED
:10515000294617F01CFC044B1B680020185538BD6D
:105160004FF0FF30FBE700BFD828002000B587B024
:105170004FF0000C80F800C0013A072A00F2878047
:10518000DFE802F004162545356575550493414B5B
:105190000393414B1B680293404B0193404B009398
:1051A000404B414A16F082FE002007B05DF804FB38
:1051B00004933E4B0393384A12680292374A019295
:1051C0000093384B384A16F071FE0020EDE7049347
:1051D000374B0393304B1B680293304B0193354B95
:1051E0000093304B304A16F061FE0020DDE7049357
:1051F000314B0393284B1B680293284B01932D4B93
:105200000093284B284A16F051FE0020CDE7049366
:105210002A4B0393204B1B680293204B0193254B91
:105220000093204B204A16F041FE0020BDE7049376
:10523000234B0393184B1B680293184B01931D4B90
:105240000093184B184A16F031FE0020ADE7049386
:105250001C4B0393104B1B680293104B0193154B8F
:105260000093104B104A16F021FE00209DE7049396
:10527000154B0393084B1B680293084B01930D4B8E
:105280000093084B084A16F011FE00208DE74FF0FE
:10529000FF308AE7047E0308DC2800200C7E030828
:1052A000147E0308F8000020EC7D0308587B0308F7
:1052B000247E03082C7E0308347E03083C7E03080A
:1052C000447E0308547E0308647E03082DE9F04FF2
:1052D00099B017900D4617461C460A46002117F054
:1052E0000FFB7A1E072A00F2BA81DFE812F00800ED
:1052F0004300A100EA00C5006E01930149010121AC
:105300008020FFF7E1FE07460094804B804A802111
:1053100016F0CCFD7F4B1A687F4B1B6814937F4BB4
:1053200013937F4B12937F4B11937F4B10937F4BC3
:105330000F930E927E4B0D937E490C910B947E49F8
:105340000A910992089307977C4806900594049166
:105350000394029101920093794B7A4A2946179857
:1053600016F0A4FD0446384605F018FBE0B219B06B
:10537000BDE8F08F01218020FFF7A6FE074601213E
:105380008020FFF7A1FE8046DFF8F09100944B46A5
:105390006D4A8021384616F089FDDFF894A1654EEC
:1053A00002960197DFF86CB1DBF8003000935346AA
:1053B000664A8021404616F079FD0094644B544AB9
:1053C0008021384616F072FDDBF80030524A126830
:1053D0001492524A1392524A1292524A1192524ACB
:1053E0001092524A0F920E93CDF834A00C960B9463
:1053F000CDF828900993CDF820A00797CDF8188014
:105400000594CDF810900394CDF808900193CDF851
:1054100000A04B464B4A2946179816F047FD044614
:10542000384605F0BBFA404605F0B8FAE0B29EE710
:10543000384B19683E4B474A374800681090374848
:105440000F9037480E9037480D9037480C903748EA
:105450000B900A9109934048089007920691059392
:105460003E4804903E48039002923E4801900091CD
:105470003449179816F082FE264B19682C4B3A4A8D
:1054800025480068109025480F9025480E90254823
:105490000D9025480C9025480B900A9109933348AC
:1054A0000890079206910593314804902348039091
:1054B00002922C48019000912249179816F05EFE46
:1054C000DAE7144B19681A4B1D4A1348006810900C
:1054D00012480F9012480E9012480D9012480C90EE
:1054E00012480B900A91099322480890079206915E
:1054F00005932148049011480390029219480190A5
:1055000000911049179816F039FEB5E76C7E030834
:10551000787E0308DC280020D82800209465030842
:1055200090650308807E0308907E0308A47E03082C
:105530000C7E03080C6B0308047E0308FCA203081E
:105540003C7E030808800308B07E0308E07F030860
:10555000B87E0308247E0308CC7E0308D07E0308AF
:10556000E07E0308047F0308347E03080C7F0308F1
:10557000107F0308207F0308247F0308587B03085B
:10558000384B1968384B394A394800681090394807
:105590000F9039480E9039480D9039480C90394891
:1055A0000B900A9109933848089007920691059349
:1055B0003648049036480390029236480190009194
:1055C0003549179816F0DAFD56E7264B1968264B31
:1055D000324A27480068109026480F9026480E90BF
:1055E00026480D9026480C9026480B900A91099366
:1055F0002B4808900792069105932A480490244866
:10560000039002922348019000912349179816F0C5
:10561000B5FD31E7134B1968134B234A1448006852
:10562000109014480F9014480E9014480D90144890
:105630000C9014480B900A9109931C48089007920B
:10564000069105931A48049011480390029211485C
:10565000019000911049179816F090FD0CE74FF05B
:10566000FF3084E6DC2800200C7E0308447E03081B
:10567000D82800209465030890650308807E0308FD
:10568000907E0308A47E0308487F03084C7F03082C
:10569000FCA20308047F030808800308547E030863
:1056A0006C7F0308707F0308647E03089C7F0308F7
:1056B000A07F030830B583B01C469DF81850012A1E
:1056C0000BD0022A0BD10A4B5DB10A4A0192009419
:1056D000094A16F0EBFB03B030BD084BF4E700239A
:1056E000F2E7074A01920094034A16F0DFFBF2E763
:1056F000587B0308107C0308D07F0308047E03084E
:10570000287C030800B585B00293064B0193064B35
:105710001B680093054B064A16F0C8FB05B05DF800
:1057200004FB00BF587B0308DC2800200C7E030824
:10573000AC7F030800B585B04FF0000C80F800C0C6
:10574000012A06D0022A0FD04FF0FF3005B05DF8D5
:1057500004FB02930A4B01930A4B1B6800930A4B0C
:105760000A4A16F0A3FBF1E70293094B0193054B9C
:105770001B680093044B054A16F098FBE6E700BF50
:10578000047E0308DC2800200C7E0308BC7F03088D
:10579000587B030808B5084B1B682BB1064B1868EB
:1057A00008B114F0C1F908BD044A194614F08EFA84
:1057B000014B1860F2E700BFE0280020C157010844
:1057C00070B5122902D0092946D070BD1446264969
:1057D0000120FCF793FB14F0E3F806460D46234B3B
:1057E0001B68012B20DC32462B4621490120FCF7A7
:1057F00085FB2568646810F081FC281A4FF47A72E2
:105800004FF0000364EB0101FBF7A6FA194BC3E963
:105810000001164B1B68012B12DC2A462346164951
:105820000120FCF76BFBD0E7144B1B22144902202C
:1058300010F06AFC32462B460D480EF013FBD2E7FF
:105840000E4B21220E49022010F05EFC2A46234610
:105850000C480EF007FBE0E70B490120FCF74EFB7C
:105860000A4B00221A60B0E7888103082C0100204F
:10587000CC810308E82800202482030880820308E2
:10588000AC8103080082030848820308E028002056
:1058900030B585B004460D490120FCF72FFB02947A
:1058A0000B4D01950023009344F62062002320460F
:1058B0000FF098FE0294019501230093054A0023FE
:1058C00020460FF08FFE05B030BD00BF6482030894
:1058D00095570108C07A100038B501FB00F4204646
:1058E00004F0DAFF054618B12246002117F008F847
:1058F000284638BD70B588B005460C4617490020CB
:10590000FCF7FCFA06AE164930460EF089FC00237F
:10591000009396E80C0094E803000EF0A3FEA8B1F3
:10592000104B1B680593104B1B6804930F4B03939C
:105930000F4B02930F4B01930F4B00930F4B104AE9
:10594000C82128460EF0E2FA08B070BD0D4B0C4A93
:105950004FF4C87128460EF0D9FAF5E7848203089F
:10596000E4640308FC28002004290020946503084F
:10597000907E0308807E0308A47E03088C850308BC
:105980000C6B0308A071030810B5044605490020FC
:10599000FCF7B4FA044B054A4FF4CA7120460EF0E6
:1059A000B5FA10BDA4820308BC8203080C6B03087F
:1059B0000B2900D0704770B586B0054614461749CC
:1059C0000020FCF79BFA02AE154930460EF028FC89
:1059D0000023009396E80C0004F1080103C90EF0BF
:1059E00041FE28B121462846FFF784FF06B070BD6E
:1059F00004AE0C4930460EF013FC0023009396E8E9
:105A00000C0004F1080103C90EF02CFE0028EDD0B3
:105A100021462846FFF7B8FFE8E700BFE882030801
:105A2000108303082883030810B584B00246084693
:105A3000140E8DF80F40110C8DF80E10130A8DF80E
:105A40000D308DF80C200194C9B20091DBB2D2B2B6
:105A5000024916F093FB04B010BD00BF2C8303086D
:105A600070B584B006461E490020FCF747FA1D4B6E
:105A70001868FAF715FC0446012100F23910FFF707
:105A80002BFF194A106030B3184B1B68184D29685A
:105A90009868FFF7C9FF134B1B680293154B0193DE
:105AA0002B680093144B154A04F59C710E4800684E
:105AB00016F0FCF94EB10C4B1C682046FAF7F0FBCF
:105AC00002462146304611F0D3FB074B186804F01C
:105AD00065FF04B070BD0A490320FCF70FFAF8E730
