:020000040801F1
:100000000000022051260108652501086725010826
:10001000692501086B2501086D2501080000000015
:1000200000000000000000000000000041A80108DE
:100030006F25010800000000E1A801089986010869
:10004000A1260108A1260108A1260108A126010870
:10005000A1260108A1260108A1260108A126010860
:10006000A1260108A1260108A1260108A126010850
:10007000A1260108A1260108A1260108A126010840
:10008000A1260108A1260108A12601080000000000
:10009000000000000000000000000000A126010890
:1000A00071250108A1260108A1260108A126010841
:1000B000A1260108A1260108A1260108A126010800
:1000C000A1260108A1260108A1260108A1260108F0
:1000D000A1260108A1260108A126010800000000B0
:1000E000A1260108A1260108A126010800000000A0
:1000F000000000000000000000000000A126010830
:1001000000000000A1260108A1260108A12601087F
:1001100000000000000000000000000000000000DF
:10012000A1260108A1260108A1260108A12601088F
:10013000A1260108000000000000000000000000EF
:10014000000000000000000000000000A1260108DF
:10015000A1260108A1260108A1260108A12601085F
:10016000A1260108A12601080000000000000000EF
:10017000000000000000000000000000000000007F
:1001800000000000A126010800000000000000009F
:08019000A1260108A1260108C7
:1001A00010B5054C237833B9044B13B10448AFF3B1
:1001B00000800123237010BD7008002000000000A3
:1001C0006C5F030808B5034B1BB103490348AFF349
:1001D000008008BD00000000740800206C5F030868
:1001E00010F8012B11F8013B012A28BF9A42F7D0E1
:1001F000D01A70470000000000000000000000005E
:1002000001F0FF01102A2BDB10F0070F08D010F8C7
:10021000013B013A8B422DD010F0070F42B3F6D1CB
:10022000F0B441EA012141EA014122F007047FF0E4
:1002300000070023F0E80256083C85EA010586EA3B
:10024000010685FA47F5A3FA87F586FA47F6A5FA77
:1002500087F68EB9EED1F0BC01F0FF0102F0070283
:1002600032B110F8013B013A83EA010313B1F8D12E
:100270000020704701387047002D06BF354603380F
:10028000073815F0010F07D1013015F4807F02BF48
:10029000013015F4C03F0130F0BC0138704700BF99
:1002A000034613F8012B002AFBD1181A01387047B6
:1002B00081F0004102E000BF83F0004330B54FEA17
:1002C00041044FEA430594EA050F08BF90EA020F84
:1002D0001FBF54EA000C55EA020C7FEA645C7FEA17
:1002E000655C00F0E2804FEA5454D4EB5555B8BF3A
:1002F0006D420CDD2C4480EA020281EA030382EAAB
:10030000000083EA010180EA020281EA0303362D3C
:1003100088BF30BD11F0004F4FEA01314FF4801C0F
:100320004CEA113102D0404261EB410113F0004F21
:100330004FEA03334CEA133302D0524263EB4303D8
:1003400094EA050F00F0A780A4F10104D5F1200E76
:100350000DDB02FA0EFC22FA05F2801841F10001D1
:1003600003FA0EF2801843FA05F359410EE0A5F1A5
:1003700020050EF1200E012A03FA0EFC28BF4CF0D6
:10038000020C43FA05F3C01851EBE37101F000458C
:1003900007D54FF0000EDCF1000C7EEB00006EEB99
:1003A0000101B1F5801F1BD3B1F5001F0CD3490823
:1003B0005FEA30004FEA3C0C04F101044FEA44527A
:1003C00012F5800F80F09A80BCF1004F08BF5FEA01
:1003D000500C50F1000041EB045141EA050130BDE1
:1003E0005FEA4C0C404141EB0101013C28BFB1F5F3
:1003F000801FE9D291F0000F04BF01460020B1FA3E
:1004000081F308BF2033A3F10B03B3F120020CDA10
:100410000C3208DD02F1140CC2F10C0201FA0CF0EE
:1004200021FA02F10CE002F11402D8BFC2F1200C53
:1004300001FA02F120FA0CFCDCBF41EA0C01904009
:10044000E41AA2BF01EB0451294330BD6FEA040452
:100450001F3C1CDA0C340EDC04F11404C4F120023D
:1004600020FA04F001FA02F340EA030021FA04F34F
:1004700045EA030130BDC4F10C04C4F1200220FAA6
:1004800002F001FA04F340EA0300294630BD21FAE4
:1004900004F0294630BD94F0000F83F4801306BFAA
:1004A00081F480110134013D4EE77FEA645C18BF9E
:1004B0007FEA655C29D094EA050F08BF90EA020F35
:1004C00005D054EA000C04BF1946104630BD91EA2D
:1004D000030F1EBF0021002030BD5FEA545C05D130
:1004E0004000494128BF41F0004130BD14F580046F
:1004F0003CBF01F5801130BD01F0004545F0FE41E3
:1005000041F470014FF0000030BD7FEA645C1ABF17
:10051000194610467FEA655C1CBF0B46024650EA4E
:10052000013406BF52EA033591EA030F41F400217A
:1005300030BD00BF90F0000F04BF0021704730B500
:100540004FF4806404F132044FF000054FF00001D5
:1005500050E700BF90F0000F04BF0021704730B596
:100560004FF4806404F1320410F0004548BF40426B
:100570004FF000013EE700BF42004FEAE2014FEAC0
:1005800031014FEA02701FBF12F07F4393F07F4F9B
:1005900081F06051704732F07F4208BF704793F09E
:1005A0007F4F04BF41F40021704730B54FF46074B1
:1005B00001F0004521F000411CE700BF50EA0102B4
:1005C00008BF704730B54FF000050AE050EA01025D
:1005D00008BF704730B511F0004502D5404261EBCD
:1005E00041014FF4806404F132045FEA915C3FF40E
:1005F000D8AE4FF003025FEADC0C18BF03325FEAAB
:10060000DC0C18BF033202EBDC02C2F1200300FA5B
:1006100003FC20FA02F001FA03FE40EA0E0021FA80
:1006200002F11444BDE600BF70B54FF0FF0C4CF46E
:10063000E06C1CEA11541DBF1CEA135594EA0C0F20
:1006400095EA0C0F00F0DEF82C4481EA030621EA5B
:100650004C5123EA4C5350EA013518BF52EA033596
:1006600041F4801143F4801338D0A0FB02CE4FF048
:100670000005E1FB02E506F00042E0FB03E54FF078
:100680000006E1FB03569CF0000F18BF4EF0010E70
:10069000A4F1FF04B6F5007F64F5407404D25FEA6C
:1006A0004E0E6D4146EB060642EAC62141EA55511F
:1006B0004FEAC52040EA5E504FEACE2EB4F1FD0C61
:1006C00088BFBCF5E06F1ED8BEF1004F08BF5FEADF
:1006D000500E50F1000041EB045170BD06F0004691
:1006E00046EA010140EA020081EA0301B4EB5C043E
:1006F000C2BFD4EB0C0541EA045170BD41F4801136
:100700004FF0000E013C00F3AB8014F1360FDEBF5A
:10071000002001F0004170BDC4F10004203C35DA36
:100720000C341BDC04F11404C4F1200500FA05F3B9
:1007300020FA04F001FA05F240EA020001F000425A
:1007400021F0004110EBD37021FA04F642EB0601D0
:100750005EEA430E08BF20EAD37070BDC4F10C04FA
:10076000C4F1200500FA04F320FA05F001FA04F2BE
:1007700040EA020001F0004110EBD37041F10001AA
:100780005EEA430E08BF20EAD37070BDC4F12005B5
:1007900000FA05F24EEA020E20FA04F301FA05F21D
:1007A00043EA020321FA04F001F0004121FA04F2C5
:1007B00020EA020000EBD3705EEA430E08BF20EA95
:1007C000D37070BD94F0000F0FD101F000464000CF
:1007D00041EB010111F4801F08BF013CF7D041EA51
:1007E000060195F0000F18BF704703F00046520055
:1007F00043EB030313F4801F08BF013DF7D043EA26
:100800000603704794EA0C0F0CEA135518BF95EADB
:100810000C0F0CD050EA410618BF52EA4306D1D162
:1008200081EA030101F000414FF0000070BD50EA81
:10083000410606BF1046194652EA430619D094EA0B
:100840000C0F02D150EA013613D195EA0C0F05D1F5
:1008500052EA03361CBF104619460AD181EA030149
:1008600001F0004141F0FE4141F470014FF0000001
:1008700070BD41F0FE4141F4780170BD70B54FF09C
:10088000FF0C4CF4E06C1CEA11541DBF1CEA13551C
:1008900094EA0C0F95EA0C0F00F0A7F8A4EB0504FE
:1008A00081EA030E52EA03354FEA013100F08880F5
:1008B0004FEA03334FF0805545EA131343EA1263BE
:1008C0004FEA022245EA111545EA10654FEA002673
:1008D0000EF000419D4208BF964244F1FD0404F52C
:1008E000407402D25B084FEA3202B61A65EB030588
:1008F0005B084FEA32024FF480104FF4002CB6EB45
:10090000020E75EB030E22BFB61A754640EA0C00C4
:100910005B084FEA3202B6EB020E75EB030E22BF04
:10092000B61A754640EA5C005B084FEA3202B6EB45
:10093000020E75EB030E22BFB61A754640EA9C0004
:100940005B084FEA3202B6EB020E75EB030E22BFD4
:10095000B61A754640EADC0055EA060E18D04FEA92
:10096000051545EA16754FEA06164FEAC30343EA32
:1009700052734FEAC2025FEA1C1CC0D111F4801FFF
:100980000BD141EA00014FF000004FF0004CB6E7F8
:1009900011F4801F04BF01430020B4F1FD0C88BF97
:1009A000BCF5E06F3FF6AFAEB5EB030C04BFB6EBA2
:1009B000020C5FEA500C50F1000041EB045170BD95
:1009C0000EF0004E4EEA113114EB5C04C2BFD4EBC2
:1009D0000C0541EA045170BD41F480114FF0000E46
:1009E000013C90E645EA060E8DE60CEA135594EAC2
:1009F0000C0F08BF95EA0C0F3FF43BAF94EA0C0FC5
:100A00000AD150EA01347FF434AF95EA0C0F7FF439
:100A100025AF104619462CE795EA0C0F06D152EA8D
:100A200003353FF4FDAE1046194622E750EA410671
:100A300018BF52EA43067FF4C5AE50EA41047FF482
:100A40000DAF52EA43057FF4EBAE12E74FF0FF3CE7
:100A500006E000BF4FF0010C02E000BF4FF0010CB8
:100A60004DF804CD4FEA410C7FEA6C5C4FEA430C31
:100A700018BF7FEA6C5C1BD001B050EA410C0CBF80
:100A800052EA430C91EA030F02BF90EA020F0020E2
:100A9000704710F1000F91EA030F58BF994208BF49
:100AA00090422CBFD8176FEAE37040F00100704706
:100AB0004FEA410C7FEA6C5C02D150EA013C07D15D
:100AC0004FEA430C7FEA6C5CD6D152EA033CD3D0A8
:100AD0005DF8040B704700BF8446104662468C46A2
:100AE0001946634600E000BF01B5FFF7B7FF0028D5
:100AF00048BF10F1000F01BD4DF808EDFFF7F4FFFE
:100B00000CBF012000205DF808FB00BF4DF808ED88
:100B1000FFF7EAFF34BF012000205DF808FB00BFAB
:100B20004DF808EDFFF7E0FF94BF012000205DF8CD
:100B300008FB00BF4DF808EDFFF7CEFF94BF012082
:100B400000205DF808FB00BF4DF808EDFFF7C4FF7B
:100B500034BF012000205DF808FB00BF4FEA410CC4
:100B60007FEA6C5C02D150EA013C0AD14FEA430CA7
:100B70007FEA6C5C02D152EA033C02D14FF00000E4
:100B800070474FF0010070474FEA410212F5001222
:100B900015D211D56FF47873B3EB625212D94FEAC4
:100BA000C12343F0004343EA505311F0004F23FAAE
:100BB00002F018BF404270474FF00000704750EA03
:100BC000013005D111F0004008BF6FF000407047C0
:100BD0004FF00000704700BF4A0011D212F500121A
:100BE00011D20DD56FF47873B3EB62520ED44FEA85
:100BF000C12343F0004343EA505323FA02F0704705
:100C00004FF00000704750EA013002D14FF0FF3042
:100C100070474FF0000070474FEA4102B2F1E043E5
:100C200024BFB3F5001CDCF1FE5C0DD901F0004CD3
:100C30004FEAC0024CEA5070B2F1004F40EB830023
:100C400008BF20F00100704711F0804F21D113F14F
:100C50003872BCBF01F00040704741F480114FEA88
:100C60005252C2F11802C2F1200C10FA0CF320FA11
:100C700002F018BF40F001004FEAC1234FEAD3232E
:100C800003FA0CFC40EA0C0023FA02F34FEA430398
:100C9000CCE77FEA625307D150EA01331EBF4FF021
:100CA000FE4040F44000704701F0004040F0FE403C
:100CB00040F40000704700BF7BB972B90029BEBF85
:100CC00000204FF0004106E008BF00281CBF6FF075
:100CD00000414FF0FF3000F0FFB9ADF1080C6DE9B5
:100CE00004CE002909DB002B1ADB00F097F8DDF8B1
:100CF00004E0DDE9022304B07047404261EB4101AA
:100D0000002B1BDB00F08AF8DDF804E0DDE90223AC
:100D100004B0404261EB4101524263EB4303704730
:100D2000524263EB430300F079F8DDF804E0DDE9BB
:100D3000022304B0404261EB41017047524263EB31
:100D4000430300F06BF8DDF804E0DDE9022304B0B2
:100D5000524263EB4303704753B94AB9002908BFB5
:100D600000281CBF4FF0FF314FF0FF3000F0B4B946
:100D7000ADF1080C6DE904CE00F050F8DDF804E0A8
:100D8000DDE9022304B07047430803F05533C01A6D
:100D9000830803F0333300F03330184400EB1010B5
:100DA00000F00F3000EB002000EB0040000E704719
:100DB00038B50022002304460D46FFF7A7FE28B9E8
:100DC00020462946BDE8384000F00AB8204605F123
:100DD000004100F005F8404261EB410138BD00BF21
:100DE000D0B50C4B002206460F46FFF71DFCFFF75F
:100DF000F3FE0446FFF79EFB074B0022FFF714FCAF
:100E000002460B4630463946FFF756FAFFF7E4FE36
:100E10002146D0BD0000F03D0000F0412DE9F04733
:100E2000089D0C46002B4ED194468C458646B2FA5E
:100E300082F262D94AB1C2F12003914020FA03F351
:100E40000CFA02FC194300FA02FE4FEA1C471FFA93
:100E50008CF6B1FBF7F44FEA1E4307FB141143EA8B
:100E6000014304FB06F199420AD91CEB030304F188
:100E7000FF3080F01281994240F20F81023C6344BE
:100E8000591A1FFA8EF3B1FBF7F007FB101143EA72
:100E9000014300FB06F69E420AD91CEB030300F156
:100EA000FF3180F0FC809E4240F2F98063440238BA
:100EB0009B1B40EA044000211DB1D3400022C5E93C
:100EC0000032BDE8F0878B4205D90DB1C5E90001BC
:100ED00000210846F5E7B3FA83F1002946D1A34281
:100EE00002D39042C0F0F080861A64EB0303012025
:100EF000002DE6D0C5E90063E3E7002A40F09080CA
:100F0000A1EB0C044FEA1C481FFA8CF70121B4FB3B
:100F1000F8F64FEA1E4308FB164443EA044307FB76
:100F200006F0984208D91CEB030306F1FF3402D205
:100F3000984200F2CD8026461C1A1FFA8EF3B4FBAD
:100F4000F8F008FB104443EA044300FB07F79F4214
:100F500008D91CEB030300F1FF3402D29F4200F2D8
:100F6000B0802046DB1B40EA0640A5E7C1F1200621
:100F70008B4022FA06F71F4320FA06FC04FA01F31D
:100F800043EA0C03F44000FA01F8380C4FEA134925
:100F9000B4FBF0FE1FFA87FC00FB1E4449EA044440
:100FA0000EFB0CF9A14502FA01F20AD93C190EF127
:100FB000FF3A80F08480A14540F28180AEF1020EBC
:100FC0003C44A4EB09041FFA83F9B4FBF0F300FBE3
:100FD000134449EA044403FB0CFCA44507D93C191B
:100FE00003F1FF3067D2A44565D9023B3C4443EA94
:100FF0000E40A0FB0293A4EB0C049C42CE469C4600
:1010000051D34ED055B1B8EB0E0364EB0C0404FA87
:1010100006F6CB401E43CC40C5E90064002150E7F2
:10102000C2F1200320FA03F10CFA02FC24FA03F3C4
:1010300094400C434FEA1C4800FA02FE1FFA8CF75A
:10104000B3FBF8F008FB1031230C43EA014300FB2B
:1010500007F1994208D91CEB030300F1FF362CD2AB
:1010600099422AD9023863445B1AA4B2B3FBF8F15F
:1010700008FB113344EA034401FB07F3A34208D9F8
:101080001CEB040401F1FF3613D2A34211D902393B
:101090006444E41A41EA004139E70446F0E60846B0
:1010A00006E7C845AED2B9EB020E63EB070C013878
:1010B000A8E73146EDE7034699E73046D4E7D64640
:1010C0007FE7634402384DE70646234608460FE7AC
:1010D000023E634430E700BF704700BF08B50022FE
:1010E0004FF48051014805F0F4FB08BD00040240B4
:1010F00008B501224FF48051014805F0EAFB08BD14
:101100000004024008B500224FF40041014805F0F8
:10111000E0FB08BD0000024008B501224FF4004189
:10112000014805F0D6FB08BD0000024010B58EB0A6
:101130004A4B93E803000C90ADF834100DF1240CE9
:1011400003F1080494E807008CE80700143393E8DF
:1011500003000790ADF8201004AB94E8070083E883
:10116000070072E000231A4601A93D48006807F015
:1011700066FC00240EE000220EAB03EB440333F8C0
:10118000081C0EAB03EB840353F8140C05F0A1FB11
:101190000134E4B2022C5ED804F138036B4413F836
:1011A000343C002BE7D001220EAB03EB440333F8B1
:1011B000081C0EAB03EB840353F8140C05F089FBF9
:1011C000E6E70EAB03EB440203EB840332F8081CA2
:1011D00053F8140C05F076FB04F138036B4403F864
:1011E000300C0134E4B2022CEBD91E4C206807F01D
:1011F00074FC00231A4602A9206807F0DEFB0024D5
:1012000014E00EAB03EB440203EB840332F81C1C26
:1012100053F8280C05F056FBB0FA80F0400904F1B1
:1012200038036B4403F82C0C0134E4B2022CE8D9E7
:101230000D4C206807F051FC00231A4603A92068D2
:1012400007F0BBFB012007F0C0FA054B186807F058
:1012500037FC002886D10024C5E700BF885F03085B
:10126000A4080020A8080020AC08002084B008B51D
:101270000DF1080C8CE80F0000231A466146044863
:10128000006807F09AFBBDE8084004B0704700BF53
:101290009C08002070B5BAB0002339937D4B7E4A7C
:1012A0007E497F4804F0A0FE7E497F4809F0CAFECF
:1012B00000283BDB7D4809F0AFFE7D4C204609F05D
:1012C0009FFE7C4809F09CFE204609F0A5FE7A4866
:1012D00009F0A2FE794809F09FFE794809F09CFECA
:1012E000784809F099FE002239A9774809F0DCFD19
:1012F00030B30121744809F015FE0446C62207A93F
:1013000009F040FE204609F031FE00228DF81C2035
:10131000022307A96D48006807F0B6FD002239A92D
:101320006B4809F0C1FDC0B1002489E0694B01227E
:101330001A7040F6B83007F048FA05F053F9B9E7EB
:10134000C622002107A81BF093FC0223002207A954
:101350005E48006807F098FDE0E740F29A6009F007
:101360003BFC044690B35C49012000F0BFFE5B4BA0
:10137000186820609B88A38001AD594E0FCE0FC521
:1013800096E8030045F8040B297001AD0FCDC4F8B1
:101390008000C4F88410C4F88820C4F88C30286811
:1013A000C4F890002B7984F894300221484809F061
:1013B000B9FD054640F29A62214609F0EFFD284644
:1013C00009F0D4FD204609F089FCADE7454903202A
:1013D00000F08CFEF6E73C4D284609F011FE022194
:1013E000284609F09FFD0546002833D0C62207A9EC
:1013F00009F0D4FD284609F0B9FD00228DF81C2023
:10140000022307A93148006807F03EFD22E00120D1
:1014100007F0DBF94FF48071334805F053FA0028E8
:10142000F5D04FF47A7007F0D0F9294809F0E8FDBB
:1014300005F0D8F800E000244FF47A7007F0C5F901
:10144000002207A9214B186808F031F89DF81C30DC
:10145000002BC0D14FF48071234805F033FA0028E7
:10146000E9D10134E4B2204D01220221284605F0E1
:1014700030FA642007F0A9F900220221284605F07D
:1014800028FA082CD8D101220221284605F021FA99
:10149000C0E700BF191A01083D1A01081911010817
:1014A00005110108691A0108551A010804620308A8
:1014B0000C620308186203082862030834620308F8
:1014C000847D03083C62030844620308A0080020EE
:1014D00058620308C808002094620308CC6203081D
:1014E000D4620308686203080004024008B50129B9
:1014F00014D002291AD001B108BD4AB1012AFBD18A
:101500000223002201461248006807F0BDFCF3E701
:1015100001460F4B186807F0CAFFEDE7002AEBD130
:1015200001460C4B186807F0C2FFE5E74AB1012AF3
:10153000E2D10223002201460748006807F0A4FC1C
:10154000DAE70146054B186807F0B1FFD4E700BFA2
:10155000A0080020AC080020A4080020A808002053
:1015600070B58AB04FF47A7007F02FF906F0C6FF15
:10157000642007F02AF90021012006F023FF002053
:1015800006F0E4FEA64B1C78002C42D1A54D0122AA
:101590002946A54806F06AFF01222946A34806F01D
:1015A00065FF04F10B01C9B2012006F00BFF012217
:1015B00029469F4806F05AFF04F11601C9B20120DE
:1015C00006F000FF012229469A4806F04FFF04F179
:1015D0002101C9B2012006F0F5FE974B59680A783F
:1015E0004B788878CC780E794979039102960194EA
:1015F0000090924905A81AF079FF0122294605A812
:1016000006F034FF07F024F840F6B83008F048FC44
:10161000CEE00021012006F0D5FE002006F096FE67
:10162000804C01222146864806F020FF0A21012035
:1016300006F0C8FE01222146824806F017FF142159
:10164000012006F0BFFE012221467F4806F00EFF72
:1016500006F0FEFF40F6B83008F022FC142495E7AF
:1016600013F1050F08D12821012006F0ABFE01225D
:101670006C49764806F0FAFE0021012006F0A2FE31
:10168000684C01222146724806F0F0FE6A4B5B6806
:101690009A68130E0193C2F307430093C2F3072322
:1016A000D2B26C4905A81AF021FF0122214605A8F3
:1016B00006F0DCFE0B21012006F084FE012221460B
:1016C000654806F0D3FE0B213D2006F07BFE002589
:1016D0003D241FE02821012006F074FE012251491B
:1016E0005E4806F0C3FEC7E72821012006F06AFE27
:1016F00001224C495A4806F0B9FEBDE7012249498A
:1017000005A806F0B3FE0834E4B20B21204606F02B
:1017100059FE3546022D0FDC6E1C3246514905A894
:101720001AF0E4FE504B5B5D002BE7D000223D49F0
:1017300005A806F09BFEE6E71621012006F042FE12
:1017400001223849494806F091FE16213D2006F055
:1017500039FE00253D240BE00122324905A806F0A0
:1017600085FE0834E4B21621204606F02BFE3546ED
:10177000022D10DC6E1C32463A4905A81AF0B6FE5E
:10178000394B2B44DB78002BE6D00022254905A8F5
:1017900006F06CFEE5E706F05BFF4FF47A7301227A
:1017A0007821334805F0EAFB50BBC82007F00DF85C
:1017B0002D4C002201212046FFF798FE0022022135
:1017C000E01CFFF793FE002006F0C0FD294B93F9C3
:1017D000003013F10C0F87D03FF742AF13F1540FD5
:1017E0003FF478AF13F1180F7FF446AF28210120A2
:1017F00006F0E8FD01220B491F4806F037FE3BE7E3
:101800001B4805F0E5FA4FF47A7008F049FB00F048
:10181000C5FB4FF47A7008F043FB06F06FFEBCE79F
:10182000C80800200C010020206303082C63030873
:101830003863030844630308CC0800204C630308A2
:10184000EC620308006303080C6303086C6303087D
:10185000A8630308AC630308BC6303087863030848
:10186000986303089CB803088C080020C46303082D
:10187000D4080020C90800208863030830B5D1B01F
:10188000454800F027FC012000F02AFC43490120D4
:1018900000F02CFC03E04FF4FA7006F096FF09F01C
:1018A000C7FB0028F7D040F2F46451E000231A4649
:1018B00007A93B48006807F0C2F80221394809F03F
:1018C00031FB05469DF81D210DF11D0109F066FB58
:1018D000354B1870284609F049FB3FE048A809F04D
:1018E0003BFA4E9B04934D9B03934C9B02934B9B63
:1018F00001934A9B0093499B489A2C49012000F090
:10190000F5FB2B4C63689A68130E0193C2F30743EF
:101910000093C2F30723D2B22649012000F0E6FB70
:1019200061680A784B788878CC780D794979039189
:101930000295019400902049012000F0D7FB09F0A6
:101940007DFB02461D49012000F0D0FB002401343C
:10195000134B186807F0B4F80028A7D14FF4FA70B9
:1019600006F033FFB4F5FA6FF1D100224FA90D480C
:1019700009F09AFA4F9A4CF250339A42AED9104C71
:10198000204609F03DFB2146064809F02DFB0D4994
:10199000012000F0ABFBA1E76D120108D063030842
:1019A0009C080020E4630308C908002018640308A9
:1019B000CC080020AC640308C8640308F064030882
:1019C000F46303080464030808B5064805F0CCFB7B
:1019D0004FF4FA7006F0F9FE0121034804F07FFF8E
:1019E000F3E700BF280900200004024000B587B0DB
:1019F0008DF80F104FF0FF33009301230DF1170204
:101A00000DF10F01034806F03EF99DF8170007B0ED
:101A10005DF804FB3809002000B583B08DF807009D
:101A20004FF0FF3301220DF10701034806F049F89A
:101A300003B05DF804FB00BF9009002008B50A461A
:101A40004FF0FF330146024806F047FA08BD00BFD9
:101A50009009002008B54FF0FF31024B186806F0DE
:101A60000BFF08BD9408002008B5024B186806F06B
:101A700032FF08BD9408002008B52C4806F0B3FEDC
:101A80002B4B18602B4806F0AEFE2B4B18602B4AF0
:101A90000321012006F046FF294B1860294A032143
:101AA000012006F03FFF284B1860284A032101203F
:101AB00006F038FF264B1860264AC621012006F0A2
:101AC00031FF254B1860254A4FF481710F2006F035
:101AD00029FF234B1860234A0021234806F016FEF5
:101AE000224B1860224A0021224806F00FFE224BAA
:101AF0001860224A0021224806F008FE214B186097
:101B0000214A0021214806F001FE214B1860214A9C
:101B10000021214806F0FAFD204B1860204A0021E0
:101B2000204806F0F3FD204B186008BDF46503085B
:101B300098080020E4650308940800206466030800
:101B4000AC0800204C660308A8080020346603088F
:101B5000A40800201C660308A008002004660308EF
:101B60009C08002030670308D51B0108C40800202A
:101B70000C6703082D110108C0080020E86603085F
:101B800061150108BC080020C4660308951201080D
:101B9000B8080020A06603087D180108B4080020DA
:101BA0007C660308C9190108B008002008B50022A6
:101BB0004FF48071014804F08CFE08BD0000024023
:101BC00008B501224FF48071014804F082FE08BD7F
:101BD0000000024030B5EBB022AD644B0FCB85E87E
:101BE0000F0002AC8022002120461BF041F8402368
:101BF0008DF8083022238DF809305D4B1A7C8DF862
:101C00000A209A7C8DF80B201A7D8DF80C201B7E03
:101C10008DF80D3001238DF827308DF82830554B85
:101C20000B930C95544B58AA1A605C6003E04FF478
:101C3000FA7006F0CAFD09F0FBF90028F7D058A8A1
:101C400011F008FE4D4B03221A6002F06FFF0446AC
:101C50000FE0FFF7ABFF4FF4FA7006F0B6FDFFF7A9
:101C6000AFFF4FF4FA6006F0B0FD02A958A817F0D4
:101C700021FABDF84C30002BEBD0062102A803F06E
:101C8000BFFB3F4802F060FF3B4B22463D4958A84E
:101C900015F03EFC06E0012158A817F0A5FF012031
:101CA00006F093FD9DF88430032BF4D1324B5B6832
:101CB0009A68130E0193C2F307430093C2F30723FC
:101CC000D2B23149012000F011FA0022114626A8B3
:101CD000FFF70CFC9DF89930EBB12C49012000F086
:101CE00005FA274B01930DF23D13009347AB0DF11D
:101CF0009A0202A958A803F0C1FA58A803F056FFA7
:101D000002A958A804F01EF958A801F053F807F0EA
:101D1000B9FF054608E01E49012000F0E7F9ECE7AD
:101D2000012006F052FD254607F0ACFF0446411B9A
:101D300058A817F059FF0B9BDB6802A898470028AA
:101D4000EED1FFF733FF642006F03FFDFFF738FFC9
:101D500040F6B83006F039FD0B9B1B6802A8984787
:101D600041F6583006F031FDE5E700BFA45F0308F7
:101D7000007AFF1F18010020CC0800202C01002051
:101D8000ED1401080C650308AC6403082065030822
:101D9000386503080BB2002B20DD70B582B0064613
:101DA00015468B18042B02DD012002B070BD4C1EBD
:101DB000A4B20022012101A8FFF798FB0AE004F178
:101DC00008036B4413F8043C0122A1B2304600F032
:101DD00047FE0134A542F2DC0020E6E7012070470F
:101DE000F0B583B016460AB2002A43DD05461F4609
:101DF0008B19042B41DC27B3012F39D101398CB267
:101E00000022022101A8FFF771FB27460FE0012203
:101E1000B9B2284600F058FE01220021284600F001
:101E200053FE07F108036B4403F8040C0137331920
:101E3000BB42ECDC0122022101A8FFF757FB002086
:101E400019E04C1EA4B20022022101A8FFF74EFBAC
:101E50000AE004F108036B4413F8043C0122A1B228
:101E6000284600F0FDFD0134A642F2DC384602E0CF
:101E7000012000E0012003B0F0BD0120FBE70120BC
:101E800070470120704700002DE9F04389B000241D
:101E90000394049405940694079400943C4B1A6BA5
:101EA00042F080021A631A6B02F080020092009ADC
:101EB00001941A6B42F001021A631A6B02F00102DC
:101EC0000192019A02941A6B42F002021A631B6B90
:101ED00003F002030293029B2E4E22464FF4F07150
:101EE000304604F0F6FC2C4D22460721284604F02B
:101EF000F0FC01224FF48051284604F0EAFC012254
:101F00004FF40041304604F0E4FC4FF00709CDF8EF
:101F10000C9004944FF00208CDF8148003A93046C9
:101F200004F064FBE02303930127049705940694CF
:101F300003A9304604F05AFBCDF80C9004970594A1
:101F4000069403A9284604F051FB4FF480530393F1
:101F500004970594CDF8188003A9284604F046FBA1
:101F60004FF40143039304970594CDF8188003A917
:101F7000304604F03BFB4FF48073039304940594C4
:101F800003A9284604F032FB09B0BDE8F08300BF86
:101F900000380240000002400004024008B50B482F
:101FA0000B4B03600B4B436000238360C3604FF413
:101FB0008042026143618361C361036204F02AFECF
:101FC00000B908BD00F03CF9FBE700BFD4080020D1
:101FD00000540040400D030030B589B00023039346
:101FE00004930593069307930268154B9A4201D018
:101FF00009B030BD00250195124C236B43F002035C
:102000002363236B03F002030193019BC02303931B
:1020100012230493012305930323069304230793B8
:1020200003A9094804F0E2FA0295236C43F4001373
:102030002364236C03F400130293029BD8E700BFD0
:1020400000540040003802400004024002680A4B7D
:102050009A4200D0704710B5084A136C23F400135D
:102060001364074C4021204604F0A4FB8021204645
:1020700004F0A0FB10BD00BF005400400038024037
:102080000004024008B50748074B03600323436080
:1020900040F6FF73836005F03BF800B908BD00F01F
:1020A000CFF8FBE7280900200030004084B08DE81D
:1020B0000F0004B0704738B501FB00F4204608F06B
:1020C0008BFD054618B1224600211AF0D1FD2846A5
:1020D00038BD000008B1014A1060704700000020C0
:1020E000014B1870704700BF340900200EB4F0B5E2
:1020F000ADF51C7D444B1B78834205D90DF51C7D45
:10210000BDE8F04003B07047044601214FF48070F1
:10211000FFF7D1FF05460028F0D04FF4817200216F
:102120005BA81AF0A5FD8DF86C4117F0F1FDFEF7E4
:1021300045FA06460F460022344BFEF79FFBFEF79A
:1021400037FECDE958014FA958A81AF027FE4FAB2A
:102150002F4A40213FA81BF033FC04463046394645
:10216000FEF712FD2B4A82FB0032C317C3EBA2130A
:102170004FF47A7202FB1303274AC4F140013FA8CF
:1021800020441AF04BF80444631C20223FA90A554E
:102190000022CA54A2AB5A930DF26D16A19AFD21EA
:1021A00030461AF003FB04469DF86C2101961B4B48
:1021B00053F8223000933FAB194A4FF48071284600
:1021C0001AF02CF8F52C1BD82846FEF769F88DF884
:1021D0006D024FF4807229460DF26D101AF08FFDDA
:1021E000104B1E6846B15BACF2225FA968461BF03B
:1021F0007BFF94E80F00B047284608F06FFD7DE7AD
:10220000F6238DF86D32E4E73409002000408F405A
:1022100054670308D34D6210686703080400002068
:10222000706703080000002008B50268034B9A425B
:1022300000D008BD04F036F9FBE700BF00400140C4
:1022400072B6FEE700B595B03022002108A81AF05A
:102250000FFD0023039304930593069307930193C3
:10226000204A116C41F080511164126C02F08052CE
:102270000192019A02931C4B1A6842F440421A6080
:102280001B6803F440430293029B092308934FF415
:102290008033099301230D9302220E924FF48003A1
:1022A0000F9304231093642111911292139308A8A1
:1022B00004F060FF88B90F230393022304930023E3
:1022C00005934FF4805206920793032103A805F06B
:1022D000BBF920B915B05DF804FBFFF7B1FFFFF7BC
:1022E000AFFF00BF003802400070004000B583B06F
:1022F00072B6114B114A9A6062B6114B019302E01B
:10230000019B013B0193019B002BF9DC04F0B0F829
:10231000FFF798FFFFF7B8FD00F036F8FFF73EFE35
:1023200000F010F8FFF7AEFE06F0C2F9FFF7A4FBCD
:1023300006F0D0F9FEE700BF00ED00E00000010864
:1023400040420F0008B50E480E4B03604FF48273F5
:10235000436000238360C360036143614FF40072F4
:1023600082610822C2610362436283620A23C362FC
:1023700005F048FB00B908BDFFF762FFFBE700BFAF
:10238000900900200030014008B50D480D4B036056
:102390004FF48273436000238360C3600361436131
:1023A0004FF400728261C3610362436283620A2355
:1023B000C36205F027FB00B908BDFFF741FFFBE74B
:1023C000380900200038004000B58BB00023059389
:1023D00006930793089309930368284A934205D00C
:1023E000274A934225D00BB05DF804FB00210191F0
:1023F000244B5A6C42F480525A645A6C02F4805254
:102400000192019A02911A6B42F002021A631B6B4D
:1024100003F002030293029B3823059302230693E1
:10242000032308930523099305A9174804F0DEF850
:10243000D9E700210391134B1A6C42F480421A64CD
:102440001A6C02F480420392039A04911A6B42F0D0
:1024500002021A631B6B03F002030493049B4FF404
:1024600060430593022306930323089305230993EE
:1024700005A9054804F0BAF8B5E700BF00300140EF
:1024800000380040003802400004024000B583B02C
:10249000002200920D4B596C41F480415964596CF3
:1024A00001F48041009100990192196C41F0805132
:1024B00019641B6C03F080530193019B0F216FF093
:1024C000010004F07BF803B05DF804FB0038024023
:1024D00030B589B00546002401941D4B5A6C42F476
:1024E00080325A645B6C03F480330193019B02A930
:1024F00003A805F07FF905F06DF9164AA2FB002349
:102500009B0C013B1448154A026040F2E732C2605E
:10251000436004618460846105F0EAFE044610B102
:10252000204609B030BD0C4805F09CFD044600284B
:10253000F6D1182004F052F80F2D01D90124EFE74D
:1025400000222946182004F039F8054B1D60E7E702
:102550000038024083DE1B43E809002000400140B0
:1025600008010020FEE7FEE7FEE7FEE7FEE7704712
:1025700008B5024805F0B6FD08BD00BFE809002017
:102580000120704708B51BF077FD162303604FF05C
:10259000FF3008BD08B54FF0FF31FFF7F3FFFEE74E
:1025A00070B50C461646002506E0AFF300802146C4
:1025B00001F8010B01350C46B542F6DB304670BD23
:1025C00070B50C461646002504E014F8010BAFF375
:1025D00000800135B542F8DB304670BD4FF0FF306A
:1025E00070474FF400534B60002070470120704744
:1025F0000020704710B503460C4A0D490D4800688D
:1026000040B10C4800680344521A934206D8094A64
:10261000136010BD0748084C0460F2E71BF02CFD66
:102620000C2303604FF0FF30F3E700BF00000220EF
:1026300000080000340A002060A20120034AD2F8FA
:10264000883043F47003C2F88830704700ED00E032
:10265000DFF834D0FFF7F2FF0C480D490D4A002394
:1026600002E0D458C4500433C4188C42F9D30A4A47
:102670000A4C002301E013600432A242FBD31BF09A
:1026800009FDFFF733FE7047000002200000002024
:102690007008002014C803087008002060A2012000
:1026A000FEE738B50B88052B01D0032038BD0C465A
:1026B0004378817841EA0321013189B2C3780279F4
:1026C00042EA0322531E9BB240F2CE7C634520D8DF
:1026D000002323800123037023880133238012F019
:1026E000070F10D0C2F3C7030133DDB24570238852
:1026F0000133238000230230FFF772FB30B92388B7
:102700002B442380D2E7C2F3C705EFE700F0F0F9CE
:10271000CCE70320CAE70B88052B01D003207047C4
:102720004378817841EA0321013189B20379F3B911
:10273000C278531EDBB2FD2B1BD900B583B000233A
:102740008DF80530FF2A0BD000238DF804300123CB
:102750001A4601A8FFF744FB30B903B05DF804FB4B
:1027600001238DF80430F2E700F0C2F9F5E7032009
:102770007047032070470B88052B2DD910B50C46E8
:102780004278837843EA0223013399B2C27803790D
:1027900043EA022290F805E013F0070F0ED0C2F3CF
:1027A000C70C0CF1010C5FFA8CFC531E9BB2B3F505
:1027B000F66F13D2F44504D0032010BDC2F3C70C4A
:1027C000F3E701230630FFF70BFB10B90523238045
:1027D000F3E700F08DF9F0E7032070470320ECE702
:1027E00038B50B88052B01D0032038BD0C46437843
:1027F000817841EA0321013189B2C378027942EA42
:102800000322531E9BB240F2CE7C63451FD80023A7
:1028100023800223037023880133238012F0070FE3
:102820000FD0C2F3C7030133DDB2457023880133F3
:1028300023800230FFF7AEFA30B923882B4423807F
:10284000D3E7C2F3C705F0E700F052F9CDE7032064
:10285000CBE708B50B88052B01D0032008BD4378D2
:10286000817841EA0321013101231A4689B20330FC
:10287000FFF707FB0028F1D000F03AF9EEE70B88EC
:10288000052B22D910B50C464278837843EA0223FF
:10289000013399B2C378027942EA032290F805C065
:1028A000531E9BB2772B12D85300DBB2634501D085
:1028B000032010BD01230630FFF7E3FA10B905230A
:1028C0002380F6E700F014F9F3E7032070470320B4
:1028D000EFE738B50B88052B01D0032038BD024641
:1028E0000C464378817841EA0321013189B20579A8
:1028F0006B1E9BB27C2B01D90320EFE700232380C2
:102900004FF0030C00F802CBB4F800C00CF1010C3E
:10291000A4F800C04FEA450C82F801C022880132B9
:1029200022802A46FFF7ADFA20B9238803EB45033E
:102930002380D3E700F0DCF8D0E7F8B50B88092B4B
:1029400043D904460D464378817841EA0321013199
:102950008EB2C378077947EA03274379817941EA40
:102960000321013189B2C379027A42EA0322407A13
:102970007B1E9BB27C2B2AD85AB3792A2BD8B0EB7A
:10298000420F01D0032021E0012304F10A00FFF7E8
:1029900078FA0346B0B928802046172200F8022BA7
:1029A0002A8801322A807A0062702A8801322A80BD
:1029B0003A463146FFF765FA20B92B8803EB470307
:1029C0002B8003E000F094F800E00020F8BD032025
:1029D000FCE70320FAE70320F8E70A88052A01D07C
:1029E0000320704738B503460C464278817841EAA7
:1029F0000221013189B2C278057945EA02256A1EB1
:102A000092B27B2A01D9032038BD00222280042201
:102A100000F8022B2288013222806A005A70238833
:102A2000013323802A46FFF72AFA20B9238803EBD3
:102A300045032380E8E700F05BF8E5E738B50D468D
:102A4000054B1C882246054901301BF04DFB013423
:102A50002C80002038BD00BF380A00203C0A00202E
:102A600010B5082A23D84FEAD10E01F0070403FA63
:102A700004F44FF0010C0CFA02F292B2013A92B255
:102A800001F0070102FA01F110F80E300EEB0C0212
:102A900010F802C043EA0C231BB223EA01031BB265
:102AA000234300F80E30C3F30723835410BD034BB8
:102AB000034A3721034817F089FB00BFB4670308B6
:102AC0000C680308C46703084FEAD10C0123934044
:102AD0009BB2013B10F80C206044407842EA00228F
:102AE00001F007010A4192B203EA0200C0B2704746
:102AF000012805D0072805D008B104207047704789
:102B0000022070470620704710B500F0CEF9044649
:102B100020B1114B01221A70204610BD00F0CAF8F6
:102B2000C0B10E4B0E4A1A600E4B0F4A1A600F4B83
:102B30000F4A1A600F4B104A1A60104B00221A609D
:102B40000F4BFF221A700F4B02221A70024B012208
:102B50001A70E1E70324DFE79C000020740A0020DC
:102B6000BB2E0108700A0020BD2E01086C0A00204F
:102B7000C52E0108780A0020052F0108680A0020E8
:102B80007D0A00207C0A002008B5064B1B78012B2B
:102B900001D0062008BD044B1B6898470020014B5C
:102BA0001870F7E79C000020740A002030B583B04D
:102BB000364B1C78002C63D10DF1070000F08EF825
:102BC000012802D0204603B030BD9DF80730012B0C
:102BD00014D0022BF6D12E4B186801782D4B1970AA
:102BE0002D4B01221A7000230F2B25DC2B4A12F8E3
:102BF00033200AB3914217D00133F5E7284B1B6805
:102C0000284A23492848984705460028DAD1264B08
:102C10001B78264A1278934201D0002B32D1022031
:102C200000F050F82C46CDE71C4A02EBC3035B686A
:102C30001C499847184B18701B4B1B7823B3164B35
:102C40001B789BB1174A002111801249097810485E
:102C500005684FF0010CA2F800C041F08001297016
:102C60000068118801EB0C0515804354104B1B685C
:102C70000C4A1288064909680C4800789847A1E771
:102C800006249FE704469DE71C469BE79C00002026
:102C9000600A00205D0A00205C0A00201C00002061
:102CA0006C0A00205E0A0020640A00207D0A0020D1
:102CB000780A0020024B00221A700120704700BFE2
:102CC0007E0A00200123034A1370034A107018463D
:102CD000704700BF7E0A00207F0A00200346054A95
:102CE000107830B1044A12781A70024B00221A7020
:102CF000012070477E0A00207F0A0020072900D0AB
:102D0000704738B504461E4B00F11C0293E80300DF
:102D100013F04CFB012806D094F8AD3043F02003AB
:102D200084F8AD3038BD226C93B216490B8033B9AC
:102D300094F8AD3043F0200384F8AD30F2E71A4642
:102D4000A16B11481BF0D0F90120FFF7BBFFFFF783
:102D50002DFFFFF72BFF0D4B1B7833B994F8AD30E7
:102D600043F0200384F8AD30DCE70025074B1D70ED
:102D7000074B1A880749204614F032FC2564D1E736
:102D8000800A00208C12002090120020880A002067
:102D90008A0A00208C0A002038B501FB00F4204686
:102DA00007F01AFF054618B12246002119F060FF0E
:102DB000284638BD30B583B00023244A244914F096
:102DC00023FB0020FFF7A0FEFFF7DEFE00220192AA
:102DD00001A9204808F068F80198421E40F2FE332D
:102DE0009A4215D801210844FFF7D6FF1A4D2860F2
:102DF0000121184808F096F80446019A296808F05D
:102E0000C1F8019B6B60204608F0B0F803B030BDFC
:102E100001210B20FFF7C0FF03460F4C20600B225F
:102E200062600E4A03CA186059601188927819814D
:102E30009A720221074808F075F805466268216811
:102E400008F0ACF8284608F091F8DFE7FD2C0108FF
:102E50001C68030830680308800A002044680308DF
:102E600001207047044B0360044B1A880A8000223B
:102E70001A800120704700BF901200208C120020A1
:102E800010B50C460A46014604481BF02DF9044BC8
:102E90001C800120034B187010BD00BF8C0A00205D
:102EA0008A0A0020880A0020704708B5FFF7D8FF7B
:102EB00008B1002008BD0320FCE7704708B5FFF704
:102EC000F3FF08BD70B582B006460D4614460DF1FD
:102ED000020101A8FFF7C6FF80B1019B9978DA785B
:102EE00052EA01220CD107332B60BDF80230073BB8
:102EF0002380FF233370002002B070BD0520FBE764
:102F00000520F9E708B50846D11D531C1B1200F82F
:102F1000033C013200F8022C89B20738FFF7B0FFFA
:102F200008B1002008BD0520FCE7000008B5034BF0
:102F3000034AC82111F0A2F908BD00BFFCB1030883
:102F40005068030870B584B005460C4602AE1049BF
:102F5000304611F01DFB0023009396E80C0094E826
:102F6000030011F037FD58B10A4B01930A4B00934F
:102F70000A4B0B4AC821284611F080F904B070BDF5
:102F8000084B074A40F29511284611F077F9F5E70A
:102F9000F06803089C690308A0690308F468030843
:102FA0002C690308A469030870B588B005460C466F
:102FB00006AE1349304611F0EBFA0023009396E871
:102FC0000C0094E8030011F005FD88B10D4B04934B
:102FD0000D4B03930D4B02930D4B01930D4B00933F
:102FE0000D4B0E4AC821284611F048F908B070BDB3
:102FF0000B4B0A4A40F29511284611F03FF9F5E7CC
:10300000F0680308606A0308746A0308806A0308AA
:103010009C690308A0690308F46903082C69030884
:10302000A469030870B584B005460C4602AE144985
:10303000304611F0ADFA0023009396E80C0094E8B6
:10304000030011F0C7FC98B10E4B1B6A0E4898475D
:1030500038B10E4B0E4AC821284611F00FF904B0C2
:1030600070BD0C4B0A4AC821284611F007F9F6E753
:10307000094B074A40F29511284611F0FFF8EEE798
:10308000886A0308A000002018620308906A0308F9
:103090002C690308CC6A0308106B030870B584B070
:1030A00005460C4602AE1249304611F071FA002373
:1030B000009396E80C0094E8030011F08BFC78B1C3
:1030C0000C4E336A0C4C20469847736A204698474A
:1030D0000A4B0B4AC821284611F0D0F804B070BD45
:1030E000084B074A40F29511284611F0C7F8F5E75A
:1030F000886A0308A000002004620308606B0308CC
:103100002C690308106B0308F0B5C3B006460D46E2
:10311000002422947C273A46214623A819F0A8FDD2
:1031200002943A46214603A819F0A2FD802200929B
:1031300002AB22A9284612F053F99DF8883013B14A
:103140009DF8082062B913B99DF808304BBB214B9C
:10315000214A4FF4CA71304611F090F843B0F0BDE7
:103160001E4B1D4A4FF4CA71304611F087F8F5E73F
:10317000B82303FB04F41A4FE5192A461949012024
:10318000FEF7B4FF002385F8803000200021C5E958
:103190002C013B55144B104AC821304611F06EF8F3
:1031A000DCE70024092C0CDCB82304FB03F3803398
:1031B00002A90B481844FDF713F80028D8D00134B1
:1031C000F0E70A4B044A4FF4CA71304611F056F842
:1031D000C4E700BFAC6C03082C690308A86B0308A4
:1031E000901A0020286C03083C6C0308786C0308D4
:1031F00030B5C7B005460C4690F8AC3013F040022D
:1032000024D0144B04F1800112B3134A13480290E6
:1032100001920091124A4FF4807106A810F030FB21
:103220000594002204920F4B03930F4902910192DF
:1032300000930E4B06AAC821284611F01FF822461B
:103240000B490120FEF752FF47B030BD094BD9E7CB
:10325000094ADBE7246D0308486D030800A3020058
:10326000546D03083D2A0208CC7D0308986D0308BD
:10327000A06D0308386D0308AC6F03082DE9F04317
:10328000E5B005460C4616460021599125225AA85C
:1032900019F0EEFC8022009202AB22A9204612F027
:1032A0009FF89DF8883013B19DF808204AB9002B8B
:1032B00040F0BB809DF80830002B40F0B280002029
:1032C000B4E022AA5B490120FEF710FF42A811F0EA
:1032D000ADF802A8FCF7E4FF024602A942A811F0EB
:1032E000BFF842A959A811F0F5F800242AE0414698
:1032F0002846FFF77DFF66E04F4F802222A938461F
:1033000019F0FDFC16F004FD4C4BC31841F100010F
:10331000C7F8B030C7F8B410282107F1800012F0C8
:10332000A5FC4EB9B822464B02FB043245490120A8
:10333000FEF7DCFE012079E039462846FFF758FF0A
:10334000F0E70134092C45DC22A9A9203E4B00FB03
:103350000430FCF745FF0028F3D1A92304FB03F355
:10336000803359A938481844FCF73AFF0028E8D1BF
:10337000334BB82202FB0433D3F8B080D3F8B470D7
:1033800016F0C6FC80458F41B6D2B82704FB07F77C
:10339000DFF8AC9007EB0908802222A9404619F01B
:1033A000AEFC16F0B5FC254BC01841F10001C8F881
:1033B000B000C8F8B41007F180002821484412F08A
:1033C00055FC002E93D142461E490120FEF78EFE89
:1033D00001202BE0002029E0B822194B02FB043326
:1033E00000931A4B1A4AC821284610F047FF16E0EE
:1033F0000134092C17DCB82304FB03F3803302A942
:103400000F481844FCF7ECFE0028F1D1B82304FB68
:1034100003F30B4AD35C002BEAD0002EDCD1012051
:1034200004E00024E5E7002000E0002065B0BDE8EE
:10343000F08300BFBC6D0308481B002000B84C0A95
:10344000901A0020DC6D0308C0210020F86D0308ED
:103450002C69030810B504460122FFF70FFF00B1E5
:1034600010BD044B044A40F29311204610F006FFB1
:10347000F6E700BF386E03082C69030810B590B05A
:10348000044609A807F068FC0F9B06930E9B059362
:103490000D9B04930C9B03930B9B02930A9B01933C
:1034A000099B0093034B044AC821204610F0E6FE16
:1034B00010B010BD686E03086C6F0308F0B591B0D2
:1034C00006460C460CAD4B49284611F061F8002326
:1034D000009395E80C0094E8030011F07BFA28B300
:1034E000454C2368002201210AA89847236800223E
:1034F00002210DF12B0098479DF828309DF82920D6
:103500009DF82A109DF82B009DF82C409DF82D5019
:10351000059504940390029101920093374B384A29
:10352000C821304610F0AAFE11B0F0BD0EAD3549ED
:10353000284611F02DF80023009395E80C0094E83C
:10354000030011F047FA00284BD008AB2E4A04F5CF
:10355000007103C90FF058FF00283AD00AAB2B4A7C
:1035600004F5007494E803000FF04EFF002830D0FB
:10357000DDE90801FDF730FBC4B2DDE90A01FDF722
:103580002BFBC5B2631EDBB2022B01D8012D07D97C
:103590001F4B1B4A4FF4C871304610F06FFEC3E753
:1035A000154F3B680022022107A8984704F13F030A
:1035B0006B4403F8245C3B680122022107A898476A
:1035C00001950094134B0E4AC821304610F056FE68
:1035D000AAE7114B0A4A4FF4C871304610F04EFE6C
:1035E000A2E70E4B064A40F29511304610F046FE17
:1035F0009AE700BFF06803085C280020B06F03085A
:103600002C690308886A0308E46F0308F06F030855
:1036100030700308F86F03086C700308A870030883
:1036200038B501FB00F4204607F0D6FA054618B17C
:103630002246002119F01CFB284638BDF0B58BB09E
:1036400006460C4606AD8449284610F0A1FF00232B
:10365000009395E80C0094E8030011F0BBF90028F2
:103660003BD0C6210120FFF7DBFF054640B37B4B73
:103670001B6800221146984705F1A5073846FCF75C
:103680000FFEC4B222462A21384619F0F1FA2C4422
:10369000002384F8A5306B78EBB1714BAA1C05F1BF
:1036A000840103970291019200936E4B6E4AC821E8
:1036B000304610F0E3FD284607F010FB0BB0F0BDDC
:1036C0006A4B694A4FF4FA71304610F0D7FD28462C
:1036D00007F004FBF2E7664BE0E708AD65492846D2
:1036E00010F056FF0023009395E80C0094E80300C7
:1036F00011F070F9002800F0A780C6210120FFF723
:103700008FFF054610B305AB5B4A04F5007103C992
:103710000FF010FC002824DB6B1C584A04F50077DE
:1037200097E803000FF096FE554A97E8030012F061
:103730001FF8074628B316F007FD0346E0B104332F
:10374000032B79D8DFE803F070686052474B464A94
:103750004FF4FA71304610F091FD284607F0BEFA9A
:10376000ACE7484B404A4FF4C871304610F086FD34
:10377000284607F0B3FAA1E77F223946A81C19F0C2
:10378000BEFA384607F0AAFA3F4A04F5007393E8F8
:10379000030011F0EDFF074628B12022014605F194
:1037A000840019F0ACFA384607F098FA374A04F565
:1037B000007494E8030011F0DBFF044628B12022D6
:1037C000014605F1A50019F09AFA204607F086FA9D
:1037D00001222A70214B1B680021284698472C4B58
:1037E000214AC821304610F049FDC1E7294B1E4A45
:1037F0004FF4C871304610F041FD384607F06EFABC
:10380000284607F06BFA59E7234B174A4FF4C87163
:10381000304610F033FDF0E7204B134A4FF4C871E7
:10382000304610F02BFDE8E71D4B0F4A4FF4C871EE
:10383000304610F023FDE0E71A4B0B4A4FF4C871F5
:10384000304610F01BFDD8E7174B074A40F29511A0
:10385000304610F013FD31E7F06803085C280020C3
:10386000FC700308487103082C6903080C710308F5
:1038700004710308886A030890710308C47103087F
:10388000D0710308947103081873030824730308A4
:1038900030730308DC710308207203086C7203089C
:1038A000AC720308E4720308A870030870B58AB00C
:1038B00006460C4604AD5E49284610F069FE00231A
:1038C000009395E80C0094E8030011F083F80028B9
:1038D0003DD00022039203A9564807F0E5FA039869
:1038E000421E40F2FE339A4229D801210844FFF7D4
:1038F00097FE0446B8B101214E4807F013FB054678
:10390000039A214607F03EFB284607F02FFB009460
:10391000494B4A4AC821304610F0B0FC204607F017
:10392000DDF90AB070BD46490320FEF7DFFB454BC9
:10393000424A4FF4FA71304610F0A0FCF1E7424BD6
:103940003E4A4FF4FA71304610F098FCE9E706ADB4
:103950003E49284610F01CFE0023009395E80C0019
:1039600094E8030011F036F8002858D003AB384A29
:1039700004F5007103C90FF0DDFA002834DB354A85
:1039800004F5007494E8030011F0F2FE04460028E8
:103990003DD008AD0146284610F0FAFD06F11C02A4
:1039A00095E8030012F002FD002825DB214D284692
:1039B00007F026FB0221284607F0B4FA0546204608
:1039C000FCF76EFC421C2146284607F0E7FA284621
:1039D00007F0CCFA204B194AC821304610F04EFCB3
:1039E000204607F07BF99CE71C4B144A4FF4C87142
:1039F000304610F043FC94E7194B104A4FF4C8715D
:103A0000304610F03BFC204607F068F989E7154B7B
:103A10000A4A4FF4C871304610F030FC81E7124B6F
:103A2000064A40F29511304610F028FC79E700BFB5
:103A3000F068030830680308C87303082C6903089A
:103A40006C730308A0730308F4730308886A0308FF
:103A500090710308287403087074030894710308B4
:103A600038740308C47403080C7503082DE9F04F7B
:103A7000C7B081468A4672228E4927A81AF034FBC5
:103A800001211E20FFF7CCFD064601212E20FFF765
:103A9000C7FD074601212E20FFF7C2FD8046012108
:103AA0004FF44070FFF7BCFD044601214FF4C07095
:103AB000FFF7B6FD0546002E00F0E380002F00F072
:103AC000E080B8F1000F00F0DC80002C00F0D9801D
:103AD000002800F0D6800DF5887B7749584610F015
:103AE00057FD002300939BE80C009AE8030010F0B8
:103AF00071FF002800F0BD8001F0BAFB824658B388
:103B000090F8AC3013F0200F2CD190F8AD3013F0BA
:103B1000200F2DD01E226949304619F0F0F8DFF849
:103B2000C4B10AF1080300935B46654A2E21404662
:103B30000FF0A6FE0AF11C0300935B46604A2E219B
:103B400038460FF09DFE2046FCF7AAFB5D4B1B8814
:103B500023524FF0010A28E01E225B49304619F03B
:103B6000CEF8F0E71E225949304619F0C8F8D6E7DA
:103B70001E225749304619F0C2F8D0E75FFA8AF39F
:103B80000122802107A801F063FF07A9204619F050
:103B900077F82046FCF784FB034621184D4A10684D
:103BA000E05013790B710AF1010ABAF1030FE5DD58
:103BB0004FF0010A07E02046FCF772FB414B1B88DF
:103BC00023520AF1010ABAF1030F18DC5FFA8AF3F3
:103BD0000222802107A801F03BFF07A9204619F027
:103BE0004FF8BAF1020FE6DC2046FCF759FB03461A
:103BF0002118384A1068E05013790B71E1E7284624
:103C0000FCF74EFB2F4B1B882B524FF0010A07E0AD
:103C10002846FCF745FB2B4B1B882B520AF1010A67
:103C2000BAF1030F18DC5FFA8AF30222802107A899
:103C300001F0F6FE07A9284619F022F8BAF1020FA2
:103C4000E6DC2846FCF72CFB03462918214A1068BD
:103C5000E85013790B71E1E7049503940297CDF8CE
:103C60000480009627AB1C4AC821484610F006FB8A
:103C70000EE01A4B184A40F29511484610F0FEFA31
:103C800006E0174B144A4FF4FA71484610F0F6FA62
:103C9000304607F023F8384607F020F8404607F092
:103CA0001DF8204607F01AF8284607F017F847B025
:103CB000BDE8F08FCC750308F06803086C75030845
:103CC00080750308847503088CB3030860750308C6
:103CD00074750308887503082C690308A870030825
:103CE000907503082D630208F0B58DB007460C46A9
:103CF000154608AE2349304610F04AFC00230093D5
:103D000096E80C0094E8030010F064FE18B300235A
:103D10000293039304930593069307931A4B02931C
:103D20001A4B079345B1012D0ED002AB184A21461C
:103D3000384611F00BF805E002AB154A214638462B
:103D400011F004F80DB0F0BD02AB124A214638461E
:103D500010F0FCFFF6E70AAD0F49284610F018FCFA
:103D60000023009395E80C0094E8030010F032FE65
:103D70000028E7D1094B0A4A40F29511384610F065
:103D80007DFADFE7F0680308847D0308A0000020C7
:103D9000E4630308F4630308886A030840760308B1
:103DA0002C690308F8B504460D4616460B4F3B6ACE
:103DB00098470222214638460EF0D2FF04467B691E
:103DC000A92206FB02F229460068984720460EF019
:103DD000E0FF03490120FEF789F9F8BDA0000020AB
:103DE000987603082DE9F041AEB006460C4626ADA4
:103DF000A849284610F0CCFB0023009395E80C005E
:103E000094E8030010F0E6FD002843D128ADA24954
:103E1000284610F0BDFB0023009395E80C0094E8C1
:103E2000030010F0D7FD002800F0FD8003AB9B4A93
:103E300004F5007103C90FF07DF80028C0F28980F5
:103E4000974A04F5007494E8030011F091FC0546CC
:103E5000944A94E8030011F08BFC0746002D00F013
:103E6000D480002800F0D1802B78002B00F0CD808A
:103E70000378002B00F0C9800024092C7FDC294640
:103E8000A920894B00FB0430FCF7AAF9002868D070
:103E90000134F2E701214FF48060FFF7C1FB0746D0
:103EA0000121A020FFF7BCFB8046002F3DD0002859
:103EB0003BD07E4B07CB38607960BA601B783B7390
:103EC0000C25002408E04346794AC5F5806178193D
:103ED00018F0A4F905440134092C18DCA92204FBCC
:103EE00002F2714B9A5C002AF5D0A92202FB04333E
:103EF000704AA021404618F091F90C2DE3D96E4A82
:103F0000C5F58061781918F089F90544DBE76B4A3B
:103F1000C5F58061781918F081F90097644B684AFB
:103F2000C821304610F0AAF90AE066490320FEF7DE
:103F3000DDF8654B624A4FF4FA71304610F09EF995
:103F4000384606F0CBFE404606F0C8FE2EB0BDE86F
:103F5000F0815E4B5A4A4FF4C871304610F08EF92A
:103F6000F4E75B4B564A4FF4C871304610F086F9BF
:103F7000284606F0B3FE384606F0B0FEE6E7002419
:103F800004942522214605A818F072FE0FA810F00F
:103F90004DFA3846FCF784F9024639460FA810F06E
:103FA0005FFA0FA904A810F095FA2146092924DC2C
:103FB000A92301FB03F33C4AD35C0BB10131F5E7C4
:103FC000A92303FB01F490467F22294608EB040055
:103FD00018F095FE8034282204A908EB040018F09C
:103FE0008EFE0A2241463B48FFF7DCFE3A4B344A3C
:103FF000C821304610F042F90EE0384B304A4FF4F9
:10400000C871304610F03AF906E0354B2C4A4FF4AF
:10401000C871304610F032F9284606F05FFE384687
:1040200006F05CFE92E72AAD2E49284610F0B0FA61
:104030000023009395E80C0094E8030010F0CAFCFC
:10404000002855D12CAD2849284610F0A1FA0023AC
:10405000009395E80C0094E8030010F0BBFC0028E6
:1040600000F0F3800E4A04F5007494E8030011F0A8
:104070007FFB074618B10378002B40F0CF801B4B25
:104080000F4A4FF4C871304610F0F8F8384606F081
:1040900025FE5BE7F0680308886A0308907103084F
:1040A000D8760308E0760308C0210020B076030824
:1040B00098B30308C0760308D0760308D4760308C3
:1040C0002C6903086C730308A07303089471030838
:1040D000E87603085862030824770308607703082A
:1040E00094770308D4770308907803082C790308A1
:1040F00003AB5A4A04F5007103C90EF01BFF0028F8
:1041000021DB574A04F5007494E8030011F030FBFA
:104110000546544A94E8030011F02AFB044625B1F1
:1041200018B12B780BB10378BBB94F4B4F4A4FF402
:10413000C871304610F0A2F8284606F0CFFD2046A0
:1041400006F0CCFD02E74A4B484A4FF4C8713046AE
:1041500010F094F800242546EEE700270497252266
:10416000394605A818F084FD0FA810F05FF9204625
:10417000FCF796F8024621460FA810F071F90FA936
:1041800004A810F0A7F9092F25DC2946A920394BEE
:1041900000FB0730FCF724F808B10137F3E7A92347
:1041A00003FB07F707F18000DFF8C880282204A985
:1041B000404418F0A4FD4744002387F8A8300A22A1
:1041C00041462D48FFF7EEFD2C4B284AC8213046CA
:1041D00010F054F8B0E72A4B244A4FF4CA71304625
:1041E00010F04CF8A8E780220021284618F040FD86
:1041F000A92303FB04F080301E4C29220021204417
:1042000018F036FD0A2221461B48FFF7CBFD1D4B57
:10421000164AC821304610F031F837E70124092C3E
:104220000BDCA923134D03FB045539462846FBF745
:10423000D7FF0028D7D00134F1E7134B0B4A4FF4D6
:10424000C871304610F01AF820E7104B074A40F2C8
:104250009511304610F012F878E600BF907103080F
:10426000D8760308E07603084C7803082C69030825
:1042700094710308C021002058620308D87703080E
:104280001C78030898780308D87803086C79030829
:1042900070B50E461446012201460E480EF060FD30
:1042A00088B105460B4B1B69A92204FB02F231467B
:1042B0000068984728460EF06CFD07490120FDF77D
:1042C00015FF012070BD05490320FDF70FFF0020F9
:1042D000F8E700BFA0000020E8790308CC790308C4
:1042E00070B586B005460C4604AE1549304610F050
:1042F0004FF90023009396E80C0094E8030010F0B7
:1043000069FBA0B1EB6F1868002302930D4B01937A
:10431000012300934FF4FA62002311F01BFB0A4BB8
:104320000A4AC82128460FF0A9FF06B070BD084B05
:10433000064A40F2951128460FF0A0FFF5E700BFAE
:10434000886A0308E5650108047A03082C690308F4
:10435000106B030870B584B005460C4602AE1449D4
:10436000304610F015F90023009396E80C0094E80D
:10437000030010F02FFB98B10E4BDB690E490F487C
:10438000984728B121462846FFF7AAFF04B070BD20
:104390000B4B0C4A4FF4FA7128460FF06FFFF5E70C
:1043A000094B084A40F2951128460FF067FFEDE7E8
:1043B000886A0308A0000020186203083C7A0308FA
:1043C000547A03082C690308106B030870B5C4B055
:1043D00006460C4642AD2049284610F0D9F8002385
:1043E000009395E80C0094E8030010F0F3FA50B342
:1043F0007B2323AA194904F5007010F0B6FF0028AA
:1044000019DD23AB164A802103A817F007FF154BCF
:104410005B6A03A8984730B1134B144AC821304651
:104420000FF02CFF16E0124B104A4FF4FA71304691
:104430000FF024FF0EE00F4B0C4A4FF4C8713046CA
:104440000FF01CFF06E00C4B084A40F29511304675
:104450000FF014FF44B070BD886A0308987A03080F
:10446000A07A0308A0000020A87A03082C6903089A
:10447000DC7A0308187B0308106B030870B5A4B03E
:1044800005460C4622AE1C49304610F081F8002348
:10449000009396E80C0094E8030010F09BFA08B330
:1044A000802302AA154904F1100010F05EFF1449A0
:1044B00002A8FBF795FE58B9124B0093124B134A12
:1044C0002146284612F018FD012005F0E9FC10E015
:1044D0000B4B00930E4B0F4A4FF4C87128460FF058
:1044E000CDFE06E00C4B0B4A40F2951128460FF02A
:1044F000C5FE24B070BD00BF886A0308E8B2030897
:10450000547B030890D003000C620308A000002035
:10451000647B03082C690308106B0308F0B597B09F
:1045200004460E4601214FF48060FFF779F80546F6
:1045300050B10122214628480EF012FC044640B139
:1045400068460FF01DF810E006F0C8FB4FF0FF3092
:1045500040E00EF01EFC284606F0C0FB6FF00100A4
:1045600038E0294668460FF021F81B4B1B694FF4D1
:10457000806229462068984702460028F1D12046EB
:104580000EF007FC01211020FFF74AF8074628B17A
:10459000014668460FF061F8002412E0284606F054
:1045A0009DFB384606F09AFB4FF0FF3012E06100A9
:1045B0003B5D0A4AC1F1210106EB440017F02EFED3
:1045C00001340F2CF3DD284606F088FB384606F050
:1045D00085FB002017B0F0BDA0000020B07B0308D1
:1045E00070B584B005460C4602AE194930460FF04E
:1045F000CFFF0023009396E80C0094E8030010F02E
:10460000E9F9E8B101212120FFF70AF80446014643
:104610001048FFF783FF58B900940F4B0F4AC82189
:1046200028460FF02BFE204606F058FB04B070BD64
:104630000B4B0A4A4FF4CA7128460FF01FFEF2E7EF
:10464000084B064A40F2951128460FF017FEEDE799
:10465000F06803083C7A0308B87B03082C69030858
:10466000DC7B0308A46903080B2900D07047F0B570
:10467000B5B00546144600222146FEF7FFFD074669
:1046800008AEAF4930460FF083FF0023009396E851
:104690000C0094E8030010F09DF920B12846FEF7C5
:1046A00045FC35B0F0BD0AAEA64930460FF070FFAC
:1046B0000023009396E80C0004F1080103C910F0F0
:1046C00089F900B1BFB10CAE9F4930460FF060FFD1
:1046D0000023009396E80C0004F1080103C910F0D0
:1046E00079F980B199490120FDF700FD214628465E
:1046F000FEF7B0FED5E7964B964A40F29311284656
:104700000FF0BCFDCDE70EAE934930460FF040FFF1
:104710000023009396E80C0004F1080103C910F08F
:1047200059F940B18D490120FDF7E0FC21462846AA
:10473000FEF7EAFCB5E710AE894930460FF028FFD6
:104740000023009396E80C0004F1080103C910F05F
:1047500041F938B183490120FDF7C8FC2846FEF72E
:104760008DFE9EE712AE804930460FF011FF002308
:10477000009396E80C0004F1080103C910F02AF92F
:1047800040B17A490120FDF7B1FC21462846FEF7E9
:1047900095FE86E714AE764930460FF0F9FE002309
:1047A000009396E80C0004F1080103C910F012F917
:1047B00040B170490120FDF799FC21462846FEF7DB
:1047C0003DFF6EE716AE6C4930460FF0E1FE002368
:1047D000009396E80C0004F1080103C910F0FAF800
:1047E00040B166490120FDF781FC21462846FFF7CC
:1047F0005DF856E718AE624930460FF0C9FE002357
:10480000009396E80C0004F1080103C910F0E2F8E7
:1048100040B15C490120FDF769FC21462846FFF7BD
:1048200025F93EE71AAE584930460FF0B1FE002395
:10483000009396E80C00E168A06810F0CBF848B14E
:1048400052490120FDF752FC002221462846FFF77D
:104850004BFA26E71CAE4E4930460FF099FE002376
:10486000009396E80C00E168A06810F0B3F848B136
:1048700048490120FDF73AFC012221462846FFF76E
:1048800033FA0EE71EAE444930460FF081FE002396
:10489000009396E80C00E168A06810F09BF840B126
:1048A0003E490120FDF722FC21462846FFF79AFAEF
:1048B000F7E620AE3A4930460FF06AFE0023009337
:1048C00096E80C00E168A06810F084F840B1354922
:1048D0000120FDF70BFC21462846FFF701FDE0E62D
:1048E00022AE314930460FF053FE0023009396E884
:1048F0000C00E168A06810F06DF840B12B49012070
:10490000FDF7F4FB21462846FEF71CFBC9E624AE62
:10491000274930460FF03CFE0023009396E80C0038
:10492000E168A06810F056F8002845D02149012020
:10493000FDF7DCFB21462846FEF736FBB1E600BF5B
:104940001C7C0308247C03083C7C0308487C030887
:104950002C7C0308AC6F03085C7C0308687C0308AC
:10496000807C0308907C0308AC7C0308BC7C0308B3
:10497000D47C0308E87C0308047D0308147D030845
:10498000307D0308447D0308607D0308707D0308C3
:104990008C7D0308A07D0308C07D0308D47D030837
:1049A000F07D0308047E0308247E0308387E030894
:1049B000587E03086C7E030826AE504930460FF03F
:1049C000E7FD0023009396E80C00E168A06810F072
:1049D00001F820B121462846FFF750FD61E628AED8
:1049E000474930460FF0D4FD0023009396E80C00B1
:1049F000E168A0680FF0EEFF40B142490120FDF7E9
:104A000075FB21462846FFF7EBFD4AE62AAE3E49F4
:104A100030460FF0BDFD0023009396E80C00E168DE
:104A2000A0680FF0D7FF40B138490120FDF75EFBC9
:104A300021462846FFF78EFC33E62CAE344930463B
:104A40000FF0A6FD0023009396E80C00E168A06833
:104A50000FF0C0FF20B121462846FEF7E3FA20E61A
:104A60002EAE2C4930460FF093FD0023009396E8BC
:104A70000C00E168A0680FF0ADFF20B12146284688
:104A8000FEF70CFB0DE630AE234930460FF080FDFB
:104A90000023009396E80C00E168A0680FF09AFFED
:104AA00040B11E4B00931E4B1E4A2146284612F071
:104AB00023FAF6E532AE1C4930460FF069FD0023BB
:104AC000009396E80C00E168A0680FF083FF20B126
:104AD00021462846FFF77AFCE3E50023029303937F
:104AE00004930593069307930D4B02930D4B079385
:104AF00002AA2146284612F019F9D2E5887E030859
:104B0000A07E0308B47E0308D07E0308E47E030879
:104B1000047F0308207F03083C7F030860E316003E
:104B200004620308A0000020587F030808B50A2289
:104B300002490348FFF7ACFB024808BDC021002032
:104B40005862030869460108014B1860704700BFAE
:104B50005C2800201A4B1B6803B1704730B585B044
:104B600018490120FDF7C2FA174C402200212046C7
:104B700018F07EF802AD154B196828460FF008FDB5
:104B800095E8030084E80300114B196828460FF0EC
:104B9000FFFC04F1080395E8030083E803003C23CD
:104BA0006385002300930B4B22460B4909680B4891
:104BB000006814F061FA024B186005B030BD00BF08
:104BC00080280020747F030884280020D828002033
:104BD000D4280020AD510108DC280020C82800207E
:104BE0002DE9F04F85B08146884692462A4C00F167
:104BF00008030093294B2A4A282120680EF040FE22
:104C000024682046FBF74CFB0146204600F01EFCC2
:104C100000263BE008EBC60318F836401D79214F0B
:104C20002B4622468021386800F02EFCDFF880B049
:104C30002B4622464FF41671DBF8000000F0D4FC3E
:104C4000194D02AC396820460FF0A2FC05F118039B
:104C500094E8030083E80300DBF8001020460FF01F
:104C600097FC05F1200394E8030083E80300012486
:104C700085F8284085F82E402946484612F062FF04
:104C80003A680A492046FDF731FA26445645C1D311
:104C900005B0BDE8F08F00BF7C280020116302083A
:104CA00080750308D028002084280020947F030802
:104CB000CC28002038B501FB00F4204605F08CFF1D
:104CC000054618B12246002117F0D2FF284638BD0C
:104CD0002DE9F04387B007460C46584D2B6800225B
:104CE000012104A898472B68002202210DF113002E
:104CF00098470322524904A817F026FF48B9032217
:104D000050490DF1130017F01FFF10B9002C00F0EF
:104D100091804B4B06AA12E903001860998001218B
:104D20004FF41670FFF7C6FF064601218020FFF7FB
:104D3000C1FF0546002238E002F101085FFA88F859
:104D400002F118030DEB030212F8083C00934346EE
:104D500001224FF41671304600F03AFE434601221C
:104D60008021284600F074FEDFF8DC9002AC294672
:104D700020460FF00DFC09F1180394E8030083E8C6
:104D80000300314620460FF003FC09F1200394E8AC
:104D9000030083E80300002389F8283089F82E30C7
:104DA0004946384612F0CEFE4246022AC4D90022B5
:104DB00038E002F101085FFA88F802F118030DEB00
:104DC000030212F8053C0093434602224FF4167189
:104DD000304600F0FDFD434602228021284600F0C7
:104DE00037FEDFF8649002AC294620460FF0D0FB76
:104DF00009F1180394E8030083E8030031462046D4
:104E00000FF0C6FB09F1200394E8030083E80300D8
:104E1000002389F8283089F82E304946384612F0A8
:104E200091FE4246022AC4D9304605F057FF284673
:104E300005F054FF07B0BDE8F08300BF68280020EC
:104E400060280020632800208428002008B5054B36
:104E5000186810B1044B1B7803B908BD0021FFF797
:104E600037FFFAE7802800206C28002008B5054BA2
:104E70001B7803B908BD0121034B1868FFF728FF11
:104E8000F8E700BF6C280020802800202DE9F04FB3
:104E900083B081460D461646002400E00134B4423A
:104EA0002ED205EBC40855F83430022BF6D101217F
:104EB0008020FFF7FFFE074698F804300222802189
:104EC00000F0AEFDDFF844804FF0010B88F828B009
:104ED000EA46394650460FF05BFB08F118039AE8A2
:104EE000030083E803004146484612F0DDFD3A46E0
:104EF00005495846FDF7FAF8384605F0EFFECDE7CC
:104F000003B0BDE8F08F00BFB87F030884280020FD
:104F10002DE9F04387B00023039307684568846850
:104F2000C668ACB1A7B105B10EBB8C490320FDF733
:104F3000DDF88B4B1B68002B40F30181894B9A22D3
:104F40008949012011F098FA88480FF043F9F6E0FA
:104F5000834B1B68002B40F3F280824B94228249E2
:104F6000012011F089FA82480FF034F9E7E00121BD
:104F70007018FFF79FFE814601216818FFF79AFE1F
:104F8000804632462146484617F0B9FE2A46394641
:104F9000404617F0B4FE774B1B680022022105A89B
:104FA0009847059BADF810301B0C8DF812307249F4
:104FB000404617F0DDFE002800F0B28003AA6F49DA
:104FC00017F0B4FA012809D0654B1B68002B00F3D9
:104FD0009D806B490320FDF789F8AAE0604B1B68B0
:104FE000012B19DCCDF80090039B42466549012056
:104FF000FDF77CF8039C631E022B19D8022E34D0D7
:10500000032E55D0564B1B68002B74DC4A465E4974
:105010000320FDF76BF88CE0524BAD225249022081
:1050200011F02AFA4246039958480FF0D3F8D9E70D
:105030004B4B1B68002B0CDC039B0322544910468E
:10504000FDF754F8484605F049FE404605F046FE97
:1050500075E0444BB2224449012011F00DFA039A45
:1050600003214B480FF0B6F8E6E7022249494846CB
:1050700017F033FE0028C3D104F117036B4401225B
:1050800003F8082C364B1B68934206DC394B1B682F
:105090000122022104A898474BE0324BBF2232493B
:1050A000022011F0E9F903993B480FF093F8EDE77E
:1050B00003223A49484617F010FE0028A2D104F115
:1050C00017036B44002203F8082C254B1B68012BA7
:1050D00006DC284B1B680122022104A8984728E01F
:1050E000204BC3222049022011F0C6F903992C4815
:1050F0000FF070F8EDE71B4BC7221B49012011F0A0
:10510000BBF9494620480FF065F87FE7154BCC22E4
:105110001549012011F0B0F922480FF05BF858E76B
:105120000F4B1B68002B0DDC42461F490320FCF788
:10513000DDFF484605F0D2FD404605F0CFFD07B043
:10514000BDE8F083074BD0220749012011F094F904
:10515000414615480FF03EF8E6E700BF44800308DB
:105160002C010020D47F0308F47F03086C8003081F
:10517000208003086828002098800308A080030886
:105180000C820308D880030898810308AC800308C8
:1051900018810308688103086C8103088081030873
:1051A00084810308D48103084482030870B5102960
:1051B00031D00546112902D009293AD070BD224BC1
:1051C0001B68022B1DDC21490120FCF78FFF204BBF
:1051D0001D60204B1B78002BF0D11F4E062231465C
:1051E0002846FFF7FDFC1A4C01212068FFF770FDEF
:1051F000062231462068FFF749FE164B01221A703D
:10520000DCE7164BE1221649032011F035F9154869
:105210000EF0E0FFD7E7144613490120FCF766FFC4
:105220002046FFF775FE0021094B1868FFF750FD77
:10523000C4E70E490120FCF759FF0023044A13601C
:10524000044A1370BAE700BF2C010020A0820308B3
:10525000802800206C280020C800002074820308E9
:10526000F47F030888820308B8820308DC820308FD
:10527000014B1868704700BF802800202DE9F047D7
:1052800086B006460C4691461D4601218020FFF758
:1052900011FDDFF848A1CAF8000001212120FFF725
:1052A00009FDDFF83C81C8F8000001212120FFF74B
:1052B00001FD3B4F386001218020FFF7FBFC394B9B
:1052C000186001214FF41670FFF7F4FC364B18609C
:1052D00001212820FFF7EEFC344B18600F9A344B65
:1052E0001A60DAF800A04946504618F0CBFED8F80C
:1052F00000902946484618F0C5FE0E99386818F007
:10530000C1FE4B4652462B490120FCF7EFFE2A4DC9
:105310002E602A4B1C600621204600F071F8284EB2
:1053200004ACD8F8001020460FF032F994E80300DE
:1053300086E80300396820460FF02AF906F10803D1
:1053400094E8030083E803003C237385002402945F
:105350001C4B01930323009342F210720023286830
:1053600010F0F8FA184B18600294184B01930126BC
:10537000009643F698220023286810F0EBFA144BAD
:1053800018600294134B019300964FF4FA720023B5
:10539000286810F0DFFA104B186006B0BDE8F087FF
:1053A000D4280020D0280020CC2800207C280020F1
:1053B00068280020F4820308C8280020C4280020A0
:1053C00084280020554B0108782800206D4E0108E4
:1053D000742800204D4E010870280020DC28002091
:1053E000D828002038B501FB00F4204605F0F4FB76
:1053F000054618B12246002117F03AFC284638BD70
:1054000070B506460D460F4B186808B105F066FCEE
:10541000680001210844FFF7E5FF0A4B186008B156
:1054200000240BE04FF0FF300BE0064B1868325DB4
:10543000054900EB440017F059F80134AC42F4D3AD
:10544000002070BDE42800202083030838B50546FD
:105450000C460C4B186808B105F040FC012160189F
:10546000FFF7C0FF074B186040B12246294617F0EE
:1054700046FC044B1B680020185538BD4FF0FF3028
:10548000FBE700BFE028002000B587B04FF0000C1C
:1054900080F800C0013A072A00F28780DFE802F0B6
:1054A00004162545356575550493414B0393414BCF
:1054B0001B680293404B0193404B0093404B414A81
:1054C00016F0ACFE002007B05DF804FB04933E4BE1
:1054D0000393384A12680292374A01920093384B7C
:1054E000384A16F09BFE0020EDE70493374B0393F8
:1054F000304B1B680293304B0193354B0093304B7C
:10550000304A16F08BFE0020DDE70493314B039305
:10551000284B1B680293284B01932D4B0093284B7B
:10552000284A16F07BFE0020CDE704932A4B039314
:10553000204B1B680293204B0193254B0093204B7B
:10554000204A16F06BFE0020BDE70493234B039323
:10555000184B1B680293184B01931D4B0093184B7B
:10556000184A16F05BFE0020ADE704931C4B039332
:10557000104B1B680293104B0193154B0093104B7B
:10558000104A16F04BFE00209DE70493154B039341
:10559000084B1B680293084B01930D4B0093084B7B
:1055A000084A16F03BFE00208DE74FF0FF308AE7F7
:1055B00040830308E4280020806A03084883030826
:1055C000F800002028830308988003085883030804
:1055D00060830308688303087083030878830308E3
:1055E00088830308988303082DE9F04F99B017903A
:1055F0000D4617461C460A46002117F039FB7A1E55
:10560000072A00F2BA81DFE812F008004300A10087
:10561000EA00C5006E019301490101218020FFF7D6
:10562000E1FE07460094804B804A802116F0F6FD8B
:105630007F4B1A687F4B1B6814937F4B13937F4BF0
:1056400012937F4B11937F4B10937F4B0F930E92CE
:105650007E4B0D937E490C910B947E490A910992E1
:10566000089307977C48069005940491039402914F
:1056700001920093794B7A4A2946179816F0CEFD8D
:105680000446384605F02AFBE0B219B0BDE8F08FB9
:1056900001218020FFF7A6FE074601218020FFF7A9
:1056A000A1FE8046DFF8F09100944B466D4A8021C0
:1056B000384616F0B3FDDFF894A1654E02960197C7
:1056C000DFF86CB1DBF8003000935346664A802166
:1056D000404616F0A3FD0094644B544A802138469E
:1056E00016F09CFDDBF80030524A12681492524AC0
:1056F0001392524A1292524A1192524A1092524AAC
:105700000F920E93CDF834A00C960B94CDF8289000
:105710000993CDF820A00797CDF818800594CDF80F
:1057200010900394CDF808900193CDF800A04B465B
:105730004B4A2946179816F071FD0446384605F085
:10574000CDFA404605F0CAFAE0B29EE7384B196838
:105750003E4B474A37480068109037480F9037480B
:105760000E9037480D9037480C9037480B900A91AF
:105770000993404808900792069105933E4804908B
:105780003E48039002923E48019000913449179898
:1057900016F0ACFE264B19682C4B3A4A2548006897
:1057A000109025480F9025480E9025480D902548CB
:1057B0000C9025480B900A91099333480890079262
:1057C00006910593314804902348039002922C4897
:1057D000019000912249179816F088FEDAE7144BE1
:1057E00019681A4B1D4A13480068109012480F9010
:1057F00012480E9012480D9012480C9012480B90CF
:105800000A9109932248089007920691059321482E
:105810000490114803900292194801900091104998
:10582000179816F063FEB5E7A0830308AC8303085E
:10583000E4280020E0280020A06903089C690308F0
:10584000B4830308606A0308746A0308806A030863
:10585000AC6F03084083030838A80308708303086B
:105860001C850308C4830308F4840308CC8303085D
:1058700058830308E0830308E4830308F4830308E0
:105880001884030868830308208403082484030819
:10589000348403083884030898800308384B196857
:1058A000384B394A39480068109039480F903948C8
:1058B0000E9039480D9039480C9039480B900A9158
:1058C000099338480890079206910593364804904A
:1058D0003648039002923648019000913549179856
:1058E00016F004FE56E7264B1968264B324A274825
:1058F0000068109026480F9026480E9026480D907C
:1059000026480C9026480B900A9109932B48089042
:105910000792069105932A48049024480390029226
:105920002348019000912349179816F0DFFD31E7D5
:10593000134B1968134B234A1448006810901448FD
:105940000F9014480E9014480D9014480C90144871
:105950000B900A9109931C480890079206910593B1
:105960001A48049011480390029211480190009146
:105970001049179816F0BAFD0CE74FF0FF3084E697
:10598000E4280020806A030878830308E0280020C8
:10599000A06903089C690308B4830308606A0308CC
:1059A000746A03085C8403086084030838A8030849
:1059B000188403081C85030888830308808403086F
:1059C0008484030898830308B0840308B48403081C
:1059D00030B583B01C469DF81850012A0BD0022A1E
:1059E0000BD10A4B5DB10A4A01920094094A16F0A4
:1059F00015FC03B030BD084BF4E70023F2E7074A7B
:105A000001920094034A16F009FCF2E7988003081B
:105A100068810308E4840308408303088081030845
:105A200000B585B00293064B0193064B1B680093AB
:105A3000054B064A16F0F2FB05B05DF804FB00BF0B
:105A400098800308E4280020806A0308C0840308C3
:105A500000B585B04FF0000C80F800C0012A06D0D8
:105A6000022A0FD04FF0FF3005B05DF804FB02931F
:105A70000A4B01930A4B1B6800930A4B0A4A16F023
:105A8000CDFBF1E70293094B0193054B1B68009393
:105A9000044B054A16F0C2FBE6E700BF408303084B
:105AA000E4280020806A0308D08403089880030853
:105AB00008B5084B1B682BB1064B186808B114F0E9
:105AC000EBF908BD044A194614F0B8FA014B186006
:105AD000F2E700BFE8280020DD5A010870B512295E
