:020000040801F1
:1000000000000220FD230108112301081323010829
:100010001523010817230108192301080000000017
:10002000000000000000000000000000D19F010857
:100030001B2301080000000071A00108257E0108B3
:100040004D2401084D2401084D2401084D240108C8
:100050004D2401084D2401084D2401084D240108B8
:100060004D2401084D2401084D2401084D240108A8
:100070004D2401084D2401084D2401084D24010898
:100080004D2401084D2401084D2401080000000002
:100090000000000000000000000000004D240108E6
:1000A0001D2301084D2401084D2401084D24010899
:1000B0004D2401084D2401084D2401084D24010858
:1000C0004D2401084D2401084D2401084D24010848
:1000D0004D2401084D2401084D24010800000000B2
:1000E0004D2401084D2401084D24010800000000A2
:1000F0000000000000000000000000004D24010886
:10010000000000004D2401084D2401084D24010881
:1001100000000000000000000000000000000000DF
:100120004D2401084D2401084D2401084D240108E7
:100130004D24010800000000000000000000000045
:100140000000000000000000000000004D24010835
:100150004D2401084D2401084D2401084D240108B7
:100160004D2401084D24010800000000000000009B
:10017000000000000000000000000000000000007F
:10018000000000004D2401080000000000000000F5
:080190004D2401084D24010873
:1001A00010B5054C237833B9044B13B10448AFF3B1
:1001B00000800123237010BD7008002000000000A3
:1001C0007C55030808B5034B1BB103490348AFF343
:1001D000008008BD00000000740800207C55030862
:1001E00010F8012B11F8013B012A28BF9A42F7D0E1
:1001F000D01A70470000000000000000000000005E
:1002000001F0FF01102A2BDB10F0070F08D010F8C7
:10021000013B013A8B422DD010F0070F42B3F6D1CB
:10022000F0B441EA012141EA014122F007047FF0E4
:1002300000070023F0E80256083C85EA010586EA3B
:10024000010685FA47F5A3FA87F586FA47F6A5FA77
:1002500087F68EB9EED1F0BC01F0FF0102F0070283
:1002600032B110F8013B013A83EA010313B1F8D12E
:100270000020704701387047002D06BF354603380F
:10028000073815F0010F07D1013015F4807F02BF48
:10029000013015F4C03F0130F0BC0138704700BF99
:1002A000034613F8012B002AFBD1181A01387047B6
:1002B00081F0004102E000BF83F0004330B54FEA17
:1002C00041044FEA430594EA050F08BF90EA020F84
:1002D0001FBF54EA000C55EA020C7FEA645C7FEA17
:1002E000655C00F0E2804FEA5454D4EB5555B8BF3A
:1002F0006D420CDD2C4480EA020281EA030382EAAB
:10030000000083EA010180EA020281EA0303362D3C
:1003100088BF30BD11F0004F4FEA01314FF4801C0F
:100320004CEA113102D0404261EB410113F0004F21
:100330004FEA03334CEA133302D0524263EB4303D8
:1003400094EA050F00F0A780A4F10104D5F1200E76
:100350000DDB02FA0EFC22FA05F2801841F10001D1
:1003600003FA0EF2801843FA05F359410EE0A5F1A5
:1003700020050EF1200E012A03FA0EFC28BF4CF0D6
:10038000020C43FA05F3C01851EBE37101F000458C
:1003900007D54FF0000EDCF1000C7EEB00006EEB99
:1003A0000101B1F5801F1BD3B1F5001F0CD3490823
:1003B0005FEA30004FEA3C0C04F101044FEA44527A
:1003C00012F5800F80F09A80BCF1004F08BF5FEA01
:1003D000500C50F1000041EB045141EA050130BDE1
:1003E0005FEA4C0C404141EB0101013C28BFB1F5F3
:1003F000801FE9D291F0000F04BF01460020B1FA3E
:1004000081F308BF2033A3F10B03B3F120020CDA10
:100410000C3208DD02F1140CC2F10C0201FA0CF0EE
:1004200021FA02F10CE002F11402D8BFC2F1200C53
:1004300001FA02F120FA0CFCDCBF41EA0C01904009
:10044000E41AA2BF01EB0451294330BD6FEA040452
:100450001F3C1CDA0C340EDC04F11404C4F120023D
:1004600020FA04F001FA02F340EA030021FA04F34F
:1004700045EA030130BDC4F10C04C4F1200220FAA6
:1004800002F001FA04F340EA0300294630BD21FAE4
:1004900004F0294630BD94F0000F83F4801306BFAA
:1004A00081F480110134013D4EE77FEA645C18BF9E
:1004B0007FEA655C29D094EA050F08BF90EA020F35
:1004C00005D054EA000C04BF1946104630BD91EA2D
:1004D000030F1EBF0021002030BD5FEA545C05D130
:1004E0004000494128BF41F0004130BD14F580046F
:1004F0003CBF01F5801130BD01F0004545F0FE41E3
:1005000041F470014FF0000030BD7FEA645C1ABF17
:10051000194610467FEA655C1CBF0B46024650EA4E
:10052000013406BF52EA033591EA030F41F400217A
:1005300030BD00BF90F0000F04BF0021704730B500
:100540004FF4806404F132044FF000054FF00001D5
:1005500050E700BF90F0000F04BF0021704730B596
:100560004FF4806404F1320410F0004548BF40426B
:100570004FF000013EE700BF42004FEAE2014FEAC0
:1005800031014FEA02701FBF12F07F4393F07F4F9B
:1005900081F06051704732F07F4208BF704793F09E
:1005A0007F4F04BF41F40021704730B54FF46074B1
:1005B00001F0004521F000411CE700BF50EA0102B4
:1005C00008BF704730B54FF000050AE050EA01025D
:1005D00008BF704730B511F0004502D5404261EBCD
:1005E00041014FF4806404F132045FEA915C3FF40E
:1005F000D8AE4FF003025FEADC0C18BF03325FEAAB
:10060000DC0C18BF033202EBDC02C2F1200300FA5B
:1006100003FC20FA02F001FA03FE40EA0E0021FA80
:1006200002F11444BDE600BF70B54FF0FF0C4CF46E
:10063000E06C1CEA11541DBF1CEA135594EA0C0F20
:1006400095EA0C0F00F0DEF82C4481EA030621EA5B
:100650004C5123EA4C5350EA013518BF52EA033596
:1006600041F4801143F4801338D0A0FB02CE4FF048
:100670000005E1FB02E506F00042E0FB03E54FF078
:100680000006E1FB03569CF0000F18BF4EF0010E70
:10069000A4F1FF04B6F5007F64F5407404D25FEA6C
:1006A0004E0E6D4146EB060642EAC62141EA55511F
:1006B0004FEAC52040EA5E504FEACE2EB4F1FD0C61
:1006C00088BFBCF5E06F1ED8BEF1004F08BF5FEADF
:1006D000500E50F1000041EB045170BD06F0004691
:1006E00046EA010140EA020081EA0301B4EB5C043E
:1006F000C2BFD4EB0C0541EA045170BD41F4801136
:100700004FF0000E013C00F3AB8014F1360FDEBF5A
:10071000002001F0004170BDC4F10004203C35DA36
:100720000C341BDC04F11404C4F1200500FA05F3B9
:1007300020FA04F001FA05F240EA020001F000425A
:1007400021F0004110EBD37021FA04F642EB0601D0
:100750005EEA430E08BF20EAD37070BDC4F10C04FA
:10076000C4F1200500FA04F320FA05F001FA04F2BE
:1007700040EA020001F0004110EBD37041F10001AA
:100780005EEA430E08BF20EAD37070BDC4F12005B5
:1007900000FA05F24EEA020E20FA04F301FA05F21D
:1007A00043EA020321FA04F001F0004121FA04F2C5
:1007B00020EA020000EBD3705EEA430E08BF20EA95
:1007C000D37070BD94F0000F0FD101F000464000CF
:1007D00041EB010111F4801F08BF013CF7D041EA51
:1007E000060195F0000F18BF704703F00046520055
:1007F00043EB030313F4801F08BF013DF7D043EA26
:100800000603704794EA0C0F0CEA135518BF95EADB
:100810000C0F0CD050EA410618BF52EA4306D1D162
:1008200081EA030101F000414FF0000070BD50EA81
:10083000410606BF1046194652EA430619D094EA0B
:100840000C0F02D150EA013613D195EA0C0F05D1F5
:1008500052EA03361CBF104619460AD181EA030149
:1008600001F0004141F0FE4141F470014FF0000001
:1008700070BD41F0FE4141F4780170BD70B54FF09C
:10088000FF0C4CF4E06C1CEA11541DBF1CEA13551C
:1008900094EA0C0F95EA0C0F00F0A7F8A4EB0504FE
:1008A00081EA030E52EA03354FEA013100F08880F5
:1008B0004FEA03334FF0805545EA131343EA1263BE
:1008C0004FEA022245EA111545EA10654FEA002673
:1008D0000EF000419D4208BF964244F1FD0404F52C
:1008E000407402D25B084FEA3202B61A65EB030588
:1008F0005B084FEA32024FF480104FF4002CB6EB45
:10090000020E75EB030E22BFB61A754640EA0C00C4
:100910005B084FEA3202B6EB020E75EB030E22BF04
:10092000B61A754640EA5C005B084FEA3202B6EB45
:10093000020E75EB030E22BFB61A754640EA9C0004
:100940005B084FEA3202B6EB020E75EB030E22BFD4
:10095000B61A754640EADC0055EA060E18D04FEA92
:10096000051545EA16754FEA06164FEAC30343EA32
:1009700052734FEAC2025FEA1C1CC0D111F4801FFF
:100980000BD141EA00014FF000004FF0004CB6E7F8
:1009900011F4801F04BF01430020B4F1FD0C88BF97
:1009A000BCF5E06F3FF6AFAEB5EB030C04BFB6EBA2
:1009B000020C5FEA500C50F1000041EB045170BD95
:1009C0000EF0004E4EEA113114EB5C04C2BFD4EBC2
:1009D0000C0541EA045170BD41F480114FF0000E46
:1009E000013C90E645EA060E8DE60CEA135594EAC2
:1009F0000C0F08BF95EA0C0F3FF43BAF94EA0C0FC5
:100A00000AD150EA01347FF434AF95EA0C0F7FF439
:100A100025AF104619462CE795EA0C0F06D152EA8D
:100A200003353FF4FDAE1046194622E750EA410671
:100A300018BF52EA43067FF4C5AE50EA41047FF482
:100A40000DAF52EA43057FF4EBAE12E74FF0FF3CE7
:100A500006E000BF4FF0010C02E000BF4FF0010CB8
:100A60004DF804CD4FEA410C7FEA6C5C4FEA430C31
:100A700018BF7FEA6C5C1BD001B050EA410C0CBF80
:100A800052EA430C91EA030F02BF90EA020F0020E2
:100A9000704710F1000F91EA030F58BF994208BF49
:100AA00090422CBFD8176FEAE37040F00100704706
:100AB0004FEA410C7FEA6C5C02D150EA013C07D15D
:100AC0004FEA430C7FEA6C5CD6D152EA033CD3D0A8
:100AD0005DF8040B704700BF8446104662468C46A2
:100AE0001946634600E000BF01B5FFF7B7FF0028D5
:100AF00048BF10F1000F01BD4DF808EDFFF7F4FFFE
:100B00000CBF012000205DF808FB00BF4DF808ED88
:100B1000FFF7EAFF34BF012000205DF808FB00BFAB
:100B20004DF808EDFFF7E0FF94BF012000205DF8CD
:100B300008FB00BF4DF808EDFFF7CEFF94BF012082
:100B400000205DF808FB00BF4DF808EDFFF7C4FF7B
:100B500034BF012000205DF808FB00BF4FEA410CC4
:100B60007FEA6C5C02D150EA013C0AD14FEA430CA7
:100B70007FEA6C5C02D152EA033C02D14FF00000E4
:100B800070474FF0010070474FEA410212F5001222
:100B900015D211D56FF47873B3EB625212D94FEAC4
:100BA000C12343F0004343EA505311F0004F23FAAE
:100BB00002F018BF404270474FF00000704750EA03
:100BC000013005D111F0004008BF6FF000407047C0
:100BD0004FF00000704700BF4A0011D212F500121A
:100BE00011D20DD56FF47873B3EB62520ED44FEA85
:100BF000C12343F0004343EA505323FA02F0704705
:100C00004FF00000704750EA013002D14FF0FF3042
:100C100070474FF0000070474FEA4102B2F1E043E5
:100C200024BFB3F5001CDCF1FE5C0DD901F0004CD3
:100C30004FEAC0024CEA5070B2F1004F40EB830023
:100C400008BF20F00100704711F0804F21D113F14F
:100C50003872BCBF01F00040704741F480114FEA88
:100C60005252C2F11802C2F1200C10FA0CF320FA11
:100C700002F018BF40F001004FEAC1234FEAD3232E
:100C800003FA0CFC40EA0C0023FA02F34FEA430398
:100C9000CCE77FEA625307D150EA01331EBF4FF021
:100CA000FE4040F44000704701F0004040F0FE403C
:100CB00040F40000704700BF7BB972B90029BEBF85
:100CC00000204FF0004106E008BF00281CBF6FF075
:100CD00000414FF0FF3000F0FFB9ADF1080C6DE9B5
:100CE00004CE002909DB002B1ADB00F097F8DDF8B1
:100CF00004E0DDE9022304B07047404261EB4101AA
:100D0000002B1BDB00F08AF8DDF804E0DDE90223AC
:100D100004B0404261EB4101524263EB4303704730
:100D2000524263EB430300F079F8DDF804E0DDE9BB
:100D3000022304B0404261EB41017047524263EB31
:100D4000430300F06BF8DDF804E0DDE9022304B0B2
:100D5000524263EB4303704753B94AB9002908BFB5
:100D600000281CBF4FF0FF314FF0FF3000F0B4B946
:100D7000ADF1080C6DE904CE00F050F8DDF804E0A8
:100D8000DDE9022304B07047430803F05533C01A6D
:100D9000830803F0333300F03330184400EB1010B5
:100DA00000F00F3000EB002000EB0040000E704719
:100DB00038B50022002304460D46FFF7A7FE28B9E8
:100DC00020462946BDE8384000F00AB8204605F123
:100DD000004100F005F8404261EB410138BD00BF21
:100DE000D0B50C4B002206460F46FFF71DFCFFF75F
:100DF000F3FE0446FFF79EFB074B0022FFF714FCAF
:100E000002460B4630463946FFF756FAFFF7E4FE36
:100E10002146D0BD0000F03D0000F0412DE9F04733
:100E2000089D0C46002B4ED194468C458646B2FA5E
:100E300082F262D94AB1C2F12003914020FA03F351
:100E40000CFA02FC194300FA02FE4FEA1C471FFA93
:100E50008CF6B1FBF7F44FEA1E4307FB141143EA8B
:100E6000014304FB06F199420AD91CEB030304F188
:100E7000FF3080F01281994240F20F81023C6344BE
:100E8000591A1FFA8EF3B1FBF7F007FB101143EA72
:100E9000014300FB06F69E420AD91CEB030300F156
:100EA000FF3180F0FC809E4240F2F98063440238BA
:100EB0009B1B40EA044000211DB1D3400022C5E93C
:100EC0000032BDE8F0878B4205D90DB1C5E90001BC
:100ED00000210846F5E7B3FA83F1002946D1A34281
:100EE00002D39042C0F0F080861A64EB0303012025
:100EF000002DE6D0C5E90063E3E7002A40F09080CA
:100F0000A1EB0C044FEA1C481FFA8CF70121B4FB3B
:100F1000F8F64FEA1E4308FB164443EA044307FB76
:100F200006F0984208D91CEB030306F1FF3402D205
:100F3000984200F2CD8026461C1A1FFA8EF3B4FBAD
:100F4000F8F008FB104443EA044300FB07F79F4214
:100F500008D91CEB030300F1FF3402D29F4200F2D8
:100F6000B0802046DB1B40EA0640A5E7C1F1200621
:100F70008B4022FA06F71F4320FA06FC04FA01F31D
:100F800043EA0C03F44000FA01F8380C4FEA134925
:100F9000B4FBF0FE1FFA87FC00FB1E4449EA044440
:100FA0000EFB0CF9A14502FA01F20AD93C190EF127
:100FB000FF3A80F08480A14540F28180AEF1020EBC
:100FC0003C44A4EB09041FFA83F9B4FBF0F300FBE3
:100FD000134449EA044403FB0CFCA44507D93C191B
:100FE00003F1FF3067D2A44565D9023B3C4443EA94
:100FF0000E40A0FB0293A4EB0C049C42CE469C4600
:1010000051D34ED055B1B8EB0E0364EB0C0404FA87
:1010100006F6CB401E43CC40C5E90064002150E7F2
:10102000C2F1200320FA03F10CFA02FC24FA03F3C4
:1010300094400C434FEA1C4800FA02FE1FFA8CF75A
:10104000B3FBF8F008FB1031230C43EA014300FB2B
:1010500007F1994208D91CEB030300F1FF362CD2AB
:1010600099422AD9023863445B1AA4B2B3FBF8F15F
:1010700008FB113344EA034401FB07F3A34208D9F8
:101080001CEB040401F1FF3613D2A34211D902393B
:101090006444E41A41EA004139E70446F0E60846B0
:1010A00006E7C845AED2B9EB020E63EB070C013878
:1010B000A8E73146EDE7034699E73046D4E7D64640
:1010C0007FE7634402384DE70646234608460FE7AC
:1010D000023E634430E700BF704700BF08B50022FE
:1010E0004FF48051014804F0F6FF08BD00040240AF
:1010F00008B501224FF48051014804F0ECFF08BD0F
:101100000004024008B500224FF40041014804F0F9
:10111000E2FF08BD0000024008B501224FF4004183
:10112000014804F0D8FF08BD0000024010B58EB0A1
:10113000484B93E803000C90ADF834100DF1240CEB
:1011400003F1080494E807008CE80700143393E8DF
:1011500003000790ADF8201004AB94E8070083E883
:1011600007006FE000231A4601A93B48006807F01A
:101170002CF800240EE000220EAB03EB440333F8FE
:10118000081C0EAB03EB840353F8140C04F0A3FF0C
:101190000134E4B2022C5BD804F138036B4413F839
:1011A000343C002BE7D001220EAB03EB440333F8B1
:1011B000081C0EAB03EB840353F8140C04F08BFFF4
:1011C000E6E70EAB03EB440203EB840332F8081CA2
:1011D00053F8140C04F078FF04F138036B4403F85F
:1011E000300C0134E4B2022CEBD91C4C206807F01F
:1011F0003AF800231A4602A9206806F0A4FF00244A
:1012000011E00EAB03EB440203EB840332F81C1C29
:1012100053F8280C04F058FF04F138036B4403F82A
:101220002C0C0134E4B2022CEBD90D4C206807F0F1
:101230001AF800231A4603A9206806F084FF01204B
:1012400006F089FE044B186807F000F8002889D1E1
:101250000024C8E7985503089C080020A008002037
:10126000A408002084B008B50DF1080C8CE80F002C
:1012700000231A4661460448006806F064FFBDE892
:10128000084004B0704700BF9408002070B58AB0D1
:101290004FF47A7006F05FFE06F0F6FC642006F06C
:1012A0005AFE0021012006F053FC002006F014FC39
:1012B000484C01222146484806F09EFC0122214666
:1012C000464806F099FC0B21012006F041FC012262
:1012D0002146434806F090FC1621012006F038FC18
:1012E000012221463F4806F087FC2121012006F01B
:1012F0002FFC3D4B59680A784B788878CD780E7969
:1013000049790391029601950090384905A81AF091
:10131000F5FB0122214605A806F06EFC06F05EFDF5
:1013200040F6B83008F082F9002503E04FF47A70F7
:1013300006F011FE0021012006F00AFC002006F054
:10134000CBFB244C01222146294806F055FC264BB4
:101350005B689A68130E0193C2F307430093C2F3CC
:101360000723D2B2234905A81AF0C8FB012221465F
:1013700005A806F041FC0A21012006F0E9FB012244
:1013800021461D4806F038FC01352A461B4905A8B0
:101390001AF0B4FB0122214605A806F02DFC06F048
:1013A0001DFD4FF47A7301227821154805F0DEF90E
:1013B0000028BBD0124805F003F94FF47A7008F00A
:1013C00035F900F0DBFC4FF47A7008F02FF906F0E5
:1013D0005BFCE6E70C0100201458030820580308C2
:1013E0002C58030838580308BC080020405803084C
:1013F0006058030864580308745803086CA803086D
:10140000C408002070B5BAB000233993794B7A4AEA
:101410007A497B4804F0F2F97A497B4809F0D6F919
:1014200000283BDB794809F0BFF9794C204609F0E8
:10143000AFF9784809F0ACF9204609F0B5F97648DB
:1014400009F0B2F9754809F0AFF9754809F0ACF93F
:10145000744809F0A9F9002239A9734809F0ECF899
:10146000F8B10121704809F025F90446C62207A900
:1014700009F050F9204609F041F900228DF81C20AE
:10148000022307A96948006807F0C4F8002239A9B7
:10149000674809F0D1F888B1002482E004F0A4FC88
:1014A000C0E7C622002107A81AF0EAFE02230022A4
:1014B00007A95E48006807F0ADF8E7E740F29A60D8
:1014C00008F052FF044690B35A49012000F0EAFCAC
:1014D000594B186820609B88A38001AD574E0FCEF2
:1014E0000FC596E8030045F8040B297001AD0FCD38
:1014F000C4F88000C4F88410C4F88820C4F88C3084
:101500002868C4F890002B7984F894300221484868
:1015100009F0D0F8054640F29A62214609F006F932
:10152000284609F0EBF8204608F0A0FFB4E744494C
:10153000032000F0B7FCF6E73B4D284609F028F9F8
:101540000221284609F0B6F80546002833D0C62205
:1015500007A909F0EBF8284609F0D0F800228DF829
:101560001C20022307A93148006807F053F822E045
:10157000012006F0F0FC4FF48071324804F0A4FD25
:101580000028F5D04FF47A7006F0E5FC284809F001
:10159000FFF804F029FC00E000244FF47A7006F014
:1015A000DAFC002207A9214B186807F046FB9DF8DA
:1015B0001C30002BC0D14FF48071224804F084FD10
:1015C0000028E9D10134E4B21E4D0122022128464F
:1015D00004F081FD642006F0BEFC002202212846B2
:1015E00004F079FD082CD8D101220221284604F00C
:1015F00072FDC0E71118010835180108191101081A
:1016000005110108611801084D18010878580308F0
:10161000805803088C5803089C580308A8580308EE
:10162000B0580308B8580308C058030898080020A9
:10163000D45803081059030848590308505903089F
:10164000E45803080004024008B5012914D0022917
:101650001AD001B108BD4AB1012AFBD102230022F0
:1016600001461248006806F0D5FFF3E701460F4B2C
:10167000186807F0E2FAEDE7002AEBD101460C4BBF
:10168000186807F0DAFAE5E74AB1012AE2D1022345
:10169000002201460748006806F0BCFFDAE7014671
:1016A000054B186807F0C9FAD4E700BF9808002076
:1016B000A40800209C080020A008002030B5D1B06C
:1016C0003E4800F0E3FB012000F0E6FB3C4901202E
:1016D00000F0E8FB4FF4FA6006F03DFC4FF4FA64CA
:1016E00048E000231A4607A93648006806F06DFD59
:1016F0000221354808F0DEFF05469DF81D210DF159
:101700001D0109F013F8284608F0F8FF38E048A852
:1017100008F0EAFE4E9B04934D9B03934C9B02936F
:101720004B9B01934A9B0093499B489A2749012070
:1017300000F0B8FB264C63689A68130E0193C2F35D
:1017400007430093C2F30723D2B22249012000F0DD
:10175000A9FB61680A784B788878CC780D7949794B
:1017600003910295019400901B49012000F09AFB1F
:1017700000240134134B186806F068FD0028B0D12E
:101780004FF4FA7006F0E7FBB4F5FA6FF1D10022DE
:101790004FA90D4808F050FF4F9A4CF250339A422F
:1017A000B5D90E4C204608F0F3FF2146064808F054
:1017B000E3FF0B49012000F075FBA8E76512010863
:1017C00068590308940800207C590308B05903089D
:1017D000BC080020445A0308605A03088C590308C7
:1017E0009C59030800B587B08DF80F104FF0FF33F8
:1017F000009301230DF117020DF10F01034805F0CD
:1018000008FE9DF8170007B05DF804FB1C090020D6
:1018100000B583B08DF807004FF0FF3301220DF1C2
:101820000701034805F013FD03B05DF804FB00BF9A
:101830007409002008B50A464FF0FF3301460248FC
:1018400005F011FF08BD00BF7409002008B54FF076
:10185000FF31024B186806F0D5FB08BD8C0800204C
:1018600008B5024B186806F0FCFB08BD8C08002088
:1018700008B5294806F07DFB284B1860284806F07B
:1018800078FB284B1860284A0321012006F010FC41
:10189000264B1860264A0321012006F009FC254B3F
:1018A0001860254A0321012006F002FC234B186032
:1018B000234AC621012006F0FBFB224B1860224A76
:1018C0004FF481710F2006F0F3FB204B1860204A83
:1018D0000021204806F0E0FA1F4B18601F4A002143
:1018E0001F4806F0D9FA1F4B18601F4A00211F48F5
:1018F00006F0D2FA1E4B18601E4A00211E4806F060
:10190000CBFA1E4B18601E4A00211E4806F0C4FA8E
:101910001D4B186008BD00BF645B030890080020E1
:10192000545B03088C080020D45B0308A408002043
:10193000BC5B0308A0080020A45B03089C080020EF
:101940008C5B030898080020745B0308940800204F
:101950007C5C0308B5190108B8080020585C03082E
:101960002D110108B4080020345C03088D12010811
:10197000B0080020105C030805140108AC08002022
:10198000EC5B0308BD160108A808002008B500227A
:101990004FF48071014804F09EFB08BD0000024036
:1019A00008B501224FF48071014804F094FB08BD92
:1019B0000000024030B5EBB022AD644B0FCB85E8A0
:1019C0000F0002AC8022002120461AF059FC40236F
:1019D0008DF8083022238DF809305D4B1A7C8DF884
:1019E0000A209A7C8DF80B201A7D8DF80C201B7E26
:1019F0008DF80D3001238DF827308DF82830554BA8
:101A00000B930C95544B58AA1A605C6003E04FF49A
:101A1000FA7006F0A0FA08F0D3FE0028F7D058A814
:101A200011F05AFA4D4B03221A6002F0C7FC04462B
:101A30000FE0FFF7ABFF4FF4FA7006F08CFAFFF7F8
:101A4000AFFF4FF4FA6006F086FA02A958A816F024
:101A500039FEBDF84C30002BEBD0062102A803F074
:101A6000D9F83F4802F0B8FC3B4B22463D4958A804
:101A700015F056F806E0012158A817F0BDFB01202B
:101A800006F069FA9DF88430032BF4D1324B5B6881
:101A90009A68130E0193C2F307430093C2F307231E
:101AA000D2B23149012000F0FDF90022114626A8EA
:101AB000FFF7CAFD9DF89930EBB12C49012000F0E9
:101AC000F1F9274B01930DF23D13009347AB0DF154
:101AD0009A0202A958A802F0DBFF58A803F070FC94
:101AE00002A958A803F038FE58A801F019F807F029
:101AF0008FFC054608E01E49012000F0D3F9ECE711
:101B0000012006F028FA254607F082FC0446411B16
:101B100058A817F071FB0B9BDB6802A898470028B8
:101B2000EED1FFF733FF642006F015FAFFF738FF18
:101B300040F6B83006F00FFA0B9B1B6802A89847D6
:101B400041F6583006F007FAE5E700BFB455030840
:101B5000007AFF1F18010020BC0800202C01002083
:101B600049160108885A0308445A03089C5A030876
:101B7000B45A03080BB2002B20DD70B582B00646C4
:101B800015468B18042B02DD012002B070BD4C1EDF
:101B9000A4B20022012101A8FFF756FD0AE004F1DA
:101BA00008036B4413F8043C0122A1B2304600F054
:101BB0002DFE0134A542F2DC0020E6E7012070474B
:101BC000F0B583B016460AB2002A43DD05461F462B
:101BD0008B19042B41DC27B3012F39D101398CB289
:101BE0000022022101A8FFF72FFD27460FE0012266
:101BF000B9B2284600F03EFE01220021284600F03E
:101C000039FE07F108036B4403F8040C013733195C
:101C1000BB42ECDC0122022101A8FFF715FD0020E8
:101C200019E04C1EA4B20022022101A8FFF70CFD0E
:101C30000AE004F108036B4413F8043C0122A1B24A
:101C4000284600F0E3FD0134A642F2DC384602E00B
:101C5000012000E0012003B0F0BD0120FBE70120DE
:101C600070470120704700002DE9F04389B000243F
:101C70000394049405940694079400943C4B1A6BC7
:101C800042F080021A631A6B02F080020092009AFE
:101C900001941A6B42F001021A631A6B02F00102FE
:101CA0000192019A02941A6B42F002021A631B6BB2
:101CB00003F002030293029B2E4E22464FF4F07172
:101CC000304604F008FA2C4D22460721284604F03D
:101CD00002FA01224FF48051284604F0FCF9012257
:101CE0004FF40041304604F0F6F94FF00709CDF803
:101CF0000C9004944FF00208CDF8148003A93046EC
:101D000004F076F8E02303930127049705940694E2
:101D100003A9304604F06CF8CDF80C9004970594B4
:101D2000069403A9284604F063F84FF48053039304
:101D300004970594CDF8188003A9284604F058F8B4
:101D40004FF40143039304970594CDF8188003A939
:101D5000304604F04DF84FF48073039304940594D7
:101D600003A9284604F044F809B0BDE8F08300BF99
:101D700000380240000002400004024008B50B4851
:101D80000B4B03600B4B436000238360C3604FF435
:101D90008042026143618361C361036204F032FBEC
:101DA00000B908BD00F028F9FBE700BFC408002017
:101DB00000540040400D030030B589B00023039368
:101DC00004930593069307930268154B9A4201D03A
:101DD00009B030BD00250195124C236B43F002037E
:101DE0002363236B03F002030193019BC02303933E
:101DF00012230493012305930323069304230793DB
:101E000003A9094803F0F4FF0295236C43F400137F
:101E10002364236C03F400130293029BD8E700BFF2
:101E200000540040003802400004024002680A4B9F
:101E30009A4200D0704710B5084A136C23F400137F
:101E40001364074C4021204604F0B6F88021204658
:101E500004F0B2F810BD00BF00540040003802404A
:101E60000004024084B08DE80F0004B0704738B51C
:101E700001FB00F4204608F077FA054618B1224627
:101E800000211AF0FDF9284638BD000008B1014ACA
:101E90001060704700000020014B1870704700BFB1
:101EA000180900200EB4F0B5ADF51C7D444B1B782D
:101EB000834205D90DF51C7DBDE8F04003B07047A5
:101EC000044601214FF48070FFF7D1FF054600283A
:101ED000F0D04FF4817200215BA81AF0D1F98DF88F
:101EE0006C4117F01DFAFEF769FB06460F4600220B
:101EF000344BFEF7C3FCFEF75BFFCDE958014FA959
:101F000058A81AF053FA4FAB2F4A40213FA81BF0B4
:101F10005FF8044630463946FEF736FE2B4A82FB10
:101F20000032C317C3EBA2134FF47A7202FB130300
:101F3000274AC4F140013FA8204419F077FC04442B
:101F4000631C20223FA90A550022CA54A2AB5A930F
:101F50000DF26D16A19AFD21304619F02FFF0446AF
:101F60009DF86C2101961B4B53F8223000933FAB38
:101F7000194A4FF48071284619F058FCF52C1BD8EB
:101F80002846FEF78DF98DF86D024FF480722946D0
:101F90000DF26D101AF0BBF9104B1E6846B15BAC28
:101FA000F2225FA968461BF0A7FB94E80F00B04738
:101FB000284608F05BFA7DE7F6238DF86D32E4E7FA
:101FC0001809002000408F40A05C0308D34D621028
:101FD000B45C030804000020BC5C0308000000207F
:101FE00008B50268034B9A4200D008BD03F05CFEBE
:101FF000FBE700BF0040014072B6FEE700B595B0B8
:102000003022002108A81AF03BF90023039304931F
:1020100005930693079301931E4A116C41F080517A
:102020001164126C02F080520192019A02931A4AD2
:10203000116841F440411160126802F4404202927A
:10204000029A0222089201210B9110210C910E920A
:102050000F93082310936423119312920423139374
:1020600008A804F04DFC88B90F23039302230493BE
:10207000002305934FF4805206920793032103A88F
:1020800004F0A8FE20B915B05DF804FBFFF7B4FF1B
:10209000FFF7B2FF003802400070004000B583B087
:1020A00072B6104B104A9A6062B6104B019302E070
:1020B000019B013B0193019B002BF9DC03F0DAFD4E
:1020C000FFF79CFFFFF7D0FD00F034F8FFF756FE56
:1020D00000F00EF805F0B2FEFFF7CAFB05F0C0FEF7
:1020E000FEE700BF00ED00E00000010840420F00E5
:1020F00008B50E480E4B03604FF482734360002313
:102100008360C360036143614FF4007282610822FF
:10211000C2610362436283620A23C36205F038F836
:1021200000B908BDFFF768FFFBE700BF7409002096
:102130000030014008B50D480D4B03604FF4827329
:10214000436000238360C360036143614FF4007206
:102150008261C3610362436283620A23C36205F042
:1021600017F800B908BDFFF747FFFBE71C0900207F
:102170000038004000B58BB0002305930693079309
:10218000089309930368284A934205D0274A93424B
:1021900025D00BB05DF804FB00210191244B5A6C53
:1021A00042F480525A645A6C02F480520192019AAD
:1021B00002911A6B42F002021A631B6B03F00203D6
:1021C0000293029B3823059302230693032308936B
:1021D0000523099305A9174803F00AFED9E7002152
:1021E0000391134B1A6C42F480421A641A6C02F485
:1021F00080420392039A04911A6B42F002021A631E
:102200001B6B03F002030493049B4FF4604305939C
:1022100002230693032308930523099305A9054880
:1022200003F0E6FDB5E700BF003001400038004094
:10223000003802400004024000B583B00022009242
:102240000D4B596C41F480415964596C01F4804143
:10225000009100990192196C41F0805119641B6C36
:1022600003F080530193019B0F216FF0010003F0F5
:10227000A7FD03B05DF804FB0038024030B589B01B
:102280000546002401941D4B5A6C42F480325A6476
:102290005B6C03F480330193019B02A903A804F053
:1022A0006FFE04F05DFE164AA2FB00239B0C013B6F
:1022B0001448154A026040F2E732C260436004618C
:1022C0008460846105F0DAFB044610B1204609B051
:1022D00030BD0C4805F08CFA04460028F6D11820D1
:1022E00003F07EFD0F2D01D90124EFE700222946DE
:1022F000182003F065FD054B1D60E7E7003802403C
:1023000083DE1B43CC09002000400140080100206F
:10231000FEE7FEE7FEE7FEE7FEE7704708B5024886
:1023200005F0A6FA08BD00BFCC09002001207047C7
:1023300008B51BF0A9F9162303604FF0FF3008BD64
:1023400008B54FF0FF31FFF7F3FFFEE770B50C461D
:102350001646002506E0AFF30080214601F8010B88
:1023600001350C46B542F6DB304670BD70B50C4603
:102370001646002504E014F8010BAFF30080013588
:10238000B542F8DB304670BD4FF0FF3070474FF478
:1023900000534B60002070470120704700207047B9
:1023A00010B503460C4A0D490D48006840B10C4871
:1023B00000680344521A934206D8094A136010BDBC
:1023C0000748084C0460F2E71BF05EF90C23036039
:1023D0004FF0FF30F3E700BF0000022000080000CC
:1023E000180A002000A20120034AD2F8883043F4E2
:1023F0007003C2F88830704700ED00E0DFF834D099
:10240000FFF7F2FF0C480D490D4A002302E0D458B3
:10241000C4500433C4188C42F9D30A4A0A4C00232E
:1024200001E013600432A242FBD31BF03BF9FFF73B
:1024300035FE7047000002200000002070080020D8
:10244000E4B703087008002000A20120FEE738B5B9
:102450000B88052B01D0032038BD0C4643788178CA
:1024600041EA0321013189B2C378027942EA0322A9
:10247000531E9BB240F2CE7C634520D800232380BC
:102480000123037023880133238012F0070F10D03B
:10249000C2F3C7030133DDB24570238801332380C3
:1024A00000230230FFF78CFB30B923882B442380B4
:1024B000D2E7C2F3C705EFE700F0F0F9CCE703205D
:1024C000CAE70B88052B01D0032070474378817839
:1024D00041EA0321013189B20379F3B9C278531E6D
:1024E000DBB2FD2B1BD900B583B000238DF805307E
:1024F000FF2A0BD000238DF8043001231A4601A8CF
:10250000FFF75EFB30B903B05DF804FB01238DF8E3
:102510000430F2E700F0C2F9F5E70320704703202A
:1025200070470B88052B2DD910B50C46427883785F
:1025300043EA0223013399B2C278037943EA0222C3
:1025400090F805E013F0070F0ED0C2F3C70C0CF1A2
:10255000010C5FFA8CFC531E9BB2B3F5F66F13D2DD
:10256000F44504D0032010BDC2F3C70CF3E70123E8
:102570000630FFF725FB10B905232380F3E700F0B1
:102580008DF9F0E7032070470320ECE738B50B889E
:10259000052B01D0032038BD0C464378817841EAF1
:1025A0000321013189B2C378027942EA0322531E22
:1025B0009BB240F2CE7C63451FD8002323800223C8
:1025C000037023880133238012F0070F0FD0C2F36A
:1025D000C7030133DDB24570238801332380023005
:1025E000FFF7C8FA30B923882B442380D3E7C2F31E
:1025F000C705F0E700F052F9CDE70320CBE708B5B7
:102600000B88052B01D0032008BD4378817841EA6F
:102610000321013101231A4689B20330FFF721FB60
:102620000028F1D000F03AF9EEE70B88052B22D90B
:1026300010B50C464278837843EA0223013399B2FD
:10264000C378027942EA032290F805C0531E9BB278
:10265000772B12D85300DBB2634501D0032010BDA5
:1026600001230630FFF7FDFA10B905232380F6E7B2
:1026700000F014F9F3E7032070470320EFE738B5C3
:102680000B88052B01D0032038BD02460C46437849
:10269000817841EA0321013189B205796B1E9BB231
:1026A0007C2B01D90320EFE7002323804FF0030C9C
:1026B00000F802CBB4F800C00CF1010CA4F800C083
:1026C0004FEA450C82F801C02288013222802A4656
:1026D000FFF7C7FA20B9238803EB45032380D3E72C
:1026E00000F0DCF8D0E7F8B50B88092B43D9044695
:1026F0000D464378817841EA032101318EB2C378D7
:10270000077947EA03274379817941EA03210131B7
:1027100089B2C379027A42EA0322407A7B1E9BB2D5
:102720007C2B2AD85AB3792A2BD8B0EB420F01D090
:10273000032021E0012304F10A00FFF792FA034687
:10274000B0B928802046172200F8022B2A880132CF
:102750002A807A0062702A8801322A803A463146FD
:10276000FFF77FFA20B92B8803EB47032B8003E0A8
:1027700000F094F800E00020F8BD0320FCE70320FF
:10278000FAE70320F8E70A88052A01D003207047FA
:1027900038B503460C464278817841EA022101317E
:1027A00089B2C278057945EA02256A1E92B27B2A6F
:1027B00001D9032038BD00222280042200F8022B18
:1027C0002288013222806A005A70238801332380D4
:1027D0002A46FFF744FA20B9238803EB45032380F8
:1027E000E8E700F05BF8E5E738B50D46054B1C88D7
:1027F0002246054901301AF07FFF01342C80002069
:1028000038BD00BF1C0A0020200A002010B5082A8D
:1028100023D84FEAD10E01F0070403FA04F44FF075
:10282000010C0CFA02F292B2013A92B201F00701E5
:1028300002FA01F110F80E300EEB0C0210F802C093
:1028400043EA0C231BB223EA01031BB2234300F823
:102850000E30C3F30723835410BD034B034A3721C3
:10286000034816F0BBFF00BF005D0308585D030876
:10287000105D03084FEAD10C012393409BB2013B4A
:1028800010F80C206044407842EA002201F0070171
:102890000A4192B203EA0200C0B27047012805D093
:1028A000072805D008B10420704770470220704700
:1028B0000620704710B500F068F9044620B1114BAE
:1028C00001221A70204610BD00F0CAF8C0B10E4BAC
:1028D0000E4A1A600E4B0F4A1A600F4B0F4A1A60CD
:1028E0000F4B104A1A60104B00221A600F4BFF2248
:1028F0001A700F4B02221A70024B01221A70E1E784
:102900000324DFE79C000020580A00209B2B0108CD
:10291000540A00209D2B0108500A0020A52B010815
:102920005C0A0020E52B01084C0A0020610A002007
:10293000600A002008B5064B1B78012B01D0062049
:1029400008BD044B1B6898470020014B1870F7E73F
:102950009C000020580A002030B583B0364B1C780C
:10296000002C63D10DF1070000F08EF8012802D091
:10297000204603B030BD9DF80730012B14D0022B48
:10298000F6D12E4B186801782D4B19702D4B012272
:102990001A7000230F2B25DC2B4A12F833200AB3C0
:1029A000914217D00133F5E7284B1B68284A234989
:1029B0002848984705460028DAD1264B1B78264A36
:1029C0001278934201D0002B32D1022000F050F84F
:1029D0002C46CDE71C4A02EBC3035B681C499847B1
:1029E000184B18701B4B1B7823B3164B1B789BB1ED
:1029F000174A0021118012490978104805684FF0E4
:102A0000010CA2F800C041F0800129700068118813
:102A100001EB0C0515804354104B1B680C4A1288BF
:102A2000064909680C4800789847A1E706249FE703
:102A300004469DE71C469BE79C000020440A0020BA
:102A4000410A0020400A00201C000020500A0020FB
:102A5000420A0020480A0020610A00205C0A002087
:102A6000024B00221A700120704700BF620A00204A
:102A70000123034A1370034A10701846704700BFC1
:102A8000620A0020630A00200346054A107830B12C
:102A9000044A12781A70024B00221A700120704703
:102AA000620A0020630A0020072900D0704738B569
:102AB0000446026C93B215490B8033B990F8AD30DF
:102AC00043F0200380F8AD3038BD1A46816B1048C2
:102AD0001AF012FE0120FFF7CBFFFFF73DFFFFF7D3
:102AE0003BFF0C4B1B7833B994F8AD3043F0200317
:102AF00084F8AD30E8E70025064B1D70064B1A88B8
:102B00000649204614F074F82564DDE768120020B9
:102B10006C120020640A0020660A0020680A002067
:102B200008B50023044A054913F076FF0020FFF79B
:102B3000C1FEFFF7FFFE08BDA92A0108685D030872
:102B400001207047044B0360044B1A880A8000225E
:102B50001A800120704700BF6C120020681200200C
:102B600010B50C460A46014604481AF0C5FD044B50
:102B70001C800120034B187010BD00BF680A0020A4
:102B8000660A0020640A0020704708B5FFF7D8FFE6
:102B900008B1002008BD0320FCE7704708B5FFF727
:102BA000F3FF08BD70B582B006460D4614460DF120
:102BB000020101A8FFF7C6FF80B1019B9978DA787E
:102BC00052EA01220CD107332B60BDF80230073BDB
:102BD0002380FF233370002002B070BD0520FBE787
:102BE0000520F9E708B50846D11D531C1B1200F853
:102BF000033C013200F8022C89B20738FFF7B0FF1E
:102C000008B1002008BD0520FCE7000008B5034B13
:102C1000034AC82110F076FE08BD00BFCCA103080E
:102C20007C5D030870B584B005460C4602AE1449BD
:102C3000304610F0F1FF0023009396E80C0094E872
:102C4000030011F00BFA98B10E4B1B6A0E4898471F
:102C500038B10E4B0E4AC821284610F053FE04B07E
:102C600070BD0C4B0A4AC821284610F04BFEF6E70F
:102C7000094B074A4FF4C871284610F043FEEEE7AF
:102C80001C5E0308A00000208C580308245E030883
:102C9000605E0308D05E0308145F030870B584B05B
:102CA00005460C4602AE1249304610F0B5FF00232F
:102CB000009396E80C0094E8030011F0CFF978B186
:102CC0000C4E336A0C4C20469847736A204698474E
:102CD0000A4B0B4AC821284610F014FE04B070BD00
:102CE000084B074A4FF4C871284610F00BFEF5E771
:102CF0001C5E0308A000002078580308645F0308E6
:102D0000605E0308145F0308F0B5C3B006460D46C5
:102D1000002422947C273A46214623A819F0B0FAD1
:102D200002943A46214603A819F0AAFA802200929A
:102D300002AB22A9284611F097FE9DF8883013B106
:102D40009DF8082062B913B99DF8083023BB1E4BCB
:102D50001E4A4FF4CA71304610F0D4FD43B0F0BDA6
:102D60001B4B1A4A4FF4C871304610F0CBFDF5E703
:102D7000184AB82304FB03F3D018002180F8801010
:102D800000240025C0E92C45D154134B0F4AC8211B
:102D9000304610F0B7FDE1E70024092C0CDCB82325
:102DA00004FB03F3803302A90A481844FDF718FA1C
:102DB0000028DDD00134F0E7084B044A4FF4CA7113
:102DC000304610F09FFDC9E79C600308605E030871
:102DD000AC5F0308701A00202C60030868600308C9
:102DE00030B5C7B004460D4690F8AC3013F0400241
:102DF0001FD0124B05F18001EAB1114A114802902F
:102E000001920091104A4FF4807106A810F07AF8F0
:102E10000595002204920D4B03930D4902910192F6
:102E200000930C4B06AAC821204610F06BFD47B05A
:102E300030BD094BDEE7094AE0E700BF1461030833
:102E40003861030800A302004461030895210208C9
:102E5000F06E0308886103082861030864630308AF
:102E60002DE9F043E5B005460C4616460021599180
:102E700025225AA819F004FA8022009202AB22A956
:102E8000204611F0F1FD9DF8883013B19DF808201F
:102E90004AB9002B40F0AD809DF80830002B40F07F
:102EA000A4800020A6E042A810F004FE02A8FDF7CE
:102EB000F7F9024602A942A810F016FE42A959A845
:102EC00010F04CFE002426E049462846FFF788FF14
:102ED00062E04A4F802222A9384619F018FA16F00B
:102EE0001FFA474BC31841F10001C7F8B030C7F8CB
:102EF000B410282107F1800012F0FCF90EB901206E
:102F000078E0B821A7F1B80301FB04312846FFF7A8
:102F100067FFF4E70134092C40DC22A9A920394BD2
:102F200000FB0430FDF75CF90028F3D1A92304FB72
:102F300003F3803359A933481844FDF751F90028A9
:102F4000E8D1314BB82202FB0433D3F8B080D3F878
:102F5000B47016F0E5F980458F41BAD2B82704FB6A
:102F600007F7DFF8A48007EB0809802222A948466A
:102F700019F0CDF916F0D4F9214BC01841F1000138
:102F8000C9F8B000C9F8B41007F180002821404406
:102F900012F0B0F9002E97D101202BE0002029E09B
:102FA000B822194B02FB04330093184B184AC8216E
:102FB000284610F0A7FC16E00134092C17DCB823D2
:102FC00004FB03F3803302A90F481844FDF708F906
:102FD0000028F1D1B82304FB03F30B4AD35C002B88
:102FE000EAD0002EDCD1012004E00024E5E7002037
:102FF00000E0002065B0BDE8F08300BF281B002082
:1030000000B84C0AA0210020701A0020906103082B
:10301000605E030810B504460122FFF721FF00B1EE
:1030200010BD044B044A40F29311204610F06AFC94
:10303000F6E700BFD0610308605E030810B590B0EA
:10304000044609A807F050FA0C490120FEF72AFFB0
:103050000F9B06930E9B05930D9B04930C9B039370
:103060000B9B02930A9B0193099B0093044B054A17
:10307000C821204610F046FC10B010BD00620308C5
:103080002062030824630308F0B591B006460C469D
:103090000CAD4B49284610F0BFFD0023009395E886
:1030A0000C0094E8030010F0D9FF28B3454C2368C6
:1030B000002201210AA898472368002202210DF16D
:1030C0002B0098479DF828309DF829209DF82A105C
:1030D0009DF82B009DF82C409DF82D5005950494EB
:1030E0000390029101920093374B384AC821304631
:1030F00010F008FC11B0F0BD0EAD3549284610F0B7
:103100008BFD0023009395E80C0094E8030010F079
:10311000A5FF00284BD008AB2E4A04F5007103C967
:103120000FF0B4FC00283AD00AAB2B4A04F5007427
:1031300094E803000FF0AAFC002830D0DDE9080174
:10314000FDF74AFDC4B2DDE90A01FDF745FDC5B250
:10315000631EDBB2022B01D8012D07D91F4B1B4A7E
:103160004FF4C871304610F0CDFBC3E7154F3B68F4
:103170000022022107A8984704F13F036B4403F89B
:10318000245C3B680122022107A89847019500941E
:10319000134B0E4AC821304610F0B4FBAAE7114B7E
:1031A0000A4A4FF4C871304610F0ACFBA2E70E4B50
:1031B000064A4FF4C871304610F0A4FB9AE700BFEE
:1031C000686303083C2800206C630308605E030802
:1031D0001C5E0308A0630308AC630308EC630308E8
:1031E000B4630308286403086464030838B501FB6A
:1031F00000F4204607F0B8F8054618B12246002131
:1032000019F03EF8284638BDF0B58BB006460C469E
:1032100006AD8449284610F0FFFC0023009395E892
:103220000C0094E8030010F019FF00283BD0C621E1
:103230000120FFF7DBFF054640B37B4B1B680022F4
:103240001146984705F1A5073846FDF729F8C4B29D
:1032500022462A21384619F013F82C44002384F81A
:10326000A5306B78EBB1714BAA1C05F18401039773
:103270000291019200936E4B6E4AC821304610F0C5
:1032800041FB284607F0F2F80BB0F0BD6A4B694AE3
:103290004FF4FA71304610F035FB284607F0E6F897
:1032A000F2E7664BE0E708AD6549284610F0B4FC4C
:1032B0000023009395E80C0094E8030010F0CEFE84
:1032C000002800F0A780C6210120FFF78FFF0546E8
:1032D00010B305AB5B4A04F5007103C90FF06CF93C
:1032E000002824DB6B1C584A04F5007797E803009C
:1032F0000FF0F2FB554A97E8030011F07DFD0746F9
:1033000028B316F029FA0346E0B10433032B79D829
:10331000DFE803F070686052474B464A4FF4FA7199
:10332000304610F0EFFA284607F0A0F8ACE7484B1B
:10333000404A4FF4C871304610F0E4FA284607F0CE
:1033400095F8A1E77F223946A81C18F0E0FF38461F
:1033500007F08CF83F4A04F5007393E8030011F07E
:103360004BFD074628B12022014605F1840018F0E4
:10337000CEFF384607F07AF8374A04F5007494E82F
:10338000030011F039FD044628B12022014605F161
:10339000A50018F0BCFF204607F068F801222A704B
:1033A000214B1B680021284698472C4B214AC821F5
:1033B000304610F0A7FAC1E7294B1E4A4FF4C871F6
:1033C000304610F09FFA384607F050F8284607F0CC
:1033D0004DF859E7234B174A4FF4C871304610F0A7
:1033E00091FAF0E7204B134A4FF4C871304610F0C1
:1033F00089FAE8E71D4B0F4A4FF4C871304610F0C8
:1034000081FAE0E71A4B0B4A4FF4C871304610F0CE
:1034100079FAD8E7174B074A4FF4C871304610F0D5
:1034200071FA31E7686303083C280020B864030898
:1034300004650308605E0308C8640308C0640308E9
:103440001C5E03084C650308806503088C6503084F
:1034500050650308D4660308E0660308EC660308B9
:1034600098650308DC650308286603086866030896
:10347000A0660308646403082DE9F04FC7B08146D5
:103480008A4672228E4927A81AF036F901211E2099
:10349000FFF7ACFE064601212E20FFF7A7FE0746E8
:1034A00001212E20FFF7A2FE804601214FF440703B
:1034B000FFF79CFE044601214FF4C070FFF796FE13
:1034C0000546002E00F0E380002F00F0E080B8F108
:1034D000000F00F0DC80002C00F0D980002800F004
:1034E000D6800DF5887B7749584610F095FB002370
:1034F00000939BE80C009AE8030010F0AFFD002851
:1035000000F0BD8001F0BEFA824658B390F8AC30AE
:1035100013F0200F2CD190F8AD3013F0200F2DD0E8
:103520001E226949304618F0F2FEDFF8C4B10AF1F4
:10353000080300935B46654A2E2140460FF0E2FCEB
:103540000AF11C0300935B46604A2E2138460FF0B7
:10355000D9FC2046FCF7A4FE5D4B1B8823524FF09C
:10356000010A28E01E225B49304618F0D0FEF0E741
:103570001E225949304618F0CAFED6E71E22574986
:10358000304618F0C4FED0E75FFA8AF301228021AA
:1035900007A801F067FE07A9204618F079FE20462B
:1035A000FCF77EFE034621184D4A1068E05013795F
:1035B0000B710AF1010ABAF1030FE5DD4FF0010AC0
:1035C00007E02046FCF76CFE414B1B8823520AF1B2
:1035D000010ABAF1030F18DC5FFA8AF30222802194
:1035E00007A801F03FFE07A9204618F051FEBAF1E6
:1035F000020FE6DC2046FCF753FE03462118384A4A
:103600001068E05013790B71E1E72846FCF748FE9B
:103610002F4B1B882B524FF0010A07E02846FCF77E
:103620003FFE2B4B1B882B520AF1010ABAF1030F04
:1036300018DC5FFA8AF30222802107A801F0FAFD64
:1036400007A9284618F024FEBAF1020FE6DC284646
:10365000FCF726FE03462918214A1068E850137922
:103660000B71E1E7049503940297CDF8048000966E
:1036700027AB1C4AC821484610F044F90EE01A4B0B
:10368000184A4FF4C871484610F03CF906E0174B51
:10369000144A4FF4C871484610F034F9304606F029
:1036A000E5FE384606F0E2FE404606F0DFFE204624
:1036B00006F0DCFE284606F0D9FE47B0BDE8F08FE4
:1036C00094670308686303083467030848670308BE
:1036D0004C6703085CA30308286703083C670308DA
:1036E00050670308605E03086464030858670308B2
:1036F000B5590208F0B58DB007460C46154608AE20
:103700002349304610F088FA0023009396E80C0015
:1037100094E8030010F0A2FC18B300230293039373
:1037200004930593069307931A4B02931A4B07933E
:1037300045B1012D0ED002AB184A2146384610F093
:1037400049FE05E002AB154A2146384610F042FE1C
:103750000DB0F0BD02AB124A2146384610F03AFED9
:10376000F6E70AAD0F49284610F056FA00230093F9
:1037700095E80C0094E8030010F070FC0028E7D1F5
:10378000094B0A4A4FF4C871384610F0BBF8DFE71E
:1037900068630308B0580308A00000207C590308A0
:1037A0008C5903081C5E030808680308605E030860
:1037B000F8B504460D461646094F3B6A9847022263
:1037C000214638460EF00FFE04467B69A92206FB0F
:1037D00002F229460068984720460EF01DFEF8BD0B
:1037E000A00000202DE9F041AEB007460C4626AD02
:1037F000AC49284610F010FA0023009395E80C001D
:1038000094E8030010F02AFC00285ED001214FF458
:103810008060FFF7EBFC06460121A020FFF7E6FCE5
:103820008046002E3DD000283BD09F4B07CB306018
:103830007160B2601B7833730C25002408E04346A6
:103840009A4AC5F58061701917F0F0FF05440134FC
:10385000092C18DCA92204FB02F2954B9A5C002A81
:10386000F5D0A92202FB0433924AA021404617F06A
:10387000DDFF0C2DE3D9904AC5F58061701917F072
:10388000D5FF0544DBE78D4AC5F58061701917F057
:10389000CDFF0096854B8A4AC821384610F032F891
:1038A0000AE088490320FEF7FDFA874B844A4FF46B
:1038B000FA71384610F026F8304606F0D7FD40463B
:1038C00006F0D4FD2EB0BDE8F08128AD7F49284632
:1038D00010F0A2F90023009395E80C0094E803008F
:1038E00010F0BCFB002800F0968003AB784A04F58A
:1038F000007103C90EF060FE002821DB754A04F553
:10390000007494E8030011F077FA0546724A94E8CF
:10391000030011F071FA044625B118B12B780BB1F0
:1039200003787BBB6D4B664A4FF4C87138460FF085
:10393000E9FF284606F09AFD204606F097FDC1E70C
:10394000674B5F4A4FF4C87138460FF0DBFFB9E7A9
:103950000136092E18DC2946A920554B00FB0630FC
:10396000FCF73EFC0028F3D15E4B554A4FF4C8717A
:1039700038460FF0C7FF284606F078FD204606F0CF
:1039800075FD9FE70026E4E70026049625223146D0
:1039900005A818F075FC0FA810F08CF82046FCF76D
:1039A0007FFC024621460FA810F09EF80FA904A83C
:1039B00010F0D4F8334600E00133092B23DCA922B0
:1039C00003FB02F23A498A5C002AF5D1A92202FBE4
:1039D00003F688467F22294608EB060018F097FC7C
:1039E00006F18000282204A9404418F090FC0A2225
:1039F00041463D48FFF7DCFE3C4B314AC821384682
:103A00000FF080FF95E73A4B2D4A4FF4C8713846C6
:103A10000FF078FF8DE72AAD3649284610F0FCF804
:103A20000023009395E80C0094E8030010F016FBC7
:103A3000002800F0A98003AB254A04F5007103C9F2
:103A40000EF0BAFD002822DB224A04F5007494E847
:103A5000030011F0D1F905461F4A94E8030011F064
:103A6000CBF904462DB120B12B7813B10378002B8C
:103A700044D1214B124A4FF4C87138460FF042FF2F
:103A8000284606F0F3FC204606F0F0FC1AE7144B3B
:103A90000B4A4FF4C87138460FF034FF0024254616
:103AA000EEE700BF686303086068030868A30308C3
:103AB000A021002070680308806803088468030858
:103AC000605E030888680308BC6803081C5E03087E
:103AD0004C650308E4680308EC680308A069030860
:103AE00050650308F4680308D458030830690308D4
:103AF0006C690308E0690308586A03080026049605
:103B00002522314605A818F0BBFB0FA80FF0D2FF05
:103B10002046FCF7C5FB024621460FA80FF0E4FF44
:103B20000FA904A810F01AF8092E25DC2946A920AF
:103B3000454B00FB0630FCF753FB08B10136F3E7B9
:103B4000A92303FB06F606F18000DFF8FC8028229B
:103B500004A9404418F0DBFB4644002386F8A83053
:103B60000A2241463948FFF723FE394B394AC8211A
:103B700038460FF0C7FE83E7374B364A4FF4CA7119
:103B800038460FF0BFFE7BE72CAD3449284610F0D5
:103B900043F80023009395E80C0094E8030010F02C
:103BA0005DFA002847D02E4A04F5007494E803001B
:103BB00011F022F9064608B103782BBB294B254AA0
:103BC0004FF4C87138460FF09DFE304606F04EFCAB
:103BD00078E680220021284618F052FBA92303FB37
:103BE00004F08030184C29220021204418F048FBB2
:103BF0000A2221461548FFF7DBFD1B4B154AC82159
:103C000038460FF07FFEE0E70124092C0BDCA923E6
:103C10000D4D03FB045531462846FCF7E1FA002818
:103C2000D7D00134F1E7114B0A4A4FF4C871384636
:103C30000FF068FEC9E70E4B064A4FF4C8713846CC
:103C40000FF060FE3EE600BFA0210020D45803081C
:103C5000E4690308605E0308286A03089C6A030895
:103C6000E4680308386B0308A46A0308E46A0308DD
:103C7000786B030870B50E461446012201460A48C7
:103C80000EF0B1FB68B10546074B1B69A92204FB86
:103C900002F231460068984728460EF0BDFB01202D
:103CA00070BD0020FCE700BFA000002070B586B00A
:103CB00005460C4604AE154930460FF0ADFF002313
:103CC000009396E80C0094E8030010F0C7F9A0B147
:103CD000EB6F1868002302930D4B019301230093AF
:103CE0004FF4FA62002311F079F90A4B0A4AC8210D
:103CF00028460FF007FE06B070BD084B064A4FF489
:103D0000C87128460FF0FEFDF5E700BF1C5E0308F2
:103D1000E95D0108D86B0308605E0308145F0308BF
:103D200070B584B005460C4602AE144930460FF01B
:103D300073FF0023009396E80C0094E8030010F052
:103D40008DF998B10E4BDB690E490F48984728B1A1
:103D500021462846FFF7AAFF04B070BD0B4B0C4A62
:103D60004FF4FA7128460FF0CDFDF5E7094B084AEC
:103D70004FF4C87128460FF0C5FDEDE71C5E03083F
:103D8000A00000208C580308106C0308286C03085E
:103D9000605E0308145F030870B5A4B005460C46C6
:103DA00022AE1A4930460FF037FF0023009396E801
:103DB0000C0094E8030010F051F9F0B1802302AA3E
:103DC000134904F1100010F014FE124902A8FCF788
:103DD00007FA40B9104B0093104B114A2146284670
:103DE00012F092FB10E00B4B00930E4B0E4A4FF477
:103DF000C87128460FF086FD06E00C4B0A4A4FF4C6
:103E0000C87128460FF07EFD24B070BD1C5E03080B
:103E1000B8A203086C6C030890D003008058030814
:103E2000A00000207C6C0308605E0308145F030898
:103E300070B5C4B006460C4642AD204928460FF086
:103E4000EBFE0023009395E80C0094E8030010F0CB
:103E500005F950B37B2323AA194904F5007010F02B
:103E6000C8FD002819DD23AB164A802103A817F0EE
:103E7000DDFC154B5B6A03A8984730B1134B144A1D
:103E8000C82130460FF03EFD16E0124B104A4FF4A9
:103E9000FA7130460FF036FD0EE00F4B0C4A4FF42E
:103EA000C87130460FF02EFD06E00C4B084A4FF467
:103EB000C87130460FF026FD44B070BD1C5E03088B
:103EC000C86C0308D06C0308A0000020D86C03085D
:103ED000605E03080C6D0308486D0308145F030857
:103EE000F0B597B004460E4601214FF48060FFF70D
:103EF0007DF9054650B10122214628480EF073FA9B
:103F0000044640B168460EF07DFE10E006F0AEFAC1
:103F10004FF0FF3040E00EF07FFA284606F0A6FA98
:103F20006FF0010038E0294668460EF081FE1B4B19
:103F30001B694FF480622946206898470246002892
:103F4000F1D120460EF068FA01211020FFF74EF95A
:103F5000074628B1014668460EF0C1FE002412E073
:103F6000284606F083FA384606F080FA4FF0FF3014
:103F700012E061003B5D0A4AC1F1210106EB4400F9
:103F800017F054FC01340F2CF3DD284606F06EFACE
:103F9000384606F06BFA002017B0F0BDA0000020F4
:103FA000846D030870B584B005460C4602AE19490D
:103FB00030460FF031FE0023009396E80C0094E8A1
:103FC000030010F04BF8E8B101212120FFF70EF9B2
:103FD000044601461048FFF783FF58B900940F4B81
:103FE0000F4AC82128460FF08DFC204606F03EFA05
:103FF00004B070BD0B4B0A4A4FF4CA7128460FF04B
:1040000081FCF2E7084B064A4FF4C87128460FF0CE
:1040100079FCEDE768630308106C03088C6D0308F6
:10402000605E0308B06D0308F06D03080B2900D033
:104030007047F0B5AFB00546144600222146FEF7A2
:104040000FFF074608AEA74930460FF0E5FD0023F5
:10405000009396E80C0094E803000FF0FFFF20B1F6
:104060002846FEF7D3FD2FB0F0BD0AAE9E4930467C
:104070000FF0D2FD0023009396E80C0004F1080134
:1040800003C90FF0EBFF00B19FB10CAE974930466A
:104090000FF0C2FD0023009396E80C0004F1080124
:1040A00003C90FF0DBFF60B121462846FEF7B2FFDF
:1040B000D9E78F4B8F4A40F2931128460FF022FC2C
:1040C000D1E70EAE8C4930460FF0A6FD00230093D9
:1040D00096E80C0004F1080103C90FF0BFFF20B1FE
:1040E00021462846FEF710FEBDE710AE8349304654
:1040F0000FF092FD0023009396E80C0004F10801F4
:1041000003C90FF0ABFF18B12846FEF797FFAAE7E7
:1041100012AE7B4930460FF07FFD0023009396E8F6
:104120000C0004F1080103C90FF098FF20B12146EB
:104130002846FEF7A9FF96E714AE724930460FF005
:104140006BFD0023009396E80C0004F1080103C9FD
:104150000FF084FF20B121462846FFF755F882E78B
:1041600016AE694930460FF057FD0023009396E8DC
:104170000C0004F1080103C90FF070FF20B12146C3
:104180002846FFF779F96EE718AE604930460FF020
:1041900043FD0023009396E80C0004F1080103C9D5
:1041A0000FF05CFF28B1002221462846FFF7A2FA53
:1041B00059E71AAE564930460FF02EFD0023009302
:1041C00096E80C00E168A0680FF048FF28B10122D2
:1041D00021462846FFF78EFA45E71CAE4D4930468A
:1041E0000FF01AFD0023009396E80C00E168A06828
:1041F0000FF034FF20B121462846FFF7F3FA32E7EB
:104200001EAE454930460FF007FD0023009396E8A7
:104210000C00E168A0680FF021FF20B1214628467C
:10422000FFF744FD1FE720AE3C4930460FF0F4FC99
:104230000023009396E80C00E168A0680FF00EFFE1
:1042400020B121462846FFF7A7FD0CE722AE3449EE
:1042500030460FF0E1FC0023009396E80C00E16883
:10426000A0680FF0FBFE20B121462846FFF79AFE1A
:10427000F9E624AE2B4930460FF0CEFC0023009324
:1042800096E80C00E168A0680FF0E8FE20B1214636
:104290002846FFF745FDE6E626AE234930460FF0F7
:1042A000BBFC0023009396E80C00E168A0680FF0C7
:1042B000D5FE20B121462846FEF7B4FCD3E628AE51
:1042C0001A4930460FF0A8FC0023009396E80C0032
:1042D000E168A0680FF0C2FE50B321462846FEF701
:1042E000DDFCC0E6406E0308486E0308606E0308FC
:1042F000506E0308646303086C6E0308786E03084D
:10430000886E0308986E0308AC6E0308C06E03083D
:10431000D06E0308E46E0308F86E03080C6F030800
:10432000246F0308386F03085C6F0308786F030875
:104330002AAE1D4930460FF06FFC0023009396E82B
:104340000C00E168A0680FF089FE40B1174B0093A4
:10435000174B184A2146284612F0D6F883E62CAEB1
:10436000154930460FF058FC0023009396E80C00E6
:10437000E168A0680FF072FE20B121462846FFF7E1
:1043800057FD70E60023029303930493059306936D
:104390000793074B0293074B079302AA214628462F
:1043A00011F0CCFF5FE600BF946F030860E31600D6
:1043B00078580308A0000020B06F030808B50A224F
:1043C00002490348FFF756FC024808BDA02100201F
:1043D000D45803082D400108014B1860704700BFF6
:1043E0003C2800201A4B1B6803B1704730B585B0DC
:1043F00018490120FDF756FD174C402200212046A8
:1044000017F03EFF02AD154B196828460FF004FC6B
:1044100095E8030084E80300114B196828460FF063
:10442000FBFB04F1080395E8030083E803003C2349
:104430006385002300930B4B22460B4909680B4808
:10444000006814F021F9024B186005B030BD00BFC0
:1044500060280020CC6F030864280020B8280020C2
:10446000B4280020C1490108BC280020A828002049
:104470002DE9F04F85B08146884692462A4C00F1DE
:1044800008030093294B2A4A282120680EF03AFDA0
:1044900024682046FBF704FF0146204600F0E0FBBD
:1044A00000263BE008EBC60318F836401D79214F83
:1044B0002B4622468021386800F0F0FBDFF880B000
:1044C0002B4622464FF41671DBF8000000F096FCF4
:1044D000194D02AC396820460FF09EFB05F1180318
:1044E00094E8030083E80300DBF8001020460FF097
:1044F00093FB05F1200394E8030083E80300012403
:1045000085F8284085F82E402946484612F022FEBC
:104510003A680A492046FDF7C5FC26445645C1D3F2
:1045200005B0BDE8F08F00BF5C2800209959020853
:1045300048670308B028002064280020EC6F0308B7
:10454000AC28002070B584B000230193056886680C
:1045500026B3044615B3714B1B680022022103A841
:104560009847039BADF808301B0C8DF80A306C4956
:10457000284617F005FF002800F0BA8001AA694913
:1045800017F0DCFA012818D0674B1B68002B00F3EA
:10459000A58066490320FDF785FCB2E0624B1B68ED
:1045A000002B40F3AE80624B92226249012011F051
:1045B0006BFA61480FF052F9A3E05B4B1B68012BCB
:1045C00018DC2B46019A5D490120FDF76BFC019D2B
:1045D0006B1E022B1AD8E468022C2ED0032C4FD06D
:1045E000514B1B68002B6EDC324655490320FDF70A
:1045F00059FC86E04E4B9F224E49022011F044FAAE
:104600002A4601994F480FF029F9DAE7464B1B6813
:10461000002B06DC019B03224B491046FDF742FCB0
:104620006FE0434BA4224349012011F02DFA019A77
:10463000032145480FF012F9ECE7022243493046C6
:1046400017F053FE0028C9D105F10F036B44012276
:1046500003F8082C344B1B68934206DC2F4B1B6875
:104660000122022102A898474BE0314BAE2231498A
:10467000022011F009FA019935480FF0EFF8EDE743
:1046800003223449304617F030FE0028A8D105F146
:104690000F036B44002203F8082C234B1B68012BEB
:1046A00006DC1E4B1B680122022102A8984728E065
:1046B0001F4BB2221F49022011F0E6F9019926484A
:1046C0000FF0CCF8EDE71A4BB6221A49012011F091
:1046D000DBF931461A480FF0C1F885E7144BBB22CD
:1046E0001449012011F0D0F91C480FF0B7F850E739
:1046F0000D4B1B68002B06DC2A4619490320FDF7E9
:10470000D1FB04B070BD0A4BBF220A49012011F051
:10471000BBF9294612480FF0A1F8EDE74828002020
:1047200080700308887003082C010020DC710308E6
:1047300010700308307003085C700308C070030831
:104740006871030894700308E8700308387103085F
:104750003C7103085071030854710308A4710308E5
:104760001472030838B501FB00F4204605F0FCFD87
:10477000054618B12246002117F082FD284638BDB3
:104780002DE9F04387B007460C46584D2B680022B0
:10479000012104A898472B68002202210DF1130083
:1047A00098470322524904A817F0D6FC48B90322BF
:1047B00050490DF1130017F0CFFC10B9002C00F098
:1047C00091804B4B06AA12E90300186099800121E1
:1047D0004FF41670FFF7C6FF064601218020FFF751
:1047E000C1FF0546002238E002F101085FFA88F8AF
:1047F00002F118030DEB030212F8083C0093434644
:1048000001224FF41671304600F0ECFC43460122C1
:104810008021284600F026FDDFF8DC9002AC294616
:1048200020460FF0F9F909F1180394E8030083E832
:104830000300314620460FF0EFF909F1200394E818
:10484000030083E80300002389F8283089F82E301C
:104850004946384612F07EFC4246022AC4D900225C
:1048600038E002F101085FFA88F802F118030DEB55
:10487000030212F8053C0093434602224FF41671DE
:10488000304600F0AFFC434602228021284600F06B
:10489000E9FCDFF8649002AC294620460FF0BCF931
:1048A00009F1180394E8030083E803003146204629
:1048B0000FF0B2F909F1200394E8030083E8030044
:1048C000002389F8283089F82E304946384612F0FE
:1048D00041FC4246022AC4D9304605F0C7FD2846AD
:1048E00005F0C4FD07B0BDE8F08300BF48280020F4
:1048F00040280020432800206428002008B5054BEC
:10490000186810B1044B1B7803B908BD0021FFF7EC
:1049100037FFFAE7602800204C28002008B5054B37
:104920001B7803B908BD0121034B1868FFF728FF66
:10493000F8E700BF4C280020602800202DE9F04F48
:1049400083B081460D461646002400E00134B4428F
:104950002ED205EBC40855F83430022BF6D10121D4
:104960008020FFF7FFFE074698F8043002228021DE
:1049700000F060FCDFF844804FF0010B88F828B0AD
:10498000EA46394650460FF047F908F118039AE80D
:10499000030083E803004146484612F08DFB3A4687
:1049A00005495846FDF77EFA384605F05FFDCDE72C
:1049B00003B0BDE8F08F00BF4472030864280020F4
:1049C00070B5102931D00546112902D009293AD0F5
:1049D00070BD224B1B68022B1DDC21490120FDF715
:1049E00061FA204B1D60204B1B78002BF0D11F4E2D
:1049F000062231462846FFF73BFD1A4C012120686C
:104A0000FFF7BEFE062231462068FFF797FF164BE0
:104A100001221A70DCE7164BCD221649032011F053
:104A200033F815480EF01AFFD7E714461349012052
:104A3000FDF738FA2046FFF785FD0021094B18687D
:104A4000FFF79EFEC4E70E490120FDF72BFA002375
:104A5000044A1360044A1370BAE700BF2C01002017
:104A60008C720308602800204C280020C800002019
:104A7000607203083070030874720308A47203089C
:104A8000C8720308014B1868704700BF60280020F7
:104A90002DE9F04786B006460C4691461D46012199
:104AA0008020FFF75FFEDFF848A1CAF8000001216F
:104AB0002120FFF757FEDFF83C81C8F800000121F4
:104AC0002120FFF74FFE3B4F386001218020FFF788
:104AD00049FE394B186001214FF41670FFF742FE72
:104AE000364B186001212820FFF73CFE344B18603C
:104AF0000F9A344B1A60DAF800A04946504618F075
:104B0000C9FDD8F800902946484618F0C3FD0E9913
:104B1000386818F0BFFD4B4652462B490120FDF77F
:104B2000C1F92A4D2E602A4B1C600621204600F058
:104B300071F8284E04ACD8F8001020460FF06CF83D
:104B400094E8030086E80300396820460FF064F813
:104B500006F1080394E8030083E803003C2373850F
:104B6000002402941C4B01930323009342F2107221
:104B70000023286810F032FA184B18600294184B82
:104B800001930126009643F698220023286810F02E
:104B900025FA144B18600294134B019300964FF4BE
:104BA000FA720023286810F019FA104B186006B04A
:104BB000BDE8F087B4280020B0280020AC280020F1
:104BC0005C28002048280020E0720308A828002064
:104BD000A428002064280020E5430108582800206C
:104BE0001D49010854280020FD48010850280020D4
:104BF000BC280020B828002038B501FB00F420466E
:104C000005F0B2FB054618B12246002117F038FB2B
:104C1000284638BD70B506460D460F4B186808B1DA
:104C200005F024FC680001210844FFF7E5FF0A4B6A
:104C3000186008B100240BE04FF0FF300BE0064B8A
:104C40001868325D054900EB440016F057FF013447
:104C5000AC42F4D3002070BDC42800200C730308BC
:104C600038B505460C460C4B186808B105F0FEFB3C
:104C700001216018FFF7C0FF074B186040B12246C2
:104C8000294617F044FB044B1B680020185538BD1B
:104C90004FF0FF30FBE700BFC028002000B587B011
:104CA0004FF0000C80F800C0013A072A00F287801C
:104CB000DFE802F004162545356575550493414B30
:104CC0000393414B1B680293404B0193404B00936D
:104CD000404B414A16F0AAFD002007B05DF804FBE6
:104CE00004933E4B0393384A12680292374A01926A
:104CF0000093384B384A16F099FD0020EDE70493F5
:104D0000374B0393304B1B680293304B0193354B69
:104D10000093304B304A16F089FD0020DDE7049304
:104D2000314B0393284B1B680293284B01932D4B67
:104D30000093284B284A16F079FD0020CDE7049314
:104D40002A4B0393204B1B680293204B0193254B66
:104D50000093204B204A16F069FD0020BDE7049324
:104D6000234B0393184B1B680293184B01931D4B65
:104D70000093184B184A16F059FD0020ADE7049334
:104D80001C4B0393104B1B680293104B0193154B64
:104D90000093104B104A16F049FD00209DE7049344
:104DA000154B0393084B1B680293084B01930D4B63
:104DB0000093084B084A16F039FD00208DE74FF0AC
:104DC000FF308AE72C730308C428002034730308DB
:104DD0003C730308F8000020147303088070030874
:104DE0004C730308547303085C730308647303086B
:104DF0006C7303087C7303088C7303082DE9F04F70
:104E000099B017900D4617461C460A46002117F028
:104E100037FA7A1E072A00F2BA81DFE812F008009A
:104E20004300A100EA00C5006E0193014901012180
:104E30008020FFF7E1FE07460094804B804A8021E6
:104E400016F0F4FC7F4B1A687F4B1B6814937F4B62
:104E500013937F4B12937F4B11937F4B10937F4B98
:104E60000F930E927E4B0D937E490C910B947E49CD
:104E70000A910992089307977C480690059404913B
:104E80000394029101920093794B7A4A294617982C
:104E900016F0CCFC0446384605F0E8FAE0B219B04A
:104EA000BDE8F08F01218020FFF7A6FE0746012113
:104EB0008020FFF7A1FE8046DFF8F09100944B467A
:104EC0006D4A8021384616F0B1FCDFF894A1654E9A
:104ED00002960197DFF86CB1DBF80030009353467F
:104EE000664A8021404616F0A1FC0094644B544A67
:104EF0008021384616F09AFCDBF80030524A1268DE
:104F00001492524A1392524A1292524A1192524A9F
:104F10001092524A0F920E93CDF834A00C960B9437
:104F2000CDF828900993CDF820A00797CDF81880E8
:104F30000594CDF810900394CDF808900193CDF826
:104F400000A04B464B4A2946179816F06FFC0446C2
:104F5000384605F08BFA404605F088FAE0B29EE745
:104F6000384B19683E4B474A37480068109037481D
:104F70000F9037480E9037480D9037480C903748BF
:104F80000B900A9109934048089007920691059367
:104F90003E4804903E48039002923E4801900091A2
:104FA0003449179816F0AAFD264B19682C4B3A4A3B
:104FB00025480068109025480F9025480E902548F8
:104FC0000D9025480C9025480B900A910993334881
:104FD0000890079206910593314804902348039066
:104FE00002922C48019000912249179816F086FDF4
:104FF000DAE7144B19681A4B1D4A134800681090E1
:1050000012480F9012480E9012480D9012480C90C2
:1050100012480B900A910993224808900792069132
:105020000593214804901148039002921948019079
:1050300000911049179816F061FDB5E794730308C5
:10504000A0730308C4280020C0280020A873030808
:10505000AC730308B0730308C0730308D473030868
:1050600034730308646303082C7303080898030867
:105070006473030838750308E073030810750308A8
:10508000E87303084C730308FC73030800740308F7
:1050900010740308347403085C7303083C74030839
:1050A00040740308507403085474030880700308A4
:1050B000384B1968384B394A3948006810903948DC
:1050C0000F9039480E9039480D9039480C90394866
:1050D0000B900A910993384808900792069105931E
:1050E0003648049036480390029236480190009169
:1050F0003549179816F002FD56E7264B1968264BDE
:10510000324A27480068109026480F9026480E9093
:1051100026480D9026480C9026480B900A9109933A
:105120002B4808900792069105932A48049024483A
:10513000039002922348019000912349179816F09A
:10514000DDFC31E7134B1968134B234A1448006800
:10515000109014480F9014480E9014480D90144865
:105160000C9014480B900A9109931C4808900792E0
:10517000069105931A480490114803900292114831
:10518000019000911049179816F0B8FC0CE74FF009
:10519000FF3084E6C4280020347303086C730308CE
:1051A000C0280020A8730308AC730308B073030879
:1051B000C0730308D4730308787403087C7403086D
:1051C0000898030834740308387503087C730308CF
:1051D0009C740308A07403088C730308CC74030840
:1051E000D074030830B583B01C469DF81850012ACE
:1051F0000BD0022A0BD10A4B5DB10A4A01920094EE
:10520000094A16F013FB03B030BD084BF4E7002346
:10521000F2E7074A01920094034A16F007FBF2E70F
:105220008070030838710308007503082C730308A5
:105230005071030800B585B00293064B0193064BED
:105240001B680093054B064A16F0F0FA05B05DF8AE
:1052500004FB00BF80700308C428002034730308D7
:10526000DC74030800B585B04FF0000C80F800C076
:10527000012A06D0022A0FD04FF0FF3005B05DF8AA
:1052800004FB02930A4B01930A4B1B6800930A4BE1
:105290000A4A16F0CBFAF1E70293094B0193054B4A
:1052A0001B680093044B054A16F0C0FAE6E700BFFE
:1052B0002C730308C428002034730308EC7403081B
:1052C0008070030808B5084B1B682BB1064B1868A3
:1052D00008B114F0E9F808BD044A194614F0B6F90B
:1052E000014B1860F2E700BFC8280020F152010806
:1052F00070B5122902D0092946D070BD144626493E
:105300000120FCF7CFFD14F00BF806460D46234BA9
:105310001B68012B20DC32462B4621490120FCF77B
:10532000C1FD2568646810F0AAFB281A4FF47A7250
:105330004FF0000364EB0101FBF70EFD194BC3E9CD
:105340000001164B1B68012B12DC2A462346164926
:105350000120FCF7A7FDD0E7144B1B2214490220C3
:1053600010F092FB32462B460D480EF077FAD2E74A
:105370000E4B21220E49022010F086FB2A462346BE
:105380000C480EF06BFAE0E70B490120FCF78AFDB0
:105390000A4B00221A60B0E7B87603082C010020FF
:1053A000FC760308D028002054770308B077030860
:1053B000DC7603083077030878770308C8280020D4
:1053C00030B585B004460D490120FCF76BFD029411
:1053D0000B4D01950023009344F6206200232046E4
:1053E0000FF0FCFD0294019501230093054A002370
:1053F00020460FF0F3FD05B030BD00BF94770308E1
:10540000C5520108C07A100038B501FB00F42046EF
:1054100004F0AAFF054618B12246002116F030FF1D
:10542000284638BD70B588B005460C46174900209F
:10543000FCF738FD06AE164930460EF0EDFB0023B2
:10544000009396E80C0094E803000EF007FEA8B164
:10545000104B1B680593104B1B6804930F4B039371
:105460000F4B02930F4B01930F4B00930F4B104ABE
:10547000C82128460EF046FA08B070BD0D4B0C4A04
:105480004FF4C87128460EF03DFAF5E7B4770308EB
:1054900068630308E4280020EC280020A8730308B0
:1054A000C0730308B0730308D4730308BC7A0308FD
:1054B000646303080868030810B504460549002022
:1054C000FCF7F0FC044B054A4FF4CA7120460EF07D
:1054D00019FA10BDD4770308EC7703086463030856
:1054E0000B2900D0704770B586B0054614461749A1
:1054F0000020FCF7D7FC02AE154930460EF08CFBBD
:105500000023009396E80C0004F1080103C90EF093
:10551000A5FD28B121462846FFF784FF06B070BDDF
:1055200004AE0C4930460EF077FB0023009396E85A
:105530000C0004F1080103C90EF090FD0028EDD025
:1055400021462846FFF7B8FFE8E700BF18780308B0
:10555000407803085878030810B584B0024608461E
:10556000140E8DF80F40110C8DF80E10130A8DF8E3
:105570000D308DF80C200194C9B20091DBB2D2B28B
:10558000024916F0BBFA04B010BD00BF5C780308F6
:1055900070B584B006461E490020FCF783FC1D4B05
:1055A0001868FAF77DFE0446012100F23910FFF772
:1055B0002BFF194A106030B3184B1B68184D29682F
:1055C0009868FFF7C9FF134B1B680293154B0193B3
:1055D0002B680093144B154A04F59C710E48006823
:1055E00016F024F94EB10C4B1C682046FAF758FE11
:1055F00002462146304611F0FBFA074B186804F0CA
:1056000035FF04B070BD0A490320FCF74BFCF8E7F6
:1056100068780308EC280020E8280020DC28002017
:10562000E4280020B8780308B0780308C479030898
:1056300080780308072900D0704770B588B0044609
:105640001A490020FCF72EFC194B1B6802AD1A6C9E
:10565000996B28460EF0ECFA04AE164930460EF06F
:10566000DBFA0023009396E80C0095E803000EF0A7
:10567000F5FC18B90023236408B070BD06AD0E49CF
:1056800028460EF0C9FA0023009395E80C0002A901
:1056900003C90EF0E3FC0028ECD008490020FCF719
:1056A00001FC034B1868FFF773FFE3E7C0780308BA
:1056B000D8280020F478030800790308107903083B
:1056C00010B50C490020FCF7EDFB00231A460A49EF
:1056D0000A48006812F060FF30B10446FFF758FF37
:1056E000204611F043F910BD05490320FCF7DAFB11
:1056F000F9E700BF40790308607C0308E028002038
:105700005879030870B506460D4610490020FCF78D
:10571000C9FBD6B1CDB10E4B186808B104F0A6FE96
:10572000680001210844FFF76FFE094B186060B163
:10573000002408E0064B1868325D064900EB44007F
:1057400016F0DCF90134A542F4D870BD8079030865
:10575000EC2800200C73030830B585B0184B186096
:10576000184B196001212820FFF74EFE164B1860D8
:1057700018B3144D06212868FFF7C4FF1349012010
:10578000FCF790FB0E4C00230293114B0193032373
:1057900000934EF66022002320680FF01FFC2B6858
:1057A0000C4A0D49206811F0BBF92B680B4A0C49D3
:1057B000206811F031F90B4B186005B030BD00BF07
:1057C000E0280020DC280020E42800209479030849
:1057D000C1560108E1540108AC79030835560108A7
:1057E000607C0308D82800207047000008B5024BF1
:1057F0005B68984708BD00BF3029002010B458B13D
:1058000004460948C46059B10748016106494A6025
:105810008B605DF8044B70470348044CC460F2E7AA
:10582000014902480861F1E730290020E9570108E1
:1058300008B5024BDB68984708BD00BF302900203F
:1058400008B5024B1B69984708BD00BF30290020EE
:1058500000B583B0054B5B6801210DF10700984747
:105860009DF8070003B05DF804FB00BF302900205D
:1058700008B5024B9B68984708BD00BF302900203F
:1058800008B5FFF7D5FF6620FFF7F2FF9920FFF775
:10589000EFFFFFF7D5FF08BD08B5642000F016FA4A
:1058A000FFF7EEFF642000F011FA642000F00EFA1A
:1058B00008BD70B506460C461546FFF7B9FF102D1A
:1058C00017D90B20FFF7D4FFC4F30740FFF7D0FF31
:1058D000C4F30720FFF7CCFFE0B2FFF7C9FF0020B9
:1058E000FFF7C6FF29463046FFF780FFFFF7A8FF06
:1058F00070BD0320FFF7BCFFC4F30740FFF7B8FFFC
:10590000C4F30720FFF7B4FFE0B2FFF7B1FF04E0F4
:10591000FFF79EFF06F8010B25466B1E9CB2002D7B
:10592000F6D1E3E770B5FFF783FFFFF789FFFFF7D5
:105930007FFFFFF785FFFFF77BFF9F20FFF798FFB3
:10594000FFF786FF0646FFF783FF0446FFF780FF59
:105950000546FFF775FF240244EA064444EA0500C1
:1059600070BD000038B50546FFF796FFFFF7DAFF78
:10597000524B984200F08580C0F09C80504B98427A
:1059800000F29880033B9842C0F094804D4B034452
:10599000032B00F28F80DFE803F0022B445D4A4CBA
:1059A0004A4B23600123A380E3804FF4805323817B
:1059B0004FF4807363814FF40073A3813122444913
:1059C00004F10E0016F0A3FC002384F83F30AC462F
:1059D0003D4C0FCCACE80F000FCCACE80F000FCC67
:1059E000ACE80F0094E80F008CE80F00284638BDA3
:1059F000354C384B23600123A380E3804FF4805360
:105A000023814FF4807363814FF48063A38131223B
:105A1000314904F10E0016F07AFC002384F83F307F
:105A2000D5E7294C2D4B23600123A380E3804FF45D
:105A3000805323814FF4807363814FF40063A3810B
:105A40003122274904F10E0016F061FC002384F88E
:105A50003F30BCE71C4C1A4B23600123A380E3803A
:105A60004FF4805323814FF480726281A3813122ED
:105A70001C4904F10E0016F04AFC002384F83F3064
:105A8000A5E7114C0D4B23600123A380E3804FF465
:105A9000805323814FF4807363814FF48063A3812B
:105AA0003122114904F10E0016F031FC002384F874
:105AB0003F308CE7044B00221A6088E71620C200B2
:105AC0001840EF00EBBF10FFF02800201540EF005A
:105AD0007C7C03081640EF00847C03081740EF002D
