:020000040801F1
:1000000000000220112701082526010827260108E3
:10001000292601082B2601082D26010800000000D2
:1000200000000000000000000000000031AC0108EA
:100030002F26010800000000D1AC0108918A0108B8
:10004000612701086127010861270108612701086C
:10005000612701086127010861270108612701085C
:10006000612701086127010861270108612701084C
:10007000612701086127010861270108612701083C
:1000800061270108612701086127010800000000BD
:1000900000000000000000000000000061270108CF
:1000A000312601086127010861270108612701083D
:1000B00061270108612701086127010861270108FC
:1000C00061270108612701086127010861270108EC
:1000D000612701086127010861270108000000006D
:1000E000612701086127010861270108000000005D
:1000F000000000000000000000000000612701086F
:10010000000000006127010861270108612701083C
:1001100000000000000000000000000000000000DF
:10012000612701086127010861270108612701088B
:10013000612701080000000000000000000000002E
:10014000000000000000000000000000612701081E
:10015000612701086127010861270108612701085B
:10016000612701086127010800000000000000006D
:10017000000000000000000000000000000000007F
:1001800000000000612701080000000000000000DE
:08019000612701086127010845
:1001A00010B5054C237833B9044B13B10448AFF3B1
:1001B00000800123237010BD7008002000000000A3
:1001C0005C63030808B5034B1BB103490348AFF355
:1001D000008008BD00000000740800205C63030874
:1001E00010F8012B11F8013B012A28BF9A42F7D0E1
:1001F000D01A70470000000000000000000000005E
:1002000001F0FF01102A2BDB10F0070F08D010F8C7
:10021000013B013A8B422DD010F0070F42B3F6D1CB
:10022000F0B441EA012141EA014122F007047FF0E4
:1002300000070023F0E80256083C85EA010586EA3B
:10024000010685FA47F5A3FA87F586FA47F6A5FA77
:1002500087F68EB9EED1F0BC01F0FF0102F0070283
:1002600032B110F8013B013A83EA010313B1F8D12E
:100270000020704701387047002D06BF354603380F
:10028000073815F0010F07D1013015F4807F02BF48
:10029000013015F4C03F0130F0BC0138704700BF99
:1002A000034613F8012B002AFBD1181A01387047B6
:1002B00081F0004102E000BF83F0004330B54FEA17
:1002C00041044FEA430594EA050F08BF90EA020F84
:1002D0001FBF54EA000C55EA020C7FEA645C7FEA17
:1002E000655C00F0E2804FEA5454D4EB5555B8BF3A
:1002F0006D420CDD2C4480EA020281EA030382EAAB
:10030000000083EA010180EA020281EA0303362D3C
:1003100088BF30BD11F0004F4FEA01314FF4801C0F
:100320004CEA113102D0404261EB410113F0004F21
:100330004FEA03334CEA133302D0524263EB4303D8
:1003400094EA050F00F0A780A4F10104D5F1200E76
:100350000DDB02FA0EFC22FA05F2801841F10001D1
:1003600003FA0EF2801843FA05F359410EE0A5F1A5
:1003700020050EF1200E012A03FA0EFC28BF4CF0D6
:10038000020C43FA05F3C01851EBE37101F000458C
:1003900007D54FF0000EDCF1000C7EEB00006EEB99
:1003A0000101B1F5801F1BD3B1F5001F0CD3490823
:1003B0005FEA30004FEA3C0C04F101044FEA44527A
:1003C00012F5800F80F09A80BCF1004F08BF5FEA01
:1003D000500C50F1000041EB045141EA050130BDE1
:1003E0005FEA4C0C404141EB0101013C28BFB1F5F3
:1003F000801FE9D291F0000F04BF01460020B1FA3E
:1004000081F308BF2033A3F10B03B3F120020CDA10
:100410000C3208DD02F1140CC2F10C0201FA0CF0EE
:1004200021FA02F10CE002F11402D8BFC2F1200C53
:1004300001FA02F120FA0CFCDCBF41EA0C01904009
:10044000E41AA2BF01EB0451294330BD6FEA040452
:100450001F3C1CDA0C340EDC04F11404C4F120023D
:1004600020FA04F001FA02F340EA030021FA04F34F
:1004700045EA030130BDC4F10C04C4F1200220FAA6
:1004800002F001FA04F340EA0300294630BD21FAE4
:1004900004F0294630BD94F0000F83F4801306BFAA
:1004A00081F480110134013D4EE77FEA645C18BF9E
:1004B0007FEA655C29D094EA050F08BF90EA020F35
:1004C00005D054EA000C04BF1946104630BD91EA2D
:1004D000030F1EBF0021002030BD5FEA545C05D130
:1004E0004000494128BF41F0004130BD14F580046F
:1004F0003CBF01F5801130BD01F0004545F0FE41E3
:1005000041F470014FF0000030BD7FEA645C1ABF17
:10051000194610467FEA655C1CBF0B46024650EA4E
:10052000013406BF52EA033591EA030F41F400217A
:1005300030BD00BF90F0000F04BF0021704730B500
:100540004FF4806404F132044FF000054FF00001D5
:1005500050E700BF90F0000F04BF0021704730B596
:100560004FF4806404F1320410F0004548BF40426B
:100570004FF000013EE700BF42004FEAE2014FEAC0
:1005800031014FEA02701FBF12F07F4393F07F4F9B
:1005900081F06051704732F07F4208BF704793F09E
:1005A0007F4F04BF41F40021704730B54FF46074B1
:1005B00001F0004521F000411CE700BF50EA0102B4
:1005C00008BF704730B54FF000050AE050EA01025D
:1005D00008BF704730B511F0004502D5404261EBCD
:1005E00041014FF4806404F132045FEA915C3FF40E
:1005F000D8AE4FF003025FEADC0C18BF03325FEAAB
:10060000DC0C18BF033202EBDC02C2F1200300FA5B
:1006100003FC20FA02F001FA03FE40EA0E0021FA80
:1006200002F11444BDE600BF70B54FF0FF0C4CF46E
:10063000E06C1CEA11541DBF1CEA135594EA0C0F20
:1006400095EA0C0F00F0DEF82C4481EA030621EA5B
:100650004C5123EA4C5350EA013518BF52EA033596
:1006600041F4801143F4801338D0A0FB02CE4FF048
:100670000005E1FB02E506F00042E0FB03E54FF078
:100680000006E1FB03569CF0000F18BF4EF0010E70
:10069000A4F1FF04B6F5007F64F5407404D25FEA6C
:1006A0004E0E6D4146EB060642EAC62141EA55511F
:1006B0004FEAC52040EA5E504FEACE2EB4F1FD0C61
:1006C00088BFBCF5E06F1ED8BEF1004F08BF5FEADF
:1006D000500E50F1000041EB045170BD06F0004691
:1006E00046EA010140EA020081EA0301B4EB5C043E
:1006F000C2BFD4EB0C0541EA045170BD41F4801136
:100700004FF0000E013C00F3AB8014F1360FDEBF5A
:10071000002001F0004170BDC4F10004203C35DA36
:100720000C341BDC04F11404C4F1200500FA05F3B9
:1007300020FA04F001FA05F240EA020001F000425A
:1007400021F0004110EBD37021FA04F642EB0601D0
:100750005EEA430E08BF20EAD37070BDC4F10C04FA
:10076000C4F1200500FA04F320FA05F001FA04F2BE
:1007700040EA020001F0004110EBD37041F10001AA
:100780005EEA430E08BF20EAD37070BDC4F12005B5
:1007900000FA05F24EEA020E20FA04F301FA05F21D
:1007A00043EA020321FA04F001F0004121FA04F2C5
:1007B00020EA020000EBD3705EEA430E08BF20EA95
:1007C000D37070BD94F0000F0FD101F000464000CF
:1007D00041EB010111F4801F08BF013CF7D041EA51
:1007E000060195F0000F18BF704703F00046520055
:1007F00043EB030313F4801F08BF013DF7D043EA26
:100800000603704794EA0C0F0CEA135518BF95EADB
:100810000C0F0CD050EA410618BF52EA4306D1D162
:1008200081EA030101F000414FF0000070BD50EA81
:10083000410606BF1046194652EA430619D094EA0B
:100840000C0F02D150EA013613D195EA0C0F05D1F5
:1008500052EA03361CBF104619460AD181EA030149
:1008600001F0004141F0FE4141F470014FF0000001
:1008700070BD41F0FE4141F4780170BD70B54FF09C
:10088000FF0C4CF4E06C1CEA11541DBF1CEA13551C
:1008900094EA0C0F95EA0C0F00F0A7F8A4EB0504FE
:1008A00081EA030E52EA03354FEA013100F08880F5
:1008B0004FEA03334FF0805545EA131343EA1263BE
:1008C0004FEA022245EA111545EA10654FEA002673
:1008D0000EF000419D4208BF964244F1FD0404F52C
:1008E000407402D25B084FEA3202B61A65EB030588
:1008F0005B084FEA32024FF480104FF4002CB6EB45
:10090000020E75EB030E22BFB61A754640EA0C00C4
:100910005B084FEA3202B6EB020E75EB030E22BF04
:10092000B61A754640EA5C005B084FEA3202B6EB45
:10093000020E75EB030E22BFB61A754640EA9C0004
:100940005B084FEA3202B6EB020E75EB030E22BFD4
:10095000B61A754640EADC0055EA060E18D04FEA92
:10096000051545EA16754FEA06164FEAC30343EA32
:1009700052734FEAC2025FEA1C1CC0D111F4801FFF
:100980000BD141EA00014FF000004FF0004CB6E7F8
:1009900011F4801F04BF01430020B4F1FD0C88BF97
:1009A000BCF5E06F3FF6AFAEB5EB030C04BFB6EBA2
:1009B000020C5FEA500C50F1000041EB045170BD95
:1009C0000EF0004E4EEA113114EB5C04C2BFD4EBC2
:1009D0000C0541EA045170BD41F480114FF0000E46
:1009E000013C90E645EA060E8DE60CEA135594EAC2
:1009F0000C0F08BF95EA0C0F3FF43BAF94EA0C0FC5
:100A00000AD150EA01347FF434AF95EA0C0F7FF439
:100A100025AF104619462CE795EA0C0F06D152EA8D
:100A200003353FF4FDAE1046194622E750EA410671
:100A300018BF52EA43067FF4C5AE50EA41047FF482
:100A40000DAF52EA43057FF4EBAE12E74FF0FF3CE7
:100A500006E000BF4FF0010C02E000BF4FF0010CB8
:100A60004DF804CD4FEA410C7FEA6C5C4FEA430C31
:100A700018BF7FEA6C5C1BD001B050EA410C0CBF80
:100A800052EA430C91EA030F02BF90EA020F0020E2
:100A9000704710F1000F91EA030F58BF994208BF49
:100AA00090422CBFD8176FEAE37040F00100704706
:100AB0004FEA410C7FEA6C5C02D150EA013C07D15D
:100AC0004FEA430C7FEA6C5CD6D152EA033CD3D0A8
:100AD0005DF8040B704700BF8446104662468C46A2
:100AE0001946634600E000BF01B5FFF7B7FF0028D5
:100AF00048BF10F1000F01BD4DF808EDFFF7F4FFFE
:100B00000CBF012000205DF808FB00BF4DF808ED88
:100B1000FFF7EAFF34BF012000205DF808FB00BFAB
:100B20004DF808EDFFF7E0FF94BF012000205DF8CD
:100B300008FB00BF4DF808EDFFF7CEFF94BF012082
:100B400000205DF808FB00BF4DF808EDFFF7C4FF7B
:100B500034BF012000205DF808FB00BF4FEA410CC4
:100B60007FEA6C5C02D150EA013C0AD14FEA430CA7
:100B70007FEA6C5C02D152EA033C02D14FF00000E4
:100B800070474FF0010070474FEA410212F5001222
:100B900015D211D56FF47873B3EB625212D94FEAC4
:100BA000C12343F0004343EA505311F0004F23FAAE
:100BB00002F018BF404270474FF00000704750EA03
:100BC000013005D111F0004008BF6FF000407047C0
:100BD0004FF00000704700BF4A0011D212F500121A
:100BE00011D20DD56FF47873B3EB62520ED44FEA85
:100BF000C12343F0004343EA505323FA02F0704705
:100C00004FF00000704750EA013002D14FF0FF3042
:100C100070474FF0000070474FEA4102B2F1E043E5
:100C200024BFB3F5001CDCF1FE5C0DD901F0004CD3
:100C30004FEAC0024CEA5070B2F1004F40EB830023
:100C400008BF20F00100704711F0804F21D113F14F
:100C50003872BCBF01F00040704741F480114FEA88
:100C60005252C2F11802C2F1200C10FA0CF320FA11
:100C700002F018BF40F001004FEAC1234FEAD3232E
:100C800003FA0CFC40EA0C0023FA02F34FEA430398
:100C9000CCE77FEA625307D150EA01331EBF4FF021
:100CA000FE4040F44000704701F0004040F0FE403C
:100CB00040F40000704700BF7BB972B90029BEBF85
:100CC00000204FF0004106E008BF00281CBF6FF075
:100CD00000414FF0FF3000F0FFB9ADF1080C6DE9B5
:100CE00004CE002909DB002B1ADB00F097F8DDF8B1
:100CF00004E0DDE9022304B07047404261EB4101AA
:100D0000002B1BDB00F08AF8DDF804E0DDE90223AC
:100D100004B0404261EB4101524263EB4303704730
:100D2000524263EB430300F079F8DDF804E0DDE9BB
:100D3000022304B0404261EB41017047524263EB31
:100D4000430300F06BF8DDF804E0DDE9022304B0B2
:100D5000524263EB4303704753B94AB9002908BFB5
:100D600000281CBF4FF0FF314FF0FF3000F0B4B946
:100D7000ADF1080C6DE904CE00F050F8DDF804E0A8
:100D8000DDE9022304B07047430803F05533C01A6D
:100D9000830803F0333300F03330184400EB1010B5
:100DA00000F00F3000EB002000EB0040000E704719
:100DB00038B50022002304460D46FFF7A7FE28B9E8
:100DC00020462946BDE8384000F00AB8204605F123
:100DD000004100F005F8404261EB410138BD00BF21
:100DE000D0B50C4B002206460F46FFF71DFCFFF75F
:100DF000F3FE0446FFF79EFB074B0022FFF714FCAF
:100E000002460B4630463946FFF756FAFFF7E4FE36
:100E10002146D0BD0000F03D0000F0412DE9F04733
:100E2000089D0C46002B4ED194468C458646B2FA5E
:100E300082F262D94AB1C2F12003914020FA03F351
:100E40000CFA02FC194300FA02FE4FEA1C471FFA93
:100E50008CF6B1FBF7F44FEA1E4307FB141143EA8B
:100E6000014304FB06F199420AD91CEB030304F188
:100E7000FF3080F01281994240F20F81023C6344BE
:100E8000591A1FFA8EF3B1FBF7F007FB101143EA72
:100E9000014300FB06F69E420AD91CEB030300F156
:100EA000FF3180F0FC809E4240F2F98063440238BA
:100EB0009B1B40EA044000211DB1D3400022C5E93C
:100EC0000032BDE8F0878B4205D90DB1C5E90001BC
:100ED00000210846F5E7B3FA83F1002946D1A34281
:100EE00002D39042C0F0F080861A64EB0303012025
:100EF000002DE6D0C5E90063E3E7002A40F09080CA
:100F0000A1EB0C044FEA1C481FFA8CF70121B4FB3B
:100F1000F8F64FEA1E4308FB164443EA044307FB76
:100F200006F0984208D91CEB030306F1FF3402D205
:100F3000984200F2CD8026461C1A1FFA8EF3B4FBAD
:100F4000F8F008FB104443EA044300FB07F79F4214
:100F500008D91CEB030300F1FF3402D29F4200F2D8
:100F6000B0802046DB1B40EA0640A5E7C1F1200621
:100F70008B4022FA06F71F4320FA06FC04FA01F31D
:100F800043EA0C03F44000FA01F8380C4FEA134925
:100F9000B4FBF0FE1FFA87FC00FB1E4449EA044440
:100FA0000EFB0CF9A14502FA01F20AD93C190EF127
:100FB000FF3A80F08480A14540F28180AEF1020EBC
:100FC0003C44A4EB09041FFA83F9B4FBF0F300FBE3
:100FD000134449EA044403FB0CFCA44507D93C191B
:100FE00003F1FF3067D2A44565D9023B3C4443EA94
:100FF0000E40A0FB0293A4EB0C049C42CE469C4600
:1010000051D34ED055B1B8EB0E0364EB0C0404FA87
:1010100006F6CB401E43CC40C5E90064002150E7F2
:10102000C2F1200320FA03F10CFA02FC24FA03F3C4
:1010300094400C434FEA1C4800FA02FE1FFA8CF75A
:10104000B3FBF8F008FB1031230C43EA014300FB2B
:1010500007F1994208D91CEB030300F1FF362CD2AB
:1010600099422AD9023863445B1AA4B2B3FBF8F15F
:1010700008FB113344EA034401FB07F3A34208D9F8
:101080001CEB040401F1FF3613D2A34211D902393B
:101090006444E41A41EA004139E70446F0E60846B0
:1010A00006E7C845AED2B9EB020E63EB070C013878
:1010B000A8E73146EDE7034699E73046D4E7D64640
:1010C0007FE7634402384DE70646234608460FE7AC
:1010D000023E634430E700BF704700BF00B585B0F3
:1010E000002300930193029303931548154A02606D
:1010F0004FF44032426083600361037680F8203011
:10110000C362114A8262C3600122C26180F830303A
:10111000426105F0E7FA68B91223009301230193B5
:10112000002302936946064805F008FB28B905B07C
:101130005DF804FB01F0E2F8EEE701F0DFF8F6E716
:101140008C080020002001400100000F0268094BBC
:101150009A4200D0704782B000230193064B5A6C2C
:1011600042F480725A645B6C03F480730193019BB8
:1011700002B07047002001400038024008B500224C
:101180004FF48051014805F0A0FD08BD0004024065
:1011900008B501224FF48051014805F096FD08BDC5
:1011A0000004024008B500224FF40041014805F058
:1011B0008CFD08BD0000024008B501224FF400413B
:1011C000014805F082FD08BD0000024010B58EB058
:1011D0004A4B93E803000C90ADF834100DF1240C49
:1011E00003F1080494E807008CE80700143393E83F
:1011F00003000790ADF8201004AB94E8070083E8E3
:10120000070072E000231A4601A93D48006807F074
:1012100012FE00240EE000220EAB03EB440333F871
:10122000081C0EAB03EB840353F8140C05F04DFDC2
:101230000134E4B2022C5ED804F138036B4413F895
:10124000343C002BE7D001220EAB03EB440333F810
:10125000081C0EAB03EB840353F8140C05F035FDAA
:10126000E6E70EAB03EB440203EB840332F8081C01
:1012700053F8140C05F022FD04F138036B4403F815
:10128000300C0134E4B2022CEBD91E4C206807F07C
:1012900020FE00231A4602A9206807F08AFD0024D8
:1012A00014E00EAB03EB440203EB840332F81C1C86
:1012B00053F8280C05F002FDB0FA80F0400904F163
:1012C00038036B4403F82C0C0134E4B2022CE8D947
:1012D0000D4C206807F0FDFD00231A4603A9206885
:1012E00007F067FD012007F06CFC054B186807F05C
:1012F000E3FD002886D10024C5E700BF786303081A
:10130000EC080020F0080020F408002084B008B5A4
:101310000DF1080C8CE80F0000231A4661460448C2
:10132000006807F046FDBDE8084004B0704700BF04
:10133000E408002070B5BAB0002339937D4B7E4A93
:101340007E497F4804F0B0FE7E497F480AF072F87B
:1013500000283BDB7D480AF057F87D4C20460AF018
:1013600047F87C480AF044F820460AF04DF87A48DD
:101370000AF04AF879480AF047F879480AF044F840
:1013800078480AF041F8002239A9774809F084FF2B
:1013900030B30121744809F0BDFF0446C62207A9F5
:1013A00009F0E8FF204609F0D9FF00228DF81C2043
:1013B000022307A96D48006807F062FF002239A9DF
:1013C0006B4809F069FFC0B1002489E0694B012234
:1013D0001A7040F6B83007F0F4FB05F0FFFAB9E7F1
:1013E000C622002107A81BF03BFE0223002207A90A
:1013F0005E48006807F044FFE0E740F29A6009F0B9
:10140000E3FD044690B35C49012000F0CDFE5B4B48
:10141000186820609B88A38001AD594E0FCE0FC580
:1014200096E8030045F8040B297001AD0FCDC4F810
:101430008000C4F88410C4F88820C4F88C30286870
:10144000C4F890002B7984F894300221484809F0C0
:1014500061FF054640F29A62214609F097FF28464F
:1014600009F07CFF204609F031FEADE74549032035
:1014700000F09AFEF6E73C4D284609F0B9FF02213C
:10148000284609F047FF0546002833D0C62207A9A1
:1014900009F07CFF284609F061FF00228DF81C202E
:1014A000022307A93148006807F0EAFE22E0012084
:1014B00007F087FB4FF48071334805F0FFFB0028ED
:1014C000F5D04FF47A7007F07CFB294809F090FFC3
:1014D00005F084FA00E000244FF47A7007F071FB05
:1014E000002207A9214B186808F0DDF99DF81C308F
:1014F000002BC0D14FF48071234805F0DFFB00289A
:10150000E9D10134E4B2204D01220221284605F040
:10151000DCFB642007F055FB00220221284605F081
:10152000D4FB082CD8D101220221284605F0CDFB9E
:10153000C0E700BFD51A0108F91A0108B91101085E
:10154000A5110108251B0108111B0108F4650308FA
:10155000FC65030808660308186603082466030888
:10156000848103082C66030834660308E808002019
:10157000486603081009002084660308BC66030857
:10158000C4660308586603080004024008B5012930
:1015900014D002291AD001B108BD4AB1012AFBD1E9
:1015A0000223002201461248006807F069FEF3E7B3
:1015B00001460F4B186808F076F9EDE7002AEBD1E9
:1015C00001460C4B186808F06EF9E5E74AB1012AAC
:1015D000E2D10223002201460748006807F050FECE
:1015E000DAE70146054B186808F05DF9D4E700BF5B
:1015F000E8080020F4080020EC080020F008002093
:10160000F0B58BB04FF47A7007F0DBFA07F072F99F
:10161000642007F0D6FA0021012007F0CFF800205F
:1016200007F090F8A94B1C78002C48D1A84D012256
:101630002946A84807F016F901222946A64807F0CE
:1016400011F904F10B01C9B2012007F0B7F801222A
:101650002946A24807F006F904F11601C9B2012093
:1016600007F0ACF89E4B59680A784B788878CE78AA
:101670000F7949790391029701960090994905A83D
:101680001BF02CF90122294605A807F0EBF804F11C
:101690002101C9B2012007F091F809F0C7FE014607
:1016A00005A81CF0E7FE0122294605A807F0DAF894
:1016B00007F0CAF940F6B83007F083FACEE000210F
:1016C000012007F07BF8002007F03CF8804C012255
:1016D0002146854807F0C6F80A21012007F06EF878
:1016E00001222146814807F0BDF81421012007F0AE
:1016F00065F8012221467E4807F0B4F807F0A4F906
:1017000040F6B83008F0C8FD14248FE713F1050F38
:1017100008D12821012007F051F801226C497548B1
:1017200007F0A0F80021012007F048F8684C0122DA
:101730002146714807F096F8694B5B689A68130E6A
:101740000193C2F307430093C2F30723D2B26B495C
:1017500005A81BF0C3F80122214605A807F082F86E
:101760000B21012007F02AF801222146644807F0E6
:1017700079F80B213D2007F021F800253D241FE0DA
:101780002821012007F01AF8012251495D4807F08D
:1017900069F8C7E72821012007F010F801224C4919
:1017A000594807F05FF8BDE70122494905A807F04D
:1017B00059F80834E4B20B21204606F0FFFF354605
:1017C000022D0FDC6E1C3246504905A81BF086F82E
:1017D0004F4B5B5D002BE7D000223D4905A807F089
:1017E00041F8E6E71621012006F0E8FF012238491A
:1017F000484807F037F816213D2006F0DFFF0025A6
:101800003D240BE00122324905A807F02BF80834EB
:10181000E4B21621204606F0D1FF3546022D10DC39
:101820006E1C3246394905A81BF058F8384B2B443A
:10183000DB78002BE6D00022254905A807F012F836
:10184000E5E707F001F94FF47A7301227821324875
:1018500005F090FD50BBC82007F0B3F92C4C0022D6
:1018600001212046FFF792FE00220221E01CFFF733
:101870008DFE002006F066FF284B93F9003013F12F
:101880000C0F87D03FF742AF13F1540F3FF478AFFE
:1018900013F1180F7FF446AF2821012006F08EFFC8
:1018A00001220B491E4806F0DDFF3BE71A4805F010
:1018B0008BFC4FF47A7008F0EFFC00F0CDFB4FF496
:1018C0007A7008F0E9FC07F015F8BCE71009002071
:1018D0000C010020106703081C6703082867030831
:1018E0001409002034670308DC660308F066030867
:1018F000FC660308546703089067030894670308AD
:10190000A467030860670308806703089CBC03089A
:10191000D4080020AC6703081C090020110900202E
:101920007067030830B5D1B0484800F031FC0120A1
:1019300000F034FC4649012000F036FC03E04FF48F
:10194000FA7007F03EF909F06BFD0028F7D044F675
:10195000C83456E000231A4607A93E48006807F03D
:101960006AFA02213C4809F0D5FC05469DF81D2184
:101970000DF11D0109F00AFD384B1870284609F0D9
:10198000EDFC44E048A809F0DFFB4E9B04934D9B1F
:1019900003934C9B02934B9B01934A9B0093499B5F
:1019A000489A2F49012000F0FFFB2E4C63689A688B
:1019B000130E0193C2F307430093C2F30723D2B27D
:1019C0002949012000F0F0FB61680A784B7888789B
:1019D000CC780D79497903910295019400902349BF
:1019E000012000F0E1FB09F021FD02462049012021
:1019F00000F0DAFB1F4A2049012000F0D5FB00244B
:101A00000134144B186807F057FA0028A2D14FF49C
:101A1000FA7007F0D6F844F620639C42F0D1002219
:101A20004FA90D4809F038FC4F9A4CF250339A42B6
:101A3000A8D9124C204609F0DBFC2146064809F0E3
:101A4000CBFC0F49012000F0AFFB9BE70D13010811
:101A5000B8670308E4080020CC67030811090020D8
:101A6000006803081409002094680308B06803089C
:101A7000D8680308F4680308F8680308DC670308FB
:101A8000EC67030808B5064805F06AFD4FF4FA70E4
:101A900007F097F80121034805F01DF9F3E700BFAF
:101AA000700900200004024000B587B08DF80F10C7
:101AB0004FF0FF33009301230DF117020DF10F01D9
:101AC000034806F0DCFA9DF8170007B05DF804FB48
:101AD0008009002000B583B08DF807004FF0FF3378
:101AE00001220DF10701034806F0E7F903B05DF8A4
:101AF00004FB00BFD809002008B50A464FF0FF33A9
:101B00000146024806F0E5FB08BD00BFD8090020E9
:101B100008B54FF0FF31024B186807F0A9F808BD6F
:101B2000DC08002008B5024B186807F0D0F808BDA3
:101B3000DC08002008B52C4807F051F82B4B186042
:101B40002B4807F04CF82B4B18602B4A032101203F
:101B500007F0E4F8294B1860294A0321012007F017
:101B6000DDF8284B1860284A0321012007F0D6F839
:101B7000264B1860264AC621012007F0CFF8254BD6
:101B80001860254A4FF481710F2007F0C7F8234BE6
:101B90001860234A0021234806F0B4FF224B186046
:101BA000224A0021224806F0ADFF224B1860224A4B
:101BB0000021224806F0A6FF214B1860214A00218F
:101BC000214806F09FFF214B1860214A002121483F
:101BD00006F098FF204B1860204A0021204806F0AC
:101BE00091FF204B186008BDF8690308E008002049
:101BF000E8690308DC080020686A0308F40800208C
:101C0000506A0308F0080020386A0308EC08002036
:101C1000206A0308E8080020086A0308E408002096
:101C2000346B0308911C01080C090020106B030899
:101C3000CD11010808090020EC6A0308011601080B
:101C400004090020C86A03083513010800090020B0
:101C5000A46A030825190108FC080020806A03080B
:101C6000851A0108F808002008B500224FF4807199
:101C7000014805F02AF808BD0000024008B501221D
:101C80004FF48071014805F020F808BD00000240C3
:101C900030B5EBB022AD644B0FCB85E80F0002AC42
:101CA0008022002120461BF0DBF940238DF808300C
:101CB00022238DF809305D4B1A7C8DF80A209A7C1E
:101CC0008DF80B201A7D8DF80C201B7E8DF80D30C1
:101CD00001238DF827308DF82830554B0B930C9548
:101CE000544B58AA1A605C6003E04FF4FA7006F097
:101CF00068FF09F095FB0028F7D058A811F0A2FF63
:101D00004D4B03221A6002F071FF04460FE0FFF70B
:101D1000ABFF4FF4FA7006F054FFFFF7AFFF4FF43C
:101D2000FA6006F04EFF02A958A817F0BBFBBDF8F9
:101D30004C30002BEBD0062102A803F0C1FB3F483A
:101D400002F062FF3B4B22463D4958A815F0D8FDF2
:101D500006E0012158A818F03FF9012006F031FFF4
:101D60009DF88430032BF4D1324B5B689A68130ED4
:101D70000193C2F307430093C2F30723D2B2314960
:101D8000012000F011FA0022114626A8FFF7FEFB01
:101D90009DF89930EBB12C49012000F005FA274B52
:101DA00001930DF23D13009347AB0DF19A0202A986
:101DB00058A803F0C3FA58A803F058FF02A958A87E
:101DC00004F020F958A801F055F808F057F9054635
:101DD00008E01E49012000F0E7F9ECE7012006F0D9
:101DE000F0FE254608F04AF90446411B58A818F0B1
:101DF000F3F80B9BDB6802A898470028EED1FFF7A9
:101E000033FF642006F0DDFEFFF738FF40F6B83000
:101E100006F0D7FE0B9B1B6802A8984741F6583086
:101E200006F0CFFEE5E700BF94630308007AFF1FCA
:101E300018010020140900202C0100208D15010834
:101E40001069030894680308246903083C690308BF
:101E50000BB2002B20DD70B582B0064615468B18FC
:101E6000042B02DD012002B070BD4C1EA4B2002282
:101E7000012101A8FFF78AFB0AE004F108036B4483
:101E800013F8043C0122A1B2304600F049FE0134AF
:101E9000A542F2DC0020E6E701207047F0B583B0F0
:101EA00016460AB2002A43DD05461F468B19042B4D
:101EB00041DC27B3012F39D101398CB20022022134
:101EC00001A8FFF763FB27460FE00122B9B22846BD
:101ED00000F05AFE01220021284600F055FE07F1CD
:101EE00008036B4403F8040C01373319BB42ECDCE4
:101EF0000122022101A8FFF749FB002019E04C1E36
:101F0000A4B20022022101A8FFF740FB0AE004F17D
:101F100008036B4413F8043C0122A1B2284600F0E8
:101F2000FFFD0134A642F2DC384602E0012000E069
:101F3000012003B0F0BD0120FBE701207047012024
:101F4000704700002DE9F04389B000240394049405
:101F500005940694079400943C4B1A6B42F080025F
:101F60001A631A6B02F080020092009A01941A6BB5
:101F700042F001021A631A6B02F001020192019A07
:101F800002941A6B42F002021A631B6B03F0020305
:101F90000293029B2E4E22464FF4F071304604F01D
:101FA00094FE2C4D22460721284604F08EFE012285
:101FB0004FF48051284604F088FE01224FF400417E
:101FC000304604F082FE4FF00709CDF80C900494DF
:101FD0004FF00208CDF8148003A9304604F002FD4A
:101FE000E0230393012704970594069403A9304640
:101FF00004F0F8FCCDF80C9004970594069403A91E
:10200000284604F0EFFC4FF48053039304970594A3
:10201000CDF8188003A9284604F0E4FC4FF40143EE
:10202000039304970594CDF8188003A9304604F073
:10203000D9FC4FF4807303930494059403A92846B4
:1020400004F0D0FC09B0BDE8F08300BF00380240C6
:10205000000002400004024008B50B480B4B03602F
:102060000B4B436000238360C3604FF480420261E6
:1020700043618361C361036204F0C8FF00B908BD16
:1020800000F03CF9FBE700BF1C09002000540040B1
:10209000400D030030B589B00023039304930593EA
:1020A000069307930268154B9A4201D009B030BDE0
:1020B00000250195124C236B43F002032363236B2D
:1020C00003F002030193019BC023039312230493A3
:1020D00001230593032306930423079303A90948C7
:1020E00004F080FC0295236C43F400132364236CFA
:1020F00003F400130293029BD8E700BF0054004092
:10210000003802400004024002680A4B9A4200D0A4
:10211000704710B5084A136C23F400131364074C7E
:102120004021204604F042FD8021204604F03EFD7F
:1021300010BD00BF005400400038024000040240BF
:1021400008B50748074B03600323436040F6FF735D
:10215000836005F0D9F900B908BD00F0CFF8FBE7BE
:10216000700900200030004084B08DE80F0004B0FA
:10217000704738B501FB00F4204608F025FF0546FE
:1021800018B1224600211AF06BFF284638BD000026
:1021900008B1014A1060704700000020014B187020
:1021A000704700BF7C0900200EB4F0B5ADF51C7D72
:1021B000444B1B78834205D90DF51C7DBDE8F040EA
:1021C00003B07047044601214FF48070FFF7D1FF40
:1021D00005460028F0D04FF4817200215BA81AF068
:1021E0003FFF8DF86C4117F08BFFFEF7E7F90646CD
:1021F0000F460022344BFEF741FBFEF7D9FDCDE937
:1022000058014FA958A81AF0C1FF4FAB2F4A4021DF
:102210003FA81BF0CDFD044630463946FEF7B4FC1E
:102220002B4A82FB0032C317C3EBA2134FF47A721E
:1022300002FB1303274AC4F140013FA820441AF0CF
:10224000E5F90444631C20223FA90A550022CA5420
:10225000A2AB5A930DF26D16A19AFD2130461AF0E9
:102260009DFC04469DF86C2101961B4B53F82230CF
:1022700000933FAB194A4FF4807128461AF0C6F913
:10228000F52C1BD82846FEF70BF88DF86D024FF49D
:10229000807229460DF26D101AF029FF104B1E684E
:1022A00046B15BACF2225FA968461CF015F994E8D0
:1022B0000F00B047284608F009FF7DE7F6238DF8A8
:1022C0006D32E4E77C09002000408F40586B030822
:1022D000D34D62106C6B030804000020746B03087C
:1022E0000000002008B50268034B9A4200D008BDE8
:1022F00004F038F9FBE700BF0040014072B6FEE78A
:1023000000B595B03022002108A81AF0A9FE0023DC
:10231000039304930593069307930193204A116C4A
:1023200041F080511164126C02F080520192019AC6
:1023300002931C4B1A6842F440421A601B6803F473
:1023400040430293029B092308934FF4803309937F
:1023500001230D9302220E924FF480030F93042366
:102360001093642111911292139308A805F0FEF8BE
:1023700088B90F23039302230493002305934FF49A
:10238000805206920793032103A805F059FB20B958
:1023900015B05DF804FBFFF7B1FFFFF7AFFF00BF1B
:1023A000003802400070004000B583B072B6124B96
:1023B000124A9A6062B6124B019302E0019B013B04
:1023C0000193019B002BF9DC04F0B2F8FFF798FFB2
:1023D000FFF7B8FD00F038F8FFF73EFE00F012F806
:1023E000FFF7AEFEFEF77AFE06F05EFBFFF7A2FBFC
:1023F00006F06CFBFEE700BF00ED00E00000010806
:1024000040420F0008B50E480E4B03604FF4827334
:10241000436000238360C360036143614FF4007233
:1024200082610822C2610362436283620A23C3623B
:1024300005F0E4FC00B908BDFFF760FFFBE700BF53
:10244000D80900200030014008B50D480D4B03604D
:102450004FF48273436000238360C3600361436170
:102460004FF400728261C3610362436283620A2394
:10247000C36205F0C3FC00B908BDFFF73FFFFBE7EF
:10248000800900200038004000B58BB00023059380
:1024900006930793089309930368284A934205D04B
:1024A000274A934225D00BB05DF804FB002101912F
:1024B000244B5A6C42F480525A645A6C02F4805293
:1024C0000192019A02911A6B42F002021A631B6B8D
:1024D00003F002030293029B382305930223069321
:1024E000032308930523099305A9174804F07AFAF2
:1024F000D9E700210391134B1A6C42F480421A640D
:102500001A6C02F480420392039A04911A6B42F00F
:1025100002021A631B6B03F002030493049B4FF443
:10252000604305930223069303230893052309932D
:1025300005A9054804F056FAB5E700BF0030014090
:1025400000380040003802400004024000B583B06B
:10255000002200920D4B596C41F480415964596C32
:1025600001F48041009100990192196C41F0805171
:1025700019641B6C03F080530193019B0F216FF0D2
:10258000010004F017FA03B05DF804FB00380240C4
:1025900030B589B00546002401941D4B5A6C42F4B5
:1025A00080325A645B6C03F480330193019B02A96F
:1025B00003A805F01BFB05F009FB164AA2FB00234C
:1025C0009B0C013B1448154A026040F2E732C2609E
:1025D000436004618460846106F086F8044610B1AB
:1025E000204609B030BD0C4805F038FF04460028ED
:1025F000F6D1182004F0EEF90F2D01D90124EFE7F0
:1026000000222946182004F0D5F9054B1D60E7E7A4
:102610000038024083DE1B43300A002000400140A6
:1026200008010020FEE7FEE7FEE7FEE7FEE7704751
:1026300008B5024805F052FF08BD00BF300A00206F
:102640000120704708B51BF00FFF162303604FF001
:10265000FF3008BD08B54FF0FF31FFF7F3FFFEE78D
:1026600070B50C461646002506E0AFF30080214603
:1026700001F8010B01350C46B542F6DB304670BD62
:1026800070B50C461646002504E014F8010BAFF3B4
:1026900000800135B542F8DB304670BD4FF0FF30A9
:1026A00070474FF400534B60002070470120704783
:1026B0000020704710B503460C4A0D490D480068CC
:1026C00040B10C4800680344521A934206D8094AA4
:1026D000136010BD0748084C0460F2E71BF0C4FE0D
:1026E0000C2303604FF0FF30F3E700BF000002202F
:1026F000000800007C0A0020A8A20120034AD2F8AA
:10270000883043F47003C2F88830704700ED00E071
:10271000DFF834D0FFF7F2FF0C480D490D4A0023D3
:1027200002E0D458C4500433C4188C42F9D30A4A86
:102730000A4C002301E013600432A242FBD31BF0D9
:10274000A1FEFFF731FE70470000022000000020CC
:102750007008002014CC030870080020A8A20120F3
:10276000FEE738B50B88052B01D0032038BD0C4699
:102770004378817841EA0321013189B2C378027933
:1027800042EA0322531E9BB240F2CE7C634520D81E
:10279000002323800123037023880133238012F058
:1027A000070F10D0C2F3C7030133DDB24570238891
:1027B0000133238000230230FFF770FB30B92388F8
:1027C0002B442380D2E7C2F3C705EFE700F0F0F90E
:1027D000CCE70320CAE70B88052B01D00320704704
:1027E0004378817841EA0321013189B20379F3B951
:1027F000C278531EDBB2FD2B1BD900B583B000237A
:102800008DF80530FF2A0BD000238DF8043001230A
:102810001A4601A8FFF742FB30B903B05DF804FB8C
:1028200001238DF80430F2E700F0C2F9F5E7032048
:102830007047032070470B88052B2DD910B50C4627
:102840004278837843EA0223013399B2C27803794C
:1028500043EA022290F805E013F0070F0ED0C2F30E
:10286000C70C0CF1010C5FFA8CFC531E9BB2B3F544
:10287000F66F13D2F44504D0032010BDC2F3C70C89
:10288000F3E701230630FFF709FB10B90523238086
:10289000F3E700F08DF9F0E7032070470320ECE741
:1028A00038B50B88052B01D0032038BD0C46437882
:1028B000817841EA0321013189B2C378027942EA81
:1028C0000322531E9BB240F2CE7C63451FD80023E7
:1028D00023800223037023880133238012F0070F23
:1028E0000FD0C2F3C7030133DDB245702388013333
:1028F00023800230FFF7ACFA30B923882B442380C1
:10290000D3E7C2F3C705F0E700F052F9CDE70320A3
:10291000CBE708B50B88052B01D0032008BD437811
:10292000817841EA0321013101231A4689B203303B
:10293000FFF705FB0028F1D000F03AF9EEE70B882D
:10294000052B22D910B50C464278837843EA02233E
:10295000013399B2C378027942EA032290F805C0A4
:10296000531E9BB2772B12D85300DBB2634501D0C4
:10297000032010BD01230630FFF7E1FA10B905234B
:102980002380F6E700F014F9F3E7032070470320F3
:10299000EFE738B50B88052B01D0032038BD024680
:1029A0000C464378817841EA0321013189B20579E7
:1029B0006B1E9BB27C2B01D90320EFE70023238001
:1029C0004FF0030C00F802CBB4F800C00CF1010C7E
:1029D000A4F800C04FEA450C82F801C022880132F9
:1029E00022802A46FFF7ABFA20B9238803EB450380
:1029F0002380D3E700F0DCF8D0E7F8B50B88092B8B
:102A000043D904460D464378817841EA03210131D8
:102A10008EB2C378077947EA03274379817941EA7F
:102A20000321013189B2C379027A42EA0322407A52
:102A30007B1E9BB27C2B2AD85AB3792A2BD8B0EBB9
:102A4000420F01D0032021E0012304F10A00FFF727
:102A500076FA0346B0B928802046172200F8022BE8
:102A60002A8801322A807A0062702A8801322A80FC
:102A70003A463146FFF763FA20B92B8803EB470348
:102A80002B8003E000F094F800E00020F8BD032064
:102A9000FCE70320FAE70320F8E70A88052A01D0BB
:102AA0000320704738B503460C464278817841EAE6
:102AB0000221013189B2C278057945EA02256A1EF0
:102AC00092B27B2A01D9032038BD00222280042241
:102AD00000F8022B2288013222806A005A70238873
:102AE000013323802A46FFF728FA20B9238803EB15
:102AF00045032380E8E700F05BF8E5E738B50D46CD
:102B0000054B1C882246054901301BF0E5FC0134C9
:102B10002C80002038BD00BF800A0020840A0020DD
:102B200010B5082A23D84FEAD10E01F0070403FAA2
:102B300004F44FF0010C0CFA02F292B2013A92B294
:102B400001F0070102FA01F110F80E300EEB0C0251
:102B500010F802C043EA0C231BB223EA01031BB2A4
:102B6000234300F80E30C3F30723835410BD034BF7
:102B7000034A3721034817F021FD00BFB86B030853
:102B8000106C0308C86B03084FEAD10C0123934073
:102B90009BB2013B10F80C206044407842EA0022CE
:102BA00001F007010A4192B203EA0200C0B2704785
:102BB000012805D0072805D008B1042070477047C8
:102BC000022070470620704710B500F0CEF9044689
:102BD00020B1114B01221A70204610BD00F0CAF836
:102BE000C0B10E4B0E4A1A600E4B0F4A1A600F4BC3
:102BF0000F4A1A600F4B104A1A60104B00221A60DD
:102C00000F4BFF221A700F4B02221A70024B012247
:102C10001A70E1E70324DFE79C000020BC0A0020D3
:102C20007B2F0108B80A00207D2F0108B40A00207C
:102C3000852F0108C00A0020C52F0108B00A002016
:102C4000C50A0020C40A002008B5064B1B78012BDA
:102C500001D0062008BD044B1B6898470020014B9B
:102C60001870F7E79C000020BC0A002030B583B044
:102C7000364B1C78002C63D10DF1070000F08EF864
:102C8000012802D0204603B030BD9DF80730012B4B
:102C900014D0022BF6D12E4B186801782D4B1970E9
:102CA0002D4B01221A7000230F2B25DC2B4A12F822
:102CB00033200AB3914217D00133F5E7284B1B6844
:102CC000284A23492848984705460028DAD1264B48
:102CD0001B78264A1278934201D0002B32D1022071
:102CE00000F050F82C46CDE71C4A02EBC3035B68AA
:102CF0001C499847184B18701B4B1B7823B3164B75
:102D00001B789BB1174A002111801249097810489D
:102D100005684FF0010CA2F800C041F08001297055
:102D20000068118801EB0C0515804354104B1B689B
:102D30000C4A1288064909680C4800789847A1E7B0
:102D400006249FE704469DE71C469BE79C00002065
:102D5000A80A0020A50A0020A40A00201C000020C8
:102D6000B40A0020A60A0020AC0A0020C50A0020F0
:102D7000C00A0020024B00221A700120704700BFD9
:102D8000C60A00200123034A1370034A1070184634
:102D9000704700BFC60A0020C70A00200346054A44
:102DA000107830B1044A12781A70024B00221A705F
:102DB00001207047C60A0020C70A0020072900D05A
:102DC000704738B504461E4B00F11C0293E803001F
:102DD00013F0E4FC012806D094F8AD3043F0200352
:102DE00084F8AD3038BD226C93B216490B8033B9EC
:102DF00094F8AD3043F0200384F8AD30F2E71A4682
:102E0000A16B11481BF068FB0120FFF7BBFFFFF728
:102E10002DFFFFF72BFF0D4B1B7833B994F8AD3026
:102E200043F0200384F8AD30DCE70025074B1D702C
:102E3000074B1A880749204614F0CAFD2564D1E7DC
:102E4000C80A0020D4120020D8120020D00A002086
:102E5000D20A0020D40A002038B501FB00F4204635
:102E600008F0B2F8054618B1224600211AF0F8F829
:102E7000284638BD30B583B00023244A244914F0D5
:102E8000BBFC0020FFF7A0FEFFF7DEFE0022019250
:102E900001A9204808F000FA0198421E40F2FE33D2
:102EA0009A4215D801210844FFF7D6FF1A4D286031
:102EB0000121184808F02EFA0446019A296808F002
:102EC00059FA019B6B60204608F048FA03B030BD08
:102ED00001210B20FFF7C0FF03460F4C20600B229F
:102EE00062600E4A03CA186059601188927819818D
:102EF0009A720221074808F00DFA054662682168B7
:102F000008F044FA284608F029FADFE7BD2D010849
:102F1000206C0308346C0308C80A0020486C0308BE
:102F200001207047044B0360044B1A880A8000227A
:102F30001A800120704700BFD8120020D412002050
:102F400010B50C460A46014604481BF0C5FA044B6E
:102F50001C800120034B187010BD00BFD40A002054
:102F6000D20A0020D00A0020704708B5FFF7D8FF2A
:102F700008B1002008BD0320FCE7704708B5FFF743
:102F8000F3FF08BD70B582B006460D4614460DF13C
:102F9000020101A8FFF7C6FF80B1019B9978DA789A
:102FA00052EA01220CD107332B60BDF80230073BF7
:102FB0002380FF233370002002B070BD0520FBE7A3
:102FC0000520F9E708B50846D11D531C1B1200F86F
:102FD000033C013200F8022C89B20738FFF7B0FF3A
:102FE00008B1002008BD0520FCE7000008B5034B30
:102FF000034AC82111F03AFB08BD00BFFCB5030825
:10300000546C030870B584B005460C4602AE1049F6
:10301000304611F0B5FC0023009396E80C0094E8CC
:10302000030011F0CFFE58B10A4B01930A4B0093F5
:103030000A4B0B4AC821284611F018FB04B070BD9A
:10304000084B074A40F29511284611F00FFBF5E7AF
:10305000F46C0308A06D0308F4680308F86C030817
:10306000306D0308A46D030870B588B005460C46A2
:1030700006AE1349304611F083FC0023009396E816
:103080000C0094E8030011F09DFE88B10D4B0493F1
:103090000D4B03930D4B02930D4B01930D4B00937E
:1030A0000D4B0E4AC821284611F0E0FA08B070BD59
:1030B0000B4B0A4A40F29511284611F0D7FAF5E772
:1030C000F46C0308606E0308746E0308806E0308D6
:1030D000A06D0308F4680308F46D0308306D03085D
:1030E000A46D030870B584B005460C4602AE1449C1
:1030F000304611F045FC0023009396E80C0094E85C
:10310000030011F05FFE98B10E4B1B6A0E48984702
:1031100038B10E4B0E4AC821284611F0A7FA04B068
:1031200070BD0C4B0A4AC821284611F09FFAF6E7F9
:10313000094B074A40F29511284611F097FAEEE73D
:10314000886E0308A000002008660308906E03083C
:10315000306D0308CC6E0308106F030870B584B09F
:1031600005460C4602AE1249304611F009FC002318
:10317000009396E80C0094E8030011F023FE78B168
:103180000C4E336A0C4C20469847736A2046984789
:103190000A4B0B4AC821284611F068FA04B070BDEA
:1031A000084B074A40F29511284611F05FFAF5E7FF
:1031B000886E0308A0000020F4650308606F030810
:1031C000306D0308106F0308F0B5C3B006460D4616
:1031D000002422947C273A46214623A819F040FF78
:1031E00002943A46214603A819F03AFF8022009241
:1031F00002AB22A9284612F0EBFA9DF8883013B1F1
:103200009DF8082062B913B99DF808304BBB214BDB
:10321000214A4FF4CA71304611F028FA43B0F0BD8C
:103220001E4B1D4A4FF4CA71304611F01FFAF5E7E4
:10323000B82303FB04F41A4FE5192A461949012063
:10324000FEF7B2FF002385F8803000200021C5E999
:103250002C013B55144B104AC821304611F006FA98
:10326000DCE70024092C0CDCB82304FB03F38033D7
:1032700002A90B481844FCF7B3FF0028D8D001344A
:10328000F0E70A4B044A4FF4CA71304611F0EEF9E8
:10329000C4E700BFAC700308306D0308A86F0308D3
:1032A000D81A0020287003083C70030878700308BF
:1032B00030B5C7B005460C4690F8AC3013F040026C
:1032C00024D0144B04F1800112B3134A1348029026
:1032D00001920091124A4FF4807106A810F0C8FCC8
:1032E0000594002204920F4B03930F49029101921F
:1032F00000930E4B06AAC821284611F0B7F92246C2
:103300000B490120FEF750FF47B030BD094BD9E70C
:10331000094ADBE7247103084871030800A302008F
:10332000547103082D2E0208CC81030898710308FC
:10333000A071030838710308AC7303082DE9F0434A
:10334000E5B005460C4616460021599125225AA89B
:1033500019F086FE8022009202AB22A9204612F0CC
:1033600037FA9DF8883013B19DF808204AB9002B30
:1033700040F0BB809DF80830002B40F0B280002068
:10338000B4E022AA5B490120FEF70EFF42A811F02B
:1033900045FA02A8FCF784FF024602A942A811F0F0
:1033A00057FA42A959A811F08DFA00242AE04146A3
:1033B0002846FFF77DFF66E04F4F802222A938465E
:1033C00019F095FE16F09CFE4C4BC31841F100011C
:1033D000C7F8B030C7F8B410282107F1800012F008
:1033E0003DFE4EB9B822464B02FB0432454901204E
:1033F000FEF7DAFE012079E039462846FFF758FF4C
:10340000F0E70134092C45DC22A9A9203E4B00FB42
:103410000430FCF7E5FE0028F3D1A92304FB03F3F5
:10342000803359A938481844FCF7DAFE0028E8D15F
:10343000334BB82202FB0433D3F8B080D3F8B47016
:1034400016F05EFE80458F41B6D2B82704FB07F721
:10345000DFF8AC9007EB0908802222A9404619F05A
:1034600046FE16F04DFE254BC01841F10001C8F88C
:10347000B000C8F8B41007F180002821484412F0C9
:10348000EDFD002E93D142461E490120FEF78CFE31
:1034900001202BE0002029E0B822194B02FB043365
:1034A00000931A4B1A4AC821284611F0DFF816E09B
:1034B0000134092C17DCB82304FB03F3803302A981
:1034C0000F481844FCF78CFE0028F1D1B82304FB08
:1034D00003F30B4AD35C002BEAD0002EDCD1012091
:1034E00004E00024E5E7002000E0002065B0BDE82E
:1034F000F08300BFBC710308901B002000B84C0A89
:10350000D81A0020DC71030808220020F871030893
:10351000306D030810B504460122FFF70FFF00B11C
:1035200010BD044B044A40F29311204611F09EF85E
:10353000F6E700BF38720308306D030810B590B08D
:10354000044609A807F000FE0F9B06930E9B059307
:103550000D9B04930C9B03930B9B02930A9B01937B
:10356000099B0093034B044AC821204611F07EF8C2
:1035700010B010BD687203086C730308F0B591B009
:1035800006460C460CAD4B49284611F0F9F90023CC
:10359000009395E80C0094E8030011F013FC28B3A5
:1035A000454C2368002201210AA89847236800227D
:1035B00002210DF12B0098479DF828309DF8292015
:1035C0009DF82A109DF82B009DF82C409DF82D5059
:1035D000059504940390029101920093374B384A69
:1035E000C821304611F042F811B0F0BD0EAD35499A
:1035F000284611F0C5F90023009395E80C0094E8E3
:10360000030011F0DFFB00284BD008AB2E4A04F575
:10361000007103C910F0F0F800283AD00AAB2B4A29
:1036200004F5007494E8030010F0E6F8002830D0A8
:10363000DDE90801FDF7D0FAC4B2DDE90A01FDF7C2
:10364000CBFAC5B2631EDBB2022B01D8012D07D91C
:103650001F4B1B4A4FF4C871304611F007F8C3E7FF
:10366000154F3B680022022107A8984704F13F0349
:103670006B4403F8245C3B680122022107A89847A9
:1036800001950094134B0E4AC821304610F0EEFF0E
:10369000AAE7114B0A4A4FF4C871304610F0E6FF12
:1036A000A2E70E4B064A40F29511304610F0DEFFBD
:1036B0009AE700BFF46C0308A4280020B073030845
:1036C000306D0308886E0308E4730308F073030881
:1036D00030740308F87303086C740308A8740308B3
:1036E00038B501FB00F4204607F06EFC054618B122
:1036F0002246002119F0B4FC284638BDF0B58BB045
:1037000006460C4606AD8449284611F039F90023D7
:10371000009395E80C0094E8030011F053FB002897
:103720003BD0C6210120FFF7DBFF054640B37B4BB2
:103730001B6800221146984705F1A5073846FCF79B
:10374000AFFDC4B222462A21384619F089FC2C4428
:10375000002384F8A5306B78EBB1714BAA1C05F1FE
:10376000840103970291019200936E4B6E4AC82127
:10377000304610F07BFF284607F0A8FC0BB0F0BDE8
:103780006A4B694A4FF4FA71304610F06FFF2846D1
:1037900007F09CFCF2E7664BE0E708AD6549284678
:1037A00011F0EEF80023009395E80C0094E8030074
:1037B00011F008FB002800F0A780C6210120FFF7C8
:1037C0008FFF054610B305AB5B4A04F5007103C9D2
:1037D0000FF0A8FD002824DB6B1C584A04F5007785
:1037E00097E8030010F02EF8554A97E8030012F00E
:1037F000B7F9074628B316F09FFE0346E0B104333D
:10380000032B79D8DFE803F070686052474B464AD3
:103810004FF4FA71304610F029FF284607F056FCA5
:10382000ACE7484B404A4FF4C871304610F01EFFD9
:10383000284607F04BFCA1E77F223946A81C19F067
:1038400056FC384607F042FC3F4A04F5007393E803
:10385000030012F085F9074628B12022014605F140
:10386000840019F044FC384607F030FC374A04F570
:10387000007494E8030012F073F9044628B1202282
:10388000014605F1A50019F032FC204607F01EFCA8
:1038900001222A70214B1B680021284698472C4B97
:1038A000214AC821304610F0E1FEC1E7294B1E4AEB
:1038B0004FF4C871304610F0D9FE384607F006FCC8
:1038C000284607F003FC59E7234B174A4FF4C87109
:1038D000304610F0CBFEF0E7204B134A4FF4C8718E
:1038E000304610F0C3FEE8E71D4B0F4A4FF4C87195
:1038F000304610F0BBFEE0E71A4B0B4A4FF4C8719C
:10390000304610F0B3FED8E7174B074A40F2951146
:10391000304610F0ABFE31E7F46C0308A428002019
:10392000FC74030848750308306D03080C75030820
:1039300004750308886E030890750308C4750308AE
:10394000D0750308947503081877030824770308D3
:1039500030770308DC750308207603086C760308CB
:10396000AC760308E4760308A874030870B58AB03F
:1039700006460C4604AD5E49284611F001F80023C6
:10398000009395E80C0094E8030011F01BFA00285E
:103990003DD00022039203A9564807F07DFC03980E
:1039A000421E40F2FE339A4229D801210844FFF713
:1039B00097FE0446B8B101214E4807F0ABFC05461E
:1039C000039A214607F0D6FC284607F0C7FC00946E
:1039D000494B4A4AC821304610F048FE204607F0BD
:1039E00075FB0AB070BD46490320FEF7DDFB454B71
:1039F000424A4FF4FA71304610F038FEF1E7424B7C
:103A00003E4A4FF4FA71304610F030FEE9E706AD59
:103A10003E49284610F0B4FF0023009395E80C00BF
:103A200094E8030011F0CEF9002858D003AB384ACF
:103A300004F5007103C90FF075FC002834DB354A2A
:103A400004F5007494E8030012F08AF80446002894
:103A50003DD008AD0146284610F092FF06F11C0249
:103A600095E8030012F09AFE002825DB214D284638
:103A700007F0BEFC0221284607F04CFC0546204614
:103A8000FCF70EFC421C2146284607F07FFC284626
:103A900007F064FC204B194AC821304610F0E6FDBF
:103AA000204607F013FB9CE71C4B144A4FF4C871E7
:103AB000304610F0DBFD94E7194B104A4FF4C87103
:103AC000304610F0D3FD204607F000FB89E7154B88
:103AD0000A4A4FF4C871304610F0C8FD81E7124B16
:103AE000064A40F29511304610F0C0FD79E700BF5C
:103AF000F46C0308346C0308C8770308306D0308BE
:103B00006C770308A0770308F4770308886E03082E
:103B100090750308287803087078030894750308E3
:103B200038780308C47803080C7903082DE9F04FAE
:103B3000C7B081468A4672228E4927A81AF0CCFC6B
:103B400001211E20FFF7CCFD064601212E20FFF7A4
:103B5000C7FD074601212E20FFF7C2FD8046012147
:103B60004FF44070FFF7BCFD044601214FF4C070D4
:103B7000FFF7B6FD0546002E00F0E380002F00F0B1
:103B8000E080B8F1000F00F0DC80002C00F0D9805C
:103B9000002800F0D6800DF5887B7749584610F054
:103BA000EFFE002300939BE80C009AE8030011F05D
:103BB00009F9002800F0BD8001F0BAFB824658B335
:103BC00090F8AC3013F0200F2CD190F8AD3013F0FA
:103BD000200F2DD01E226949304619F088FADFF8EF
:103BE000C4B10AF1080300935B46654A2E214046A2
:103BF00010F03EF80AF11C0300935B46604A2E2148
:103C0000384610F035F82046FCF74AFB5D4B1B8820
:103C100023524FF0010A28E01E225B49304619F07A
:103C200066FAF0E71E225949304619F060FAD6E7E5
:103C30001E225749304619F05AFAD0E75FFA8AF344
:103C40000122802107A801F063FF07A9204619F08F
:103C50000FFA2046FCF724FB034621184D4A106852
:103C6000E05013790B710AF1010ABAF1030FE5DD97
:103C70004FF0010A07E02046FCF712FB414B1B887E
:103C800023520AF1010ABAF1030F18DC5FFA8AF332
:103C90000222802107A801F03BFF07A9204619F066
:103CA000E7F9BAF1020FE6DC2046FCF7F9FA034621
:103CB0002118384A1068E05013790B71E1E7284663
:103CC000FCF7EEFA2F4B1B882B524FF0010A07E04E
:103CD0002846FCF7E5FA2B4B1B882B520AF1010A08
:103CE000BAF1030F18DC5FFA8AF30222802107A8D9
:103CF00001F0F6FE07A9284619F0BAF9BAF1020F49
:103D0000E6DC2846FCF7CCFA03462918214A10685D
:103D1000E85013790B71E1E7049503940297CDF80D
:103D20000480009627AB1C4AC821484610F09EFC30
:103D30000EE01A4B184A40F29511484610F096FCD6
:103D400006E0174B144A4FF4FA71484610F08EFC07
:103D5000304607F0BBF9384607F0B8F9404607F09F
:103D6000B5F9204607F0B2F9284607F0AFF947B099
:103D7000BDE8F08FCC790308F46C03086C79030874
:103D800080790308847903088CB7030860790308F5
:103D90007479030888790308306D0308A874030850
:103DA000907903081D670208F0B58DB007460C46F0
:103DB000154608AE2349304610F0E2FD002300937B
:103DC00096E80C0094E8030010F0FCFF18B3002301
:103DD0000293039304930593069307931A4B02935C
:103DE0001A4B079345B1012D0ED002AB184A21465C
:103DF000384611F0A3F905E002AB154A21463846D2
:103E000011F09CF90DB0F0BD02AB124A21463846C4
:103E100011F094F9F6E70AAD0F49284610F0B0FD0D
:103E20000023009395E80C0094E8030010F0CAFF0B
:103E30000028E7D1094B0A4A40F29511384610F0A4
:103E400015FCDFE7F46C030884810308A000002060
:103E5000CC670308DC670308886E0308407A030810
:103E6000306D0308F8B504460D4616460B4F3B6A05
:103E700098470222214638460FF06AF904467B69CA
:103E8000A92206FB02F229460068984720460FF057
:103E900078F903490120FEF787F9F8BDA00000205A
:103EA000987A03082DE9F041AEB006460C4626ADDF
:103EB000A849284610F064FD0023009395E80C0003
:103EC00094E8030010F07EFF002843D128ADA249FA
:103ED000284610F055FD0023009395E80C0094E867
:103EE000030010F06FFF002800F0FD8003AB9B4A39
:103EF00004F5007103C90FF015FA0028C0F289809B
:103F0000974A04F5007494E8030011F029FE054671
:103F1000944A94E8030011F023FE0746002D00F0B8
:103F2000D480002800F0D1802B78002B00F0CD80C9
:103F30000378002B00F0C9800024092C7FDC29467F
:103F4000A920894B00FB0430FCF74AF9002868D00F
:103F50000134F2E701214FF48060FFF7C1FB07460F
:103F60000121A020FFF7BCFB8046002F3DD0002898
:103F70003BD07E4B07CB38607960BA601B783B73CF
:103F80000C25002408E04346794AC5F5806178197C
:103F900018F03CFB05440134092C18DCA92204FB71
:103FA00002F2714B9A5C002AF5D0A92202FB04337D
:103FB000704AA021404618F029FB0C2DE3D96E4A27
:103FC000C5F58061781918F021FB0544DBE76B4AE1
:103FD000C5F58061781918F019FB0097644B684AA1
:103FE000C821304610F042FB0AE066490320FEF784
:103FF000DBF8654B624A4FF4FA71304610F036FB3D
:10400000384607F063F8404607F060F82EB0BDE888
:10401000F0815E4B5A4A4FF4C871304610F026FBCF
:10402000F4E75B4B564A4FF4C871304610F01EFB64
:10403000284607F04BF8384607F048F8E6E7002432
:1040400004942522214605A819F00AF80FA810F0BB
:10405000E5FB3846FCF724F9024639460FA810F074
:10406000F7FB0FA904A810F02DFC2146092924DC38
:10407000A92301FB03F33C4AD35C0BB10131F5E703
:10408000A92303FB01F490467F22294608EB040094
:1040900019F02DF88034282204A908EB040019F047
:1040A00026F80A2241463B48FFF7DCFE3A4B344AE9
:1040B000C821304610F0DAFA0EE0384B304A4FF49F
:1040C000C871304610F0D2FA06E0354B2C4A4FF456
:1040D000C871304610F0CAFA284606F0F7FF384695
:1040E00006F0F4FF92E72AAD2E49284610F048FC6E
:1040F0000023009395E80C0094E8030010F062FEA2
:10410000002855D12CAD2849284610F039FC002351
:10411000009395E80C0094E8030010F053FE00288B
:1041200000F0F3800E4A04F5007494E8030011F0E7
:1041300017FD074618B10378002B40F0CF801B4BCA
:104140000F4A4FF4C871304610F090FA384606F026
:10415000BDFF5BE7F46C0308886E030890750308E5
:10416000D87A0308E07A030808220020B07A03080E
:1041700098B70308C07A0308D07A0308D47A0308F2
:10418000306D03086C770308A07703089475030863
:10419000E87A030848660308247B0308607B030869
:1041A000947B0308D47B0308907C03082C7D0308D0
:1041B00003AB5A4A04F5007103C90FF0B3F80028A5
:1041C00021DB574A04F5007494E8030011F0C8FCA1
:1041D0000546544A94E8030011F0C2FC044625B198
:1041E00018B12B780BB10378BBB94F4B4F4A4FF442
:1041F000C871304610F03AFA284606F067FF2046AC
:1042000006F064FF02E74A4B484A4FF4C871304653
:1042100010F02CFA00242546EEE70027049725220B
:10422000394605A818F01CFF0FA810F0F7FA204631
:10423000FCF736F8024621460FA810F009FB0FA93B
:1042400004A810F03FFB092F25DC2946A920394B93
:1042500000FB0730FBF7C4FF08B10137F3E7A923E0
:1042600003FB07F707F18000DFF8C880282204A9C4
:10427000404418F03CFF4744002387F8A8300A2246
:1042800041462D48FFF7EEFD2C4B284AC821304609
:1042900010F0ECF9B0E72A4B244A4FF4CA713046CB
:1042A00010F0E4F9A8E780220021284618F0D8FE93
:1042B000A92303FB04F080301E4C29220021204456
:1042C00018F0CEFE0A2221461B48FFF7CBFD1D4BFE
:1042D000164AC821304610F0C9F937E70124092CE5
:1042E0000BDCA923134D03FB045539462846FBF785
:1042F00077FF0028D7D00134F1E7134B0B4A4FF476
:10430000C871304610F0B2F920E7104B074A40F26E
:104310009511304610F0AAF978E600BF90750308B1
:10432000D87A0308E07A03084C7C0308306D030850
:10433000947503080822002048660308D87B030808
:104340001C7C0308987C0308D87C03086C7D030858
:1043500070B50E461446012201460E480EF0F8FED6
:1043600088B105460B4B1B69A92204FB02F23146BA
:104370000068984728460EF004FF07490120FDF722
:1043800013FF012070BD05490320FDF70DFF00203C
:10439000F8E700BFA0000020E87D0308CC7D0308FB
:1043A00070B586B005460C4604AE1549304610F08F
:1043B000E7FA0023009396E80C0094E8030010F05D
:1043C00001FDA0B1EB6F1868002302930D4B019320
:1043D000012300934FF4FA62002311F0B3FC0A4B5F
:1043E0000A4AC821284610F041F906B070BD084BB2
:1043F000064A40F29511284610F038F9F5E700BF5B
:10440000886E0308DD690108047E0308306D030827
:10441000106F030870B584B005460C4602AE14490F
:10442000304610F0ADFA0023009396E80C0094E8B3
:10443000030010F0C7FC98B10E4BDB690E490F4822
:10444000984728B121462846FFF7AAFF04B070BD5F
:104450000B4B0C4A4FF4FA71284610F007F9F5E7B8
:10446000094B084A40F29511284610F0FFF8EDE795
:10447000886E0308A0000020086603083C7E03083D
:10448000547E0308306D0308106F030870B5C4B084
:1044900006460C4642AD2049284610F071FA00232A
:1044A000009395E80C0094E8030010F08BFC50B3E7
:1044B0007B2323AA194904F5007011F04EF9002856
:1044C00019DD23AB164A802103A818F09FF8154B7D
:1044D0005B6A03A8984730B1134B144AC821304691
:1044E00010F0C4F816E0124B104A4FF4FA7130463F
:1044F00010F0BCF80EE00F4B0C4A4FF4C871304678
:1045000010F0B4F806E00C4B084A40F29511304622
:1045100010F0ACF844B070BD886E0308987E0308B4
:10452000A07E0308A0000020A87E0308306D0308C9
:10453000DC7E0308187F0308106F030870B5A4B071
:1045400005460C4622AE1C49304610F019FA0023ED
:10455000009396E80C0094E8030010F033FC08B3D5
:10456000802302AA154904F1100011F0F6F814494D
:1045700002A8FBF735FE58B9124B0093124B134AB1
:104580002146284612F0B0FE012005F085FE10E01D
:104590000B4B00930E4B0F4A4FF4C871284610F096
:1045A00065F806E00C4B0B4A40F29511284610F0D6
:1045B0005DF824B070BD00BF886E0308E8B603083C
:1045C000547F030890D00300FC650308A00000207E
:1045D000647F0308306D0308106F0308F0B597B0CF
:1045E00004460E4601214FF48060FFF779F8054636
:1045F00050B10122214628480EF0AAFD044640B1E0
:1046000068460FF0B5F910E006F060FD4FF0FF309E
:1046100040E00EF0B6FD284606F058FD6FF00100B0
:1046200038E0294668460FF0B9F91B4B1B694FF477
:10463000806229462068984702460028F1D120462A
:104640000EF09FFD01211020FFF74AF8074628B120
:10465000014668460FF0F9F9002412E0284606F0FA
:1046600035FD384606F032FD4FF0FF3012E06100B4
:104670003B5D0A4AC1F1210106EB440017F0C6FF79
:1046800001340F2CF3DD284606F020FD384606F0F5
:104690001DFD002017B0F0BDA0000020B07F030872
:1046A00070B584B005460C4602AE1949304610F08C
:1046B00067F90023009396E80C0094E8030010F0DB
:1046C00081FBE8B101212120FFF70AF804460146E9
:1046D0001048FFF783FF58B900940F4B0F4AC821C9
:1046E00028460FF0C3FF204606F0F0FC04B070BD72
:1046F0000B4B0A4A4FF4CA7128460FF0B7FFF2E796
:10470000084B064A40F2951128460FF0AFFFEDE73F
:10471000F46C03083C7E0308B87F0308306D03087F
:10472000DC7F0308A46D03080B2900D07047F0B5A7
:10473000B5B00546144600222146FEF7FFFD0746A8
:1047400008AEAF49304610F01BF90023009396E8FD
:104750000C0094E8030010F035FB20B12846FEF76A
:1047600045FC35B0F0BD0AAEA649304610F008F958
:104770000023009396E80C0004F1080103C910F02F
:1047800021FB00B1BFB10CAE9F49304610F0F8F8E4
:104790000023009396E80C0004F1080103C910F00F
:1047A00011FB80B199490120FDF7FEFC2146284606
:1047B000FEF7B0FED5E7964B964A40F29311284695
:1047C0000FF054FFCDE70EAE9349304610F0D8F805
:1047D0000023009396E80C0004F1080103C910F0CF
:1047E000F1FA40B18D490120FDF7DEFC2146284653
:1047F000FEF7EAFCB5E710AE8949304610F0C0F884
:104800000023009396E80C0004F1080103C910F09E
:10481000D9FA38B183490120FDF7C6FC2846FEF7D6
:104820008DFE9EE712AE8049304610F0A9F80023B5
:10483000009396E80C0004F1080103C910F0C2FAD5
:1048400040B17A490120FDF7AFFC21462846FEF72A
:1048500095FE86E714AE7649304610F091F80023B5
:10486000009396E80C0004F1080103C910F0AAFABD
:1048700040B170490120FDF797FC21462846FEF71C
:104880003DFF6EE716AE6C49304610F079F8002314
:10489000009396E80C0004F1080103C910F092FAA5
:1048A00040B166490120FDF77FFC21462846FFF70D
:1048B0005DF856E718AE6249304610F061F8002303
:1048C000009396E80C0004F1080103C910F07AFA8D
:1048D00040B15C490120FDF767FC21462846FFF7FF
:1048E00025F93EE71AAE5849304610F049F8002342
:1048F000009396E80C00E168A06810F063FA48B1F4
:1049000052490120FDF750FC002221462846FFF7BE
:104910004BFA26E71CAE4E49304610F031F8002322
:10492000009396E80C00E168A06810F04BFA48B1DB
:1049300048490120FDF738FC012221462846FFF7AF
:1049400033FA0EE71EAE4449304610F019F8002342
:10495000009396E80C00E168A06810F033FA40B1CB
:104960003E490120FDF720FC21462846FFF79AFA30
:10497000F7E620AE3A49304610F002F800230093E3
:1049800096E80C00E168A06810F01CFA40B13549C7
:104990000120FDF709FC21462846FFF701FDE0E66E
:1049A00022AE314930460FF0EBFF0023009396E82A
:1049B0000C00E168A06810F005FA40B12B49012015
:1049C000FDF7F2FB21462846FEF71CFBC9E624AEA4
:1049D000274930460FF0D4FF0023009396E80C00DF
:1049E000E168A06810F0EEF9002845D021490120C7
:1049F000FDF7DAFB21462846FEF736FBB1E600BF9D
:104A00001C800308248003083C80030848800308B6
:104A10002C800308AC7303085C80030868800308DB
:104A20008080030890800308AC800308BC800308E2
:104A3000D4800308E8800308048103081481030874
:104A400030810308448103086081030870810308F2
:104A50008C810308A0810308C0810308D481030866
:104A6000F0810308048203082482030838820308C3
:104A7000588203086C82030826AE504930460FF076
:104A80007FFF0023009396E80C00E168A06810F017
:104A900099F920B121462846FFF750FD61E628AE7E
:104AA000474930460FF06CFF0023009396E80C0056
:104AB000E168A06810F086F940B142490120FDF795
:104AC00073FB21462846FFF7EBFD4AE62AAE3E4936
:104AD00030460FF055FF0023009396E80C00E16884
:104AE000A06810F06FF940B138490120FDF75CFB78
:104AF00021462846FFF78EFC33E62CAE344930467B
:104B00000FF03EFF0023009396E80C00E168A068D8
:104B100010F058F920B121462846FEF7E3FA20E6C6
:104B20002EAE2C4930460FF02BFF0023009396E861
:104B30000C00E168A06810F045F920B12146284634
:104B4000FEF70CFB0DE630AE234930460FF018FFA0
:104B50000023009396E80C00E168A06810F032F999
:104B600040B11E4B00931E4B1E4A2146284612F0B0
:104B7000BBFBF6E532AE1C4930460FF001FF0023C7
:104B8000009396E80C00E168A06810F01BF920B1D2
:104B900021462846FFF77AFCE3E5002302930393BE
:104BA00004930593069307930D4B02930D4B0793C4
:104BB00002AA2146284612F0B1FAD2E588820308FB
:104BC000A0820308B4820308D0820308E4820308A9
:104BD00004830308208303083C83030860E3160072
:104BE000F4650308A00000205883030808B50A22D2
:104BF00002490348FFF7ACFB024808BD0822002029
:104C00004866030829470108014B1860704700BF38
:104C1000A42800201A4B1B6803B1704730B585B03B
:104C200018490120FDF7C0FA174C40220021204608
:104C300018F016FA02AD154B196828460FF0A0FEC1
:104C400095E8030084E80300114B196828460FF02B
:104C500097FE04F1080395E8030083E803003C2372
:104C60006385002300930B4B22460B4909680B48D0
:104C7000006814F0F9FB024B186005B030BD00BFAE
:104C8000C828002074830308CC2800202029002095
:104C90001C2900206D520108242900201029002021
:104CA0002DE9F04F85B08146884692462A4C00F1A6
:104CB00008030093294B2A4A282120680EF0D8FFC8
:104CC00024682046FBF7ECFA0146204600F01EFC63
:104CD00000263BE008EBC60318F836401D79214F4B
:104CE0002B4622468021386800F02EFCDFF880B089
:104CF0002B4622464FF41671DBF8000000F0D4FC7E
:104D0000194D02AC396820460FF03AFE05F1180340
:104D100094E8030083E80300DBF8001020460FF05E
:104D20002FFE05F1200394E8030083E8030001242B
:104D300085F8284085F82E402946484613F0FAF8B1
:104D40003A680A492046FDF72FFA26445645C1D352
:104D500005B0BDE8F08F00BFC4280020016702083D
:104D60008079030818290020CC28002094830308A8
:104D70001429002038B501FB00F4204606F024F980
:104D8000054618B12246002118F06AF9284638BDB8
:104D90002DE9F04387B007460C46584D2B6800229A
:104DA000012104A898472B68002202210DF113006D
:104DB00098470322524904A818F0BEF848B90322C4
:104DC00050490DF1130018F0B7F810B9002C00F09D
:104DD00091804B4B06AA12E90300186099800121CB
:104DE0004FF41670FFF7C6FF064601218020FFF73B
:104DF000C1FF0546002238E002F101085FFA88F899
:104E000002F118030DEB030212F8083C009343462D
:104E100001224FF41671304600F03AFE434601225B
:104E20008021284600F074FEDFF8DC9002AC2946B1
:104E300020460FF0A5FD09F1180394E8030083E86C
:104E40000300314620460FF09BFD09F1200394E852
:104E5000030083E80300002389F8283089F82E3006
:104E60004946384613F066F84246022AC4D9002261
:104E700038E002F101085FFA88F802F118030DEB3F
:104E8000030212F8053C0093434602224FF41671C8
:104E9000304600F0FDFD434602228021284600F006
:104EA00037FEDFF8649002AC294620460FF068FD1B
:104EB00009F1180394E8030083E803003146204613
:104EC0000FF05EFD09F1200394E8030083E803007E
:104ED000002389F8283089F82E304946384613F0E7
:104EE00029F84246022AC4D9304606F0EFF828468F
:104EF00006F0ECF807B0BDE8F08300BFB028002052
:104F0000A8280020AB280020CC28002008B5054B9D
:104F1000186810B1044B1B7803B908BD0021FFF7D6
:104F200037FFFAE7C8280020B428002008B5054B51
:104F30001B7803B908BD0121034B1868FFF728FF50
:104F4000F8E700BFB4280020C82800202DE9F04F62
:104F500083B081460D461646002400E00134B44279
:104F60002ED205EBC40855F83430022BF6D10121BE
:104F70008020FFF7FFFE074698F8043002228021C8
:104F800000F0AEFDDFF844804FF0010B88F828B048
:104F9000EA46394650460FF0F3FC08F118039AE848
:104FA000030083E803004146484612F075FF3A4685
:104FB00005495846FDF7F8F8384606F087F8CDE77A
:104FC00003B0BDE8F08F00BFB8830308CC280020F1
:104FD0002DE9F04387B00023039307684568846890
:104FE000C668ACB1A7B105B10EBB8C490320FDF773
:104FF000DBF88B4B1B68002B40F30181894B9A2215
:105000008949012011F030FC88480FF0DBFAF6E006
:10501000834B1B68002B40F3F280824B9422824921
:10502000012011F021FC82480FF0CCFAE7E00121C9
:105030007018FFF79FFE814601216818FFF79AFE5E
:10504000804632462146484618F051F82A463946ED
:10505000404618F04CF8774B1B680022022105A847
:105060009847059BADF810301B0C8DF81230724933
:10507000404618F075F8002800F0B28003AA6F4986
:1050800017F04CFC012809D0654B1B68002B00F37E
:105090009D806B490320FDF787F8AAE0604B1B68F1
:1050A000012B19DCCDF80090039B42466549012095
:1050B000FDF77AF8039C631E022B19D8022E34D018
:1050C000032E55D0564B1B68002B74DC4A465E49B4
:1050D0000320FDF769F88CE0524BAD2252490220C3
:1050E00011F0C2FB4246039958480FF06BFAD9E71A
:1050F0004B4B1B68002B0CDC039B032254491046CE
:10510000FDF752F8484605F0E1FF404605F0DEFFA6
:1051100075E0444BB2224449012011F0A5FB039AEB
:1051200003214B480FF04EFAE6E702224949484670
:1051300017F0CBFF0028C3D104F117036B44012201
:1051400003F8082C364B1B68934206DC394B1B686E
:105150000122022104A898474BE0324BBF2232497A
:10516000022011F081FB03993B480FF02BFAEDE789
:1051700003223A49484617F0A8FF0028A2D104F1BB
:1051800017036B44002203F8082C254B1B68012BE6
:1051900006DC284B1B680122022104A8984728E05E
:1051A000204BC3222049022011F05EFB03992C48BA
:1051B0000FF008FAEDE71B4BC7221B49012011F045
:1051C00053FB494620480FF0FDF97FE7154BCC22F1
:1051D0001549012011F048FB22480FF0F3F958E778
:1051E0000F4B1B68002B0DDC42461F490320FCF7C8
:1051F000DBFF484605F06AFF404605F067FF07B051
:10520000BDE8F083074BD0220749012011F02CFBA9
:10521000414615480FF0D6F9E6E700BF448403087D
:105220002C010020D4830308F48303086C84030852
:1052300020840308B028002098840308A084030871
:105240000C860308D884030898850308AC840308F7
:1052500018850308688503086C85030880850308A2
:1052600084850308D48503084486030870B5102993
:1052700031D00546112902D009293AD070BD224B00
:105280001B68022B1DDC21490120FCF78DFF204B00
:105290001D60204B1B78002BF0D11F4E062231469B
:1052A0002846FFF7FDFC1A4C01212068FFF770FD2E
:1052B000062231462068FFF749FE164B01221A707C
:1052C000DCE7164BE1221649032011F0CDFA154810
:1052D0000FF078F9D7E7144613490120FCF764FF73
:1052E0002046FFF775FE0021094B1868FFF750FDB7
:1052F000C4E70E490120FCF757FF0023044A13605E
:10530000044A1370BAE700BF2C010020A0860308EE
:10531000C8280020B4280020C80000207486030894
:10532000F483030888860308B8860308DC8603082C
:10533000014B1868704700BFC82800202DE9F047CE
:1053400086B006460C4691461D4601218020FFF797
:1053500011FDDFF848A1CAF8000001212120FFF764
:1053600009FDDFF83C81C8F8000001212120FFF78A
:1053700001FD3B4F386001218020FFF7FBFC394BDA
:10538000186001214FF41670FFF7F4FC364B1860DB
:1053900001212820FFF7EEFC344B18600F9A344BA4
:1053A0001A60DAF800A04946504619F063F8D8F8B8
:1053B00000902946484619F05DF80E99386819F0B2
:1053C00059F84B4652462B490120FCF7EDFE2A4D79
:1053D0002E602A4B1C600621204600F071F8284EF2
:1053E00004ACD8F8001020460FF0CAFA94E8030085
:1053F00086E80300396820460FF0C2FA06F1080378
:1054000094E8030083E803003C237385002402949E
:105410001C4B01930323009342F21072002328686F
:1054200010F090FC184B18600294184B0193012661
:10543000009643F698220023286810F083FC144B52
:1054400018600294134B019300964FF4FA720023F4
:10545000286810F077FC104B186006B0BDE8F087A4
:105460001C2900201829002014290020C42800200D
:10547000B0280020F4860308102900200C29002001
:10548000CC280020154C0108C02800202D4F010811
:10549000BC2800200D4F0108B82800202429002036
:1054A0002029002038B501FB00F4204605F08CFDD2
:1054B000054618B12246002117F0D2FD284638BD16
:1054C00070B506460D460F4B186808B105F0FEFD95
:1054D000680001210844FFF7E5FF0A4B186008B196
:1054E00000240BE04FF0FF300BE0064B1868325DF4
:1054F000054900EB440017F0F1F90134AC42F4D354
:10550000002070BD2C2900202087030838B50546EF
:105510000C460C4B186808B105F0D8FD0121601845
:10552000FFF7C0FF074B186040B12246294617F02D
:10553000DEFD044B1B680020185538BD4FF0FF30CE
:10554000FBE700BF2829002000B587B04FF0000C12
:1055500080F800C0013A072A00F28780DFE802F0F5
:1055600004162545356575550493414B0393414B0E
:105570001B680293404B0193404B0093404B414AC0
:1055800017F044F8002007B05DF804FB04933E4B8D
:105590000393384A12680292374A01920093384BBB
:1055A000384A17F033F80020EDE70493374B0393A4
:1055B000304B1B680293304B0193354B0093304BBB
:1055C000304A17F023F80020DDE70493314B0393B2
:1055D000284B1B680293284B01932D4B0093284BBB
:1055E000284A17F013F80020CDE704932A4B0393C1
:1055F000204B1B680293204B0193254B0093204BBB
:10560000204A17F003F80020BDE70493234B0393CF
:10561000184B1B680293184B01931D4B0093184BBA
:10562000184A16F0F3FF0020ADE704931C4B0393D8
:10563000104B1B680293104B0193154B0093104BBA
:10564000104A16F0E3FF00209DE70493154B0393E7
:10565000084B1B680293084B01930D4B0093084BBA
:10566000084A16F0D3FF00208DE74FF0FF308AE79D
:10567000408703082C290020806E03084887030810
:10568000F800002028870308988403085887030837
:105690006087030868870308708703087887030812
:1056A00088870308988703082DE9F04F99B0179071
:1056B0000D4617461C460A46002117F0D1FC7A1EFB
:1056C000072A00F2BA81DFE812F008004300A100C7
:1056D000EA00C5006E019301490101218020FFF716
:1056E000E1FE07460094804B804A802116F08EFF31
:1056F0007F4B1A687F4B1B6814937F4B13937F4B30
:1057000012937F4B11937F4B10937F4B0F930E920D
:105710007E4B0D937E490C910B947E490A91099220
:10572000089307977C48069005940491039402918E
:1057300001920093794B7A4A2946179816F066FF32
:105740000446384605F0C2FCE0B219B0BDE8F08F5F
:1057500001218020FFF7A6FE074601218020FFF7E8
:10576000A1FE8046DFF8F09100944B466D4A8021FF
:10577000384616F04BFFDFF894A1654E029601976C
:10578000DFF86CB1DBF8003000935346664A8021A5
:10579000404616F03BFF0094644B544A8021384643
:1057A00016F034FFDBF80030524A12681492524A65
:1057B0001392524A1292524A1192524A1092524AEB
:1057C0000F920E93CDF834A00C960B94CDF8289040
:1057D0000993CDF820A00797CDF818800594CDF84F
:1057E00010900394CDF808900193CDF800A04B469B
:1057F0004B4A2946179816F009FF0446384605F02B
:1058000065FC404605F062FCE0B29EE7384B196843
:105810003E4B474A37480068109037480F9037484A
:105820000E9037480D9037480C9037480B900A91EE
:105830000993404808900792069105933E480490CA
:105840003E48039002923E480190009134491798D7
:1058500017F044F8264B19682C4B3A4A2548006843
:10586000109025480F9025480E9025480D9025480A
:105870000C9025480B900A910993334808900792A1
:1058800006910593314804902348039002922C48D6
:10589000019000912249179817F020F8DAE7144B8D
:1058A00019681A4B1D4A13480068109012480F904F
:1058B00012480E9012480D9012480C9012480B900E
:1058C0000A9109932248089007920691059321486E
:1058D00004901148039002921948019000911049D8
:1058E000179816F0FBFFB5E7A0870308AC870308FD
:1058F0002C29002028290020F4680308A06D030843
:10590000B4870308606E0308746E0308806E030892
:10591000AC7303084087030838AC0308708703089A
:105920001C890308C4870308F4880308CC8703088C
:1059300058870308E0870308E4870308F48703080F
:105940001888030868870308208803082488030848
:10595000348803083888030898840308384B19688A
:10596000384B394A39480068109039480F90394807
:105970000E9039480D9039480C9039480B900A9197
:105980000993384808900792069105933648049089
:105990003648039002923648019000913549179895
:1059A00016F09CFF56E7264B1968264B324A2748CB
:1059B0000068109026480F9026480E9026480D90BB
:1059C00026480C9026480B900A9109932B48089082
:1059D0000792069105932A48049024480390029266
:1059E0002348019000912349179816F077FF31E77B
:1059F000134B1968134B234A14480068109014483D
:105A00000F9014480E9014480D9014480C901448B0
:105A10000B900A9109931C480890079206910593F0
:105A20001A48049011480390029211480190009185
:105A30001049179816F052FF0CE74FF0FF3084E63C
:105A40002C290020806E030878870308282900206D
:105A5000F4680308A06D0308B4870308606E0308A8
:105A6000746E03085C8803086088030838AC030878
:105A7000188803081C89030888870308808803089E
:105A80008488030898870308B0880308B48803084B
:105A900030B583B01C469DF81850012A0BD0022A5D
:105AA0000BD10A4B5DB10A4A01920094094A16F0E3
:105AB000ADFD03B030BD084BF4E70023F2E7074A21
:105AC00001920094034A16F0A1FDF2E798840308BE
:105AD00068850308E4880308408703088085030875
