:020000040801F1
:1000000000000220DD210108F1200108F320010891
:10001000F5200108F7200108F92001080000000080
:10002000000000000000000000000000418D0108F9
:10003000FB20010800000000E18D0108996B010818
:100040002D2201082D2201082D2201082D22010850
:100050002D2201082D2201082D2201082D22010840
:100060002D2201082D2201082D2201082D22010830
:100070002D2201082D2201082D2201082D22010820
:100080002D2201082D2201082D2201080000000068
:100090000000000000000000000000002D22010808
:1000A000FD2001082D2201082D2201082D22010822
:1000B0002D2201082D2201082D2201082D220108E0
:1000C0002D2201082D2201082D2201082D220108D0
:1000D0002D2201082D2201082D2201080000000018
:1000E0002D2201082D2201082D2201080000000008
:1000F0000000000000000000000000002D220108A8
:10010000000000002D2201082D2201082D220108E7
:1001100000000000000000000000000000000000DF
:100120002D2201082D2201082D2201082D2201086F
:100130002D22010800000000000000000000000067
:100140000000000000000000000000002D22010857
:100150002D2201082D2201082D2201082D2201083F
:100160002D2201082D2201080000000000000000DF
:10017000000000000000000000000000000000007F
:10018000000000002D220108000000000000000017
:080190002D2201082D220108B7
:1001A00010B5054C237833B9044B13B10448AFF3B1
:1001B00000800123237010BDE8070020000000002C
:1001C000DC2D030808B5034B1BB103490348AFF30B
:1001D000008008BD00000000EC070020DC2D0308B3
:1001E00010F8012B11F8013B012A28BF9A42F7D0E1
:1001F000D01A70470000000000000000000000005E
:1002000001F0FF01102A2BDB10F0070F08D010F8C7
:10021000013B013A8B422DD010F0070F42B3F6D1CB
:10022000F0B441EA012141EA014122F007047FF0E4
:1002300000070023F0E80256083C85EA010586EA3B
:10024000010685FA47F5A3FA87F586FA47F6A5FA77
:1002500087F68EB9EED1F0BC01F0FF0102F0070283
:1002600032B110F8013B013A83EA010313B1F8D12E
:100270000020704701387047002D06BF354603380F
:10028000073815F0010F07D1013015F4807F02BF48
:10029000013015F4C03F0130F0BC0138704700BF99
:1002A000034613F8012B002AFBD1181A01387047B6
:1002B00081F0004102E000BF83F0004330B54FEA17
:1002C00041044FEA430594EA050F08BF90EA020F84
:1002D0001FBF54EA000C55EA020C7FEA645C7FEA17
:1002E000655C00F0E2804FEA5454D4EB5555B8BF3A
:1002F0006D420CDD2C4480EA020281EA030382EAAB
:10030000000083EA010180EA020281EA0303362D3C
:1003100088BF30BD11F0004F4FEA01314FF4801C0F
:100320004CEA113102D0404261EB410113F0004F21
:100330004FEA03334CEA133302D0524263EB4303D8
:1003400094EA050F00F0A780A4F10104D5F1200E76
:100350000DDB02FA0EFC22FA05F2801841F10001D1
:1003600003FA0EF2801843FA05F359410EE0A5F1A5
:1003700020050EF1200E012A03FA0EFC28BF4CF0D6
:10038000020C43FA05F3C01851EBE37101F000458C
:1003900007D54FF0000EDCF1000C7EEB00006EEB99
:1003A0000101B1F5801F1BD3B1F5001F0CD3490823
:1003B0005FEA30004FEA3C0C04F101044FEA44527A
:1003C00012F5800F80F09A80BCF1004F08BF5FEA01
:1003D000500C50F1000041EB045141EA050130BDE1
:1003E0005FEA4C0C404141EB0101013C28BFB1F5F3
:1003F000801FE9D291F0000F04BF01460020B1FA3E
:1004000081F308BF2033A3F10B03B3F120020CDA10
:100410000C3208DD02F1140CC2F10C0201FA0CF0EE
:1004200021FA02F10CE002F11402D8BFC2F1200C53
:1004300001FA02F120FA0CFCDCBF41EA0C01904009
:10044000E41AA2BF01EB0451294330BD6FEA040452
:100450001F3C1CDA0C340EDC04F11404C4F120023D
:1004600020FA04F001FA02F340EA030021FA04F34F
:1004700045EA030130BDC4F10C04C4F1200220FAA6
:1004800002F001FA04F340EA0300294630BD21FAE4
:1004900004F0294630BD94F0000F83F4801306BFAA
:1004A00081F480110134013D4EE77FEA645C18BF9E
:1004B0007FEA655C29D094EA050F08BF90EA020F35
:1004C00005D054EA000C04BF1946104630BD91EA2D
:1004D000030F1EBF0021002030BD5FEA545C05D130
:1004E0004000494128BF41F0004130BD14F580046F
:1004F0003CBF01F5801130BD01F0004545F0FE41E3
:1005000041F470014FF0000030BD7FEA645C1ABF17
:10051000194610467FEA655C1CBF0B46024650EA4E
:10052000013406BF52EA033591EA030F41F400217A
:1005300030BD00BF90F0000F04BF0021704730B500
:100540004FF4806404F132044FF000054FF00001D5
:1005500050E700BF90F0000F04BF0021704730B596
:100560004FF4806404F1320410F0004548BF40426B
:100570004FF000013EE700BF42004FEAE2014FEAC0
:1005800031014FEA02701FBF12F07F4393F07F4F9B
:1005900081F06051704732F07F4208BF704793F09E
:1005A0007F4F04BF41F40021704730B54FF46074B1
:1005B00001F0004521F000411CE700BF50EA0102B4
:1005C00008BF704730B54FF000050AE050EA01025D
:1005D00008BF704730B511F0004502D5404261EBCD
:1005E00041014FF4806404F132045FEA915C3FF40E
:1005F000D8AE4FF003025FEADC0C18BF03325FEAAB
:10060000DC0C18BF033202EBDC02C2F1200300FA5B
:1006100003FC20FA02F001FA03FE40EA0E0021FA80
:1006200002F11444BDE600BF70B54FF0FF0C4CF46E
:10063000E06C1CEA11541DBF1CEA135594EA0C0F20
:1006400095EA0C0F00F0DEF82C4481EA030621EA5B
:100650004C5123EA4C5350EA013518BF52EA033596
:1006600041F4801143F4801338D0A0FB02CE4FF048
:100670000005E1FB02E506F00042E0FB03E54FF078
:100680000006E1FB03569CF0000F18BF4EF0010E70
:10069000A4F1FF04B6F5007F64F5407404D25FEA6C
:1006A0004E0E6D4146EB060642EAC62141EA55511F
:1006B0004FEAC52040EA5E504FEACE2EB4F1FD0C61
:1006C00088BFBCF5E06F1ED8BEF1004F08BF5FEADF
:1006D000500E50F1000041EB045170BD06F0004691
:1006E00046EA010140EA020081EA0301B4EB5C043E
:1006F000C2BFD4EB0C0541EA045170BD41F4801136
:100700004FF0000E013C00F3AB8014F1360FDEBF5A
:10071000002001F0004170BDC4F10004203C35DA36
:100720000C341BDC04F11404C4F1200500FA05F3B9
:1007300020FA04F001FA05F240EA020001F000425A
:1007400021F0004110EBD37021FA04F642EB0601D0
:100750005EEA430E08BF20EAD37070BDC4F10C04FA
:10076000C4F1200500FA04F320FA05F001FA04F2BE
:1007700040EA020001F0004110EBD37041F10001AA
:100780005EEA430E08BF20EAD37070BDC4F12005B5
:1007900000FA05F24EEA020E20FA04F301FA05F21D
:1007A00043EA020321FA04F001F0004121FA04F2C5
:1007B00020EA020000EBD3705EEA430E08BF20EA95
:1007C000D37070BD94F0000F0FD101F000464000CF
:1007D00041EB010111F4801F08BF013CF7D041EA51
:1007E000060195F0000F18BF704703F00046520055
:1007F00043EB030313F4801F08BF013DF7D043EA26
:100800000603704794EA0C0F0CEA135518BF95EADB
:100810000C0F0CD050EA410618BF52EA4306D1D162
:1008200081EA030101F000414FF0000070BD50EA81
:10083000410606BF1046194652EA430619D094EA0B
:100840000C0F02D150EA013613D195EA0C0F05D1F5
:1008500052EA03361CBF104619460AD181EA030149
:1008600001F0004141F0FE4141F470014FF0000001
:1008700070BD41F0FE4141F4780170BD70B54FF09C
:10088000FF0C4CF4E06C1CEA11541DBF1CEA13551C
:1008900094EA0C0F95EA0C0F00F0A7F8A4EB0504FE
:1008A00081EA030E52EA03354FEA013100F08880F5
:1008B0004FEA03334FF0805545EA131343EA1263BE
:1008C0004FEA022245EA111545EA10654FEA002673
:1008D0000EF000419D4208BF964244F1FD0404F52C
:1008E000407402D25B084FEA3202B61A65EB030588
:1008F0005B084FEA32024FF480104FF4002CB6EB45
:10090000020E75EB030E22BFB61A754640EA0C00C4
:100910005B084FEA3202B6EB020E75EB030E22BF04
:10092000B61A754640EA5C005B084FEA3202B6EB45
:10093000020E75EB030E22BFB61A754640EA9C0004
:100940005B084FEA3202B6EB020E75EB030E22BFD4
:10095000B61A754640EADC0055EA060E18D04FEA92
:10096000051545EA16754FEA06164FEAC30343EA32
:1009700052734FEAC2025FEA1C1CC0D111F4801FFF
:100980000BD141EA00014FF000004FF0004CB6E7F8
:1009900011F4801F04BF01430020B4F1FD0C88BF97
:1009A000BCF5E06F3FF6AFAEB5EB030C04BFB6EBA2
:1009B000020C5FEA500C50F1000041EB045170BD95
:1009C0000EF0004E4EEA113114EB5C04C2BFD4EBC2
:1009D0000C0541EA045170BD41F480114FF0000E46
:1009E000013C90E645EA060E8DE60CEA135594EAC2
:1009F0000C0F08BF95EA0C0F3FF43BAF94EA0C0FC5
:100A00000AD150EA01347FF434AF95EA0C0F7FF439
:100A100025AF104619462CE795EA0C0F06D152EA8D
:100A200003353FF4FDAE1046194622E750EA410671
:100A300018BF52EA43067FF4C5AE50EA41047FF482
:100A40000DAF52EA43057FF4EBAE12E74FF0FF3CE7
:100A500006E000BF4FF0010C02E000BF4FF0010CB8
:100A60004DF804CD4FEA410C7FEA6C5C4FEA430C31
:100A700018BF7FEA6C5C1BD001B050EA410C0CBF80
:100A800052EA430C91EA030F02BF90EA020F0020E2
:100A9000704710F1000F91EA030F58BF994208BF49
:100AA00090422CBFD8176FEAE37040F00100704706
:100AB0004FEA410C7FEA6C5C02D150EA013C07D15D
:100AC0004FEA430C7FEA6C5CD6D152EA033CD3D0A8
:100AD0005DF8040B704700BF8446104662468C46A2
:100AE0001946634600E000BF01B5FFF7B7FF0028D5
:100AF00048BF10F1000F01BD4DF808EDFFF7F4FFFE
:100B00000CBF012000205DF808FB00BF4DF808ED88
:100B1000FFF7EAFF34BF012000205DF808FB00BFAB
:100B20004DF808EDFFF7E0FF94BF012000205DF8CD
:100B300008FB00BF4DF808EDFFF7CEFF94BF012082
:100B400000205DF808FB00BF4DF808EDFFF7C4FF7B
:100B500034BF012000205DF808FB00BF4FEA410CC4
:100B60007FEA6C5C02D150EA013C0AD14FEA430CA7
:100B70007FEA6C5C02D152EA033C02D14FF00000E4
:100B800070474FF0010070474FEA410212F5001222
:100B900015D211D56FF47873B3EB625212D94FEAC4
:100BA000C12343F0004343EA505311F0004F23FAAE
:100BB00002F018BF404270474FF00000704750EA03
:100BC000013005D111F0004008BF6FF000407047C0
:100BD0004FF00000704700BF4A0011D212F500121A
:100BE00011D20DD56FF47873B3EB62520ED44FEA85
:100BF000C12343F0004343EA505323FA02F0704705
:100C00004FF00000704750EA013002D14FF0FF3042
:100C100070474FF0000070474FEA4102B2F1E043E5
:100C200024BFB3F5001CDCF1FE5C0DD901F0004CD3
:100C30004FEAC0024CEA5070B2F1004F40EB830023
:100C400008BF20F00100704711F0804F21D113F14F
:100C50003872BCBF01F00040704741F480114FEA88
:100C60005252C2F11802C2F1200C10FA0CF320FA11
:100C700002F018BF40F001004FEAC1234FEAD3232E
:100C800003FA0CFC40EA0C0023FA02F34FEA430398
:100C9000CCE77FEA625307D150EA01331EBF4FF021
:100CA000FE4040F44000704701F0004040F0FE403C
:100CB00040F40000704700BF7BB972B90029BEBF85
:100CC00000204FF0004106E008BF00281CBF6FF075
:100CD00000414FF0FF3000F0FFB9ADF1080C6DE9B5
:100CE00004CE002909DB002B1ADB00F097F8DDF8B1
:100CF00004E0DDE9022304B07047404261EB4101AA
:100D0000002B1BDB00F08AF8DDF804E0DDE90223AC
:100D100004B0404261EB4101524263EB4303704730
:100D2000524263EB430300F079F8DDF804E0DDE9BB
:100D3000022304B0404261EB41017047524263EB31
:100D4000430300F06BF8DDF804E0DDE9022304B0B2
:100D5000524263EB4303704753B94AB9002908BFB5
:100D600000281CBF4FF0FF314FF0FF3000F0B4B946
:100D7000ADF1080C6DE904CE00F050F8DDF804E0A8
:100D8000DDE9022304B07047430803F05533C01A6D
:100D9000830803F0333300F03330184400EB1010B5
:100DA00000F00F3000EB002000EB0040000E704719
:100DB00038B50022002304460D46FFF7A7FE28B9E8
:100DC00020462946BDE8384000F00AB8204605F123
:100DD000004100F005F8404261EB410138BD00BF21
:100DE000D0B50C4B002206460F46FFF71DFCFFF75F
:100DF000F3FE0446FFF79EFB074B0022FFF714FCAF
:100E000002460B4630463946FFF756FAFFF7E4FE36
:100E10002146D0BD0000F03D0000F0412DE9F04733
:100E2000089D0C46002B4ED194468C458646B2FA5E
:100E300082F262D94AB1C2F12003914020FA03F351
:100E40000CFA02FC194300FA02FE4FEA1C471FFA93
:100E50008CF6B1FBF7F44FEA1E4307FB141143EA8B
:100E6000014304FB06F199420AD91CEB030304F188
:100E7000FF3080F01281994240F20F81023C6344BE
:100E8000591A1FFA8EF3B1FBF7F007FB101143EA72
:100E9000014300FB06F69E420AD91CEB030300F156
:100EA000FF3180F0FC809E4240F2F98063440238BA
:100EB0009B1B40EA044000211DB1D3400022C5E93C
:100EC0000032BDE8F0878B4205D90DB1C5E90001BC
:100ED00000210846F5E7B3FA83F1002946D1A34281
:100EE00002D39042C0F0F080861A64EB0303012025
:100EF000002DE6D0C5E90063E3E7002A40F09080CA
:100F0000A1EB0C044FEA1C481FFA8CF70121B4FB3B
:100F1000F8F64FEA1E4308FB164443EA044307FB76
:100F200006F0984208D91CEB030306F1FF3402D205
:100F3000984200F2CD8026461C1A1FFA8EF3B4FBAD
:100F4000F8F008FB104443EA044300FB07F79F4214
:100F500008D91CEB030300F1FF3402D29F4200F2D8
:100F6000B0802046DB1B40EA0640A5E7C1F1200621
:100F70008B4022FA06F71F4320FA06FC04FA01F31D
:100F800043EA0C03F44000FA01F8380C4FEA134925
:100F9000B4FBF0FE1FFA87FC00FB1E4449EA044440
:100FA0000EFB0CF9A14502FA01F20AD93C190EF127
:100FB000FF3A80F08480A14540F28180AEF1020EBC
:100FC0003C44A4EB09041FFA83F9B4FBF0F300FBE3
:100FD000134449EA044403FB0CFCA44507D93C191B
:100FE00003F1FF3067D2A44565D9023B3C4443EA94
:100FF0000E40A0FB0293A4EB0C049C42CE469C4600
:1010000051D34ED055B1B8EB0E0364EB0C0404FA87
:1010100006F6CB401E43CC40C5E90064002150E7F2
:10102000C2F1200320FA03F10CFA02FC24FA03F3C4
:1010300094400C434FEA1C4800FA02FE1FFA8CF75A
:10104000B3FBF8F008FB1031230C43EA014300FB2B
:1010500007F1994208D91CEB030300F1FF362CD2AB
:1010600099422AD9023863445B1AA4B2B3FBF8F15F
:1010700008FB113344EA034401FB07F3A34208D9F8
:101080001CEB040401F1FF3613D2A34211D902393B
:101090006444E41A41EA004139E70446F0E60846B0
:1010A00006E7C845AED2B9EB020E63EB070C013878
:1010B000A8E73146EDE7034699E73046D4E7D64640
:1010C0007FE7634402384DE70646234608460FE7AC
:1010D000023E634430E700BF704700BF08B50022FE
:1010E0004FF48051014803F0B0FE08BD00040240F7
:1010F00008B501224FF48051014803F0A6FE08BD57
:101100000004024008B500224FF40041014803F0FA
:101110009CFE08BD0000024008B501224FF40041CA
:10112000014803F092FE08BD0000024010B58EB0E9
:10113000484B93E803000C90ADF834100DF1240CEB
:1011400003F1080494E807008CE80700143393E8DF
:1011500003000790ADF8201004AB94E8070083E883
:1011600007006FE000231A4601A93B48006805F01C
:10117000E6FE00240EE000220EAB03EB440333F83E
:10118000081C0EAB03EB840353F8140C03F05DFE54
:101190000134E4B2022C5BD804F138036B4413F839
:1011A000343C002BE7D001220EAB03EB440333F8B1
:1011B000081C0EAB03EB840353F8140C03F045FE3C
:1011C000E6E70EAB03EB440203EB840332F8081CA2
:1011D00053F8140C03F032FE04F138036B4403F8A7
:1011E000300C0134E4B2022CEBD91C4C206805F021
:1011F000F4FE00231A4602A9206805F05EFE0024D2
:1012000011E00EAB03EB440203EB840332F81C1C29
:1012100053F8280C03F012FE04F138036B4403F872
:101220002C0C0134E4B2022CEBD90D4C206805F0F3
:10123000D4FE00231A4603A9206805F03EFE0120D3
:1012400005F043FD044B186805F0BAFE002889D16B
:101250000024C8E7F82D030814080020180800200F
:101260001C08002084B008B50DF1080C8CE80F00B4
:1012700000231A4661460448006805F01EFEBDE8DA
:10128000084004B0704700BF0C08002070B58AB059
:101290004FF47A7005F019FD05F0B0FB642005F0FD
:1012A00014FD0021012005F00DFB002005F0CEFA11
:1012B000484C01222146484805F058FB01222146AE
:1012C000464805F053FB0B21012005F0FBFA0122F3
:1012D0002146434805F04AFB1621012005F0F2FAA9
:1012E000012221463F4805F041FB2121012005F064
:1012F000E9FA3D4B59680A784B788878CD780E79B1
:1013000049790391029601950090384905A818F093
:1013100025F80122214605A805F028FB05F018FC58
:1013200040F6B83007F03CF8002503E04FF47A703F
:1013300005F0CBFC0021012005F0C4FA002005F0E7
:1013400085FA244C01222146294805F00FFB264B43
:101350005B689A68130E0193C2F307430093C2F3CC
:101360000723D2B2234905A817F0F8FF012221462E
:1013700005A805F0FBFA0A21012005F0A3FA0122D5
:1013800021461D4805F0F2FA01352A461B4905A8F9
:1013900017F0E4FF0122214605A805F0E7FA05F061
:1013A000D7FB4FF47A7301227821154804F098F89E
:1013B0000028BBD0124803F0BDFF4FF47A7006F04E
:1013C000EFFF00F0C9FB4FF47A7006F0E9FF05F07B
:1013D00015FBE6E78800002074300308803003081E
:1013E0008C3003089830030834080020A03003082C
:1013F000C0300308C4300308D4300308F079030870
:101400003C08002008B5012914D002291AD001B1E6
:1014100008BD4AB1012AFBD102230022014612482D
:10142000006805F0B1FFF3E701460F4B186806F0BE
:10143000BEFAEDE7002AEBD101460C4B186806F026
:10144000B6FAE5E74AB1012AE2D1022300220146B9
:101450000748006805F098FFDAE70146054B186871
:1014600006F0A5FAD4E700BF100800201C080020F1
:10147000140800201808002010B5B4B000233393DE
:101480003B4B3C4A3C493D4803F072F83C493D48DF
:1014900008F04EF8002831DB3B4808F03DF83B4CA3
:1014A000204608F02DF83A4808F02AF8204608F0BF
:1014B00033F8384808F030F8374808F02DF8374846
:1014C00008F02AF8002233A9354807F06DFFC0B1B3
:1014D0000121334807F0A6FF0446C62201A907F000
:1014E000D1FF204607F0C2FF00228DF8042002231E
:1014F00001A92C48006805F047FF13E003F02EFB1C
:10150000CAE7C622002101A818F0EAFA0223002245
:1015100001A92448006805F037FF03E04FF47A7012
:1015200005F0D3FB002201A91E4B186806F03FFA14
:101530009DF80430002BF1D0194C204607F0E0FF55
:101540000221204607F06EFF04460028E6D0C6229E
:1015500001A907F0A3FF204607F088FF00228DF8BD
:101560000420022301A90F48006805F00DFFD5E70C
:10157000FD160108211701081911010805110108BC
:101580004D17010839170108D8300308E030030867
:10159000EC300308FC30030808310308103103085D
:1015A000183103081008002030B5D1B04FF4FA60AC
:1015B00005F08BFB3C4800F057FB012000F05AFB84
:1015C0003A49012000F05CFB4FF4FA6448E0002344
:1015D0001A4607A93648006805F0B1FC02213548D3
:1015E00007F020FF05469DF81D210DF11D0107F0B4
:1015F00055FF284607F03AFF38E048A807F02CFED0
:101600004E9B04934D9B03934C9B02934B9B0193E6
:101610004A9B0093499B489A2749012000F030FBE0
:10162000264C63689A68130E0193C2F30743009334
:10163000C2F30723D2B22249012000F021FB6168E6
:101640000A784B788878CC780D794979039102959E
:10165000019400901B49012000F012FB002401348A
:10166000134B186805F0ACFC0028B0D14FF4FA70A9
:1016700005F02BFBB4F5FA6FF1D100224FA90D480C
:1016800007F092FE4F9A4CF250339A42B5D90E4C65
:10169000204607F035FF2146064807F025FF0B4995
:1016A000012000F0EDFAA8E7651201082C310308CB
:1016B0000C0800204031030874310308340800206E
:1016C000083203082432030850310308603103084C
:1016D00000B587B08DF80F104FF0FF330093012352
:1016E0000DF117020DF10F01034804F04CFD9DF8B8
:1016F000170007B05DF804FB9408002000B583B024
:101700008DF807004FF0FF3301220DF10701034868
:1017100004F057FC03B05DF804FB00BFEC080020A8
:1017200008B50A464FF0FF330146024804F055FE63
:1017300008BD00BFEC08002008B54FF0FF31024B98
:10174000186805F019FB08BD0408002008B5024B15
:10175000186805F040FB08BD0408002008B52948BA
:1017600005F0C1FA284B1860284805F0BCFA284B50
:101770001860284A0321012005F054FB264B18600D
:10178000264A0321012005F04DFB254B1860254A10
:101790000321012005F046FB234B1860234AC62194
:1017A000012005F03FFB224B1860224A4FF4817163
:1017B0000F2005F037FB204B1860204A00212048FD
:1017C00005F024FA1F4B18601F4A00211F4805F03E
:1017D0001DFA1F4B18601F4A00211F4805F016FA1A
:1017E0001E4B18601E4A00211E4805F00FFA1E4BC2
:1017F00018601E4A00211E4805F008FA1D4B1860AB
:1018000008BD00BF28330308080800201833030868
:1018100004080020983303081C08002080330308C4
:101820001808002068330308140800205033030808
:1018300010080020383303080C0800204034030847
:10184000A1180108300800201C3403082D110108DC
:101850002C080020F83303088D1201082808002006
:10186000D43303087914010824080020B033030896
:10187000A91501082008002008B500224FF4807146
:10188000014803F0E2FA08BD0000024008B5012259
:101890004FF48071014803F0D8FA08BD00000240FF
:1018A00030B5EBB022AD5D4B0FCB85E80F0002AC3D
:1018B00080220021204618F013F940238DF80830CB
:1018C00022238DF80930564B1A7C8DF80A209A7C19
:1018D0008DF80B201A7D8DF80C201B7E8DF80D30B5
:1018E00001238DF827308DF828304E4B0B930C9543
:1018F0004D4B58A818605C600FF0C8F84B4B0322A2
:101900001A6001F01FFC04460FE0FFF7B5FF4FF42B
:10191000FA7005F0DAF9FFF7B9FF4FF4FA6005F055
:10192000D4F902A958A814F0FDFABDF84C30002BE8
:10193000EBD0062102A802F027F83D4801F006FC92
:10194000394B22463B4958A812F01AFD06E0012106
:1019500058A815F081F8012005F0B7F99DF88430FA
:10196000032BF4D1304B5B689A68130E0193C2F3DA
:1019700007430093C2F30723D2B22F49012000F09E
:101980007FF90022114626A8FFF73CFD9DF899300B
:10199000D3B12A49012000F073F9254B01930DF2D0
:1019A0003D13009347AB0DF19A0202A958A801F02C
:1019B00029FF58A802F0BEFB02A958A802F086FD34
:1019C00006F0E0FB054608E01D49012000F058F94B
:1019D000EFE7012005F079F9254606F0D3FB044630
:1019E000411B58A815F038F80B9BDB6802A89847F4
:1019F0000028EED1FFF740FF642005F066F9FFF7FD
:101A000045FF40F6B83005F060F90B9B1B6802A853
:101A1000984741F6583005F058F9E5E7142E0308C9
:101A2000007AFF1F9400002034080020A800002046
:101A3000051401084C320308083203086032030819
:101A4000783203082DE9F04389B00024039404940C
:101A500005940694079400943C4B1A6B42F0800264
:101A60001A631A6B02F080020092009A01941A6BBA
:101A700042F001021A631A6B02F001020192019A0C
:101A800002941A6B42F002021A631B6B03F002030A
:101A90000293029B2E4E22464FF4F071304603F023
:101AA000D4F92C4D22460721284603F0CEF9012215
:101AB0004FF48051284603F0C8F901224FF4004149
:101AC000304603F0C2F94FF00709CDF80C900494AA
:101AD0004FF00208CDF8148003A9304603F042F815
:101AE000E0230393012704970594069403A9304645
:101AF00003F038F8CDF80C9004970594069403A9E8
:101B0000284603F02FF84FF480530393049705946D
:101B1000CDF8188003A9284603F024F84FF40143B8
:101B2000039304970594CDF8188003A9304603F079
:101B300019F84FF4807303930494059403A928467D
:101B400003F010F809B0BDE8F08300BF0038024090
:101B5000000002400004024008B50B480B4B036034
:101B60000B4B436000238360C3604FF480420261EB
:101B700043618361C361036203F0FEFA00B908BDEB
:101B800000F028F9FBE700BF3C08002000540040AB
:101B9000400D030030B589B00023039304930593EF
:101BA000069307930268154B9A4201D009B030BDE5
:101BB00000250195124C236B43F002032363236B32
:101BC00003F002030193019BC023039312230493A8
:101BD00001230593032306930423079303A90948CC
:101BE00002F0C0FF0295236C43F400132364236CBE
:101BF00003F400130293029BD8E700BF0054004097
:101C0000003802400004024002680A4B9A4200D0A9
:101C1000704710B5084A136C23F400131364074C83
:101C20004021204603F082F88021204603F07EF810
:101C300010BD00BF005400400038024000040240C4
:101C400084B08DE80F0004B0704738B501FB00F494
:101C5000204607F041FA054618B12246002117F048
:101C60003FFF284638BD000008B1014A10607047A8
:101C700000000020014B1870704700BF9008002042
:101C80000EB4F0B5ADF51C7D444B1B78834205D9ED
:101C90000DF51C7DBDE8F04003B0704704460121FE
:101CA0004FF48070FFF7D1FF05460028F0D04FF4C5
:101CB000817200215BA817F013FF8DF86C4114F0BE
:101CC0005FFFFEF77BFC06460F460022344BFEF713
:101CD000D5FDFFF76DF8CDE958014FA958A817F0C9
:101CE00095FF4FAB2F4A40213FA818F0A1FD0446B5
:101CF00030463946FEF748FF2B4A82FB0032C317B5
:101D0000C3EBA2134FF47A7202FB1303274AC4F108
:101D100040013FA8204417F0B9F90444631C202275
:101D20003FA90A550022CA54A2AB5A930DF26D1670
:101D3000A19AFD21304617F071FC04469DF86C21F4
:101D400001961B4B53F8223000933FAB194A4FF4D6
:101D50008071284617F09AF9F52C1BD82846FEF713
:101D60009FFA8DF86D024FF4807229460DF26D10C6
:101D700017F0FDFE104B1E6846B15BACF2225FA966
:101D8000684619F0E9F894E80F00B047284607F0D4
:101D900025FA7DE7F6238DF86D32E4E79008002000
:101DA00000408F4064340308D34D62107834030838
:101DB00004000020803403080000002008B50268F9
:101DC000034B9A4200D008BD02F028FEFBE700BF9B
:101DD0000040014072B6FEE700B595B03022002108
:101DE00008A817F07DFE0023039304930593069340
:101DF000079301931F4A116C41F080511164126CDA
:101E000002F080520192019A02931B4B1A6842F42D
:101E100040421A601B6803F440430293029B012373
:101E200008934FF48033099302220E924FF48003FB
:101E30000F9304231093642111911292139308A815
:101E400003F018FC88B90F230393022304930023A3
:101E500005934FF4805206920793032103A803F0E1
:101E600073FE20B915B05DF804FBFFF7B3FFFFF771
:101E7000B1FF00BF003802400070004000B583B0E1
:101E800072B6104B104A9A6062B6104B019302E092
:101E9000019B013B0193019B002BF9DC02F0A4FDA7
:101EA000FFF79AFFFFF7CEFD00F034F8FFF754FE7E
:101EB00000F00EF804F07CFEFFF750FC04F08AFE00
:101EC000FEE700BF00ED00E00000010840420F0007
:101ED00008B50E480E4B03604FF482734360002335
:101EE0008360C360036143614FF400728261082222
:101EF000C2610362436283620A23C36204F002F890
:101F000000B908BDFFF766FFFBE700BFEC08002043
:101F10000030014008B50D480D4B03604FF482734B
:101F2000436000238360C360036143614FF4007228
:101F30008261C3610362436283620A23C36203F066
:101F4000E1FF00B908BDFFF745FFFBE7940800205B
:101F50000038004000B58BB000230593069307932B
:101F6000089309930368284A934205D0274A93426D
:101F700025D00BB05DF804FB00210191244B5A6C75
:101F800042F480525A645A6C02F480520192019ACF
:101F900002911A6B42F002021A631B6B03F00203F8
:101FA0000293029B3823059302230693032308938D
:101FB0000523099305A9174802F0D4FDD9E70021AC
:101FC0000391134B1A6C42F480421A641A6C02F4A7
:101FD00080420392039A04911A6B42F002021A6340
:101FE0001B6B03F002030493049B4FF460430593BF
:101FF00002230693032308930523099305A90548A3
:1020000002F0B0FDB5E700BF0030014000380040ED
:10201000003802400004024000B583B00022009264
:102020000D4B596C41F480415964596C01F4804165
:10203000009100990192196C41F0805119641B6C58
:1020400003F080530193019B0F216FF0010002F018
:1020500071FD03B05DF804FB0038024030B589B073
:102060000546002401941D4B5A6C42F480325A6498
:102070005B6C03F480330193019B02A903A803F076
:1020800039FE03F027FE164AA2FB00239B0C013BFE
:102090001448154A026040F2E732C26043600461AE
:1020A0008460846104F0A4FB044610B1204609B0AA
:1020B00030BD0C4804F056FA04460028F6D118202A
:1020C00002F048FD0F2D01D90124EFE70022294637
:1020D000182002F02FFD054B1D60E7E70038024095
:1020E00083DE1B434409002000400140840000209F
:1020F000FEE7FEE7FEE7FEE7FEE7704708B50248A9
:1021000004F070FA08BD00BF4409002001207047A8
:1021100008B518F0E9FE162303604FF0FF3008BD44
:1021200008B54FF0FF31FFF7F3FFFEE770B50C463F
:102130001646002506E0AFF30080214601F8010BAA
:1021400001350C46B542F6DB304670BD70B50C4625
:102150001646002504E014F8010BAFF300800135AA
:10216000B542F8DB304670BD4FF0FF3070474FF49A
:1021700000534B60002070470120704700207047DB
:1021800010B503460C4A0D490D48006840B10C4893
:1021900000680344521A934206D8094A136010BDDE
:1021A0000748084C0460F2E718F09EFE0C23036019
:1021B0004FF0FF30F3E700BF0000022000080000EE
:1021C0009009002058830120034AD2F8883043F454
:1021D0007003C2F88830704700ED00E0DFF834D0BB
:1021E000FFF7F2FF0C480D490D4A002302E0D458D6
:1021F000C4500433C4188C42F9D30A4A0A4C002351
:1022000001E013600432A242FBD318F07BFEFFF71B
:1022100035FE70470000022000000020E807002083
:102220006C890308E807002058830120FEE70000BE
:1022300008B5034B034AC8210FF03CF908BD00BFA5
:1022400050730308C434030870B588B006460C46C2
:1022500004AD274928460FF00FFA0023009395E8B4
:102260000C0094E803000FF0BBFBA8B1214B1B68E6
:10227000002203A92048984738B1204B204AC821A2
:1022800030460FF017F908B070BD1E4B1C4AC8212C
:1022900030460FF00FF9F6E706AD1B4928460FF060
:1022A000EBF90023009395E80C0094E803000FF08D
:1022B00097FBA0B10F4BDB690F491448984730B129
:1022C0000E4B0F4AC82130460FF0F4F8DBE7104BF5
:1022D0000B4A4FF4FA7130460FF0ECF8D3E70D4B90
:1022E000074A4FF4C87130460FF0E4F8CBE700BF5F
:1022F000643503081C000020EC300308683503082F
:10230000A0350308103603084C360308543603087A
:102310006C360308B036030870B584B005460C4629
:1023200002AE144930460FF0A7F90023009396E857
:102330000C0094E803000FF053FB98B10E4B1B6A9E
:102340000E48984738B10E4B0E4AC82128460FF068
:10235000B1F804B070BD0C4B0A4AC82128460FF0F2
:10236000A9F8F6E7094B074A4FF4C87128460FF061
:10237000A1F8EEE74C3603081C000020EC300308FF
:1023800008370308A03503084437030888370308D3
:1023900070B584B005460C4602AE124930460FF0C7
:1023A0006BF90023009396E80C0094E803000FF00B
:1023B00017FB78B10C4E336A0C4C20469847736A71
:1023C000204698470A4B0B4AC82128460FF072F85E
:1023D00004B070BD084B074A4FF4C87128460FF08F
:1023E00069F8F5E74C3603081C000020D8300308D4
:1023F000D8370308A03503088837030810B590B014
:10240000044609A806F028FF0C490120FFF738FC14
:102410000F9B06930E9B05930D9B04930C9B0393BC
:102420000B9B02930A9B0193099B0093044B054A63
:10243000C82120460FF03EF810B010BD2038030828
:102440004038030844390308F0B591B006460C46FD
:102450000CAD4B4928460FF00FF90023009395E887
:102460000C0094E803000FF0BBFA28B3454C236836
:10247000002201210AA898472368002202210DF1B9
:102480002B0098479DF828309DF829209DF82A10A8
:102490009DF82B009DF82C409DF82D500595049437
:1024A0000390029101920093374B384AC82130467D
:1024B0000FF000F811B0F0BD0EAD354928460FF011
:1024C000DBF80023009395E80C0094E803000FF07C
:1024D00087FA00284BD008AB2E4A04F5007103C9D7
:1024E0000EF0AEF800283AD00AAB2B4A04F500747F
:1024F00094E803000EF0A4F8002830D0DDE90801CC
:10250000FEF76AFBC4B2DDE90A01FEF765FBC5B25E
:10251000631EDBB2022B01D8012D07D91F4B1B4ACA
:102520004FF4C87130460EF0C5FFC3E7154F3B6846
:102530000022022107A8984704F13F036B4403F8E7
:10254000245C3B680122022107A89847019500946A
:10255000134B0E4AC82130460EF0ACFFAAE7114BD0
:102560000A4A4FF4C87130460EF0A4FFA2E70E4BA2
:10257000064A4FF4C87130460EF09CFF9AE700BF40
:10258000643503089409002088390308A03503083E
:102590004C360308BC390308C8390308083A030855
:1025A000D0390308443A0308803A030838B501FBE0
:1025B00000F4204606F090FD054618B122460021A1
:1025C00017F08EFA284638BDF0B58BB006460C469B
:1025D00006AD844928460FF04FF80023009395E894
:1025E0000C0094E803000FF0FBF900283BD0C62153
:1025F0000120FFF7DBFF054640B37B4B1B68002241
:102600001146984705F1A5073846FDF749FEC4B2C3
:1026100022462A21384617F063FA2C44002384F816
:10262000A5306B78EBB1714BAA1C05F184010397BF
:102630000291019200936E4B6E4AC82130460EF013
:1026400039FF284606F0CAFD0BB0F0BD6A4B694A57
:102650004FF4FA7130460EF02DFF284606F0BEFD0D
:10266000F2E7664BE0E708AD654928460FF004F84D
:102670000023009395E80C0094E803000FF0B0F9F4
:10268000002800F0A780C6210120FFF78FFF054634
:1026900010B305AB5B4A04F5007103C90DF066FD8C
:1026A000002824DB6B1C584A04F5007797E80300E8
:1026B0000DF0ECFF554A97E803000FF0CDFF0746F9
:1026C00028B314F079FC0346E0B10433032B79D826
:1026D000DFE803F070686052474B464A4FF4FA71E6
:1026E00030460EF0E7FE284606F078FDACE7484B92
:1026F000404A4FF4C87130460EF0DCFE284606F022
:102700006DFDA1E77F223946A81C17F030FA384644
:1027100006F064FD3F4A04F5007393E803000FF0F0
:102720009BFF074628B12022014605F1840017F0DF
:102730001EFA384606F052FD374A04F5007494E854
:1027400003000FF089FF044628B12022014605F15D
:10275000A50017F00CFA204606F040FD01222A7071
:10276000214B1B680021284698472C4B214AC82141
:1027700030460EF09FFEC1E7294B1E4A4FF4C87148
:1027800030460EF097FE384606F028FD284606F043
:1027900025FD59E7234B174A4FF4C87130460EF018
:1027A00089FEF0E7204B134A4FF4C87130460EF013
:1027B00081FEE8E71D4B0F4A4FF4C87130460EF01A
:1027C00079FEE0E71A4B0B4A4FF4C87130460EF021
:1027D00071FED8E7174B074A4FF4C87130460EF028
:1027E00069FE31E76435030894090020D43A0308F0
:1027F000203B0308A0350308E43A0308DC3A030849
:102800004C360308683B03089C3B0308A83B0308BD
:102810006C3B0308F03C0308FC3C0308083D03083C
:10282000B43B0308F83B0308443C0308843C03081A
:10283000BC3C0308803A03082DE9F04FC7B081463D
:102840008A4672228E4927A818F086FB01211E2095
:10285000FFF7ACFE064601212E20FFF7A7FE074634
:1028600001212E20FFF7A2FE804601214FF4407087
:10287000FFF79CFE044601214FF4C070FFF796FE5F
:102880000546002E00F0E380002F00F0E080B8F154
:10289000000F00F0DC80002C00F0D980002800F050
:1028A000D6800DF5887B774958460EF0E5FE00236B
:1028B00000939BE80C009AE803000FF091F80028C1
:1028C00000F0BD8000F098FF824658B390F8AC301D
:1028D00013F0200F2CD190F8AD3013F0200F2DD035
:1028E0001E226949304617F042F9DFF8C4B10AF1F7
:1028F000080300935B46654A2E2140460EF0DCF843
:102900000AF11C0300935B46604A2E2138460EF004
:10291000D3F82046FDF7C4FC5D4B1B8823524FF0D3
:10292000010A28E01E225B49304617F020F9F0E743
:102930001E225949304617F01AF9D6E71E22574988
:10294000304617F014F9D0E75FFA8AF301228021AC
:1029500007A801F041FB07A9204617F0C9F8204657
:10296000FDF79EFC034621184D4A1068E05013798C
:102970000B710AF1010ABAF1030FE5DD4FF0010A0C
:1029800007E02046FDF78CFC414B1B8823520AF1DF
:10299000010ABAF1030F18DC5FFA8AF302228021E0
:1029A00007A801F019FB07A9204617F0A1F8BAF112
:1029B000020FE6DC2046FDF773FC03462118384A77
:1029C0001068E05013790B71E1E72846FDF768FCC9
:1029D0002F4B1B882B524FF0010A07E02846FDF7CA
:1029E0005FFC2B4B1B882B520AF1010ABAF1030F33
:1029F00018DC5FFA8AF30222802107A801F0D4FADA
:102A000007A9284617F074F8BAF1020FE6DC284649
:102A1000FDF746FC03462918214A1068E85013794F
:102A20000B71E1E7049503940297CDF804800096BA
:102A300027AB1C4AC82148460EF03CFD0EE01A4B5D
:102A4000184A4FF4C87148460EF034FD06E0174BA3
:102A5000144A4FF4C87148460EF02CFD304606F07B
:102A6000BDFB384606F0BAFB404606F0B7FB2046F1
:102A700006F0B4FB284606F0B1FB47B0BDE8F08F86
:102A8000B03D030864350308503D0308643D030866
:102A9000683D0308E0740308443D0308583D0308FB
:102AA0006C3D0308A0350308803A0308743D030811
:102AB00015320208F0B58DB007460C46154608AE33
:102AC000234930460EF0D8FD0023009396E80C0011
:102AD00094E803000EF084FF18B3002302930393DD
:102AE00004930593069307931A4B02931A4B07938B
:102AF00045B1012D0ED002AB184A214638460FF0E1
:102B00002BF905E002AB154A214638460FF024F9AF
:102B10000DB0F0BD02AB124A214638460FF01CF949
:102B2000F6E70AAD0F4928460EF0A6FD00230093F4
:102B300095E80C0094E803000EF052FF0028E7D15E
:102B4000094B0A4A4FF4C87138460EF0B3FCDFE770
:102B500064350308103103081C00002040310308CD
:102B6000503103084C360308B0360308A03503087B
:102B700070B586B005460C4604AE154930460EF0D9
:102B80007BFD0023009396E80C0094E803000EF010
:102B900027FFA0B1EB6F1868002302930D4B019340
:102BA000012300934FF4FA6200230FF047FE0A4B13
:102BB0000A4AC82128460EF07DFC06B070BD084BBD
:102BC000064A4FF4C87128460EF074FCF5E700BFC2
:102BD0004C3603085D4B0108243E0308A03503086A
:102BE0008837030870B5A4B005460C4622AE1A49D2
:102BF00030460EF041FD0023009396E80C0094E867
:102C000003000EF0EDFEF0B1802302AA134904F197
:102C100010000FF0B0FB124902A8FDF7E1FA40B92D
:102C2000104B0093104B114A2146284611F09CF896
:102C300010E00B4B00930E4B0E4A4FF4C871284620
:102C40000EF038FC06E00C4B0A4A4FF4C8712846D7
:102C50000EF030FC24B070BD4C3603083C74030801
:102C6000583E0308400D0300E03003081C0000201C
:102C7000683E0308A035030888370308F0B597B00D
:102C800004460E4601214FF48060FFF78FFC054695
:102C900050B10122214628480DF07FF9044640B189
:102CA00068460DF089FD10E006F098FA4FF0FF300D
:102CB00040E00DF08BF9284606F090FA6FF0010025
:102CC00038E0294668460DF08DFD1B4B1B694FF41B
:102CD000806229462068984702460028F1D12046A4
:102CE0000DF074F901211020FFF760FC074628B1B0
:102CF000014668460DF0CDFD002412E0284606F09E
:102D00006DFA384606F06AFA4FF0FF3012E06100C3
:102D10003B5D0A4AC1F1210106EB440016F0B6F909
:102D200001340F2CF3DD284606F058FA384606F039
:102D300055FA002017B0F0BD1C000020B43E030877
:102D400070B584B005460C4602AE194930460EF007
:102D500093FC0023009396E80C0094E803000EF027
:102D60003FFEE8B101212120FFF720FC0446014687
:102D70001048FFF783FF58B900940F4B0F4AC82142
:102D800028460EF097FB204606F028FA04B070BDE6
:102D90000B4B0A4A4FF4CA7128460EF08BFBF2E740
:102DA000084B064A4FF4C87128460EF083FBEDE746
:102DB0006435030854360308BC3E0308A0350308F5
:102DC000E03E0308203F030870B5C4B006460C4639
:102DD00042AD204928460EF04FFC0023009395E8B1
:102DE0000C0094E803000EF0FBFD50B37B2323AAF4
:102DF000194904F500700FF0BEFA002819DD23AB65
:102E0000164A802103A816F041F9154B5B6A03A806
:102E1000984730B1134B144AC82130460EF04AFB94
:102E200016E0124B104A4FF4FA7130460EF042FB96
:102E30000EE00F4B0C4A4FF4C87130460EF03AFBCF
:102E400006E00C4B084A4FF4C87130460EF032FBD6
:102E500044B070BD4C360308703F0308783F030848
:102E60001C000020803F0308A0350308B43F03087E
:102E7000F03F0308883703080B2900D0704770B56E
:102E8000A6B00546144608AE9C4930460EF0F4FB49
:102E90000023009396E80C0094E803000EF0A0FDD8
:102EA00020B12846FFF7C4F926B070BD0AAE944998
:102EB00030460EF0E1FB0023009396E80C0004F18D
:102EC000080103C90EF08CFD18B12846FFF796FAE9
:102ED000EAE70CAE8B4930460EF0CEFB00230093A0
:102EE00096E80C0004F1080103C90EF079FD20B149
:102EF00021462846FFF7A8FAD6E70EAE82493046AB
:102F00000EF0BAFB0023009396E80C0004F10801D0
:102F100003C90EF065FD20B121462846FFF754FB9A
:102F2000C2E710AE794930460EF0A6FB00230093AD
:102F300096E80C0004F1080103C90EF051FD20B120
:102F400021462846FFF778FCAEE712AE70493046BE
:102F50000EF092FB0023009396E80C0004F10801A8
:102F600003C90EF03DFD28B1002221462846FFF797
:102F7000A1FD99E714AE674930460EF07DFB0023B2
:102F8000009396E80C0004F1080103C90EF028FD37
:102F900028B1012221462846FFF78CFD84E716AEB2
:102FA0005D4930460EF068FB0023009396E80C0064
:102FB00004F1080103C90EF013FD20B12146284693
:102FC000FFF7D6FD70E718AE544930460EF054FBBB
:102FD0000023009396E80C00E168A0680EF000FD65
:102FE00020B121462846FFF7FDFD5DE71AAE4C49AA
:102FF00030460EF041FB0023009396E80C00E16898
:10300000A0680EF0EDFC20B121462846FFF798FE9F
:103010004AE71CAE434930460EF02EFB00230093D6
:1030200096E80C00E168A0680EF0DAFC20B12146B9
:103030002846FFF709F937E71EAE3B4930460EF048
:103040001BFB0023009396E80C00E168A0680EF0DB
:10305000C7FC20B121462846FFF75EF924E720AEE1
:10306000324930460EF008FB0023009396E80C002E
:10307000E168A0680EF0B4FC20B121462846FFF7B5
:1030800087F911E722AE2A4930460EF0F5FA0023FF
:10309000009396E80C00E168A0680EF0A1FC40B136
:1030A000244B0093244B254A2146284610F05CFE11
:1030B000FAE624AE224930460EF0DEFA00230093F1
:1030C00096E80C00E168A0680EF08AFC20B1214669
:1030D0002846FFF779FEE7E6002302930393049363
:1030E000059306930793144B0293144B079302AA7C
:1030F0002146284610F052FDD6E600BF2C400308BA
:10310000344003084440030854400308684003085F
:103110007C4003088C400308A0400308B440030827
:10312000CC400308E04003080441030820410308A1
:103130003C41030860E31600D83003081C0000205F
:103140005841030800487047792E0108014B186068
:10315000704700BF940900201A4B1B6803B17047E9
:1031600030B585B018490120FEF78AFD174C402282
:103170000021204616F0B4FC02AD154B1968284614
:103180000EF07AFA95E8030084E80300114B196801
:1031900028460EF071FA04F1080395E8030083E86D
:1031A00003003C236385002300930B4B22460B490D
:1031B00009680B48006812F097FE024B186005B0D2
:1031C00030BD00BFB809002074410308BC090020CD
:1031D000100A00200C0A002035370108140A0020CC
:1031E000000A00202DE9F04F85B0814688469246BE
:1031F0002A4C00F108030093294B2A4A2821206811
:103200000DF05AFC24682046FDF74AF80146204696
:1032100000F0E0FB00263BE008EBC60318F8364060
:103220001D79214F2B4622468021386800F0F0FBA3
:10323000DFF880B02B4622464FF41671DBF8000011
:1032400000F096FC194D02AC396820460EF014FAD5
:1032500005F1180394E8030083E80300DBF800108D
:1032600020460EF009FA05F1200394E8030083E8F4
:103270000300012485F8284085F82E402946484659
:1032800011F098FB3A680A492046FEF7F9FC2644FB
:103290005645C1D305B0BDE8F08F00BFB40900208A
:1032A000F9310208643D0308080A0020BC09002027
:1032B00094410308040A002070B584B000230193F0
:1032C0000568866826B3044615B3714B1B68002257
:1032D000022103A89847039BADF808301B0C8DF81A
:1032E0000A306C49284616F07BFC002800F0BA80B2
:1032F00001AA694916F052F8012818D0674B1B68DB
:10330000002B00F3A58066490320FEF7B9FCB2E06C
:10331000624B1B68002B40F3AE80624B92226249E5
:1033200001200FF0E1FF61480EF070F8A3E05B4B65
:103330001B68012B18DC2B46019A5D490120FEF722
:103340009FFC019D6B1E022B1AD8E468022C2ED024
:10335000032C4FD0514B1B68002B6EDC3246554975
:103360000320FEF78DFC86E04E4B9F224E49022043
:103370000FF0BAFF2A4601994F480EF047F8DAE7F6
:10338000464B1B68002B06DC019B03224B49104671
:10339000FEF776FC6FE0434BA422434901200FF077
:1033A000A3FF019A032145480EF030F8ECE7022212
:1033B0004349304616F0C9FB0028C9D105F10F0377
:1033C0006B44012203F8082C344B1B68934206DC43
:1033D0002F4B1B680122022102A898474BE0314B7A
:1033E000AE22314902200FF07FFF019935480EF0DF
:1033F0000DF8EDE703223449304616F0A6FB00280D
:10340000A8D105F10F036B44002203F8082C234BCD
:103410001B68012B06DC1E4B1B680122022102A83F
:10342000984728E01F4BB2221F4902200FF05CFF93
:10343000019926480DF0EAFFEDE71A4BB6221A492A
:1034400001200FF051FF31461A480DF0DFFF85E7EC
:10345000144BBB22144901200FF046FF1C480DF00D
:10346000D5FF50E70D4B1B68002B06DC2A46194997
:103470000320FEF705FC04B070BD0A4BBF220A49C9
:1034800001200FF031FF294612480DF0BFFFEDE794
:10349000A00900202842030830420308A8000020A9
:1034A00084430308B8410308D841030804420308D1
:1034B00068420308104303083C4203089042030893
:1034C000E0420308E4420308F8420308FC42030810
:1034D0004C430308BC43030838B501FB00F4204605
:1034E00005F0FAFD054618B12246002116F0F8FA5B
:1034F000284638BD2DE9F04387B007460C46584DA5
:103500002B680022012104A898472B680022022181
:103510000DF1130098470322524904A816F04CFA03
:1035200048B9032250490DF1130016F045FA10B9BD
:10353000002C00F091804B4B06AA12E903001860A2
:10354000998001214FF41670FFF7C6FF064601214E
:103550008020FFF7C1FF0546002238E002F1010894
:103560005FFA88F802F118030DEB030212F8083C29
:103570000093434601224FF41671304600F0ECFCF4
:10358000434601228021284600F026FDDFF8DC902A
:1035900002AC294620460EF06FF809F1180394E8B2
:1035A000030083E80300314620460EF065F809F178
:1035B000200394E8030083E80300002389F82830FF
:1035C00089F82E304946384611F0F4F94246022A6D
:1035D000C4D9002238E002F101085FFA88F802F14C
:1035E00018030DEB030212F8053C00934346022238
:1035F0004FF41671304600F0AFFC434602228021A2
:10360000284600F0E9FCDFF8649002AC2946204629
:103610000EF032F809F1180394E8030083E8030080
:10362000314620460EF028F809F1200394E8030003
:1036300083E80300002389F8283089F82E304946B2
:10364000384611F0B7F94246022AC4D9304605F08F
:10365000C5FD284605F0C2FD07B0BDE8F08300BFF8
:10366000A0090020980900209B090020BC09002027
:1036700008B5054B186810B1044B1B7803B908BD99
:103680000021FFF737FFFAE7B8090020A40900205E
:1036900008B5054B1B7803B908BD0121034B186819
:1036A000FFF728FFF8E700BFA4090020B8090020B1
:1036B0002DE9F04F83B081460D461646002400E008
:1036C0000134B4422ED205EBC40855F83430022B35
:1036D000F6D101218020FFF7FFFE074698F804305D
:1036E0000222802100F060FCDFF844804FF0010BE3
:1036F00088F828B0EA46394650460DF0BDFF08F17B
:1037000018039AE8030083E803004146484611F095
:1037100003F93A4605495846FEF7B2FA384605F02D
:103720005DFDCDE703B0BDE8F08F00BFEC430308BB
:10373000BC09002070B5102931D00546112902D0EE
:1037400009293AD070BD224B1B68022B1DDC214990
:103750000120FEF795FA204B1D60204B1B78002BB3
:10376000F0D11F4E062231462846FFF73BFD1A4C8A
:1037700001212068FFF7BEFE062231462068FFF7D0
:1037800097FF164B01221A70DCE7164BCD22164923
:1037900003200FF0A9FD15480DF038FED7E71446B9
:1037A00013490120FEF76CFA2046FFF785FD002142
:1037B000094B1868FFF79EFEC4E70E490120FEF78B
:1037C0005FFA0023044A1360044A1370BAE700BF8B
:1037D000A800002034440308B8090020A4090020F0
:1037E0004400002008440308D84103081C4403088F
:1037F0004C44030870440308014B1868704700BF2D
:10380000B80900202DE9F04786B006460C469146DF
:103810001D4601218020FFF75FFEDFF848A1CAF8AE
:10382000000001212120FFF757FEDFF83C81C8F896
:10383000000001212120FFF74FFE3B4F386001219E
:103840008020FFF749FE394B186001214FF41670B4
:10385000FFF742FE364B186001212820FFF73CFE9F
:10386000344B18600F9A344B1A60DAF800A04946BE
:10387000504617F03FFBD8F800902946484617F00D
:1038800039FB0E99386817F035FB4B4652462B49E9
:103890000120FEF7F5F92A4D2E602A4B1C60062107
:1038A000204600F071F8284E04ACD8F800102046ED
:1038B0000DF0E2FE94E8030086E803003968204634
:1038C0000DF0DAFE06F1080394E8030083E8030034
:1038D0003C237385002402941C4B01930323009323
:1038E00042F21072002328680EF0A8FF184B1860EF
:1038F0000294184B01930126009643F69822002368
:1039000028680EF09BFF144B18600294134B019330
:1039100000964FF4FA72002328680EF08FFF104BC8
:10392000186006B0BDE8F0870C0A0020080A0020E5
:10393000040A0020B4090020A009002088440308DC
:10394000000A0020FC090020BC09002059310108B0
:10395000B009002091360108AC0900207136010839
:10396000A8090020140A0020100A002038B501FB25
:1039700000F4204605F0B0FB054618B122460021B0
:1039800016F0AEF8284638BD70B506460D460F4B0A
:10399000186808B105F022FC680001210844FFF70F
:1039A000E5FF0A4B186008B100240BE04FF0FF3030
:1039B0000BE0064B1868325D054900EB440015F03A
:1039C000CDFC0134AC42F4D3002070BD1C0A0020B1
:1039D000B444030838B505460C460C4B186808B1CA
:1039E00005F0FCFB01216018FFF7C0FF074B1860D2
:1039F00040B12246294616F0BAF8044B1B68002055
:103A0000185538BD4FF0FF30FBE700BF180A002003
:103A100000B587B04FF0000C80F800C0013A072ACB
:103A200000F28780DFE802F00416254535657555FC
:103A30000493414B0393414B1B680293404B01930A
:103A4000404B0093404B414A15F020FB002007B04B
:103A50005DF804FB04933E4B0393384A12680292CC
:103A6000374A01920093384B384A15F00FFB00207B
:103A7000EDE70493374B0393304B1B680293304BB5
:103A80000193354B0093304B304A15F0FFFA00207C
:103A9000DDE70493314B0393284B1B680293284BBB
:103AA00001932D4B0093284B284A15F0EFFA002084
:103AB000CDE704932A4B0393204B1B680293204BC2
:103AC0000193254B0093204B204A15F0DFFA00208C
:103AD000BDE70493234B0393184B1B680293184BC9
:103AE00001931D4B0093184B184A15F0CFFA002094
:103AF000ADE704931C4B0393104B1B680293104BD0
:103B00000193154B0093104B104A15F0BFFA00209B
:103B10009DE70493154B0393084B1B680293084BD6
:103B200001930D4B0093084B084A15F0AFFA0020A3
:103B30008DE74FF0FF308AE7D44403081C0A0020C9
:103B4000DC440308E444030874000020BC44030878
:103B500028420308F4440308FC440308044503080E
:103B60000C4503081445030824450308344503089D
:103B70002DE9F04F99B017900D4617461C460A469E
:103B8000002115F0ADFF7A1E072A00F2BA81DFE8A6
:103B900012F008004300A100EA00C5006E01930185
:103BA000490101218020FFF7E1FE07460094804B88
:103BB000804A802115F06AFA7F4B1A687F4B1B6898
:103BC00014937F4B13937F4B12937F4B11937F4B37
:103BD00010937F4B0F930E927E4B0D937E490C9169
:103BE0000B947E490A910992089307977C480690A6
:103BF000059404910394029101920093794B7A4ABF
:103C00002946179815F042FA0446384605F0E6FAB8
:103C1000E0B219B0BDE8F08F01218020FFF7A6FEC9
:103C2000074601218020FFF7A1FE8046DFF8F091D2
:103C300000944B466D4A8021384615F027FADFF88C
:103C400094A1654E02960197DFF86CB1DBF8003065
:103C500000935346664A8021404615F017FA0094B7
:103C6000644B544A8021384615F010FADBF80030D6
:103C7000524A12681492524A1392524A1292524A6B
:103C80001192524A1092524A0F920E93CDF834A0DC
:103C90000C960B94CDF828900993CDF820A00797A7
:103CA000CDF818800594CDF810900394CDF80890C5
:103CB0000193CDF800A04B464B4A2946179815F0C2
:103CC000E5F90446384605F089FA404605F086FADB
:103CD000E0B29EE7384B19683E4B474A37480068C8
:103CE000109037480F9037480E9037480D9037485E
:103CF0000C9037480B900A9109934048089007921E
:103D0000069105933E4804903E48039002923E4837
:103D1000019000913449179815F020FB264B196843
:103D20002C4B3A4A25480068109025480F902548AA
:103D30000E9025480D9025480C9025480B900A912F
:103D400009933348089007920691059331480490EF
:103D50002348039002922C48019000912249179821
:103D600015F0FCFADAE7144B19681A4B1D4A134890
:103D70000068109012480F9012480E9012480D9053
:103D800012480C9012480B900A910993224808900F
:103D900007920691059321480490114803900292DE
:103DA0001948019000911049179815F0D7FAB5E716
:103DB0003C450308484503081C0A0020180A002057
:103DC000504503085445030858450308684503084F
:103DD0007C450308DC44030884390308D444030801
:103DE000B06903080C450308E0460308884503084A
:103DF000B846030890450308F4440308A4450308A3
:103E0000A8450308B8450308DC4503080445030832
:103E1000E4450308E8450308F8450308FC450308A2
:103E200028420308384B1968384B394A394800682A
:103E3000109039480F9039480E9039480D90394804
:103E40000C9039480B900A910993384808900792D2
:103E500006910593364804903648039002923648FE
:103E6000019000913549179815F078FA56E7264BDE
:103E70001968264B324A27480068109026480F9050
:103E800026480E9026480D9026480C9026480B9008
:103E90000A9109932B4808900792069105932A48A6
:103EA00004902448039002922348019000912349F2
:103EB000179815F053FA31E7134B1968134B234A3F
:103EC00014480068109014480F9014480E9014483D
:103ED0000D9014480C9014480B900A9109931C48BB
:103EE00008900792069105931A4804901148039090
:103EF00002921148019000911049179815F02EFA7E
:103F00000CE74FF0FF3084E61C0A0020DC44030875
:103F100014450308180A00205045030854450308B7
:103F200058450308684503087C45030820460308F4
:103F300024460308B0690308DC450308E04603088B
:103F4000244503084446030848460308344503084B
:103F5000744603087846030830B583B01C469DF8C4
:103F60001850012A0BD0022A0BD10A4B5DB10A4A24
:103F700001920094094A15F089F803B030BD084B4E
:103F8000F4E70023F2E7074A01920094034A15F090
:103F90007DF8F2E728420308E0420308A846030838
:103FA000D4440308F842030800B585B00293064BD9
:103FB0000193064B1B680093054B064A15F066F803
:103FC00005B05DF804FB00BF284203081C0A00206E
:103FD000DC4403088446030800B585B04FF0000CAC
:103FE00080F800C0012A06D0022A0FD04FF0FF301F
:103FF00005B05DF804FB02930A4B01930A4B1B6862
:1040000000930A4B0A4A15F041F8F1E70293094B75
:104010000193054B1B680093044B054A15F036F8D5
:10402000E6E700BFD44403081C0A0020DC44030870
:10403000944603082842030808B5084B1B682BB1B7
:10404000064B186808B112F05FFE08BD044A194615
:1040500012F02CFF014B1860F2E700BF200A00208D
:104060006540010870B5122902D0092946D070BDFB
:10407000144626490120FDF703FE12F081FD064695
:104080000D46234B1B68012B20DC32462B46214971
:104090000120FDF7F5FD256864680FF020F9281A66
:1040A0004FF47A724FF0000364EB0101FCF754FE09
:1040B000194BC3E90001164B1B68012B12DC2A4681
:1040C000234616490120FDF7DBFDD0E7144B1B22E8
:1040D000144902200FF008F932462B460D480DF026
:1040E00095F9D2E70E4B21220E4902200FF0FCF881
:1040F0002A4623460C480DF089F9E0E70B490120D8
:10410000FDF7BEFD0A4B00221A60B0E760480308C5
:10411000A8000020A4480308280A0020FC4803083F
:104120005849030884480308D8480308204903086D
:10413000200A002030B585B004460D490120FDF766
:104140009FFD02940B4D01950023009344F62062DD
:10415000002320460EF072FB029401950123009388
:10416000054A002320460EF069FB05B030BD00BFB4
:104170003C49030839400108C07A100038B501FBFA
:1041800000F4204604F0A8FF054618B1224600219D
:1041900015F0A6FC284638BD70B588B005460C461B
:1041A00017490020FDF76CFD06AE164930460DF0AC
:1041B00063FA0023009396E80C0094E803000DF0E6
:1041C0000FFCA8B1104B1B680593104B1B680493A0
:1041D0000F4B03930F4B02930F4B01930F4B009325
:1041E0000F4B104AC82128460DF064F908B070BD85
:1041F0000D4B0C4A4FF4C87128460DF05BF9F5E7FA
:104200005C490308643503083C0A0020440A002086
:104210005045030868450308584503087C450308D2
:10422000644C030884390308B036030810B504460B
:1042300005490020FDF724FD044B054A4FF4CA71DF
:1042400020460DF037F910BD7C4903089449030856
:10425000843903080B2900D0704770B586B0054635
:10426000144617490020FDF70BFD02AE15493046F4
:104270000DF002FA0023009396E80C0004F1080107
:1042800003C90DF0ADFB28B121462846FFF784FF96
:1042900006B070BD04AE0C4930460DF0EDF90023B8
:1042A000009396E80C0004F1080103C90DF098FB97
:1042B0000028EDD021462846FFF7B8FFE8E700BF09
:1042C000C0490308E8490308004A030810B584B050
:1042D00002460846140E8DF80F40110C8DF80E1092
:1042E000130A8DF80D308DF80C200194C9B200919D
:1042F000DBB2D2B2024915F031F804B010BD00BFF4
:10430000044A030870B584B006461E490020FDF734
:10431000B7FC1D4B1868FBF7C3FF0446012100F2F0
:104320003910FFF72BFF194A106030B3184B1B6888
:10433000184D29689868FFF7C9FF134B1B68029353
:10434000154B01932B680093144B154A04F59C718F
:104350000E48006814F09AFE4EB10C4B1C682046C3
:10436000FBF79EFF02462146304610F071F8074BDE
:10437000186804F033FF04B070BD0A490320FDF74C
:104380007FFCF8E7104A0308440A0020400A002096
:10439000340A00203C0A0020604A0308584A0308F7
:1043A0006C4B0308284A0308072900D0704770B5F2
:1043B00088B004461A490020FDF762FC194B1B68BF
:1043C00002AD1A6C996B28460DF062F904AE1649DD
:1043D00030460DF051F90023009396E80C0095E863
:1043E00003000DF0FDFA18B90023236408B070BD76
:1043F00006AD0E4928460DF03FF90023009395E8DD
:104400000C0002A903C90DF0EBFA0028ECD0084912
:104410000020FDF735FC034B1868FFF773FFE3E757
:10442000684A0308300A00209C4A0308A84A030887
:10443000B84A030810B50C490020FDF721FC002301
:104440001A460A490A48006811F0D6FC30B1044601
:10445000FFF758FF20460FF0B9FE10BD05490320B5
:10446000FDF70EFCF9E700BFE84A0308084E030811
:10447000380A0020004B030870B506460D46104967
:104480000020FDF7FDFBD6B1CDB10E4B186808B189
:1044900004F0A4FE680001210844FFF76FFE094BF9
:1044A000186060B1002408E0064B1868325D0649C8
:1044B00000EB440014F052FF0134A542F4D870BD63
:1044C000284B0308440A0020B444030830B585B0E3
:1044D000184B1860184B196001212820FFF74EFE79
:1044E000164B186018B3144D06212868FFF7C4FF57
:1044F00013490120FDF7C4FB0E4C00230293114B1E
:104500000193032300934EF66022002320680EF0EF
:1045100095F92B680C4A0D4920680FF031FF2B6884
:104520000B4A0C4920680FF0A7FE0B4B186005B032
:1045300030BD00BF380A0020340A00203C0A0020A9
:104540003C4B03083544010855420108544B03080D
:10455000A9430108084E0308300A002070470000F4
:1045600008B5024B5B68984708BD00BF880A002069
:1045700010B458B104460948C46059B107480161F4
:1045800006494A608B605DF8044B70470348044C51
:10459000C460F2E7014902480861F1E7880A002097
:1045A0005D45010808B5024BDB68984708BD00BFB0
:1045B000880A002008B5024B1B69984708BD00BF58
:1045C000880A002000B583B0054B5B6801210DF11E
:1045D000070098479DF8070003B05DF804FB00BF93
:1045E000880A002008B5024B9B68984708BD00BFA9
:1045F000880A002008B5FFF7D5FF6620FFF7F2FF15
:104600009920FFF7EFFFFFF7D5FF08BD08B564203D
:1046100000F016FAFFF7EEFF642000F011FA6420B4
:1046200000F00EFA08BD70B506460C461546FFF7B9
:10463000B9FF102D17D90B20FFF7D4FFC4F30740A3
:10464000FFF7D0FFC4F30720FFF7CCFFE0B2FFF77E
:10465000C9FF0020FFF7C6FF29463046FFF780FF5D
:10466000FFF7A8FF70BD0320FFF7BCFFC4F30740AE
:10467000FFF7B8FFC4F30720FFF7B4FFE0B2FFF77E
:10468000B1FF04E0FFF79EFF06F8010B25466B1E05
:104690009CB2002DF6D1E3E770B5FFF783FFFFF77B
:1046A00089FFFFF77FFFFFF785FFFFF77BFF9F2065
:1046B000FFF798FFFFF786FF0646FFF783FF0446E4
:1046C000FFF780FF0546FFF775FF240244EA064422
:1046D00044EA050070BD000038B50546FFF796FFB7
:1046E000FFF7DAFF524B984200F08580C0F09C80C3
:1046F000504B984200F29880033B9842C0F094805F
:104700004D4B0344032B00F28F80DFE803F0022BB4
:10471000445D4A4C4A4B23600123A380E3804FF45D
:10472000805323814FF4807363814FF40073A3811E
:104730003122444904F10E0015F019FA002384F8DF
:104740003F30AC463D4C0FCCACE80F000FCCACE892
:104750000F000FCCACE80F0094E80F008CE80F00BE
:10476000284638BD354C384B23600123A380E380B5
:104770004FF4805323814FF4807363814FF480633F
:10478000A3813122314904F10E0015F0F0F9002324
:1047900084F83F30D5E7294C2D4B23600123A380BB
:1047A000E3804FF4805323814FF4807363814FF48F
:1047B0000063A3813122274904F10E0015F0D7F9D7
:1047C000002384F83F30BCE71C4C1A4B23600123C4
:1047D000A380E3804FF4805323814FF48072628181
:1047E000A38131221C4904F10E0015F0C0F9002309
:1047F00084F83F30A5E7114C0D4B23600123A380C3
:10480000E3804FF4805323814FF4807363814FF42E
:104810008063A3813122114904F10E0015F0A7F93C
:10482000002384F83F308CE7044B00221A6088E7AD
:104830001620C2001840EF00EBBF10FF480A00200E
:104840001540EF00244E03081640EF002C4E0308DD
:104850001740EF00344E03083C4E0308444E030853
:1048600008B5FFF79FFE0620FFF7BCFEFFF7A2FE8C
:1048700008BD000038B5094DFFF794FE0520FFF78D
:10488000B1FEFFF79FFE0446FFF794FE2B46013D65
:1048900013B114F0010FEFD138BD00BFA0860100A5
:1048A00010B50446FFF7DCFFFFF77CFE2020FFF782
:1048B00099FEC4F30740FFF795FEC4F30720FFF706
:1048C00091FEE0B2FFF78EFEFFF774FEFFF7D2FF16
:1048D00010BD70B506460C461546FFF7C1FFFFF741
:1048E00061FE0220FFF77EFEC4F30740FFF77AFE69
:1048F000C4F30720FFF776FEE0B2FFF773FE04E093
:1049000016F8010BFFF76EFE25466B1E9CB2002DBC
:10491000F6D1FFF74FFEFFF7ADFF70BD2DE9F8436D
:1049200005460C461746CBB2110AD3B971B92146D8
:10493000FFF7CFFF13E04FF4807221462846FFF7C0
:10494000C8FF04F5807405F5807531464B1EDEB254
:104950000029F0D1FAB221462846FFF7BAFFBDE898
:10496000F883C3F100085FFA88F8D2B2A1B9904584
:104970000DD21344DEB242462146FFF7AAFF32466B
:1049800008EB040105EB0800FFF7A3FFE7E73A4651
:104990002146FFF79EFFE2E7A7EB08071FFA87F91A
:1049A000C7F30726FFB242462146FFF792FF444471
:1049B00045440AE04FF4807221462846FFF789FFFC
:1049C00004F5807405F580754646731E5FFA83F81A
:1049D000002EEFD1002FC2D05FFA89F2214628467F
:1049E000FFF777FFBBE7000008B50B4B1A6842F4EE
:1049F00000721A601A6842F480621A601A6842F4FF
:104A000080721A60032000F083F80F20FDF726FB68
:104A1000FDF702FB002008BD003C0240034A11687C
:104A2000034B1B780B441360704700BF9C0A0020A7
:104A300082000020014B1868704700BF9C0A0020CC
:104A400038B50446FFF7F6FF0546B4F1FF3F02D044
:104A5000044B1B781C44FFF7EDFF401BA042FAD328
:104A600038BD00BF82000020002807DB00F01F02D5
:104A7000400901239340024A42F82030704700BFAA
:104A800000E100E0002808DB0901C9B200F1604044
:104A900000F5614080F80013704700F00F00090135
:104AA000C9B2014B1954704714ED00E000B500F095
:104AB0000700C0F1070CBCF1040F28BF4FF0040C35
:104AC000031D062B0FD9C31E4FF0FF3E0EFA0CF04C
:104AD00021EA000199400EFA03FE22EA0E0241EAA1
:104AE00002005DF804FB0023EEE70000BFF34F8FE8
:104AF0000549CA6802F4E062044B1343CB60BFF37C
:104B00004F8F00BFFDE700BF00ED00E00400FA0595
:104B1000074AD36823F4E0631B041B0C000200F473
:104B2000E060034343F0BF6343F40033D360704756
:104B300000ED00E010B50446054BD868C0F3022034
:104B4000FFF7B4FF01462046FFF79CFF10BD00BFF2
:104B500000ED00E008B5FFF787FF08BD08B5FFF7D7
:104B6000C5FF000000230F2B00F2D78070B582B084
:104B700065E085684FEA430E032404FA0EF425EA43
:104B80000405CC6804FA0EF42C438460446824EADB
:104B900002044A68C2F300129A40224342605CE079
:104BA000DC08083450F8242003F00705AD004FF06E
:104BB0000F0E0EFA05FE22EA0E0E0A69AA4042EA1C
:104BC0000E0240F824205CE0042200E0002202FAF9
:104BD0000EF22A430234514D45F82420504A94687D
:104BE0006FEA0C0224EA0C054E6816F4801F01D00F
:104BF0004CEA04054A4CA560E46802EA04054E68E4
:104C000016F4001F01D04CEA0405454CE5606468C9
:104C100002EA04054E6816F4003F01D04CEA040590
:104C20003F4C6560246822404D6815F4803F01D0F8
:104C30004CEA04023A4C226001330F2B6BD801225C
:104C40009A400C6804EA020C32EA0404F4D14C687D
:104C500004F00304013C012C8BD94A6802F00302E2
:104C6000032A09D0C4685D000322AA4024EA020492
:104C70008A68AA402243C2604A6802F00302022AFC
:104C80008ED004684FEA430E032202FA0EF224EAA1
:104C900002044A6802F0030202FA0EF222430260A2
:104CA0004A6812F4403FC7D0002201921D4A546C5A
:104CB00044F480445464526C02F480420192019A9C
:104CC0009C08A51C154A52F8255003F0030E4FEA24
:104CD0008E0E0F2202FA0EF225EA0205124A9042C7
:104CE0003FF474AF02F5806290420ED002F580620C
:104CF00090420CD002F5806290420AD002F58062A8
:104D000090423FF461AF072261E701225FE7022290
:104D10005DE703225BE702B070BD704700380140D9
:104D2000003C0140003802400000024000230F2BED
:104D30007CD8F0B52DE0042500E0002505FA0CF53F
:104D4000A54257D004685D004FF0030C0CFA05FC37
:104D500024EA0C0404604FEAD30E0EF1080E50F85A
:104D60002E4003F00706B6000F25B54024EA0504DF
:104D700040F82E40C46824EA0C04C460446824EA65
:104D800002024260826822EA0C02826001330F2B29
:104D90004BD801229A4002EA010632EA0104F5D119
:104DA0004FEA930E0EF10205214C54F8254003F012
:104DB000030C4FEA8C0C0F2505FA0CF73C401D4DF7
:104DC000A842BAD005F58065A8420DD005F58065EA
:104DD000A8420BD005F58065A84209D005F580658D
:104DE000A842A8D00725A9E70125A7E70225A5E73E
:104DF0000325A3E7104C256825EA060525606568AC
:104E000025EA06056560E56825EA0605E560A5680A
:104E100025EA0605A560064E0EF1020456F8245058
:104E200025EA070546F824508CE7F0BD704700BF1F
:104E30000038014000000240003C01400369194273
:104E400001D001207047002070470AB1816170478E
:104E500009048161704703685A6912F4806F01D1B7
:104E6000002070476FF480625A61002303632022A0
:104E700080F83D2080F83E30026C42F0040202646B
:104E800080F83C30012070472DE9F04106460C4681
:104E9000174698463BE0FFF7CDFD069BC01A4045FC
:104EA00002D8B8F1000F32D1012D18D033689B69B8
:104EB00024EA03039BB2B3FA83F35B099F4226D132
:104EC00000233363202286F83D2086F83E30326C82
:104ED00042F02002326486F83C30012027E033683B
:104EE0005B6924EA03039BB2B3FA83F35B09E5E74A
:104EF00033685B6924EA030C1FFA8CFCBCFA8CFC57
:104F00004FEA5C1C674511D1B8F1FF3FC3D1C4F330
:104F10000745012DECD033689B6924EA030C1FFA86
:104F20008CFCBCFA8CFC4FEA5C1CEBE70020BDE873
:104F3000F0812DE9F84305460E469046994653E028
:104F40001A6842F400721A602B686FF480625A612A
:104F500000232B63202285F83D2085F83E302A6C03
:104F600042F004022A6485F83C3001204AE0FFF751
:104F700061FDA0EB0900404502D8B8F1000F33D124
:104F8000012F17D02B689B6926EA03039BB2003BD5
:104F900018BF012343B300232B63202285F83D2053
:104FA00085F83E302A6C42F020022A6485F83C30B5
:104FB000012027E02B685B6926EA03039BB2003BD4
:104FC00018BF0123E6E72B689C6926EA0404A4B213
:104FD000003C18BF0124A4B12B685A6912F4806FF9
:104FE000AED1B8F1FF3FC2D1C6F30747012FEAD1D6
:104FF0002B685C6926EA0404A4B2003C18BF0124B3
:10500000E9E70020BDE8F883F0B583B004460D461B
:1050100016461F46C36A082B0DD0012B0BD013F583
:10502000803F08D0036B122B0AD10268136843F447
:105030008073136004E02268136843F48073136084
:105040000097334600224FF001112046FFF71CFF66
:1050500080B92369B3F5804F16D1236805F0FE05AA
:105060001D613B46324613492046FFF762FFF8B9FF
:1050700003B0F0BD23681B6813F4807F02D04FF4A7
:10508000007323640320F3E7EB11226803F00603A7
:1050900043F0F00313613B46324607492046FFF7D1
:1050A00048FF18B92368EDB21D61DAE70120DFE798
:1050B0000120DDE7020001000800010070B5044690
:1050C0000D46164623685B6913F0800F21D12046F8
:1050D000FFF7C1FEF8B9B5F1FF3FF3D0FFF7AAFC27
:1050E000801BA84201D8002DECD123685B6913F026
:1050F000800FE7D100232363202284F83D2084F829
:105100003E30226C42F02002226484F83C300120C0
:1051100000E0002070BD0120FCE770B504460D469C
:10512000164623685B6913F0040F21D12046FFF770
:1051300092FEF8B9B5F1FF3FF3D0FFF77BFC801B7F
:10514000A84201D8002DECD123685B6913F0040F4D
:10515000E7D100232363202284F83D2084F83E30E9
:10516000226C42F02002226484F83C30012000E0EE
:10517000002070BD0120FCE7002800F0CC8070B555
:10518000044690F83D30002B77D0242384F83D303E
:105190002268136823F0010313602268136843F444
:1051A000004313602268136823F40043136000F087
:1051B00081FD62685A4B9A4264D85A4B98428CBF20
:1051C00000230123002B40F0A8805749A1FB0031A8
:1051D0008B0C25686A6822F03F0242EA91426A60BD
:1051E00021680A6A22F03F0266684D4DAE424FD8F0
:1051F000013313430B622168CA6922F44F4222F043
:10520000FF026568464B9D424CD8431E6D00B3FBC0
:10521000F5F3013340F6FC70034278D0C3F30B037F
:105220001A43CA6121680B6823F0C003E269206A4F
:10523000024313430B6021688B6823F4034323F07C
:10524000FF032269E068024313438B602168CB6847
:1052500023F0FF036269A06902431343CB60226815
:10526000136843F00103136000202064202384F8B6
:105270003D30206384F83E0070BD80F83C30FCF780
:1052800089FC82E7294B98428CBF0023012399E7D0
:105290004FF4967505FB03F3254DA5FB03539B09BE
:1052A0000133A6E7A668BEB9431E05EB450CB3FB68
:1052B000FCF30133C3F30B03B3FA83F35B0943BB82
:1052C000C6B9431E05EB4505B3FBF5F30133C3F344
:1052D0000B0343F40043A3E7431E05EB850C0CEBE3
:1052E0008C0CB3FBFCF30133C3F30B03B3FA83F36E
:1052F0005B09E4E7431E05EB850505EB8505B3FB7C
:10530000F5F30133C3F30B0343F4404388E704236D
:1053100086E7012384E7012070470120ACE700BF46
:10532000A08601007F841E0083DE1B43FF083D0032
:10533000D34D6210A8B110B50446242380F83D3047
:105340000268136823F001031360FCF75DFC002082
:10535000206484F83D00206384F83E0084F83C001B
:1053600010BD0120704700002DE9F04385B00446D0
:105370000F46914698460C9EFFF75CFB054694F855
:105380003D00C0B2202804D00227384605B0BDE851
:10539000F0830095192301224F492046FFF774FD41
:1053A000002840F0928094F83C30012B00F08F8070
:1053B000012384F83C3023681A6812F0010F03D1EE
:1053C0001A6842F001021A602268136823F400632D
:1053D0001360212384F83D30102384F83E300023ED
:1053E0002364C4F82490A4F82A80638D23853B4B62
:1053F000E3622B46324639462046FFF705FE074654
:10540000002866D10023039323685A6903929B699D
:105410000393039B11E0236C042B01D00127B4E715
:105420002268136843F400731360F7E72A46314695
:105430002046FFF772FE00282ED1238D002B36D098
:105440002A4631462046FFF739FE0028E3D1626A3A
:10545000236812781A61606A431C6362618D89B2A5
:10546000013989B26185238D013B9BB22385226876
:10547000516911F0040FD9D0002BD7D043781361B4
:10548000636A01336362638D9BB2013B9BB26385A8
:10549000238D013B2385C9E7236C042B01D0012711
:1054A00073E72268136843F400731360F7E7226818
:1054B000136843F400731360202384F83D30002305
:1054C00084F83E3084F83C305FE702275DE702272E
:1054D0005BE7012759E700BF020010000000FFFF53
:1054E0002DE9F04385B00446884691461D46FFF7F6
:1054F000A1FA94F83D30DBB2202B03D0022005B096
:10550000BDE8F08306460090192301225749204642
:10551000FFF7BAFC002840F0A08094F83C30012B43
:1055200000F09D80012384F83C3023681A6812F053
:10553000010F03D11A6842F001021A602268136851
:1055400023F400631360242384F83D30002727648C
:10555000474BE36240E023681B6813F4807F02D06E
:105560004FF4007323640320C9E7A02384F83D307F
:1055700022685369C3F340035269C2F3802294F84E
:105580003DC05FFA8CFCBCF1A00F09D043B93AB919
:10559000FFF750FA801BA842E7D8002DE8D1E4E7D6
:1055A000202384F83D3023685A6912F0020F31D16C
:1055B0001A6842F400721A6023686FF480625A61BC
:1055C00000961923012229492046FFF75DFC002897
:1055D00049D101374F4538D22268136843F48073AC
:1055E000136000962B4600224FF001112046FFF772
:1055F0004BFC0028AFD1236808F0FE021A61FFF7C8
:1056000019FA064622685369C3F340035269C2F38C
:105610008022B4E71A6842F400721A6000230393F0
:1056200023685A6903929B690393039B009619238D
:1056300001220E492046FFF727FC90B9202384F869
:105640003D30002384F83C3059E7202384F83D3076
:10565000002384F83C30012051E702204FE702206C
:105660004DE701204BE7012049E700BF0200100091
:105670000000FFFF002800F0E08170B582B0044612
:10568000036813F0010F3BD09F4B9B6803F00C03A2
:10569000042B2CD09C4B9B6803F00C03082B21D0CF
:1056A0006368B3F5803F4FD0B3F5A02F52D0964B2F
:1056B0001A6822F480321A601A6822F480221A6072
:1056C0006368002B50D0FFF7B5F905468E4B1B6879
:1056D00013F4003F14D1FFF7ADF9401B6428F5D94E
:1056E0000320B1E1884B5B6813F4800FD8D0864B60
:1056F0001B6813F4003F03D06368002B00F09F8108
:10570000236813F0020F54D07F4B9B6813F00C0FEB
:105710003ED07D4B9B6803F00C03082B33D0E3682D
:10572000002B68D0794B01221A60FFF783F90546F8
:10573000754B1B6813F0020F54D1FFF77BF9401B28
:105740000228F5D903207FE16F4A136843F48033C0
:105750001360B5E76C4B1A6842F480221A601A682D
:1057600042F480321A60ABE7FFF764F90546664BF6
:105770001B6813F4003FC3D0FFF75CF9401B64289B
:10578000F5D9032060E1604B5B6813F4800FC6D14C
:105790005D4B1B6813F0020F03D0E368012B40F050
:1057A0005081594A136823F0F803216943EAC10381
:1057B0001360236813F0080F42D063696BB3534B37
:1057C0000122C3F8802EFFF735F905464E4B5B6F7B
:1057D00013F0020F34D1FFF72DF9401B0228F5D941
:1057E000032031E1484A136823F0F803216943EAB2
:1057F000C1031360DDE7454B00221A60FFF71AF979
:105800000546414B1B6813F0020FD2D0FFF712F987
:10581000401B0228F5D9032016E13C4B0022C3F8B7
:10582000802EFFF707F90546374B5B6F13F0020F29
:1058300006D0FFF7FFF8401B0228F5D9032003E14B
:10584000236813F0040F77D02F4B1B6C13F0805F8D
:1058500033D1002301932C4B1A6C42F080521A640E
:105860001B6C03F080530193019B0125284B1B689F
:1058700013F4807F23D0A368012B34D0052B38D0BC
:10588000214B1A6F22F001021A671A6F22F00402EC
:105890001A67A368002B3DD0FFF7CCF806461A4BD9
:1058A0001B6F13F0020F46D1FFF7C4F8801B41F2C3
:1058B00088339842F3D90320C6E00025D6E7144A7E
:1058C000136843F480731360FFF7B4F80646104B77
:1058D0001B6813F4807FCED1FFF7ACF8801B022841
:1058E000F5D90320B0E0084A136F43F001031367B2
:1058F000CFE7054B1A6F42F004021A671A6F42F0A5
:1059000001021A67C5E700BF0038024000004742A5
:1059100000700040FFF78EF80646524B1B6F13F0E5
:10592000020F08D0FFF786F8801B41F288339842B7
:10593000F3D9032088E0EDB9A369002B00F0838040
:10594000484A926802F00C02082A51D0022B17D064
:10595000454B00221A66FFF76DF80446414B1B6861
:1059600013F0007F42D0FFF765F8001B0228F5D93D
:10597000032069E03B4A136C23F080531364DBE798
:10598000394B00221A66FFF755F80546354B1B6860
:1059900013F0007F06D0FFF74DF8401B0228F5D921
:1059A000032051E0E369226A1343626A43EA8213E7
:1059B000A26A5208013A43EA0243E26A43EA0263F6
:1059C000284A5360284B01221A66FFF733F8044631
:1059D000244B1B6813F0007F06D1FFF72BF8001B48
:1059E0000228F5D903202FE000202DE000202BE035
:1059F000012B2BD01B4B5B6803F48001E2699142C1
:105A000026D103F03F02216A8A4223D1616A47F618
:105A1000C0721A40B2EB811F1ED103F44031A26A5A
:105A20005208013AB1EB024F18D103F07063E26AF9
:105A3000B3EB026F14D1002006E001207047012073
:105A400002E0012000E0002002B070BD0120FBE771
:105A50000120F9E70120F7E70120F5E70120F3E74E
:105A60000120F1E7003802400000474208B5334BFF
:105A70009B6803F00C03042B5BD0082B5BD12F4BEE
:105A80005A6802F03F025B6813F4800F2CD02B4B56
:105A90005868C0F388104FEA401CBCEB000C6EEB5A
:105AA0000E0E4FEA8E1343EA9C634FEA8C11B1EB62
:105AB0000C0163EB0E03DB0043EA5173C90011EBE9
:105AC000000C43F10003590200234FEA4C2041EA45
:105AD000DC51FBF741F9194B5B68C3F30143013318
