:020000040801F1
:10000000000002205D240108712301087323010808
:1000100075230108772301087923010800000000F7
:1000200000000000000000000000000081A40108A2
:100030007B2301080000000021A50108D9820108E6
:10004000AD240108AD240108AD240108AD24010848
:10005000AD240108AD240108AD240108AD24010838
:10006000AD240108AD240108AD240108AD24010828
:10007000AD240108AD240108AD240108AD24010818
:10008000AD240108AD240108AD24010800000000E2
:10009000000000000000000000000000AD24010886
:1000A0007D230108AD240108AD240108AD24010819
:1000B000AD240108AD240108AD240108AD240108D8
:1000C000AD240108AD240108AD240108AD240108C8
:1000D000AD240108AD240108AD2401080000000092
:1000E000AD240108AD240108AD2401080000000082
:1000F000000000000000000000000000AD24010826
:1001000000000000AD240108AD240108AD24010861
:1001100000000000000000000000000000000000DF
:10012000AD240108AD240108AD240108AD24010867
:10013000AD240108000000000000000000000000E5
:10014000000000000000000000000000AD240108D5
:10015000AD240108AD240108AD240108AD24010837
:10016000AD240108AD2401080000000000000000DB
:10017000000000000000000000000000000000007F
:1001800000000000AD240108000000000000000095
:08019000AD240108AD240108B3
:1001A00010B5054C237833B9044B13B10448AFF3B1
:1001B00000800123237010BD7008002000000000A3
:1001C0007C5B030808B5034B1BB103490348AFF33D
:1001D000008008BD00000000740800207C5B03085C
:1001E00010F8012B11F8013B012A28BF9A42F7D0E1
:1001F000D01A70470000000000000000000000005E
:1002000001F0FF01102A2BDB10F0070F08D010F8C7
:10021000013B013A8B422DD010F0070F42B3F6D1CB
:10022000F0B441EA012141EA014122F007047FF0E4
:1002300000070023F0E80256083C85EA010586EA3B
:10024000010685FA47F5A3FA87F586FA47F6A5FA77
:1002500087F68EB9EED1F0BC01F0FF0102F0070283
:1002600032B110F8013B013A83EA010313B1F8D12E
:100270000020704701387047002D06BF354603380F
:10028000073815F0010F07D1013015F4807F02BF48
:10029000013015F4C03F0130F0BC0138704700BF99
:1002A000034613F8012B002AFBD1181A01387047B6
:1002B00081F0004102E000BF83F0004330B54FEA17
:1002C00041044FEA430594EA050F08BF90EA020F84
:1002D0001FBF54EA000C55EA020C7FEA645C7FEA17
:1002E000655C00F0E2804FEA5454D4EB5555B8BF3A
:1002F0006D420CDD2C4480EA020281EA030382EAAB
:10030000000083EA010180EA020281EA0303362D3C
:1003100088BF30BD11F0004F4FEA01314FF4801C0F
:100320004CEA113102D0404261EB410113F0004F21
:100330004FEA03334CEA133302D0524263EB4303D8
:1003400094EA050F00F0A780A4F10104D5F1200E76
:100350000DDB02FA0EFC22FA05F2801841F10001D1
:1003600003FA0EF2801843FA05F359410EE0A5F1A5
:1003700020050EF1200E012A03FA0EFC28BF4CF0D6
:10038000020C43FA05F3C01851EBE37101F000458C
:1003900007D54FF0000EDCF1000C7EEB00006EEB99
:1003A0000101B1F5801F1BD3B1F5001F0CD3490823
:1003B0005FEA30004FEA3C0C04F101044FEA44527A
:1003C00012F5800F80F09A80BCF1004F08BF5FEA01
:1003D000500C50F1000041EB045141EA050130BDE1
:1003E0005FEA4C0C404141EB0101013C28BFB1F5F3
:1003F000801FE9D291F0000F04BF01460020B1FA3E
:1004000081F308BF2033A3F10B03B3F120020CDA10
:100410000C3208DD02F1140CC2F10C0201FA0CF0EE
:1004200021FA02F10CE002F11402D8BFC2F1200C53
:1004300001FA02F120FA0CFCDCBF41EA0C01904009
:10044000E41AA2BF01EB0451294330BD6FEA040452
:100450001F3C1CDA0C340EDC04F11404C4F120023D
:1004600020FA04F001FA02F340EA030021FA04F34F
:1004700045EA030130BDC4F10C04C4F1200220FAA6
:1004800002F001FA04F340EA0300294630BD21FAE4
:1004900004F0294630BD94F0000F83F4801306BFAA
:1004A00081F480110134013D4EE77FEA645C18BF9E
:1004B0007FEA655C29D094EA050F08BF90EA020F35
:1004C00005D054EA000C04BF1946104630BD91EA2D
:1004D000030F1EBF0021002030BD5FEA545C05D130
:1004E0004000494128BF41F0004130BD14F580046F
:1004F0003CBF01F5801130BD01F0004545F0FE41E3
:1005000041F470014FF0000030BD7FEA645C1ABF17
:10051000194610467FEA655C1CBF0B46024650EA4E
:10052000013406BF52EA033591EA030F41F400217A
:1005300030BD00BF90F0000F04BF0021704730B500
:100540004FF4806404F132044FF000054FF00001D5
:1005500050E700BF90F0000F04BF0021704730B596
:100560004FF4806404F1320410F0004548BF40426B
:100570004FF000013EE700BF42004FEAE2014FEAC0
:1005800031014FEA02701FBF12F07F4393F07F4F9B
:1005900081F06051704732F07F4208BF704793F09E
:1005A0007F4F04BF41F40021704730B54FF46074B1
:1005B00001F0004521F000411CE700BF50EA0102B4
:1005C00008BF704730B54FF000050AE050EA01025D
:1005D00008BF704730B511F0004502D5404261EBCD
:1005E00041014FF4806404F132045FEA915C3FF40E
:1005F000D8AE4FF003025FEADC0C18BF03325FEAAB
:10060000DC0C18BF033202EBDC02C2F1200300FA5B
:1006100003FC20FA02F001FA03FE40EA0E0021FA80
:1006200002F11444BDE600BF70B54FF0FF0C4CF46E
:10063000E06C1CEA11541DBF1CEA135594EA0C0F20
:1006400095EA0C0F00F0DEF82C4481EA030621EA5B
:100650004C5123EA4C5350EA013518BF52EA033596
:1006600041F4801143F4801338D0A0FB02CE4FF048
:100670000005E1FB02E506F00042E0FB03E54FF078
:100680000006E1FB03569CF0000F18BF4EF0010E70
:10069000A4F1FF04B6F5007F64F5407404D25FEA6C
:1006A0004E0E6D4146EB060642EAC62141EA55511F
:1006B0004FEAC52040EA5E504FEACE2EB4F1FD0C61
:1006C00088BFBCF5E06F1ED8BEF1004F08BF5FEADF
:1006D000500E50F1000041EB045170BD06F0004691
:1006E00046EA010140EA020081EA0301B4EB5C043E
:1006F000C2BFD4EB0C0541EA045170BD41F4801136
:100700004FF0000E013C00F3AB8014F1360FDEBF5A
:10071000002001F0004170BDC4F10004203C35DA36
:100720000C341BDC04F11404C4F1200500FA05F3B9
:1007300020FA04F001FA05F240EA020001F000425A
:1007400021F0004110EBD37021FA04F642EB0601D0
:100750005EEA430E08BF20EAD37070BDC4F10C04FA
:10076000C4F1200500FA04F320FA05F001FA04F2BE
:1007700040EA020001F0004110EBD37041F10001AA
:100780005EEA430E08BF20EAD37070BDC4F12005B5
:1007900000FA05F24EEA020E20FA04F301FA05F21D
:1007A00043EA020321FA04F001F0004121FA04F2C5
:1007B00020EA020000EBD3705EEA430E08BF20EA95
:1007C000D37070BD94F0000F0FD101F000464000CF
:1007D00041EB010111F4801F08BF013CF7D041EA51
:1007E000060195F0000F18BF704703F00046520055
:1007F00043EB030313F4801F08BF013DF7D043EA26
:100800000603704794EA0C0F0CEA135518BF95EADB
:100810000C0F0CD050EA410618BF52EA4306D1D162
:1008200081EA030101F000414FF0000070BD50EA81
:10083000410606BF1046194652EA430619D094EA0B
:100840000C0F02D150EA013613D195EA0C0F05D1F5
:1008500052EA03361CBF104619460AD181EA030149
:1008600001F0004141F0FE4141F470014FF0000001
:1008700070BD41F0FE4141F4780170BD70B54FF09C
:10088000FF0C4CF4E06C1CEA11541DBF1CEA13551C
:1008900094EA0C0F95EA0C0F00F0A7F8A4EB0504FE
:1008A00081EA030E52EA03354FEA013100F08880F5
:1008B0004FEA03334FF0805545EA131343EA1263BE
:1008C0004FEA022245EA111545EA10654FEA002673
:1008D0000EF000419D4208BF964244F1FD0404F52C
:1008E000407402D25B084FEA3202B61A65EB030588
:1008F0005B084FEA32024FF480104FF4002CB6EB45
:10090000020E75EB030E22BFB61A754640EA0C00C4
:100910005B084FEA3202B6EB020E75EB030E22BF04
:10092000B61A754640EA5C005B084FEA3202B6EB45
:10093000020E75EB030E22BFB61A754640EA9C0004
:100940005B084FEA3202B6EB020E75EB030E22BFD4
:10095000B61A754640EADC0055EA060E18D04FEA92
:10096000051545EA16754FEA06164FEAC30343EA32
:1009700052734FEAC2025FEA1C1CC0D111F4801FFF
:100980000BD141EA00014FF000004FF0004CB6E7F8
:1009900011F4801F04BF01430020B4F1FD0C88BF97
:1009A000BCF5E06F3FF6AFAEB5EB030C04BFB6EBA2
:1009B000020C5FEA500C50F1000041EB045170BD95
:1009C0000EF0004E4EEA113114EB5C04C2BFD4EBC2
:1009D0000C0541EA045170BD41F480114FF0000E46
:1009E000013C90E645EA060E8DE60CEA135594EAC2
:1009F0000C0F08BF95EA0C0F3FF43BAF94EA0C0FC5
:100A00000AD150EA01347FF434AF95EA0C0F7FF439
:100A100025AF104619462CE795EA0C0F06D152EA8D
:100A200003353FF4FDAE1046194622E750EA410671
:100A300018BF52EA43067FF4C5AE50EA41047FF482
:100A40000DAF52EA43057FF4EBAE12E74FF0FF3CE7
:100A500006E000BF4FF0010C02E000BF4FF0010CB8
:100A60004DF804CD4FEA410C7FEA6C5C4FEA430C31
:100A700018BF7FEA6C5C1BD001B050EA410C0CBF80
:100A800052EA430C91EA030F02BF90EA020F0020E2
:100A9000704710F1000F91EA030F58BF994208BF49
:100AA00090422CBFD8176FEAE37040F00100704706
:100AB0004FEA410C7FEA6C5C02D150EA013C07D15D
:100AC0004FEA430C7FEA6C5CD6D152EA033CD3D0A8
:100AD0005DF8040B704700BF8446104662468C46A2
:100AE0001946634600E000BF01B5FFF7B7FF0028D5
:100AF00048BF10F1000F01BD4DF808EDFFF7F4FFFE
:100B00000CBF012000205DF808FB00BF4DF808ED88
:100B1000FFF7EAFF34BF012000205DF808FB00BFAB
:100B20004DF808EDFFF7E0FF94BF012000205DF8CD
:100B300008FB00BF4DF808EDFFF7CEFF94BF012082
:100B400000205DF808FB00BF4DF808EDFFF7C4FF7B
:100B500034BF012000205DF808FB00BF4FEA410CC4
:100B60007FEA6C5C02D150EA013C0AD14FEA430CA7
:100B70007FEA6C5C02D152EA033C02D14FF00000E4
:100B800070474FF0010070474FEA410212F5001222
:100B900015D211D56FF47873B3EB625212D94FEAC4
:100BA000C12343F0004343EA505311F0004F23FAAE
:100BB00002F018BF404270474FF00000704750EA03
:100BC000013005D111F0004008BF6FF000407047C0
:100BD0004FF00000704700BF4A0011D212F500121A
:100BE00011D20DD56FF47873B3EB62520ED44FEA85
:100BF000C12343F0004343EA505323FA02F0704705
:100C00004FF00000704750EA013002D14FF0FF3042
:100C100070474FF0000070474FEA4102B2F1E043E5
:100C200024BFB3F5001CDCF1FE5C0DD901F0004CD3
:100C30004FEAC0024CEA5070B2F1004F40EB830023
:100C400008BF20F00100704711F0804F21D113F14F
:100C50003872BCBF01F00040704741F480114FEA88
:100C60005252C2F11802C2F1200C10FA0CF320FA11
:100C700002F018BF40F001004FEAC1234FEAD3232E
:100C800003FA0CFC40EA0C0023FA02F34FEA430398
:100C9000CCE77FEA625307D150EA01331EBF4FF021
:100CA000FE4040F44000704701F0004040F0FE403C
:100CB00040F40000704700BF7BB972B90029BEBF85
:100CC00000204FF0004106E008BF00281CBF6FF075
:100CD00000414FF0FF3000F0FFB9ADF1080C6DE9B5
:100CE00004CE002909DB002B1ADB00F097F8DDF8B1
:100CF00004E0DDE9022304B07047404261EB4101AA
:100D0000002B1BDB00F08AF8DDF804E0DDE90223AC
:100D100004B0404261EB4101524263EB4303704730
:100D2000524263EB430300F079F8DDF804E0DDE9BB
:100D3000022304B0404261EB41017047524263EB31
:100D4000430300F06BF8DDF804E0DDE9022304B0B2
:100D5000524263EB4303704753B94AB9002908BFB5
:100D600000281CBF4FF0FF314FF0FF3000F0B4B946
:100D7000ADF1080C6DE904CE00F050F8DDF804E0A8
:100D8000DDE9022304B07047430803F05533C01A6D
:100D9000830803F0333300F03330184400EB1010B5
:100DA00000F00F3000EB002000EB0040000E704719
:100DB00038B50022002304460D46FFF7A7FE28B9E8
:100DC00020462946BDE8384000F00AB8204605F123
:100DD000004100F005F8404261EB410138BD00BF21
:100DE000D0B50C4B002206460F46FFF71DFCFFF75F
:100DF000F3FE0446FFF79EFB074B0022FFF714FCAF
:100E000002460B4630463946FFF756FAFFF7E4FE36
:100E10002146D0BD0000F03D0000F0412DE9F04733
:100E2000089D0C46002B4ED194468C458646B2FA5E
:100E300082F262D94AB1C2F12003914020FA03F351
:100E40000CFA02FC194300FA02FE4FEA1C471FFA93
:100E50008CF6B1FBF7F44FEA1E4307FB141143EA8B
:100E6000014304FB06F199420AD91CEB030304F188
:100E7000FF3080F01281994240F20F81023C6344BE
:100E8000591A1FFA8EF3B1FBF7F007FB101143EA72
:100E9000014300FB06F69E420AD91CEB030300F156
:100EA000FF3180F0FC809E4240F2F98063440238BA
:100EB0009B1B40EA044000211DB1D3400022C5E93C
:100EC0000032BDE8F0878B4205D90DB1C5E90001BC
:100ED00000210846F5E7B3FA83F1002946D1A34281
:100EE00002D39042C0F0F080861A64EB0303012025
:100EF000002DE6D0C5E90063E3E7002A40F09080CA
:100F0000A1EB0C044FEA1C481FFA8CF70121B4FB3B
:100F1000F8F64FEA1E4308FB164443EA044307FB76
:100F200006F0984208D91CEB030306F1FF3402D205
:100F3000984200F2CD8026461C1A1FFA8EF3B4FBAD
:100F4000F8F008FB104443EA044300FB07F79F4214
:100F500008D91CEB030300F1FF3402D29F4200F2D8
:100F6000B0802046DB1B40EA0640A5E7C1F1200621
:100F70008B4022FA06F71F4320FA06FC04FA01F31D
:100F800043EA0C03F44000FA01F8380C4FEA134925
:100F9000B4FBF0FE1FFA87FC00FB1E4449EA044440
:100FA0000EFB0CF9A14502FA01F20AD93C190EF127
:100FB000FF3A80F08480A14540F28180AEF1020EBC
:100FC0003C44A4EB09041FFA83F9B4FBF0F300FBE3
:100FD000134449EA044403FB0CFCA44507D93C191B
:100FE00003F1FF3067D2A44565D9023B3C4443EA94
:100FF0000E40A0FB0293A4EB0C049C42CE469C4600
:1010000051D34ED055B1B8EB0E0364EB0C0404FA87
:1010100006F6CB401E43CC40C5E90064002150E7F2
:10102000C2F1200320FA03F10CFA02FC24FA03F3C4
:1010300094400C434FEA1C4800FA02FE1FFA8CF75A
:10104000B3FBF8F008FB1031230C43EA014300FB2B
:1010500007F1994208D91CEB030300F1FF362CD2AB
:1010600099422AD9023863445B1AA4B2B3FBF8F15F
:1010700008FB113344EA034401FB07F3A34208D9F8
:101080001CEB040401F1FF3613D2A34211D902393B
:101090006444E41A41EA004139E70446F0E60846B0
:1010A00006E7C845AED2B9EB020E63EB070C013878
:1010B000A8E73146EDE7034699E73046D4E7D64640
:1010C0007FE7634402384DE70646234608460FE7AC
:1010D000023E634430E700BF704700BF08B50022FE
:1010E0004FF48051014805F01EFA08BD000402408B
:1010F00008B501224FF48051014805F014FA08BDEB
:101100000004024008B500224FF40041014805F0F8
:101110000AFA08BD0000024008B501224FF4004160
:10112000014805F000FA08BD0000024010B58EB07D
:10113000484B93E803000C90ADF834100DF1240CEB
:1011400003F1080494E807008CE80700143393E8DF
:1011500003000790ADF8201004AB94E8070083E883
:1011600007006FE000231A4601A93B48006807F01A
:1011700086FA00240EE000220EAB03EB440333F8A2
:10118000081C0EAB03EB840353F8140C05F0CBF9E9
:101190000134E4B2022C5BD804F138036B4413F839
:1011A000343C002BE7D001220EAB03EB440333F8B1
:1011B000081C0EAB03EB840353F8140C05F0B3F9D1
:1011C000E6E70EAB03EB440203EB840332F8081CA2
:1011D00053F8140C05F0A0F904F138036B4403F83C
:1011E000300C0134E4B2022CEBD91C4C206807F01F
:1011F00094FA00231A4602A9206807F0FEF9002499
:1012000011E00EAB03EB440203EB840332F81C1C29
:1012100053F8280C05F080F904F138036B4403F807
:101220002C0C0134E4B2022CEBD90D4C206807F0F1
:1012300074FA00231A4603A9206807F0DEF901209A
:1012400007F0E3F8044B186807F05AFA002889D130
:101250000024C8E7985B03089C080020A008002031
:10126000A408002084B008B50DF1080C8CE80F002C
:1012700000231A4661460448006807F0BEF9BDE83D
:10128000084004B0704700BF9408002070B58AB0D1
:101290004FF47A7007F0B9F806F050FF642007F0B9
:1012A000B4F80021012006F0ADFE002006F06EFE2D
:1012B000484C01222146484806F0F8FE012221460A
:1012C000464806F0F3FE0B21012006F09BFE0122AA
:1012D0002146434806F0EAFE1621012006F092FE60
:1012E000012221463F4806F0E1FE2121012006F0BF
:1012F00089FE3D4B59680A784B788878CD780E790D
:1013000049790391029601950090384905A81AF091
:10131000F5FE0122214605A806F0C8FE06F0B8FF3A
:1013200040F6B83008F0DCFB002503E04FF47A709B
:1013300007F06BF80021012006F064FE002006F0A3
:1013400025FE244C01222146294806F0AFFE264BFB
:101350005B689A68130E0193C2F307430093C2F3CC
:101360000723D2B2234905A81AF0C8FE012221465C
:1013700005A806F09BFE0A21012006F043FE01228B
:1013800021461D4806F092FE01352A461B4905A854
:101390001AF0B4FE0122214605A806F087FE06F0E9
:1013A00077FF4FF47A7301227821154805F006FC87
:1013B0000028BBD0124805F02BFB4FF47A7008F0E0
:1013C0008FFB00F0F3FC4FF47A7008F089FB06F015
:1013D000B5FEE6E70C010020145E0308205E03085A
:1013E0002C5E0308385E0308C0080020405E030836
:1013F000605E0308645E0308745E030844B2030879
:10140000C808002070B5BAB000233993794B7A4AE6
:101410007A497B4804F01AFC7A497B4809F02EFC93
:1014200000283BDB794809F017FC794C204609F08D
:1014300007FC784809F004FC204609F00DFC7648CA
:1014400009F00AFC754809F007FC754809F004FC2E
:10145000744809F001FC002239A9734809F044FBE3
:10146000F8B10121704809F07DFB0446C62207A9A6
:1014700009F0A8FB204609F099FB00228DF81C20FA
:10148000022307A96948006807F01EFB002239A95A
:10149000674809F029FB88B1002482E004F0CCFE03
:1014A000C0E7C622002107A81BF0EAF902230022A8
:1014B00007A95E48006807F007FBE7E740F29A607B
:1014C00009F0AAF9044690B35A49012000F016FD2C
:1014D000594B186820609B88A38001AD574E0FCEF2
:1014E0000FC596E8030045F8040B297001AD0FCD38
:1014F000C4F88000C4F88410C4F88820C4F88C3084
:101500002868C4F890002B7984F894300221484868
:1015100009F028FB054640F29A62214609F05EFB7D
:10152000284609F043FB204609F0F8F9B4E744499E
:10153000032000F0E3FCF6E73B4D284609F080FB72
:101540000221284609F00EFB0546002833D0C622AA
:1015500007A909F043FB284609F028FB00228DF873
:101560001C20022307A93148006807F0ADFA22E0E9
:10157000012006F04AFF4FF48071324804F0CCFF9E
:101580000028F5D04FF47A7006F03FFF284809F0A4
:1015900057FB04F051FE00E000244FF47A7006F08F
:1015A00034FF002207A9214B186807F0A0FD9DF821
:1015B0001C30002BC0D14FF48071224804F0ACFFE6
:1015C0000028E9D10134E4B21E4D0122022128464F
:1015D00004F0A9FF642006F018FF0022022128462B
:1015E00004F0A1FF082CD8D101220221284604F0E2
:1015F0009AFFC0E7291801084D18010819110108C0
:10160000051101087918010865180108785E0308BA
:10161000805E03088C5E03089C5E0308A85E0308D6
:10162000C8770308B05E0308B85E03089808002076
:10163000CC5E0308085F0308405F0308485F0308A7
:10164000DC5E03080004024008B5012914D0022919
:101650001AD001B108BD4AB1012AFBD102230022F0
:1016600001461248006807F02FFAF3E701460F4BD6
:10167000186807F03CFDEDE7002AEBD101460C4B62
:10168000186807F034FDE5E74AB1012AE2D10223E8
:10169000002201460748006807F016FADAE701461B
:1016A000054B186807F023FDD4E700BF9808002019
:1016B000A40800209C080020A008002030B5D1B06C
:1016C0003E4800F00FFC012000F012FC3C490120D4
:1016D00000F014FC4FF4FA6006F097FE4FF4FA6441
:1016E00048E000231A4607A93648006806F0C7FFFD
:1016F0000221354809F036FA05469DF81D210DF105
:101700001D0109F06BFA284609F050FA38E048A8A4
:1017100009F042F94E9B04934D9B03934C9B02931B
:101720004B9B01934A9B0093499B489A2749012070
:1017300000F0E4FB264C63689A68130E0193C2F331
:1017400007430093C2F30723D2B22249012000F0DD
:10175000D5FB61680A784B788878CC780D7949791F
:1017600003910295019400901B49012000F0C6FBF3
:1017700000240134134B186806F0C2FF0028B0D1D2
:101780004FF4FA7006F041FEB4F5FA6FF1D1002281
:101790004FA90D4809F0A8F94F9A4CF250339A42DC
:1017A000B5D90E4C204609F04BFA2146064809F0FF
:1017B0003BFA0B49012000F0A1FBA8E765120108E4
:1017C000605F030894080020745F0308A85F0308A3
:1017D000C00800203C60030858600308845F0308C9
:1017E000945F030808B5044805F0DEFA4FF4FA7078
:1017F00006F00BFEF7E700BF1C09002000B587B01C
:101800008DF80F104FF0FF33009301230DF11702F5
:101810000DF10F01034806F056F89DF8170007B0C8
:101820005DF804FB2C09002000B583B08DF807009B
:101830004FF0FF3301220DF10701034805F061FF6E
:1018400003B05DF804FB00BF8409002008B50A4618
:101850004FF0FF330146024806F05FF908BD00BFB4
:101860008409002008B54FF0FF31024B186806F0DC
:1018700023FE08BD8C08002008B5024B186806F04E
:101880004AFE08BD8C08002008B52C4806F0CBFDA8
:101890002B4B18602B4806F0C6FD2B4B18602B4ACB
:1018A0000321012006F05EFE294B1860294A03211E
:1018B000012006F057FE284B1860284A032101201A
:1018C00006F050FE264B1860264AC621012006F07D
:1018D00049FE254B1860254A4FF481710F2006F010
:1018E00041FE234B1860234A0021234806F02EFDB9
:1018F000224B1860224A0021224806F027FD224B85
:101900001860224A0021224806F020FD214B186071
:10191000214A0021214806F019FD214B1860214A77
:101920000021214806F012FD204B1860204A0021BA
:10193000204806F00BFD204B186008BD68610308C5
:1019400090080020586103088C080020D861030823
:10195000A4080020C0610308A0080020A8610308B3
:101960009C08002090610308980800207861030813
:1019700094080020A4620308E5190108BC080020AF
:10198000806203082D110108B80800205C6203087A
:101990008D120108B40800203862030805140108FC
:1019A000B008002014620308BD160108AC0800202E
:1019B000F0610308E5170108A808002008B5002217
:1019C0004FF48071014804F0AEFD08BD00000240F4
:1019D00008B501224FF48071014804F0A4FD08BD50
:1019E0000000024030B5EBB022AD644B0FCB85E870
:1019F0000F0002AC8022002120461AF041FF402354
:101A00008DF8083022238DF809305D4B1A7C8DF853
:101A10000A209A7C8DF80B201A7D8DF80C201B7EF5
:101A20008DF80D3001238DF827308DF82830554B77
:101A30000B930C95544B58AA1A605C6003E04FF46A
:101A4000FA7006F0E2FC09F013F90028F7D058A864
:101A500011F008FD4D4B03221A6002F0D7FE044638
:101A60000FE0FFF7ABFF4FF4FA7006F0CEFCFFF784
:101A7000AFFF4FF4FA6006F0C8FC02A958A817F0AF
:101A800021F9BDF84C30002BEBD0062102A803F061
:101A9000E9FA3F4802F0C8FE3B4B22463D4958A8B0
:101AA00015F03EFB06E0012158A817F0A5FE012025
:101AB00006F0ABFC9DF88430032BF4D1324B5B680D
:101AC0009A68130E0193C2F307430093C2F30723EE
:101AD000D2B23149012000F011FA0022114626A8A5
:101AE000FFF7B2FD9DF89930EBB12C49012000F0D1
:101AF00005FA274B01930DF23D13009347AB0DF10F
:101B00009A0202A958A803F0EBF958A803F080FE46
:101B100002A958A804F048F858A801F051F807F0B5
:101B2000D1FE054608E01E49012000F0E7F9ECE788
:101B3000012006F06AFC254607F0C4FE0446411B5E
:101B400058A817F059FE0B9BDB6802A8984700289D
:101B5000EED1FFF733FF642006F057FCFFF738FFA4
:101B600040F6B83006F051FC0B9B1B6802A8984762
:101B700041F6583006F049FCE5E700BFB45B0308C6
:101B8000007AFF1F18010020C00800202C0100204F
:101B900049160108806003083C600308946003084C
:101BA000AC6003080BB2002B20DD70B582B0064696
:101BB00015468B18042B02DD012002B070BD4C1EAF
:101BC000A4B20022012101A8FFF73EFD0AE004F1C2
:101BD00008036B4413F8043C0122A1B2304600F024
:101BE00045FE0134A542F2DC0020E6E70120704703
:101BF000F0B583B016460AB2002A43DD05461F46FB
:101C00008B19042B41DC27B3012F39D101398CB258
:101C10000022022101A8FFF717FD27460FE001224D
:101C2000B9B2284600F056FE01220021284600F0F5
:101C300051FE07F108036B4403F8040C0137331914
:101C4000BB42ECDC0122022101A8FFF7FDFC0020D1
:101C500019E04C1EA4B20022022101A8FFF7F4FCF7
:101C60000AE004F108036B4413F8043C0122A1B21A
:101C7000284600F0FBFD0134A642F2DC384602E0C3
:101C8000012000E0012003B0F0BD0120FBE70120AE
:101C900070470120704700002DE9F04389B000240F
:101CA0000394049405940694079400943C4B1A6B97
:101CB00042F080021A631A6B02F080020092009ACE
:101CC00001941A6B42F001021A631A6B02F00102CE
:101CD0000192019A02941A6B42F002021A631B6B82
:101CE00003F002030293029B2E4E22464FF4F07142
:101CF000304604F018FC2C4D22460721284604F0FB
:101D000012FC01224FF48051284604F00CFC012201
:101D10004FF40041304604F006FC4FF00709CDF8BF
:101D20000C9004944FF00208CDF8148003A93046BB
:101D300004F086FAE02303930127049705940694A0
:101D400003A9304604F07CFACDF80C900497059472
:101D5000069403A9284604F073FA4FF480530393C2
:101D600004970594CDF8188003A9284604F068FA72
:101D70004FF40143039304970594CDF8188003A909
:101D8000304604F05DFA4FF4807303930494059495
:101D900003A9284604F054FA09B0BDE8F08300BF57
:101DA00000380240000002400004024008B50B4821
:101DB0000B4B03600B4B436000238360C3604FF405
:101DC0008042026143618361C361036204F042FDAA
:101DD00000B908BD00F03CF9FBE700BFC8080020CF
:101DE00000540040400D030030B589B00023039338
:101DF00004930593069307930268154B9A4201D00A
:101E000009B030BD00250195124C236B43F002034D
:101E10002363236B03F002030193019BC02303930D
:101E200012230493012305930323069304230793AA
:101E300003A9094804F004FA0295236C43F4001343
:101E40002364236C03F400130293029BD8E700BFC2
:101E500000540040003802400004024002680A4B6F
:101E60009A4200D0704710B5084A136C23F400134F
:101E70001364074C4021204604F0C6FA8021204616
:101E800004F0C2FA10BD00BF005400400038024008
:101E90000004024008B50748074B03600323436072
:101EA00040F6FF73836004F053FF00B908BD00F0F3
:101EB000CFF8FBE71C0900200030004084B08DE81B
:101EC0000F0004B0704738B501FB00F4204608F05D
:101ED000A3FC054618B1224600211AF0D1FC284681
:101EE00038BD000008B1014A1060704700000020B2
:101EF000014B1870704700BF280900200EB4F0B5E0
:101F0000ADF51C7D444B1B78834205D90DF51C7D36
:101F1000BDE8F04003B07047044601214FF48070E3
:101F2000FFF7D1FF05460028F0D04FF48172002161
:101F30005BA81AF0A5FC8DF86C4117F0F1FCFEF7D8
:101F40003DFB06460F460022344BFEF797FCFEF79A
:101F50002FFFCDE958014FA958A81AF027FD4FAB24
:101F60002F4A40213FA81BF033FB04463046394638
:101F7000FEF70AFE2B4A82FB0032C317C3EBA21303
:101F80004FF47A7202FB1303274AC4F140013FA8C1
:101F9000204419F04BFF0444631C20223FA90A553A
:101FA0000022CA54A2AB5A930DF26D16A19AFD21DC
:101FB00030461AF003FA04469DF86C2101961B4B3B
:101FC00053F8223000933FAB194A4FF480712846F2
:101FD00019F02CFFF52C1BD82846FEF761F98DF877
:101FE0006D024FF4807229460DF26D101AF08FFCCD
:101FF000104B1E6846B15BACF2225FA968461BF02D
:102000007BFE94E80F00B047284608F087FC7DE788
:10201000F6238DF86D32E4E72809002000408F4058
:10202000C8620308D34D6210DC620308040000207C
:10203000E46203080000002008B50268034B9A42DE
:1020400000D008BD04F058F8FBE700BF0040014095
:1020500072B6FEE700B595B03022002108A81AF04C
:102060000FFC0023039304930593069307930193B6
:102070001F4A116C41F080511164126C02F08052C1
:102080000192019A02931B4A116841F44041116088
:10209000126802F440420292029A0A220892012235
:1020A0000B9210210C910D9202220E920F93082395
:1020B00010936423119312920423139308A804F03D
:1020C00079FE88B90F230393022304930023059319
:1020D0004FF4805206920793032103A805F0D4F829
:1020E00020B915B05DF804FBFFF7B2FFFFF7B0FFB2
:1020F000003802400070004000B583B072B6114B4A
:10210000114A9A6062B6114B019302E0019B013BB8
:102110000193019B002BF9DC03F0D4FFFFF79AFF3A
:10212000FFF7BAFD00F036F8FFF740FE00F010F8B8
:10213000FFF7B0FE06F0DCF8FFF7A6FB06F0EAF8C2
:10214000FEE700BF00ED00E00000010840420F0084
:1021500008B50E480E4B03604FF4827343600023B2
:102160008360C360036143614FF40072826108229F
:10217000C2610362436283620A23C36205F062FAAA
:1021800000B908BDFFF764FFFBE700BF840900202A
:102190000030014008B50D480D4B03604FF48273C9
:1021A000436000238360C360036143614FF40072A6
:1021B0008261C3610362436283620A23C36205F0E2
:1021C00041FA00B908BDFFF743FFFBE72C090020E7
:1021D0000038004000B58BB00023059306930793A9
:1021E000089309930368284A934205D0274A9342EB
:1021F00025D00BB05DF804FB00210191244B5A6CF3
:1022000042F480525A645A6C02F480520192019A4C
:1022100002911A6B42F002021A631B6B03F0020375
:102220000293029B3823059302230693032308930A
:102230000523099305A9174804F002F8D9E70021FE
:102240000391134B1A6C42F480421A641A6C02F424
:1022500080420392039A04911A6B42F002021A63BD
:102260001B6B03F002030493049B4FF4604305933C
:1022700002230693032308930523099305A9054820
:1022800003F0DEFFB5E700BF00300140003800403A
:10229000003802400004024000B583B000220092E2
:1022A0000D4B596C41F480415964596C01F48041E3
:1022B000009100990192196C41F0805119641B6CD6
:1022C00003F080530193019B0F216FF0010003F095
:1022D0009FFF03B05DF804FB0038024030B589B0C1
:1022E0000546002401941D4B5A6C42F480325A6416
:1022F0005B6C03F480330193019B02A903A805F0F2
:1023000099F805F087F8164AA2FB00239B0C013BC5
:102310001448154A026040F2E732C260436004612B
:102320008460846105F004FE044610B1204609B0C3
:1023300030BD0C4805F0B6FC04460028F6D1182044
:1023400003F076FF0F2D01D90124EFE70022294683
:10235000182003F05DFF054B1D60E7E700380240E1
:1023600083DE1B43DC0900200040014008010020FF
:10237000FEE7FEE7FEE7FEE7FEE7704708B5024826
:1023800005F0D0FC08BD00BFDC090020012070472B
:1023900008B51BF079FC162303604FF0FF3008BD31
:1023A00008B54FF0FF31FFF7F3FFFEE770B50C46BD
:1023B0001646002506E0AFF30080214601F8010B28
:1023C00001350C46B542F6DB304670BD70B50C46A3
:1023D0001646002504E014F8010BAFF30080013528
:1023E000B542F8DB304670BD4FF0FF3070474FF418
:1023F00000534B6000207047012070470020704759
:1024000010B503460C4A0D490D48006840B10C4810
:1024100000680344521A934206D8094A136010BD5B
:102420000748084C0460F2E71BF02EFC0C23036005
:102430004FF0FF30F3E700BF00000220000800006B
:10244000280A002018A20120034AD2F8883043F459
:102450007003C2F88830704700ED00E0DFF834D038
:10246000FFF7F2FF0C480D490D4A002302E0D45853
:10247000C4500433C4188C42F9D30A4A0A4C0023CE
:1024800001E013600432A242FBD31BF00BFCFFF708
:1024900033FE70470000022000000020700800207A
:1024A000BCC103087008002018A20120FEE738B55F
:1024B0000B88052B01D0032038BD0C46437881786A
:1024C00041EA0321013189B2C378027942EA032249
:1024D000531E9BB240F2CE7C634520D8002323805C
:1024E0000123037023880133238012F0070F10D0DB
:1024F000C2F3C7030133DDB2457023880133238063
:1025000000230230FFF774FB30B923882B4423806B
:10251000D2E7C2F3C705EFE700F0F0F9CCE70320FC
:10252000CAE70B88052B01D00320704743788178D8
:1025300041EA0321013189B20379F3B9C278531E0C
:10254000DBB2FD2B1BD900B583B000238DF805301D
:10255000FF2A0BD000238DF8043001231A4601A86E
:10256000FFF746FB30B903B05DF804FB01238DF89B
:102570000430F2E700F0C2F9F5E7032070470320CA
:1025800070470B88052B2DD910B50C4642788378FF
:1025900043EA0223013399B2C278037943EA022263
:1025A00090F805E013F0070F0ED0C2F3C70C0CF142
:1025B000010C5FFA8CFC531E9BB2B3F5F66F13D27D
:1025C000F44504D0032010BDC2F3C70CF3E7012388
:1025D0000630FFF70DFB10B905232380F3E700F069
:1025E0008DF9F0E7032070470320ECE738B50B883E
:1025F000052B01D0032038BD0C464378817841EA91
:102600000321013189B2C378027942EA0322531EC1
:102610009BB240F2CE7C63451FD800232380022367
:10262000037023880133238012F0070F0FD0C2F309
:10263000C7030133DDB245702388013323800230A4
:10264000FFF7B0FA30B923882B442380D3E7C2F3D5
:10265000C705F0E700F052F9CDE70320CBE708B556
:102660000B88052B01D0032008BD4378817841EA0F
:102670000321013101231A4689B20330FFF709FB18
:102680000028F1D000F03AF9EEE70B88052B22D9AB
:1026900010B50C464278837843EA0223013399B29D
:1026A000C378027942EA032290F805C0531E9BB218
:1026B000772B12D85300DBB2634501D0032010BD45
:1026C00001230630FFF7E5FA10B905232380F6E76A
:1026D00000F014F9F3E7032070470320EFE738B563
:1026E0000B88052B01D0032038BD02460C464378E9
:1026F000817841EA0321013189B205796B1E9BB2D1
:102700007C2B01D90320EFE7002323804FF0030C3B
:1027100000F802CBB4F800C00CF1010CA4F800C022
:102720004FEA450C82F801C02288013222802A46F5
:10273000FFF7AFFA20B9238803EB45032380D3E7E3
:1027400000F0DCF8D0E7F8B50B88092B43D9044634
:102750000D464378817841EA032101318EB2C37876
:10276000077947EA03274379817941EA0321013157
:1027700089B2C379027A42EA0322407A7B1E9BB275
:102780007C2B2AD85AB3792A2BD8B0EB420F01D030
:10279000032021E0012304F10A00FFF77AFA03463F
:1027A000B0B928802046172200F8022B2A8801326F
:1027B0002A807A0062702A8801322A803A4631469D
:1027C000FFF767FA20B92B8803EB47032B8003E060
:1027D00000F094F800E00020F8BD0320FCE703209F
:1027E000FAE70320F8E70A88052A01D0032070479A
:1027F00038B503460C464278817841EA022101311E
:1028000089B2C278057945EA02256A1E92B27B2A0E
:1028100001D9032038BD00222280042200F8022BB7
:102820002288013222806A005A7023880133238073
:102830002A46FFF72CFA20B9238803EB45032380AF
:10284000E8E700F05BF8E5E738B50D46054B1C8876
:102850002246054901301BF04FFA01342C8000203C
:1028600038BD00BF2C0A0020300A002010B5082A0D
:1028700023D84FEAD10E01F0070403FA04F44FF015
:10288000010C0CFA02F292B2013A92B201F0070185
:1028900002FA01F110F80E300EEB0C0210F802C033
:1028A00043EA0C231BB223EA01031BB2234300F8C3
:1028B0000E30C3F30723835410BD034B034A372163
:1028C000034817F08BFA00BF2863030880630308EE
:1028D000386303084FEAD10C012393409BB2013BBC
:1028E00010F80C206044407842EA002201F0070111
:1028F0000A4192B203EA0200C0B27047012805D033
:10290000072805D008B1042070477047022070479F
:102910000620704710B500F0CEF9044620B1114BE7
:1029200001221A70204610BD00F0CAF8C0B10E4B4B
:102930000E4A1A600E4B0F4A1A600F4B0F4A1A606C
:102940000F4B104A1A60104B00221A600F4BFF22E7
:102950001A700F4B02221A70024B01221A70E1E723
:102960000324DFE79C000020680A0020C72C010830
:10297000640A0020C92C0108600A0020D12C01083B
:102980006C0A0020112D01085C0A0020710A002049
:10299000700A002008B5064B1B78012B01D00620D9
:1029A00008BD044B1B6898470020014B1870F7E7DF
:1029B0009C000020680A002030B583B0364B1C789C
:1029C000002C63D10DF1070000F08EF8012802D031
:1029D000204603B030BD9DF80730012B14D0022BE8
:1029E000F6D12E4B186801782D4B19702D4B012212
:1029F0001A7000230F2B25DC2B4A12F833200AB360
:102A0000914217D00133F5E7284B1B68284A234928
:102A10002848984705460028DAD1264B1B78264AD5
:102A20001278934201D0002B32D1022000F050F8EE
:102A30002C46CDE71C4A02EBC3035B681C49984750
:102A4000184B18701B4B1B7823B3164B1B789BB18C
:102A5000174A0021118012490978104805684FF083
:102A6000010CA2F800C041F08001297000681188B3
:102A700001EB0C0515804354104B1B680C4A12885F
:102A8000064909680C4800789847A1E706249FE7A3
:102A900004469DE71C469BE79C000020540A00204A
:102AA000510A0020500A00201C000020600A00206B
:102AB000520A0020580A0020710A00206C0A0020E7
:102AC000024B00221A700120704700BF720A0020DA
:102AD0000123034A1370034A10701846704700BF61
:102AE000720A0020730A00200346054A107830B1AC
:102AF000044A12781A70024B00221A7001207047A3
:102B0000720A0020730A0020072900D0704738B5E8
:102B100004461E4B00F11C0293E8030013F04EFA2A
:102B2000012806D094F8AD3043F0200384F8AD308E
:102B300038BD226C93B216490B8033B994F8AD308E
:102B400043F0200384F8AD30F2E71A46A16B114838
:102B50001BF0D2F80120FFF7BBFFFFF72DFFFFF7B7
:102B60002BFF0D4B1B7833B994F8AD3043F02003A5
:102B700084F8AD30DCE70025074B1D70074B1A8841
:102B80000749204614F034FB2564D1E7740A00207D
:102B900080120020841200207C0A00207E0A00207F
:102BA000800A002038B501FB00F4204607F034FE0F
:102BB000054618B12246002119F062FE284638BDAC
:102BC00030B583B00023244A244914F025FA0020AC
:102BD000FFF7A0FEFFF7DEFE0022019201A92048C8
:102BE00007F082FF0198421E40F2FE339A4215D848
:102BF00001210844FFF7D6FF1A4D2860012118482B
:102C000007F0B0FF0446019A296807F0DBFF019B3B
:102C10006B60204607F0CAFF03B030BD01210B20D6
:102C2000FFF7C0FF03460F4C20600B2262600E4A84
:102C300003CA186059601188927819819A7202212A
:102C4000074807F08FFF05466268216807F0C6FF56
:102C5000284607F0ABFFDFE7092B01089063030864
:102C6000A4630308740A0020B863030801207047B6
:102C7000044B0360044B1A880A8000221A8001204A
:102C8000704700BF841200208012002010B50C464F
:102C90000A46014604481BF02FF8044B1C80012013
:102CA000034B187010BD00BF800A00207E0A002070
:102CB0007C0A0020704708B5FFF7D8FF08B1002054
:102CC00008BD0320FCE7704708B5FFF7F3FF08BD18
:102CD00070B582B006460D4614460DF1020101A8FA
:102CE000FFF7C6FF80B1019B9978DA7852EA01229A
:102CF0000CD107332B60BDF80230073B2380FF2344
:102D00003370002002B070BD0520FBE70520F9E715
:102D100008B50846D11D531C1B1200F8033C0132B4
:102D200000F8022C89B20738FFF7B0FF08B1002085
:102D300008BD0520FCE7000008B5034B034AC82185
:102D400011F0A4F808BD00BFA4AB0308C4630308D6
:102D500070B584B005460C4602AE1049304611F0FD
:102D60001FFA0023009396E80C0094E8030011F08A
:102D700039FC58B10A4B01930A4B00930A4B0B4A9A
:102D8000C821284611F082F804B070BD084B074AEC
:102D90004FF4C871284611F079F8F5E76464030828
:102DA000106503081465030868640308A064030839
:102DB0001865030870B584B005460C4602AE144988
:102DC000304611F0EDF90023009396E80C0094E8EA
:102DD000030011F007FC98B10E4B1B6A0E48984790
:102DE00038B10E4B0E4AC821284611F04FF804B0F6
:102DF00070BD0C4B0A4AC821284611F047F8F6E787
:102E0000094B074A4FF4C871284611F03FF8EEE726
:102E100068650308A00000208C5E03087065030845
:102E2000A0640308AC650308F065030870B584B0BE
:102E300005460C4602AE1249304611F0B1F90023A6
:102E4000009396E80C0094E8030011F0CBFB78B1F6
:102E50000C4E336A0C4C20469847736A20469847BC
:102E60000A4B0B4AC821284611F010F804B070BD77
:102E7000084B074A4FF4C871284611F007F8F5E7E8
:102E800068650308A0000020785E03084066030818
:102E9000A0640308F0650308F0B5C3B006460D460C
:102EA000002422947C273A46214623A819F0E8FC06
:102EB00002943A46214603A819F0E2FC80220092CF
:102EC00002AB22A9284612F093F89DF8883013B17E
:102ED0009DF8082062B913B99DF8083023BB1E4B3A
:102EE0001E4A4FF4CA71304610F0D0FF43B0F0BD17
:102EF0001B4B1A4A4FF4C871304610F0C7FFF5E774
:102F0000184AB82304FB03F3D018002180F880107E
:102F100000240025C0E92C45D154134B0F4AC82189
:102F2000304610F0B3FFE1E70024092C0CDCB82395
:102F300004FB03F3803302A90A481844FDF750F953
:102F40000028DDD00134F0E7084B044A4FF4CA7181
:102F5000304610F09BFFC9E778670308A0640308B8
:102F600088660308881A0020086703084467030876
:102F700030B5C7B004460D4690F8AC3013F04002AF
:102F80001FD0124B05F18001EAB1114A114802909D
:102F900001920091104A4FF4807106A810F078FA5F
:102FA0000595002204920D4B03930D490291019265
:102FB00000930C4B06AAC821204610F067FF47B0CB
:102FC00030BD094BDEE7094AE0E700BFF0670308C0
:102FD0001468030800A30200206803084D260208B5
:102FE000107803086468030804680308406A03084B
:102FF0002DE9F043E5B005460C46164600215991EF
:1030000025225AA819F03CFC8022009202AB22A98A
:10301000204611F0EDFF9DF8883013B19DF808208F
:103020004AB9002B40F0AD809DF80830002B40F0ED
:10303000A4800020A6E042A811F000F802A8FDF745
:103040002FF9024602A942A811F012F842A959A884
:1030500011F048F8002426E049462846FFF788FF8B
:1030600062E04A4F802222A9384619F050FC16F03F
:1030700057FC474BC31841F10001C7F8B030C7F8FF
:10308000B410282107F1800012F0F8FB0EB90120DE
:1030900078E0B821A7F1B80301FB04312846FFF717
:1030A00067FFF4E70134092C40DC22A9A920394B41
:1030B00000FB0430FDF794F80028F3D1A92304FBAA
:1030C00003F3803359A933481844FDF789F80028E1
:1030D000E8D1314BB82202FB0433D3F8B080D3F8E7
:1030E000B47016F01DFC80458F41BAD2B82704FB9E
:1030F00007F7DFF8A48007EB0809802222A94846D9
:1031000019F005FC16F00CFC214BC01841F1000130
:10311000C9F8B000C9F8B41007F180002821404474
:1031200012F0ACFB002E97D101202BE0002029E00B
:10313000B822194B02FB04330093184B184AC821DC
:10314000284610F0A3FE16E00134092C17DCB82342
:1031500004FB03F3803302A90F481844FDF740F83D
:103160000028F1D1B82304FB03F30B4AD35C002BF6
:10317000EAD0002EDCD1012004E00024E5E70020A5
:1031800000E0002065B0BDE8F08300BF401B0020D8
:1031900000B84C0AB8210020881A00206C68030887
:1031A000A064030810B504460122FFF721FF00B117
:1031B00010BD044B044A40F29311204610F066FE05
:1031C000F6E700BFAC680308A064030810B590B030
:1031D000044609A807F0E0FB0C490120FEF78EFE2B
:1031E0000F9B06930E9B05930D9B04930C9B0393DF
:1031F0000B9B02930A9B0193099B0093044B054A86
:10320000C821204610F042FE10B010BDDC68030853
:10321000FC680308006A0308F0B591B006460C4646
:103220000CAD4B49284610F0BBFF0023009395E8F6
:103230000C0094E8030011F0D5F928B3454C23683D
:10324000002201210AA898472368002202210DF1DB
:103250002B0098479DF828309DF829209DF82A10CA
:103260009DF82B009DF82C409DF82D500595049459
:103270000390029101920093374B384AC82130469F
:1032800010F004FE11B0F0BD0EAD3549284610F027
:1032900087FF0023009395E80C0094E8030011F0E9
:1032A000A1F900284BD008AB2E4A04F5007103C9E0
:1032B0000FF0B2FE00283AD00AAB2B4A04F5007496
:1032C00094E803000FF0A8FE002830D0DDE90801E3
:1032D000FDF782FCC4B2DDE90A01FDF77DFCC5B251
:1032E000631EDBB2022B01D8012D07D91F4B1B4AED
:1032F0004FF4C871304610F0C9FDC3E7154F3B6865
:103300000022022107A8984704F13F036B4403F809
:10331000245C3B680122022107A89847019500948C
:10332000134B0E4AC821304610F0B0FDAAE7114BEE
:103330000A4A4FF4C871304610F0A8FDA2E70E4BC0
:10334000064A4FF4C871304610F0A0FD9AE700BF5E
:103350006464030854280020446A0308A064030836
:1033600068650308786A0308846A0308C46A030866
:103370008C6A0308006B03083C6B030838B501FB3B
:1033800000F4204607F048FA054618B1224600210D
:1033900019F076FA284638BDF0B58BB006460C46D3
:1033A00006AD8449284610F0FBFE0023009395E803
:1033B0000C0094E8030011F015F900283BD0C62159
:1033C0000120FFF7DBFF054640B37B4B1B68002263
:1033D0001146984705F1A5073846FCF761FFC4B2CE
:1033E00022462A21384619F04BFA2C44002384F84F
:1033F000A5306B78EBB1714BAA1C05F184010397E2
:103400000291019200936E4B6E4AC821304610F033
:103410003DFD284607F082FA0BB0F0BD6A4B694AC1
:103420004FF4FA71304610F031FD284607F076FA75
:10343000F2E7664BE0E708AD6549284610F0B0FEBC
:103440000023009395E80C0094E8030011F0CAF8FB
:10345000002800F0A780C6210120FFF78FFF054656
:1034600010B305AB5B4A04F5007103C90FF06AFBAA
:10347000002824DB6B1C584A04F5007797E803000A
:103480000FF0F0FD554A97E8030011F079FF074669
:1034900028B316F061FC0346E0B10433032B79D85E
:1034A000DFE803F070686052474B464A4FF4FA7108
:1034B000304610F0EBFC284607F030FAACE7484BFA
:1034C000404A4FF4C871304610F0E0FC284607F03F
:1034D00025FAA1E77F223946A81C19F018FA3846C8
:1034E00007F01CFA3F4A04F5007393E8030011F05B
:1034F00047FF074628B12022014605F1840019F054
:1035000006FA384607F00AFA374A04F5007494E8D8
:10351000030011F035FF044628B12022014605F1D1
:10352000A50019F0F4F9204607F0F8F901222A70F5
:10353000214B1B680021284698472C4B214AC82163
:10354000304610F0A3FCC1E7294B1E4A4FF4C87166
:10355000304610F09BFC384607F0E0F9284607F0AB
:10356000DDF959E7234B174A4FF4C871304610F084
:103570008DFCF0E7204B134A4FF4C871304610F031
:1035800085FCE8E71D4B0F4A4FF4C871304610F038
:103590007DFCE0E71A4B0B4A4FF4C871304610F03F
:1035A00075FCD8E7174B074A4FF4C871304610F046
:1035B0006DFC31E76464030854280020906B030815
:1035C000DC6B0308A0640308A06B0308986B030876
:1035D00068650308246C0308586C0308646C0308CE
:1035E000286C0308AC6D0308B86D0308C46D0308AC
:1035F000706C0308B46C0308006D0308406D030889
:10360000786D03083C6B030870B58AB006460C461B
:1036100004AD5E49284610F0C3FD0023009395E8F1
:103620000C0094E8030010F0DDFF00283DD00022DC
:10363000039203A9564807F057FA0398421E40F236
:10364000FE339A4229D801210844FFF797FE044629
:10365000B8B101214E4807F085FA0546039A214684
:1036600007F0B0FA284607F0A1FA0094494B4A4AFD
:10367000C821304610F00AFC204607F04FF90AB086
:1036800070BD46490320FEF739FC454B424A4FF4D2
:10369000FA71304610F0FAFBF1E7424B3E4A4FF424
:1036A000FA71304610F0F2FBE9E706AD3E492846D4
:1036B00010F076FD0023009395E80C0094E80300D9
:1036C00010F090FF002858D003AB384A04F5007181
:1036D00003C90FF037FA002834DB354A04F50074CB
:1036E00094E8030011F04CFE044600283DD008ADDC
:1036F0000146284610F054FD06F11C0295E803002F
:1037000012F05CFC002825DB214D284607F098FAD2
:103710000221284607F026FA05462046FCF7C0FDA0
:10372000421C2146284607F059FA284607F03EFA7F
:10373000204B194AC821304610F0A8FB204607F05C
:10374000EDF89CE71C4B144A4FF4C871304610F05A
:103750009DFB94E7194B104A4FF4C871304610F0A6
:1037600095FB204607F0DAF889E7154B0A4A4FF433
:10377000C871304610F08AFB81E7124B064A4FF4BD
:10378000C871304610F082FB79E700BF646403081B
:10379000A46303085C6E0308A0640308006E0308BA
:1037A000346E0308886E030868650308246C0308F8
:1037B000BC6E0308046F0308286C0308CC6E030872
:1037C000586F0308A06F03082DE9F04FC7B081467A
:1037D0008A4672228E4927A81AF08EFA01211E20ED
:1037E000FFF7CCFD064601212E20FFF7C7FD074657
:1037F00001212E20FFF7C2FD804601214FF44070C9
:10380000FFF7BCFD044601214FF4C070FFF7B6FD81
:103810000546002E00F0E380002F00F0E080B8F1B4
:10382000000F00F0DC80002C00F0D980002800F0B0
:10383000D6800DF5887B7749584610F0B1FC0023FF
:1038400000939BE80C009AE8030010F0CBFE0028E0
:1038500000F0BD8001F03EFB824658B390F8AC30DA
:1038600013F0200F2CD190F8AD3013F0200F2DD095
:103870001E226949304619F04AF8DFF8C4B10AF14E
:10388000080300935B46654A2E2140460FF000FE78
:103890000AF11C0300935B46604A2E2138460FF064
:1038A000F7FD2046FCF7FCFC5D4B1B8823524FF0D4
:1038B000010A28E01E225B49304619F028F8F0E79B
:1038C0001E225949304619F022F8D6E71E225749E0
:1038D000304619F01CF8D0E75FFA8AF30122802104
:1038E00007A801F0E7FE07A9204618F0D1FF2046FF
:1038F000FCF7D6FC034621184D4A1068E0501379B6
:103900000B710AF1010ABAF1030FE5DD4FF0010A6C
:1039100007E02046FCF7C4FC414B1B8823520AF108
:10392000010ABAF1030F18DC5FFA8AF30222802140
:1039300007A801F0BFFE07A9204618F0A9FFBAF1B9
:10394000020FE6DC2046FCF7ABFC03462118384AA0
:103950001068E05013790B71E1E72846FCF7A0FCF2
:103960002F4B1B882B524FF0010A07E02846FCF72B
:1039700097FC2B4B1B882B520AF1010ABAF1030F5B
:1039800018DC5FFA8AF30222802107A801F07AFE90
:1039900007A9284618F07CFFBAF1020FE6DC28469A
:1039A000FCF77EFC03462918214A1068E850137979
:1039B0000B71E1E7049503940297CDF8048000961B
:1039C00027AB1C4AC821484610F060FA0EE01A4B9B
:1039D000184A4FF4C871484610F058FA06E0174BE1
:1039E000144A4FF4C871484610F050FA304606F0B9
:1039F00095FF384606F092FF404606F08FFF2046BE
:103A000006F08CFF284606F089FF47B0BDE8F08F2E
:103A100060700308646403080070030814700308EE
:103A20001870030834AD0308F46F03080870030826
:103A30001C700308A06403083C6B0308247003088F
:103A40003D5F0208F0B58DB007460C46154608AE3E
:103A50002349304610F0A4FB0023009396E80C00A5
:103A600094E8030010F0BEFD18B300230293039303
:103A700004930593069307931A4B02931A4B0793EB
:103A800045B1012D0ED002AB184A2146384610F040
:103A900065FF05E002AB154A2146384610F05EFF8F
:103AA0000DB0F0BD02AB124A2146384610F056FF69
:103AB000F6E70AAD0F49284610F072FB0023009389
:103AC00095E80C0094E8030010F08CFD0028E7D185
:103AD000094B0A4A4FF4C871384610F0D7F9DFE7AE
:103AE00064640308C8770308A0000020745F03081B
:103AF000845F030868650308D4700308A0640308A2
:103B0000F8B504460D461646094F3B6A984702220F
:103B1000214638460EF02CFF04467B69A92206FB9D
:103B200002F229460068984720460EF03AFFF8BD99
:103B3000A00000202DE9F041AEB007460C4626ADAE
:103B4000AC49284610F02CFB0023009395E80C00AC
:103B500094E8030010F046FD00285ED001214FF4E8
:103B60008060FFF70BFC06460121A020FFF706FC52
:103B70008046002E3DD000283BD09F4B07CB3060C5
:103B80007160B2601B7833730C25002408E0434653
:103B90009A4AC5F58061701918F048F90544013456
:103BA000092C18DCA92204FB02F2954B9A5C002A2E
:103BB000F5D0A92202FB0433924AA021404618F016
:103BC00035F90C2DE3D9904AC5F58061701918F0CC
:103BD0002DF90544DBE78D4AC5F58061701918F0B1
:103BE00025F90096854B8A4AC821384610F04EF9CF
:103BF0000AE088490320FEF781F9874B844A4FF495
:103C0000FA71384610F042F9304606F087FE404619
:103C100006F084FE2EB0BDE8F08128AD7F4928462D
:103C200010F0BEFA0023009395E80C0094E803001E
:103C300010F0D8FC002800F0968003AB784A04F519
:103C4000007103C90EF07EFF002821DB754A04F5E0
:103C5000007494E8030011F093FB0546724A94E85F
:103C6000030011F08DFB044625B118B12B780BB180
:103C700003787BBB6D4B664A4FF4C871384610F031
:103C800005F9284606F04AFE204606F047FEC1E741
:103C9000674B5F4A4FF4C871384610F0F7F8B9E740
:103CA0000136092E18DC2946A920554B00FB0630A9
:103CB000FCF796FA0028F3D15E4B554A4FF4C871D1
:103CC000384610F0E3F8284606F028FE204606F0B5
:103CD00025FE9FE70026E4E70026049625223146CC
:103CE00005A818F0CDFD0FA810F0A8F92046FCF7A4
:103CF000D7FA024621460FA810F0BAF90FA904A876
:103D000010F0F0F9334600E00133092B23DCA9223F
:103D100003FB02F23A498A5C002AF5D1A92202FB90
:103D200003F688467F22294608EB060018F0EFFDCF
:103D300006F18000282204A9404418F0E8FD0A2278
:103D400041463D48FFF7DCFE3C4B314AC82138462E
:103D500010F09CF895E73A4B2D4A4FF4C87138465D
:103D600010F094F88DE72AAD3649284610F018FA7D
:103D70000023009395E80C0094E8030010F032FC57
:103D8000002800F0A98003AB254A04F5007103C99F
:103D90000EF0D8FE002822DB224A04F5007494E8D5
:103DA000030011F0EDFA05461F4A94E8030011F0F4
:103DB000E7FA04462DB120B12B7813B10378002B1C
:103DC00044D1214B124A4FF4C871384610F05EF8C6
:103DD000284606F0A3FD204606F0A0FD1AE7144B86
:103DE0000B4A4FF4C871384610F050F800242546AD
:103DF000EEE700BF646403082C71030840AD0308BC
:103E0000B82100203C7103084C710308507103086D
:103E1000A0640308006E0308346E03086865030895
:103E2000246C0308547103085C71030810720308C2
:103E3000286C030864710308CC5E0308A0710308B2
:103E4000DC71030850720308C87203080026049648
:103E50002522314605A818F013FD0FA810F0EEF842
:103E60002046FCF71DFA024621460FA810F000F983
:103E70000FA904A810F036F9092E25DC2946A9203F
:103E8000454B00FB0630FCF7ABF908B10136F3E710
:103E9000A92303FB06F606F18000DFF8FC80282248
:103EA00004A9404418F033FD4644002386F8A830A6
:103EB0000A2241463948FFF723FE394B394AC821C7
:103EC00038460FF0E3FF83E7374B364A4FF4CA71A9
:103ED00038460FF0DBFF7BE72CAD3449284610F065
:103EE0005FF90023009395E80C0094E8030010F0BC
:103EF00079FB002847D02E4A04F5007494E80300AB
:103F000011F03EFA064608B103782BBB294B254A2F
:103F10004FF4C87138460FF0B9FF304606F0FEFC8A
:103F200078E680220021284618F0AAFCA92303FB8A
:103F300004F08030184C29220021204418F0A0FC05
:103F40000A2221461548FFF7DBFD1B4B154AC82105
:103F500038460FF09BFFE0E70124092C0BDCA92376
:103F60000D4D03FB045531462846FCF739F900286E
:103F7000D7D00134F1E7114B0A4A4FF4C8713846E3
:103F80000FF084FFC9E70E4B064A4FF4C87138465C
:103F90000FF07CFF3EE600BFB8210020CC5E030896
:103FA00054720308A0640308987203080C73030892
:103FB00054710308A87303081473030854730308A7
:103FC000E873030870B50E461446012201460A48FC
:103FD0000EF0CEFC68B10546074B1B69A92204FB15
:103FE00002F231460068984728460EF0DAFC0120BC
:103FF00070BD0020FCE700BFA000002070B586B0B7
:1040000005460C4604AE1549304610F0C9F80023A9
:10401000009396E80C0094E8030010F0E3FAA0B1D6
:10402000EB6F1868002302930D4B0193012300935B
:104030004FF4FA62002311F095FA0A4B0A4AC8219C
:1040400028460FF023FF06B070BD084B064A4FF418
:10405000C87128460FF01AFFF5E700BF686503082E
:104060003962010848740308A0640308F065030876
:1040700070B584B005460C4602AE1449304610F0C7
:104080008FF80023009396E80C0094E8030010F0EA
:10409000A9FA98B10E4BDB690E490F48984728B131
:1040A00021462846FFF7AAFF04B070BD0B4B0C4A0F
:1040B0004FF4FA7128460FF0E9FEF5E7094B084A7C
:1040C0004FF4C87128460FF0E1FEEDE7686503087C
:1040D000A00000208C5E0308807403089874030815
:1040E000A0640308F065030870B5A4B005460C464B
:1040F00022AE1A49304610F053F80023009396E898
:104100000C0094E8030010F06DFAF0B1802302AACD
:10411000134904F1100010F030FF124902A8FCF717
:104120005FF840B9104B0093104B114A21462846C6
:1041300012F0EAFC10E00B4B00930E4B0E4A4FF4CA
:10414000C87128460FF0A2FE06E00C4B0A4A4FF455
:10415000C87128460FF09AFE24B070BD6865030848
:1041600090AC0308DC74030890D00300805E030861
:10417000A0000020EC740308A0640308F0650308A5
:1041800070B5C4B006460C4642AD2049284610F032
:1041900007F80023009395E80C0094E8030010F062
:1041A00021FA50B37B2323AA194904F5007010F0BB
:1041B000E4FE002819DD23AB164A802103A817F07E
:1041C00035FE154B5B6A03A8984730B1134B144A70
:1041D000C82130460FF05AFE16E0124B104A4FF439
:1041E000FA7130460FF052FE0EE00F4B0C4A4FF4BE
:1041F000C87130460FF04AFE06E00C4B084A4FF4F7
:10420000C87130460FF042FE44B070BD68650308C7
:104210003875030840750308A0000020487503089E
:10422000A06403087C750308B8750308F0650308EB
:10423000F0B597B004460E4601214FF48060FFF7B9
:104240009DF8054650B10122214628480EF090FB0A
:10425000044640B168460EF09BFF10E006F05EFB9E
:104260004FF0FF3040E00EF09CFB284606F056FB76
:104270006FF0010038E0294668460EF09FFF1B4BA7
:104280001B694FF48062294620689847024600283F
:10429000F1D120460EF085FB01211020FFF76EF8CA
:1042A000074628B1014668460EF0DFFF002412E001
:1042B000284606F033FB384606F030FB4FF0FF305F
:1042C00012E061003B5D0A4AC1F1210106EB4400A6
:1042D00017F0ACFD01340F2CF3DD284606F01EFB71
:1042E000384606F01BFB002017B0F0BDA0000020F0
:1042F000F475030870B584B005460C4602AE194942
:1043000030460FF04DFF0023009396E80C0094E830
:10431000030010F067F9E8B101212120FFF72EF822
:10432000044601461048FFF783FF58B900940F4B2D
:104330000F4AC82128460FF0A9FD204606F0EEFAE4
:1043400004B070BD0B4B0A4A4FF4CA7128460FF0F7
:104350009DFDF2E7084B064A4FF4C87128460FF05E
:1043600095FDEDE76464030880740308FC75030899
:10437000A064030820760308186503080B2900D001
:104380007047F0B5B3B00546144600222146FEF74B
:104390002FFE074608AEAD4930460FF001FF00235F
:1043A000009396E80C0094E8030010F01BF920B18C
:1043B0002846FEF7C1FC33B0F0BD0AAEA449304632
:1043C0000FF0EEFE0023009396E80C0004F10801C4
:1043D00003C910F007F900B1BFB10CAE9D493046DA
:1043E0000FF0DEFE0023009396E80C0004F10801B4
:1043F00003C910F0F7F880B197490120FDF77EFD61
:1044000021462846FEF7CEFED5E7944B944A40F26B
:10441000931128460FF03AFDCDE70EAE9149304694
:104420000FF0BEFE0023009396E80C0004F1080193
:1044300003C910F0D7F840B18B490120FDF75EFDAC
:1044400021462846FEF728FDB5E710AE87493046DD
:104450000FF0A6FE0023009396E80C0004F108017B
:1044600003C910F0BFF838B181490120FDF746FDBE
:104470002846FEF7ABFE9EE712AE7E4930460FF0AF
:104480008FFE0023009396E80C0004F1080103C995
:1044900010F0A8F840B178490120FDF72FFD214622
:1044A0002846FEF7B9FE86E714AE744930460FF091
:1044B00077FE0023009396E80C0004F1080103C97D
:1044C00010F090F840B16E490120FDF717FD21462C
:1044D0002846FEF761FF6EE716AE6A4930460FF0D8
:1044E0005FFE0023009396E80C0004F1080103C965
:1044F00010F078F840B164490120FDF7FFFC214637
:104500002846FFF781F856E718AE604930460FF0AD
:1045100047FE0023009396E80C0004F1080103C94C
:1045200010F060F840B15A490120FDF7E7FC214640
:104530002846FFF749F93EE71AAE564930460FF0D4
:104540002FFE0023009396E80C00E168A06810F0AD
:1045500049F848B150490120FDF7D0FC002221461E
:104560002846FFF76FFA26E71CAE4C4930460FF09D
:1045700017FE0023009396E80C00E168A06810F095
:1045800031F848B146490120FDF7B8FC0122214627
:104590002846FFF757FA0EE71EAE424930460FF0A5
:1045A000FFFD0023009396E80C00E168A06810F07E
:1045B00019F840B13C490120FDF7A0FC21462846EE
:1045C000FFF7B8FAF7E620AE384930460FF0E8FDBD
:1045D0000023009396E80C00E168A06810F002F850
:1045E00040B133490120FDF789FC21462846FFF7F9
:1045F00005FDE0E622AE2F4930460FF0D1FD002345
:10460000009396E80C00E168A0680FF0EBFF40B162
:1046100029490120FDF772FC21462846FEF798FB48
:10462000C9E624AE254930460FF0BAFD00230093B9
:1046300096E80C00E168A0680FF0D4FF00283FD096
:1046400021462846FFF750FDB5E600BF6076030817
:1046500068760308807603088C7603087076030872
:10466000406A0308A0760308AC760308C476030802
:10467000D4760308F0760308007703081877030858
:104680002C770308487703085877030874770308E2
:1046900088770308A4770308B4770308D077030862
:1046A000E4770308047803081878030834780308CB
:1046B00048780308687803087C7803089C78030826
:1046C00026AE474930460FF06BFD0023009396E875
:1046D0000C00E168A0680FF085FF40B1414901205E
:1046E000FDF70CFC21462846FFF704FE63E628AEE2
:1046F0003D4930460FF054FD0023009396E80C002E
:10470000E168A0680FF06EFF40B138490120FDF765
:10471000F5FB21462846FFF7ABFC4CE62AAE3449B0
:1047200030460FF03DFD0023009396E80C00E16851
:10473000A0680FF057FF20B121462846FEF73AFB4C
:1047400039E62CAE2B4930460FF02AFD00230093AA
:1047500096E80C00E168A0680FF044FF20B1214604
:104760002846FEF763FB26E62EAE234930460FF0BF
:1047700017FD0023009396E80C00E168A0680FF095
:1047800031FF40B11D4B00931D4B1E4A2146284668
:1047900012F0BAF90FE630AE1B4930460FF000FDBB
:1047A0000023009396E80C00E168A0680FF01AFF60
:1047B00020B121462846FFF7E3FCFCE500230293E5
:1047C000039304930593069307930D4B02930D4BAC
:1047D000079302AA2146284612F0B0F8EBE500BF85
:1047E000B4780308C8780308E4780308F878030865
:1047F00018790308347903085079030860E3160038
:10480000785E0308A00000206C79030808B50A222E
:1048100002490348FFF7D6FB024808BDB821002033
:10482000CC5E03087D430108014B1860704700BF50
:10483000542800201A4B1B6803B1704730B585B06F
:1048400018490120FDF75AFB174C40220021204651
:1048500018F016F802AD154B196828460FF0A0FCA9
:1048600095E8030084E80300114B196828460FF00F
:1048700097FC04F1080395E8030083E803003C2358
:104880006385002300930B4B22460B4909680B48B4
:10489000006814F0F9F9024B186005B030BD00BF94
:1048A00078280020887903087C280020D028002060
:1048B000CC280020114E0108D4280020C028002058
:1048C0002DE9F04F85B08146884692462A4C00F18A
:1048D00008030093294B2A4A282120680EF0D8FDAE
:1048E00024682046FBF7DCFC0146204600F0E0FB94
:1048F00000263BE008EBC60318F836401D79214F2F
:104900002B4622468021386800F0F0FBDFF880B0AB
:104910002B4622464FF41671DBF8000000F096FC9F
:10492000194D02AC396820460FF03AFC05F1180326
:1049300094E8030083E80300DBF8001020460FF042
:104940002FFC05F1200394E8030083E80300012411
:1049500085F8284085F82E402946484612F0FAFE90
:104960003A680A492046FDF7C9FA26445645C1D39C
:1049700005B0BDE8F08F00BF74280020215F020859
:1049800014700308C82800207C280020A879030898
:10499000C428002070B584B00023019305688668A0
:1049A00026B3044615B3714B1B680022022103A8ED
:1049B0009847039BADF808301B0C8DF80A306C4902
:1049C000284617F0DDFF002800F0BA8001AA6949E7
:1049D00017F0B4FB012818D0674B1B68002B00F3BD
:1049E000A58066490320FDF789FAB2E0624B1B6897
:1049F000002B40F3AE80624B92226249012011F0FD
:104A000043FB61480FF0EEF9A3E05B4B1B68012B01
:104A100018DC2B46019A5D490120FDF76FFA019DD4
:104A20006B1E022B1AD8E468022C2ED0032C4FD018
:104A3000514B1B68002B6EDC324655490320FDF7B5
:104A40005DFA86E04E4B9F224E49022011F01CFB7E
:104A50002A4601994F480FF0C5F9DAE7464B1B6823
:104A6000002B06DC019B03224B491046FDF746FA5A
:104A70006FE0434BA4224349012011F005FB019A4A
:104A8000032145480FF0AEF9ECE7022243493046D6
:104A900017F02BFF0028C9D105F10F036B44012249
:104AA00003F8082C344B1B68934206DC2F4B1B6821
:104AB0000122022102A898474BE0314BAE22314936
:104AC000022011F0E1FA019935480FF08BF9EDE77A
:104AD00003223449304617F008FF0028A8D105F119
:104AE0000F036B44002203F8082C234B1B68012B97
:104AF00006DC1E4B1B680122022102A8984728E011
:104B00001F4BB2221F49022011F0BEFA019926481C
:104B10000FF068F9EDE71A4BB6221A49012011F09F
:104B2000B3FA31461A480FF05DF985E7144BBB2202
:104B30001449012011F0A8FA1C480FF053F950E76E
:104B40000D4B1B68002B06DC2A4619490320FDF794
:104B5000D5F904B070BD0A4BBF220A49012011F0FB
:104B600093FA294612480FF03DF9EDE7602800203E
:104B70003C7A0308447A03082C010020987B030840
:104B8000CC790308EC790308187A03087C7A0308C7
:104B9000247B0308507A0308A47A0308F47A0308F4
:104BA000F87A03080C7B0308107B0308607B03087A
:104BB000D07B030838B501FB00F4204605F02CFE3D
:104BC000054618B12246002117F05AFE284638BD86
:104BD0002DE9F04387B007460C46584D2B6800225C
:104BE000012104A898472B68002202210DF113002F
:104BF00098470322524904A817F0AEFD48B9032292
:104C000050490DF1130017F0A7FD10B9002C00F06A
:104C100091804B4B06AA12E903001860998001218C
:104C20004FF41670FFF7C6FF064601218020FFF7FC
:104C3000C1FF0546002238E002F101085FFA88F85A
:104C400002F118030DEB030212F8083C00934346EF
:104C500001224FF41671304600F0ECFC434601226D
:104C60008021284600F026FDDFF8DC9002AC2946C2
:104C700020460FF095FA09F1180394E8030083E841
:104C80000300314620460FF08BFA09F1200394E827
:104C9000030083E80300002389F8283089F82E30C8
:104CA0004946384612F056FD4246022AC4D900222F
:104CB00038E002F101085FFA88F802F118030DEB01
:104CC000030212F8053C0093434602224FF416718A
:104CD000304600F0AFFC434602228021284600F017
:104CE000E9FCDFF8649002AC294620460FF058FA40
:104CF00009F1180394E8030083E8030031462046D5
:104D00000FF04EFA09F1200394E8030083E8030052
:104D1000002389F8283089F82E304946384612F0A9
:104D200019FD4246022AC4D9304605F0F7FD28464F
:104D300005F0F4FD07B0BDE8F08300BF6028002057
:104D4000582800205B2800207C28002008B5054B4F
:104D5000186810B1044B1B7803B908BD0021FFF798
:104D600037FFFAE7782800206428002008B5054BB3
:104D70001B7803B908BD0121034B1868FFF728FF12
:104D8000F8E700BF64280020782800202DE9F04FC4
:104D900083B081460D461646002400E00134B4423B
:104DA0002ED205EBC40855F83430022BF6D1012180
:104DB0008020FFF7FFFE074698F80430022280218A
:104DC00000F060FCDFF844804FF0010B88F828B059
:104DD000EA46394650460FF0E3F908F118039AE81D
:104DE000030083E803004146484612F065FC3A465A
:104DF00005495846FDF782F8384605F08FFDCDE7A6
:104E000003B0BDE8F08F00BF007C03087C280020C1
:104E100070B5102931D00546112902D009293AD0A0
:104E200070BD224B1B68022B1DDC21490120FDF7C0
:104E300065F8204B1D60204B1B78002BF0D11F4ED6
:104E4000062231462846FFF73BFD1A4C0121206817
:104E5000FFF7BEFE062231462068FFF797FF164B8C
:104E600001221A70DCE7164BCD221649032011F0FF
:104E70000BF915480EF0B6FFD7E714461349012089
:104E8000FDF73CF82046FFF785FD0021094B186827
:104E9000FFF79EFEC4E70E490120FDF72FF800231F
:104EA000044A1360044A1370BAE700BF2C010020C3
:104EB000487C03087828002064280020C8000020CF
:104EC0001C7C0308EC790308307C0308607C030831
:104ED000847C0308014B1868704700BF78280020C5
:104EE0002DE9F04786B006460C4691461D46012145
:104EF0008020FFF75FFEDFF848A1CAF8000001211B
:104F00002120FFF757FEDFF83C81C8F8000001219F
:104F10002120FFF74FFE3B4F386001218020FFF733
:104F200049FE394B186001214FF41670FFF742FE1D
:104F3000364B186001212820FFF73CFE344B1860E7
:104F40000F9A344B1A60DAF800A04946504618F020
:104F5000A1FED8F800902946484618F09BFE0E990D
:104F6000386818F097FE4B4652462B490120FCF753
:104F7000C5FF2A4D2E602A4B1C600621204600F0FA
:104F800071F8284E04ACD8F8001020460FF008F94C
:104F900094E8030086E80300396820460FF000F922
:104FA00006F1080394E8030083E803003C237385BB
:104FB000002402941C4B01930323009342F21072CD
:104FC0000023286810F0CEFA184B18600294184B92
:104FD00001930126009643F698220023286810F0DA
:104FE000C1FA144B18600294134B019300964FF4CE
:104FF000FA720023286810F0B5FA104B186006B05A
:10500000BDE8F087CC280020C8280020C428002054
:1050100074280020602800209C7C0308C028002001
:10502000BC2800207C28002035480108702800207A
:105030006D4D01086C2800204D4D010868280020A6
:10504000D4280020D028002038B501FB00F42046E9
:1050500005F0E2FB054618B12246002117F010FCCE
:10506000284638BD70B506460D460F4B186808B186
:1050700005F054FC680001210844FFF7E5FF0A4BE6
:10508000186008B100240BE04FF0FF300BE0064B36
:105090001868325D054900EB440017F02FF8013421
:1050A000AC42F4D3002070BDDC280020C87C03088B
:1050B00038B505460C460C4B186808B105F02EFCB7
:1050C00001216018FFF7C0FF074B186040B122466E
:1050D000294617F01CFC044B1B680020185538BDEE
:1050E0004FF0FF30FBE700BFD828002000B587B0A5
:1050F0004FF0000C80F800C0013A072A00F28780C8
:10510000DFE802F004162545356575550493414BDB
:105110000393414B1B680293404B0193404B009318
:10512000404B414A16F082FE002007B05DF804FBB8
:1051300004933E4B0393384A12680292374A019215
:105140000093384B384A16F071FE0020EDE70493C7
:10515000374B0393304B1B680293304B0193354B15
:105160000093304B304A16F061FE0020DDE70493D7
:10517000314B0393284B1B680293284B01932D4B13
:105180000093284B284A16F051FE0020CDE70493E7
:105190002A4B0393204B1B680293204B0193254B12
:1051A0000093204B204A16F041FE0020BDE70493F7
:1051B000234B0393184B1B680293184B01931D4B11
:1051C0000093184B184A16F031FE0020ADE7049307
:1051D0001C4B0393104B1B680293104B0193154B10
:1051E0000093104B104A16F021FE00209DE7049317
:1051F000154B0393084B1B680293084B01930D4B0F
:105200000093084B084A16F011FE00208DE74FF07E
:10521000FF308AE7E87C0308DC280020F07C0308E4
:10522000F87C0308F8000020D07C03083C7A0308CF
:10523000087D0308107D0308187D0308207D0308FE
:10524000287D0308387D0308487D03082DE9F04FC9
:1052500099B017900D4617461C460A46002117F0D4
:105260000FFB7A1E072A00F2BA81DFE812F008006D
:105270004300A100EA00C5006E019301490101212C
:105280008020FFF7E1FE07460094804B804A802192
:1052900016F0CCFD7F4B1A687F4B1B6814937F4B35
:1052A00013937F4B12937F4B11937F4B10937F4B44
:1052B0000F930E927E4B0D937E490C910B947E4979
:1052C0000A910992089307977C48069005940491E7
:1052D0000394029101920093794B7A4A29461798D8
:1052E00016F0A4FD0446384605F018FBE0B219B0EC
:1052F000BDE8F08F01218020FFF7A6FE07460121BF
:105300008020FFF7A1FE8046DFF8F09100944B4625
:105310006D4A8021384616F089FDDFF894A1654E6C
:1053200002960197DFF86CB1DBF80030009353462A
:10533000664A8021404616F079FD0094644B544A39
:105340008021384616F072FDDBF80030524A1268B0
:105350001492524A1392524A1292524A1192524A4B
:105360001092524A0F920E93CDF834A00C960B94E3
:10537000CDF828900993CDF820A00797CDF8188094
:105380000594CDF810900394CDF808900193CDF8D2
:1053900000A04B464B4A2946179816F047FD044695
:1053A000384605F0BBFA404605F0B8FAE0B29EE791
:1053B000384B19683E4B474A3748006810903748C9
:1053C0000F9037480E9037480D9037480C9037486B
:1053D0000B900A9109934048089007920691059313
:1053E0003E4804903E48039002923E48019000914E
:1053F0003449179816F082FE264B19682C4B3A4A0E
:1054000025480068109025480F9025480E902548A3
:105410000D9025480C9025480B900A91099333482C
:105420000890079206910593314804902348039011
:1054300002922C48019000912249179816F05EFEC6
:10544000DAE7144B19681A4B1D4A1348006810908C
:1054500012480F9012480E9012480D9012480C906E
:1054600012480B900A9109932248089007920691DE
:105470000593214804901148039002921948019025
:1054800000911049179816F039FEB5E7507D0308D2
:105490005C7D0308DC280020D82800201465030860
:1054A00010650308647D0308747D0308887D030884
:1054B000F07C0308406A0308E87C0308E0A10308C5
:1054C000207D0308EC7E0308947D0308C47E030856
:1054D0009C7D0308087D0308B07D0308B47D0308A4
:1054E000C47D0308E87D0308187D0308F07D0308E8
:1054F000F47D0308047E0308087E03083C7A030851
:10550000384B1968384B394A394800681090394887
:105510000F9039480E9039480D9039480C90394811
:105520000B900A91099338480890079206910593C9
:105530003648049036480390029236480190009114
:105540003549179816F0DAFD56E7264B1968264BB1
:10555000324A27480068109026480F9026480E903F
:1055600026480D9026480C9026480B900A910993E6
:105570002B4808900792069105932A4804902448E6
:10558000039002922348019000912349179816F046
:10559000B5FD31E7134B1968134B234A14480068D3
:1055A000109014480F9014480E9014480D90144811
:1055B0000C9014480B900A9109931C48089007928C
:1055C000069105931A4804901148039002921148DD
:1055D000019000911049179816F090FD0CE74FF0DC
:1055E000FF3084E6DC280020F07C0308287D0308D7
:1055F000D82800201465030810650308647D03089B
:10560000747D0308887D03082C7E0308307E030820
:10561000E0A10308E87D0308EC7E0308387D030859
:10562000507E0308547E0308487D0308807E0308EB
:10563000847E030830B583B01C469DF81850012ABB
:105640000BD0022A0BD10A4B5DB10A4A0192009499
:10565000094A16F0EBFB03B030BD084BF4E700231A
:10566000F2E7074A01920094034A16F0DFFBF2E7E3
:105670003C7A0308F47A0308B47E0308E87C030844
:105680000C7B030800B585B00293064B0193064BD3
:105690001B680093054B064A16F0C8FB05B05DF881
:1056A00004FB00BF3C7A0308DC280020F07C0308E0
:1056B000907E030800B585B04FF0000C80F800C064
:1056C000012A06D0022A0FD04FF0FF3005B05DF856
:1056D00004FB02930A4B01930A4B1B6800930A4B8D
:1056E0000A4A16F0A3FBF1E70293094B0193054B1D
:1056F0001B680093044B054A16F098FBE6E700BFD1
:10570000E87C0308DC280020F07C0308A07E030866
:105710003C7A030808B5084B1B682BB1064B186888
:1057200008B114F0C1F908BD044A194614F08EFA04
:10573000014B1860F2E700BFE02800204157010844
:1057400070B5122902D0092946D070BD14462649E9
:105750000120FCF7D3FB14F0E3F806460D46234B7B
:105760001B68012B20DC32462B4621490120FCF727
:10577000C5FB2568646810F081FC281A4FF47A7222
:105780004FF0000364EB0101FBF7E6FA194BC3E9A4
:105790000001164B1B68012B12DC2A4623461649D2
:1057A0000120FCF7ABFBD0E7144B1B22144902206D
:1057B00010F06AFC32462B460D480EF013FBD2E780
:1057C0000E4B21220E49022010F05EFC2A46234691
:1057D0000C480EF007FBE0E70B490120FCF78EFBBD
:1057E0000A4B00221A60B0E76C8003082C010020ED
:1057F000B0800308E82800200881030864810308BA
:1058000090800308E48003082C810308E02800202E
:1058100030B585B004460D490120FCF76FFB0294BA
:105820000B4D01950023009344F62062002320468F
:105830000FF098FE0294019501230093054A00237E
:1058400020460FF08FFE05B030BD00BF4881030831
:1058500015570108C07A100038B501FB00F4204646
:1058600004F0DAFF054618B12246002117F008F8C7
:10587000284638BD70B588B005460C46174900204B
:10588000FCF73CFB06AE164930460EF089FC0023BF
:10589000009396E80C0094E803000EF0A3FEA8B174
:1058A000104B1B680593104B1B6804930F4B03931D
:1058B0000F4B02930F4B01930F4B00930F4B104A6A
:1058C000C82128460EF0E2FA08B070BD0D4B0C4A14
:1058D0004FF4C87128460EF0D9FAF5E7688103083D
:1058E00064640308FC2800200429002014650308D0
:1058F000747D0308647D0308887D030870840308B1
:10590000406A0308D470030810B504460549002016
:10591000FCF7F4FA044B054A4FF4CA7120460EF026
:10592000B5FA10BD88810308A0810308406A030806
:105930000B2900D0704770B586B00546144617494C
:105940000020FCF7DBFA02AE154930460EF028FCC9
:105950000023009396E80C0004F1080103C90EF03F
:1059600041FE28B121462846FFF784FF06B070BDEE
:1059700004AE0C4930460EF013FC0023009396E869
:105980000C0004F1080103C90EF02CFE0028EDD034
:1059900021462846FFF7B8FFE8E700BFCC8103089F
:1059A000F48103080C82030810B584B0024608464F
:1059B000140E8DF80F40110C8DF80E10130A8DF88F
:1059C0000D308DF80C200194C9B20091DBB2D2B237
:1059D000024916F093FB04B010BD00BF108203080B
:1059E00070B584B006461E490020FCF787FA1D4BAF
:1059F0001868FAF755FC0446012100F23910FFF748
:105A00002BFF194A106030B3184B1B68184D2968DA
:105A10009868FFF7C9FF134B1B680293154B01935E
:105A20002B680093144B154A04F59C710E480068CE
:105A300016F0FCF94EB10C4B1C682046FAF730FC0E
:105A400002462146304611F0D3FB074B186804F09C
:105A500065FF04B070BD0A490320FCF74FFAF8E770
:105A60001C8203080429002000290020F4280020BB
:105A7000FC2800206C8203086482030878830308F2
:105A800034820308072900D0704770B588B00446F7
:105A90001A490020FCF732FA194B1B6802AD1A6C48
:105AA000996B28460EF088FB04AE164930460EF07E
:105AB00077FB0023009396E80C0095E803000EF0B6
:105AC00091FD18B90023236408B070BD06AD0E49DE
:105AD00028460EF065FB0023009395E80C0002A910
