:020000040800F2
:1000000000000220D5280008D9260008E1260008B3
:10001000E9260008F1260008F92600080000000083
:1000200000000000000000000000000051C10008B6
:100030000127000800000000A1C30008818E00080D
:100040002529000825290008252900082529000858
:100050002529000825290008252900082529000848
:100060002529000825290008252900082529000838
:100070002529000825290008252900082529000828
:10008000252900082529000825290008000000006E
:10009000000000000000000000000000252900080A
:1000A000112700082529000825290008252900080E
:1000B00025290008252900082529000825290008E8
:1000C00025290008252900082529000825290008D8
:1000D000252900082529000825290008000000001E
:1000E000252900082529000825290008000000000E
:1000F00000000000000000000000000025290008AA
:1001000000000000252900082529000825290008ED
:1001100000000000000000000000000000000000DF
:100120002529000825290008252900082529000877
:100130002529000800000000000000000000000069
:100140000000000000000000000000002529000859
:100150002529000825290008252900082529000847
:1001600025290008252900080000000000000000E3
:10017000000000000000000000000000000000007F
:100180000000000025290008000000000000000019
:080190002529000825290008BB
:1001A00010B5054C237833B9044B13B10448AFF3B1
:1001B00000800123237010BDC8090020000000004A
:1001C0004CF0020808B5034B1BB103490348AFF3D9
:1001D000008008BD00000000CC0900204CF002089F
:1001E00010F8012B11F8013B012A28BF9A42F7D0E1
:1001F000D01A70470000000000000000000000005E
:1002000001F0FF01102A2BDB10F0070F08D010F8C7
:10021000013B013A8B422DD010F0070F42B3F6D1CB
:10022000F0B441EA012141EA014122F007047FF0E4
:1002300000070023F0E80256083C85EA010586EA3B
:10024000010685FA47F5A3FA87F586FA47F6A5FA77
:1002500087F68EB9EED1F0BC01F0FF0102F0070283
:1002600032B110F8013B013A83EA010313B1F8D12E
:100270000020704701387047002D06BF354603380F
:10028000073815F0010F07D1013015F4807F02BF48
:10029000013015F4C03F0130F0BC0138704700BF99
:1002A000034613F8012B002AFBD1181A01387047B6
:1002B00081F0004102E000BF83F0004330B54FEA17
:1002C00041044FEA430594EA050F08BF90EA020F84
:1002D0001FBF54EA000C55EA020C7FEA645C7FEA17
:1002E000655C00F0E2804FEA5454D4EB5555B8BF3A
:1002F0006D420CDD2C4480EA020281EA030382EAAB
:10030000000083EA010180EA020281EA0303362D3C
:1003100088BF30BD11F0004F4FEA01314FF4801C0F
:100320004CEA113102D0404261EB410113F0004F21
:100330004FEA03334CEA133302D0524263EB4303D8
:1003400094EA050F00F0A780A4F10104D5F1200E76
:100350000DDB02FA0EFC22FA05F2801841F10001D1
:1003600003FA0EF2801843FA05F359410EE0A5F1A5
:1003700020050EF1200E012A03FA0EFC28BF4CF0D6
:10038000020C43FA05F3C01851EBE37101F000458C
:1003900007D54FF0000EDCF1000C7EEB00006EEB99
:1003A0000101B1F5801F1BD3B1F5001F0CD3490823
:1003B0005FEA30004FEA3C0C04F101044FEA44527A
:1003C00012F5800F80F09A80BCF1004F08BF5FEA01
:1003D000500C50F1000041EB045141EA050130BDE1
:1003E0005FEA4C0C404141EB0101013C28BFB1F5F3
:1003F000801FE9D291F0000F04BF01460020B1FA3E
:1004000081F308BF2033A3F10B03B3F120020CDA10
:100410000C3208DD02F1140CC2F10C0201FA0CF0EE
:1004200021FA02F10CE002F11402D8BFC2F1200C53
:1004300001FA02F120FA0CFCDCBF41EA0C01904009
:10044000E41AA2BF01EB0451294330BD6FEA040452
:100450001F3C1CDA0C340EDC04F11404C4F120023D
:1004600020FA04F001FA02F340EA030021FA04F34F
:1004700045EA030130BDC4F10C04C4F1200220FAA6
:1004800002F001FA04F340EA0300294630BD21FAE4
:1004900004F0294630BD94F0000F83F4801306BFAA
:1004A00081F480110134013D4EE77FEA645C18BF9E
:1004B0007FEA655C29D094EA050F08BF90EA020F35
:1004C00005D054EA000C04BF1946104630BD91EA2D
:1004D000030F1EBF0021002030BD5FEA545C05D130
:1004E0004000494128BF41F0004130BD14F580046F
:1004F0003CBF01F5801130BD01F0004545F0FE41E3
:1005000041F470014FF0000030BD7FEA645C1ABF17
:10051000194610467FEA655C1CBF0B46024650EA4E
:10052000013406BF52EA033591EA030F41F400217A
:1005300030BD00BF90F0000F04BF0021704730B500
:100540004FF4806404F132044FF000054FF00001D5
:1005500050E700BF90F0000F04BF0021704730B596
:100560004FF4806404F1320410F0004548BF40426B
:100570004FF000013EE700BF42004FEAE2014FEAC0
:1005800031014FEA02701FBF12F07F4393F07F4F9B
:1005900081F06051704732F07F4208BF704793F09E
:1005A0007F4F04BF41F40021704730B54FF46074B1
:1005B00001F0004521F000411CE700BF50EA0102B4
:1005C00008BF704730B54FF000050AE050EA01025D
:1005D00008BF704730B511F0004502D5404261EBCD
:1005E00041014FF4806404F132045FEA915C3FF40E
:1005F000D8AE4FF003025FEADC0C18BF03325FEAAB
:10060000DC0C18BF033202EBDC02C2F1200300FA5B
:1006100003FC20FA02F001FA03FE40EA0E0021FA80
:1006200002F11444BDE600BF70B54FF0FF0C4CF46E
:10063000E06C1CEA11541DBF1CEA135594EA0C0F20
:1006400095EA0C0F00F0DEF82C4481EA030621EA5B
:100650004C5123EA4C5350EA013518BF52EA033596
:1006600041F4801143F4801338D0A0FB02CE4FF048
:100670000005E1FB02E506F00042E0FB03E54FF078
:100680000006E1FB03569CF0000F18BF4EF0010E70
:10069000A4F1FF04B6F5007F64F5407404D25FEA6C
:1006A0004E0E6D4146EB060642EAC62141EA55511F
:1006B0004FEAC52040EA5E504FEACE2EB4F1FD0C61
:1006C00088BFBCF5E06F1ED8BEF1004F08BF5FEADF
:1006D000500E50F1000041EB045170BD06F0004691
:1006E00046EA010140EA020081EA0301B4EB5C043E
:1006F000C2BFD4EB0C0541EA045170BD41F4801136
:100700004FF0000E013C00F3AB8014F1360FDEBF5A
:10071000002001F0004170BDC4F10004203C35DA36
:100720000C341BDC04F11404C4F1200500FA05F3B9
:1007300020FA04F001FA05F240EA020001F000425A
:1007400021F0004110EBD37021FA04F642EB0601D0
:100750005EEA430E08BF20EAD37070BDC4F10C04FA
:10076000C4F1200500FA04F320FA05F001FA04F2BE
:1007700040EA020001F0004110EBD37041F10001AA
:100780005EEA430E08BF20EAD37070BDC4F12005B5
:1007900000FA05F24EEA020E20FA04F301FA05F21D
:1007A00043EA020321FA04F001F0004121FA04F2C5
:1007B00020EA020000EBD3705EEA430E08BF20EA95
:1007C000D37070BD94F0000F0FD101F000464000CF
:1007D00041EB010111F4801F08BF013CF7D041EA51
:1007E000060195F0000F18BF704703F00046520055
:1007F00043EB030313F4801F08BF013DF7D043EA26
:100800000603704794EA0C0F0CEA135518BF95EADB
:100810000C0F0CD050EA410618BF52EA4306D1D162
:1008200081EA030101F000414FF0000070BD50EA81
:10083000410606BF1046194652EA430619D094EA0B
:100840000C0F02D150EA013613D195EA0C0F05D1F5
:1008500052EA03361CBF104619460AD181EA030149
:1008600001F0004141F0FE4141F470014FF0000001
:1008700070BD41F0FE4141F4780170BD70B54FF09C
:10088000FF0C4CF4E06C1CEA11541DBF1CEA13551C
:1008900094EA0C0F95EA0C0F00F0A7F8A4EB0504FE
:1008A00081EA030E52EA03354FEA013100F08880F5
:1008B0004FEA03334FF0805545EA131343EA1263BE
:1008C0004FEA022245EA111545EA10654FEA002673
:1008D0000EF000419D4208BF964244F1FD0404F52C
:1008E000407402D25B084FEA3202B61A65EB030588
:1008F0005B084FEA32024FF480104FF4002CB6EB45
:10090000020E75EB030E22BFB61A754640EA0C00C4
:100910005B084FEA3202B6EB020E75EB030E22BF04
:10092000B61A754640EA5C005B084FEA3202B6EB45
:10093000020E75EB030E22BFB61A754640EA9C0004
:100940005B084FEA3202B6EB020E75EB030E22BFD4
:10095000B61A754640EADC0055EA060E18D04FEA92
:10096000051545EA16754FEA06164FEAC30343EA32
:1009700052734FEAC2025FEA1C1CC0D111F4801FFF
:100980000BD141EA00014FF000004FF0004CB6E7F8
:1009900011F4801F04BF01430020B4F1FD0C88BF97
:1009A000BCF5E06F3FF6AFAEB5EB030C04BFB6EBA2
:1009B000020C5FEA500C50F1000041EB045170BD95
:1009C0000EF0004E4EEA113114EB5C04C2BFD4EBC2
:1009D0000C0541EA045170BD41F480114FF0000E46
:1009E000013C90E645EA060E8DE60CEA135594EAC2
:1009F0000C0F08BF95EA0C0F3FF43BAF94EA0C0FC5
:100A00000AD150EA01347FF434AF95EA0C0F7FF439
:100A100025AF104619462CE795EA0C0F06D152EA8D
:100A200003353FF4FDAE1046194622E750EA410671
:100A300018BF52EA43067FF4C5AE50EA41047FF482
:100A40000DAF52EA43057FF4EBAE12E74FF0FF3CE7
:100A500006E000BF4FF0010C02E000BF4FF0010CB8
:100A60004DF804CD4FEA410C7FEA6C5C4FEA430C31
:100A700018BF7FEA6C5C1BD001B050EA410C0CBF80
:100A800052EA430C91EA030F02BF90EA020F0020E2
:100A9000704710F1000F91EA030F58BF994208BF49
:100AA00090422CBFD8176FEAE37040F00100704706
:100AB0004FEA410C7FEA6C5C02D150EA013C07D15D
:100AC0004FEA430C7FEA6C5CD6D152EA033CD3D0A8
:100AD0005DF8040B704700BF8446104662468C46A2
:100AE0001946634600E000BF01B5FFF7B7FF0028D5
:100AF00048BF10F1000F01BD4DF808EDFFF7F4FFFE
:100B00000CBF012000205DF808FB00BF4DF808ED88
:100B1000FFF7EAFF34BF012000205DF808FB00BFAB
:100B20004DF808EDFFF7E0FF94BF012000205DF8CD
:100B300008FB00BF4DF808EDFFF7CEFF94BF012082
:100B400000205DF808FB00BF4DF808EDFFF7C4FF7B
:100B500034BF012000205DF808FB00BF4FEA410CC4
:100B60007FEA6C5C02D150EA013C0AD14FEA430CA7
:100B70007FEA6C5C02D152EA033C02D14FF00000E4
:100B800070474FF0010070474FEA410212F5001222
:100B900015D211D56FF47873B3EB625212D94FEAC4
:100BA000C12343F0004343EA505311F0004F23FAAE
:100BB00002F018BF404270474FF00000704750EA03
:100BC000013005D111F0004008BF6FF000407047C0
:100BD0004FF00000704700BF4A0011D212F500121A
:100BE00011D20DD56FF47873B3EB62520ED44FEA85
:100BF000C12343F0004343EA505323FA02F0704705
:100C00004FF00000704750EA013002D14FF0FF3042
:100C100070474FF0000070474FEA4102B2F1E043E5
:100C200024BFB3F5001CDCF1FE5C0DD901F0004CD3
:100C30004FEAC0024CEA5070B2F1004F40EB830023
:100C400008BF20F00100704711F0804F21D113F14F
:100C50003872BCBF01F00040704741F480114FEA88
:100C60005252C2F11802C2F1200C10FA0CF320FA11
:100C700002F018BF40F001004FEAC1234FEAD3232E
:100C800003FA0CFC40EA0C0023FA02F34FEA430398
:100C9000CCE77FEA625307D150EA01331EBF4FF021
:100CA000FE4040F44000704701F0004040F0FE403C
:100CB00040F40000704700BF7BB972B90029BEBF85
:100CC00000204FF0004106E008BF00281CBF6FF075
:100CD00000414FF0FF3000F0FFB9ADF1080C6DE9B5
:100CE00004CE002909DB002B1ADB00F097F8DDF8B1
:100CF00004E0DDE9022304B07047404261EB4101AA
:100D0000002B1BDB00F08AF8DDF804E0DDE90223AC
:100D100004B0404261EB4101524263EB4303704730
:100D2000524263EB430300F079F8DDF804E0DDE9BB
:100D3000022304B0404261EB41017047524263EB31
:100D4000430300F06BF8DDF804E0DDE9022304B0B2
:100D5000524263EB4303704753B94AB9002908BFB5
:100D600000281CBF4FF0FF314FF0FF3000F0B4B946
:100D7000ADF1080C6DE904CE00F050F8DDF804E0A8
:100D8000DDE9022304B07047430803F05533C01A6D
:100D9000830803F0333300F03330184400EB1010B5
:100DA00000F00F3000EB002000EB0040000E704719
:100DB00038B50022002304460D46FFF7A7FE28B9E8
:100DC00020462946BDE8384000F00AB8204605F123
:100DD000004100F005F8404261EB410138BD00BF21
:100DE000D0B50C4B002206460F46FFF71DFCFFF75F
:100DF000F3FE0446FFF79EFB074B0022FFF714FCAF
:100E000002460B4630463946FFF756FAFFF7E4FE36
:100E10002146D0BD0000F03D0000F0412DE9F04733
:100E2000089D0C46002B4ED194468C458646B2FA5E
:100E300082F262D94AB1C2F12003914020FA03F351
:100E40000CFA02FC194300FA02FE4FEA1C471FFA93
:100E50008CF6B1FBF7F44FEA1E4307FB141143EA8B
:100E6000014304FB06F199420AD91CEB030304F188
:100E7000FF3080F01281994240F20F81023C6344BE
:100E8000591A1FFA8EF3B1FBF7F007FB101143EA72
:100E9000014300FB06F69E420AD91CEB030300F156
:100EA000FF3180F0FC809E4240F2F98063440238BA
:100EB0009B1B40EA044000211DB1D3400022C5E93C
:100EC0000032BDE8F0878B4205D90DB1C5E90001BC
:100ED00000210846F5E7B3FA83F1002946D1A34281
:100EE00002D39042C0F0F080861A64EB0303012025
:100EF000002DE6D0C5E90063E3E7002A40F09080CA
:100F0000A1EB0C044FEA1C481FFA8CF70121B4FB3B
:100F1000F8F64FEA1E4308FB164443EA044307FB76
:100F200006F0984208D91CEB030306F1FF3402D205
:100F3000984200F2CD8026461C1A1FFA8EF3B4FBAD
:100F4000F8F008FB104443EA044300FB07F79F4214
:100F500008D91CEB030300F1FF3402D29F4200F2D8
:100F6000B0802046DB1B40EA0640A5E7C1F1200621
:100F70008B4022FA06F71F4320FA06FC04FA01F31D
:100F800043EA0C03F44000FA01F8380C4FEA134925
:100F9000B4FBF0FE1FFA87FC00FB1E4449EA044440
:100FA0000EFB0CF9A14502FA01F20AD93C190EF127
:100FB000FF3A80F08480A14540F28180AEF1020EBC
:100FC0003C44A4EB09041FFA83F9B4FBF0F300FBE3
:100FD000134449EA044403FB0CFCA44507D93C191B
:100FE00003F1FF3067D2A44565D9023B3C4443EA94
:100FF0000E40A0FB0293A4EB0C049C42CE469C4600
:1010000051D34ED055B1B8EB0E0364EB0C0404FA87
:1010100006F6CB401E43CC40C5E90064002150E7F2
:10102000C2F1200320FA03F10CFA02FC24FA03F3C4
:1010300094400C434FEA1C4800FA02FE1FFA8CF75A
:10104000B3FBF8F008FB1031230C43EA014300FB2B
:1010500007F1994208D91CEB030300F1FF362CD2AB
:1010600099422AD9023863445B1AA4B2B3FBF8F15F
:1010700008FB113344EA034401FB07F3A34208D9F8
:101080001CEB040401F1FF3613D2A34211D902393B
:101090006444E41A41EA004139E70446F0E60846B0
:1010A00006E7C845AED2B9EB020E63EB070C013878
:1010B000A8E73146EDE7034699E73046D4E7D64640
:1010C0007FE7634402384DE70646234608460FE7AC
:1010D000023E634430E700BF704700BF80B500AFF9
:1010E0002F4807F0DFFF03462E4A13602E4807F013
:1010F000D9FF03462D4A13602D4A0321012008F031
:10110000DFF803462B4A13602B4A0321012008F025
:10111000D7F80346294A1360294A0321012008F021
:10112000CFF80346274A1360274AC621012008F05A
:10113000C7F80346254A1360254A4FF481710F20F2
:1011400008F0BEF80346234A1360234A00212348CF
:1011500007F0FAFE0346224A1360224A0021224881
:1011600007F0F2FE0346214A1360214A002121487C
:1011700007F0EAFE0346204A1360204A0021204877
:1011800007F0E2FE03461F4A13601F4A00211F4872
:1011900007F0DAFE03461E4A136000BF80BD00BFA1
:1011A00028360308140A002038360308180A0020DD
:1011B000B0350308000A0020C8350308040A0020DF
:1011C000E0350308080A0020F83503080C0A00205F
:1011D00010360308100A0020FC340308151200081A
:1011E000EC09002020350308E5140008F009002070
:1011F00044350308AD160008F409002068350308DB
:10120000DD180008F80900208C350308451A00088D
:10121000FC09002090B5F1B002AF07F5DC73A3F52F
:10122000DA73186007F5DC73A3F59873A04A1C46BF
:1012300013460FCB84E80F0007F5DC73A3F5D873D2
:10124000184680231A46002124F082FD07F5DC733E
:10125000A3F5D87340221A7007F5DC73A3F5D87391
:1012600022225A70934B1A7807F5DC73A3F5D873D2
:101270009A70914B1A7807F5DC73A3F5D873DA707E
:101280008E4B1A7807F5DC73A3F5D8731A718C4B63
:101290001A7807F5DC73A3F5D8735A7107F5DC7378
:1012A000A3F5D8730122DA7707F5DC73A3F5D873B9
:1012B000012283F8202007F5DC73A3F5D873814A57
:1012C0005A6207F5DC73A3F5D87307F188029A62B6
:1012D0007D4A07F5B07313607B4A07F1080353603A
:1012E00007F5B07318461CF0EBFC784B03221A602C
:1012F00002F008FDC7F8B00113E000F07DFC4FF4E8
:10130000FA7007F0B4FE00F083FC4FF4FA6007F0C7
:10131000AEFE07F1080207F5B073114618461FF03C
:1013200057FA07F5DC73A3F5D873B3F84430002BF4
:10133000E3D007F108030621184603F01DFA6448BC
:1013400002F0EAFCD7F8B02107F5B0705E4B6149B6
:1013500018F0CEFE08E007F5B073012118461FF023
:101360004BFD012007F083FE07F5DC73A3F5D8736E
:1013700093F87C30032BEED1534B5B689B68D9B25A
:10138000514B5B689B681B0AD8B24F4B5B689B68EC
:101390001B0CDBB24C4A52689268120E0192009309
:1013A00003460A464C49012000F0D0FE07F198039D
:1013B00000220021184600F0F3FC07F5DC73A3F5CA
:1013C00090735B78002B18D04449012000F0BEFEDA
:1013D00007F1980303F1840407F198039A1C07F1BD
:1013E000080107F5B0703A4B019307F19803A53354
:1013F0000093234603F0CAF803E03949012000F0C6
:10140000A5FE07F5B073184603F0ACFE07F108021D
:1014100007F5B0731146184604F004F809F0A0FD72
:10142000C7F8B40109F09CFDC7F8AC01D7F8AC21AE
:10143000D7F8B431D31AC7F8A831D7F8AC31C7F808
:10144000B431D7F8A82107F5B073114618461FF03C
:10145000D3FC18E000F0D0FB642007F008FE00F099
:10146000D7FB40F6B83007F002FE07F5DC73A3F5B2
:10147000D8735B6A1B6807F108021046984741F66B
:10148000583007F0F4FD07F5DC73A3F5D8735B6AF9
:10149000DB6807F1080210469847034683F0010312
:1014A000DBB2002BD6D1012007F0E1FDBAE700BF87
:1014B00050F10208107AFF1F127AFF1F147AFF1FE3
:1014C000187AFF1FA0020020E409002098020020E3
:1014D000A11D0008F0F0020804F1020820F1020842
:1014E00038F1020890B591B000AF7860694A07F111
:1014F000380392E80300186004331980664A07F144
:101500002C0307CA83E80700644A07F1240392E822
:1015100003001860043319805F4A07F1180307CAF3
:1015200083E807005E4B1B68184607F0FBFF034685
:10153000002B41D05A4B186807F10C010023002200
:1015400007F092FF002387F83F3031E097F83F30F3
:1015500040333B4413F8343C002B12D097F83F3013
:101560009B0040333B4453F8140C97F83F305B002A
:1015700040333B4433F8083C0122194604F07CFE1A
:1015800011E097F83F309B0040333B4453F8140C74
:1015900097F83F305B0040333B4433F8083C00226F
:1015A000194604F069FE97F83F30013387F83F3061
:1015B00097F83F30022BC9D9002387F83F301FE04E
:1015C00097F83F309B0040333B4453F8142C97F876
:1015D0003F305B0040333B4433F8083C97F83F40D2
:1015E0001946104604F030FE03461A4604F1400343
:1015F0003B4403F8302C97F83F30013387F83F30F5
:1016000097F83F30022BDBD9264B1B68184607F0B2
:10161000A9FF244B186807F110010023002207F0EE
:10162000C3FE002387F83F301FE097F83F309B0050
:1016300040333B4453F8282C97F83F305B0040334D
:101640003B4433F81C3C97F83F401946104604F0E1
:10165000FBFD03461A4604F140033B4403F82C2CDF
:1016600097F83F30013387F83F3097F83F30022B2F
:10167000DBD90D4B1B68184607F074FF0A4B18683E
:1016800007F114010023002207F08EFE012007F06D
:10169000EEFC47E760F1020868F1020874F1020805
:1016A000080A0020040A0020000A0020F0B58FB0CC
:1016B00004AF78604FF47A7007F0D9FC07F002F9B4
:1016C000642007F0D4FC012387F82330002387F837
:1016D00022300021012007F055FA002007F0DAF946
:1016E00001227249724807F0E1FA01226F497148FC
:1016F00007F0DCFA012387F8233097F822300B3308
:1017000087F8223097F822309BB21946012007F063
:1017100039FA01226549684807F0C8FA012387F8B9
:10172000233097F822300B3387F8223097F8223095
:101730009BB21946012007F025FA01225B495F4858
:1017400007F0B4FA012387F8233097F822300B33DF
:1017500087F8223097F822309BB21946012007F013
:1017600011FA574B5B681B781D46554B5B685B78DD
:101770001E46534B5B689B781A46514B5B68DB787F
:1017800019464F4B5B681B791C464D4B5B685B7978
:1017900007F10C00039302940191009233462A460C
:1017A000484923F013FF07F10C0301223F49184673
:1017B00007F07CFA07F040F940F6B83009F07EFAFD
:1017C00000237B62012387F82330002387F822302F
:1017D0000021012007F0D6F9002007F05BF9012273
:1017E0003249394807F062FA354B5B689B68D9B2D9
:1017F000334B5B689B681B0ADCB2314B5B689B68B0
:101800001B0CDBB22E4A52689268120E07F10C00D4
:101810000192009323460A462C4923F0D7FE07F194
:101820000C0301222149184607F040FA012387F8EA
:1018300023300A2387F822300A21012007F0A2F979
:1018400001221A49224807F031FA7B6A01337B6290
:1018500007F10C037A6A1F49184623F0B7FE07F117
:101860000C0301221149184607F020FA07F0E4F8AA
:101870004FF47A7301227821174804F089FF034658
:10188000002B0ED0144804F055FE4FF47A7009F086
:1018900015FA00F085FB4FF47A7009F00FFA07F0A3
:1018A00011F84FF47A7007F0E2FB8BE77C00002020
:1018B0007CF1020888F1020894F10208A0F1020804
:1018C000E4090020A8F10208C8F10208CCF10208DE
:1018D000DCF10208E0F102081C0A002080B5B6B075
:1018E00000AF78600023C7F8D0300023C7F8D430A9
:1018F000464B474A4749484803F0E2FD47494848B4
:101900000BF002FA0346002B01DA04F030FA4548E6
:101910000BF0E6F944480BF0CFF944480BF0CCF952
:1019200041480BF0DDF942480BF0DAF941480BF081
:10193000D7F941480BF0D4F907F1D003002219463A
:101940003E480BF061F80346002B1CD001213B48B8
:101950000BF0F8F8C7F8D40007F10803C6221946BF
:10196000D7F8D4000BF03CF9D7F8D4000BF024F9E9
:1019700000233B72324B186807F108010223002252
:1019800008F0F8F80EE007F10803C6220021184617
:1019900024F0DEF92A4B186807F10801022300221F
:1019A00008F0E8F8264B1B6807F1080100221846EA
:1019B00008F072FC3B7A002B22D020480BF07CF917
:1019C00002211E480BF0BEF8C7F8D400D7F8D43077
:1019D000002B15D007F10803C6221946D7F8D4000A
:1019E0000BF016F9D7F8D4000BF0E6F800233B72A1
:1019F000134B186807F108010223002208F0BAF817
:101A00004FF47A7007F033FBCCE700BF111D0008DC
:101A1000351D0008E91C0008BD1C0008811D0008D8
:101A20005D1D0008E4F10208ECF10208F8F102087B
:101A300008F2020814F202081CF2020824F202085A
:101A40000C0A0020F0B5D5B006AF07F59C73A3F5DE
:101A50009A7318604FF4FA63C7F834310023C7F85B
:101A600030314FF4FA6007F002FB594800F05CFB9C
:101A70005849012000F06AFB574B1B68184607F0D5
:101A800051FD0346002B20D0534B186807F10C0181
:101A90000023002207F0E8FC022150480BF052F826
:101AA000C7F8300107F59C73A3F5967393F80131DD
:101AB0001A4607F10C0301331946D7F830010BF031
:101AC000A7F8D7F830010BF077F84FF4FA7007F069
:101AD000CEFAD7F83431B3F5FA6F73D107F59673B0
:101AE000002219463D480AF08FFFD7F82C314CF2FE
:101AF000503293420AD93A480BF0DEF83849374859
:101B00000BF0C4F83749012000F020FB0023C7F890
:101B1000343107F5887318460AF0F8FED7F81051EB
:101B2000D7F81461D7F81831D7F81C21D7F820114D
:101B3000D7F82401D7F82841049403900291019228
:101B4000009333462A462849012000F0FFFA274B2C
:101B50005B689B68D9B2254B5B689B681B0AD8B24F
:101B6000224B5B689B681B0CDBB2204A5268926870
:101B7000120E0192009303460A461D49012000F00F
:101B8000E5FA1A4B5B681B781C46184B5B685B7860
:101B90001D46164B5B689B781A46144B5B68DB78D6
:101BA0001946124B5B681B791846104B5B685B79D2
:101BB00003930290019100922B4622460D49012089
:101BC00000F0C4FAD7F834310133C7F8343153E7A1
:101BD0005D1E000838F20208100A00204CF20208CC
:101BE0005CF202086CF2020880F20208E4090020AC
:101BF00004F1020814F3020880B500AF00224FF48C
:101C00008071024804F038FB00BF80BD0000024034
:101C100080B500AF01224FF48071024804F02CFB24
:101C200000BF80BD0000024080B582B000AF786088
:101C3000084B1B684FF0FF31184607F0B9FA002235
:101C40004FF48051044804F017FB00BF0837BD462D
:101C500080BD00BF140A00200004024080B582B09D
:101C600000AF786001224FF48051064804F004FB75
:101C7000054B1B68184607F0E6FA00BF0837BD465B
:101C800080BD00BF00040240140A002080B586B069
:101C900002AF78600B46FB7007F10F02F91C4FF0A2
:101CA000FF3300930123044806F0ACF8FB7B184691
:101CB0001037BD4680BD00BF700A002080B500AF60
:101CC000074B1B684FF0FF31184607F071FA0022EE
:101CD0004FF40071034804F0CFFA00BF80BD00BF8D
:101CE000140A00200000024080B500AF01224FF42A
:101CF0000071054804F0C0FA044B1B68184607F051
:101D0000A2FA00BF80BD00BF00000240140A0020FC
:101D100080B582B000AF0346FB71F91D4FF0FF3371
:101D20000122034805F011FE00BF0837BD4680BD03
:101D3000700A002080B582B000AF78600B467B80CF
:101D40007A884FF0FF337968034805F042FF034675
:101D500018460837BD4680BD700A002080B582B0A5
:101D600000AF7860054B1B684FF0FF31184607F055
:101D70001FFA00BF0837BD4680BD00BF180A00200B
:101D800080B582B000AF7860044B1B68184607F03E
:101D90005AFA00BF0837BD4680BD00BF180A0020B0
:101DA00080B586B000AF78600B46FB701346BB7001
:101DB000FB78022B2BD0022B44DC002B02D0012B12
:101DC00018D03FE07B68FB60BB78002B07D11F4B2E
:101DD0001B680022F968184608F05EFA2FE0BB780D
:101DE000012B2CD1194B186802230022F96807F047
:101DF000C1FE24E07B683B61BB78002B21D1144BF2
:101E00001B6800223969184608F046FA19E07B6819
:101E10007B61BB78002B07D10E4B1B6800227969D0
:101E2000184608F039FA0DE0BB78012B0AD10A4BAD
:101E3000186802230022796907F09CFE02E000BFC7
:101E400000E000BF00BF1837BD4680BD0C0A00206F
:101E5000000A0020040A0020080A002084B080B58F
:101E600000AF07F1080C8CE80F00074B186800233F
:101E7000002207F1080107F097FA00BFBD46BDE850
:101E8000804004B0704700BF100A002080B588B0C1
:101E900000AF07F10C0300221A605A609A60DA6002
:101EA0001A610023BB603B4B1B6B3A4A43F0800333
:101EB0001363384B1B6B03F08003BB60BB680023CC
:101EC0007B60344B1B6B334A43F001031363314B8C
:101ED0001B6B03F001037B607B6800233B602D4B91
:101EE0001B6B2C4A43F0020313632A4B1B6B03F05A
:101EF00002033B603B6800224FF4F071264804F077
:101F0000BBF901224FF48051244804F0B5F90122B5
:101F10004FF40071204804F0AFF90723FB60002361
:101F20003B6102237B6107F10C0319461A4803F059
:101F300023FFE023FB6001233B6100237B6100233F
:101F4000BB6107F10C031946134803F015FF4FF46A
:101F50008053FB6001233B6100237B610223BB6153
:101F600007F10C0319460D4803F006FF4FF44073C8
:101F7000FB6001233B6100237B610223BB6107F10E
:101F80000C031946044803F0F7FE00BF2037BD4696
:101F900080BD00BF00380240000002400004024043
:101FA00080B500AF124B134A1A60114B124A5A60A7
:101FB0000F4B00229A600E4B0022DA600C4B4FF45C
:101FC00080421A610A4B00225A61094B00229A6131
:101FD000074B0022DA61064B00221A62044804F023
:101FE00065F90346002B01D000F054FA00BF80BD14
:101FF0001C0A002000540040400D030080B58AB048
:1020000000AF786007F1140300221A605A609A60EA
:10201000DA601A617B681B68194A93422BD100234E
:102020003B61184B1B6B174A43F002031363154BBC
:102030001B6B03F002033B613B69C0237B611223EE
:10204000BB610123FB6103233B6204237B6207F135
:10205000140319460C4803F08FFE0023FB60094B64
:102060001B6C084A43F400131364064B1B6C03F407
:102070000013FB60FB6800BF2837BD4680BD00BF72
:1020800000540040003802400004024080B582B095
:1020900000AF78607B681B680A4A93420DD10A4BF7
:1020A0001B6C094A23F4001313644021074803F012
:1020B000E7FF8021054803F0E3FF00BF0837BD4676
:1020C00080BD00BF005400400038024000040240C0
:1020D00080B584B000AF786039607B683A6802FBF5
:1020E00003F318460AF022FA0346FB60FB68002B54
:1020F00008D03B687A6802FB03F31A460021F868AF
:1021000023F026FEFB6818461037BD4680BD84B01C
:1021100090B400AF07F1080484E80F0000BFBD468B
:1021200090BC04B07047000080B483B000AF78600A
:102130007B68002B02D0044A7B68136000BF0C3719
:10214000BD465DF8047B7047000000200EB4B0B5BA
:10215000ADF5277D3EAF024607F5D073A3F2991384
:102160001A700023C7F89C3101214FF48070FFF7EB
:10217000AFFFC7F89C01D7F89C31002B00F0E88036
:1021800007F180034FF481720021184623F0E0FD2F
:1021900007F5D073A3F5907307F5D072A2F29912E8
:1021A00012781A701FF0F8F902460B4610461946CD
:1021B000FEF704FA02460B46C7E964234FF000021B
:1021C000674BD7E96401FEF759FB02460B46104600
:1021D0001946FEF7EDFD02460B46C7E91C2307F141
:1021E0004C0207F170031146184623F047FE07F131
:1021F0004C0307F10C005B4A402124F051FC0346DC
:10220000C7F88C31D7E96401FEF7BEFC0346564A95
:1022100082FB03129111DA178A1A4FF47A7101FBCB
:1022200002F29B1AC7F88831D7F88C3107F10C02FB
:10223000D018D7F88C31C3F14001D7F888314B4A18
:1022400023F05CF80246D7F88C311344C7F88C3180
:10225000D7F88C315A1CC7F88C2107F5D072A2F53B
:10226000CA722021D154D7F88C315A1CC7F88C215E
:1022700007F5D072A2F5CA720021D154D7F88C317B
:102280000133C7F88C3107F5DC7207F5D073A3F57D
:1022900092731A6007F5D073A3F5927307F1800269
:1022A000501C1B68D7F8B421FD2123F0EFFAC7F8C2
:1022B000840107F10C0207F18003013300931346F8
:1022C0002B4A4FF48071D7F89C0123F017F8D7F808
:1022D0008431002B12DBD7F88431FC2B0EDCD7F8CD
:1022E0008C31DAB2D7F88431DBB21344DAB207F5B5
:1022F000D073A3F5907383F8012106E007F5D0733E
:10230000A3F59073FD2283F8012107F180030133C7
:102310004FF48072D7F89C11184623F060FD154BDE
:102320001B68002B0FD0134B1D6807F5D073A3F566
:102330009074684604F11003F222194624F044FF19
:1023400094E80F00A847D7F89C010AF0BDF900E017
:1023500000BF07F5D277BD46BDE8B04003B0704777
:1023600000408F403CF30208D34D621050F3020846
:1023700058F302080000002080B500AF03F098FB7E
:1023800000F00EF8FFF782FD00F08AF8FFF708FE74
:1023900006F090FDFEF7A2FE06F0B0FD00BFFDE7DF
:1023A00080B594B000AF07F1200330220021184619
:1023B00023F0CEFC07F10C0300221A605A609A60E9
:1023C000DA601A610023BB60274B1B6C264A43F07E
:1023D00080531364244B1B6C03F08053BB60BB68B9
:1023E00000237B60214B1B68204A43F44043136069
:1023F0001E4B1B6803F440437B607B6801233B62F8
:102400004FF480337B620223BB634FF48003FB6392
:1024100004233B6464237B640223BB640423FB64C6
:1024200007F12003184604F03DFD0346002B01D0C0
:1024300000F030F80F23FB6002233B6100237B6137
:102440004FF48053BB610023FB6107F10C030321B0
:10245000184604F09FFF0346002B01D000F01AF845
:1024600000BF5037BD4680BD0038024000700040BC
:1024700080B582B000AF78607B681B68044A9342E5
:1024800001D103F037FB00BF0837BD4680BD00BF58
:102490000040014080B400AF72B600BF00BFFDE74E
:1024A00080B500AF174B184A1A60164B4FF4827272
:1024B0005A60144B00229A60124B0022DA60114BD2
:1024C00000221A610F4B00225A610E4B4FF400722A
:1024D0009A610C4B1022DA610A4B00221A62094BF6
:1024E00000225A62074B00229A62064B0A22DA62E5
:1024F000044805F0A1F90346002B01D0FFF7CAFFFD
:1025000000BF80BD700A00200038004080B58AB04E
:1025100000AF786007F1140300221A605A609A60D5
:10252000DA601A617B681B68194A93422CD1002338
:102530003B61184B1B6C174A43F480431364154BE3
:102540001B6C03F480433B613B690023FB60114B30
:102550001B6B104A43F0020313630E4B1B6B03F01B
:102560000203FB60FB684FF460437B610223BB61A5
:102570000023FB6102233B6205237B6207F1140306
:102580001946054803F0F8FB00BF2837BD4680BD5B
:1025900000380040003802400004024080B582B09C
:1025A00000AF00237B60124B5B6C114A43F4804305
:1025B00053640F4B5B6C03F480437B607B680023A8
:1025C0003B600B4B1B6C0A4A43F080531364084B6F
:1025D0001B6C03F080533B603B6800220F216FF0BF
:1025E000010003F09AFB00BF0837BD4680BD00BF65
:1025F0000038024080B58CB000AF78600023BB6229
:1026000000237B620023BB602E4B5B6C2D4A43F49E
:10261000803353642B4B5B6C03F48033BB60BB682B
:1026200007F10C0207F110031146184605F0D2F825
:1026300005F0BCF8B862BB6A234AA2FB03239B0CDB
:10264000013B7B62214B224A1A60204B40F2E73269
:10265000DA601E4A7B6A53601C4B00221A611B4BD6
:1026600000229A60194B00229A61184805F0B6FEC4
:10267000034687F82F3097F82F30002B1BD11348D3
:1026800005F006FF034687F82F3097F82F30002B10
:1026900011D1182003F05DFB7B680F2B08D80022B6
:1026A0007968182003F039FB0A4A7B68136002E05E
:1026B000012387F82F3097F82F3018463037BD4662
:1026C00080BD00BF0038024083DE1B43C80A0020E3
:1026D000004001407400002080B400AF00BFFDE75F
:1026E00080B400AF00BFFDE780B400AF00BFFDE7DE
:1026F00080B400AF00BFFDE780B400AF00BFFDE7CE
:1027000080B400AF00BFBD465DF8047B7047000099
:1027100080B500AF024805F01DFF00BF80BD00BFBF
:10272000C80A002080B400AF01231846BD465DF8FA
:10273000047B704780B582B000AF7860396024F0C8
:102740000BFD034616221A604FF0FF331846083778
:10275000BD4680BD80B582B000AF78604FF0FF31DC
:102760007868FFF7E7FF00BFFDE780B586B000AFF0
:10277000F860B9607A6000237B610AE0AFF3008003
:102780000146BB685A1CBA60CAB21A707B69013331
:102790007B617A697B689A42F0DB7B681846183760
:1027A000BD4680BD80B586B000AFF860B9607A6084
:1027B00000237B6109E0BB685A1CBA601B7818468D
:1027C000AFF300807B6901337B617A697B689A4251
:1027D000F1DB7B6818461837BD4680BD80B483B0F6
:1027E00000AF78604FF0FF3318460C37BD465DF8F8
:1027F000047B704780B483B000AF786039603B6879
:102800004FF400525A60002318460C37BD465DF85D
:10281000047B704780B483B000AF78600123184612
:102820000C37BD465DF8047B704780B485B000AFBF
:10283000F860B9607A60002318461437BD465DF829
:10284000047B704780B586B000AF7860144A154BA2
:10285000D31A7B617B693B61134B1B68002B02D150
:10286000114B124A1A60104B1A687B6813443A697C
:102870009A4207D224F070FC03460C221A604FF0F3
:10288000FF3309E0084B1B68FB60074B1A687B6845
:102890001344054A1360FB6818461837BD4680BDCF
:1028A0000000022000080000140B0020B08401206A
:1028B00080B400AF064BD3F88830054A43F4700368
:1028C000C2F8883000BFBD465DF8047B704700BF8A
:1028D00000ED00E0DFF834D0FFF7EAFF0C480D49C7
:1028E0000D4A002302E0D458C4500433C4188C426B
:1028F000F9D30A4A0A4C002301E013600432A242D1
:10290000FBD324F037FCFFF737FD704700000220AF
:1029100000000020C8090020BC4E0308C8090020A0
:10292000AC840120FEE780B584B000AF78603960E8
:102930007B683A6802FB03F3184609F0F7FD03468B
:10294000FB60FB68002B08D03B687A6802FB03F34E
:102950001A460021F86823F0FBF9FB681846103787
:10296000BD4680BDF0B593B008AF786007F10C03A9
:10297000184609F0CBFF0E490120FFF7E7FBFB6883
:102980003A697969B869FC693D6A7E6A0696059577
:1029900004940390029101920093064B064AC821C9
:1029A000786815F023FC00BF2C37BD46F0BD00BF92
:1029B00060F3020880F3020884F4020880B5A0B036
:1029C00000AF786039602123BB674FF48063A7F8BC
:1029D0007630102387F87530B7F876300121184625
:1029E000FFF7A1FF38673B6F002B05D1386F09F067
:1029F0006BFE4FF0FF3367E001227968344814F032
:102A00008DF8F866FB6E002B08D1F86E14F0ADF867
:102A1000386F09F059FE6FF0010355E007F10C0320
:102A2000184618F0F5FC06E007F10C03BA6E396F92
:102A3000184619F099FB264B1B69FA6E1068B7F817
:102A40007620396F9847B866BB6E002BECD1F86ED4
:102A500014F08BF897F8753001211846FFF763FFE3
:102A600078667B6E002B08D1386F09F02DFE786EEA
:102A700009F02AFE4FF0FF3326E007F10C03796ED0
:102A8000184619F0EFFB0023FB6713E0FB6F5B00B8
:102A90001A463B689818FB6F5B001A46BB6F991A81
:102AA000FB6F7A6E13441B780A4A22F027FCFB6FF7
:102AB0000133FB67FB6F0F2BE8DD386F09F004FE75
:102AC000786E09F001FE002318468037BD4680BDB0
:102AD0000C000020C8F40208B0B594B006AF7860CE
:102AE000396007F12403604918461FF02BF8396854
:102AF0000023009307F124030CCB03C91FF0F5F862
:102B00000346002B23D0594B1B6807F11C00002201
:102B100001219847554B1B6807F11C02D01C00226D
:102B2000022198473B7F7A7FB97FF87F97F8204052
:102B300097F8215005950494039002910192009317
:102B40004B4B4C4AC821786815F050FB87E007F1E1
:102B50002C03494918461EF0F5FF396800230093FD
:102B600007F12C030CCB03C91FF0BFF80346002B61
:102B70006DD007F110033968404A01F5007103C9AF
:102B800018F04EF90346002B59D007F108033968B5
:102B90003B4A01F5007103C918F042F90346002BC6
:102BA0004DD0D7E9042310461946FEF715F8034621
:102BB00087F83730D7E9022310461946FEF70CF89C
:102BC000034687F8363097F83730002B2FD097F828
:102BD0003730032B2BD897F83630002B03D097F8DB
:102BE0003630012B23D1214B1B6807F1180000223E
:102BF0000221984797F83730013B38333B4497F828
:102C0000362003F8202C194B1B6807F1180001220D
:102C10000221984797F8373097F8362001920093B1
:102C2000184B144AC821786815F0E0FA17E0164BE3
:102C3000104A4FF4C871786815F0D8FA0FE0134BBA
:102C40000C4A4FF4C871786815F0D0FA07E0104BC1
:102C5000084A4FF4C871786815F0C8FAFFE700BF5A
:102C60003837BD46B0BD00BFD0F40208180B0020B5
:102C7000D4F4020808F5020878F5020880F5020885
:102C80008CF5020894F50208CCF5020808F6020853
:102C900044F6020880B592B004AF7860396007F15D
:102CA0000C03A74918461EF04DFF39680023009316
:102CB00007F10C030CCB03C91FF017F80346002BD8
:102CC0004DD0002387F82330C6210120FFF72BFECB
:102CD000F861FB69002B0AD19A4B9B4A4FF4FA71B9
:102CE000786815F083FAF86909F0EEFC24E1974B57
:102CF0001B6800220021F8699847FB69A533184634
:102D0000FDF7CEFA034687F82330FB69A53397F821
:102D100023202A21184623F01BF897F82330FA695C
:102D20001344002283F8A520FB695B78002B01D0B7
:102D3000874B00E0874BFA690232F9698431F86900
:102D4000A5300390029101920093834B7E4AC821E3
:102D5000786815F04BFAF86909F0B6FCECE007F179
:102D600014037E4918461EF0EDFE396800230093D7
:102D700007F114030CCB03C91EF0B7FF0346002B69
:102D800000F0D380C6210120FFF7CDFD78637B6B77
:102D9000002B0AD16B4B6C4A4FF4FA71786815F02E
:102DA00025FA786B09F090FCC6E007F10803396852
:102DB0006B4A01F5007103C917F0F8FC0346002BBC
:102DC00007DA684B604A4FF4C871786815F00EFA5C
:102DD000A7E07B6B01333968634A01F5007103C9D1
:102DE00018F065F800233B633B68604A03F5007305
:102DF00093E8030018F025F938633B6B002B4ED0A5
:102E00000023FB62386B20F0D7F9F862FB6A002BD5
:102E100007D17B6B02337F22396B184622F0DFFF2C
:102E20003DE0FB6A0433032B2AD801A252F823F0B9
:102E3000712E0008612E0008512E0008412E000856
:102E40004B4B414A4FF4C871786815F0CFF91FE039
:102E5000484B3D4A4FF4C871786815F0C7F917E040
:102E6000454B394A4FF4C871786815F0BFF90FE047
:102E7000424B354A4FF4C871786815F0B7F907E04E
:102E80003F4B314A4FF4C871786815F0AFF900BF75
:102E9000386B09F019FC786B09F016FC4CE0386BC4
:102EA00009F012FC0023BB623B68364A03F500734D
:102EB00093E8030018F0C5F8B862BB6A002B06D08F
:102EC0007B6B84332022B96A184622F088FFB86AE7
:102ED00009F0FAFB00237B623B682B4A03F5007381
:102EE00093E8030018F0ADF878627B6A002B06D0F7
:102EF0007B6BA5332022796A184622F070FF786A2E
:102F000009F0E2FB7B6B01221A70104B1B68012257
:102F10000021786B98471D4B0B4AC821786815F043
:102F200065F9786B09F0D0FB06E0194B064A4FF4BF
:102F3000C871786815F05AF93837BD4680BD00BFB2
:102F4000D0F4020898F6020808F50208180B0020D1
:102F5000D4F60208DCF60208E4F6020878F5020866
:102F60002CF7020830F7020860F702086CF7020835
:102F700078F70208BCF7020808F8020848F80208C7
:102F800080F80208B4F80208C0F80208CCF8020879
:102F900044F6020880B5D2B006AF07F59873A3F5E2
:102FA0009673186007F59873A3F598731960CF4A64
:102FB00007F18C0311467222184624F005F900230C
:102FC000C7F820311E23C7F81C31D7F81C31012166
:102FD0001846FFF7A8FCC7F8180101212E20FFF7BB
:102FE000A2FCC7F8140101212E20FFF79CFCC7F8B2
:102FF000100101214FF44070FFF795FCC7F80C0158
:1030000001214FF4C070FFF78EFCC7F80801D7F814
:103010001831002B00F08281D7F81431002B00F01A
:103020007D81D7F81031002B00F07881D7F80C3172
:10303000002B00F07381D7F80831002B00F06E816F
:1030400007F58073AA4918461EF07CFD07F59873B2
:10305000A3F5987319680023009307F580730CCBD0
:1030600003C91EF042FE0346002B00F0328101F03E
:1030700081FAC7F82001D7F82031002B08D1D7F802
:103080001C311A469B49D7F8180122F0A8FE41E0EE
:10309000D7F8203193F8AC3003F02003DBB2002BDB
:1030A00008D0D7F81C311A469349D7F8180122F0F6
:1030B00096FE19E0D7F8203193F8AD3003F02003E5
:1030C000DBB2002B08D0D7F81C311A468B49D7F851
:1030D000180122F084FE07E0D7F81C311A4688490F
:1030E000D7F8180122F07BFED7F82031083300937F
:1030F000844B854A2E21D7F810011EF03BF8D7F8F3
:1031000020311C3300937F4B7F4A2E21D7F81401C6
:103110001EF030F8D7F80C01FDF7C2F803461A4646
:10312000D7F80C31134479491A460B461B88138093
:103130000123C7F82C3122E0D7F82C31DBB207F19C
:103140000C000122802101F02FFF07F10C0319462A
:10315000D7F80C0122F004FED7F80C01FDF7A0F817
:1031600003461A46D7F80C311344694A10681860B0
:1031700012791A71D7F82C310133C7F82C31D7F8EE
:103180002C31032BD8DD0123C7F8283135E0D7F8DF
:103190002831DBB207F10C000222802101F004FF8C
:1031A00007F10C031946D7F80C0122F0D9FDD7F826
:1031B0002831022B0EDCD7F80C01FDF771F803461D
:1031C0001A46D7F80C311344514A10681860127926
:1031D0001A710DE0D7F80C01FDF762F803461A46A4
:1031E000D7F80C31134449491A460B461B88138003
:1031F000D7F828310133C7F82831D7F82831032B05
:10320000C5DDD7F80801FDF74BF803461A46D7F895
:10321000083113443D491A460B461B88138001238D
:10322000C7F8243135E0D7F82431DBB207F10C00C0
:103230000222802101F08EFE07F10C031946D7F817
:10324000080122F08DFDD7F82431022B0EDCD7F8CF
:103250000801FDF725F803461A46D7F8083113444C
:103260002B4A1068186012791A710DE0D7F808011E
:10327000FDF716F803461A46D7F8083113442349D8
:103280001A460B461B881380D7F824310133C7F840
:103290002431D7F82431032BC5DD07F18C0207F563
:1032A0009873A3F59670D7F808310493D7F80C31CA
:1032B0000393D7F814310293D7F810310193D7F85C
:1032C000183100931346134AC821006814F08EFF8A
:1032D0002FE007F59873A3F596700F4B0D4A4FF446
:1032E000C871006814F082FF23E000BF7CF9020877
:1032F000D0F4020808F9020810F902081CF90208C3
:1033000024F90208A513020830F9020834F902086A
:1033100038F9020808F5020844F6020807F5987320
:10332000A3F596700F4B104A4FF4C871006814F063
:103330005DFFD7F8180109F0C7F9D7F8140109F0B3
:10334000C3F9D7F8100109F0BFF9D7F80C0109F05B
:10335000BBF9D7F8080109F0B7F900BF07F598776E
:10336000BD4680BD40F9020808F5020880B582B06C
:1033700000AF7860044B054AC821786814F036FF26
:1033800000BF0837BD4680BDF0F90208F4F9020815
:1033900080B58AB004AF7860396007F10C031A4930
:1033A00018461EF0CFFB39680023009307F10C0389
:1033B0000CCB03C91EF099FC0346002B18D07B6888
:1033C000DB6F7B617B691968002302930F4B0193CC
:1033D000012300934FF4FA624FF0000308461AF0FD
:1033E00047FC0B4B0B4AC821786814F0FFFE06E03F
:1033F000094B084A4FF4C871786814F0F7FE00BF13
:103400001837BD4680BD00BF78F502086F5D000823
:1034100094FA020808F50208C8FA020880B5A6B0B6
:1034200002AF7860396007F18803204918461EF022
:1034300089FB39680023009307F188030CCB03C98B
:103440001EF053FC0346002B24D03B6803F1100010
:1034500007F108028023164913F03AFD07F108032B
:1034600014491846FCF7BCFE0346002B08D1124B4A
:103470000093124B124A3968786816F073F810E01E
:103480000C4B00930F4B104A4FF4C871786814F03E
:10349000ADFE06E00D4B0C4A4FF4C871786814F08D
:1034A000A5FE00BF9037BD4680BD00BF78F502087D
:1034B00018FB020820FB0208400D030030FB020845
:1034C0000C0000203CFB020808F50208C8FA0208BC
:1034D00080B588B002AF7860396007F10C031D49F0
:1034E00018461EF02FFB39680023009307F10C03E8
:1034F0000CCB03C91EF0F9FB0346002B1FD00121A2
:103500002120FFF710FA786179691348FFF756FA1E
:103510000346002B08D17B690093104B104AC82149
:10352000786814F063FE06E00E4B0D4A4FF4CA7142
:10353000786814F05BFE786909F0C6F806E00A4B7B
:10354000074A4FF4C871786814F050FE00BF18376E
:10355000BD4680BDD0F4020888FB0208A0FB02082B
:1035600008F50208C4FB020804FC020880B58AB012
:1035700002AF7860396007F110032E4918461EF03B
:10358000E1FA39680023009307F110030CCB03C95B
:103590001EF0ABFB0346002B17D0274B1B6807F12F
:1035A0000C010022254898470346002B06D0244BE7
:1035B000244AC821786814F019FE36E0224B214ACB
:1035C000C821786814F012FE2FE007F118031F4994
:1035D00018461EF0B7FA39680023009307F1180364
:1035E0000CCB03C91EF081FB0346002B16D0124BF7
:1035F000DB691249164898470346002B06D0104B4A
:10360000104AC821786814F0F1FD0EE0114B0D4A04
:103610004FF4FA71786814F0E9FD06E00E4B094AA0
:103620004FF4C871786814F0E1FD00BF2037BD4643
:1036300080BD00BFD0F402080C00002054FC02083A
:1036400064FC020808F502089CFC020878F50208F0
:1036500088FB0208D8FC02081CFD020880B586B071
:1036600002AF7860396007F10803184918461EF068
:1036700069FA39680023009307F108030CCB03C9EA
:103680001EF033FB0346002B14D0114B1B6A11486C
:1036900098470346002B06D00F4B104AC821786884
:1036A00014F0A4FD0DE00E4B0C4AC821786814F00C
:1036B0009DFD06E00B4B094A4FF4C871786814F081
:1036C00095FD00BF1037BD4680BD00BF78F50208EC
:1036D0000C00002054FC020874FD020808F50208E2
:1036E000B0FD0208C8FA020880B586B002AF786063
:1036F000396007F10803154918461EF023FA3968A6
:103700000023009307F108030CCB03C91EF0EDFA68
:103710000346002B0ED00E4B1B6A0E4898470C4BED
:103720005B6A0C4898470C4B0C4AC821786814F027
:103730005DFD06E00A4B094A4FF4C871786814F041
:1037400055FD00BF1037BD4680BD00BF78F50208AB
:103750000C000020F4FD0208FCFD020808F5020838
:10376000C8FA020880B5C6B002AF07F58873A3F5A2
:103770008673186007F58873A3F58873196007F5D9
:103780008473344918461EF0DDF907F58873A3F5F4
:10379000887319680023009307F584730CCB03C961
:1037A0001EF0A3FA0346002B43D007F58873A3F558
:1037B00088731B6803F5007007F18C027B23264990
:1037C00013F086FB0346002B27DD07F18C0307F17E
:1037D0000C00224A802121F091FD214B5B6A07F108
:1037E0000C02104698470346002B0AD007F5887351
:1037F000A3F586701B4B1C4AC821006814F0F6FC28
:1038000022E007F58873A3F58670184B164A4FF42B
:10381000FA71006814F0EAFC16E007F58873A3F566
:103820008670134B104A4FF4C871006814F0DEFC28
:103830000AE007F58873A3F586700E4B0A4A4FF429
:10384000C871006814F0D2FC00BF07F58877BD4648
:1038500080BD00BF78F5020844FE02084CFE020855
:103860000C00002054FE020808F5020888FE020839
:10387000C4FE0208C8FA020880B590B002AFF86032
:10388000B9607A6007F128032C4918461EF05AF9EE
:10389000B9680023009307F128030CCB03C91EF07D
:1038A00024FA0346002B2BD007F1100300221A60E4
:1038B0005A609A60DA601A615A61214B3B61214B70
:1038C0007B627B68002B03D07B68012B08D00FE064
:1038D00007F110031C4AB968F86814F07BFE29E070
:1038E00007F11003194AB968F86814F073FE21E073
:1038F00007F11003144AB968F86814F06BFE19E078
:1039000007F13003124918461EF01CF9B96800236C
:10391000009307F130030CCB03C91EF0E6F9034610
:10392000002B07D10B4B0C4A4FF4C871F86814F008
:103930005DFCFFE700BF3837BD4680BDD0F402080C
:1039400000FF02080C00002008FF020818FF020810
:1039500078F502081CFD020808F5020880B5ACB035
:1039600002AFF860B9607A60BB680B2B40F0C08191
:103970007B68C7F8A43007F12C03B54918461EF040
:10398000E1F8D7F8A4100023009307F12C030CCB27
:1039900003C91EF0AAF90346002B03D0F868FFF70D
:1039A000E5FCA5E107F13403AA4918461EF0CAF860
:1039B000D7F8A4100023009307F134030CCB08318F
:1039C00003C91EF092F90346002B03D0F868FEF7F6
:1039D000C9FF8DE107F13C039F4918461EF0B2F87C
:1039E000D7F8A4100023009307F13C030CCB083157
:1039F00003C91EF07AF90346002B05D0D7F8A410AE
:103A0000F868FFF769F873E107F144039349184632
:103A10001EF098F8D7F8A4100023009307F1440390
:103A20000CCB083103C91EF060F90346002B05D00A
:103A3000D7F8A410F868FFF72DF959E107F14C0306
:103A4000874918461EF07EF8D7F8A410002300938B
:103A500007F14C030CCB083103C91EF046F90346AD
:103A6000002B05D0D7F8A410F868FFF793FA3FE1D0
:103A700007F154037B4918461EF064F8D7F8A410E8
:103A80000023009307F154030CCB083103C91EF047
:103A90002CF90346002B06D00022D7F8A410F868B2
:103AA000FFF7EAFE24E107F15C036F4918461EF0B8
:103AB00049F8D7F8A4100023009307F15C030CCB5E
:103AC000083103C91EF011F90346002B06D001226C
:103AD000D7F8A410F868FFF7CFFE09E107F16403F7
:103AE000624918461EF02EF8D7F8A4100023009360
:103AF00007F164030CCB083103C91EF0F6F8034646
:103B0000002B05D0D7F8A410F868FFF741FCEFE0D0
:103B100007F16C03564918461EF014F8D7F8A410A4
:103B20000023009307F16C030CCB083103C91EF08E
:103B3000DCF80346002B05D0D7F8A410F868FFF78F
:103B40006DFCD5E007F174034A4918461DF0FAFFF1
:103B5000D7F8A4100023009307F174030CCB0831AD
:103B600003C91EF0C2F80346002B05D0D7F8A410F5
:103B7000F868FFF7ADFCBBE007F17C033E4918464F
:103B80001DF0E0FFD7F8A4100023009307F17C0399
:103B90000CCB083103C91EF0A8F80346002B05D052
:103BA000D7F8A410F868FFF7E1FCA1E007F184035F
:103BB000324918461DF0C6FFD7F8A4100023009321
:103BC00007F184030CCB083103C91EF08EF80346BD
:103BD000002B05D0D7F8A410F868FFF73FFD87E069
:103BE00007F18C03264918461DF0ACFFD7F8A41046
:103BF0000023009307F18C030CCB083103C91EF09E
:103C000074F80346002B05D0D7F8A410F868FFF726
:103C10006BFD6DE007F194031A4918461DF092FF01
:103C2000D7F8A4100023009307F194030CCB0831BC
:103C300003C91EF05AF80346002B2BD0124B0093F9
:103C4000124B134AD7F8A410F86815F08BFC4FE01C
:103C500028FF020830FF020840FF020850FF020858
:103C600064FF020878FF020888FF02089CFF020830
:103C7000B0FF0208C8FF0208DCFF020800000308CA
:103C80001C0003083800030860E31600F4FD020876
:103C90000C00002007F19C03174918461DF052FF45
:103CA000D7F8A4100023009307F19C030CCB083134
:103CB00003C91EF01AF80346002B05D0D7F8A4104C
:103CC000F868FFF74FFD13E007F1140300221A60B4
:103CD0005A609A60DA601A615A61084B7B61084B3E
:103CE000BB6207F114031A467968F86815F04CFBBB
:103CF00000BFA837BD4680BD54000308F4FD02088C
:103D00000C00002080B400AF024B1846BD465DF8A1
:103D1000047B70475D39000880B483B000AF7860E1
:103D2000044A7B68136000BF0C37BD465DF8047B16
:103D3000704700BF180B002080B584B000AF7860DA
:103D400039607B683A6802FB03F3184608F0EEFB23
:103D5000F860FB68002B08D03B687A6802FB03F32D
:103D60001A460021F86821F0F3FFFB681846103767
:103D7000BD4680BD90B58DB002AF78613961FA6003
:103D80003A4B18687B6908330093394B394A28212C
:103D90001DF0F0F9354B1C68344B1B681846FCF7D6
:103DA0007FFA03461946204600F026FD00237B6279
:103DB00052E07B6ADB003A6913441B683B627B6A12
:103DC000DB003A6913445B68FB612B4B18683B6A64
:103DD000DAB2FB69DBB2802100F040FD274B1868A6
:103DE0003B6ADAB2FB69DBB24FF4167100F010FEE9
:103DF000214B1A68224C3B46114618461DF0A2FE84
:103E000004F118033A4692E8030083E803001B4BD1
:103E10001A681B4C3B46114618461DF093FE04F1F0
:103E200020033A4692E8030083E80300144B012282
:103E300083F82820124B012283F82E20104978693C
:103E400018F0D2FE0C4B1B681A460E490120FEF7F3
:103E50007DF97B6A01337B627A6AFB689A42A8D358
:103E600000BF00BF2C37BD4690BD00BF7C0B0020BB
:103E70005B13020870000308280B00202C0B0020A5
:103E8000380B00207400030890B58DB002AFF860C5
:103E90000B46FB7200233B620023FB61704B1B68E7
:103EA00007F114000022012198476D4B1B6807F1B0
:103EB0001402D01C00220221984707F114030322A8
:103EC0006849184621F0B0FE0346002B0ED107F1D9
:103ED0001403033303226449184621F0A5FE034668
:103EE000002B03D1FB7A002B00F0B5805D4B07F16E
:103EF000140292E8030018600433198001214FF482
:103F00001670FFF719FF386201218020FFF714FFB8
:103F1000F861002387F8273045E097F82730013310
:103F2000DAB297F8273028333B4413F8143C009357
:103F3000134601224FF41671386A00F0C7FF97F854
:103F400027300133DBB201228021F86901F02CF81F
:103F5000464C3B46F96918461DF0F4FD04F1180380
:103F60003A4692E8030083E80300404C3B46396A36
:103F700018461DF0E7FD04F120033A4692E80300DD
:103F800083E80300394B002283F82820374B0022B6
:103F900083F82E203549F86818F026FE97F8273068
:103FA000013387F8273097F82730022BB5D9002343
:103FB00087F8273045E097F827300133DAB297F8D1
:103FC000273028333B4413F8113C00931346022258
:103FD0004FF41671386A00F079FF97F827300133F3
:103FE000DBB202228021F86900F0DEFF1F4C3B4665
:103FF000F96918461DF0A6FD04F118033A4692E847
:10400000030083E80300194C3B46396A18461DF04B
:1040100099FD04F120033A4692E8030083E8030087
:10402000124B002283F82820104B002283F82E2008
:104030000E49F86818F0D8FD97F82730013387F853
:10404000273097F82730022BB5D9386A08F03CFBA7
:10405000F86908F039FB00BF2C37BD4690BD00BFA2
:10406000900B0020940B0020970B0020380B0020B1
:1040700090B589B000AF78613961FA600023BB6107
:104080000023FB6136E0FB69DB003A6913441B68DF
:10409000022B2CD101218020FFF74EFEB861FB6975
:1040A000DB003A6913445B68DBB202228021B86905
:1040B00000F050FF144B012283F82820124C3B469D
:1040C000B96918461DF03EFD04F118033A4692E81E
:1040D000030083E803000C49786918F053FEBA69BD
:1040E0000A490120FEF732F8B86908F0EDFAFB69D9
:1040F0000133FB61FA69FB689A42C4D300BF00BF79
:104100002437BD4690BD00BF380B0020980003083F
:1041100080B588B000AF78600023BB607B681B6807
:10412000FB617B689B68BB61BB69002B02D0FB69AC
:10413000002B0ED17E4B1B68002B40F3F5807D4B8E
:1041400092227D49012016F0F9FF7C4817F046F8CD
:10415000EAE07B4B1B6807F1100000220221984720
:1041600007F10C0307F1100212681146198002339F
:10417000120C1A707349F86921F06AFE78617B6944
:10418000002B00F0BD8007F108031A466E497869DC
:1041900021F03CFA0346012B0CBF01230023DBB2C4
:1041A000002B00F09B80624B1B68012B0BDD614BE9
:1041B0009F226149022016F0C1FFBB68FA691946C7
:1041C000624817F00BF8BA68FB6961490120FDF7F6
:1041D000BDFFBB68002B02DDBB68032B16DD544B13
:1041E0001B68002B0BDD534BA4225349012016F012
:1041F000A5FFBB681A460321564816F0EFFFBB68BF
:10420000032254490320FDF7A1FF8EE07B68DB68A1
:10421000022B25D102225049B86921F0CEFD034678
:10422000002B1DD1BB68013B20333B44012203F826
:10423000142C3F4B1B68012B0ADD3E4BAE223E493E
:10424000022016F07BFFBB681946444816F0C6FFF3
:104250003B4B1B6807F10C0001220221984764E0E8
:104260007B68DB68032B25D103223D49B86921F027
:10427000A4FD0346002B1DD1BB68013B20333B440A
:10428000002203F8142C2A4B1B68012B0ADD294B52
:10429000B2222949022016F051FFBB681946314865
:1042A00016F09CFF264B1B6807F10C00012202212F
:1042B00098473AE01E4B1B68002B09DD1D4BB622C8
:1042C0001D49012016F03AFFB969274816F086FF0C
:1042D000BA6925490320FDF739FF26E0144B1B6816
:1042E000002B08DD134BBB221349012016F026FFDB
:1042F0001E4816F073FF1E490320FDF727FF14E048
:104300000B4B1B68002B09DD0A4BBF220A49012019
:1043100016F014FFF969174816F060FFFA6915499D
:104320000320FDF713FF00E000BF2037BD4680BD2E
:1043300098020020B4000308D40003080001030819
:10434000900B0020240103082C0103083801030806
:10435000640103088C010308DC010308E001030881
:10436000F4010308F80103080C02030848020308DB
:1043700080020308B802030880B582B000AF7860FD
:10438000064B1B78002B05D0054B1B6801211846F6
:10439000FFF77AFD00BF0837BD4680BD8C0B0020BB
:1043A000780B002080B586B000AFF860B9607A6005
:1043B000BB68112B32D12D4B1B68022B08DD2C4B17
:1043C000CD222C49032016F0B9FE2B4816F006FF2B
:1043D0002A490120FDF7BAFE294AFB681360294BE0
:1043E0001B7883F00103DBB2002B3AD0244B1B680F
:1043F000062225491846FFF7BDFC214B1B68012109
:104400001846FFF741FD1E4B1B6806221E49184641
:10441000FFF72EFE1B4B01221A7022E0BB68102B07
:104420000FD11A490120FDF791FE7B687B61786905
:10443000FFF76EFE124B1B6800211846FFF724FDA4
:104440000FE0BB680F2B0CD0BB68092B09D11049BA
:104450000120FDF77BFE0A4B00221A60094B002267
:104460001A7000BF1837BD4680BD00BF98020020FB
:10447000E8020308D4000308FC020308140303083D
:10448000780B00208C0B0020340000202C03030844
:104490005003030890B587B002AFF860204B1B684B
:1044A000002B36D11F490120FDF750FE402200218C
:1044B0001D4821F04DFC1D4B1A681B4C3B46114614
:1044C00018461DF03FFB22463B4693E8030082E876
:1044D0000300174B1A68144C3B46114618461DF052
:1044E00031FB04F108033A4692E8030083E8030035
:1044F0000D4B3C225A850F4B18680F4B196800234F
:1045000000930E4B084A18F017FF0346044A136045
:1045100002E0034B1B68002B00BF1437BD4690BD63
:10452000780B002068030308380B0020200B0020C4
:10453000240B0020300B00201C0B0020A54300089A
:1045400080B582B000AF7860084B1B68002B09D0A3
:10455000074B1B78002B05D0044B1B680021184625
:10456000FFF792FC00BF0837BD4680BD780B0020E6
:104570008C0B002080B400AF034B1B681846BD466F
:104580005DF8047B704700BF780B002090B58BB0BE
:1045900004AF78613961FA60BB6001218020FFF7C8
:1045A000CBFB0346544A136001212120FFF7C4FBD3
:1045B0000346524A136001212120FFF7BDFB034649
:1045C0004F4A136001218020FFF7B6FB03464D4A96
:1045D000136001214FF41670FFF7AEFB03464A4A01
:1045E000136001212820FFF7A7FB0346474A136009
:1045F000474AFB6A1360404B1B68F968184622F073
:10460000B1FD3E4B1B68B968184622F0ABFD3C4B30
:104610001B68B96A184622F0A5FD374B1A68374B5C
:104620001B683C490120FDF791FD3B4A7B69136003
:104630003A4A3B691360394B1B680621184600F063
:104640009BF82E4B1A68364C3B46114618461DF017
:1046500079FA22463B4693E8030082E80300284BA0
:104660001A682F4C3B46114618461DF06BFA04F1B0
:1046700008033A4692E8030083E80300284B3C22F3
:104680005A85254B196800230293264B0193032377
:10469000009342F210724FF00003084619F0E8FA56
:1046A0000346214A13601C4B1968002302931F4BD9
:1046B00001930123009343F698224FF0000308462C
:1046C00019F0D6FA03461A4A1360134B19680023EF
:1046D0000293184B0193012300934FF4FA724FF0A9
:1046E0000003084619F0C4FA0346134A136000BFDA
:1046F0001C37BD4690BD00BF1C0B0020200B0020C6
:10470000240B0020280B00202C0B00207C0B002009
:10471000900B002088030308300B0020340B00208E
:10472000380B002095440008800B002079430008D6
:10473000840B002041450008880B002080B584B020
:1047400000AF786039607B683A6802FB03F3184673
:1047500007F0ECFEF860FB68002B08D03B687A6835
:1047600002FB03F31A460021F86821F0F1FAFB6816
:1047700018461037BD4680BD80B584B000AF786064
:1047800039601B4B1B68002B04D0194B1B68184663
:1047900007F09AFF3B685B00013301211846FFF7E1
:1047A000CDFF0346124A1360114B1B68002B17D034
:1047B0000023FB600FE00E4B1A68FB685B00D0180B
:1047C0007A68FB6813441B781A460A4920F0FEFEFB
:1047D000FB680133FB60FA683B689A42EBD302E066
:1047E0004FF0FF3300E0002318461037BD4680BD70
:1047F0009C0B0020B403030880B582B000AF786042
:104800003960154B1B68002B04D0134B1B681846EE
:1048100007F05AFF3B68013301211846FFF78EFF6E
:1048200003460D4A13600C4B1B68002B0ED00A4B3D
:104830001B683A687968184621F0D1FA064B1A6865
:104840003B68134400221A70002301E04FF0FF334D
:1048500018460837BD4680BDA00B002080B58AB041
:1048600006AFF860B96011461A460B46FB71134655
:10487000BB71FB6800221A70FB79013B072B00F229
:10488000A38001A252F823F0A9480008CD480008EF
:10489000F148000839490008154900088149000815
:1048A000A54900085D4900084B4B1B68BA79049282
:1048B0004A4A039202934A4B01934A4B00934A4B54
:1048C0004A4AB968F86820F019FD80E0424B1B683D
:1048D000BA790492464A03920293414B0193444BA6
:1048E0000093414B414AB968F86820F007FD6EE03B
:1048F000394B1B68BA7904923E4A03920293384BB3
:1049000001933D4B0093384B384AB968F86820F062
:10491000F5FC5CE0304B1B68BA790492374A03928D
:1049200002932F4B0193344B00932F4B2F4AB968BE
:10493000F86820F0E3FC4AE0274B1B68BA79049240
:104940002F4A03920293264B01932B4B0093264B45
:10495000264AB968F86820F0D1FC38E01E4B1B6885
:10496000BA790492274A039202931D4B0193224B7A
:1049700000931D4B1D4AB968F86820F0BFFC26E083
:10498000154B1B68BA7904921F4A03920293144B89
:104990000193194B0093144B144AB968F86820F03E
:1049A000ADFC14E00C4B1B68BA790492174A0392D1
:1049B00002930B4B0193104B00930B4B0B4AB968BE
:1049C000F86820F09BFC02E04FF0FF3300E000238A
:1049D00018461037BD4680BD9C0B0020D403030849
:1049E000DC030308E403030864000020BC0303089D
:1049F000F4030308FC030308040403080C0403087D
:104A0000140403081C0403082C0403083C040308D2
:104A1000F0B59FB016AFF860B96011461A460B4664
:104A2000FB711346BB710023FB770023BB6100239E
:104A30007B61BA680021F86821F08AF9FB79013BB3
:104A4000072B00F20F8201A252F823F06D4A0008F2
:104A5000FD4A0008C74B0008ED4C0008254C000833
:104A6000A94D0008074E00084B4D00080121802089
:104A7000FFF764FEB861BB790093824B824A8021C4
:104A8000B86920F03BFC814B1B68BA79B9797F4843
:104A90000068BC797D4D2D687D4E366814967D4E3C
:104AA00013967C4E12967C4E11967C4E10967C4E40
:104AB0000F960E957B4D0D957B4D0C950B947B4C75
:104AC0000A94099077480890B8690790784806904A
:104AD0000591764904910392744A02920193714BB5
:104AE0000093744B744AB968F86820F007FC0346D9
:104AF000FB77B86907F0E8FDFB7FB6E10121802074
:104B0000FFF71CFEB86101218020FFF717FE7861D6
:104B1000BB790093694B6A4A8021B86920F0EEFBAB
:104B20005A4B1B68604A0292BA69019200935D4B2E
:104B3000644A8021786920F0E1FBBB790093624BE5
:104B4000514A8021B86920F0D9FB504B1B68BA79D3
:104B5000B9794E480068BC794C4D2D684C4E36688A
:104B600014964C4E13964B4E12964B4E11964B4E3E
:104B700010964B4E0F960E954A4D0D954A4D0C953D
:104B80000B944E4C0A94099046480890B8690790D7
:104B9000786906900591494904910392474A029227
:104BA0000193404B0093454B434AB968F86820F0A5
:104BB000A5FB0346FB77B86907F086FD786907F027
:104BC00083FDFB7F51E1314B1B68304A12682F494E
:104BD00009682F48006810902E480F902D480E90BD
:104BE0002D480D902D480C902D480B900A912D4981
:104BF000099136490891364907910692294A05924A
:104C0000344A0492344A0392314A0292334A01925E
:104C10000093244B2E4A2849F86820F0D7FC03461D
:104C2000FB7722E1194B1B68184A1268174909687B
:104C300017480068109017480F9016480E901648B5
:104C40000D9016480C9016480B900A911549099141
:104C500023490891234907910692124A0592224A54
:104C60000492134A03921F4A02921C4A0192009333
:104C70000C4B1C4A1049F86820F0A8FC0346FB774F
:104C8000F3E000BF44040308500403089C0B002019
:104C9000A00B0020580403085C0403086C040308FC
:104CA00080040308DC0303088C040308D40303080E
:104CB000900403081404030860360308F40303088F
:104CC00094040308E03703089C040308B0040308B5
:104CD000FC030308B4040308C4040308E80403083D
:104CE000F00403080C040308F4040308614B1B6878
:104CF000604A12685F4909685F48006810905F4821
:104D00000F905E480E905E480D905E480C905E4895
:104D10000B900A915D4909915D4908915D490791A0
:104D200006925A4A05925C4A04925C4A0392594A96
:104D300002925B4A01920093544B564A5949F868D3
:104D400020F044FC0346FB778FE04A4B1B68494A3E
:104D500012684849096848480068109047480F9011
:104D600046480E9046480D9046480C9046480B9099
:104D70000A91464909914C4908914C49079106927C
:104D8000424A05924A4A0492444A0392474A02928E
:104D9000434A019200933D4B444A4249F86820F04F
:104DA00015FC0346FB7760E0324B1B68314A126802
:104DB0003049096830480068109030480F902F48FB
:104DC0000E902F480D902F480C902F480B900A9171
:104DD0002E490991374908913749079106922B4A84
:104DE0000592364A04922D4A0392334A02922C4A83
:104DF00001920093254B304A2A49F86820F0E6FBDF
:104E00000346FB7731E01B4B1B681A4A12681949AD
:104E1000096819480068109018480F9017480E90BC
:104E200017480D9017480C9017480B900A91174996
:104E3000099123490891234907910692134A059243
:104E4000214A0492154A03921E4A0292144A019280
:104E500000930E4B1B4A1349F86820F0B7FB03463A
:104E6000FB7702E04FF0FF33FFE718462437BD46DB
:104E7000F0BD00BF9C0B0020A00B002058040308CD
:104E80005C0403086C04030880040308DC030308C3
:104E90000405030814040308080503089004030824
:104EA000E8040308603603082C0503081C04030803
:104EB00030050308500503082C04030854050308B3
:104EC000800503083C0403088405030880B588B006
:104ED00002AFF860B96011461A460B46FB711346E3
:104EE000BB7100237B61FB79012B02D0022B03D025
:104EF00005E0134B7B6102E0124B7B6100BF97F82A
:104F00002030002B0BD0BB790F4A019200937B69B4
:104F10000E4AB968F86820F0F1F903460BE0BB7956
:104F20000B4A019200937B69084AB968F86820F03F
:104F3000E5F9034600BF18461837BD4680BD00BFDF
:104F4000D4030308F4030308900503080838030892
:104F50009405030880B588B004AFF860B9601146C5
:104F60001A460B46FB711346BB71FB79022B0ED11F
:104F7000094B1B68BA790292084A01920093084BC8
:104F8000084AB968F86820F0B9F90346FFE71846FF
:104F90001037BD4680BD00BF9C0B0020F403030802
:104FA000DC0303089805030880B588B004AFF860F7
:104FB000B96011461A460B46FB711346BB71FB687C
:104FC00000221A70FB79012B02D0022B0FD01DE0BA
:104FD000114B1B68BA790292104A01920093104B50
:104FE000104AB968F86820F089F9034610E00A4BC6
:104FF0001B68BA7902920C4A01920093084B094A45
:10500000B968F86820F07AF9034601E04FF0FF3301
:1050100018461037BD4680BD9C0B0020D403030802
:10502000DC030308A8050308F4030308B0B588B03F
:1050300000AFF860B9607A60BB68122B4BD12D4984
:105040000120FDF783F81CF0A7FAC7E906012A4BF7
:105050001B68012B0ADD294B1B222949022016F06F
:105060006DF8D7E90623274816F0B8F8D7E90623E4
:1050700024490120FDF76AF87B68D3E90023C7E9DA
:1050800004231DF093FDD7E90423141A63EB0105F3
:105090004FF47A724FF0000320462946FBF75CFE7E
:1050A00002460B461849C1E90023134B1B68012B2C
:1050B0000ADD124B21221249022016F03FF8D7E9EF
:1050C0000423124816F08AF8D7E904231049012076
:1050D000FDF73CF809E0BB68092B06D10D49032018
:1050E000FDF734F80C4B00221A6000BF2037BD4694
:1050F000B0BD00BFCC050308980200201838030893
:10510000F005030810060308A80B00204406030856
:10511000680603088C060308B00B002080B584B035
:1051200000AF78607B68FB600C4B1B68002B08D1DC
:1051300000230B4A0021F8681CF0C6FC0346074A0E
:105140001360064B1B68002B04D0044B1B681846E9
:105150001CF02EFC00BF1037BD4680BDB00B0020F8
:105160002D50000880B588B004AF78601149012047
:10517000FCF7ECFF7B68FB60FB6802930E4B01932E
:105180000023009344F620624FF00003F86818F003
:105190006FFDFB680293084B019301230093074ABC
:1051A0004FF00003F86818F063FD00BF1037BD46EC
:1051B00080BD00BFA80603081D510008C07A10007A
:1051C00080B584B000AF786039607B683A6802FBD4
:1051D00003F3184607F0AAF9F860FB68002B08D023
:1051E0003B687A6802FB03F31A460021F86820F056
:1051F000AFFDFB6818461037BD4680BDF0B58DB0D9
:1052000006AF78607B687B610023002223497869C0
:1052100018F0FEFB386140F26713FB600121F8686B
:10522000FFF7CEFF03461E4A13601D4B1B68002B81
:105230002FD01C4B1E683B696D4603F108040FCC50
:105240000FC523682B60184B184A282130461BF0E5
:1052500091FF134B1868134B1A68154B1B68019389
:10526000144B00931346144AF96820F047F83B6941
:10527000002B08D040F227120F4938691BF08CFE32
:10528000386918F05DFB064B1B68184607F01CFADE
:1052900000E000BF1C37BD46F0BD00BF1C3803084E
:1052A000B80B0020BC0B00205B130208C4060308E7
:1052B000B40B0020C8060308D439030880B584B0B5
:1052C00000AF78600B46FB707B68002B32D0FB7818
:1052D000002B2FD0194B1B68002B04D0174B1B68D9
:1052E000184607F0F1F9FB785B00013301211846FD
:1052F000FFF766FF0346114A1360104B1B68002B33
:1053000017D00023FB600FE00C4B1A68FB685B00B2
:10531000D0187A68FB6813441B781A46084920F0B5
:1053200055F9FB680133FB60FB78FA689A42EBD3CE
:1053300000E000BF1037BD4680BD00BFB40B0020A9
:10534000D006030880B58AB006AF7860396007F1EF
:105350000803174918461CF0F5FB39680023009331
:1053600007F108030CCB03C91CF0BFFC0346002B5C
:1053700012D0104B1B68104A1268049203930F4B13
:1053800002930F4B01930F4B00930F4B0F4AC82111
:10539000786812F02BFF06E00D4B0C4A4FF4C871F1
:1053A000786812F023FF00BF1037BD4680BD00BFF4
:1053B000D8060308B40B0020BC0B0020E00603084D
:1053C000F40603080407030838380308DC0603085A
:1053D0001007030880B58AB002AFF860B9607A6040
:1053E000BB680B2B18D17B68FB6107F114030C49D8
:1053F00018461CF0A7FBF9690023009307F114037A
:105400000CCB083103C91CF070FC0346002B03D001
:10541000F969F868FFF796FF00BF2037BD4680BDE9
:105420006807030880B586B004AF786039601A4A0F
:105430007B681360194A3B68136001212820FFF73D
:10544000BFFE0346164A1360154B1B68002B1ED087
:10545000124B1B6806211846FFF730FF0E4B1968E8
:105460000D4B1B6802930F4B01930323009347F2EC
:1054700030524FF00003084618F0FAFB064B18684C
:10548000064B1B68084A094914F032FE00E000BFD1
:105490000837BD4680BD00BFC00B0020C40B0020F4
:1054A000BC0B0020FD510008D553000880070308FD
:1054B00080B400AF00BFBD465DF8047B70470000BC
:1054C00080B485B000AFF860B9607A603B60FB687B
:1054D000002B03D00E4AFB68D36002E00C4B0D4A50
:1054E000DA60BB68002B03D0094ABB68136102E095
:1054F000074B084A1A61064A7B685360044A3B68B6
:10550000936000BF1437BD465DF8047B704700BF51
:10551000C80B0020B154000880B500AF00F0D2F8ED
:10552000662000F08DFA992000F08AFA00F0D4F895
:1055300000BF80BD80B500AF642000F0FBFAFFF72C
:10554000EBFF642000F0F6FA642000F0F3FA00BFED
:1055500080BD000090B585B000AF7860FFF7EAFF2E
:1055600000F018FAF860FB684F4A934276D0FB6867
:105570004D4A9342C0F08880FB684C4A934200F247
:105580008380FB684A4A93427ED3FA68494B1344AE
:10559000032B79D801A252F823F000BFAD550008C3
:1055A000D95500080556000831560008424B404ABC
:1055B0001A60414B01229A803F4B0122DA803E4B18
:1055C0004FF480521A813C4B4FF480725A813A4B0F
:1055D0004FF400729A815BE0374B384A1A60364BC1
:1055E00001229A80344B0122DA80334B4FF48052EF
:1055F0001A81314B4FF480725A812F4B4FF48062E5
:105600009A8145E02C4B2E4A1A602B4B01229A803E
:10561000294B0122DA80284B4FF480521A81264B05
:105620004FF480725A81244B4FF400629A812FE02C
:10563000214B1E4A1A60204B01229A801E4B0122E8
:10564000DA801D4B4FF480521A811B4B4FF480724D
:105650005A81194B4FF480529A8119E0164B124A25
:105660001A60154B01229A80134B0122DA80124BEB
:105670004FF480521A81104B4FF480725A810E4BB6
:105680004FF480629A8103E00B4B00221A6000BF46
:105690007B68094A1C4613460FCB84E80F007868E4
:1056A0001437BD4690BD00BF1620C2001840EF0061
:1056B0001540EF00EBBF10FFDC0B00201640EF00A1
:1056C0001740EF0080B500AF024BDB68984700BF82
:1056D00080BD00BFC80B002080B500AF024B1B6926
:1056E000984700BF80BD00BFC80B002080B582B0C6
:1056F00000AF786000F0B4F9FFF7E4FF202000F07D
:105700009FF97B681B0CDBB2184600F099F97B68A7
:105710001B0ADBB2184600F093F97B68DBB218462F
:1057200000F08EF9FFF7D8FF00F0A5F900BF0837A9
:10573000BD4680BD80B584B000AFF860B960134647
:10574000FB8000F08DF9FFF7BDFF022000F078F933
:10575000BB681B0CDBB2184600F072F9BB681B0A71
:10576000DBB2184600F06CF9BB68DBB2184600F0FB
:1057700067F907E0FB681B78184600F061F9FB68E1
:105780000133FB60FB885A1EFA80002BF2D1FFF731
:10579000A3FF00F070F900BF1037BD4680BD80B593
:1057A00086B000AFF860B9601346FB800023FB753C
:1057B0000023BB7500237B7500233B750023FB741E
:1057C000BB687B757B7D5B423B75FB881B0A9BB28C
:1057D000FB75FB88BB757B7D002B24D1FB7D002BEB
:1057E00014D1FB881A46B968F868FFF7A3FF7BE07D
:1057F0004FF48072B968F868FFF79CFFBB6803F547
:105800008073BB60FB6803F58073FB60FB7D5A1EF1
:10581000FA75002BECD1BB7D9BB21A46B968F868CB
:10582000FFF788FF60E0FB7D002B25D1BA7D3B7D33
:105830009A421AD9BA7D3B7DD31AFB743B7D9BB249
:105840001A46B968F868FFF775FF3B7DBA681344DC
:10585000BB603B7DFA681344FB60FB7C9BB21A463D
:10586000B968F868FFF766FF3EE0FB881A46B9683A
:10587000F868FFF75FFF37E03B7D9BB2FA88D31AE9
:10588000FB80FB881B0A9BB2FB75FB88BB753B7DCD
:105890009BB21A46B968F868FFF74CFF3B7DBA68BF
:1058A0001344BB603B7DFA681344FB600DE04FF48A
:1058B0008072B968F868FFF73DFFBB6803F5807335
:1058C000BB60FB6803F58073FB60FB7D5A1EFA75B5
:1058D000002BECD1BB7D002B06D0BB7D9BB21A46C2
:1058E000B968F868FFF726FF00BF1837BD4680BDCE
:1058F00080B584B000AFF860B9601346FB80FFF755
:10590000E1FEFB88102B1CD90B2000F099F8BB6836
:105910001B0CDBB2184600F093F8BB681B0ADBB225
:10592000184600F08DF8BB68DBB2184600F088F826
:10593000002000F085F8FB881946F86800F06EF842
:1059400022E0032000F07CF8BB681B0CDBB2184699
:1059500000F076F8BB681B0ADBB2184600F070F85E
:10596000BB68DBB2184600F06BF808E000F046F8C0
:1059700003461A46FB681A70FB680133FB60FB881C
:105980005A1EFA80002BF1D1FFF7A6FE00BF103798
:10599000BD4680BD80B584B000AF0023FB6000230E
:1059A000BB6000237B6000233B60FFF78BFEFFF7AB
:1059B00093FEFFF787FEFFF78FFEFFF783FE9F2022
:1059C00000F03EF800F01AF80346BB6000F016F84D
:1059D00003467B6000F012F803463B60FFF77CFE55
:1059E000BB681A047B681B0213433A681343FB60CD
:1059F000FB6818461037BD4680BD000080B582B0F8
:105A000000AF054B5B68FA1D012110469847FB79F2
:105A100018460837BD4680BDC80B002080B582B04F
:105A200000AF78600B467B80044B5B687A88114638
:105A30007868984700BF0837BD4680BDC80B002076
:105A400080B582B000AF0346FB71044B9B68FA79C6
:105A50001046984700BF0837BD4680BDC80B0020E0
:105A600080B500AFFFF72EFE0620FFF7E9FFFFF736
:105A700033FE00BF80BD80B582B000AF0023FB7154
:105A8000FFF720FE0520FFF7DBFF0520FFF7D8FF1B
:105A9000FFF7B4FF0346FB71FB7903F00103002B12
:105AA000F3D1FFF719FE00BF0837BD4680BD0000E7
:105AB00080B500AF0E4B1B680D4A43F400731360B2
:105AC0000B4B1B680A4A43F480631360084B1B6846
:105AD000074A43F480731360032000F013F90F208A
