:020000040801F1
:1000000000000220152B0108292A01082B2A0108CB
:100010002D2A01082F2A0108312A010800000000BA
:10002000000000000000000000000000E1BB01082B
:10003000332A01080000000081BC0108459A01082C
:10004000652B0108652B0108652B0108652B01084C
:10005000652B0108652B0108652B0108652B01083C
:10006000652B0108652B0108652B0108652B01082C
:10007000652B0108652B0108652B0108652B01081C
:10008000652B0108652B0108652B010800000000A5
:10009000000000000000000000000000652B0108C7
:1000A000352A0108652B0108652B0108652B01081D
:1000B000652B0108652B0108652B0108652B0108DC
:1000C000652B0108652B0108652B0108652B0108CC
:1000D000652B0108652B0108652B01080000000055
:1000E000652B0108652B0108652B01080000000045
:1000F000000000000000000000000000652B010867
:1001000000000000652B0108652B0108652B010824
:1001100000000000000000000000000000000000DF
:10012000652B0108652B0108652B0108652B01086B
:10013000652B010800000000000000000000000026
:10014000000000000000000000000000652B010816
:10015000652B0108652B0108652B0108652B01083B
:10016000652B0108652B010800000000000000005D
:10017000000000000000000000000000000000007F
:1001800000000000652B01080000000000000000D6
:08019000652B0108652B010835
:1001A00010B5054C237833B9044B13B10448AFF3B1
:1001B00000800123237010BDA00800200000000073
:1001C000B877030808B5034B1BB103490348AFF3E5
:1001D000008008BD00000000A4080020B8770308D4
:1001E00010F8012B11F8013B012A28BF9A42F7D0E1
:1001F000D01A70470000000000000000000000005E
:1002000001F0FF01102A2BDB10F0070F08D010F8C7
:10021000013B013A8B422DD010F0070F42B3F6D1CB
:10022000F0B441EA012141EA014122F007047FF0E4
:1002300000070023F0E80256083C85EA010586EA3B
:10024000010685FA47F5A3FA87F586FA47F6A5FA77
:1002500087F68EB9EED1F0BC01F0FF0102F0070283
:1002600032B110F8013B013A83EA010313B1F8D12E
:100270000020704701387047002D06BF354603380F
:10028000073815F0010F07D1013015F4807F02BF48
:10029000013015F4C03F0130F0BC0138704700BF99
:1002A000034613F8012B002AFBD1181A01387047B6
:1002B00081F0004102E000BF83F0004330B54FEA17
:1002C00041044FEA430594EA050F08BF90EA020F84
:1002D0001FBF54EA000C55EA020C7FEA645C7FEA17
:1002E000655C00F0E2804FEA5454D4EB5555B8BF3A
:1002F0006D420CDD2C4480EA020281EA030382EAAB
:10030000000083EA010180EA020281EA0303362D3C
:1003100088BF30BD11F0004F4FEA01314FF4801C0F
:100320004CEA113102D0404261EB410113F0004F21
:100330004FEA03334CEA133302D0524263EB4303D8
:1003400094EA050F00F0A780A4F10104D5F1200E76
:100350000DDB02FA0EFC22FA05F2801841F10001D1
:1003600003FA0EF2801843FA05F359410EE0A5F1A5
:1003700020050EF1200E012A03FA0EFC28BF4CF0D6
:10038000020C43FA05F3C01851EBE37101F000458C
:1003900007D54FF0000EDCF1000C7EEB00006EEB99
:1003A0000101B1F5801F1BD3B1F5001F0CD3490823
:1003B0005FEA30004FEA3C0C04F101044FEA44527A
:1003C00012F5800F80F09A80BCF1004F08BF5FEA01
:1003D000500C50F1000041EB045141EA050130BDE1
:1003E0005FEA4C0C404141EB0101013C28BFB1F5F3
:1003F000801FE9D291F0000F04BF01460020B1FA3E
:1004000081F308BF2033A3F10B03B3F120020CDA10
:100410000C3208DD02F1140CC2F10C0201FA0CF0EE
:1004200021FA02F10CE002F11402D8BFC2F1200C53
:1004300001FA02F120FA0CFCDCBF41EA0C01904009
:10044000E41AA2BF01EB0451294330BD6FEA040452
:100450001F3C1CDA0C340EDC04F11404C4F120023D
:1004600020FA04F001FA02F340EA030021FA04F34F
:1004700045EA030130BDC4F10C04C4F1200220FAA6
:1004800002F001FA04F340EA0300294630BD21FAE4
:1004900004F0294630BD94F0000F83F4801306BFAA
:1004A00081F480110134013D4EE77FEA645C18BF9E
:1004B0007FEA655C29D094EA050F08BF90EA020F35
:1004C00005D054EA000C04BF1946104630BD91EA2D
:1004D000030F1EBF0021002030BD5FEA545C05D130
:1004E0004000494128BF41F0004130BD14F580046F
:1004F0003CBF01F5801130BD01F0004545F0FE41E3
:1005000041F470014FF0000030BD7FEA645C1ABF17
:10051000194610467FEA655C1CBF0B46024650EA4E
:10052000013406BF52EA033591EA030F41F400217A
:1005300030BD00BF90F0000F04BF0021704730B500
:100540004FF4806404F132044FF000054FF00001D5
:1005500050E700BF90F0000F04BF0021704730B596
:100560004FF4806404F1320410F0004548BF40426B
:100570004FF000013EE700BF42004FEAE2014FEAC0
:1005800031014FEA02701FBF12F07F4393F07F4F9B
:1005900081F06051704732F07F4208BF704793F09E
:1005A0007F4F04BF41F40021704730B54FF46074B1
:1005B00001F0004521F000411CE700BF50EA0102B4
:1005C00008BF704730B54FF000050AE050EA01025D
:1005D00008BF704730B511F0004502D5404261EBCD
:1005E00041014FF4806404F132045FEA915C3FF40E
:1005F000D8AE4FF003025FEADC0C18BF03325FEAAB
:10060000DC0C18BF033202EBDC02C2F1200300FA5B
:1006100003FC20FA02F001FA03FE40EA0E0021FA80
:1006200002F11444BDE600BF70B54FF0FF0C4CF46E
:10063000E06C1CEA11541DBF1CEA135594EA0C0F20
:1006400095EA0C0F00F0DEF82C4481EA030621EA5B
:100650004C5123EA4C5350EA013518BF52EA033596
:1006600041F4801143F4801338D0A0FB02CE4FF048
:100670000005E1FB02E506F00042E0FB03E54FF078
:100680000006E1FB03569CF0000F18BF4EF0010E70
:10069000A4F1FF04B6F5007F64F5407404D25FEA6C
:1006A0004E0E6D4146EB060642EAC62141EA55511F
:1006B0004FEAC52040EA5E504FEACE2EB4F1FD0C61
:1006C00088BFBCF5E06F1ED8BEF1004F08BF5FEADF
:1006D000500E50F1000041EB045170BD06F0004691
:1006E00046EA010140EA020081EA0301B4EB5C043E
:1006F000C2BFD4EB0C0541EA045170BD41F4801136
:100700004FF0000E013C00F3AB8014F1360FDEBF5A
:10071000002001F0004170BDC4F10004203C35DA36
:100720000C341BDC04F11404C4F1200500FA05F3B9
:1007300020FA04F001FA05F240EA020001F000425A
:1007400021F0004110EBD37021FA04F642EB0601D0
:100750005EEA430E08BF20EAD37070BDC4F10C04FA
:10076000C4F1200500FA04F320FA05F001FA04F2BE
:1007700040EA020001F0004110EBD37041F10001AA
:100780005EEA430E08BF20EAD37070BDC4F12005B5
:1007900000FA05F24EEA020E20FA04F301FA05F21D
:1007A00043EA020321FA04F001F0004121FA04F2C5
:1007B00020EA020000EBD3705EEA430E08BF20EA95
:1007C000D37070BD94F0000F0FD101F000464000CF
:1007D00041EB010111F4801F08BF013CF7D041EA51
:1007E000060195F0000F18BF704703F00046520055
:1007F00043EB030313F4801F08BF013DF7D043EA26
:100800000603704794EA0C0F0CEA135518BF95EADB
:100810000C0F0CD050EA410618BF52EA4306D1D162
:1008200081EA030101F000414FF0000070BD50EA81
:10083000410606BF1046194652EA430619D094EA0B
:100840000C0F02D150EA013613D195EA0C0F05D1F5
:1008500052EA03361CBF104619460AD181EA030149
:1008600001F0004141F0FE4141F470014FF0000001
:1008700070BD41F0FE4141F4780170BD70B54FF09C
:10088000FF0C4CF4E06C1CEA11541DBF1CEA13551C
:1008900094EA0C0F95EA0C0F00F0A7F8A4EB0504FE
:1008A00081EA030E52EA03354FEA013100F08880F5
:1008B0004FEA03334FF0805545EA131343EA1263BE
:1008C0004FEA022245EA111545EA10654FEA002673
:1008D0000EF000419D4208BF964244F1FD0404F52C
:1008E000407402D25B084FEA3202B61A65EB030588
:1008F0005B084FEA32024FF480104FF4002CB6EB45
:10090000020E75EB030E22BFB61A754640EA0C00C4
:100910005B084FEA3202B6EB020E75EB030E22BF04
:10092000B61A754640EA5C005B084FEA3202B6EB45
:10093000020E75EB030E22BFB61A754640EA9C0004
:100940005B084FEA3202B6EB020E75EB030E22BFD4
:10095000B61A754640EADC0055EA060E18D04FEA92
:10096000051545EA16754FEA06164FEAC30343EA32
:1009700052734FEAC2025FEA1C1CC0D111F4801FFF
:100980000BD141EA00014FF000004FF0004CB6E7F8
:1009900011F4801F04BF01430020B4F1FD0C88BF97
:1009A000BCF5E06F3FF6AFAEB5EB030C04BFB6EBA2
:1009B000020C5FEA500C50F1000041EB045170BD95
:1009C0000EF0004E4EEA113114EB5C04C2BFD4EBC2
:1009D0000C0541EA045170BD41F480114FF0000E46
:1009E000013C90E645EA060E8DE60CEA135594EAC2
:1009F0000C0F08BF95EA0C0F3FF43BAF94EA0C0FC5
:100A00000AD150EA01347FF434AF95EA0C0F7FF439
:100A100025AF104619462CE795EA0C0F06D152EA8D
:100A200003353FF4FDAE1046194622E750EA410671
:100A300018BF52EA43067FF4C5AE50EA41047FF482
:100A40000DAF52EA43057FF4EBAE12E74FF0FF3CE7
:100A500006E000BF4FF0010C02E000BF4FF0010CB8
:100A60004DF804CD4FEA410C7FEA6C5C4FEA430C31
:100A700018BF7FEA6C5C1BD001B050EA410C0CBF80
:100A800052EA430C91EA030F02BF90EA020F0020E2
:100A9000704710F1000F91EA030F58BF994208BF49
:100AA00090422CBFD8176FEAE37040F00100704706
:100AB0004FEA410C7FEA6C5C02D150EA013C07D15D
:100AC0004FEA430C7FEA6C5CD6D152EA033CD3D0A8
:100AD0005DF8040B704700BF8446104662468C46A2
:100AE0001946634600E000BF01B5FFF7B7FF0028D5
:100AF00048BF10F1000F01BD4DF808EDFFF7F4FFFE
:100B00000CBF012000205DF808FB00BF4DF808ED88
:100B1000FFF7EAFF34BF012000205DF808FB00BFAB
:100B20004DF808EDFFF7E0FF94BF012000205DF8CD
:100B300008FB00BF4DF808EDFFF7CEFF94BF012082
:100B400000205DF808FB00BF4DF808EDFFF7C4FF7B
:100B500034BF012000205DF808FB00BF4FEA410CC4
:100B60007FEA6C5C02D150EA013C0AD14FEA430CA7
:100B70007FEA6C5C02D152EA033C02D14FF00000E4
:100B800070474FF0010070474FEA410212F5001222
:100B900015D211D56FF47873B3EB625212D94FEAC4
:100BA000C12343F0004343EA505311F0004F23FAAE
:100BB00002F018BF404270474FF00000704750EA03
:100BC000013005D111F0004008BF6FF000407047C0
:100BD0004FF00000704700BF4A0011D212F500121A
:100BE00011D20DD56FF47873B3EB62520ED44FEA85
:100BF000C12343F0004343EA505323FA02F0704705
:100C00004FF00000704750EA013002D14FF0FF3042
:100C100070474FF0000070474FEA4102B2F1E043E5
:100C200024BFB3F5001CDCF1FE5C0DD901F0004CD3
:100C30004FEAC0024CEA5070B2F1004F40EB830023
:100C400008BF20F00100704711F0804F21D113F14F
:100C50003872BCBF01F00040704741F480114FEA88
:100C60005252C2F11802C2F1200C10FA0CF320FA11
:100C700002F018BF40F001004FEAC1234FEAD3232E
:100C800003FA0CFC40EA0C0023FA02F34FEA430398
:100C9000CCE77FEA625307D150EA01331EBF4FF021
:100CA000FE4040F44000704701F0004040F0FE403C
:100CB00040F40000704700BF7BB972B90029BEBF85
:100CC00000204FF0004106E008BF00281CBF6FF075
:100CD00000414FF0FF3000F01DBAADF1080C6DE996
:100CE00004CE002909DB002B1ADB00F097F8DDF8B1
:100CF00004E0DDE9022304B07047404261EB4101AA
:100D0000002B1BDB00F08AF8DDF804E0DDE90223AC
:100D100004B0404261EB4101524263EB4303704730
:100D2000524263EB430300F079F8DDF804E0DDE9BB
:100D3000022304B0404261EB41017047524263EB31
:100D4000430300F06BF8DDF804E0DDE9022304B0B2
:100D5000524263EB4303704753B94AB9002908BFB5
:100D600000281CBF4FF0FF314FF0FF3000F0D2B928
:100D7000ADF1080C6DE904CE00F050F8DDF804E0A8
:100D8000DDE9022304B07047430803F05533C01A6D
:100D9000830803F0333300F03330184400EB1010B5
:100DA00000F00F3000EB002000EB0040000E704719
:100DB00038B50022002304460D46FFF7A7FE28B9E8
:100DC00020462946BDE8384000F00AB8204605F123
:100DD000004100F005F8404261EB410138BD00BF21
:100DE000D0B50C4B002206460F46FFF71DFCFFF75F
:100DF000F3FE0446FFF79EFB074B0022FFF714FCAF
:100E000002460B4630463946FFF756FAFFF7E4FE36
:100E10002146D0BD0000F03D0000F0412DE9F04733
:100E2000089D8E4604468846002B4AD18A421746C2
:100E300062D9B2FA82F64EB1C6F1200301FA06F881
:100E400020FA03F3B74043EA0808B4404FEA174ECC
:100E50001FFA87FCB8FBFEF1230C0EFB118843EA56
:100E6000084301FB0CF29A4209D9FB1801F1FF304B
:100E700080F0EA809A4240F2E78002393B449A1AB5
:100E8000A3B2B2FBFEF00EFB102243EA024300FBCA
:100E90000CFC9C4509D9FB1800F1FF3280F0D6808C
:100EA0009C4540F2D3803B44023840EA0140A3EB2A
:100EB0000C0300211DB1F3400022C5E90032BDE85A
:100EC000F0878B4205D90DB1C5E900010021084624
:100ED000F5E7B3FA83F1002946D1734502D3824284
:100EE00000F20581841A6EEB030201209046002D6A
:100EF000E5D0C5E90048E2E7002A00F09080B2FAA8
:100F000082F6002E40F0A4808A1A030C4FEA174E96
:100F100080B2BCB20121B2FBFEFC0EFB1C2243EAF4
:100F2000024304FB0CF29A4207D9FB180CF1FF387C
:100F300002D29A4200F2E080C4469B1AB3FBFEF252
:100F40000EFB123340EA034302FB04F49C4207D930
:100F5000FB1802F1FF3002D29C4200F2CA80024626
:100F60001B1B42EA0C40A5E7C1F120068B4022FA88
:100F700006F71F430EFA01F420FA06F32EFA06FED6
:100F80004FEA1749234300FA01F81FFA87FCBEFB1A
:100F9000F9F01C0C09FB10EE44EA0E4400FB0CFEB9
:100FA000A64502FA01F209D93C1900F1FF3A80F096
:100FB0009C80A64540F2998002383C44A4EB0E0484
:100FC0001FFA83FEB4FBF9F309FB13444EEA044411
:100FD00003FB0CFCA44508D93C1903F1FF3E80F04B
:100FE0008280A4457FD9023B3C4443EA0040A4EB05
:100FF0000C04A0FB02EC64457346E14662D35FD06B
:101000005DB1B8EB030264EB090404FA06F622FAB8
:1010100001F31E43CC40C5E9006400214FE7B1FB5A
:10102000F2FC010C41EA0E4180B240EA01423B462B
:1010300038463C46B846BE462026B1FBF7F1A2EB47
:10104000080241EA0C4166E7014618E710462CE722
:10105000C6F120022EFA02F3B740B14020FA02F2A4
:101060004FEA174E0A43B3FBFEF8BCB20EFB18332F
:10107000110C41EA034108FB04F9B04089454FEAED
:10108000104380B23ED9791808F1FF3C01D289455E
:101090001FD8A1EB0901B1FBFEF909FB04F80EFB17
:1010A000191192B242EA0142424529D2BA1809F115
:1010B000FF31C4D24245C2D2A9F102013A44BEE78F
:1010C000F0459DD2BEEB02036CEB070C0138E14604
:1010D00096E7A7EB09094944A8F1020CB1FBFEF918
:1010E00009FB04F8DBE773467FE7504666E70846EE
:1010F000FDE63B44023A33E7ACF1020C3B441CE70B
:1011000049469CE7A1EB0901C446B1FBFEF909FB86
:1011100004F8C4E7704700BF00B585B00023009312
:101120000193029303931548154A02604FF440322D
:10113000426083600361037680F82030C362114A05
:101140008262C3600122C26180F83030426105F0E2
:1011500035FF68B912230093012301930023029302
:101160006946064806F05AF828B905B05DF804FB50
:1011700001F016FAEEE701F013FAF6E7BC080020DA
:10118000002001400100000F0268094B9A4200D084
:10119000704782B000230193064B5A6C42F4807270
:1011A0005A645B6C03F480730193019B02B0704737
:1011B000002001400038024010B52DED028B84B0B4
:1011C0001C4B5B8D07EE903AB8EE678A00230093C4
:1011D00001930293039311230093012301930723A7
:1011E00002936946144806F019F828B1BFEE000AC8
:1011F00004B0BDEC028B10BD0F4C204605F00AFF79
:101200000A21204605F0AAFF68B1DFED0C8A0A48E2
:1012100005F084FFF8EE688A88EE280ADFED087A88
:1012200020EE270AE4E7204605F0F4FF08EE900AD6
:10123000EDE700BF007AFF1FBC080020000000009F
:101240003333534010B52DED028B84B0002300934F
:10125000019302930393FFF7AFFFB5EEC00AF1EEDF
:1012600010FA32D4B0EE408A122300930123019386
:1012700007230293002303936946174805F0CEFF26
:1012800010B1BFEE000A22E0134C204605F0C2FE6A
:101290000A21204605F062FF88B1DFED108A0E4872
:1012A00005F03CFFF8EE687A9FED0D7A87EE870A2D
:1012B00020EE080AF1EE007A20EE270A07E0204629
:1012C00005F0A8FF08EE900AE9E7BFEE000A04B0B7
:1012D000BDEC028B10BD00BFBC0800200000000068
:1012E00000F07F4508B500224FF48051014806F018
:1012F0005CFA08BD0004024008B501224FF4805199
:10130000014806F052FA08BD0004024008B5002268
:101310004FF40041014806F048FA08BD00000240C1
:1013200008B501224FF40041014806F03EFA08BD1D
:101330000000024010B58EB04A4B93E803000C90B9
:10134000ADF834100DF1240C03F1080494E8070003
:101350008CE80700143393E803000790ADF82010E1
:1013600004AB94E8070083E8070072E000231A4604
:1013700001A93D48006808F036FD00240EE0002277
:101380000EAB03EB440333F8081C0EAB03EB8403F2
:1013900053F8140C06F009FA0134E4B2022C5ED8BA
:1013A00004F138036B4413F8343C002BE7D00122DE
:1013B0000EAB03EB440333F8081C0EAB03EB8403C2
:1013C00053F8140C06F0F1F9E6E70EAB03EB440218
:1013D00003EB840332F8081C53F8140C06F0DEF912
:1013E00004F138036B4403F8300C0134E4B2022CEE
:1013F000EBD91E4C206808F044FD00231A4602A9D0
:10140000206808F0AEFC002414E00EAB03EB4402AD
:1014100003EB840332F81C1C53F8280C06F0BEF9C9
:10142000B0FA80F0400904F138036B4403F82C0C47
:101430000134E4B2022CE8D90D4C206808F021FDFB
:1014400000231A4603A9206808F08BFC012008F04D
:101450008EFB054B186808F007FD002886D1002494
:10146000C5E700BFD07703081C0900202009002031
:101470002409002084B008B50DF1080C8CE80F0099
:1014800000231A4661460448006808F06AFCBDE87B
:10149000084004B0704700BF1409002070B5BAB00E
:1014A000002339937E4B7F4A7F49804805F02EFA0E
:1014B0007F4980480AF096FF00283EDB7E480AF00C
:1014C0007BFF7E4C20460AF06BFF7D480AF068FFE8
:1014D00020460AF071FF7B480AF06EFF7A480AF056
:1014E0006BFF7A480AF068FF79480AF065FF79488F
:1014F0000AF062FF002239A977480AF0A5FE30B34E
:10150000012175480AF0DEFE0446C62207A90AF04A
:1015100009FF20460AF0FAFE00228DF81C20022363
:1015200007A96E48006808F083FE002239A96C48BC
:101530000AF08AFEC0B1002489E06A4B01221A70C9
:1015400040F6B83008F013FB05F0B8FFB6E7C62246
:10155000002107A81BF0F4F80223002207A95F4826
:10156000006808F065FEE0E740F29A600AF004FDCA
:10157000044690B35C49012000F068FF5B4B18689B
:1015800020609B88A38001AD594E0FCE0FC596E811
:10159000030045F8040B297001AD0FCDC4F880009D
:1015A000C4F88410C4F88820C4F88C302868C4F8C3
:1015B00090002B7984F89430022149480AF082FE89
:1015C000054640F29A6221460AF0B8FE28460AF023
:1015D0009DFE20460AF052FDADE74649032000F08B
:1015E00035FFF6E73C4D28460AF0DAFE0221284690
:1015F0000AF068FE0546002833D0C62207A90AF083
:101600009DFE28460AF082FE00228DF81C2002234F
:1016100007A93248006808F00BFE22E0012008F01C
:10162000A6FA4FF48071344806F0B8F80028F5D0D7
:101630004FF47A7008F09BFA29480AF0B1FE05F0E1
:101640003DFF00E000244FF47A7008F090FA002289
:1016500007A9224B186809F0FEF89DF81C30002BF2
:10166000C0D14FF48071244806F098F80028E9D1E1
:101670000134E4B2204D01220221284606F095F8FB
:10168000642008F074FA00220221284606F08DF842
:10169000082CD8D101220221284606F086F8C0E79E
:1016A000D91C0108FD1C0108211301080D130108B4
:1016B000291D0108151D01084C7A0308547A0308F6
:1016C000607A0308707A03087C7A0308DC940308C4
:1016D000847A03088C7A0308947A03081809002096
:1016E000A87A030840090020E47A03081C7B030859
:1016F000247B0308B87A03080004024008B50129D6
:1017000013D0022919D089B94AB1012A0ED1022376
:10171000002201461148006808F08AFD06E00146F3
:101720000E4B186809F097F800E002B108BD0146B9
:101730000B4B186809F08FF8F8E74AB1012AF5D188
:101740000223002201460748006808F071FDEDE71A
:101750000146054B186809F07EF8E7E718090020F4
:10176000240900201C09002020090020F0B58BB0BE
:101770004FF47A7008F0FBF908F096F8642008F04E
:10178000F6F90021012007F0F3FF002007F0B4FF75
:10179000A94B1C78002C48D1A84D01222946A84805
:1017A00008F03AF801222946A64808F035F804F175
:1017B0000B01C9B2012007F0DBFF01222946A24834
:1017C00008F02AF804F11601C9B2012007F0D0FF91
:1017D0009E4B59680A784B788878CE780F7949798A
:1017E0000391029701960090994905A81AF0B4FD5B
:1017F0000122294605A808F00FF804F12101C9B219
:10180000012007F0B5FF0AF0E9FD014605A81CF02C
:10181000E1FC0122294605A807F0FEFF08F0EEF8DA
:1018200040F6B83008F0A3F9CEE00021012007F01F
:101830009FFF002007F060FF804C01222146854871
:1018400007F0EAFF0A21012007F092FF012221465A
:10185000814807F0E1FF1421012007F089FF0122F0
:1018600021467E4807F0D8FF08F0C8F840F6B830A7
:1018700009F0EAFC14248FE713F1050F08D12821A1
:10188000012007F075FF01226C49754807F0C4FF7D
:101890000021012007F06CFF684C012221467148AD
:1018A00007F0BAFF694B5B689A68130E0193C2F3A5
:1018B00007430093C2F30723D2B26B4905A81AF07D
:1018C0004BFD0122214605A807F0A6FF0B210120B0
:1018D00007F04EFF01222146644807F09DFF0B21CF
:1018E0003D2007F045FF00253D241FE02821012071
:1018F00007F03EFF012251495D4807F08DFFC7E721
:101900002821012007F034FF01224C49594807F0F3
:1019100083FFBDE70122494905A807F07DFF083490
:10192000E4B20B21204607F023FF3546022D0FDCE1
:101930006E1C3246504905A81AF00EFD4F4B5B5DF8
:10194000002BE7D000223D4905A807F065FFE6E738
:101950001621012007F00CFF01223849484807F002
:101960005BFF16213D2007F003FF00253D240BE01F
:101970000122324905A807F04FFF0834E4B21621CE
:10198000204607F0F5FE3546022D10DC6E1C32466F
:10199000394905A81AF0E0FC384B2B44DB78002BC2
:1019A000E6D00022254905A807F036FFE5E708F054
:1019B00025F84FF47A7301227821324806F04AFA6A
:1019C00050BBC82008F0D3F82C4C0022012120463F
:1019D000FFF794FE00220221E01CFFF78FFE00209B
:1019E00007F08AFE284B93F9003013F10C0F87D0D3
:1019F0003FF742AF13F1540F3FF478AF13F1180FD4
:101A00007FF446AF2821012007F0B2FE01220B49E6
:101A10001E4807F001FF3BE71A4806F045F94FF46E
:101A20007A7009F011FC00F019FC4FF47A7009F09B
:101A30000BFC07F039FFBCE7400900201C01002027
:101A4000707B03087C7B0308887B03084409002023
:101A5000947B03083C7B0308507B03085C7B0308F2
:101A6000B47B0308F07B0308F47B0308047C0308C1
:101A7000C07B0308E07B030884C30308040900203B
:101A80000C7C03084C09002041090020D07B03088E
:101A9000F0B5D1B06A4800F0CDFC012000F0D0FCD8
:101AA0006849012000F0D2FC03E04FF4FA7008F01E
:101AB0005EF80AF08DFC0028F7D00AF08FFC024691
:101AC0006149012000F0C2FC604A6149012000F038
:101AD000BDFC44F6206472E000231A4607A95D4865
:101AE000006808F080F902215B480AF0EBFB05462C
:101AF0009DF81D210DF11D010AF020FC574B1870B7
:101B000028460AF003FC60E048A80AF0F5FA4E9B6C
:101B100004934D9B03934C9B02934B9B01934A9BD5
:101B20000093499B489A4E49012000F08FFC4D4B91
:101B30005B689A68130E0193C2F307430093C2F3E4
:101B40000723D2B24849012000F080FC05F038F9A3
:101B5000064605F03BF9054605F03EF907463246D4
:101B60004249012000F072FC2A464149012000F060
:101B70006DFC3A463F49012000F068FC3E4C3A4675
:101B80000221204607F01FF83A460321204607F0BD
:101B90001AF832460421204607F015F8324605218E
:101BA000204607F010F82A460621204607F00BF8D9
:101BB0002A460721204607F006F800240134254B69
:101BC000186808F051F9002886D14FF4FA7007F030
:101BD000CEFF44F620639C42F0D100224FA91E485C
:101BE0000AF032FB4F9A4CF250339A428CD9234C74
:101BF00020460AF0D5FB214617480AF0C5FB2049CC
:101C0000012000F023FC174B59680A784B7888783C
:101C1000CC780D7949790391029501940090194986
:101C2000012000F013FC0AF0D9FB0246064901200E
:101C300000F00CFC054A0649012000F007FC63E7B0
:101C400075140108187C03082C7C0308487C0308E1
:101C50004C7C030814090020647C0308410900201F
:101C6000C07C030844090020547D0308707D0308EC
:101C70008C7D0308A87D0308B0090020747C03084C
:101C8000847C0308987C030808B5064806F0D8F958
:101C90004FF4FA7007F06BFF0121034805F08BFD4C
:101CA000F3E700BFA00900200004024000B587B0A0
:101CB0008DF80F104FF0FF33009301230DF1170241
:101CC0000DF10F01034807F0B4F99DF8170007B0B4
:101CD0005DF804FBD009002000B583B08DF8070043
:101CE0004FF0FF3301220DF10701034807F0BFF861
:101CF00003B05DF804FB00BF280A002008B50A46BF
:101D00004FF0FF330146024807F0BDFA08BD00BF9F
:101D1000280A002008B54FF0FF31024B186807F081
:101D20007FFF08BD0C09002008B5024B186807F0BA
:101D3000A6FF08BD0C09002008B52C4807F025FFB8
:101D40002B4B18602B4807F020FF2B4B18602B4AB9
:101D50000321012007F0BAFF294B1860294A03210B
:101D6000012007F0B3FF284B1860284A0321012007
:101D700007F0ACFF264B1860264AC621012007F069
:101D8000A5FF254B1860254A4FF48171192007F0F3
:101D90009DFF234B1860234A0021234807F08CFE47
:101DA000224B1860224A0021224807F085FE224B70
:101DB0001860224A0021224807F07EFE214B18605D
:101DC000214A0021214807F077FE214B1860214A63
:101DD0000021214807F070FE204B1860204A0021A6
:101DE000204807F069FE204B186008BDC0C60308F4
:101DF00010090020B0C603080C09002030C70308F2
:101E00002409002018C703082009002000C7030880
:101E10001C090020E8C6030818090020D0C60308E2
:101E200014090020FCC70308951E01083C09002086
:101E3000D8C703083513010838090020B4C70308C0
:101E40006D1701083409002090C703089D1401088C
:101E5000300900206CC70308911A01082C090020E2
:101E600048C70308891C01082809002008B500227A
:101E70004FF48071014805F098FC08BD0000024055
:101E800008B501224FF48071014805F08EFC08BDB1
:101E90000000024030B5EBB022AD644B0FCB85E8BB
:101EA0000F0002AC8022002120461AF049FC40239A
:101EB0008DF8083022238DF809305D4B1A7C8DF89F
:101EC0000A209A7C8DF80B201A7D8DF80C201B7E41
:101ED0008DF80D3001238DF827308DF82830554BC3
:101EE0000B930C95544B58AA1A605C6003E04FF4B6
:101EF000FA7007F03CFE0AF06BFA0028F7D058A8F9
:101F000012F046FE4D4B03221A6003F07DF80446A2
:101F10000FE0FFF7ABFF4FF4FA7007F028FEFFF772
:101F2000AFFF4FF4FA6007F022FE02A958A818F09C
:101F300081FABDF84C30002BEBD0062102A803F04B
:101F40008BFD3F4803F06EF83B4B22463D4958A8B5
:101F500016F0A8FC06E0012158A819F005F80120A8
:101F600007F005FE9DF88430032BF4D1324B5B68FB
:101F70009A68130E0193C2F307430093C2F3072339
:101F8000D2B23149012000F061FA0022114626A8A0
:101F9000FFF7B4FB9DF89930EBB12C49012000F01C
:101FA00055FA274B01930DF23D13009347AB0DF10A
:101FB0009A0202A958A803F07DFC58A804F088FAF8
:101FC00002A958A804F050FC58A801F055F909F0EE
:101FD0002DF8054608E01E49012000F037FAECE72D
:101FE000012007F0C4FD254609F020F80446411BF6
:101FF00058A818F0B9FF0B9BDB6802A89847002887
:10200000EED1FFF733FF642007F0B1FDFFF738FF93
:1020100040F6B83007F0ABFD0B9B1B6802A8984751
:1020200041F6583007F0A3FDE5E700BFEC77030861
:10203000007AFF1F28010020440900203C010020F5
:10204000FD160108BC7D0308547D0308D07D0308FC
:10205000E87D03080BB2002B20DD70B582B0064688
:1020600015468B18042B02DD012002B070BD4C1EFA
:10207000A4B20022012101A8FFF740FB0AE004F10D
:1020800008036B4413F8043C0122A1B2304600F06F
:1020900049FF0134A542F2DC0020E6E70120704749
:1020A000F0B583B016460AB2002A43DD05461F4646
:1020B0008B19042B41DC27B3012F39D101398CB2A4
:1020C0000022022101A8FFF719FB27460FE0012299
:1020D000B9B2284600F05AFF01220021284600F03C
:1020E00055FF07F108036B4403F8040C013733195B
:1020F000BB42ECDC0122022101A8FFF7FFFA00201D
:1021000019E04C1EA4B20022022101A8FFF7F6FA42
:102110000AE004F108036B4413F8043C0122A1B265
:10212000284600F0FFFE0134A642F2DC384602E009
:10213000012000E0012003B0F0BD0120FBE70120F9
:1021400070470120704700002DE9F04389B000245A
:102150000394049405940694079400943C4B1A6BE2
:1021600042F080021A631A6B02F080020092009A19
:1021700001941A6B42F001021A631A6B02F0010219
:102180000192019A02941A6B42F002021A631B6BCD
:1021900003F002030293029B2E4E22464FF4F0718D
:1021A000304605F002FB2C4D22460721284605F05B
:1021B000FCFA01224FF48051284605F0F6FA01227C
:1021C0004FF40041304605F0F0FA4FF00709CDF822
:1021D0000C9004944FF00208CDF8148003A9304607
:1021E00005F070F9E0230393012704970594069402
:1021F00003A9304605F066F9CDF80C9004970594D4
:10220000069403A9284605F05DF94FF48053039323
:1022100004970594CDF8188003A9284605F052F9D3
:102220004FF40143039304970594CDF8188003A954
:10223000304605F047F94FF48073039304940594F6
:1022400003A9284605F03EF909B0BDE8F08300BFB8
:1022500000380240000002400004024008B50B486C
:102260000B4B03600B4B436000238360C3604FF450
:102270008042026143618361C361036205F036FC01
:1022800000B908BD00F08CF9FBE700BF4C09002045
:1022900000540040400D030030B589B00023039383
:1022A00004930593069307930268154B9A4201D055
:1022B00009B030BD00250195124C236B43F0020399
:1022C0002363236B03F002030193019BC023039359
:1022D00012230493012305930323069304230793F6
:1022E00003A9094805F0EEF80295236C43F40013A6
:1022F0002364236C03F400130293029BD8E700BF0E
:1023000000540040003802400004024002680A4BBA
:102310009A4200D0704710B5084A136C23F400139A
:102320001364074C4021204605F0B0F98021204677
:1023300005F0ACF910BD00BF005400400038024069
:102340000004024008B50748074B036003234360BD
:1023500040F6FF73836005F047FE00B908BD00F04A
:102360001FF9FBE7A00900200030004084B08DE891
:102370000F0004B0704738B501FB00F4204609F0A7
:10238000FBFD054618B1224600211AF0D9F928466E
:1023900038BD000010B590B0254C00220BA9204696
:1023A00006F0CDFB00220AA9204606F0EEFB24220F
:1023B000002101A81AF0C4F99DF82B30643306936C
:1023C0009DF82930013B05939DF82A3004939DF830
:1023D0002C3003939DF82D3002939DF82E300193FD
:1023E00001A81AF0ADFC0C9A4FF47A7303FB02F2C9
:1023F0000D9BB2FBF3F2C2F5797203324FEA411C36
:102400004CEAD06C43011B1A6CEB010C4FEA8C0CAC
:102410004CEA937C9B001B1841EB0C01C90041EA7C
:102420005371DB00D01841F1000110B010BD00BFA6
:10243000B009002008B1014A106070470000002078
:10244000014B1870704700BFAC0900200EB4F0B506
:10245000ADF51C7D444B1B78834205D90DF51C7DE1
:10246000BDE8F04003B07047044601214FF480708E
:10247000FFF781FF05460028F0D04FF4817200215C
:102480005BA81AF05DF98DF86C41FFF783FFFEF74A
:102490009DF806460F460022344BFEF7EFF9FEF793
:1024A00087FCCDE958014FA958A81AF085FA4FAB1F
:1024B0002F4A40213FA81BF01FFB044630463946F7
:1024C000FEF762FB2B4A82FB0032C317C3EBA21359
:1024D0004FF47A7202FB1303274AC4F140013FA86C
:1024E000204419F003FF0444631C20223FA90A552D
:1024F0000022CA54A2AB5A930DF26D16A19AFD2187
:1025000030461AF08FF804469DF86C2101961B4B5B
:1025100053F8223000933FAB194A4FF4807128469C
:1025200019F0E4FEF52C1BD82846FDF7B9FE8DF80E
:102530006D024FF4807229460DF26D101AF047F9C2
:10254000104B1E6846B15BACF2225FA968461BF0D7
:1025500073FE94E80F00B047284609F08FFD7DE731
:10256000F6238DF86D32E4E7AC09002000408F407F
:10257000947E0308D34D6210A87E03080400002057
:10258000B07E03080000002008B50268034B9A42A1
:1025900000D008BD04F052FCFBE700BF0040014042
:1025A00072B6FEE700B595B03022002108A81AF0F7
:1025B000C7F80023039304930593069307930193AD
:1025C000204A116C41F080511164126C02F080526B
:1025D0000192019A02931C4B1A6842F440421A601D
:1025E0001B6803F440430293029B092308934FF4B2
:1025F0008033099301230D9302220E924FF480033E
:102600000F9304231093642111911292139308A83D
:1026100005F01CFD88B90F230393022304930023C4
:1026200005934FF4805206920793032103A805F007
:1026300077FF20B915B05DF804FBFFF7B1FFFFF796
:10264000AFFF00BF003802400070004000B583B00B
:1026500072B62F4B2F4A9A6062B62F4B019302E05D
:10266000019B013B0193019B002BF9DC04F0CCFBA7
:10267000FFF798FFFFF768FD00F0E8F8FFF7EEFDC1
:1026800000F0C2F8FFF75EFEFEF746FD00F048F8E6
:10269000224D0221284606F09BFA044603212846D3
:1026A00006F096FA84421ED01C4D0421284606F0FE
:1026B0008FFA04460521284606F08AFA844219D08A
:1026C000164D0621284606F083FA044607212846BF
:1026D00006F07EFA844214D007F0C0F9FFF72CFB15
:1026E00007F0CEF9FEE70221284606F071FA04F061
:1026F00085FBD9E70421284606F06AFA04F072FB4C
:10270000DEE70621284606F063FA04F071FBE3E7F2
:1027100000ED00E00000010840420F00B009002079
:1027200000B587B0002301930293039304930593AC
:1027300000932048204A026043607F228260FF228B
:10274000C26003614361836106F0E8F840BB012188
:10275000184806F03DFA43F2F22398421DD00023B8
:102760008DF804308DF805308DF80630049305930C
:10277000012201A90F4806F02BF9A0B901228DF81A
:1027800000208DF801208DF8022000238DF8033001
:102790006946084806F07CF940B907B05DF804FBCB
:1027A000FFF7FEFED3E7FFF7FBFEE7E7FFF7F8FED4
:1027B000F3E700BFB00900200028004000B587B053
:1027C00000230093019302930393049305930268FB
:1027D0000B4B9A4202D007B05DF804FB0223009332
:1027E0004FF400730493684605F08EFF20B9054B43
:1027F0000122C3F83C2EEEE7FFF7D2FEF7E700BF59
:10280000002800400000474208B50E480E4B036008
:102810004FF48273436000238360C36003614361AC
:102820004FF4007282610822C261036243628362D4
:102830000A23C36206F0BCFA00B908BDFFF7B0FE78
:10284000FBE700BF280A00200030014008B50D4812
:102850000D4B03604FF48273436000238360C360B9
:10286000036143614FF400728261C361036243629A
:1028700083620A23C36206F09BFA00B908BDFFF722
:102880008FFEFBE7D00900200038004000B58BB078
:102890000023059306930793089309930368284A36
:1028A000934205D0274A934225D00BB05DF804FB34
:1028B00000210191244B5A6C42F480525A645A6CA4
:1028C00002F480520192019A02911A6B42F00202C4
:1028D0001A631B6B03F002030293029B38230593D8
:1028E00002230693032308930523099305A9174898
:1028F00004F0E8FDD9E700210391134B1A6C42F470
:1029000080421A641A6C02F480420392039A049182
:102910001A6B42F002021A631B6B03F0020304936A
:10292000049B4FF46043059302230693032308930B
:102930000523099305A9054804F0C4FDB5E700BFC8
:1029400000300140003800400038024000040240DE
:1029500000B583B0002200920D4B596C41F48041C8
:102960005964596C01F48041009100990192196CED
:1029700041F0805119641B6C03F080530193019B5B
:102980000F216FF0010004F085FD03B05DF804FB3A
:102990000038024030B589B00546002401941D4B33
:1029A0005A6C42F480325A645B6C03F480330193B6
:1029B000019B02A903A805F089FE05F077FE164ADF
:1029C000A2FB00239B0C013B1448154A026040F215
:1029D000E732C260436004618460846106F05EFE99
:1029E000044610B1204609B030BD0C4806F010FD79
:1029F00004460028F6D1182004F05CFD0F2D01D903
:102A00000124EFE700222946182004F043FD054B7E
:102A10001D60E7E70038024083DE1B43800A002088
:102A20000040014018010020FEE7FEE7FEE7FEE758
:102A3000FEE7704708B5024806F02AFD08BD00BF52
:102A4000800A00200120704708B51BF0BDFB16234B
:102A500003604FF0FF3008BD08B54FF0FF31FFF7BE
:102A6000F3FFFEE770B50C461646002506E0AFF30F
:102A70000080214601F8010B01350C46B542F6DB1A
:102A8000304670BD70B50C461646002504E014F8BB
:102A9000010BAFF300800135B542F8DB304670BD65
:102AA0004FF0FF3070474FF400534B6000207047E9
:102AB000012070470020704710B503460C4A0D49AD
:102AC0000D48006840B10C4800680344521A934214
:102AD00006D8094A136010BD0748084C0460F2E7A5
:102AE0001BF072FB0C2303604FF0FF30F3E700BFD5
:102AF0000000022000080000CC0A002050A30120A2
:102B0000034AD2F8883043F47003C2F88830704723
:102B100000ED00E0DFF834D0FFF7F2FF0C480D497C
:102B20000D4A002302E0D458C4500433C4188C4228
:102B3000F9D30A4A0A4C002301E013600432A2428E
:102B4000FBD31BF04FFBFFF781FD70470000022015
:102B5000000000209C080020CCE20308A008002010
:102B600050A30120FEE738B50B88052B01D00320C8
:102B700038BD0C464378817841EA0321013189B29E
:102B8000C378027942EA0322531E9BB240F2CE7C04
:102B9000634520D800232380012303702388013359
:102BA000238012F0070F10D0C2F3C7030133DDB248
:102BB000457023880133238000230230FFF770FA29
:102BC00030B923882B442380D2E7C2F3C705EFE74F
:102BD00000F0F0F9CCE70320CAE70B88052B01D001
:102BE000032070474378817841EA0321013189B29B
:102BF0000379F3B9C278531EDBB2FD2B1BD900B5A4
:102C000083B000238DF80530FF2A0BD000238DF808
:102C1000043001231A4601A8FFF742FA30B903B085
:102C20005DF804FB01238DF80430F2E700F0C2F9EF
:102C3000F5E703207047032070470B88052B2DD93B
:102C400010B50C464278837843EA0223013399B2E7
:102C5000C278037943EA022290F805E013F0070FE7
:102C60000ED0C2F3C70C0CF1010C5FFA8CFC531EA2
:102C70009BB2B3F5F66F13D2F44504D0032010BD18
:102C8000C2F3C70CF3E701230630FFF709FA10B9C6
:102C900005232380F3E700F08DF9F0E70320704768
:102CA0000320ECE738B50B88052B01D0032038BD95
:102CB0000C464378817841EA0321013189B2C37817
:102CC000027942EA0322531E9BB240F2CE7C634556
:102CD0001FD800232380022303702388013323801D
:102CE00012F0070F0FD0C2F3C7030133DDB24570F6
:102CF0002388013323800230FFF7ACF930B92388F1
:102D00002B442380D3E7C2F3C705F0E700F052F964
:102D1000CDE70320CBE708B50B88052B01D00320B6
:102D200008BD4378817841EA0321013101231A4625
:102D300089B20330FFF705FA0028F1D000F03AF924
:102D4000EEE70B88052B22D910B50C464278837824
:102D500043EA0223013399B2C378027942EA03229B
:102D600090F805C0531E9BB2772B12D85300DBB2EC
:102D7000634501D0032010BD01230630FFF7E1F9C0
:102D800010B905232380F6E700F014F9F3E70320D8
:102D900070470320EFE738B50B88052B01D00320DF
:102DA00038BD02460C464378817841EA032101315F
:102DB00089B205796B1E9BB27C2B01D90320EFE70A
:102DC000002323804FF0030C00F802CBB4F800C0BE
:102DD0000CF1010CA4F800C04FEA450C82F801C0C8
:102DE0002288013222802A46FFF7ABF920B92388D6
:102DF00003EB45032380D3E700F0DCF8D0E7F8B518
:102E00000B88092B43D904460D464378817841EA63
:102E1000032101318EB2C378077947EA032743794A
:102E2000817941EA0321013189B2C379027A42EA08
:102E30000322407A7B1E9BB27C2B2AD85AB3792A74
:102E40002BD8B0EB420F01D0032021E0012304F185
:102E50000A00FFF776F90346B0B92880204617220A
:102E600000F8022B2A8801322A807A0062702A88B0
:102E700001322A803A463146FFF763F920B92B88A0
:102E800003EB47032B8003E000F094F800E0002000
:102E9000F8BD0320FCE70320FAE70320F8E70A88DF
:102EA000052A01D00320704738B503460C46427806
:102EB000817841EA0221013189B2C278057945EA77
:102EC00002256A1E92B27B2A01D9032038BD002256
:102ED0002280042200F8022B2288013222806A001C
:102EE0005A702388013323802A46FFF728F920B936
:102EF000238803EB45032380E8E700F05BF8E5E770
:102F000038B50D46054B1C882246054901301BF09B
:102F100093F901342C80002038BD00BFD00A002076
:102F2000D40A002010B5082A23D84FEAD10E01F0A8
:102F3000070403FA04F44FF0010C0CFA02F292B207
:102F4000013A92B201F0070102FA01F110F80E30D5
:102F50000EEB0C0210F802C043EA0C231BB223EA6A
:102F600001031BB2234300F80E30C3F3072383543D
:102F700010BD034B034A3721034818F0E7FA00BF9E
:102F8000DC7E030838C80308EC7E03084FEAD10C46
:102F9000012393409BB2013B10F80C206044407821
:102FA00042EA002201F007010A4192B203EA02005C
:102FB000C0B27047012803D0072803D020B970475A
:102FC00002207047062070470420704710B500F0BB
:102FD000CEF9044620B1114B01221A70204610BDD3
:102FE00000F0CAF8C0B10E4B0E4A1A600E4B0F4AE1
:102FF0001A600F4B0F4A1A600F4B104A1A60104BA1
:1030000000221A600F4BFF221A700F4B02221A7017
:10301000024B01221A70E1E70324DFE79C00002045
:103020000C0B00207F330108080B002081330108BE
:10303000040B002089330108100B0020C93301085C
:10304000000B0020150B0020140B002008B5064BC8
:103050001B78012B01D0062008BD044B1B68984744
:103060000020014B1870F7E79C0000200C0B00209B
:1030700030B583B0364B1C78002C63D10DF10700BE
:1030800000F08EF8012802D0204603B030BD9DF834
:103090000730012B14D0022BF6D12E4B1868017883
:1030A0002D4B19702D4B01221A7000230F2B25DC9C
:1030B0002B4A12F833200AB3914217D00133F5E7B7
:1030C000284B1B68284A234928489847054600286A
:1030D000DAD1264B1B78264A1278934201D0002B76
:1030E00032D1022000F050F82C46CDE71C4A02EB0A
:1030F000C3035B681C499847184B18701B4B1B781F
:1031000023B3164B1B789BB1174A0021118012493B
:103110000978104805684FF0010CA2F800C041F092
:10312000800129700068118801EB0C05158043545B
:10313000104B1B680C4A1288064909680C48007835
:103140009847A1E706249FE704469DE71C469BE7B6
:103150009C000020F80A0020F50A0020F40A002054
:103160001C000020040B0020F60A0020FC0A0020AE
:10317000150B0020100B0020024B00221A700120BA
:10318000704700BF160B00200123034A1370034A47
:1031900010701846704700BF160B0020170B002058
:1031A0000346054A107830B1044A12781A70024B6F
:1031B00000221A7001207047160B0020170B002008
:1031C000072900D0704738B504461E4B00F11C0299
:1031D00093E8030014F0B6FA012806D094F8AD3055
:1031E00043F0200384F8AD3038BD226C93B2164909
:1031F0000B8033B994F8AD3043F0200384F8AD3040
:10320000F2E71A46A16B11481BF016F80120FFF7F0
:10321000BBFFFFF72DFFFFF72BFF0D4B1B7833B9DB
:1032200094F8AD3043F0200384F8AD30DCE700259E
:10323000074B1D70074B1A880749204615F09AFB6B
:103240002564D1E7180B0020241300202813002048
:10325000200B0020220B0020240B002038B501FB9E
:1032600000F4204608F088FE054618B122460021E9
:1032700019F066FA284638BD30B583B00023244AD9
:10328000244915F08BFA0020FFF7A0FEFFF7DEFEC1
:103290000022019201A9204808F0D6FF0198421EA1
:1032A00040F2FE339A4215D801210844FFF7D6FFB9
:1032B0001A4D28600121184809F004F80446019AC3
:1032C000296809F02FF8019B6B60204609F01EF871
:1032D00003B030BD01210B20FFF7C0FF03460F4CA8
:1032E00020600B2262600E4A03CA18605960118880
:1032F000927819819A720221074808F0E3FF054687
:103300006268216809F01AF8284608F0FFFFDFE735
:10331000C1310108347F0308487F0308180B0020DF
:103320005C7F030801207047044B0360044B1A883C
:103330000A8000221A800120704700BF2813002055
:103340002413002010B50C460A46014604481AF022
:1033500073FF044B1C800120034B187010BD00BF8D
:10336000240B0020220B0020200B0020704708B502
:10337000FFF7D8FF08B1002008BD0320FCE7704725
:1033800008B5FFF7F3FF08BD70B582B006460D46DD
:1033900014460DF1020101A8FFF7C6FF80B1019BA1
:1033A0009978DA7852EA01220CD107332B60BDF804
:1033B0000230073B2380FF233370002002B070BD32
:1033C0000520FBE70520F9E708B50846D11D531C89
:1033D0001B1200F8033C013200F8022C89B20738B6
:1033E000FFF7B0FF08B1002008BD0520FCE7000092
:1033F00008B5034B034AC82112F0F6F808BD00BF18
:10340000E4BC0308687F030870B586B005460C4627
:1034100004AE1249304612F071FA0023009396E888
:103420000C0094E8030012F091FC78B10C4B03936C
:103430000C4B02930C4B01930C4B00930C4B0D4A1D
:10344000C821284612F0D0F806B070BD0A4B094AD0
:1034500040F29511284612F0C7F8F5E708800308F6
:10346000887B03087C7B0308C8800308487C03082A
:103470000C80030858800308CC80030870B584B022
:1034800005460C4602AE1449304612F037FA0023C6
:10349000009396E80C0094E8030012F057FC98B1F2
:1034A0000E4B1B6A0E48984738B10E4B0E4AC82186
:1034B000284612F099F804B070BD0C4B0A4AC82196
:1034C000284612F091F8F6E7094B074A40F29511A9
:1034D000284612F089F8EEE71C810308A0000020BE
:1034E000607A030824810308588003086081030878
:1034F000A481030870B584B005460C4602AE12499B
:10350000304612F0FBF90023009396E80C0094E893
:10351000030012F01BFC78B10C4E336A0C4C2046B1
:103520009847736A204698470A4B0B4AC821284699
:1035300012F05AF804B070BD084B074A40F29511DA
:10354000284612F051F8F5E71C810308A00000207E
:103550004C7A0308F481030858800308A481030807
:10356000F0B5C3B006460D4680242246002122A8AD
:1035700019F0E6F82246002102A819F0E1F80094BB
:1035800002AB224622A9284613F0E0F89DF88830C5
:1035900013B19DF8082062B913B99DF808304BBBF0
:1035A000204B214A4FF4CA71304612F01DF843B047
:1035B000F0BD1E4B1C4A4FF4CA71304612F014F88D
:1035C000F5E7B82303FB04F4194FE5192A46194916
:1035D0000120FEF73BFF002385F88030002000210A
:1035E000C5E92C013B55144B0F4AC821304611F058
:1035F000FBFFDCE70024092C0CDCB82304FB03F3FD
:10360000803302A90A481844FCF7EAFD0028D8D004
:103610000134F0E7094B044A4FF4CA71304611F007
:10362000E3FFC4E740830308588003083C82030893
:10363000281B0020BC820308D08203080C830308E7
:1036400030B5C7B005460C4690F8AC3013F04002D8
:1036500024D0144B04F1800112B3134A1348029092
:1036600001920091124A4FF4807106A811F0A6FA57
:103670000594002204920F4B03930F49029101928B
:1036800000930E4B06AAC821284611F0ADFF224632
:103690000B490120FEF7DAFE47B030BD094BD9E7F0
:1036A000094ADBE7B8830308DC83030800A30200B0
:1036B000E8830308853D0208249503082C84030849
:1036C00034840308CC830308408603082DE9F043C3
:1036D000E5B005460C4616462922002159A819F0E6
:1036E0002FF88022009202AB22A9204613F02EF878
:1036F0009DF8883013B19DF808204AB9002B40F09E
:10370000BB809DF80830002B40F0B2800020B4E070
:1037100022AA5B490120FEF799FE42A812F03CF86C
:1037200002A8FCF7BDFD024602A942A812F04EF81D
:1037300042A959A812F084F800242AE041462846FC
:10374000FFF77EFF66E04F4F802222A9384619F02E
:103750003EF817F09DFC4C4BC31841F10001C7F82F
:10376000B030C7F8B410282107F1800013F04AFCEC
:103770004EB9B822454B02FB043245490120FEF701
:1037800065FE012079E039462846FFF759FFF0E74A
:103790000134092C45DC22A9A9203E4B00FB043052
:1037A000FCF71EFD0028F3D1A92304FB03F38033AB
:1037B00059A938481844FCF713FD0028E8D1334BC9
:1037C000B82202FB0433D3F8B080D3F8B47017F0FA
:1037D0005FFC80458F41B6D2B82704FB07F7DFF8BE
:1037E000AC9007EB0908802222A9404618F0EFFFB1
:1037F00017F04EFC244BC01841F10001C8F8B0008E
:10380000C8F8B41007F180002821484413F0FAFBEF
:10381000002E93D142461E490120FEF717FE0120DB
:103820002BE0002029E0B822184B02FB0433009360
:10383000194B1A4AC821284611F0D6FE16E0013469
:10384000092C17DCB82304FB03F3803302A90F48CB
:103850001844FCF7C5FC0028F1D1B82304FB03F39E
:103860000A4AD35C002BEAD0002EDCD1012004E010
:103870000024E5E7002000E0002065B0BDE8F0830B
:1038800050840308E01B002000B84C0A281B0020CD
:1038900070840308582200208C8403085880030891
:1038A00010B504460122FFF711FF00B110BD044B13
:1038B000044A40F29311204611F096FEF6E700BF4D
:1038C000CC8403085880030810B590B0044609A8BA
:1038D00008F012FC0F9B06930E9B05930D9B04931F
:1038E0000C9B03930B9B02930A9B0193099B0093F0
:1038F000034B044AC821204611F076FE10B010BDDB
:10390000FC84030800860308F0B591B006460C4617
:103910000CAD4B49284611F0F1FF0023009395E8C8
:103920000C0094E8030012F011FA28B3454C236808
:10393000002201210AA898472368002202210DF1E4
:103940002B0098479DF828309DF829209DF82A10D3
:103950009DF82B009DF82C409DF82D500595049462
:103960000390029101920093374B384AC8213046A8
:1039700011F03AFE11B0F0BD0EAD3549284611F0F8
:10398000BDFF0023009395E80C0094E8030012F0BB
:10399000DDF900284BD008AB2E4A04F5007103C9AD
:1039A00010F0D0FE00283AD00AAB2B4A04F5007480
:1039B00094E8030010F0C6FE002830D0DDE90801CD
:1039C000FDF70AF9C4B2DDE90A01FDF705F9C5B250
:1039D000631EDBB2022B01D8012D07D91F4B1B4AF6
:1039E0004FF4C871304611F0FFFDC3E7154F3B6837
:1039F0000022022107A8984704F13F036B4403F813
:103A0000245C3B680122022107A898470195009495
:103A1000134B0E4AC821304611F0E6FDAAE7114BC0
:103A20000A4A4FF4C871304611F0DEFDA2E70E4B92
:103A3000064A40F29511304611F0D6FD9AE700BFD4
:103A400008800308F42800204486030858800308EF
:103A50001C8103087886030884860308C48603084B
:103A60008C860308008703083C87030838B501FBF0
:103A700000F4204608F080FA054618B122460021DD
:103A800018F05EFE284638BDF0B58BB006460C46F1
:103A900006AD8449284611F031FF0023009395E8D4
:103AA0000C0094E8030012F051F900283BD0C62125
:103AB0000120FFF7DBFF054640B37B4B1B6800226C
:103AC0001146984705F1A5073846FCF7E9FBC4B253
:103AD00022462A21384618F033FE2C44002384F86D
:103AE000A5306B78EBB1714BAA1C05F184010397EB
:103AF0000291019200936E4B6E4AC821304611F03C
:103B000073FD284608F0BAFA0BB0F0BD6A4B694A5B
:103B10004FF4FA71304611F067FD284608F0AEFA0E
:103B2000F2E7664BE0E708AD6549284611F0E6FE8E
:103B30000023009395E80C0094E8030012F006F9C6
:103B4000002800F0A780C6210120FFF78FFF05465F
:103B500010B305AB5B4A04F5007103C910F08EFB8E
:103B6000002824DB6B1C584A04F5007797E8030013
:103B700010F00EFE554A97E8030012F0AFFF07461B
:103B800028B317F0A1FC0346E0B10433032B79D826
:103B9000DFE803F070686052474B464A4FF4FA7111
:103BA000304611F021FD284608F068FAACE7484B92
:103BB000404A4FF4C871304611F016FD284608F00F
:103BC0005DFAA1E77F223946A81C18F000FE3846AE
:103BD00008F054FA3F4A04F5007393E8030012F02A
:103BE0007DFF074628B12022014605F1840018F028
:103BF000EEFD384608F042FA374A04F5007494E8BE
:103C0000030012F06BFF044628B12022014605F1A3
:103C1000A50018F0DCFD204608F030FA01222A70D9
:103C2000214B1B680021284698472C4B214AC8216C
:103C3000304611F0D9FCC1E7294B1E4A4FF4C87138
:103C4000304611F0D1FC384608F018FA284608F042
:103C500015FA59E7234B174A4FF4C871304611F053
:103C6000C3FCF0E7204B134A4FF4C871304611F003
:103C7000BBFCE8E71D4B0F4A4FF4C871304611F00A
:103C8000B3FCE0E71A4B0B4A4FF4C871304611F011
:103C9000ABFCD8E7174B074A40F29511304611F0BC
:103CA000A3FC31E708800308F4280020908703086C
:103CB000DC87030858800308A08703089887030857
:103CC0001C810308248803085888030864880308B3
:103CD00028880308AC890308B8890308C489030845
:103CE00070880308B4880308008903084089030822
:103CF000788903083C87030870B58AB006460C46ED
:103D000004AD5E49284611F0F9FD0023009395E8C3
:103D10000C0094E8030012F019F800283DD00022AE
:103D2000039203A9564808F08FFA0398421E40F206
:103D3000FE339A4229D801210844FFF797FE044632
:103D4000B8B101214E4808F0BDFA0546039A214654
:103D500008F0E8FA284608F0D9FA0094494B4A4A94
:103D6000C821304611F040FC204608F087F90AB01F
:103D700070BD46490320FEF769FB454B424A4FF4AC
:103D8000FA71304611F030FCF1E7424B3E4A4FF4F5
:103D9000FA71304611F028FCE9E706AD3E492846A5
:103DA00011F0ACFD0023009395E80C0094E80300AB
:103DB00011F0CCFF002858D003AB384A04F500714D
:103DC00003C910F05BFA002834DB354A04F50074AF
:103DD00094E8030012F082FE044600283DD008ADAE
:103DE0000146284611F08AFD06F11C0295E8030001
:103DF00013F0A8FC002825DB214D284608F0D0FA56
:103E00000221284608F05EFA05462046FCF748FAEB
:103E1000421C2146284608F091FA284608F076FA16
:103E2000204B194AC821304611F0DEFB204608F02D
:103E300025F99CE71C4B144A4FF4C871304611F029
:103E4000D3FB94E7194B104A4FF4C871304611F078
:103E5000CBFB204608F012F989E7154B0A4A4FF4CC
:103E6000C871304611F0C0FB81E7124B064A40F2A0
:103E70009511304611F0B8FB79E700BF08800308C0
:103E8000487F03085C8A030858800308008A0308F7
:103E9000348A0308888A03081C81030824880308DD
:103EA000BC8A0308048B030828880308CC8A03080B
:103EB000588B0308A08B03082DE9F04FC7B081464B
:103EC0008A4672228E4927A81AF0B6F901211E20CF
:103ED000FFF7CCFD064601212E20FFF7C7FD074660
:103EE00001212E20FFF7C2FD804601214FF44070D2
:103EF000FFF7BCFD044601214FF4C070FFF7B6FD8B
:103F00000546002E00F0E380002F00F0E080B8F1BD
:103F1000000F00F0DC80002C00F0D980002800F0B9
:103F2000D6800DF5887B7749584611F0E7FC0023D1
:103F300000939BE80C009AE8030011F007FF0028AB
:103F400000F0BD8001F0B0FC824658B390F8AC3070
:103F500013F0200F2CD190F8AD3013F0200F2DD09E
:103F60001E226949304618F032FCDFF8C4B10AF16C
:103F7000080300935B46654A2E21404610F01EFE62
:103F80000AF11C0300935B46604A2E21384610F06C
:103F900015FE2046FCF784F95D4B1B8823524FF039
:103FA000010A28E01E225B49304618F010FCF0E7B9
:103FB0001E225949304618F00AFCD6E71E225749FE
:103FC000304618F004FCD0E75FFA8AF30122802122
:103FD00007A802F02BF907A9204618F0B9FB2046E4
:103FE000FCF75EF9034621184D4A1068E05013793A
:103FF0000B710AF1010ABAF1030FE5DD4FF0010A76
:1040000007E02046FCF74CF9414B1B8823520AF18C
:10401000010ABAF1030F18DC5FFA8AF30222802149
:1040200007A802F003F907A9204618F091FBBAF19E
:10403000020FE6DC2046FCF733F903462118384A24
:104040001068E05013790B71E1E72846FCF728F976
:104050002F4B1B882B524FF0010A07E02846FCF734
:104060001FF92B4B1B882B520AF1010ABAF1030FDF
:1040700018DC5FFA8AF30222802107A802F0BCF85C
:1040800007A9284618F064FBBAF1020FE6DC2846BF
:10409000FCF706F903462918214A1068E8501379FD
:1040A0000B71E1E7049503940297CDF80480009624
:1040B00027AB1C4AC821484611F096FA0EE01A4B6D
:1040C000184A40F29511484611F08EFA06E0174B57
:1040D000144A4FF4FA71484611F086FA304607F058
:1040E000CDFF384607F0CAFF404607F0C7FF20461D
:1040F00007F0C4FF284607F0C1FF47B0BDE8F08FC6
:10410000608C030808800308008C0308148C0308E3
:10411000188C030874BE0308F48B0308088C03088A
:104120001C8C0308588003083C870308248C030870
:10413000C5760208F0B58DB007460C46154608AEA8
:104140002349304611F0DAFB0023009396E80C0077
:1041500094E8030011F0FAFD18B3002302930393CF
:1041600004930593069307931A4B02931A4B0793F4
:1041700045B1012D0ED002AB184A2146384611F048
:10418000A1FF05E002AB154A2146384611F09AFF1F
:104190000DB0F0BD02AB124A2146384611F092FF35
:1041A000F6E70AAD0F49284611F0A8FB002300935B
:1041B00095E80C0094E8030011F0C8FD0028E7D151
:1041C000094B0A4A40F29511384611F00DFADFE723
:1041D00008800308DC940308A0000020647C030826
:1041E000747C03081C810308D48C030858800308DE
:1041F000F8B504460D4616460B4F3B6A9847022217
:10420000214638460FF050FF04467B69A92206FB81
:1042100002F229460068984720460FF05EFF0349E6
:104220000120FEF713F9F8BDA00000202C8D030833
:104230002DE9F041AEB006460C4626ADBD492846F4
:1042400011F05CFB0023009395E80C0094E8030058
:1042500011F07CFD002843D128ADB749284611F064
:104260004DFB0023009395E80C0094E8030011F047
:104270006DFD002800F0FB8003ABB04A04F500712F
:1042800003C90FF0FBFF0028C0F28980AC4A04F597
:10429000007494E8030012F021FC0546A94A94E852
:1042A000030012F01BFC0746002D00F0D28000280E
:1042B00000F0CF802B78002B00F0CB800378002B10
:1042C00000F0C7800024092C7FDC2946A9209E4BE2
:1042D00000FB0430FBF784FF002868D00134F2E7CC
:1042E00001214FF48060FFF7C1FB07460121A020A8
:1042F000FFF7BCFB8046002F3DD000283BD0934BFE
:1043000007CB38607960BA601B783B7300240C25BA
:1043100008E043468E4AC5F58061781917F0E6FF3C
:1043200005440134092C18DCA92204FB02F2864B57
:104330009A5C002AF5D0A92202FB0433854AA02109
:10434000404617F0D3FF0C2DE3D9834AC5F58061B1
:10435000781917F0CBFF0544DBE7804AC5F580618B
:10436000781917F0C3FF0097794B7D4AC821304672
:1043700011F03AF90AE07B490320FEF767F87A4B1F
:10438000774A4FF4FA71304611F02EF9384607F0AB
:1043900075FE404607F072FE2EB0BDE8F081734B0B
:1043A0006F4A4FF4C871304611F01EF9F4E7704BB4
:1043B0006B4A4FF4C871304611F016F9284607F0E1
:1043C0005DFE384607F05AFEE6E72922002104A8E0
:1043D00018F0B6F90FA811F0DFF93846FBF760FFC7
:1043E000024639460FA811F0F1F90FA904A811F0FF
:1043F00027FA0023092B24DCA92203FB02F25249ED
:104400008A5C0AB10133F5E7A92202FB03F488466E
:104410007F22294608EB040018F0D9F904F1800046
:10442000282204A9404418F0D2F90A2241465148F2
:10443000FFF7DEFE504B4A4AC821304611F0D4F84F
:104440000EE04E4B464A4FF4C871304611F0CCF89E
:1044500006E04B4B424A4FF4C871304611F0C4F8A5
:10446000284607F00BFE384607F008FE94E72AAD11
:104470004449284611F042FA0023009395E80C00C5
:1044800094E8030011F062FC38BB2CAD3E4928468D
:1044900011F034FA0023009395E80C0094E803002F
:1044A00011F054FC002800F0F680254A04F5007451
:1044B00094E8030012F012FB074618B10378002BB2
:1044C00040F0D280314B264A4FF4C871304611F08B
:1044D0008BF8384607F0D2FD5EE703AB174A04F5C8
:1044E000007103C90FF0CAFE002853DB144A04F51B
:1044F000007494E8030012F0F1FA0546114A94E8BA
:10450000030012F0EBFA04462DB120B12B7813B161
:104510000378002B48D11E4B114A4FF4C871304626
:1045200011F062F8284607F0A9FD204607F0A6FD25
:1045300032E700BF088003081C81030824880308B1
:104540006C8D0308748D030858220020448D0308E5
:1045500080BE0308548D0308648D0308688D03082A
:1045600058800308008A0308348A0308288803084F
:104570007C8D0308A87A0308B88D0308F48D03081E
:10458000288E0308688E0308248F0308C08F030851
:10459000E08E0308444B454A4FF4C871304611F091
:1045A00023F800242546BDE72922002104A818F09D
:1045B000C7F80FA811F0F0F82046FBF771FE02468D
:1045C00021460FA811F002F90FA904A811F038F93B
:1045D0000027092F25DC2946A920354B00FB073091
:1045E000FBF7FEFD08B10137F3E7A92303FB07F74B
:1045F00007F18000DFF8B880282204A9404418F0B1
:10460000E6F84744002387F8A8300A2241462948A3
:10461000FFF7EEFD284B254AC821304610F0E4FF95
:1046200080E7264B214A4FF4CA71304610F0DCFF78
:1046300078E780220021284618F082F8A92303FB9E
:1046400004F080301A4C29220021204418F078F818
:104650000A2221461748FFF7CBFD194B134AC82100
:10466000304610F0C1FF34E70124092C0BDCA923EC
:104670000F4D03FB045539462846FBF7B1FD0028D2
:10468000D7D00134F1E70F4B084A4FF4C8713046D8
:1046900010F0AAFF1DE70C4B044A40F2951130467A
:1046A00010F0A2FF78E600BF2888030858800308AE
:1046B00058220020A87A03086C8E0308B08E0308E5
:1046C0002C8F03086C8F03080090030870B50E460A
:1046D0001446012201460E480FF0E6FC88B105465B
:1046E0000B4B1B69A92204FB02F231460068984774
:1046F00028460FF0F2FC07490120FDF7A7FE012034
:1047000070BD05490320FDF7A1FE0020F8E700BFBA
:10471000A00000207C9003086090030870B586B06C
:1047200005460C4604AE1549304611F0E7F8002363
:10473000009396E80C0094E8030011F007FBA0B189
:10474000EB6F1868002302930D4B01930123009334
:104750004FF4FA62002312F0C9FA0A4B0A4AC82140
:10476000284610F041FF06B070BD084B064A40F2E3
:104770009511284610F038FFF5E700BF1C810308AB
:10478000BD7401089890030858800308A4810308A9
:1047900070B584B005460C4602AE1449304611F09F
:1047A000ADF80023009396E80C0094E8030011F0A4
:1047B000CDFA98B10E4BDB690E490F48984728B1E6
:1047C00021462846FFF7AAFF04B070BD0B4B0C4AE8
:1047D0004FF4FA71284610F007FFF5E7094B084A35
:1047E00040F29511284610F0FFFEEDE71C8103080A
:1047F000A0000020607A0308D0900308E890030826
:1048000058800308A481030870B58CB005460C4697
:104810000AAE1C49304611F071F80023009396E867
:104820000C0094E8030011F091FA10B3FCF70AFDB4
:1048300010EE104AFCF7C0FC10EE100AFBF79CFECD
:10484000CDE908012046FBF797FECDE906010E4BA6
:1048500004930E4B03930E4B02930E4B01930E4B9E
:1048600000930E4B0E4AC821284610F0BDFE0CB036
:1048700070BD0C4B0A4A40F29511284610F0B4FE68
:10488000F5E700BF08800308C8910308DC9103081E
:10489000E8910308C8800308487C03082C910308AA
:1048A00058800308CC80030870B5C4B006460C4697
:1048B00042AD2049284611F021F80023009395E8E5
:1048C0000C0094E8030011F041FA50B37B2323AAB3
:1048D000194904F5007011F0FEFE002819DD23AB24
:1048E000164A802103A817F001FD154B5B6A03A847
:1048F000984730B1134B144AC821304610F074FE6B
:1049000016E0124B104A4FF4FA71304610F06CFE6C
:104910000EE00F4B0C4A4FF4C871304610F064FEA5
:1049200006E00C4B084A40F29511304610F05CFE50
:1049300044B070BD1C810308F0910308F89103088E
:10494000A000002000920308588003083492030856
:1049500070920308A481030870B5A4B005460C4604
:1049600022AE1C49304610F0C9FF0023009396E8A0
:104970000C0094E8030011F0E9F908B3802302AABF
:10498000154904F1100011F0A6FE144902A8FBF726
:1049900027FC58B9124B0093124B134A2146284664
:1049A00013F074FC012006F04FFC10E00B4B009359
:1049B0000E4B0F4A4FF4C871284610F015FE06E062
:1049C0000C4B0B4A40F29511284610F00DFE24B016
:1049D00070BD00BF1C810308D0BD0308AC92030862
:1049E00090D00300547A0308A0000020BC92030872
:1049F00058800308A4810308F0B597B004460E461A
:104A000001214FF48060FFF731F8054650B10122D3
:104A1000214628480FF048FB044640B168460FF095
:104A20004DFF10E007F02AFB4FF0FF3040E00FF0A1
:104A300054FB284607F022FB6FF0010038E02946BE
:104A400068460FF051FF1B4B1B694FF480622946EB
:104A50002068984702460028F1D120460FF03DFB20
:104A600001211020FFF702F8074628B101466846E9
:104A70000FF091FF002412E0284607F0FFFA3846B5
:104A800007F0FCFA4FF0FF3012E061003B5D0A4A8C
:104A9000C1F1210106EB440017F028FC01340F2C72
:104AA000F3DD284607F0EAFA384607F0E7FA002077
:104AB00017B0F0BDA00000200893030870B584B0C3
:104AC00005460C4602AE1949304610F017FF002388
:104AD000009396E80C0094E8030011F037F9E8B170
:104AE00001212120FEF7C2FF044601461048FFF7CE
:104AF00083FF58B900940F4B0F4AC821284610F085
:104B000073FD204607F0BAFA04B070BD0B4B0A4A99
:104B10004FF4CA71284610F067FDF2E7084B064AC9
:104B200040F29511284610F05FFDEDE7088003087C
:104B3000D0900308109303085880030834930308A7
:104B4000CC8003080B2900D07047F0B5B5B00546FE
:104B5000144600222146FEF7B9FD074608AEAF49CC
:104B6000304610F0CBFE0023009396E80C0094E84A
:104B7000030011F0EBF820B12846FEF739FC35B000
:104B8000F0BD0AAEA649304610F0B8FE00230093EF
:104B900096E80C0004F1080103C911F0D7F800B140
:104BA000BFB10CAE9F49304610F0A8FE0023009321
:104BB00096E80C0004F1080103C911F0C7F880B1B0
:104BC00099490120FDF742FC21462846FEF768FE80
:104BD000D5E7964B964A40F29311284610F004FD13
:104BE000CDE70EAE9349304610F088FE00230093C7
:104BF00096E80C0004F1080103C911F0A7F840B1D0
:104C00008D490120FDF722FC21462846FEF7A8FC2D
:104C1000B5E710AE8949304610F070FE00230093CE
:104C200096E80C0004F1080103C911F08FF838B1BF
:104C300083490120FDF70AFC2846FEF745FE9EE762
:104C400012AE8049304610F059FE0023009396E8DA
:104C50000C0004F1080103C911F078F840B17A4959
:104C60000120FDF7F3FB21462846FEF74DFE86E7BF
:104C700014AE7649304610F041FE0023009396E8CA
:104C80000C0004F1080103C911F060F840B170494B
:104C90000120FDF7DBFB21462846FEF7F5FE6EE717
:104CA00016AE6C49304610F029FE0023009396E8BA
:104CB0000C0004F1080103C911F048F840B166493D
:104CC0000120FDF7C3FB21462846FFF715F856E7FC
:104CD00018AE6249304610F011FE0023009396E8AA
:104CE0000C0004F1080103C911F030F840B15C492F
:104CF0000120FDF7ABFB21462846FFF7DDF83EE734
:104D00001AAE5849304610F0F9FD0023009396E89A
:104D10000C00E168A06811F019F848B1524901206F
:104D2000FDF794FB002221462846FFF703FA26E709
:104D30001CAE4E49304610F0E1FD0023009396E88A
:104D40000C00E168A06811F001F848B14849012061
:104D5000FDF77CFB012221462846FFF7EBF90EE721
:104D60001EAE4449304610F0C9FD0023009396E87A
:104D70000C00E168A06810F0E9FF40B13E49012055
:104D8000FDF764FB21462846FFF752FAF7E620AE0E
:104D90003A49304610F0B2FD0023009396E80C002B
:104DA000E168A06810F0D2FF40B135490120FDF75D
:104DB0004DFB21462846FFF7B1FCE0E622AE314923
:104DC000304610F09BFD0023009396E80C00E1684C
:104DD000A06810F0BBFF40B12B490120FDF736FB66
:104DE00021462846FEF710FBC9E624AE2749304687
:104DF00010F084FD0023009396E80C00E168A068A1
:104E000010F0A4FF002845D021490120FDF71EFB2A
:104E100021462846FFF7F8FCB1E600BF749303086B
:104E20007C93030894930308A093030884930308D6
:104E300040860308B4930308C0930308D89303087B
:104E4000E893030804940308149403082C940308BB
:104E5000409403085C9403086C9403088894030846
:104E60009C940308B8940308C8940308E4940308C6
:104E7000F8940308189503082C950308489503082F
:104E80005C9503087C95030890950308B09503088A
:104E9000C495030826AE5049304610F02FFD00237C
:104EA000009396E80C00E168A06810F04FFF20B175
:104EB00021462846FFF750FD61E628AE47493046B7
:104EC00010F01CFD0023009396E80C00E168A06838
:104ED00010F03CFF40B142490120FDF7B7FA2146EE
:104EE0002846FFF7EBFD4AE62AAE3E49304610F071
:104EF00005FD0023009396E80C00E168A06810F01F
:104F000025FF40B138490120FDF7A0FA2146284687
:104F1000FFF73EFC33E62CAE3449304610F0EEFC91
:104F20000023009396E80C00E168A06810F00EFFE3
:104F300020B121462846FEF7A1FA20E62EAE2C49E4
:104F4000304610F0DBFC0023009396E80C00E1688B
:104F5000A06810F0FBFE20B121462846FEF7CAFAF1
:104F60000DE630AE2349304610F0C8FC0023009314
:104F700096E80C00E168A06810F0E8FE40B11E4B16
:104F800000931E4B1E4A2146284613F07FF9F6E592
:104F900032AE1C49304610F0B1FC0023009396E875
:104FA0000C00E168A06810F0D1FE20B1214628462F
:104FB000FFF77AFCE3E50023029303930493059340
:104FC000069307930D4B02930D4B079302AA2146BC
:104FD000284613F079F8D2E5E0950308F895030820
:104FE0000C960308289603083C9603085C96030871
:104FF000789603089496030860E316004C7A030839
:10500000A0000020B096030808B50A220249034810
:10501000FFF75CFB024808BD58220020A87A03086D
:10502000454B0108014B1860704700BFF428002071
:105030001A4B1B6803B1704730B585B01849012081
:10504000FDF704FA174C40220021204617F078FBA8
:1050500002AD154B1968284610F050FC95E8030086
:1050600084E80300114B1968284610F047FC04F14E
:10507000080395E8030083E803003C2363850023CD
:1050800000930B4B22460B4909680B48006815F04A
:10509000B3F9024B186005B030BD00BF1C290020D9
:1050A000CC960308202900207429002070290020B4
:1050B000E957010878290020642900202DE9F04FE4
:1050C00085B08146884692462A4C00F10803009339
:1050D000294B2A4A282120680FF070FD24682046B9
:1050E000FBF7DEF80146204600F0E0FC00263BE03E
:1050F00008EBC60318F836401D79214F2B4622468F
:105100008021386800F0F0FCDFF880B02B462246A2
:105110004FF41671DBF8000000F0C0FD194D02AC31
:105120003968204610F0EAFB05F1180394E8030003
:1051300083E80300DBF80010204610F0DFFB05F1E8
:10514000200394E8030083E80300012485F8284045
:1051500085F82E402946484613F0BEFE3A680A49B3
:105160002046FDF773F926445645C1D305B0BDE886
:10517000F08F00BF18290020A9760208148C0308BC
:105180006C29002020290020EC96030868290020C3
:1051900038B501FB00F4204606F0EEFE054618B1D6
:1051A0002246002117F0CCFA284638BD2DE9F04FF1
:1051B0002DED028B85B0019001214FF41670FFF7A1
:1051C000E7FF064601218020FFF7E2FF0546FCF7D6
:1051D00039F8F0EE408AFBF7EFFFB0EE408A3A492B
:1051E0000020FDF733F9002309228021284601F031
:1051F0001DF8DFF8E8B02A4659460020FDF726F9E9
:10520000B0EE680A3149304601F060F83246304964
:105210000020FDF71BF92F4F02AC2946204610F065
:105220006DFB07F1180A94E803008AE80300314691
:10523000204610F063FB07F1200994E8030089E899
:1052400003004FF0000887F8288087F82E80394641
:10525000019813F041FE43460A228021284600F0BF
:10526000E5FF2A4659464046FDF7F0F8B0EE480AF9
:105270001949304601F02AF8324615494046FDF7F3
:10528000E5F82946204610F039FB94E803008AE847
:1052900003003146204610F031FB94E8030089E812
:1052A000030087F8288087F82E803946019813F08C
:1052B00013FE304606F0E2FE284606F0DFFE05B09B
:1052C000BDEC028BBDE8F08F1097030840970308F0
:1052D0004C970308202900205897030834970308A7
:1052E00008B507490020FDF7B1F8064B186810B162
:1052F000054B1B7803B908BDFFF758FFFBE700BF5C
:10530000689703081C290020042900202DE9F04398
:1053100087B007460C46584D2B680022012104A88F
:1053200098472B68002202210DF1130098470322B1
:10533000524904A817F0DAF948B9032250490DF18F
:10534000130017F0D3F910B9002C00F091804B4BEB
:1053500006AA12E903001860998001214FF4167023
:10536000FFF716FF064601218020FFF711FF0546D3
:10537000002238E002F101085FFA88F802F1180310
:105380000DEB030212F8083C0093434601224FF450
:105390001671304600F008FF43460122802128465E
:1053A00000F044FFDFF8DC9002AC2946204610F004
:1053B000A5FA09F1180394E8030083E803003146D5
:1053C000204610F09BFA09F1200394E8030083E8DB
:1053D0000300002389F8283089F82E3049463846E2
:1053E00013F07AFD4246022AC4D9002238E002F1C5
:1053F00001085FFA88F802F118030DEB030212F8B6
:10540000053C0093434602224FF41671304600F0EB
:10541000CBFE434602228021284600F007FFDFF83A
:10542000649002AC2946204610F068FA09F118038E
:1054300094E8030083E803003146204610F05EFA4A
:1054400009F1200394E8030083E80300002389F8AE
:10545000283089F82E304946384613F03DFD424643
:10546000022AC4D9304606F009FE284606F006FE98
:1054700007B0BDE8F08300BF00290020F828002015
:10548000FB2800202029002008B5054B186810B122
:10549000044B1B7803B908BD0021FFF737FFFAE77B
:1054A0001C2900200429002008B5054B1B7803B9EE
:1054B00008BD0121034B1868FFF728FFF8E700BF7C
:1054C000042900201C2900202DE9F04F83B08146DB
:1054D0000D461646002400E00134B4422ED205EBFE
:1054E000C40855F83430022BF6D101218020FFF793
:1054F0004FFE074698F804300222802100F07CFE1F
:10550000DFF844804FF0010B88F828B0EA463946AE
:10551000504610F0F3F908F118039AE8030083E805
:1055200003004146484613F089FC3A46054958466F
:10553000FCF78CFF384606F0A1FDCDE703B0BDE8CF
:10554000F08F00BF98970308202900202DE9F04331
:1055500087B000230393076845688468C668ACB1C8
:10556000A7B105B10EBB8C490320FCF76FFF8B4B35
:105570001B68002B40F30181894BC8228949012017
:1055800012F046F988480FF0DBFFF6E0834B1B680A
:10559000002B40F3F280824BC2228249012012F09C
:1055A00037F982480FF0CCFFE7E001217018FFF7D0
:1055B000EFFD814601216818FFF7EAFD804632467B
:1055C0002146484617F003F92A463946404617F067
:1055D000FEF8774B1B680022022105A89847059B1F
:1055E000ADF810301B0C8DF812307249404617F0A0
:1055F00027F9002800F0B28003AA6F4916F0CEFE0A
:10560000012809D0654B1B68002B00F39D806B4976
:105610000320FCF71BFFAAE0604B1B68012B19DC81
:10562000CDF80090039B424665490120FCF70EFF30
:10563000039C631E022B19D8022E34D0032E55D0A2
:10564000564B1B68002B74DC4A465E490320FCF76E
:10565000FDFE8CE0524BDB225249022012F0D8F8BA
:105660004246039958480FF06BFFD9E74B4B1B6834
:10567000002B0CDC039B032254491046FCF7E6FE8A
:10568000484606F0FBFC404606F0F8FC75E0444B4B
:10569000E0224449012012F0BBF8039A03214B4851
:1056A0000FF04EFFE6E702224949484617F07DF821
:1056B0000028C3D104F117036B44012203F8082C1E
:1056C000364B1B68934206DC394B1B6801220221D2
:1056D00004A898474BE0324BED223249022012F0E9
:1056E00097F803993B480FF02BFFEDE703223A4967
:1056F000484617F05AF80028A2D104F117036B446A
:10570000002203F8082C254B1B68012B06DC284BD4
:105710001B680122022104A8984728E0204BF122AF
:105720002049022012F074F803992C480FF008FF6A
:10573000EDE71B4BF5221B49012012F069F84946A1
:1057400020480FF0FDFE7FE7154BFA221549012096
:1057500012F05EF822480FF0F3FE58E70F4B1B687B
:10576000002B0DDC42461F490320FCF76FFE484624
:1057700006F084FC404606F081FC07B0BDE8F083EB
:10578000074BFE220749012012F042F84146154816
:105790000FF0D6FEE6E700BF249803083C01002086
:1057A000B4970308D49703084C980308009803089B
:1057B000002900207898030880980308EC990308D2
:1057C000B8980308789903088C980308F898030898
:1057D000489903084C9903086099030864990308E1
:1057E000B4990308249A030870B510293AD00546E5
:1057F00011290BD0092942D121490120FCF726FEAD
:105800000023204A1360204A137038E01F4B1B68A6
:10581000022B1CDC1E490120FCF718FE194B1D60F1
:10582000194B1B785BBB1B4E082231462846FFF7FD
:1058300045FC144C01212068FFF768FD0822314621
:105840002068FFF741FE104B01221A7017E0124B3F
:1058500040F20F121149032011F0DAFF10480FF047
:105860006FFED7E714460F490120FCF7EFFD2046F5
:10587000FFF76CFE0021034B1868FFF747FD70BD72
:10588000BC9A03081C290020042900203C010020A8
:10589000809A0308C8000020549A0308D49703088C
:1058A000689A0308989A0308014B1868704700BF6C
:1058B0001C2900202DE9F04786B007460C46924689
:1058C0001D4601218020FFF763FCDFF86881C8F8DE
:1058D000000001212120FFF75BFC444E30600121D4
:1058E0002120FFF755FCDFF85091C9F80000012195
:1058F0008020FFF74DFC3E4B186001214FF41670DD
:10590000FFF746FC3B4B186001212820FFF740FCC5
:10591000394B18600F9A394B1A605146D8F800007D
:1059200018F058FC2946306818F054FC0E99D9F844
:10593000000018F04FFC324D2F60324B1C600621E6
:10594000204600F089F8304F04AC316820460FF053
:10595000D5FF94E8030087E80300D9F8001020463B
:105960000FF0CCFF07F1080394E8030083E803007D
:105970003C237B853368D8F8002024490120FCF7BC
:1059800065FD00240294224B01930326009642F207
:1059900010720023286811F0A9F91E4B18600294B8
:1059A0001D4B01930127009743F698220023286896
:1059B00011F09CF9194B18600294194B0193009750
:1059C0004FF4FA720023286811F090F9154B186013
:1059D0000294154B01930096144A0023286811F095
:1059E00085F9134B186006B0BDE8F08774290020D4
:1059F0006C29002068290020182900200029002097
:105A0000642900206029002020290020D49A03085E
:105A10003150010814290020A95401081029002040
:105A2000895401080C290020E1520108C0D401006A
:105A300008290020782900207029002038B501FBB2
:105A400000F4204606F098FA054618B122460021D7
:105A500016F076FE284638BD70B506460D46104B4A
:105A6000186808B106F00AFB680001210844FFF736
:105A7000E5FF0B4B186008B100240BE04FF0FF303E
:105A80000DE0074B1868325D064900EB440016F044
:105A900063FC0134AC42F4D3034B1D60002070BDA5
:105AA00084290020009B03088029002038B5054682
:105AB0000C460C4B186808B106F0E0FA012160189A
:105AC000FFF7BCFF074B186040B12246294616F08D
:105AD0007EFE044B1B680020185538BD4FF0FF3088
