:020000040801F1
:1000000000000220792401088D2301088F230108B4
:1000100091230108932301089523010800000000A3
:10002000000000000000000000000000E1A5010841
:10003000972301080000000081A60108358401080B
:10004000C9240108C9240108C9240108C9240108D8
:10005000C9240108C9240108C9240108C9240108C8
:10006000C9240108C9240108C9240108C9240108B8
:10007000C9240108C9240108C9240108C9240108A8
:10008000C9240108C9240108C9240108000000008E
:10009000000000000000000000000000C92401086A
:1000A00099230108C9240108C9240108C9240108A9
:1000B000C9240108C9240108C9240108C924010868
:1000C000C9240108C9240108C9240108C924010858
:1000D000C9240108C9240108C9240108000000003E
:1000E000C9240108C9240108C9240108000000002E
:1000F000000000000000000000000000C92401080A
:1001000000000000C9240108C9240108C92401080D
:1001100000000000000000000000000000000000DF
:10012000C9240108C9240108C9240108C9240108F7
:10013000C9240108000000000000000000000000C9
:10014000000000000000000000000000C9240108B9
:10015000C9240108C9240108C9240108C9240108C7
:10016000C9240108C92401080000000000000000A3
:10017000000000000000000000000000000000007F
:1001800000000000C9240108000000000000000079
:08019000C9240108C92401087B
:1001A00010B5054C237833B9044B13B10448AFF3B1
:1001B00000800123237010BD7008002000000000A3
:1001C000DC5C030808B5034B1BB103490348AFF3DC
:1001D000008008BD0000000074080020DC5C0308FB
:1001E00010F8012B11F8013B012A28BF9A42F7D0E1
:1001F000D01A70470000000000000000000000005E
:1002000001F0FF01102A2BDB10F0070F08D010F8C7
:10021000013B013A8B422DD010F0070F42B3F6D1CB
:10022000F0B441EA012141EA014122F007047FF0E4
:1002300000070023F0E80256083C85EA010586EA3B
:10024000010685FA47F5A3FA87F586FA47F6A5FA77
:1002500087F68EB9EED1F0BC01F0FF0102F0070283
:1002600032B110F8013B013A83EA010313B1F8D12E
:100270000020704701387047002D06BF354603380F
:10028000073815F0010F07D1013015F4807F02BF48
:10029000013015F4C03F0130F0BC0138704700BF99
:1002A000034613F8012B002AFBD1181A01387047B6
:1002B00081F0004102E000BF83F0004330B54FEA17
:1002C00041044FEA430594EA050F08BF90EA020F84
:1002D0001FBF54EA000C55EA020C7FEA645C7FEA17
:1002E000655C00F0E2804FEA5454D4EB5555B8BF3A
:1002F0006D420CDD2C4480EA020281EA030382EAAB
:10030000000083EA010180EA020281EA0303362D3C
:1003100088BF30BD11F0004F4FEA01314FF4801C0F
:100320004CEA113102D0404261EB410113F0004F21
:100330004FEA03334CEA133302D0524263EB4303D8
:1003400094EA050F00F0A780A4F10104D5F1200E76
:100350000DDB02FA0EFC22FA05F2801841F10001D1
:1003600003FA0EF2801843FA05F359410EE0A5F1A5
:1003700020050EF1200E012A03FA0EFC28BF4CF0D6
:10038000020C43FA05F3C01851EBE37101F000458C
:1003900007D54FF0000EDCF1000C7EEB00006EEB99
:1003A0000101B1F5801F1BD3B1F5001F0CD3490823
:1003B0005FEA30004FEA3C0C04F101044FEA44527A
:1003C00012F5800F80F09A80BCF1004F08BF5FEA01
:1003D000500C50F1000041EB045141EA050130BDE1
:1003E0005FEA4C0C404141EB0101013C28BFB1F5F3
:1003F000801FE9D291F0000F04BF01460020B1FA3E
:1004000081F308BF2033A3F10B03B3F120020CDA10
:100410000C3208DD02F1140CC2F10C0201FA0CF0EE
:1004200021FA02F10CE002F11402D8BFC2F1200C53
:1004300001FA02F120FA0CFCDCBF41EA0C01904009
:10044000E41AA2BF01EB0451294330BD6FEA040452
:100450001F3C1CDA0C340EDC04F11404C4F120023D
:1004600020FA04F001FA02F340EA030021FA04F34F
:1004700045EA030130BDC4F10C04C4F1200220FAA6
:1004800002F001FA04F340EA0300294630BD21FAE4
:1004900004F0294630BD94F0000F83F4801306BFAA
:1004A00081F480110134013D4EE77FEA645C18BF9E
:1004B0007FEA655C29D094EA050F08BF90EA020F35
:1004C00005D054EA000C04BF1946104630BD91EA2D
:1004D000030F1EBF0021002030BD5FEA545C05D130
:1004E0004000494128BF41F0004130BD14F580046F
:1004F0003CBF01F5801130BD01F0004545F0FE41E3
:1005000041F470014FF0000030BD7FEA645C1ABF17
:10051000194610467FEA655C1CBF0B46024650EA4E
:10052000013406BF52EA033591EA030F41F400217A
:1005300030BD00BF90F0000F04BF0021704730B500
:100540004FF4806404F132044FF000054FF00001D5
:1005500050E700BF90F0000F04BF0021704730B596
:100560004FF4806404F1320410F0004548BF40426B
:100570004FF000013EE700BF42004FEAE2014FEAC0
:1005800031014FEA02701FBF12F07F4393F07F4F9B
:1005900081F06051704732F07F4208BF704793F09E
:1005A0007F4F04BF41F40021704730B54FF46074B1
:1005B00001F0004521F000411CE700BF50EA0102B4
:1005C00008BF704730B54FF000050AE050EA01025D
:1005D00008BF704730B511F0004502D5404261EBCD
:1005E00041014FF4806404F132045FEA915C3FF40E
:1005F000D8AE4FF003025FEADC0C18BF03325FEAAB
:10060000DC0C18BF033202EBDC02C2F1200300FA5B
:1006100003FC20FA02F001FA03FE40EA0E0021FA80
:1006200002F11444BDE600BF70B54FF0FF0C4CF46E
:10063000E06C1CEA11541DBF1CEA135594EA0C0F20
:1006400095EA0C0F00F0DEF82C4481EA030621EA5B
:100650004C5123EA4C5350EA013518BF52EA033596
:1006600041F4801143F4801338D0A0FB02CE4FF048
:100670000005E1FB02E506F00042E0FB03E54FF078
:100680000006E1FB03569CF0000F18BF4EF0010E70
:10069000A4F1FF04B6F5007F64F5407404D25FEA6C
:1006A0004E0E6D4146EB060642EAC62141EA55511F
:1006B0004FEAC52040EA5E504FEACE2EB4F1FD0C61
:1006C00088BFBCF5E06F1ED8BEF1004F08BF5FEADF
:1006D000500E50F1000041EB045170BD06F0004691
:1006E00046EA010140EA020081EA0301B4EB5C043E
:1006F000C2BFD4EB0C0541EA045170BD41F4801136
:100700004FF0000E013C00F3AB8014F1360FDEBF5A
:10071000002001F0004170BDC4F10004203C35DA36
:100720000C341BDC04F11404C4F1200500FA05F3B9
:1007300020FA04F001FA05F240EA020001F000425A
:1007400021F0004110EBD37021FA04F642EB0601D0
:100750005EEA430E08BF20EAD37070BDC4F10C04FA
:10076000C4F1200500FA04F320FA05F001FA04F2BE
:1007700040EA020001F0004110EBD37041F10001AA
:100780005EEA430E08BF20EAD37070BDC4F12005B5
:1007900000FA05F24EEA020E20FA04F301FA05F21D
:1007A00043EA020321FA04F001F0004121FA04F2C5
:1007B00020EA020000EBD3705EEA430E08BF20EA95
:1007C000D37070BD94F0000F0FD101F000464000CF
:1007D00041EB010111F4801F08BF013CF7D041EA51
:1007E000060195F0000F18BF704703F00046520055
:1007F00043EB030313F4801F08BF013DF7D043EA26
:100800000603704794EA0C0F0CEA135518BF95EADB
:100810000C0F0CD050EA410618BF52EA4306D1D162
:1008200081EA030101F000414FF0000070BD50EA81
:10083000410606BF1046194652EA430619D094EA0B
:100840000C0F02D150EA013613D195EA0C0F05D1F5
:1008500052EA03361CBF104619460AD181EA030149
:1008600001F0004141F0FE4141F470014FF0000001
:1008700070BD41F0FE4141F4780170BD70B54FF09C
:10088000FF0C4CF4E06C1CEA11541DBF1CEA13551C
:1008900094EA0C0F95EA0C0F00F0A7F8A4EB0504FE
:1008A00081EA030E52EA03354FEA013100F08880F5
:1008B0004FEA03334FF0805545EA131343EA1263BE
:1008C0004FEA022245EA111545EA10654FEA002673
:1008D0000EF000419D4208BF964244F1FD0404F52C
:1008E000407402D25B084FEA3202B61A65EB030588
:1008F0005B084FEA32024FF480104FF4002CB6EB45
:10090000020E75EB030E22BFB61A754640EA0C00C4
:100910005B084FEA3202B6EB020E75EB030E22BF04
:10092000B61A754640EA5C005B084FEA3202B6EB45
:10093000020E75EB030E22BFB61A754640EA9C0004
:100940005B084FEA3202B6EB020E75EB030E22BFD4
:10095000B61A754640EADC0055EA060E18D04FEA92
:10096000051545EA16754FEA06164FEAC30343EA32
:1009700052734FEAC2025FEA1C1CC0D111F4801FFF
:100980000BD141EA00014FF000004FF0004CB6E7F8
:1009900011F4801F04BF01430020B4F1FD0C88BF97
:1009A000BCF5E06F3FF6AFAEB5EB030C04BFB6EBA2
:1009B000020C5FEA500C50F1000041EB045170BD95
:1009C0000EF0004E4EEA113114EB5C04C2BFD4EBC2
:1009D0000C0541EA045170BD41F480114FF0000E46
:1009E000013C90E645EA060E8DE60CEA135594EAC2
:1009F0000C0F08BF95EA0C0F3FF43BAF94EA0C0FC5
:100A00000AD150EA01347FF434AF95EA0C0F7FF439
:100A100025AF104619462CE795EA0C0F06D152EA8D
:100A200003353FF4FDAE1046194622E750EA410671
:100A300018BF52EA43067FF4C5AE50EA41047FF482
:100A40000DAF52EA43057FF4EBAE12E74FF0FF3CE7
:100A500006E000BF4FF0010C02E000BF4FF0010CB8
:100A60004DF804CD4FEA410C7FEA6C5C4FEA430C31
:100A700018BF7FEA6C5C1BD001B050EA410C0CBF80
:100A800052EA430C91EA030F02BF90EA020F0020E2
:100A9000704710F1000F91EA030F58BF994208BF49
:100AA00090422CBFD8176FEAE37040F00100704706
:100AB0004FEA410C7FEA6C5C02D150EA013C07D15D
:100AC0004FEA430C7FEA6C5CD6D152EA033CD3D0A8
:100AD0005DF8040B704700BF8446104662468C46A2
:100AE0001946634600E000BF01B5FFF7B7FF0028D5
:100AF00048BF10F1000F01BD4DF808EDFFF7F4FFFE
:100B00000CBF012000205DF808FB00BF4DF808ED88
:100B1000FFF7EAFF34BF012000205DF808FB00BFAB
:100B20004DF808EDFFF7E0FF94BF012000205DF8CD
:100B300008FB00BF4DF808EDFFF7CEFF94BF012082
:100B400000205DF808FB00BF4DF808EDFFF7C4FF7B
:100B500034BF012000205DF808FB00BF4FEA410CC4
:100B60007FEA6C5C02D150EA013C0AD14FEA430CA7
:100B70007FEA6C5C02D152EA033C02D14FF00000E4
:100B800070474FF0010070474FEA410212F5001222
:100B900015D211D56FF47873B3EB625212D94FEAC4
:100BA000C12343F0004343EA505311F0004F23FAAE
:100BB00002F018BF404270474FF00000704750EA03
:100BC000013005D111F0004008BF6FF000407047C0
:100BD0004FF00000704700BF4A0011D212F500121A
:100BE00011D20DD56FF47873B3EB62520ED44FEA85
:100BF000C12343F0004343EA505323FA02F0704705
:100C00004FF00000704750EA013002D14FF0FF3042
:100C100070474FF0000070474FEA4102B2F1E043E5
:100C200024BFB3F5001CDCF1FE5C0DD901F0004CD3
:100C30004FEAC0024CEA5070B2F1004F40EB830023
:100C400008BF20F00100704711F0804F21D113F14F
:100C50003872BCBF01F00040704741F480114FEA88
:100C60005252C2F11802C2F1200C10FA0CF320FA11
:100C700002F018BF40F001004FEAC1234FEAD3232E
:100C800003FA0CFC40EA0C0023FA02F34FEA430398
:100C9000CCE77FEA625307D150EA01331EBF4FF021
:100CA000FE4040F44000704701F0004040F0FE403C
:100CB00040F40000704700BF7BB972B90029BEBF85
:100CC00000204FF0004106E008BF00281CBF6FF075
:100CD00000414FF0FF3000F0FFB9ADF1080C6DE9B5
:100CE00004CE002909DB002B1ADB00F097F8DDF8B1
:100CF00004E0DDE9022304B07047404261EB4101AA
:100D0000002B1BDB00F08AF8DDF804E0DDE90223AC
:100D100004B0404261EB4101524263EB4303704730
:100D2000524263EB430300F079F8DDF804E0DDE9BB
:100D3000022304B0404261EB41017047524263EB31
:100D4000430300F06BF8DDF804E0DDE9022304B0B2
:100D5000524263EB4303704753B94AB9002908BFB5
:100D600000281CBF4FF0FF314FF0FF3000F0B4B946
:100D7000ADF1080C6DE904CE00F050F8DDF804E0A8
:100D8000DDE9022304B07047430803F05533C01A6D
:100D9000830803F0333300F03330184400EB1010B5
:100DA00000F00F3000EB002000EB0040000E704719
:100DB00038B50022002304460D46FFF7A7FE28B9E8
:100DC00020462946BDE8384000F00AB8204605F123
:100DD000004100F005F8404261EB410138BD00BF21
:100DE000D0B50C4B002206460F46FFF71DFCFFF75F
:100DF000F3FE0446FFF79EFB074B0022FFF714FCAF
:100E000002460B4630463946FFF756FAFFF7E4FE36
:100E10002146D0BD0000F03D0000F0412DE9F04733
:100E2000089D0C46002B4ED194468C458646B2FA5E
:100E300082F262D94AB1C2F12003914020FA03F351
:100E40000CFA02FC194300FA02FE4FEA1C471FFA93
:100E50008CF6B1FBF7F44FEA1E4307FB141143EA8B
:100E6000014304FB06F199420AD91CEB030304F188
:100E7000FF3080F01281994240F20F81023C6344BE
:100E8000591A1FFA8EF3B1FBF7F007FB101143EA72
:100E9000014300FB06F69E420AD91CEB030300F156
:100EA000FF3180F0FC809E4240F2F98063440238BA
:100EB0009B1B40EA044000211DB1D3400022C5E93C
:100EC0000032BDE8F0878B4205D90DB1C5E90001BC
:100ED00000210846F5E7B3FA83F1002946D1A34281
:100EE00002D39042C0F0F080861A64EB0303012025
:100EF000002DE6D0C5E90063E3E7002A40F09080CA
:100F0000A1EB0C044FEA1C481FFA8CF70121B4FB3B
:100F1000F8F64FEA1E4308FB164443EA044307FB76
:100F200006F0984208D91CEB030306F1FF3402D205
:100F3000984200F2CD8026461C1A1FFA8EF3B4FBAD
:100F4000F8F008FB104443EA044300FB07F79F4214
:100F500008D91CEB030300F1FF3402D29F4200F2D8
:100F6000B0802046DB1B40EA0640A5E7C1F1200621
:100F70008B4022FA06F71F4320FA06FC04FA01F31D
:100F800043EA0C03F44000FA01F8380C4FEA134925
:100F9000B4FBF0FE1FFA87FC00FB1E4449EA044440
:100FA0000EFB0CF9A14502FA01F20AD93C190EF127
:100FB000FF3A80F08480A14540F28180AEF1020EBC
:100FC0003C44A4EB09041FFA83F9B4FBF0F300FBE3
:100FD000134449EA044403FB0CFCA44507D93C191B
:100FE00003F1FF3067D2A44565D9023B3C4443EA94
:100FF0000E40A0FB0293A4EB0C049C42CE469C4600
:1010000051D34ED055B1B8EB0E0364EB0C0404FA87
:1010100006F6CB401E43CC40C5E90064002150E7F2
:10102000C2F1200320FA03F10CFA02FC24FA03F3C4
:1010300094400C434FEA1C4800FA02FE1FFA8CF75A
:10104000B3FBF8F008FB1031230C43EA014300FB2B
:1010500007F1994208D91CEB030300F1FF362CD2AB
:1010600099422AD9023863445B1AA4B2B3FBF8F15F
:1010700008FB113344EA034401FB07F3A34208D9F8
:101080001CEB040401F1FF3613D2A34211D902393B
:101090006444E41A41EA004139E70446F0E60846B0
:1010A00006E7C845AED2B9EB020E63EB070C013878
:1010B000A8E73146EDE7034699E73046D4E7D64640
:1010C0007FE7634402384DE70646234608460FE7AC
:1010D000023E634430E700BF704700BF08B50022FE
:1010E0004FF48051014805F0C2FA08BD00040240E7
:1010F00008B501224FF48051014805F0B8FA08BD47
:101100000004024008B500224FF40041014805F0F8
:10111000AEFA08BD0000024008B501224FF40041BC
:10112000014805F0A4FA08BD0000024010B58EB0D9
:10113000484B93E803000C90ADF834100DF1240CEB
:1011400003F1080494E807008CE80700143393E8DF
:1011500003000790ADF8201004AB94E8070083E883
:1011600007006FE000231A4601A93B48006807F01A
:1011700034FB00240EE000220EAB03EB440333F8F3
:10118000081C0EAB03EB840353F8140C05F06FFA44
:101190000134E4B2022C5BD804F138036B4413F839
:1011A000343C002BE7D001220EAB03EB440333F8B1
:1011B000081C0EAB03EB840353F8140C05F057FA2C
:1011C000E6E70EAB03EB440203EB840332F8081CA2
:1011D00053F8140C05F044FA04F138036B4403F897
:1011E000300C0134E4B2022CEBD91C4C206807F01F
:1011F00042FB00231A4602A9206807F0ACFA00243B
:1012000011E00EAB03EB440203EB840332F81C1C29
:1012100053F8280C05F024FA04F138036B4403F862
:101220002C0C0134E4B2022CEBD90D4C206807F0F1
:1012300022FB00231A4603A9206807F08CFA01203C
:1012400007F091F9044B186807F008FB002889D1D2
:101250000024C8E7F85C03089C080020A0080020D0
:10126000A408002084B008B50DF1080C8CE80F002C
:1012700000231A4661460448006807F06CFABDE88E
:10128000084004B0704700BF9408002070B58AB0D1
:101290004FF47A7007F067F906F0FEFF642007F05C
:1012A00062F90021012006F05BFF002006F01CFF20
:1012B000484C01222146484806F0A6FF012221465B
:1012C000464806F0A1FF0B21012006F049FF01224C
:1012D0002146434806F098FF1621012006F040FF02
:1012E000012221463F4806F08FFF2121012006F010
:1012F00037FF3D4B59680A784B788878CD780E795E
:1013000049790391029601950090384905A81AF091
:10131000A5FF0122214605A806F076FF07F066F832
:1013200040F6B83008F08AFC002503E04FF47A70EC
:1013300007F019F90021012006F012FF002006F045
:10134000D3FE244C01222146294806F05DFF264B9E
:101350005B689A68130E0193C2F307430093C2F3CC
:101360000723D2B2234905A81AF078FF01222146AB
:1013700005A806F049FF0A21012006F0F1FE01222E
:1013800021461D4806F040FF01352A461B4905A8A5
:101390001AF064FF0122214605A806F035FF07F088
:1013A00025F84FF47A7301227821154805F0B4FC32
:1013B0000028BBD0124805F0D9FB4FF47A7008F032
:1013C0003DFC00F0FFFC4FF47A7008F037FC06F0AB
:1013D00063FFE6E70C010020745F0308805F0308E9
:1013E0008C5F0308985F0308C0080020A05F030813
:1013F000C05F0308C45F0308D45F0308DCB40308BC
:10140000C808002070B5BAB000233993794B7A4AE6
:101410007A497B4804F0BEFC7A497B4809F0DEFC3F
:1014200000283BDB794809F0C7FC794C204609F0DD
:10143000B7FC784809F0B4FC204609F0BDFC7648BA
:1014400009F0BAFC754809F0B7FC754809F0B4FC1E
:10145000744809F0B1FC002239A9734809F0F4FB83
:10146000F8B10121704809F02DFC0446C62207A9F5
:1014700009F058FC204609F049FC00228DF81C2098
:10148000022307A96948006807F0CCFB002239A9AC
:10149000674809F0D9FB88B1002482E004F070FFAE
:1014A000C0E7C622002107A81BF09AFA02230022F7
:1014B00007A95E48006807F0B5FBE7E740F29A60CD
:1014C00009F05AFA044690B35A49012000F022FD6F
:1014D000594B186820609B88A38001AD574E0FCEF2
:1014E0000FC596E8030045F8040B297001AD0FCD38
:1014F000C4F88000C4F88410C4F88820C4F88C3084
:101500002868C4F890002B7984F894300221484868
:1015100009F0D8FB054640F29A62214609F00EFC1C
:10152000284609F0F3FB204609F0A8FAB4E744493D
:10153000032000F0EFFCF6E73B4D284609F030FCB5
:101540000221284609F0BEFB0546002833D0C622FA
:1015500007A909F0F3FB284609F0D8FB00228DF813
:101560001C20022307A93148006807F05BFB22E03A
:10157000012006F0F8FF4FF48071324805F070F852
:101580000028F5D04FF47A7006F0EDFF284809F0F6
:1015900007FC04F0F5FE00E000244FF47A7006F03A
:1015A000E2FF002207A9214B186807F04EFE9DF8C4
:1015B0001C30002BC0D14FF48071224805F050F848
:1015C0000028E9D10134E4B21E4D0122022128464F
:1015D00005F04DF8642006F0C6FF002202212846DF
:1015E00005F045F8082CD8D101220221284605F043
:1015F0003EF8C0E7411801086518010819110108F3
:1016000005110108911801087D180108D85F030829
:10161000E05F0308EC5F0308FC5F03080860030851
:10162000587A03081060030818600308980800201F
:101630002C60030868600308A0600308A860030822
:101640003C6003080004024008B5012914D00229B7
:101650001AD001B108BD4AB1012AFBD102230022F0
:1016600001461248006807F0DDFAF3E701460F4B28
:10167000186807F0EAFDEDE7002AEBD101460C4BB4
:10168000186807F0E2FDE5E74AB1012AE2D102233A
:10169000002201460748006807F0C4FADAE701466D
:1016A000054B186807F0D1FDD4E700BF980800206B
:1016B000A40800209C080020A008002030B5D1B06C
:1016C000414800F01BFC012000F01EFC3F490120B6
:1016D00000F020FC03E04FF4FA7006F044FF09F03C
:1016E00077FB0028F7D04FF4FA6448E000231A464D
:1016F00007A93748006807F070F80221354809F05B
:10170000E1FA05469DF81D210DF11D0109F016FBBA
:10171000284609F0FBFA38E048A809F0EDF94E9B9D
:1017200004934D9B03934C9B02934B9B01934A9BC9
:101730000093499B489A2849012000F0EBFB274C75
:1017400063689A68130E0193C2F307430093C2F3D0
:101750000723D2B22249012000F0DCFB61680A783D
:101760004B788878CC780D7949790391029501946A
:1017700000901C49012000F0CDFB00240134144BE3
:10178000186807F06BF80028B0D14FF4FA7006F033
:10179000EAFEB4F5FA6FF1D100224FA90D4809F025
:1017A00053FA4F9A4CF250339A42B5D90E4C204618
:1017B00009F0F6FA2146074809F0E6FA0B4901203C
:1017C00000F0A8FBA8E700BF65120108C06003088D
:1017D00094080020D460030808610308C0080020B2
:1017E0009C610308B8610308E4600308F46003081F
:1017F00008B5064805F086FB4FF4FA7006F0B3FE14
:101800000121034804F039FFF3E700BF1C09002061
:101810000004024000B587B08DF80F104FF0FF3381
:10182000009301230DF117020DF10F01034806F09B
:10183000F8F89DF8170007B05DF804FB2C090020AC
:1018400000B583B08DF807004FF0FF3301220DF192
:101850000701034806F003F803B05DF804FB00BF7E
:101860008409002008B50A464FF0FF3301460248BC
:1018700006F001FA08BD00BF8409002008B54FF04A
:10188000FF31024B186806F0C5FE08BD8C08002029
:1018900008B5024B186806F0ECFE08BD8C08002065
:1018A00008B52C4806F06DFE2B4B18602B4806F04F
:1018B00068FE2B4B18602B4A0321012006F000FF25
:1018C000294B1860294A0321012006F0F9FE284B14
:1018D0001860284A0321012006F0F2FE264B18600A
:1018E000264AC621012006F0EBFE254B1860254A4A
:1018F0004FF481710F2006F0E3FE234B1860234A5A
:101900000021234806F0D0FD224B1860224A002116
:10191000224806F0C9FD224B1860224A00212248C5
:1019200006F0C2FD214B1860214A0021214806F033
:10193000BBFD214B1860214A0021214806F0B4FD6F
:10194000204B1860204A0021204806F0ADFD204BB6
:10195000186008BDC862030890080020B862030838
:101960008C08002038630308A408002020630308C3
:10197000A0080020086303089C080020F062030808
:1019800098080020D8620308940800200464030823
:10199000FD190108BC080020E06303082D110108AF
:1019A000B8080020BC6303088D120108B4080020A9
:1019B0009863030805140108B00800207463030845
:1019C000BD160108AC08002050630308F117010898
:1019D000A808002008B500224FF48071014804F0E7
:1019E00046FE08BD0000024008B501224FF4807198
:1019F000014804F03CFE08BD0000024030B5EBB0E9
:101A000022AD644B0FCB85E80F0002AC8022002191
:101A100020461AF0E5FF40238DF8083022238DF888
:101A200009305D4B1A7C8DF80A209A7C8DF80B20CA
:101A30001A7D8DF80C201B7E8DF80D3001238DF85A
:101A400027308DF82830554B0B930C95544B58AAE2
:101A50001A605C6003E04FF4FA7006F084FD09F050
:101A6000B7F90028F7D058A811F0ACFD4D4B032270
:101A70001A6002F06FFF04460FE0FFF7ABFF4FF470
:101A8000FA7006F070FDFFF7AFFF4FF4FA6006F052
:101A90006AFD02A958A817F0C5F9BDF84C30002B13
:101AA000EBD0062102A803F081FB3F4802F060FF63
:101AB0003B4B22463D4958A815F0E2FB06E00121C8
:101AC00058A817F049FF012006F04DFD9DF884301D
:101AD000032BF4D1324B5B689A68130E0193C2F367
:101AE00007430093C2F30723D2B23149012000F02B
:101AF00011FA0022114626A8FFF7A6FD9DF899309D
:101B0000EBB12C49012000F005FA274B01930DF2AF
:101B10003D13009347AB0DF19A0202A958A803F0B8
:101B200083FA58A803F018FF02A958A804F0E0F8B7
:101B300058A801F053F807F073FF054608E01E4966
:101B4000012000F0E7F9ECE7012006F00CFD254646
:101B500007F066FF0446411B58A817F0FDFE0B9BDB
:101B6000DB6802A898470028EED1FFF733FF642016
:101B700006F0F9FCFFF738FF40F6B83006F0F3FC4A
:101B80000B9B1B6802A8984741F6583006F0EBFC07
:101B9000E5E700BF145D0308007AFF1F180100206D
:101BA000C00800202C01002049160108E06103084C
:101BB0009C610308F46103080C6203080BB2002B5C
:101BC00020DD70B582B0064615468B18042B02DD69
:101BD000012002B070BD4C1EA4B20022012101A858
:101BE000FFF732FD0AE004F108036B4413F8043CEC
:101BF0000122A1B2304600F047FE0134A542F2DCDA
:101C00000020E6E701207047F0B583B016460AB21F
:101C1000002A43DD05461F468B19042B41DC27B300
:101C2000012F39D101398CB20022022101A8FFF71E
:101C30000BFD27460FE00122B9B2284600F058FEFE
:101C400001220021284600F053FE07F108036B44EF
:101C500003F8040C01373319BB42ECDC01220221EA
:101C600001A8FFF7F1FC002019E04C1EA4B20022ED
:101C7000022101A8FFF7E8FC0AE004F108036B4425
:101C800013F8043C0122A1B2284600F0FDFD013406
:101C9000A642F2DC384602E0012000E0012003B059
:101CA000F0BD0120FBE701207047012070470000D4
:101CB0002DE9F04389B0002403940494059406941C
:101CC000079400943C4B1A6B42F080021A631A6B23
:101CD00002F080020092009A01941A6B42F0010215
:101CE0001A631A6B02F001020192019A02941A6BB4
:101CF00042F002021A631B6B03F002030293029B81
:101D00002E4E22464FF4F071304604F0B0FC2C4DBC
:101D100022460721284604F0AAFC01224FF48051F4
:101D2000284604F0A4FC01224FF40041304604F0A0
:101D30009EFC4FF00709CDF80C9004944FF0020878
:101D4000CDF8148003A9304604F01EFBE023039372
:101D5000012704970594069403A9304604F014FB68
:101D6000CDF80C9004970594069403A9284604F036
:101D70000BFB4FF48053039304970594CDF8188020
:101D800003A9284604F000FB4FF401430393049792
:101D90000594CDF8188003A9304604F0F5FA4FF405
:101DA000807303930494059403A9284604F0ECFA85
:101DB00009B0BDE8F08300BF0038024000000240D7
:101DC0000004024008B50B480B4B03600B4B43600B
:101DD00000238360C3604FF48042026143618361EA
:101DE000C361036204F0E4FD00B908BD00F03CF9F2
:101DF000FBE700BFC808002000540040400D03006E
:101E000030B589B000230393049305930693079399
:101E10000268154B9A4201D009B030BD00250195EA
:101E2000124C236B43F002032363236B03F0020382
:101E30000193019BC0230393122304930123059371
:101E4000032306930423079303A9094804F09CFA8B
:101E50000295236C43F400132364236C03F40013F2
:101E60000293029BD8E700BF0054004000380240B4
:101E70000004024002680A4B9A4200D0704710B535
:101E8000084A136C23F400131364074C40212046C6
:101E900004F05EFB8021204604F05AFB10BD00BF19
:101EA00000540040003802400004024008B50748D2
:101EB000074B03600323436040F6FF73836004F025
:101EC000F5FF00B908BD00F0CFF8FBE71C090020C2
:101ED0000030004084B08DE80F0004B0704738B582
:101EE00001FB00F4204608F047FD054618B12246E4
:101EF00000211AF075FD284638BD000008B1014ADE
:101F00001060704700000020014B1870704700BF40
:101F1000280900200EB4F0B5ADF51C7D444B1B78AC
:101F2000834205D90DF51C7DBDE8F04003B0704734
:101F3000044601214FF48070FFF7D1FF05460028C9
:101F4000F0D04FF4817200215BA81AF049FD8DF8A2
:101F50006C4117F095FDFEF731FB06460F46002257
:101F6000344BFEF78BFCFEF723FFCDE958014FA958
:101F700058A81AF0CBFD4FAB2F4A40213FA81BF0C9
:101F8000D7FB044630463946FEF7FEFD2B4A82FB5E
:101F90000032C317C3EBA2134FF47A7202FB130390
:101FA000274AC4F140013FA8204419F0EFFF044440
:101FB000631C20223FA90A550022CA54A2AB5A939F
:101FC0000DF26D16A19AFD2130461AF0A7FA0446CB
:101FD0009DF86C2101961B4B53F8223000933FABC8
:101FE000194A4FF48071284619F0D0FFF52C1BD800
:101FF0002846FEF755F98DF86D024FF48072294698
:102000000DF26D101AF033FD104B1E6846B15BAC3B
:10201000F2225FA968461BF01FFF94E80F00B0474B
:10202000284608F02BFD7DE7F6238DF86D32E4E7B6
:102030002809002000408F4028640308D34D621017
:102040003C640308040000204464030800000020EE
:1020500008B50268034B9A4200D008BD04F0F0F8BE
:10206000FBE700BF0040014072B6FEE700B595B047
:102070003022002108A81AF0B3FC00230393049334
:102080000593069307930193204A116C41F0805108
:102090001164126C02F080520192019A02931C4B5F
:1020A0001A6842F440421A601B6803F440430293EA
:1020B000029B092308934FF48033099301230D9366
:1020C00002220E924FF480030F9304231093642195
:1020D00011911292139308A804F01AFF88B90F23E4
:1020E000039302230493002305934FF48052069236
:1020F0000793032103A805F075F920B915B05DF821
:1021000004FBFFF7B1FFFFF7AFFF00BF003802404D
:102110000070004000B583B072B6114B114A9A604E
:1021200062B6114B019302E0019B013B0193019BBD
:10213000002BF9DC04F06AF8FFF798FFFFF7B8FD11
:1021400000F036F8FFF73EFE00F010F8FFF7AEFEA5
:1021500006F07CF9FFF7A4FB06F08AF9FEE700BF62
:1021600000ED00E00000010840420F0008B50E48F5
:102170000E4B03604FF48273436000238360C3609F
:10218000036143614FF4007282610822C2610362FD
:10219000436283620A23C36205F002FB00B908BDF3
:1021A000FFF762FFFBE700BF840900200030014019
:1021B00008B50D480D4B03604FF482734360002354
:1021C0008360C360036143614FF400728261C36145
:1021D0000362436283620A23C36205F0E1FA00B935
:1021E00008BDFFF741FFFBE72C0900200038004045
:1021F00000B58BB0002305930693079308930993CA
:102200000368284A934205D0274A934225D00BB051
:102210005DF804FB00210191244B5A6C42F480527A
:102220005A645A6C02F480520192019A02911A6B1C
:1022300042F002021A631B6B03F002030293029B3B
:102240003823059302230693032308930523099358
:1022500005A9174804F098F8D9E700210391134B1A
:102260001A6C42F480421A641A6C02F4804203929F
:10227000039A04911A6B42F002021A631B6B03F07B
:1022800002030493049B4FF46043059302230693D7
:10229000032308930523099305A9054804F074F85E
:1022A000B5E700BF00300140003800400038024070
:1022B0000004024000B583B0002200920D4B596C1F
:1022C00041F480415964596C01F4804100910099B6
:1022D0000192196C41F0805119641B6C03F080531A
:1022E0000193019B0F216FF0010004F035F803B05A
:1022F0005DF804FB0038024030B589B00546002483
:1023000001941D4B5A6C42F480325A645B6C03F4A6
:1023100080330193019B02A903A805F039F905F068
:1023200027F9164AA2FB00239B0C013B1448154ACF
:10233000026040F2E732C2604360046184608461FD
:1023400005F0A4FE044610B1204609B030BD0C488B
:1023500005F056FD04460028F6D1182004F00CF8CC
:102360000F2D01D90124EFE700222946182003F0A0
:10237000F3FF054B1D60E7E70038024083DE1B4397
:10238000DC0900200040014008010020FEE7FEE7D4
:10239000FEE7FEE7FEE7704708B5024805F070FD6E
:1023A00008BD00BFDC0900200120704708B51BF004
:1023B0001BFD162303604FF0FF3008BD08B54FF03A
:1023C000FF31FFF7F3FFFEE770B50C461646002518
:1023D00006E0AFF30080214601F8010B01350C4601
:1023E000B542F6DB304670BD70B50C46164600258A
:1023F00004E014F8010BAFF300800135B542F8DBBF
:10240000304670BD4FF0FF3070474FF400534B60C3
:1024100000207047012070470020704710B5034628
:102420000C4A0D490D48006840B10C48006803444F
:10243000521A934206D8094A136010BD0748084C47
:102440000460F2E71BF0D0FC0C2303604FF0FF3078
:10245000F3E700BF0000022000080000280A002067
:1024600018A20120034AD2F8883043F47003C2F85E
:102470008830704700ED00E0DFF834D0FFF7F2FF5E
:102480000C480D490D4A002302E0D458C4500433CF
:10249000C4188C42F9D30A4A0A4C002301E01360A5
:1024A0000432A242FBD31BF0ADFCFFF733FE7047B2
:1024B00000000220000000207008002054C403081F
:1024C0007008002018A20120FEE738B50B88052B04
:1024D00001D0032038BD0C464378817841EA0321BE
:1024E000013189B2C378027942EA0322531E9BB2BA
:1024F00040F2CE7C634520D8002323800123037063
:1025000023880133238012F0070F10D0C2F3C703D2
:102510000133DDB24570238801332380002302306C
:10252000FFF772FB30B923882B442380D2E7C2F334
:10253000C705EFE700F0F0F9CCE70320CAE70B8806
:10254000052B01D0032070474378817841EA0321AD
:10255000013189B20379F3B9C278531EDBB2FD2B86
:102560001BD900B583B000238DF80530FF2A0BD0AE
:1025700000238DF8043001231A4601A8FFF744FB1D
:1025800030B903B05DF804FB01238DF80430F2E7A5
:1025900000F0C2F9F5E703207047032070470B886D
:1025A000052B2DD910B50C464278837843EA0223D7
:1025B000013399B2C278037943EA022290F805E028
:1025C00013F0070F0ED0C2F3C70C0CF1010C5FFA29
:1025D0008CFC531E9BB2B3F5F66F13D2F44504D0B6
:1025E000032010BDC2F3C70CF3E701230630FFF749
:1025F0000BFB10B905232380F3E700F08DF9F0E71A
:10260000032070470320ECE738B50B88052B01D079
:10261000032038BD0C464378817841EA032101311B
:1026200089B2C378027942EA0322531E9BB240F278
:10263000CE7C63451FD800232380022303702388A8
:102640000133238012F0070F0FD0C2F3C703013309
:10265000DDB245702388013323800230FFF7AEFAE4
:1026600030B923882B442380D3E7C2F3C705F0E7B2
:1026700000F052F9CDE70320CBE708B50B88052B16
:1026800001D0032008BD4378817841EA032101315C
:1026900001231A4689B20330FFF707FB0028F1D067
:1026A00000F03AF9EEE70B88052B22D910B50C465D
:1026B0004278837843EA0223013399B2C3780279DE
:1026C00042EA032290F805C0531E9BB2772B12D822
:1026D0005300DBB2634501D0032010BD0123063057
:1026E000FFF7E3FA10B905232380F6E700F014F9A9
:1026F000F3E7032070470320EFE738B50B88052B7D
:1027000001D0032038BD02460C464378817841EA67
:102710000321013189B205796B1E9BB27C2B01D953
:102720000320EFE7002323804FF0030C00F802CBD7
:10273000B4F800C00CF1010CA4F800C04FEA450C3D
:1027400082F801C02288013222802A46FFF7ADFAC2
:1027500020B9238803EB45032380D3E700F0DCF89E
:10276000D0E7F8B50B88092B43D904460D464378CA
:10277000817841EA032101318EB2C378077947EAB3
:1027800003274379817941EA0321013189B2C37971
:10279000027A42EA0322407A7B1E9BB27C2B2AD823
:1027A0005AB3792A2BD8B0EB420F01D0032021E095
:1027B000012304F10A00FFF778FA0346B0B9288034
:1027C0002046172200F8022B2A8801322A807A003C
:1027D00062702A8801322A803A463146FFF765FA4C
:1027E00020B92B8803EB47032B8003E000F094F81B
:1027F00000E00020F8BD0320FCE70320FAE70320F7
:10280000F8E70A88052A01D00320704738B5034647
:102810000C464278817841EA0221013189B2C278BE
:10282000057945EA02256A1E92B27B2A01D9032066
:1028300038BD00222280042200F8022B22880132B7
:1028400022806A005A702388013323802A46FFF7CA
:102850002AFA20B9238803EB45032380E8E700F038
:102860005BF8E5E738B50D46054B1C88224605495F
:1028700001301BF0F1FA01342C80002038BD00BF7C
:102880002C0A0020300A002010B5082A23D84FEA6D
:10289000D10E01F0070403FA04F44FF0010C0CFA16
:1028A00002F292B2013A92B201F0070102FA01F18A
:1028B00010F80E300EEB0C0210F802C043EA0C23A5
:1028C0001BB223EA01031BB2234300F80E30C3F30B
:1028D0000723835410BD034B034A3721034817F0E5
:1028E0002DFB00BF88640308E064030898640308B4
:1028F0004FEAD10C012393409BB2013B10F80C200E
:102900006044407842EA002201F007010A4192B295
:1029100003EA0200C0B27047012805D0072805D09D
:1029200008B10420704770470220704706207047A6
:1029300010B500F0CEF9044620B1114B01221A70F7
:10294000204610BD00F0CAF8C0B10E4B0E4A1A6006
:102950000E4B0F4A1A600F4B0F4A1A600F4B104A6A
:102960001A60104B00221A600F4BFF221A700F4B97
:1029700002221A70024B01221A70E1E70324DFE7FA
:102980009C000020680A0020E32C0108640A002053
:10299000E52C0108600A0020ED2C01086C0A0020DB
:1029A0002D2D01085C0A0020710A0020700A002009
:1029B00008B5064B1B78012B01D0062008BD044B3F
:1029C0001B6898470020014B1870F7E79C00002017
:1029D000680A002030B583B0364B1C78002C63D1D8
:1029E0000DF1070000F08EF8012802D0204603B058
:1029F00030BD9DF80730012B14D0022BF6D12E4BA1
:102A0000186801782D4B19702D4B01221A70002384
:102A10000F2B25DC2B4A12F833200AB3914217D032
:102A20000133F5E7284B1B68284A23492848984773
:102A300005460028DAD1264B1B78264A12789342A5
:102A400001D0002B32D1022000F050F82C46CDE707
:102A50001C4A02EBC3035B681C499847184B18706B
:102A60001B4B1B7823B3164B1B789BB1174A0021D5
:102A7000118012490978104805684FF0010CA2F83E
:102A800000C041F0800129700068118801EB0C053D
:102A900015804354104B1B680C4A1288064909687C
:102AA0000C4800789847A1E706249FE704469DE775
:102AB0001C469BE79C000020540A0020510A00207D
:102AC000500A00201C000020600A0020520A00204A
:102AD000580A0020710A00206C0A0020024B0022D4
:102AE0001A700120704700BF720A00200123034AB8
:102AF0001370034A10701846704700BF720A002016
:102B0000730A00200346054A107830B1044A12784F
:102B10001A70024B00221A7001207047720A0020BE
:102B2000730A0020072900D0704738B504461E4BB1
:102B300000F11C0293E8030013F0F0FA012806D01C
:102B400094F8AD3043F0200384F8AD3038BD226CEA
:102B500093B216490B8033B994F8AD3043F020039B
:102B600084F8AD30F2E71A46A16B11481BF074F9F6
:102B70000120FFF7BBFFFFF72DFFFFF72BFF0D4BEA
:102B80001B7833B994F8AD3043F0200384F8AD30AE
:102B9000DCE70025074B1D70074B1A8807492046C4
:102BA00014F0D6FB2564D1E7740A002080120020BF
:102BB000841200207C0A00207E0A0020800A002067
:102BC00038B501FB00F4204607F0D6FE054618B1E3
:102BD0002246002119F004FF284638BD30B583B0E5
:102BE0000023244A244914F0C7FA0020FFF7A0FE6E
:102BF000FFF7DEFE0022019201A9204808F024F828
:102C00000198421E40F2FE339A4215D80121084431
:102C1000FFF7D6FF1A4D28600121184808F052F836
:102C20000446019A296808F07DF8019B6B602046F4
:102C300008F06CF803B030BD01210B20FFF7C0FF96
:102C400003460F4C20600B2262600E4A03CA1860D4
:102C500059601188927819819A720221074808F008
:102C600031F805466268216808F068F8284608F0DF
:102C70004DF8DFE7252B0108F0640308046503081D
:102C8000740A00201865030801207047044B036094
:102C9000044B1A880A8000221A800120704700BF66
:102CA000841200208012002010B50C460A4601460E
:102CB00004481BF0D1F8044B1C800120034B187012
:102CC00010BD00BF800A00207E0A00207C0A002080
:102CD000704708B5FFF7D8FF08B1002008BD0320F2
:102CE000FCE7704708B5FFF7F3FF08BD70B582B089
:102CF00006460D4614460DF1020101A8FFF7C6FF76
:102D000080B1019B9978DA7852EA01220CD107331D
:102D10002B60BDF80230073B2380FF233370002077
:102D200002B070BD0520FBE70520F9E708B50846AD
:102D3000D11D531C1B1200F8033C013200F8022C79
:102D400089B20738FFF7B0FF08B1002008BD0520A1
:102D5000FCE7000008B5034B034AC82111F046F90F
:102D600008BD00BF3CAE03082465030870B584B0FD
:102D700005460C4602AE1049304611F0C1FA002358
:102D8000009396E80C0094E8030011F0DBFC58B1C6
:102D90000A4B01930A4B00930A4B0B4AC821284661
:102DA00011F024F904B070BD084B074A40F29511A8
:102DB000284611F01BF9F5E7C4650308706603089F
:102DC00074660308C865030800660308786603088C
:102DD00070B588B005460C4606AE1349304611F072
:102DE0008FFA0023009396E80C0094E8030011F09A
:102DF000A9FC88B10D4B04930D4B03930D4B02932B
:102E00000D4B01930D4B00930D4B0E4AC8212846E4
:102E100011F0ECF808B070BD0B4B0A4A40F2951166
:102E2000284611F0E3F8F5E7C465030834670308A2
:102E3000486703085467030870660308746603084C
:102E4000C8660308006603087866030870B584B096
:102E500005460C4602AE1449304611F051FA0023E3
:102E6000009396E80C0094E8030011F06BFC98B115
:102E70000E4B1B6A0E48984738B10E4B0E4AC821BC
:102E8000284611F0B3F804B070BD0C4B0A4AC821B3
:102E9000284611F0ABF8F6E7094B074A40F29511C6
:102EA000284611F0A3F8EEE75C670308A0000020B5
:102EB000EC5F03086467030800660308A067030863
:102EC000E467030870B584B005460C4602AE1249AB
:102ED000304611F015FA0023009396E80C0094E8B0
:102EE000030011F02FFC78B10C4E336A0C4C2046D5
:102EF0009847736A204698470A4B0B4AC8212846D0
:102F000011F074F804B070BD084B074A40F29511F7
:102F1000284611F06BF8F5E75C670308A000002075
:102F2000D85F03083468030800660308E4670308F1
:102F3000F0B5C3B006460D46002422947C273A46DD
:102F4000214623A819F04CFD02943A46214603A8D5
:102F500019F046FD8022009202AB22A9284612F009
:102F6000F7F89DF8883013B19DF8082062B913B9BD
:102F70009DF808304BBB214B214A4FF4CA713046B3
:102F800011F034F843B0F0BD1E4B1D4A4FF4CA7126
:102F9000304611F02BF8F5E7B82303FB04F41A4F81
:102FA000E5192A4619490120FEF7B4FF002385F8E8
:102FB000803000200021C5E92C013B55144B104AFC
:102FC000C821304611F012F8DCE70024092C0CDC93
:102FD000B82304FB03F3803302A90B481844FDF720
:102FE000FFF80028D8D00134F0E70A4B044A4FF428
:102FF000CA71304610F0FAFFC4E700BF80690308C9
:10300000006603087C680308881A0020FC6803082F
:10301000106903084C69030830B5C7B005460C4673
:1030200090F8AC3013F0400224D0144B04F180012E
:1030300012B3134A1348029001920091124A4FF4BE
:10304000807106A810F0D4FA0594002204920F4B68
:1030500003930F490291019200930E4B06AAC821D7
:10306000284610F0C3FF22460B490120FEF752FF0D
:1030700047B030BD094BD9E7094ADBE7F8690308D7
:103080001C6A030800A30200286A0308AD2702088F
:10309000A07A03086C6A0308746A03080C6A0308C0
:1030A000806C03082DE9F043E5B005460C46164652
:1030B0000021599125225AA819F092FC80220092F1
:1030C00002AB22A9204612F043F89DF8883013B1D4
:1030D0009DF808204AB9002B40F0BB809DF80830CD
:1030E000002B40F0B2800020B4E022AA5B4901200E
:1030F000FEF710FF42A811F051F802A8FDF7D0F832
:10310000024602A942A811F063F842A959A811F099
:1031100099F800242AE041462846FFF77DFF66E043
:103120004F4F802222A9384619F0A1FC16F0A8FCC6
:103130004C4BC31841F10001C7F8B030C7F8B410C8
:10314000282107F1800012F049FC4EB9B822464B05
:1031500002FB043245490120FEF7DCFE012079E044
:1031600039462846FFF758FFF0E70134092C45DCC3
:1031700022A9A9203E4B00FB0430FDF731F80028BE
:10318000F3D1A92304FB03F3803359A93848184429
:10319000FDF726F80028E8D1334BB82202FB0433B0
:1031A000D3F8B080D3F8B47016F06AFC80458F4134
:1031B000B6D2B82704FB07F7DFF8AC9007EB090895
:1031C000802222A9404619F052FC16F059FC254BEA
:1031D000C01841F10001C8F8B000C8F8B41007F1F8
:1031E00080002821484412F0F9FB002E93D142467A
:1031F0001E490120FEF78EFE01202BE0002029E071
:10320000B822194B02FB043300931A4B1A4AC82107
:10321000284610F0EBFE16E00134092C17DCB82329
:1032200004FB03F3803302A90F481844FCF7D8FFCE
:103230000028F1D1B82304FB03F30B4AD35C002B25
:10324000EAD0002EDCD1012004E00024E5E70020D4
:1032500000E0002065B0BDE8F08300BF906A03087D
:10326000401B002000B84C0A881A0020B06A0308EE
:10327000B8210020CC6A03080066030810B5044694
:103280000122FFF70FFF00B110BD044B044A40F2CA
:103290009311204610F0AAFEF6E700BF0C6B03085E
:1032A0000066030810B590B0044609A807F024FC96
:1032B0000F9B06930E9B05930D9B04930C9B03930E
:1032C0000B9B02930A9B0193099B0093034B044AB7
:1032D000C821204610F08AFE10B010BD3C6B0308D8
:1032E000406C0308F0B591B006460C460CAD4B4956
:1032F000284611F005F80023009395E80C0094E8A7
:10330000030011F01FFA28B3454C23680022012165
:103310000AA898472368002202210DF12B00984744
:103320009DF828309DF829209DF82A109DF82B0043
:103330009DF82C409DF82D50059504940390029122
:1033400001920093374B384AC821304610F04EFEA8
:1033500011B0F0BD0EAD3549284610F0D1FF002365
:10336000009395E80C0094E8030011F0EBF90028B5
:103370004BD008AB2E4A04F5007103C90FF0FCFED8
:1033800000283AD00AAB2B4A04F5007494E80300F5
:103390000FF0F2FE002830D0DDE90801FDF71CFC3B
:1033A000C4B2DDE90A01FDF717FCC5B2631EDBB24A
:1033B000022B01D8012D07D91F4B1B4A4FF4C871AE
:1033C000304610F013FEC3E7154F3B680022022180
:1033D00007A8984704F13F036B4403F8245C3B685B
:1033E0000122022107A8984701950094134B0E4A29
:1033F000C821304610F0FAFDAAE7114B0A4A4FF4F3
:10340000C871304610F0F2FDA2E70E4B064A40F2BA
:103410009511304610F0EAFD9AE700BFC465030835
:1034200054280020846C0308006603085C670308C6
:10343000B86C0308C46C0308046D0308CC6C030863
:10344000406D03087C6D030838B501FB00F420468D
:1034500007F092FA054618B12246002119F0C0FA89
:10346000284638BDF0B58BB006460C4606AD8449FB
:10347000284610F045FF0023009395E80C0094E8DF
:10348000030011F05FF900283BD0C6210120FFF7AF
:10349000DBFF054640B37B4B1B6800221146984773
:1034A00005F1A5073846FCF7FBFEC4B222462A21E7
:1034B000384619F095FA2C44002384F8A5306B782F
:1034C000EBB1714BAA1C05F18401039702910192A3
:1034D00000936E4B6E4AC821304610F087FD284697
:1034E00007F0CCFA0BB0F0BD6A4B694A4FF4FA71A1
:1034F000304610F07BFD284607F0C0FAF2E7664B35
:10350000E0E708AD6549284610F0FAFE0023009375
:1035100095E80C0094E8030011F014F9002800F07D
:10352000A780C6210120FFF78FFF054610B305AB2A
:103530005B4A04F5007103C90FF0B4FB002824DBDB
:103540006B1C584A04F5007797E803000FF03AFE29
:10355000554A97E8030011F0C3FF074628B316F059
:10356000ABFC0346E0B10433032B79D8DFE803F06A
:1035700070686052474B464A4FF4FA71304610F07B
:1035800035FD284607F07AFAACE7484B404A4FF43D
:10359000C871304610F02AFD284607F06FFAA1E7FF
:1035A0007F223946A81C19F062FA384607F066FAFD
:1035B0003F4A04F5007393E8030011F091FF0746BA
:1035C00028B12022014605F1840019F050FA38464E
:1035D00007F054FA374A04F5007494E8030011F038
:1035E0007FFF044628B12022014605F1A50019F00D
:1035F0003EFA204607F042FA01222A70214B1B684E
:103600000021284698472C4B214AC821304610F00B
:10361000EDFCC1E7294B1E4A4FF4C871304610F04B
:10362000E5FC384607F02AFA284607F027FA59E75A
:10363000234B174A4FF4C871304610F0D7FCF0E71F
:10364000204B134A4FF4C871304610F0CFFCE8E726
:103650001D4B0F4A4FF4C871304610F0C7FCE0E72D
:103660001A4B0B4A4FF4C871304610F0BFFCD8E734
:10367000174B074A40F29511304610F0B7FC31E77E
:10368000C465030854280020D06D03081C6E03088D
:1036900000660308E06D0308D86D03085C67030843
:1036A000646E0308986E0308A46E0308686E03082E
:1036B000EC6F0308F86F030804700308B06E03088A
:1036C000F46E0308406F0308806F0308B86F0308A7
:1036D0007C6D030870B58AB006460C4604AD5E49A1
:1036E000284610F00DFE0023009395E80C0094E8A6
:1036F000030011F027F800283DD00022039203A90F
:10370000564807F0A1FA0398421E40F2FE339A424F
:1037100029D801210844FFF797FE0446B8B10121DA
:103720004E4807F0CFFA0546039A214607F0FAFA09
:10373000284607F0EBFA0094494B4A4AC821304624
:1037400010F054FC204607F099F90AB070BD4649C4
:103750000320FEF7DFFB454B424A4FF4FA71304637
:1037600010F044FCF1E7424B3E4A4FF4FA71304608
:1037700010F03CFCE9E706AD3E49284610F0C0FDDC
:103780000023009395E80C0094E8030010F0DAFFA2
:10379000002858D003AB384A04F5007103C90FF074
:1037A00081FA002834DB354A04F5007494E80300FC
:1037B00011F096FE044600283DD008AD014628468B
:1037C00010F09EFD06F11C0295E8030012F0A6FC25
:1037D000002825DB214D284607F0E2FA0221284681
:1037E00007F070FA05462046FCF75AFD421C2146B8
:1037F000284607F0A3FA284607F088FA204B194A12
:10380000C821304610F0F2FB204607F037F99CE75C
:103810001C4B144A4FF4C871304610F0E7FB94E794
:10382000194B104A4FF4C871304610F0DFFB2046A8
:1038300007F024F989E7154B0A4A4FF4C87130465E
:1038400010F0D4FB81E7124B064A40F29511304646
:1038500010F0CCFB79E700BFC465030804650308DA
:103860009C70030800660308407003087470030826
:10387000C87003085C670308646E0308FC700308E3
:1038800044710308686E03080C71030898710308FB
:10389000E07103082DE9F04FC7B081468A467222D5
:1038A0008E4927A81AF0D8FA01211E20FFF7CCFD77
:1038B000064601212E20FFF7C7FD074601212E20D5
:1038C000FFF7C2FD804601214FF44070FFF7BCFDB9
:1038D000044601214FF4C070FFF7B6FD0546002EE7
:1038E00000F0E380002F00F0E080B8F1000F00F05E
:1038F000DC80002C00F0D980002800F0D6800DF587
:10390000887B7749584610F0FBFC002300939BE826
:103910000C009AE8030010F015FF002800F0BD80AD
:1039200001F07CFB824658B390F8AC3013F0200FC6
:103930002CD190F8AD3013F0200F2DD01E22694904
:10394000304619F094F8DFF8C4B10AF10803009387
:103950005B46654A2E2140460FF04AFE0AF11C03E1
:1039600000935B46604A2E2138460FF041FE204608
:10397000FCF796FC5D4B1B8823524FF0010A28E0B0
:103980001E225B49304619F072F8F0E71E225949B1
:10399000304619F06CF8D6E71E225749304619F028
:1039A00066F8D0E75FFA8AF30122802107A801F0C8
:1039B00025FF07A9204619F01BF82046FCF770FCEC
:1039C000034621184D4A1068E05013790B710AF133
:1039D000010ABAF1030FE5DD4FF0010A07E02046C6
:1039E000FCF75EFC414B1B8823520AF1010ABAF135
:1039F000030F18DC5FFA8AF30222802107A801F086
:103A0000FDFE07A9204618F0F3FFBAF1020FE6DC2D
:103A10002046FCF745FC03462118384A1068E05060
:103A200013790B71E1E72846FCF73AFC2F4B1B8812
:103A30002B524FF0010A07E02846FCF731FC2B4BD4
:103A40001B882B520AF1010ABAF1030F18DC5FFA46
:103A50008AF30222802107A801F0B8FE07A92846B0
:103A600018F0C6FFBAF1020FE6DC2846FCF718FC96
:103A700003462918214A1068E85013790B71E1E7D1
:103A8000049503940297CDF80480009627AB1C4A56
:103A9000C821484610F0AAFA0EE01A4B184A40F224
:103AA0009511484610F0A2FA06E0174B144A4FF45D
:103AB000FA71484610F09AFA304606F0DFFF3846B1
:103AC00006F0DCFF404606F0D9FF204606F0D6FFA0
:103AD000284606F0D3FF47B0BDE8F08FA072030878
:103AE000C46503084072030854720308587203083F
:103AF000CCAF030834720308487203085C720308F1
:103B0000006603087C6D0308647203089D60020868
:103B1000F0B58DB007460C46154608AE2349304631
:103B200010F0EEFB0023009396E80C0094E80300ED
:103B300010F008FE18B30023029303930493059337
:103B4000069307931A4B02931A4B079345B1012D25
:103B50000ED002AB184A2146384610F0AFFF05E000
:103B600002AB154A2146384610F0A8FF0DB0F0BD53
:103B700002AB124A2146384610F0A0FFF6E70AAD24
:103B80000F49284610F0BCFB0023009395E80C0079
:103B900094E8030010F0D6FD0028E7D1094B0A4A4B
:103BA00040F29511384610F021FADFE7C4650308AA
:103BB000587A0308A0000020D4600308E4600308DA
:103BC0005C6703081473030800660308F8B504462D
:103BD0000D4616460B4F3B6A98470222214638464F
:103BE0000EF076FF04467B69A92206FB02F2294605
:103BF0000068984720460EF084FF03490120FEF735
:103C000089F9F8BDA00000206C7303082DE9F0418C
:103C1000AEB006460C4626ADA849284610F070FB0B
:103C20000023009395E80C0094E8030010F08AFD4F
:103C3000002843D128ADA249284610F061FB00239B
:103C4000009395E80C0094E8030010F07BFD002839
:103C500000F0FD8003AB9B4A04F5007103C90FF02F
:103C600021F80028C0F28980974A04F5007494E88E
:103C7000030011F035FC0546944A94E8030011F066
:103C80002FFC0746002D00F0D480002800F0D180E2
:103C90002B78002B00F0CD800378002B00F0C9803A
:103CA0000024092C7FDC2946A920894B00FB043025
:103CB000FCF796FA002868D00134F2E701214FF4AE
:103CC0008060FFF7C1FB07460121A020FFF7BCFB86
:103CD0008046002F3DD000283BD07E4B07CB38607C
:103CE0007960BA601B783B730C25002408E04346DA
:103CF000794AC5F58061781918F048F9054401340E
:103D0000092C18DCA92204FB02F2714B9A5C002AF0
:103D1000F5D0A92202FB0433704AA021404618F0D6
:103D200035F90C2DE3D96E4AC5F58061781918F084
:103D30002DF90544DBE76B4AC5F58061781918F069
:103D400025F90097644B684AC821304610F04EF9B7
:103D50000AE066490320FEF7DDF8654B624A4FF43E
:103D6000FA71304610F042F9384606F087FE4046B8
:103D700006F084FE2EB0BDE8F0815E4B5A4A4FF447
:103D8000C871304610F032F9F4E75B4B564A4FF4F5
:103D9000C871304610F02AF9284606F06FFE384602
:103DA00006F06CFEE6E7002404942522214605A8CF
:103DB00018F016FE0FA810F0F1F93846FCF770FA6B
:103DC000024639460FA810F003FA0FA904A810F014
:103DD00039FA2146092924DCA92301FB03F33C4AD3
:103DE000D35C0BB10131F5E7A92303FB01F4904645
:103DF0007F22294608EB040018F039FE803428227F
:103E000004A908EB040018F032FE0A2241463B48A0
:103E1000FFF7DCFE3A4B344AC821304610F0E6F892
:103E20000EE0384B304A4FF4C871304610F0DEF8DF
:103E300006E0354B2C4A4FF4C871304610F0D6F8E6
:103E4000284606F01BFE384606F018FE92E72AAD1B
:103E50002E49284610F054FA0023009395E80C00F0
:103E600094E8030010F06EFC002855D12CAD2849D1
:103E7000284610F045FA0023009395E80C0094E8DA
:103E8000030010F05FFC002800F0F3800E4A04F5F8
:103E9000007494E8030011F023FB074618B103787F
:103EA000002B40F0CF801B4B0F4A4FF4C8713046B7
:103EB00010F09CF8384606F0E1FD5BE7C4650308A6
:103EC0005C670308646E0308AC730308B4730308EB
:103ED000B821002084730308D8AF03089473030843
:103EE000A4730308A873030800660308407003085E
:103EF00074700308686E0308BC7303082C60030821
:103F0000F87303083474030868740308A87403087A
:103F1000647503080076030803AB5A4A04F5007180
:103F200003C90EF0BFFE002821DB574A04F50074D8
:103F300094E8030011F0D4FA0546544A94E80300CB
:103F400011F0CEFA044625B118B12B780BB10378E5
:103F5000BBB94F4B4F4A4FF4C871304610F046F88A
:103F6000284606F08BFD204606F088FD02E74A4B06
:103F7000484A4FF4C871304610F038F800242546FE
:103F8000EEE7002704972522394605A818F028FDFA
:103F90000FA810F003F92046FCF782F902462146EB
:103FA0000FA810F015F90FA904A810F04BF9092F6C
:103FB00025DC2946A920394B00FB0730FCF710F916
:103FC00008B10137F3E7A92303FB07F707F18000E6
:103FD000DFF8C880282204A9404418F048FD47446F
:103FE000002387F8A8300A2241462D48FFF7EEFD4E
:103FF0002C4B284AC82130460FF0F8FFB0E72A4B77
:10400000244A4FF4CA7130460FF0F0FFA8E780222F
:104010000021284618F0E4FCA92303FB04F08030BB
:104020001E4C29220021204418F0DAFC0A222146E5
:104030001B48FFF7CBFD1D4B164AC82130460FF039
:10404000D5FF37E70124092C0BDCA923134D03FB13
:10405000045539462846FCF7C3F80028D7D0013468
:10406000F1E7134B0B4A4FF4C87130460FF0BEFF17
:1040700020E7104B074A40F2951130460FF0B6FF8B
:1040800078E600BF646E0308AC730308B4730308DA
:104090002075030800660308686E0308B821002035
:1040A0002C600308AC740308F07403086C750308F3
:1040B000AC7503084076030870B50E46144601221D
:1040C00001460E480EF004FD88B105460B4B1B69F6
:1040D000A92204FB02F231460068984728460EF0F8
:1040E00010FD07490120FDF715FF012070BD0549AE
:1040F0000320FDF70FFF0020F8E700BFA00000201D
:10410000BC760308A076030870B586B005460C4659
:1041100004AE1549304610F0F3F80023009396E8FA
:104120000C0094E8030010F00DFBA0B1EB6F1868D1
:10413000002302930D4B0193012300934FF4FA6285
:10414000002311F0BFFA0A4B0A4AC82128460FF093
:104150004DFF06B070BD084B064A40F29511284647
:104160000FF044FFF5E700BF5C67030881630108B7
:10417000D876030800660308E467030870B584B0C6
:1041800005460C4602AE1449304610F0B9F800233B
:10419000009396E80C0094E8030010F0D3FA98B16D
:1041A0000E4BDB690E490F48984728B12146284637
:1041B000FFF7AAFF04B070BD0B4B0C4A4FF4FA7125
:1041C00028460FF013FFF5E7094B084A40F2951116
:1041D00028460FF00BFFEDE75C670308A000002006
:1041E000EC5F0308107703082877030800660308CC
:1041F000E467030870B5C4B006460C4642AD2049DA
:10420000284610F07DF80023009395E80C0094E810
:10421000030010F097FA50B37B2323AA194904F541
:10422000007010F05AFF002819DD23AB164A8021D8
:1042300003A817F0ABFE154B5B6A03A8984730B193
:10424000134B144AC82130460FF0D0FE16E0124B33
:10425000104A4FF4FA7130460FF0C8FE0EE00F4BD3
:104260000C4A4FF4C87130460FF0C0FE06E00C4B0C
:10427000084A40F2951130460FF0B8FE44B070BDC8
:104280005C6703086C77030874770308A0000020BC
:104290007C77030800660308B0770308EC7703080F
:1042A000E467030870B5A4B005460C4622AE1C496D
:1042B000304610F025F80023009396E80C0094E8AF
:1042C000030010F03FFA08B3802302AA154904F155
:1042D000100010F002FF144902A8FBF781FF58B943
:1042E000124B0093124B134A2146284612F0BCFC95
:1042F000012005F0A3FC10E00B4B00930E4B0F4A7E
:104300004FF4C87128460FF071FE06E00C4B0B4AC3
:1043100040F2951128460FF069FE24B070BD00BF31
:104320005C67030828AF03082878030890D00300CF
:10433000E05F0308A0000020387803080066030847
:10434000E4670308F0B597B004460E4601214FF428
:104350008060FFF779F8054650B1012221462848D0
:104360000EF0B6FB044640B168460EF0C1FF10E007
:1043700006F084FB4FF0FF3040E00EF0C2FB284611
:1043800006F07CFB6FF0010038E0294668460EF02D
:10439000C5FF1B4B1B694FF4806229462068984774
:1043A00002460028F1D120460EF0ABFB012110207F
:1043B000FFF74AF8074628B1014668460FF005F8AE
:1043C000002412E0284606F059FB384606F056FB5A
:1043D0004FF0FF3012E061003B5D0A4AC1F121015C
:1043E00006EB440017F0D2FD01340F2CF3DD284614
:1043F00006F044FB384606F041FB002017B0F0BD44
:10440000A00000208478030870B584B005460C46EF
:1044100002AE194930460FF073FF0023009396E86F
:104420000C0094E8030010F08DF9E8B1012121207F
:10443000FFF70AF8044601461048FFF783FF58B912
:1044400000940F4B0F4AC82128460FF0CFFD20469D
:1044500006F014FB04B070BD0B4B0A4A4FF4CA714E
:1044600028460FF0C3FDF2E7084B064A40F29511CB
:1044700028460FF0BBFDEDE7C4650308107703087D
:104480008C78030800660308B07803087866030890
:104490000B2900D07047F0B5B5B005461446002290
:1044A0002146FEF7FFFD074608AEAF4930460FF044
:1044B00027FF0023009396E80C0094E8030010F017
:1044C00041F920B12846FEF745FC35B0F0BD0AAEF3
:1044D000A64930460FF014FF0023009396E80C0025
:1044E00004F1080103C910F02DF900B1BFB10CAE01
:1044F0009F4930460FF004FF0023009396E80C001C
:1045000004F1080103C910F01DF980B19949012097
:10451000FDF700FD21462846FEF7B0FED5E7964B95
:10452000964A40F2931128460FF060FDCDE70EAE9B
:10453000934930460FF0E4FE0023009396E80C0008
:1045400004F1080103C910F0FDF840B18D490120C4
:10455000FDF7E0FC21462846FEF7EAFCB5E710AE81
:10456000894930460FF0CCFE0023009396E80C00FA
:1045700004F1080103C910F0E5F838B183490120BE
:10458000FDF7C8FC2846FEF78DFE9EE712AE804977
:1045900030460FF0B5FE0023009396E80C0004F1BE
:1045A000080103C910F0CEF840B17A490120FDF7A7
:1045B000B1FC21462846FEF795FE86E714AE764903
:1045C00030460FF09DFE0023009396E80C0004F1A6
:1045D000080103C910F0B6F840B170490120FDF799
:1045E00099FC21462846FEF73DFF6EE716AE6C4962
:1045F00030460FF085FE0023009396E80C0004F18E
:10460000080103C910F09EF840B166490120FDF78A
:1046100081FC21462846FFF75DF856E718AE62494F
:1046200030460FF06DFE0023009396E80C0004F175
:10463000080103C910F086F840B15C490120FDF77C
:1046400069FC21462846FFF725F93EE71AAE58498E
:1046500030460FF055FE0023009396E80C00E16809
:10466000A06810F06FF848B152490120FDF752FCE4
:10467000002221462846FFF74BFA26E71CAE4E499A
:1046800030460FF03DFE0023009396E80C00E168F1
:10469000A06810F057F848B148490120FDF73AFCEE
:1046A000012221462846FFF733FA0EE71EAE4449A1
:1046B00030460FF025FE0023009396E80C00E168D9
:1046C000A06810F03FF840B13E490120FDF722FC00
:1046D00021462846FFF79AFAF7E620AE3A493046D7
:1046E0000FF00EFE0023009396E80C00E168A0682E
:1046F00010F028F840B135490120FDF70BFC2146A8
:104700002846FFF701FDE0E622AE314930460FF0C2
:10471000F7FD0023009396E80C00E168A06810F014
:1047200011F840B12B490120FDF7F4FB2146284642
:10473000FEF71CFBC9E624AE274930460FF0E0FD2A
:104740000023009396E80C00E168A0680FF0FAFFE0
:10475000002845D021490120FDF7DCFB21462846F1
:10476000FEF736FBB1E600BFF0780308F8780308DF
:10477000107903081C79030800790308806C03088A
:10478000307903083C7903085479030864790308F5
:104790008079030890790308A8790308BC79030895
:1047A000D8790308E8790308047A0308187A03081B
:1047B000347A0308447A0308607A0308747A030899
:1047C000947A0308A87A0308C47A0308D87A0308FD
:1047D000F87A03080C7B03082C7B0308407B030852
:1047E00026AE504930460FF08BFD0023009396E82B
:1047F0000C00E168A0680FF0A5FF20B12146284613
:10480000FFF750FD61E628AE474930460FF078FDCE
:104810000023009396E80C00E168A0680FF092FF77
:1048200040B142490120FDF775FB21462846FFF7BC
:10483000EBFD4AE62AAE3E4930460FF061FD00230B
:10484000009396E80C00E168A0680FF07BFF40B190
:1048500038490120FDF75EFB21462846FFF78EFC14
:1048600033E62CAE344930460FF04AFD0023009366
:1048700096E80C00E168A0680FF064FF20B12146C3
:104880002846FEF7E3FA20E62EAE2C4930460FF01C
:1048900037FD0023009396E80C00E168A0680FF054
:1048A00051FF20B121462846FEF70CFB0DE630AE45
:1048B000234930460FF024FD0023009396E80C00B6
:1048C000E168A0680FF03EFF40B11E4B00931E4B05
:1048D0001E4A2146284612F0C7F9F6E532AE1C49B9
:1048E00030460FF00DFD0023009396E80C00E168C0
:1048F000A0680FF027FF20B121462846FFF77AFC79
:10490000E3E500230293039304930593069307932F
:104910000D4B02930D4B079302AA2146284612F035
:10492000BDF8D2E55C7B0308747B0308887B030831
:10493000A47B0308B87B0308D87B0308F47B030837
:10494000107C030860E31600D85F0308A000002075
:104950002C7C030808B50A2202490348FFF7ACFB88
:10496000024808BDB82100202C60030891440108CA
:10497000014B1860704700BF542800201A4B1B6879
:1049800003B1704730B585B018490120FDF7C2FA70
:10499000174C40220021204618F022F802AD154B9A
:1049A000196828460FF0ACFC95E8030084E8030082
:1049B000114B196828460FF0A3FC04F1080395E891
:1049C000030083E803003C236385002300930B4B23
:1049D00022460B4909680B48006814F005FA024B9F
:1049E000186005B030BD00BF78280020487C03085F
:1049F0007C280020D0280020CC280020594F010816
:104A0000D4280020C02800202DE9F04F85B0814631
:104A1000884692462A4C00F108030093294B2A4A03
:104A2000282120680EF0E4FD24682046FBF738FCBE
:104A30000146204600F0E0FB00263BE008EBC60301
:104A400018F836401D79214F2B46224680213868C0
:104A500000F0F0FBDFF880B02B4622464FF41671D1
:104A6000DBF8000000F096FC194D02AC39682046D6
:104A70000FF046FC05F1180394E8030083E80300F7
:104A8000DBF8001020460FF03BFC05F1200394E812
:104A9000030083E80300012485F8284085F82E40B0
:104AA0002946484612F006FF3A680A492046FDF7B3
:104AB00031FA26445645C1D305B0BDE8F08F00BF9A
:104AC000742800208160020854720308C82800205E
:104AD0007C280020687C0308C428002070B584B0BE
:104AE000002301930568866826B3044615B3714B0D
:104AF0001B680022022103A89847039BADF80830E9
:104B00001B0C8DF80A306C49284617F0E9FF002885
:104B100000F0BA8001AA694917F0C0FB012818D03B
:104B2000674B1B68002B00F3A58066490320FDF747
:104B3000F1F9B2E0624B1B68002B40F3AE80624B90
:104B400092226249012011F04FFB61480FF0FAF9FF
:104B5000A3E05B4B1B68012B18DC2B46019A5D49D7
:104B60000120FDF7D7F9019D6B1E022B1AD8E468CE
:104B7000022C2ED0032C4FD0514B1B68002B6EDC27
:104B8000324655490320FDF7C5F986E04E4B9F227A
:104B90004E49022011F028FB2A4601994F480FF098
:104BA000D1F9DAE7464B1B68002B06DC019B032298
:104BB0004B491046FDF7AEF96FE0434BA422434941
:104BC000012011F011FB019A032145480FF0BAF9B9
:104BD000ECE702224349304617F037FF0028C9D1DD
:104BE00005F10F036B44012203F8082C344B1B68BA
:104BF000934206DC2F4B1B680122022102A8984732
:104C00004BE0314BAE223149022011F0EDFA01990F
:104C100035480FF097F9EDE703223449304617F095
:104C200014FF0028A8D105F10F036B44002203F8FC
:104C3000082C234B1B68012B06DC1E4B1B68012232
:104C4000022102A8984728E01F4BB2221F490220E8
:104C500011F0CAFA019926480FF074F9EDE71A4BE2
:104C6000B6221A49012011F0BFFA31461A480FF056
:104C700069F985E7144BBB221449012011F0B4FAFD
:104C80001C480FF05FF950E70D4B1B68002B06DC4A
:104C90002A4619490320FDF73DF904B070BD0A4BBF
:104CA000BF220A49012011F09FFA294612480FF04D
:104CB00049F9EDE760280020FC7C0308047D030827
:104CC0002C010020587E03088C7C0308AC7C030870
:104CD000D87C03083C7D0308E47D0308107D0308AD
:104CE000647D0308B47D0308B87D0308CC7D030808
:104CF000D07D0308207E0308907E030838B501FBB1
:104D000000F4204605F038FE054618B12246002181
:104D100017F066FE284638BD2DE9F04387B00746F8
:104D20000C46584D2B680022012104A898472B6897
:104D3000002202210DF1130098470322524904A8D2
:104D400017F0BAFD48B9032250490DF1130017F0CE
:104D5000B3FD10B9002C00F091804B4B06AA12E96C
:104D600003001860998001214FF41670FFF7C6FF09
:104D7000064601218020FFF7C1FF0546002238E0EA
:104D800002F101085FFA88F802F118030DEB030243
:104D900012F8083C0093434601224FF41671304646
:104DA00000F0ECFC434601228021284600F026FD5D
:104DB000DFF8DC9002AC294620460FF0A1FA09F199
:104DC000180394E8030083E80300314620460FF0FF
:104DD00097FA09F1200394E8030083E80300002315
:104DE00089F8283089F82E304946384612F062FD9D
:104DF0004246022AC4D9002238E002F101085FFAD3
:104E000088F802F118030DEB030212F8053C009339
:104E1000434602224FF41671304600F0AFFC434681
:104E200002228021284600F0E9FCDFF8649002AC01
:104E3000294620460FF064FA09F1180394E80300AC
:104E400083E80300314620460FF05AFA09F12003A7
:104E500094E8030083E80300002389F8283089F8E8
:104E60002E304946384612F025FD4246022AC4D962
:104E7000304605F003FE284605F000FE07B0BDE809
:104E8000F08300BF60280020582800205B28002005
:104E90007C28002008B5054B186810B1044B1B781E
:104EA00003B908BD0021FFF737FFFAE77828002093
:104EB0006428002008B5054B1B7803B908BD012103
:104EC000034B1868FFF728FFF8E700BF64280020AD
:104ED000782800202DE9F04F83B081460D46164614
:104EE000002400E00134B4422ED205EBC40855F88A
:104EF0003430022BF6D101218020FFF7FFFE074658
:104F000098F804300222802100F060FCDFF8448031
:104F10004FF0010B88F828B0EA46394650460FF0AA
:104F2000EFF908F118039AE8030083E8030041460B
:104F3000484612F071FC3A4605495846FCF7EAFF2C
:104F4000384605F09BFDCDE703B0BDE8F08F00BF0C
:104F5000C07E03087C28002070B5102931D005469A
:104F6000112902D009293AD070BD224B1B68022BAF
:104F70001DDC21490120FCF7CDFF204B1D60204B9B
:104F80001B78002BF0D11F4E062231462846FFF732
:104F90003BFD1A4C01212068FFF7BEFE0622314678
:104FA0002068FFF797FF164B01221A70DCE7164BBB
:104FB000CD221649032011F017F915480EF0C2FF53
:104FC000D7E7144613490120FCF7A4FF2046FFF75A
:104FD00085FD0021094B1868FFF79EFEC4E70E49C6
:104FE0000120FCF797FF0023044A1360044A137062
:104FF000BAE700BF2C010020087F030878280020B2
:1050000064280020C8000020DC7E0308AC7C030874
:10501000F07E0308207F0308447F0308014B1868D3
:10502000704700BF782800202DE9F04786B006467B
:105030000C4691461D4601218020FFF75FFEDFF8F8
:1050400048A1CAF8000001212120FFF757FEDFF830
:105050003C81C8F8000001212120FFF74FFE3B4FA3
:10506000386001218020FFF749FE394B186001218B
:105070004FF41670FFF742FE364B186001212820CE
:10508000FFF73CFE344B18600F9A344B1A60DAF885
:1050900000A04946504618F0ADFED8F800902946C9
:1050A000484618F0A7FE0E99386818F0A3FE4B4644
:1050B00052462B490120FCF72DFF2A4D2E602A4B2A
:1050C0001C600621204600F071F8284E04ACD8F888
:1050D000001020460FF014F994E8030086E803005E
:1050E000396820460FF00CF906F1080394E8030034
:1050F00083E803003C237385002402941C4B019336
:105100000323009342F210720023286810F0DAFAA9
:10511000184B18600294184B01930126009643F631
:1051200098220023286810F0CDFA144B18600294DE
:10513000134B019300964FF4FA720023286810F085
:10514000C1FA104B186006B0BDE8F087CC280020EB
:10515000C8280020C42800207428002060280020CF
:105160005C7F0308C0280020BC2800207C28002089
:105170007D49010870280020B54E01086C280020E8
:10518000954E010868280020D4280020D02800204F
:1051900038B501FB00F4204605F0EEFB054618B1DA
:1051A0002246002117F01CFC284638BD70B5064683
:1051B0000D460F4B186808B105F060FC680001212E
:1051C0000844FFF7E5FF0A4B186008B100240BE024
:1051D0004FF0FF300BE0064B1868325D054900EBDD
:1051E000440017F03BF80134AC42F4D3002070BD0A
:1051F000DC280020887F030838B505460C460C4B98
:10520000186808B105F03AFC01216018FFF7C0FFEB
:10521000074B186040B12246294617F028FC044B82
:105220001B680020185538BD4FF0FF30FBE700BF6A
:10523000D828002000B587B04FF0000C80F800C0DF
:10524000013A072A00F28780DFE802F004162545BC
:10525000356575550493414B0393414B1B6802938D
:10526000404B0193404B0093404B414A16F08EFE59
:10527000002007B05DF804FB04933E4B0393384ACB
:1052800012680292374A01920093384B384A16F05E
:105290007DFE0020EDE70493374B0393304B1B68F2
:1052A0000293304B0193354B0093304B304A16F04C
:1052B0006DFE0020DDE70493314B0393284B1B6800
:1052C0000293284B01932D4B0093284B284A16F04C
:1052D0005DFE0020CDE704932A4B0393204B1B680F
:1052E0000293204B0193254B0093204B204A16F04C
:1052F0004DFE0020BDE70493234B0393184B1B681E
:105300000293184B01931D4B0093184B184A16F04B
:105310003DFE0020ADE704931C4B0393104B1B682C
:105320000293104B0193154B0093104B104A16F04B
:105330002DFE00209DE70493154B0393084B1B683B
:105340000293084B01930D4B0093084B084A16F04B
:105350001DFE00208DE74FF0FF308AE7A87F03088D
:10536000DC28002054670308B07F0308F800002001
:10537000907F0308FC7C0308C07F0308C87F0308F4
:10538000D07F0308D87F0308E07F0308F07F03087D
:10539000008003082DE9F04F99B017900D4617468D
:1053A0001C460A46002117F01BFB7A1E072A00F252
:1053B000BA81DFE812F008004300A100EA00C5004E
:1053C0006E019301490101218020FFF7E1FE0746AC
:1053D0000094804B804A802116F0D8FD7F4B1A68DC
:1053E0007F4B1B6814937F4B13937F4B12937F4B20
:1053F00011937F4B10937F4B0F930E927E4B0D9327
:105400007E490C910B947E490A9109920893079763
:105410007C480690059404910394029101920093B4
:10542000794B7A4A2946179816F0B0FD044638465B
:1054300005F024FBE0B219B0BDE8F08F0121802017
:10544000FFF7A6FE074601218020FFF7A1FE804658
:10545000DFF8F09100944B466D4A8021384616F0F3
:1054600095FDDFF894A1654E02960197DFF86CB1C7
:10547000DBF8003000935346664A8021404616F020
:1054800085FD0094644B544A8021384616F07EFD19
:10549000DBF80030524A12681492524A1392524A70
:1054A0001292524A1192524A1092524A0F920E93FD
:1054B000CDF834A00C960B94CDF828900993CDF834
:1054C00020A00797CDF818800594CDF8109003948C
:1054D000CDF808900193CDF800A04B464B4A2946E1
:1054E000179816F053FD0446384605F0C7FA4046B3
:1054F00005F0C4FAE0B29EE7384B19683E4B474AC4
:1055000037480068109037480F9037480E9037485A
:105510000D9037480C9037480B900A9109934048FA
:1055200008900792069105933E4804903E480390E8
:1055300002923E48019000913449179816F08EFE71
:10554000264B19682C4B3A4A25480068109025488C
:105550000F9025480E9025480D9025480C90254821
:105560000B900A910993334808900792069105938E
:10557000314804902348039002922C4801900091F6
:105580002249179816F06AFEDAE7144B19681A4B8D
:105590001D4A13480068109012480F9012480E9050
:1055A00012480D9012480C9012480B900A910993E2
:1055B00022480890079206910593214804901148CB
:1055C000039002921948019000911049179816F023
:1055D00045FEB5E70880030814800308DC28002096
:1055E000D828002074660308706603081C8003082E
:1055F000346703084867030854670308806C03088E
:10560000A87F030878A40308D87F030884810308CF
:105610002C8003085C81030834800308C07F0308E2
:10562000488003084C8003085C80030880800308DE
:10563000D07F0308888003088C8003089C800308BF
:10564000A0800308FC7C0308384B1968384B394AA2
:1056500039480068109039480F9039480E90394801
:105660000D9039480C9039480B900A9109933848AD
:1056700008900792069105933648049036480390A7
:1056800002923648019000913549179816F0E6FDD0
:1056900056E7264B1968264B324A27480068109077
:1056A00026480F9026480E9026480D9026480C90CC
:1056B00026480B900A9109932B480890079206916F
:1056C00005932A48049024480390029223480190AD
:1056D00000912349179816F0C1FD31E7134B196863
:1056E000134B234A14480068109014480F90144834
:1056F0000E9014480D9014480C9014480B900A9189
:1057000009931C4808900792069105931A48049043
:105710001148039002921148019000911049179886
:1057200016F09CFD0CE74FF0FF3084E6DC280020EB
:1057300054670308E07F0308D82800207466030834
:10574000706603081C800308346703084867030871
:10575000C4800308C880030878A403088080030875
:1057600084810308F07F0308E8800308EC800308C5
:1057700000800308188103081C81030830B583B03A
:105780001C469DF81850012A0BD0022A0BD10A4B57
:105790005DB10A4A01920094094A16F0F7FB03B082
:1057A00030BD084BF4E70023F2E7074A019200946A
:1057B000034A16F0EBFBF2E7FC7C0308B47D030818
:1057C0004C810308A87F0308CC7D030800B585B091
:1057D0000293064B0193064B1B680093054B064A48
:1057E00016F0D4FB05B05DF804FB00BFFC7C030899
:1057F000DC280020546703082881030800B585B021
:105800004FF0000C80F800C0012A06D0022A0FD009
:105810004FF0FF3005B05DF804FB02930A4B019393
:105820000A4B1B6800930A4B0A4A16F0AFFBF1E7DC
:105830000293094B0193054B1B680093044B054AE7
:1058400016F0A4FBE6E700BFA87F0308DC280020D1
:105850005467030838810308FC7C030808B5084B2B
:105860001B682BB1064B186808B114F0CDF908BDC0
:10587000044A194614F09AFA014B1860F2E700BF87
:10588000E02800208958010870B5122902D00929A2
:1058900046D070BD144626490120FCF73BFB14F0AE
:1058A000EFF806460D46234B1B68012B20DC3246E1
:1058B0002B4621490120FCF72DFB2568646810F078
:1058C0008DFC281A4FF47A724FF0000364EB01014B
:1058D000FBF742FA194BC3E90001164B1B68012B79
:1058E00012DC2A46234616490120FCF713FBD0E7B9
:1058F000144B1B221449022010F076FC32462B4632
:105900000D480EF01FFBD2E70E4B21220E4902205C
:1059100010F06AFC2A4623460C480EF013FBE0E721
:105920000B490120FCF7F6FA0A4B00221A60B0E797
:10593000048303082C01002048830308E828002082
:10594000A0830308FC830308288303087C830308DF
:10595000C4830308E028002030B585B004460D4913
:105960000120FCF7D7FA02940B4D01950023009318
:1059700044F62062002320460FF0A4FE0294019515
:1059800001230093054A002320460FF09BFE05B03B
:1059900030BD00BFE08303085D580108C07A1000E5
:1059A00038B501FB00F4204604F0E6FF054618B1C7
:1059B0002246002117F014F8284638BD70B588B08B
:1059C00005460C4617490020FCF7A4FA06AE164916
:1059D00030460EF095FC0023009396E80C0094E806
:1059E00003000EF0AFFEA8B1104B1B680593104BDF
:1059F0001B6804930F4B03930F4B02930F4B0193C0
:105A00000F4B00930F4B104AC82128460EF0EEFAB8
:105A100008B070BD0D4B0C4A4FF4C87128460EF00B
:105A2000E5FAF5E700840308C4650308FC280020B4
:105A30000429002074660308346703081C800308E7
:105A40004867030808870308806C03081473030879
:105A500010B5044605490020FCF75CFA044B054AE2
:105A60004FF4CA7120460EF0C1FA10BD208403081D
:105A700038840308806C03080B2900D0704770B588
:105A800086B00546144617490020FCF743FA02AEDB
:105A9000154930460EF034FC0023009396E80C00C4
:105AA00004F1080103C90EF04DFE28B12146284635
:105AB000FFF784FF06B070BD04AE0C4930460EF00F
:105AC0001FFC0023009396E80C0004F1080103C9B1
:105AD0000EF038FE0028EDD021462846FFF7B8FF2B
