:020000040801F1
:1000000000000220952B0108A92A0108AB2A01084B
:10001000AD2A0108AF2A0108B12A0108000000003A
:1000200000000000000000000000000001BD010809
:10003000B32A010800000000A1BD0108659B01086A
:10004000E52B0108E52B0108E52B0108E52B01084C
:10005000E52B0108E52B0108E52B0108E52B01083C
:10006000E52B0108E52B0108E52B0108E52B01082C
:10007000E52B0108E52B0108E52B0108E52B01081C
:10008000E52B0108E52B0108E52B01080000000025
:10009000000000000000000000000000E52B010847
:1000A000B52A0108E52B0108E52B0108E52B01081D
:1000B000E52B0108E52B0108E52B0108E52B0108DC
:1000C000E52B0108E52B0108E52B0108E52B0108CC
:1000D000E52B0108E52B0108E52B010800000000D5
:1000E000E52B0108E52B0108E52B010800000000C5
:1000F000000000000000000000000000E52B0108E7
:1001000000000000E52B0108E52B0108E52B0108A4
:1001100000000000000000000000000000000000DF
:10012000E52B0108E52B0108E52B0108E52B01086B
:10013000E52B0108000000000000000000000000A6
:10014000000000000000000000000000E52B010896
:10015000E52B0108E52B0108E52B0108E52B01083B
:10016000E52B0108E52B010800000000000000005D
:10017000000000000000000000000000000000007F
:1001800000000000E52B0108000000000000000056
:08019000E52B0108E52B010835
:1001A00010B5054C237833B9044B13B10448AFF3B1
:1001B00000800123237010BDA00800200000000073
:1001C000F878030808B5034B1BB103490348AFF3A4
:1001D000008008BD00000000A4080020F878030893
:1001E00010F8012B11F8013B012A28BF9A42F7D0E1
:1001F000D01A70470000000000000000000000005E
:1002000001F0FF01102A2BDB10F0070F08D010F8C7
:10021000013B013A8B422DD010F0070F42B3F6D1CB
:10022000F0B441EA012141EA014122F007047FF0E4
:1002300000070023F0E80256083C85EA010586EA3B
:10024000010685FA47F5A3FA87F586FA47F6A5FA77
:1002500087F68EB9EED1F0BC01F0FF0102F0070283
:1002600032B110F8013B013A83EA010313B1F8D12E
:100270000020704701387047002D06BF354603380F
:10028000073815F0010F07D1013015F4807F02BF48
:10029000013015F4C03F0130F0BC0138704700BF99
:1002A000034613F8012B002AFBD1181A01387047B6
:1002B00081F0004102E000BF83F0004330B54FEA17
:1002C00041044FEA430594EA050F08BF90EA020F84
:1002D0001FBF54EA000C55EA020C7FEA645C7FEA17
:1002E000655C00F0E2804FEA5454D4EB5555B8BF3A
:1002F0006D420CDD2C4480EA020281EA030382EAAB
:10030000000083EA010180EA020281EA0303362D3C
:1003100088BF30BD11F0004F4FEA01314FF4801C0F
:100320004CEA113102D0404261EB410113F0004F21
:100330004FEA03334CEA133302D0524263EB4303D8
:1003400094EA050F00F0A780A4F10104D5F1200E76
:100350000DDB02FA0EFC22FA05F2801841F10001D1
:1003600003FA0EF2801843FA05F359410EE0A5F1A5
:1003700020050EF1200E012A03FA0EFC28BF4CF0D6
:10038000020C43FA05F3C01851EBE37101F000458C
:1003900007D54FF0000EDCF1000C7EEB00006EEB99
:1003A0000101B1F5801F1BD3B1F5001F0CD3490823
:1003B0005FEA30004FEA3C0C04F101044FEA44527A
:1003C00012F5800F80F09A80BCF1004F08BF5FEA01
:1003D000500C50F1000041EB045141EA050130BDE1
:1003E0005FEA4C0C404141EB0101013C28BFB1F5F3
:1003F000801FE9D291F0000F04BF01460020B1FA3E
:1004000081F308BF2033A3F10B03B3F120020CDA10
:100410000C3208DD02F1140CC2F10C0201FA0CF0EE
:1004200021FA02F10CE002F11402D8BFC2F1200C53
:1004300001FA02F120FA0CFCDCBF41EA0C01904009
:10044000E41AA2BF01EB0451294330BD6FEA040452
:100450001F3C1CDA0C340EDC04F11404C4F120023D
:1004600020FA04F001FA02F340EA030021FA04F34F
:1004700045EA030130BDC4F10C04C4F1200220FAA6
:1004800002F001FA04F340EA0300294630BD21FAE4
:1004900004F0294630BD94F0000F83F4801306BFAA
:1004A00081F480110134013D4EE77FEA645C18BF9E
:1004B0007FEA655C29D094EA050F08BF90EA020F35
:1004C00005D054EA000C04BF1946104630BD91EA2D
:1004D000030F1EBF0021002030BD5FEA545C05D130
:1004E0004000494128BF41F0004130BD14F580046F
:1004F0003CBF01F5801130BD01F0004545F0FE41E3
:1005000041F470014FF0000030BD7FEA645C1ABF17
:10051000194610467FEA655C1CBF0B46024650EA4E
:10052000013406BF52EA033591EA030F41F400217A
:1005300030BD00BF90F0000F04BF0021704730B500
:100540004FF4806404F132044FF000054FF00001D5
:1005500050E700BF90F0000F04BF0021704730B596
:100560004FF4806404F1320410F0004548BF40426B
:100570004FF000013EE700BF42004FEAE2014FEAC0
:1005800031014FEA02701FBF12F07F4393F07F4F9B
:1005900081F06051704732F07F4208BF704793F09E
:1005A0007F4F04BF41F40021704730B54FF46074B1
:1005B00001F0004521F000411CE700BF50EA0102B4
:1005C00008BF704730B54FF000050AE050EA01025D
:1005D00008BF704730B511F0004502D5404261EBCD
:1005E00041014FF4806404F132045FEA915C3FF40E
:1005F000D8AE4FF003025FEADC0C18BF03325FEAAB
:10060000DC0C18BF033202EBDC02C2F1200300FA5B
:1006100003FC20FA02F001FA03FE40EA0E0021FA80
:1006200002F11444BDE600BF70B54FF0FF0C4CF46E
:10063000E06C1CEA11541DBF1CEA135594EA0C0F20
:1006400095EA0C0F00F0DEF82C4481EA030621EA5B
:100650004C5123EA4C5350EA013518BF52EA033596
:1006600041F4801143F4801338D0A0FB02CE4FF048
:100670000005E1FB02E506F00042E0FB03E54FF078
:100680000006E1FB03569CF0000F18BF4EF0010E70
:10069000A4F1FF04B6F5007F64F5407404D25FEA6C
:1006A0004E0E6D4146EB060642EAC62141EA55511F
:1006B0004FEAC52040EA5E504FEACE2EB4F1FD0C61
:1006C00088BFBCF5E06F1ED8BEF1004F08BF5FEADF
:1006D000500E50F1000041EB045170BD06F0004691
:1006E00046EA010140EA020081EA0301B4EB5C043E
:1006F000C2BFD4EB0C0541EA045170BD41F4801136
:100700004FF0000E013C00F3AB8014F1360FDEBF5A
:10071000002001F0004170BDC4F10004203C35DA36
:100720000C341BDC04F11404C4F1200500FA05F3B9
:1007300020FA04F001FA05F240EA020001F000425A
:1007400021F0004110EBD37021FA04F642EB0601D0
:100750005EEA430E08BF20EAD37070BDC4F10C04FA
:10076000C4F1200500FA04F320FA05F001FA04F2BE
:1007700040EA020001F0004110EBD37041F10001AA
:100780005EEA430E08BF20EAD37070BDC4F12005B5
:1007900000FA05F24EEA020E20FA04F301FA05F21D
:1007A00043EA020321FA04F001F0004121FA04F2C5
:1007B00020EA020000EBD3705EEA430E08BF20EA95
:1007C000D37070BD94F0000F0FD101F000464000CF
:1007D00041EB010111F4801F08BF013CF7D041EA51
:1007E000060195F0000F18BF704703F00046520055
:1007F00043EB030313F4801F08BF013DF7D043EA26
:100800000603704794EA0C0F0CEA135518BF95EADB
:100810000C0F0CD050EA410618BF52EA4306D1D162
:1008200081EA030101F000414FF0000070BD50EA81
:10083000410606BF1046194652EA430619D094EA0B
:100840000C0F02D150EA013613D195EA0C0F05D1F5
:1008500052EA03361CBF104619460AD181EA030149
:1008600001F0004141F0FE4141F470014FF0000001
:1008700070BD41F0FE4141F4780170BD70B54FF09C
:10088000FF0C4CF4E06C1CEA11541DBF1CEA13551C
:1008900094EA0C0F95EA0C0F00F0A7F8A4EB0504FE
:1008A00081EA030E52EA03354FEA013100F08880F5
:1008B0004FEA03334FF0805545EA131343EA1263BE
:1008C0004FEA022245EA111545EA10654FEA002673
:1008D0000EF000419D4208BF964244F1FD0404F52C
:1008E000407402D25B084FEA3202B61A65EB030588
:1008F0005B084FEA32024FF480104FF4002CB6EB45
:10090000020E75EB030E22BFB61A754640EA0C00C4
:100910005B084FEA3202B6EB020E75EB030E22BF04
:10092000B61A754640EA5C005B084FEA3202B6EB45
:10093000020E75EB030E22BFB61A754640EA9C0004
:100940005B084FEA3202B6EB020E75EB030E22BFD4
:10095000B61A754640EADC0055EA060E18D04FEA92
:10096000051545EA16754FEA06164FEAC30343EA32
:1009700052734FEAC2025FEA1C1CC0D111F4801FFF
:100980000BD141EA00014FF000004FF0004CB6E7F8
:1009900011F4801F04BF01430020B4F1FD0C88BF97
:1009A000BCF5E06F3FF6AFAEB5EB030C04BFB6EBA2
:1009B000020C5FEA500C50F1000041EB045170BD95
:1009C0000EF0004E4EEA113114EB5C04C2BFD4EBC2
:1009D0000C0541EA045170BD41F480114FF0000E46
:1009E000013C90E645EA060E8DE60CEA135594EAC2
:1009F0000C0F08BF95EA0C0F3FF43BAF94EA0C0FC5
:100A00000AD150EA01347FF434AF95EA0C0F7FF439
:100A100025AF104619462CE795EA0C0F06D152EA8D
:100A200003353FF4FDAE1046194622E750EA410671
:100A300018BF52EA43067FF4C5AE50EA41047FF482
:100A40000DAF52EA43057FF4EBAE12E74FF0FF3CE7
:100A500006E000BF4FF0010C02E000BF4FF0010CB8
:100A60004DF804CD4FEA410C7FEA6C5C4FEA430C31
:100A700018BF7FEA6C5C1BD001B050EA410C0CBF80
:100A800052EA430C91EA030F02BF90EA020F0020E2
:100A9000704710F1000F91EA030F58BF994208BF49
:100AA00090422CBFD8176FEAE37040F00100704706
:100AB0004FEA410C7FEA6C5C02D150EA013C07D15D
:100AC0004FEA430C7FEA6C5CD6D152EA033CD3D0A8
:100AD0005DF8040B704700BF8446104662468C46A2
:100AE0001946634600E000BF01B5FFF7B7FF0028D5
:100AF00048BF10F1000F01BD4DF808EDFFF7F4FFFE
:100B00000CBF012000205DF808FB00BF4DF808ED88
:100B1000FFF7EAFF34BF012000205DF808FB00BFAB
:100B20004DF808EDFFF7E0FF94BF012000205DF8CD
:100B300008FB00BF4DF808EDFFF7CEFF94BF012082
:100B400000205DF808FB00BF4DF808EDFFF7C4FF7B
:100B500034BF012000205DF808FB00BF4FEA410CC4
:100B60007FEA6C5C02D150EA013C0AD14FEA430CA7
:100B70007FEA6C5C02D152EA033C02D14FF00000E4
:100B800070474FF0010070474FEA410212F5001222
:100B900015D211D56FF47873B3EB625212D94FEAC4
:100BA000C12343F0004343EA505311F0004F23FAAE
:100BB00002F018BF404270474FF00000704750EA03
:100BC000013005D111F0004008BF6FF000407047C0
:100BD0004FF00000704700BF4A0011D212F500121A
:100BE00011D20DD56FF47873B3EB62520ED44FEA85
:100BF000C12343F0004343EA505323FA02F0704705
:100C00004FF00000704750EA013002D14FF0FF3042
:100C100070474FF0000070474FEA4102B2F1E043E5
:100C200024BFB3F5001CDCF1FE5C0DD901F0004CD3
:100C30004FEAC0024CEA5070B2F1004F40EB830023
:100C400008BF20F00100704711F0804F21D113F14F
:100C50003872BCBF01F00040704741F480114FEA88
:100C60005252C2F11802C2F1200C10FA0CF320FA11
:100C700002F018BF40F001004FEAC1234FEAD3232E
:100C800003FA0CFC40EA0C0023FA02F34FEA430398
:100C9000CCE77FEA625307D150EA01331EBF4FF021
:100CA000FE4040F44000704701F0004040F0FE403C
:100CB00040F40000704700BF7BB972B90029BEBF85
:100CC00000204FF0004106E008BF00281CBF6FF075
:100CD00000414FF0FF3000F01DBAADF1080C6DE996
:100CE00004CE002909DB002B1ADB00F097F8DDF8B1
:100CF00004E0DDE9022304B07047404261EB4101AA
:100D0000002B1BDB00F08AF8DDF804E0DDE90223AC
:100D100004B0404261EB4101524263EB4303704730
:100D2000524263EB430300F079F8DDF804E0DDE9BB
:100D3000022304B0404261EB41017047524263EB31
:100D4000430300F06BF8DDF804E0DDE9022304B0B2
:100D5000524263EB4303704753B94AB9002908BFB5
:100D600000281CBF4FF0FF314FF0FF3000F0D2B928
:100D7000ADF1080C6DE904CE00F050F8DDF804E0A8
:100D8000DDE9022304B07047430803F05533C01A6D
:100D9000830803F0333300F03330184400EB1010B5
:100DA00000F00F3000EB002000EB0040000E704719
:100DB00038B50022002304460D46FFF7A7FE28B9E8
:100DC00020462946BDE8384000F00AB8204605F123
:100DD000004100F005F8404261EB410138BD00BF21
:100DE000D0B50C4B002206460F46FFF71DFCFFF75F
:100DF000F3FE0446FFF79EFB074B0022FFF714FCAF
:100E000002460B4630463946FFF756FAFFF7E4FE36
:100E10002146D0BD0000F03D0000F0412DE9F04733
:100E2000089D8E4604468846002B4AD18A421746C2
:100E300062D9B2FA82F64EB1C6F1200301FA06F881
:100E400020FA03F3B74043EA0808B4404FEA174ECC
:100E50001FFA87FCB8FBFEF1230C0EFB118843EA56
:100E6000084301FB0CF29A4209D9FB1801F1FF304B
:100E700080F0EA809A4240F2E78002393B449A1AB5
:100E8000A3B2B2FBFEF00EFB102243EA024300FBCA
:100E90000CFC9C4509D9FB1800F1FF3280F0D6808C
:100EA0009C4540F2D3803B44023840EA0140A3EB2A
:100EB0000C0300211DB1F3400022C5E90032BDE85A
:100EC000F0878B4205D90DB1C5E900010021084624
:100ED000F5E7B3FA83F1002946D1734502D3824284
:100EE00000F20581841A6EEB030201209046002D6A
:100EF000E5D0C5E90048E2E7002A00F09080B2FAA8
:100F000082F6002E40F0A4808A1A030C4FEA174E96
:100F100080B2BCB20121B2FBFEFC0EFB1C2243EAF4
:100F2000024304FB0CF29A4207D9FB180CF1FF387C
:100F300002D29A4200F2E080C4469B1AB3FBFEF252
:100F40000EFB123340EA034302FB04F49C4207D930
:100F5000FB1802F1FF3002D29C4200F2CA80024626
:100F60001B1B42EA0C40A5E7C1F120068B4022FA88
:100F700006F71F430EFA01F420FA06F32EFA06FED6
:100F80004FEA1749234300FA01F81FFA87FCBEFB1A
:100F9000F9F01C0C09FB10EE44EA0E4400FB0CFEB9
:100FA000A64502FA01F209D93C1900F1FF3A80F096
:100FB0009C80A64540F2998002383C44A4EB0E0484
:100FC0001FFA83FEB4FBF9F309FB13444EEA044411
:100FD00003FB0CFCA44508D93C1903F1FF3E80F04B
:100FE0008280A4457FD9023B3C4443EA0040A4EB05
:100FF0000C04A0FB02EC64457346E14662D35FD06B
:101000005DB1B8EB030264EB090404FA06F622FAB8
:1010100001F31E43CC40C5E9006400214FE7B1FB5A
:10102000F2FC010C41EA0E4180B240EA01423B462B
:1010300038463C46B846BE462026B1FBF7F1A2EB47
:10104000080241EA0C4166E7014618E710462CE722
:10105000C6F120022EFA02F3B740B14020FA02F2A4
:101060004FEA174E0A43B3FBFEF8BCB20EFB18332F
:10107000110C41EA034108FB04F9B04089454FEAED
:10108000104380B23ED9791808F1FF3C01D289455E
:101090001FD8A1EB0901B1FBFEF909FB04F80EFB17
:1010A000191192B242EA0142424529D2BA1809F115
:1010B000FF31C4D24245C2D2A9F102013A44BEE78F
:1010C000F0459DD2BEEB02036CEB070C0138E14604
:1010D00096E7A7EB09094944A8F1020CB1FBFEF918
:1010E00009FB04F8DBE773467FE7504666E70846EE
:1010F000FDE63B44023A33E7ACF1020C3B441CE70B
:1011000049469CE7A1EB0901C446B1FBFEF909FB86
:1011100004F8C4E7704700BF00B585B00023009312
:101120000193029303931548154A02604FF440322D
:10113000426083600361037680F82030C362114A05
:101140008262C3600122C26180F83030426105F0E2
:10115000C5FF68B912230093012301930023029372
:101160006946064806F0EAF828B905B05DF804FBC0
:1011700001F056FAEEE701F053FAF6E7BC0800205A
:10118000002001400100000F0268094B9A4200D084
:10119000704782B000230193064B5A6C42F4807270
:1011A0005A645B6C03F480730193019B02B0704737
:1011B000002001400038024010B52DED028B84B0B4
:1011C0001C4B5B8D07EE903AB8EE678A00230093C4
:1011D00001930293039311230093012301930723A7
:1011E00002936946144806F0A9F828B1BFEE000A38
:1011F00004B0BDEC028B10BD0F4C204605F09AFFE9
:101200000A21204606F03AF868B1DFED0C8A0A4858
:1012100006F014F8F8EE688A88EE280ADFED087AFE
:1012200020EE270AE4E7204606F084F808EE900A4C
:10123000EDE700BF007AFF1FBC080020000000009F
:101240003333534010B52DED028B84B0002300934F
:10125000019302930393FFF7AFFFB5EEC00AF1EEDF
:1012600010FA32D4B0EE408A122300930123019386
:1012700007230293002303936946174806F05EF89C
:1012800010B1BFEE000A22E0134C204605F052FFD9
:101290000A21204605F0F2FF88B1DFED108A0E48E2
:1012A00005F0CCFFF8EE687A9FED0D7A87EE870A9D
:1012B00020EE080AF1EE007A20EE270A07E0204629
:1012C00006F038F808EE900AE9E7BFEE000A04B02D
:1012D000BDEC028B10BD00BFBC0800200000000068
:1012E00000F07F4508B509490B685A1C0A60084997
:1012F000C8540A2801D0FF2A07D9054B0549012007
:1013000001F0E4F8014B00221A6008BD040A002035
:10131000040900208C7B030808B500224FF480519B
:10132000014806F0D2FA08BD0004024008B50122C7
:101330004FF48051014806F0C8FA08BD000402408D
:1013400008B500224FF40041014806F0BEFA08BD7E
:101350000000024008B501224FF40041014806F0A8
:10136000B4FA08BD0000024010B58EB04A4B93E8B5
:1013700003000C90ADF834100DF1240C03F10804B7
:1013800094E807008CE80700143393E80300079003
:10139000ADF8201004AB94E8070083E8070072E082
:1013A00000231A4601A93D48006808F0ACFD00245E
:1013B0000EE000220EAB03EB440333F8081C0EAB27
:1013C00003EB840353F8140C06F07FFA0134E4B203
:1013D000022C5ED804F138036B4413F8343C002B24
:1013E000E7D001220EAB03EB440333F8081C0EAB2D
:1013F00003EB840353F8140C06F067FAE6E70EAB30
:1014000003EB440203EB840332F8081C53F8140C7A
:1014100006F054FA04F138036B4403F8300C01343D
:10142000E4B2022CEBD91E4C206808F0BAFD002370
:101430001A4602A9206808F024FD002414E00EAB2F
:1014400003EB440203EB840332F81C1C53F8280C12
:1014500006F034FAB0FA80F0400904F138036B4426
:1014600003F82C0C0134E4B2022CE8D90D4C2068AE
:1014700008F097FD00231A4603A9206808F001FD33
:10148000012008F004FC054B186808F07DFD0028D9
:1014900086D10024C5E700BF10790308200A002088
:1014A000240A0020280A002084B008B50DF1080C99
:1014B0008CE80F0000231A4661460448006808F0D3
:1014C000E0FCBDE8084004B0704700BF180A0020E7
:1014D00070B5BAB0002339937E4B7F4A7F4980486C
:1014E00005F0A4FA7F4980480BF00CF800283EDB99
:1014F0007E480AF0F1FF7E4C20460AF0E1FF7D486D
:101500000AF0DEFF20460AF0E7FF7B480AF0E4FF1E
:101510007A480AF0E1FF7A480AF0DEFF79480AF0DB
:10152000DBFF79480AF0D8FF002239A977480AF092
:101530001BFF30B3012175480AF054FF0446C62250
:1015400007A90AF07FFF20460AF070FF00228DF8FD
:101550001C20022307A96E48006808F0F9FE00224B
:1015600039A96C480AF000FFC0B1002489E06A4B39
:1015700001221A7040F6B83008F089FB06F02EF808
:10158000B6E7C622002107A81BF07AF90223002241
:1015900007A95F48006808F0DBFEE0E740F29A60C8
:1015A0000AF07AFD044690B35C49012000F08EFFFA
:1015B0005B4B186820609B88A38001AD594E0FCE0D
:1015C0000FC596E8030045F8040B297001AD0FCD57
:1015D000C4F88000C4F88410C4F88820C4F88C30A3
:1015E0002868C4F890002B7984F894300221494887
:1015F0000AF0F8FE054640F29A6221460AF02EFFF4
:1016000028460AF013FF20460AF0C8FDADE7464918
:10161000032000F05BFFF6E73C4D28460AF050FF40
:10162000022128460AF0DEFE0546002833D0C622F5
:1016300007A90AF013FF28460AF0F8FE00228DF8E9
:101640001C20022307A93248006808F081FE22E02E
:10165000012008F01CFB4FF48071344806F02EF98D
:101660000028F5D04FF47A7008F011FB29480AF0F1
:1016700027FF05F0B3FF00E000244FF47A7008F074
:1016800006FB002207A9224B186809F074F99DF89F
:101690001C30002BC0D14FF48071244806F00EF9A5
:1016A0000028E9D10134E4B2204D0122022128466C
:1016B00006F00BF9642008F0EAFA0022022128461D
:1016C00006F003F9082CD8D101220221284606F0A1
:1016D000FCF8C0E74D1D0108711D010855130108F4
:1016E000411301089D1D0108891D0108947B030811
:1016F0009C7B0308A87B0308B87B0308C47B030812
:10170000FC950308CC7B0308D47B0308DC7B03082F
:101710001C0A0020F07B0308440A00202C7C0308EC
:10172000647C03086C7C0308007C0308000402400E
:1017300008B5012913D0022919D089B94AB1012A63
:101740000ED10223002201461148006808F000FE75
:1017500006E001460E4B186809F00DF900E002B1F1
:1017600008BD01460B4B186809F005F9F8E74AB1C6
:10177000012AF5D10223002201460748006808F03B
:10178000E7FDEDE70146054B186809F0F4F8E7E7D7
:101790001C0A0020280A0020200A0020240A002019
:1017A000F0B58BB04FF47A7008F071FA08F00CF9CC
:1017B000642008F06CFA0021012008F069F800208C
:1017C00008F02AF8A94B1C78002C48D1A84D01221A
:1017D0002946A84808F0B0F801222946A64808F092
:1017E000ABF804F10B01C9B2012008F051F8012255
:1017F0002946A24808F0A0F804F11601C9B2012058
:1018000008F046F89E4B59680A784B788878CE786D
:101810000F7949790391029701960090994905A89B
:101820001AF03AFE0122294605A808F085F804F1CD
:101830002101C9B2012008F02BF80AF05FFE014631
:1018400005A81CF067FD0122294605A808F074F8D8
:1018500008F064F940F6B83008F019FACEE000213B
:10186000012008F015F8002007F0D6FF804C012277
:101870002146854808F060F80A21012008F008F8A0
:1018800001222146814808F057F81421012007F071
:10189000FFFF012221467E4808F04EF808F03EF98D
:1018A00040F6B83009F060FD14248FE713F1050FFE
:1018B00008D12821012007F0EBFF01226C4975486F
:1018C00008F03AF80021012007F0E2FF684C0122FD
:1018D0002146714808F030F8694B5B689A68130E2E
:1018E0000193C2F307430093C2F30723D2B26B49BB
:1018F00005A81AF0D1FD0122214605A808F01CF820
:101900000B21012007F0C4FF01222146644808F0A2
:1019100013F80B213D2007F0BBFF00253D241FE0FD
:101920002821012007F0B4FF012251495D4808F049
:1019300003F8C7E72821012007F0AAFF01224C493C
:10194000594807F0F9FFBDE70122494905A807F00A
:10195000F3FF0834E4B20B21204607F099FF354627
:10196000022D0FDC6E1C3246504905A81AF094FD7A
:101970004F4B5B5D002BE7D000223D4905A807F0E7
:10198000DBFFE6E71621012007F082FF012238493C
:10199000484807F0D1FF16213D2007F079FF0025C8
:1019A0003D240BE00122324905A807F0C5FF0834A9
:1019B000E4B21621204607F06BFF3546022D10DCFD
:1019C0006E1C3246394905A81AF066FD384B2B4487
:1019D000DB78002BE6D00022254905A807F0ACFFF4
:1019E000E5E708F09BF84FF47A730122782132483A
:1019F00006F0C0FA50BBC82008F049F92C4C002270
:101A000001212046FFF794FE00220221E01CFFF78F
:101A10008FFE002007F000FF284B93F9003013F1F0
:101A20000C0F87D03FF742AF13F1540F3FF478AF5C
:101A300013F1180F7FF446AF2821012007F028FF8B
:101A400001220B491E4807F077FF3BE71A4806F0D2
:101A5000BBF94FF47A7009F087FC00F03FFC4FF4BB
:101A60007A7009F081FC07F0AFFFBCE7440A002060
:101A70001C010020B87C0308C47C0308D07C030848
:101A8000480A0020DC7C0308847C0308987C030857
:101A9000A47C0308FC7C0308387D03083C7D030814
:101AA0004C7D0308087D0308287D0308A4C40308AF
:101AB000080A0020547D0308500A0020450A00202F
:101AC000187D03082DE9F04FC7B0734800F0F2FC11
:101AD000012000F0F5FC7149012000F0F7FC03E063
:101AE0004FF4FA7008F0D3F80AF002FD0028F7D09E
:101AF0000AF004FD02466A49012000F0E7FC694A49
:101B00006949012000F0E2FC684B1B68C3F30B0A33
:101B10004FEA1348434652466549012000F0D6FC7F
:101B2000644BB3F822904A466349012000F0CEFC92
:101B3000624A6349012000F0C9FC624A62490120FF
:101B400000F0C4FC00252F462E4644F6206438E001
:101B500000231A4604A95D48006808F0D4F9022160
:101B60005B480AF03FFC83469DF811210DF11101FD
:101B70000AF074FC574B187058460AF057FC26E0E0
:101B8000554C2A460221204607F0ADF82A4603218B
:101B9000204607F0A8F832460421204607F0A3F8B3
:101BA00032460521204607F09EF83A460621204697
:101BB00007F099F83A460721204607F094F80024E8
:101BC0000134424B186808F0DFF90028C0D14FF407
:101BD000FA7008F05CF8C82CF2D9002245A93C48FC
:101BE0000AF0C2FB459A3D4B9A42C9D93C4C20466B
:101BF0000AF066FC214636480AF056FC39490120B5
:101C000000F064FC384B59680A784B788878CC78B7
:101C10000D7949790391029501940090334901208F
:101C200000F054FC0AF06AFC02461D49012000F055
:101C30004DFC434652461E49012000F047FC4A46EF
:101C40001D49012000F042FC164A1749012000F00E
:101C50003DFC1A4A1A49012000F038FC194A1A4979
:101C6000012000F033FC05F03BF9064605F03EF993
:101C7000074605F041F9054632461D49012000F0AE
:101C800025FC3A461B49012000F020FC2A461A494F
:101C9000012000F01BFC73E7A9140108607D030814
:101CA000747D0308907D0308987D0308002004E0FC
:101CB000B07D0308007AFF1FD07D0308D07C0308A5
:101CC000E87D0308C47C0308007E0308180A00208E
:101CD000187E0308450A0020B40A0020A0860100EF
:101CE000287E0308387E0308480A00204C7E03083B
:101CF000747E0308907E0308AC7E030808B506488E
:101D000006F02EFA4FF4FA7007F0C1FF01210348E4
:101D100005F0E1FDF3E700BFA40A00200004024043
:101D200000B587B08DF80F104FF0FF3300930123FB
:101D30000DF117020DF10F01034807F00AFA9DF8A3
:101D4000170007B05DF804FBD40A002000B583B08B
:101D50008DF807004FF0FF3301220DF10701034812
:101D600007F015F903B05DF804FB00BF2C0B002051
:101D700008B50A464FF0FF330146024807F013FB4F
:101D800008BD00BF2C0B002008B54FF0FF31024BFF
:101D9000186807F0D5FF08BD100A002008B5024BEF
:101DA000186807F0FCFF08BD100A002008B52C4891
:101DB00007F07BFF2B4B18602B4807F076FF2B4B6F
:101DC00018602B4A0321012008F010F8294B1860F5
:101DD000294A0321012008F009F8284B1860284AF5
:101DE0000321012008F002F8264B1860264AC6217C
:101DF000012007F0FBFF254B1860254A4FF4817145
:101E0000192007F0F3FF234B1860234A00212348D1
:101E100007F0E2FE224B1860224A0021224807F018
:101E2000DBFE224B1860224A0021224807F0D4FE34
:101E3000214B1860214A0021214807F0CDFE214B9B
:101E40001860214A0021214807F0C6FE204B186087
:101E5000204A0021204807F0BFFE204B186008BD33
:101E6000E0C70308140A0020D0C70308100A0020A6
:101E700050C80308280A002038C80308240A002094
:101E800020C80308200A002008C803081C0A0020F4
:101E9000F0C70308180A00201CC90308091F01081D
:101EA000400A0020F8C80308691301083C0A002012
:101EB000D4C80308A1170108380A0020B0C80308D5
:101EC000D1140108340A00208CC80308C51A01087F
:101ED000300A002068C80308FD1C01082C0A0020F5
:101EE00008B500224FF48071014805F0EEFC08BDF2
:101EF0000000024008B501224FF48071014805F04E
:101F0000E4FC08BD0000024030B5EBB022AD664BEA
:101F10000FCB85E80F0002AC8022002120461AF08A
:101F2000AFFC40238DF8083022238DF809305F4B39
:101F30001A7C8DF80A209A7C8DF80B201A7D8DF87A
:101F40000C201B7E8DF80D3001238DF827308DF885
:101F50002830574B0B930C95564B58AA1A605C606F
:101F600003E04FF4FA7007F092FE0AF0C1FA00287D
:101F7000F7D00021504812F0BDFC58A812F0A2FE84
:101F80004E4B02221A6003F07FF804460FE0FFF781
:101F9000A7FF4FF4FA7007F07AFEFFF7ABFF4FF49C
:101FA000FA6007F074FE02A958A818F0E1FABDF82B
:101FB0004C30002BEBD0062102A803F0C1FD4048B5
:101FC00003F070F83B4B22463E4958A816F002FD3C
:101FD00006E0012158A819F065F8012007F057FE26
:101FE0009DF88430032BF4D1324B5B689A68130E52
:101FF0000193C2F307430093C2F30723D2B23249DD
:10200000012000F063FA0022114626A8FFF790FB9A
:102010009DF89930EBB12D49012000F057FA284B7B
:1020200001930DF23D13009347AB0DF19A0202A903
:1020300058A803F08FFC58A804F0DAFA02A958A8AF
:1020400004F0A2FC58A801F057F909F07FF8054602
:1020500008E01F49012000F039FAECE7012007F001
:1020600016FE254609F072F80446411B58A819F0DF
:1020700019F80B9BDB6802A898470028EED1FFF700
:102080002FFF642007F003FEFFF734FF40F6B8305F
:1020900007F0FDFD0B9B1B6802A8984741F65830DE
:1020A00007F0F5FDE5E700BF2C790308007AFF1F74
:1020B00028010020480A0020E51201083C01002008
:1020C00031170108C07E0308D47E0308F07E0308A0
:1020D000087F03080BB2002B20DD70B582B00646E6
:1020E00015468B18042B02DD012002B070BD4C1E7A
:1020F000A4B20022012101A8FFF71AFB0AE004F1B3
:1021000008036B4413F8043C0122A1B2304600F0EE
:1021100049FF0134A542F2DC0020E6E701207047C8
:10212000F0B583B016460AB2002A43DD05461F46C5
:102130008B19042B41DC27B3012F39D101398CB223
:102140000022022101A8FFF7F3FA27460FE001223F
:10215000B9B2284600F05AFF01220021284600F0BB
:1021600055FF07F108036B4403F8040C01373319DA
:10217000BB42ECDC0122022101A8FFF7D9FA0020C2
:1021800019E04C1EA4B20022022101A8FFF7D0FAE8
:102190000AE004F108036B4413F8043C0122A1B2E5
:1021A000284600F0FFFE0134A642F2DC384602E089
:1021B000012000E0012003B0F0BD0120FBE7012079
:1021C00070470120704700002DE9F04389B00024DA
:1021D0000394049405940694079400943C4B1A6B62
:1021E00042F080021A631A6B02F080020092009A99
:1021F00001941A6B42F001021A631A6B02F0010299
:102200000192019A02941A6B42F002021A631B6B4C
:1022100003F002030293029B2E4E22464FF4F0710C
:10222000304605F052FB2C4D22460721284605F08A
:102230004CFB01224FF48051284605F046FB012259
:102240004FF40041304605F040FB4FF00709CDF850
:102250000C9004944FF00208CDF8148003A9304686
:1022600005F0C0F9E0230393012704970594069431
:1022700003A9304605F0B6F9CDF80C900497059403
:10228000069403A9284605F0ADF94FF48053039353
:1022900004970594CDF8188003A9284605F0A2F903
:1022A0004FF40143039304970594CDF8188003A9D4
:1022B000304605F097F94FF4807303930494059426
:1022C00003A9284605F08EF909B0BDE8F08300BFE8
:1022D00000380240000002400004024008B50B48EC
:1022E0000B4B03600B4B436000238360C3604FF4D0
:1022F0008042026143618361C361036205F086FC31
:1023000000B908BD00F08CF9FBE700BF500A0020BF
:1023100000540040400D030030B589B00023039302
:1023200004930593069307930268154B9A4201D0D4
:1023300009B030BD00250195124C236B43F0020318
:102340002363236B03F002030193019BC0230393D8
:102350001223049301230593032306930423079375
:1023600003A9094805F03EF90295236C43F40013D4
:102370002364236C03F400130293029BD8E700BF8D
:1023800000540040003802400004024002680A4B3A
:102390009A4200D0704710B5084A136C23F400131A
:1023A0001364074C4021204605F000FA80212046A6
:1023B00005F0FCF910BD00BF005400400038024099
:1023C0000004024008B50748074B0360032343603D
:1023D00040F6FF73836005F097FE00B908BD00F07A
:1023E0001FF9FBE7A40A00200030004084B08DE80C
:1023F0000F0004B0704738B501FB00F4204609F027
:102400004BFE054618B1224600211AF039FA28463B
:1024100038BD000010B590B0254C00220BA9204615
:1024200006F01DFC00220AA9204606F03EFC2422EC
:10243000002101A81AF024FA9DF82B30643306938A
:102440009DF82930013B05939DF82A3004939DF8AF
:102450002C3003939DF82D3002939DF82E3001937C
:1024600001A81AF00DFD0C9A4FF47A7303FB02F2E7
:102470000D9BB2FBF3F2C2F5797203324FEA411CB5
:102480004CEAD06C43011B1A6CEB010C4FEA8C0C2C
:102490004CEA937C9B001B1841EB0C01C90041EAFC
:1024A0005371DB00D01841F1000110B010BD00BF26
:1024B000B40A002008B1014A1060704700000020F3
:1024C000014B1870704700BFB00A00200EB4F0B581
:1024D000ADF51C7D444B1B78834205D90DF51C7D61
:1024E000BDE8F04003B07047044601214FF480700E
:1024F000FFF781FF05460028F0D04FF481720021DC
:102500005BA81AF0BDF98DF86C41FFF783FFFEF769
:102510005DF806460F460022344BFEF7AFF9FEF792
:1025200047FCCDE958014FA958A81AF0E5FA4FAB7E
:102530002F4A40213FA81BF07FFB04463046394616
:10254000FEF722FB2B4A82FB0032C317C3EBA21318
:102550004FF47A7202FB1303274AC4F140013FA8EB
:10256000204419F063FF0444631C20223FA90A554C
:102570000022CA54A2AB5A930DF26D16A19AFD2106
:1025800030461AF0EFF804469DF86C2101961B4B7B
:1025900053F8223000933FAB194A4FF4807128461C
:1025A00019F044FFF52C1BD82846FDF779FE8DF86D
:1025B0006D024FF4807229460DF26D101AF0A7F9E2
:1025C000104B1E6846B15BACF2225FA968461BF057
:1025D000D3FE94E80F00B047284609F0DFFD7DE701
:1025E000F6238DF86D32E4E7B00A002000408F40FA
:1025F000B47F0308D34D6210C87F03080400002095
:10260000D07F03080000002008B50268034B9A42FF
:1026100000D008BD04F0A2FCFBE700BF0040014071
:1026200072B6FEE700B595B03022002108A81AF076
:1026300027F90023039304930593069307930193CB
:10264000204A116C41F080511164126C02F08052EA
:102650000192019A02931C4B1A6842F440421A609C
:102660001B6803F440430293029B092308934FF431
:102670008033099301230D9302220E924FF48003BD
:102680000F9304231093642111911292139308A8BD
:1026900005F06CFD88B90F230393022304930023F4
:1026A00005934FF4805206920793032103A805F087
:1026B000C7FF20B915B05DF804FBFFF7B1FFFFF7C6
:1026C000AFFF00BF003802400070004000B583B08B
:1026D00072B62F4B2F4A9A6062B62F4B019302E0DD
:1026E000019B013B0193019B002BF9DC04F01CFCD6
:1026F000FFF798FFFFF768FD00F0E8F8FFF7EEFD41
:1027000000F0C2F8FFF75EFEFEF706FD00F048F8A5
:10271000224D0221284606F0EBFA04460321284602
:1027200006F0E6FA84421ED01C4D0421284606F02D
:10273000DFFA04460521284606F0DAFA844219D069
:10274000164D0621284606F0D3FA044607212846EE
:1027500006F0CEFA844214D007F010FAFFF726FBF9
:1027600007F01EFAFEE70221284606F0C1FA04F03F
:10277000D5FBD9E70421284606F0BAFA04F0C2FBDB
:10278000DEE70621284606F0B3FA04F0C1FBE3E7D2
:1027900000ED00E00000010840420F00B40A0020F4
:1027A00000B587B00023019302930393049305932C
:1027B00000932048204A026043607F228260FF220B
:1027C000C26003614361836106F038F940BB0121B7
:1027D000184806F08DFA43F2F22398421DD00023E8
:1027E0008DF804308DF805308DF80630049305938C
:1027F000012201A90F4806F07BF9A0B901228DF84A
:1028000000208DF801208DF8022000238DF8033080
:102810006946084806F0CCF940B907B05DF804FBFA
:10282000FFF7FEFED3E7FFF7FBFEE7E7FFF7F8FE53
:10283000F3E700BFB40A00200028004000B587B0CD
:10284000002300930193029303930493059302687A
:102850000B4B9A4202D007B05DF804FB02230093B1
:102860004FF400730493684605F0DEFF20B9054B72
:102870000122C3F83C2EEEE7FFF7D2FEF7E700BFD8
:10288000002800400000474208B50E480E4B036088
:102890004FF48273436000238360C360036143612C
:1028A0004FF4007282610822C26103624362836254
:1028B0000A23C36206F00CFB00B908BDFFF7B0FEA7
:1028C000FBE700BF2C0B00200030014008B50D488D
:1028D0000D4B03604FF48273436000238360C36039
:1028E000036143614FF400728261C361036243621A
:1028F00083620A23C36206F0EBFA00B908BDFFF752
:102900008FFEFBE7D40A00200038004000B58BB0F2
:102910000023059306930793089309930368284AB5
:10292000934205D0274A934225D00BB05DF804FBB3
:1029300000210191244B5A6C42F480525A645A6C23
:1029400002F480520192019A02911A6B42F0020243
:102950001A631B6B03F002030293029B3823059357
:1029600002230693032308930523099305A9174817
:1029700004F038FED9E700210391134B1A6C42F49E
:1029800080421A641A6C02F480420392039A049102
:102990001A6B42F002021A631B6B03F002030493EA
:1029A000049B4FF46043059302230693032308938B
:1029B0000523099305A9054804F014FEB5E700BFF7
:1029C000003001400038004000380240000402405E
:1029D00000B583B0002200920D4B596C41F4804148
:1029E0005964596C01F48041009100990192196C6D
:1029F00041F0805119641B6C03F080530193019BDB
:102A00000F216FF0010004F0D5FD03B05DF804FB69
:102A10000038024030B589B00546002401941D4BB2
:102A20005A6C42F480325A645B6C03F48033019335
:102A3000019B02A903A805F0D9FE05F0C7FE164ABE
:102A4000A2FB00239B0C013B1448154A026040F294
:102A5000E732C260436004618460846106F0AEFEC8
:102A6000044610B1204609B030BD0C4806F060FDA8
:102A700004460028F6D1182004F0ACFD0F2D01D932
:102A80000124EFE700222946182004F093FD054BAE
:102A90001D60E7E70038024083DE1B43840B002003
:102AA0000040014018010020FEE7FEE7FEE7FEE7D8
:102AB000FEE7704708B5024806F07AFD08BD00BF82
:102AC000840B00200120704708B51BF01DFC162365
:102AD00003604FF0FF3008BD08B54FF0FF31FFF73E
:102AE000F3FFFEE770B50C461646002506E0AFF38F
:102AF0000080214601F8010B01350C46B542F6DB9A
:102B0000304670BD70B50C461646002504E014F83A
:102B1000010BAFF300800135B542F8DB304670BDE4
:102B20004FF0FF3070474FF400534B600020704768
:102B3000012070470020704710B503460C4A0D492C
:102B40000D48006840B10C4800680344521A934293
:102B500006D8094A136010BD0748084C0460F2E724
:102B60001BF0D2FB0C2303604FF0FF30F3E700BFF4
:102B70000000022000080000D00B002060A401200B
:102B8000034AD2F8883043F47003C2F888307047A3
:102B900000ED00E0DFF834D0FFF7F2FF0C480D49FC
:102BA0000D4A002302E0D458C4500433C4188C42A8
:102BB000F9D30A4A0A4C002301E013600432A2420E
:102BC000FBD31BF0AFFBFFF781FD70470000022035
:102BD000000000209C080020ECE30308A00800206F
:102BE00060A40120FEE738B50B88052B01D0032037
:102BF00038BD0C464378817841EA0321013189B21E
:102C0000C378027942EA0322531E9BB240F2CE7C83
:102C1000634520D8002323800123037023880133D8
:102C2000238012F0070F10D0C2F3C7030133DDB2C7
:102C3000457023880133238000230230FFF770FAA8
:102C400030B923882B442380D2E7C2F3C705EFE7CE
:102C500000F0F0F9CCE70320CAE70B88052B01D080
:102C6000032070474378817841EA0321013189B21A
:102C70000379F3B9C278531EDBB2FD2B1BD900B523
:102C800083B000238DF80530FF2A0BD000238DF888
:102C9000043001231A4601A8FFF742FA30B903B005
:102CA0005DF804FB01238DF80430F2E700F0C2F96F
:102CB000F5E703207047032070470B88052B2DD9BB
:102CC00010B50C464278837843EA0223013399B267
:102CD000C278037943EA022290F805E013F0070F67
:102CE0000ED0C2F3C70C0CF1010C5FFA8CFC531E22
:102CF0009BB2B3F5F66F13D2F44504D0032010BD98
:102D0000C2F3C70CF3E701230630FFF709FA10B945
:102D100005232380F3E700F08DF9F0E703207047E7
:102D20000320ECE738B50B88052B01D0032038BD14
:102D30000C464378817841EA0321013189B2C37896
:102D4000027942EA0322531E9BB240F2CE7C6345D5
:102D50001FD800232380022303702388013323809C
:102D600012F0070F0FD0C2F3C7030133DDB2457075
:102D70002388013323800230FFF7ACF930B9238870
:102D80002B442380D3E7C2F3C705F0E700F052F9E4
:102D9000CDE70320CBE708B50B88052B01D0032036
:102DA00008BD4378817841EA0321013101231A46A5
:102DB00089B20330FFF705FA0028F1D000F03AF9A4
:102DC000EEE70B88052B22D910B50C4642788378A4
:102DD00043EA0223013399B2C378027942EA03221B
:102DE00090F805C0531E9BB2772B12D85300DBB26C
:102DF000634501D0032010BD01230630FFF7E1F940
:102E000010B905232380F6E700F014F9F3E7032057
:102E100070470320EFE738B50B88052B01D003205E
:102E200038BD02460C464378817841EA03210131DE
:102E300089B205796B1E9BB27C2B01D90320EFE789
:102E4000002323804FF0030C00F802CBB4F800C03D
:102E50000CF1010CA4F800C04FEA450C82F801C047
:102E60002288013222802A46FFF7ABF920B9238855
:102E700003EB45032380D3E700F0DCF8D0E7F8B597
:102E80000B88092B43D904460D464378817841EAE3
:102E9000032101318EB2C378077947EA03274379CA
:102EA000817941EA0321013189B2C379027A42EA88
:102EB0000322407A7B1E9BB27C2B2AD85AB3792AF4
:102EC0002BD8B0EB420F01D0032021E0012304F105
:102ED0000A00FFF776F90346B0B92880204617228A
:102EE00000F8022B2A8801322A807A0062702A8830
:102EF00001322A803A463146FFF763F920B92B8820
:102F000003EB47032B8003E000F094F800E000207F
:102F1000F8BD0320FCE70320FAE70320F8E70A885E
:102F2000052A01D00320704738B503460C46427885
:102F3000817841EA0221013189B2C278057945EAF6
:102F400002256A1E92B27B2A01D9032038BD0022D5
:102F50002280042200F8022B2288013222806A009B
:102F60005A702388013323802A46FFF728F920B9B5
:102F7000238803EB45032380E8E700F05BF8E5E7EF
:102F800038B50D46054B1C882246054901301BF01B
:102F9000F3F901342C80002038BD00BFD40B002091
:102FA000D80B002010B5082A23D84FEAD10E01F023
:102FB000070403FA04F44FF0010C0CFA02F292B287
:102FC000013A92B201F0070102FA01F110F80E3055
:102FD0000EEB0C0210F802C043EA0C231BB223EAEA
:102FE00001031BB2234300F80E30C3F307238354BD
:102FF00010BD034B034A3721034818F047FB00BFBD
:10300000FC7F030858C903080C8003084FEAD10C61
:10301000012393409BB2013B10F80C2060444078A0
:1030200042EA002201F007010A4192B203EA0200DB
:10303000C0B27047012803D0072803D020B97047D9
:1030400002207047062070470420704710B500F03A
:10305000CEF9044620B1114B01221A70204610BD52
:1030600000F0CAF8C0B10E4B0E4A1A600E4B0F4A60
:103070001A600F4B0F4A1A600F4B104A1A60104B20
:1030800000221A600F4BFF221A700F4B02221A7097
:10309000024B01221A70E1E70324DFE79C000020C5
:1030A000100C0020FF3301080C0C00200134010833
:1030B000080C002009340108140C002049340108D0
:1030C000040C0020190C0020180C002008B5064B39
:1030D0001B78012B01D0062008BD044B1B689847C4
:1030E0000020014B1870F7E79C000020100C002016
:1030F00030B583B0364B1C78002C63D10DF107003E
:1031000000F08EF8012802D0204603B030BD9DF8B3
:103110000730012B14D0022BF6D12E4B1868017802
:103120002D4B19702D4B01221A7000230F2B25DC1B
:103130002B4A12F833200AB3914217D00133F5E736
:10314000284B1B68284A23492848984705460028E9
:10315000DAD1264B1B78264A1278934201D0002BF5
:1031600032D1022000F050F82C46CDE71C4A02EB89
:10317000C3035B681C499847184B18701B4B1B789E
:1031800023B3164B1B789BB1174A002111801249BB
:103190000978104805684FF0010CA2F800C041F012
:1031A000800129700068118801EB0C0515804354DB
:1031B000104B1B680C4A1288064909680C480078B5
:1031C0009847A1E706249FE704469DE71C469BE736
:1031D0009C000020FC0B0020F90B0020F80B0020C5
:1031E0001C000020080C0020FA0B0020000C00201E
:1031F000190C0020140C0020024B00221A70012030
:10320000704700BF1A0C00200123034A1370034AC1
:1032100010701846704700BF1A0C00201B0C0020CD
:103220000346054A107830B1044A12781A70024BEE
:1032300000221A70012070471A0C00201B0C00207D
:10324000072900D0704738B504461E4B00F11C0218
:1032500093E8030014F00EFB012806D094F8AD307B
:1032600043F0200384F8AD3038BD226C93B2164988
:103270000B8033B994F8AD3043F0200384F8AD30BF
:10328000F2E71A46A16B11481BF076F80120FFF710
:10329000BBFFFFF72DFFFFF72BFF0D4B1B7833B95B
:1032A00094F8AD3043F0200384F8AD30DCE700251E
:1032B000074B1D70074B1A880749204615F0F2FB93
:1032C0002564D1E71C0C0020281400202C140020B9
:1032D000240C0020260C0020280C002038B501FB0F
:1032E00000F4204608F0D8FE054618B12246002119
:1032F00019F0C6FA284638BD30B583B00023244AF9
:10330000244915F0E3FA0020FFF7A0FEFFF7DEFEE8
:103310000022019201A9204809F026F80198421ED6
:1033200040F2FE339A4215D801210844FFF7D6FF38
:103330001A4D28600121184809F054F80446019AF2
:10334000296809F07FF8019B6B60204609F06EF850
:1033500003B030BD01210B20FFF7C0FF03460F4C27
:1033600020600B2262600E4A03CA186059601188FF
:10337000927819819A720221074809F033F80546BC
:103380006268216809F06AF8284609F04FF8DFE71B
:103390004132010854800308688003081C0C002097
:1033A0007C80030801207047044B0360044B1A889B
:1033B0000A8000221A800120704700BF2C140020D0
:1033C0002814002010B50C460A46014604481AF09D
:1033D000D3FF044B1C800120034B187010BD00BFAD
:1033E000280C0020260C0020240C0020704708B573
:1033F000FFF7D8FF08B1002008BD0320FCE77047A5
:1034000008B5FFF7F3FF08BD70B582B006460D465C
:1034100014460DF1020101A8FFF7C6FF80B1019B20
:103420009978DA7852EA01220CD107332B60BDF883
:103430000230073B2380FF233370002002B070BDB1
:103440000520FBE70520F9E708B50846D11D531C08
:103450001B1200F8033C013200F8022C89B2073835
:10346000FFF7B0FF08B1002008BD0520FCE7000011
:1034700008B5034B034AC82112F04EF908BD00BF3E
:1034800004BE03088880030870B586B005460C4664
:1034900004AE1249304612F0C9FA0023009396E8B0
:1034A0000C0094E8030012F0E9FC78B10C4B039394
:1034B0000C4B02930C4B01930C4B00930C4B0D4A9D
:1034C000C821284612F028F906B070BD0A4B094AF7
:1034D00040F29511284612F01FF9F5E728810308FC
:1034E000D07C0308C47C0308E8810308907D0308AE
:1034F0002C81030878810308EC81030870B584B03F
:1035000005460C4602AE1449304612F08FFA0023ED
:10351000009396E80C0094E8030012F0AFFC98B119
:103520000E4B1B6A0E48984738B10E4B0E4AC82105
:10353000284612F0F1F804B070BD0C4B0A4AC821BD
:10354000284612F0E9F8F6E7094B074A40F29511D0
:10355000284612F0E1F8EEE73C820308A0000020C4
:10356000A87B03084482030878810308808203084B
:10357000C482030870B584B005460C4602AE1249F9
:10358000304612F053FA0023009396E80C0094E8BA
:10359000030012F073FC78B10C4E336A0C4C2046D9
:1035A0009847736A204698470A4B0B4AC821284619
:1035B00012F0B2F804B070BD084B074A40F2951102
:1035C000284612F0A9F8F5E73C820308A000002085
:1035D000947B03081483030878810308C4820308DA
:1035E000F0B5C3B006460D4680242246002122A82D
:1035F00019F046F92246002102A819F041F9009479
:1036000002AB224622A9284613F038F99DF88830EB
:1036100013B19DF8082062B913B99DF808304BBB6F
:10362000204B214A4FF4CA71304612F075F843B06E
:10363000F0BD1E4B1C4A4FF4CA71304612F06CF8B4
:10364000F5E7B82303FB04F4194FE5192A46194995
:103650000120FEF73BFF002385F880300020002189
:10366000C5E92C013B55144B0F4AC821304612F0D6
:1036700053F8DCE70024092C0CDCB82304FB03F32B
:10368000803302A90A481844FCF7AAFD0028D8D0C4
:103690000134F0E7094B044A4FF4CA71304612F086
:1036A0003BF8C4E760840308788103085C8303085F
:1036B000301C0020DC830308F08303082C840308FB
:1036C00030B5C7B005460C4690F8AC3013F0400258
:1036D00024D0144B04F1800112B3134A1348029012
:1036E00001920091124A4FF4807106A811F000FB7C
:1036F0000594002204920F4B03930F49029101920B
:1037000000930E4B06AAC821284612F005F822465F
:103710000B490120FEF7DAFE47B030BD094BD9E76F
:10372000094ADBE7D8840308FC84030800A30200ED
:1037300008850308A53E0208449603084C85030843
:1037400054850308EC840308608703082DE9F043DF
:10375000E5B005460C4616462922002159A819F065
:103760008FF88022009202AB22A9204613F086F83F
:103770009DF8883013B19DF808204AB9002B40F01D
:10378000BB809DF80830002B40F0B2800020B4E0F0
:1037900022AA5B490120FEF799FE42A812F094F894
:1037A00002A8FCF77DFD024602A942A812F0A6F885
:1037B00042A959A812F0DCF800242AE04146284624
:1037C000FFF77EFF66E04F4F802222A9384619F0AE
:1037D0009EF817F0FBFC4C4BC31841F10001C7F8F1
:1037E000B030C7F8B410282107F1800013F0A2FC14
:1037F0004EB9B822454B02FB043245490120FEF781
:1038000065FE012079E039462846FFF759FFF0E7C9
:103810000134092C45DC22A9A9203E4B00FB0430D1
:10382000FCF7DEFC0028F3D1A92304FB03F380336B
:1038300059A938481844FCF7D3FC0028E8D1334B89
:10384000B82202FB0433D3F8B080D3F8B47017F079
:10385000BDFC80458F41B6D2B82704FB07F7DFF8DF
:10386000AC9007EB0908802222A9404619F04FF8D6
:1038700017F0ACFC244BC01841F10001C8F8B000AF
:10388000C8F8B41007F180002821484413F052FC16
:10389000002E93D142461E490120FEF717FE01205B
:1038A0002BE0002029E0B822184B02FB04330093E0
:1038B000194B1A4AC821284611F02EFF16E0013490
:1038C000092C17DCB82304FB03F3803302A90F484B
:1038D0001844FCF785FC0028F1D1B82304FB03F35E
:1038E0000A4AD35C002BEAD0002EDCD1012004E090
:1038F0000024E5E7002000E0002065B0BDE8F0838B
:1039000070850308E81C002000B84C0A301C002019
:103910009085030860230020AC85030878810308A4
:1039200010B504460122FFF711FF00B110BD044B92
:10393000044A40F29311204611F0EEFEF6E700BF74
:10394000EC8503087881030810B590B0044609A8F7
:1039500008F062FC0F9B06930E9B05930D9B04934E
:103960000C9B03930B9B02930A9B0193099B00936F
:10397000034B044AC821204611F0CEFE10B010BD02
:103980001C86030820870308F0B591B006460C4654
:103990000CAD4B49284612F049F80023009395E8F6
:1039A0000C0094E8030012F069FA28B3454C236830
:1039B000002201210AA898472368002202210DF164
:1039C0002B0098479DF828309DF829209DF82A1053
:1039D0009DF82B009DF82C409DF82D5005950494E2
:1039E0000390029101920093374B384AC821304628
:1039F00011F092FE11B0F0BD0EAD3549284612F01F
:103A000015F80023009395E80C0094E8030012F0E9
:103A100035FA00284BD008AB2E4A04F5007103C9D3
:103A200010F020FF00283AD00AAB2B4A04F50074AE
:103A300094E8030010F016FF002830D0DDE90801FB
:103A4000FDF7CAF8C4B2DDE90A01FDF7C5F8C5B251
:103A5000631EDBB2022B01D8012D07D91F4B1B4A75
:103A60004FF4C871304611F057FEC3E7154F3B685D
:103A70000022022107A8984704F13F036B4403F892
:103A8000245C3B680122022107A898470195009415
:103A9000134B0E4AC821304611F03EFEAAE7114BE7
:103AA0000A4A4FF4C871304611F036FEA2E70E4BB9
:103AB000064A40F29511304611F02EFE9AE700BFFB
:103AC00028810308FC290020648703087881030803
:103AD0003C82030898870308A4870308E487030847
:103AE000AC870308208803085C88030838B501FB0D
:103AF00000F4204608F0D0FA054618B1224600210D
:103B000018F0BEFE284638BDF0B58BB006460C4610
:103B100006AD8449284611F089FF0023009395E8FB
:103B20000C0094E8030012F0A9F900283BD0C6214C
:103B30000120FFF7DBFF054640B37B4B1B680022EB
:103B40001146984705F1A5073846FCF7A9FBC4B212
:103B500022462A21384618F093FE2C44002384F88C
:103B6000A5306B78EBB1714BAA1C05F1840103976A
:103B70000291019200936E4B6E4AC821304611F0BB
:103B8000CBFD284608F00AFB0BB0F0BD6A4B694A32
:103B90004FF4FA71304611F0BFFD284608F0FEFAE6
:103BA000F2E7664BE0E708AD6549284611F03EFFB5
:103BB0000023009395E80C0094E8030012F05EF9EE
:103BC000002800F0A780C6210120FFF78FFF0546DF
:103BD00010B305AB5B4A04F5007103C910F0DEFBBE
:103BE000002824DB6B1C584A04F5007797E8030093
:103BF00010F05EFE554A97E8030013F007F80746F9
:103C000028B317F001FD0346E0B10433032B79D844
:103C1000DFE803F070686052474B464A4FF4FA7190
:103C2000304611F079FD284608F0B8FAACE7484B69
:103C3000404A4FF4C871304611F06EFD284608F036
:103C4000ADFAA1E77F223946A81C18F060FE38467D
:103C500008F0A4FA3F4A04F5007393E8030012F059
:103C6000D5FF074628B12022014605F1840018F04F
:103C70004EFE384608F092FA374A04F5007494E88C
:103C8000030012F0C3FF044628B12022014605F1CB
:103C9000A50018F03CFE204608F080FA01222A70A8
:103CA000214B1B680021284698472C4B214AC821EC
:103CB000304611F031FDC1E7294B1E4A4FF4C8715F
:103CC000304611F029FD384608F068FA284608F019
:103CD00065FA59E7234B174A4FF4C871304611F083
:103CE0001BFDF0E7204B134A4FF4C871304611F02A
:103CF00013FDE8E71D4B0F4A4FF4C871304611F031
:103D00000BFDE0E71A4B0B4A4FF4C871304611F037
:103D100003FDD8E7174B074A40F29511304611F0E2
:103D2000FBFC31E728810308FC290020B088030848
:103D3000FC88030878810308C0880308B888030852
:103D40003C820308448903087889030884890308AE
:103D500048890308CC8A0308D88A0308E48A030840
:103D600090890308D4890308208A0308608A03081D
:103D7000988A03085C88030870B58AB006460C462A
:103D800004AD5E49284611F051FE0023009395E8EA
:103D90000C0094E8030012F071F800283DD00022D6
:103DA000039203A9564808F0DFFA0398421E40F236
:103DB000FE339A4229D801210844FFF797FE0446B2
:103DC000B8B101214E4808F00DFB0546039A214683
:103DD00008F038FB284608F029FB0094494B4A4A72
:103DE000C821304611F098FC204608F0D7F90AB0F7
:103DF00070BD46490320FEF769FB454B424A4FF42C
:103E0000FA71304611F088FCF1E7424B3E4A4FF41C
:103E1000FA71304611F080FCE9E706AD3E492846CC
:103E200011F004FE0023009395E80C0094E80300D1
:103E300012F024F8002858D003AB384A04F500717A
:103E400003C910F0ABFA002834DB354A04F50074DE
:103E500094E8030012F0DAFE044600283DD008ADD5
:103E60000146284611F0E2FD06F11C0295E8030028
:103E700013F000FD002825DB214D284608F020FB2B
:103E80000221284608F0AEFA05462046FCF708FA5B
:103E9000421C2146284608F0E1FA284608F0C6FAF6
:103EA000204B194AC821304611F036FC204608F054
:103EB00075F99CE71C4B144A4FF4C871304611F059
:103EC0002BFC94E7194B104A4FF4C871304611F09F
:103ED00023FC204608F062F989E7154B0A4A4FF4A3
:103EE000C871304611F018FC81E7124B064A40F2C7
:103EF0009511304611F010FC79E700BF28810308C6
:103F0000688003087C8B030878810308208B0308F2
:103F1000548B0308A88B03083C82030844890308D8
:103F2000DC8B0308248C030848890308EC8B030806
:103F3000788C0308C08C03082DE9F04FC7B0814688
:103F40008A4672228E4927A81AF016FA01211E20ED
:103F5000FFF7CCFD064601212E20FFF7C7FD0746DF
:103F600001212E20FFF7C2FD804601214FF4407051
:103F7000FFF7BCFD044601214FF4C070FFF7B6FD0A
:103F80000546002E00F0E380002F00F0E080B8F13D
:103F9000000F00F0DC80002C00F0D980002800F039
:103FA000D6800DF5887B7749584611F03FFD0023F8
:103FB00000939BE80C009AE8030011F05FFF0028D3
:103FC00000F0BD8001F0C0FC824658B390F8AC30E0
:103FD00013F0200F2CD190F8AD3013F0200F2DD01E
:103FE0001E226949304618F092FCDFF8C4B10AF18C
:103FF000080300935B46654A2E21404610F078FE88
:104000000AF11C0300935B46604A2E21384610F0EB
:104010006FFE2046FCF744F95D4B1B8823524FF09E
:10402000010A28E01E225B49304618F070FCF0E7D8
:104030001E225949304618F06AFCD6E71E2257491D
:10404000304618F064FCD0E75FFA8AF30122802141
:1040500007A802F07BF907A9204618F019FC2046B2
:10406000FCF71EF9034621184D4A1068E0501379F9
:104070000B710AF1010ABAF1030FE5DD4FF0010AF5
:1040800007E02046FCF70CF9414B1B8823520AF14C
:10409000010ABAF1030F18DC5FFA8AF302228021C9
:1040A00007A802F053F907A9204618F0F1FBBAF16E
:1040B000020FE6DC2046FCF7F3F803462118384AE5
:1040C0001068E05013790B71E1E72846FCF7E8F837
:1040D0002F4B1B882B524FF0010A07E02846FCF7B4
:1040E000DFF82B4B1B882B520AF1010ABAF1030FA0
:1040F00018DC5FFA8AF30222802107A802F00CF98B
:1041000007A9284618F0C4FBBAF1020FE6DC2846DE
:10411000FCF7C6F803462918214A1068E8501379BD
:104120000B71E1E7049503940297CDF804800096A3
:1041300027AB1C4AC821484611F0EEFA0EE01A4B94
:10414000184A40F29511484611F0E6FA06E0174B7E
:10415000144A4FF4FA71484611F0DEFA304608F07E
:104160001DF8384608F01AF8404608F017F82046BF
:1041700008F014F8284608F011F847B0BDE8F08FB1
:10418000808D030828810308208D0308348D0308DF
:10419000388D030894BF0308148D0308288D030885
:1041A0003C8D0308788103085C880308448D03086C
:1041B000F5770208F0B58DB007460C46154608AEF7
:1041C0002349304611F032FC0023009396E80C009E
:1041D00094E8030011F052FE18B3002302930393F6
:1041E00004930593069307931A4B02931A4B079374
:1041F00045B1012D0ED002AB184A2146384611F0C8
:10420000F9FF05E002AB154A2146384611F0F2FFEE
:104210000DB0F0BD02AB124A2146384611F0EAFF5C
:10422000F6E70AAD0F49284611F000FC0023009381
:1042300095E80C0094E8030011F020FE0028E7D177
:10424000094B0A4A40F29511384611F065FADFE74A
:1042500028810308FC950308A0000020187E0308AD
:10426000287E03083C820308F48D03087881030844
:10427000F8B504460D4616460B4F3B6A9847022296
:10428000214638460FF0A0FF04467B69A92206FBB1
:1042900002F229460068984720460FF0AEFF034916
:1042A0000120FEF713F9F8BDA00000204C8E030892
:1042B0002DE9F041AEB006460C4626ADBD49284674
:1042C00011F0B4FB0023009395E80C0094E8030080
:1042D00011F0D4FD002843D128ADB749284611F08C
:1042E000A5FB0023009395E80C0094E8030011F06F
:1042F000C5FD002800F0FB8003ABB04A04F5007157
:1043000003C910F04BF80028C0F28980AC4A04F5CC
:10431000007494E8030012F079FC0546A94A94E879
:10432000030012F073FC0746002D00F0D280002835
:1043300000F0CF802B78002B00F0CB800378002B8F
:1043400000F0C7800024092C7FDC2946A9209E4B61
:1043500000FB0430FBF744FF002868D00134F2E78B
:1043600001214FF48060FFF7C1FB07460121A02027
:10437000FFF7BCFB8046002F3DD000283BD0934B7D
:1043800007CB38607960BA601B783B7300240C253A
:1043900008E043468E4AC5F58061781918F046F862
:1043A00005440134092C18DCA92204FB02F2864BD7
:1043B0009A5C002AF5D0A92202FB0433854AA02189
:1043C000404618F033F80C2DE3D9834AC5F58061D7
:1043D000781918F02BF80544DBE7804AC5F58061B1
:1043E000781918F023F80097794B7D4AC821304698
:1043F00011F092F90AE07B490320FEF767F87A4B47
:10440000774A4FF4FA71304611F086F9384607F0D2
:10441000C5FE404607F0C2FE2EB0BDE8F081734BEA
:104420006F4A4FF4C871304611F076F9F4E7704BDB
:104430006B4A4FF4C871304611F06EF9284607F008
:10444000ADFE384607F0AAFEE6E72922002104A8BF
:1044500018F016FA0FA811F037FA3846FBF720FFCC
:10446000024639460FA811F049FA0FA904A811F025
:104470007FFA0023092B24DCA92203FB02F2524914
:104480008A5C0AB10133F5E7A92202FB03F48846EE
:104490007F22294608EB040018F039FA04F1800065
:1044A000282204A9404418F032FA0A224146514811
:1044B000FFF7DEFE504B4A4AC821304611F02CF976
:1044C0000EE04E4B464A4FF4C871304611F024F9C5
:1044D00006E04B4B424A4FF4C871304611F01CF9CC
:1044E000284607F05BFE384607F058FE94E72AADF1
:1044F0004449284611F09AFA0023009395E80C00ED
:1045000094E8030011F0BAFC38BB2CAD3E492846B4
:1045100011F08CFA0023009395E80C0094E8030056
:1045200011F0ACFC002800F0F680254A04F5007478
:1045300094E8030012F06AFB074618B10378002BD9
:1045400040F0D280314B264A4FF4C871304611F00A
:10455000E3F8384607F022FE5EE703AB174A04F59E
:10456000007103C90FF01AFF002853DB144A04F549
:10457000007494E8030012F049FB0546114A94E8E0
:10458000030012F043FB04462DB120B12B7813B188
:104590000378002B48D11E4B114A4FF4C8713046A6
:1045A00011F0BAF8284607F0F9FD204607F0F6FDAD
:1045B00032E700BF288103083C82030844890308CE
:1045C0008C8E0308948E030860230020648E0308F9
:1045D000A0BF0308748E0308848E0308888E030826
:1045E00078810308208B0308548B0308488903084B
:1045F0009C8E0308F07B0308D88E0308148F0308F1
:10460000488F0308888F030844900308E09003084C
:1046100000900308444B454A4FF4C871304611F0EE
:104620007BF800242546BDE72922002104A818F0C4
:1046300027F90FA811F048F92046FBF731FE024692
:1046400021460FA811F05AF90FA904A811F090F90A
:104650000027092F25DC2946A920354B00FB073010
:10466000FBF7BEFD08B10137F3E7A92303FB07F70A
:1046700007F18000DFF8B880282204A9404418F030
:1046800046F94744002387F8A8300A2241462948C2
:10469000FFF7EEFD284B254AC821304611F03CF8C3
:1046A00080E7264B214A4FF4CA71304611F034F8A6
:1046B00078E780220021284618F0E2F8A92303FBBE
:1046C00004F080301A4C29220021204418F0D8F838
:1046D0000A2221461748FFF7CBFD194B134AC82180
:1046E000304611F019F834E70124092C0BDCA9231A
:1046F0000F4D03FB045539462846FBF771FD002892
:10470000D7D00134F1E70F4B084A4FF4C871304657
:1047100011F002F81DE70C4B044A40F295113046A7
:1047200010F0FAFF78E600BF488903087881030893
:1047300060230020F07B03088C8F0308D08F0308D0
:104740004C9003088C9003082091030870B50E4626
:104750001446012201460E480FF036FD88B1054689
:104760000B4B1B69A92204FB02F2314600689847F3
:1047700028460FF042FD07490120FDF7A7FE012062
:1047800070BD05490320FDF7A1FE0020F8E700BF3A
:10479000A00000209C9103088091030870B586B0AA
:1047A00005460C4604AE1549304611F03FF900238A
:1047B000009396E80C0094E8030011F05FFBA0B1B1
:1047C000EB6F1868002302930D4B019301230093B4
:1047D0004FF4FA62002312F021FB0A4B0A4AC82167
:1047E000284610F099FF06B070BD084B064A40F20B
:1047F0009511284610F090FFF5E700BF3C820308B2
:10480000DD750108B891030878810308C4820308A4
:1048100070B584B005460C4602AE1449304611F01E
:1048200005F90023009396E80C0094E8030011F0CA
:1048300025FB98B10E4BDB690E490F48984728B10C
:1048400021462846FFF7AAFF04B070BD0B4B0C4A67
:104850004FF4FA71284610F05FFFF5E7094B084A5C
:1048600040F29511284610F057FFEDE73C8203080F
:10487000A0000020A87B0308F09103080892030819
:1048800078810308C482030870B58CB005460C46D5
:104890000AAE1C49304611F0C9F80023009396E88F
:1048A0000C0094E8030011F0E9FA10B3FCF7CAFC1D
:1048B00010EE104AFCF780FC10EE100AFBF75CFECD
:1048C000CDE908012046FBF757FECDE906010E4B66
:1048D00004930E4B03930E4B02930E4B01930E4B1E
:1048E00000930E4B0E4AC821284610F015FF0CB05D
:1048F00070BD0C4B0A4A40F29511284610F00CFF8F
:10490000F5E700BF28810308E8920308FC9203083A
:1049100008930308E8810308907D03084C9203087C
:1049200078810308EC81030870B5C4B006460C46D4
:1049300042AD2049284611F079F80023009395E80C
:104940000C0094E8030011F099FA50B37B2323AADA
:10495000194904F5007011F056FF002819DD23AB4A
:10496000164A802103A817F061FD154B5B6A03A866
:10497000984730B1134B144AC821304610F0CCFE92
:1049800016E0124B104A4FF4FA71304610F0C4FE94
:104990000EE00F4B0C4A4FF4C871304610F0BCFECD
:1049A00006E00C4B084A40F29511304610F0B4FE78
:1049B00044B070BD3C8203081093030818930308A9
:1049C000A000002020930308788103085493030873
:1049D00090930308C482030870B5A4B005460C4642
:1049E00022AE1C49304611F021F80023009396E8CE
:1049F0000C0094E8030011F041FA08B3802302AAE6
:104A0000154904F1100011F0FEFE144902A8FBF74D
:104A1000E7FB58B9124B0093124B134A2146284624
:104A200013F0CCFC012006F09FFC10E00B4B009330
:104A30000E4B0F4A4FF4C871284610F06DFE06E089
:104A40000C4B0B4A40F29511284610F065FE24B03D
:104A500070BD00BF3C820308F0BE0308CC9303087E
:104A600090D003009C7B0308A0000020DC93030887
:104A700078810308C4820308F0B597B004460E4657
:104A800001214FF48060FFF731F8054650B1012253
:104A9000214628480FF098FB044640B168460FF0C5
:104AA000A7FF10E007F07AFB4FF0FF3040E00FF077
:104AB000A4FB284607F072FB6FF0010038E029469E
:104AC00068460FF0ABFF1B4B1B694FF48062294611
:104AD0002068984702460028F1D120460FF08DFB50
:104AE00001211020FFF702F8074628B10146684669
:104AF0000FF0EBFF002412E0284607F04FFB38468A
:104B000007F04CFB4FF0FF3012E061003B5D0A4ABA
:104B1000C1F1210106EB440017F088FC01340F2C91
:104B2000F3DD284607F03AFB384607F037FB002054
:104B300017B0F0BDA00000202894030870B584B021
:104B400005460C4602AE1949304610F06FFF0023AF
:104B5000009396E80C0094E8030011F08FF9E8B197
:104B600001212120FEF7C2FF044601461048FFF74D
:104B700083FF58B900940F4B0F4AC821284610F004
:104B8000CBFD204607F00AFB04B070BD0B4B0A4A70
:104B90004FF4CA71284610F0BFFDF2E7084B064AF1
:104BA00040F29511284610F0B7FDEDE72881030883
:104BB000F0910308309403087881030854940308A3
:104BC000EC8103080B2900D07047F0B5B5B005465D
:104BD000144600222146FEF7B9FD074608AEAF494C
:104BE000304610F023FF0023009396E80C0094E871
:104BF000030011F043F920B12846FEF739FC35B027
:104C0000F0BD0AAEA649304610F010FF0023009315
:104C100096E80C0004F1080103C911F02FF900B166
:104C2000BFB10CAE9F49304610F000FF0023009347
:104C300096E80C0004F1080103C911F01FF980B1D6
:104C400099490120FDF742FC21462846FEF768FEFF
:104C5000D5E7964B964A40F29311284610F05CFD3A
:104C6000CDE70EAE9349304610F0E0FE00230093EE
:104C700096E80C0004F1080103C911F0FFF840B1F7
:104C80008D490120FDF722FC21462846FEF7A8FCAD
:104C9000B5E710AE8949304610F0C8FE00230093F6
:104CA00096E80C0004F1080103C911F0E7F838B1E7
:104CB00083490120FDF70AFC2846FEF745FE9EE7E2
:104CC00012AE8049304610F0B1FE0023009396E802
:104CD0000C0004F1080103C911F0D0F840B17A4981
:104CE0000120FDF7F3FB21462846FEF74DFE86E73F
:104CF00014AE7649304610F099FE0023009396E8F2
:104D00000C0004F1080103C911F0B8F840B1704972
:104D10000120FDF7DBFB21462846FEF7F5FE6EE796
:104D200016AE6C49304610F081FE0023009396E8E1
:104D30000C0004F1080103C911F0A0F840B1664964
:104D40000120FDF7C3FB21462846FFF715F856E77B
:104D500018AE6249304610F069FE0023009396E8D1
:104D60000C0004F1080103C911F088F840B15C4956
:104D70000120FDF7ABFB21462846FFF7DDF83EE7B3
:104D80001AAE5849304610F051FE0023009396E8C1
:104D90000C00E168A06811F071F848B15249012097
:104DA000FDF794FB002221462846FFF703FA26E789
:104DB0001CAE4E49304610F039FE0023009396E8B1
:104DC0000C00E168A06811F059F848B14849012089
:104DD000FDF77CFB012221462846FFF7EBF90EE7A1
:104DE0001EAE4449304610F021FE0023009396E8A1
:104DF0000C00E168A06811F041F840B13E49012083
:104E0000FDF764FB21462846FFF752FAF7E620AE8D
:104E10003A49304610F00AFE0023009396E80C0051
:104E2000E168A06811F02AF840B135490120FDF78A
:104E30004DFB21462846FFF7B1FCE0E622AE3149A2
:104E4000304610F0F3FD0023009396E80C00E16873
:104E5000A06811F013F840B12B490120FDF736FB93
:104E600021462846FEF710FBC9E624AE2749304606
:104E700010F0DCFD0023009396E80C00E168A068C8
:104E800010F0FCFF002845D021490120FDF71EFB52
:104E900021462846FFF7F8FCB1E600BF94940308CA
:104EA0009C940308B4940308C0940308A4940308D2
:104EB00060870308D4940308E0940308F894030877
:104EC0000895030824950308349503084C950308B6
:104ED000609503087C9503088C950308A895030842
:104EE000BC950308D8950308E895030804960308C1
:104EF00018960308389603084C960308689603082A
:104F00007C9603089C960308B0960308D096030885
:104F1000E496030826AE5049304610F087FD002382
:104F2000009396E80C00E168A06810F0A7FF20B19C
:104F300021462846FFF750FD61E628AE4749304636
:104F400010F074FD0023009396E80C00E168A0685F
:104F500010F094FF40B142490120FDF7B7FA214615
:104F60002846FFF7EBFD4AE62AAE3E49304610F0F0
:104F70005DFD0023009396E80C00E168A06810F046
:104F80007DFF40B138490120FDF7A0FA21462846AF
:104F9000FFF73EFC33E62CAE3449304610F046FDB8
:104FA0000023009396E80C00E168A06810F066FF0B
:104FB00020B121462846FEF7A1FA20E62EAE2C4964
:104FC000304610F033FD0023009396E80C00E168B2
:104FD000A06810F053FF20B121462846FEF7CAFA18
:104FE0000DE630AE2349304610F020FD002300933B
:104FF00096E80C00E168A06810F040FF40B11E4B3D
:1050000000931E4B1E4A2146284613F0D7F9F6E5B9
:1050100032AE1C49304610F009FD0023009396E89B
:105020000C00E168A06810F029FF20B12146284655
:10503000FFF77AFCE3E500230293039304930593BF
:10504000069307930D4B02930D4B079302AA21463B
:10505000284613F0D1F8D2E5009703081897030803
:105060002C970308489703085C9703087C9703086C
:1050700098970308B497030860E31600947B03082D
:10508000A0000020D097030808B50A22024903486F
:10509000FFF75CFB024808BD60230020F07B03089B
:1050A000C54B0108014B1860704700BFFC29002068
:1050B00008B5044B1B7803B908BD034B186813F0FF
:1050C000A3FDF9E70C2A00202C2A00201B4B1B68AB
:1050D00003B1704730B585B019490120FDF7F6F9E5
:1050E000184C40220021204617F0CAFB02AD164B97
:1050F0001968284610F09AFC95E8030084E803003C
:10510000124B1968284610F091FC04F1080395E849
:10511000030083E803003C236385012384F82F30D8
:10512000002300930A4B22460A4909680A4800688E
:1051300015F000FA014B186005B030BD2C2A002094
:10514000EC970308302A0020842A0020802A0020BF
:1051500089580108882A0020742A00202DE9F04F80
:1051600085B08146884692462A4C00F10803009398
:10517000294B2A4A282120680FF0BAFD24682046CE
:10518000FBF78EF80146204600F004FD00263BE0C8
:1051900008EBC60318F836401D79214F2B462246EE
:1051A0008021386800F014FDDFF880B02B462246DD
:1051B0004FF41671DBF8000000F0E4FD194D02AC6D
:1051C0003968204610F032FC05F1180394E803001A
:1051D00083E80300DBF80010204610F027FC05F1FF
:1051E000200394E8030083E80300012485F82840A5
:1051F00085F82E402946484613F00CFF3A680A49C4
:105200002046FDF763F926445645C1D305B0BDE8F5
:10521000F08F00BF282A0020D9770208348D0308B8
:105220007C2A0020302A00200C980308782A0020CD
:1052300038B501FB00F4204606F02EFF054618B1F4
:105240002246002117F01CFB284638BD2DE9F04FFF
:105250002DED028B85B0019001214FF41670FFF700
:10526000E7FF064601218020FFF7E2FF0546FBF736
:10527000E9FFF0EE408AFBF79FFFB0EE408A3A4923
:105280000020FDF723F9002309228021284601F0A0
:105290005DF8DFF8E8B02A4659460020FDF716F918
:1052A000B0EE680A3149304601F0A0F83246304984
:1052B0000020FDF70BF92F4F02AC2946204610F0D5
:1052C000B5FB07F1180A94E803008AE803003146A9
:1052D000204610F0ABFB07F1200994E8030089E8B1
:1052E00003004FF0000887F8288087F82E803946A1
:1052F000019813F08FFE43460A228021284601F0D0
:1053000025F82A4659464046FDF7E0F8B0EE480A2F
:105310001949304601F06AF8324615494046FDF712
:10532000D5F82946204610F081FB94E803008AE86E
:1053300003003146204610F079FB94E8030089E829
:10534000030087F8288087F82E803946019813F0EB
:1053500061FE304606F022FF284606F01FFF05B02A
:10536000BDEC028BBDE8F08F30980308609803080D
:105370006C980308302A0020789803085498030892
:1053800008B507490020FDF7A1F8064B186810B1D1
:10539000054B1B7803B908BDFFF758FFFBE700BFBB
:1053A000889803082C2A00200C2A00202DE9F043BD
:1053B00087B007460C46584D2B680022012104A8EF
:1053C00098472B68002202210DF113009847032211
:1053D000524904A817F02AFA48B9032250490DF19E
:1053E000130017F023FA10B9002C00F091804B4BFA
:1053F00006AA12E903001860998001214FF4167083
:10540000FFF716FF064601218020FFF711FF054632
:10541000002238E002F101085FFA88F802F118036F
:105420000DEB030212F8083C0093434601224FF4AF
:105430001671304600F048FF43460122802128467D
:1054400000F084FFDFF8DC9002AC2946204610F023
:10545000EDFA09F1180394E8030083E803003146EC
:10546000204610F0E3FA09F1200394E8030083E8F2
:105470000300002389F8283089F82E304946384641
:1054800013F0C8FD4246022AC4D9002238E002F1D6
:1054900001085FFA88F802F118030DEB030212F815
:1054A000053C0093434602224FF41671304600F04B
:1054B0000BFF434602228021284600F047FFDFF819
:1054C000649002AC2946204610F0B0FA09F11803A6
:1054D00094E8030083E803003146204610F0A6FA62
:1054E00009F1200394E8030083E80300002389F80E
:1054F000283089F82E304946384613F08BFD424655
:10550000022AC4D9304606F049FE284606F046FE77
:1055100007B0BDE8F08300BF082A0020002A002061
:10552000032A0020302A002008B5054B186810B166
:10553000044B1B7803B908BD0021FFF737FFFAE7DA
:105540002C2A00200C2A002008B5054B1B7803B933
:1055500008BD0121034B1868FFF728FFF8E700BFDB
:105560000C2A00202C2A00202DE9F04F83B0814620
:105570000D461646002400E00134B4422ED205EB5D
:10558000C40855F83430022BF6D101218020FFF7F2
:105590004FFE074698F804300222802100F0BCFE3E
:1055A000DFF844804FF0010B88F828B0EA4639460E
:1055B000504610F03BFA08F118039AE8030083E81C
:1055C00003004146484613F0D7FC3A460549584681
:1055D000FCF77CFF384606F0E1FDCDE703B0BDE8FF
:1055E000F08F00BFB8980308302A00202DE9F0435F
:1055F00087B000230393076845688468C668ACB128
:10560000A7B105B10EBB8C490320FCF75FFF8B4BA4
:105610001B68002B40F30181894BCA228949012074
:1056200012F08EF9884810F023F8F6E0834B1B68DF
:10563000002B40F3F280824BC4228249012012F0F9
:105640007FF9824810F014F8E7E001217018FFF7A5
:10565000EFFD814601216818FFF7EAFD80463246DA
:105660002146484617F053F92A463946404617F076
:105670004EF9774B1B680022022105A89847059B2D
:10568000ADF810301B0C8DF812307249404617F0FF
:1056900077F9002800F0B28003AA6F4916F01EFFC8
:1056A000012809D0654B1B68002B00F39D806B49D6
:1056B0000320FCF70BFFAAE0604B1B68012B19DCF1
:1056C000CDF80090039B424665490120FCF7FEFEA1
:1056D000039C631E022B19D8022E34D0032E55D002
:1056E000564B1B68002B74DC4A465E490320FCF7CE
:1056F000EDFE8CE0524BDD225249022012F020F9DF
:105700004246039958480FF0B3FFD9E74B4B1B684B
:10571000002B0CDC039B032254491046FCF7D6FEF9
:10572000484606F03BFD404606F038FD75E0444B28
:10573000E2224449012012F003F9039A03214B4865
:105740000FF096FFE6E702224949484617F0CDF8E8
:105750000028C3D104F117036B44012203F8082C7D
:10576000364B1B68934206DC394B1B680122022131
:1057700004A898474BE0324BEF223249022012F046
:10578000DFF803993B480FF073FFEDE703223A4936
:10579000484617F0AAF80028A2D104F117036B4479
:1057A000002203F8082C254B1B68012B06DC284B34
:1057B0001B680122022104A8984728E0204BF3220D
:1057C0002049022012F0BCF803992C480FF050FF3A
:1057D000EDE71B4BF7221B49012012F0B1F84946B7
:1057E00020480FF045FF7FE7154BFC2215490120AB
:1057F00012F0A6F822480FF03BFF58E70F4B1B684A
:10580000002B0DDC42461F490320FCF75FFE484693
:1058100006F0C4FC404606F0C1FC07B0BDE8F083CA
:10582000074B4FF480720749012012F089F8414676
:1058300014480FF01DFFE5E7449903083C010020E0
:10584000D4980308F49803086C9903082099030876
:10585000082A002098990308A09903080C9B0308C4
:10586000D8990308989A0308AC990308189A030872
:10587000689A03086C9A0308809A0308849A0308BC
:10588000D49A0308449B030870B510293AD0054602
:1058900011290BD0092942D121490120FCF716FE1C
:1058A0000023204A1360204A137038E01F4B1B6806
:1058B000022B1CDC1E490120FCF708FE194B1D6061
:1058C000194B1B785BBB1B4E082231462846FFF75D
:1058D00045FC144C01212068FFF768FD0822314681
:1058E0002068FFF741FE104B01221A7017E0124B9F
:1058F00040F217121149032012F022F810480FF05D
:10590000B7FED7E714460F490120FCF7DFFD20461C
:10591000FFF76CFE0021034B1868FFF747FD70BDD1
:10592000DC9B03082C2A00200C2A00203C010020CC
:10593000A09B0308C8000020749B0308F498030888
:10594000889B0308B89B0308014B1868704700BF89
:105950002C2A00202DE9F04786B007460D469246D6
:105960001C4601218020FFF763FCDFF8B091C9F8E5
:10597000000001212120FFF75BFCDFF8A481C8F8BB
:10598000000001212120FFF753FC4E4E3060012121
:105990008020FFF74DFC4C4B186001214FF416702E
:1059A000FFF746FC494B186001212820FFF740FC17
:1059B000474B18600F9A474B1A605146D9F80000C0
:1059C00018F0A8FC2146D8F8000018F0A3FC0E99A6
:1059D000306818F09FFC404C2760404B1D6006214A
:1059E000284600F0ADF83E4F04ADD8F80010284628
:1059F00010F01CF895E8030087E80300316828469A
:105A000010F014F807F1080395E8030083E8030099
:105A10003C237B85012687F82F60D8F80030D9F821
:105A2000002030493046FCF751FD002502952E4BF1
:105A300001934FF00308CDF8008042F2107200236A
:105A4000206811F0EBF9294B18600295284B01935F
:105A50000096284A0023206811F0E0F9264B1860D0
:105A60000295264B019300964FF4FA7200232068AA
:105A700011F0D4F9224B18600295224F0197CDF80E
:105A80000080214A0023206811F0C8F91F4B1860DC
:105A900002950197009544F620620023206811F0DA
:105AA000BDF91B4B186002951A4B0193009642F604
:105AB000E0620023206811F0B1F9174B186006B0BE
:105AC000BDE8F087802A00207C2A0020782A002068
:105AD000282A0020082A0020742A0020702A00208A
