:020000040801F1
:1000000000000220A5220108B9210108BB21010836
:10001000BD210108BF210108C12101080000000025
:10002000000000000000000000000000F195010841
:10003000C3210108000000009196010845740108E1
:10004000F5220108F5220108F5220108F522010830
:10005000F5220108F5220108F5220108F522010820
:10006000F5220108F5220108F5220108F522010810
:10007000F5220108F5220108F5220108F522010800
:10008000F5220108F5220108F52201080000000010
:10009000000000000000000000000000F522010840
:1000A000C5210108F5220108F5220108F522010801
:1000B000F5220108F5220108F5220108F5220108C0
:1000C000F5220108F5220108F5220108F5220108B0
:1000D000F5220108F5220108F522010800000000C0
:1000E000F5220108F5220108F522010800000000B0
:1000F000000000000000000000000000F5220108E0
:1001000000000000F5220108F5220108F52201088F
:1001100000000000000000000000000000000000DF
:10012000F5220108F5220108F5220108F52201084F
:10013000F52201080000000000000000000000009F
:10014000000000000000000000000000F52201088F
:10015000F5220108F5220108F5220108F52201081F
:10016000F5220108F522010800000000000000004F
:10017000000000000000000000000000000000007F
:1001800000000000F522010800000000000000004F
:08019000F5220108F522010827
:1001A00010B5054C237833B9044B13B10448AFF3B1
:1001B00000800123237010BDE8070020000000002C
:1001C0009C4B030808B5034B1BB103490348AFF32D
:1001D000008008BD00000000EC0700209C4B0308D5
:1001E00010F8012B11F8013B012A28BF9A42F7D0E1
:1001F000D01A70470000000000000000000000005E
:1002000001F0FF01102A2BDB10F0070F08D010F8C7
:10021000013B013A8B422DD010F0070F42B3F6D1CB
:10022000F0B441EA012141EA014122F007047FF0E4
:1002300000070023F0E80256083C85EA010586EA3B
:10024000010685FA47F5A3FA87F586FA47F6A5FA77
:1002500087F68EB9EED1F0BC01F0FF0102F0070283
:1002600032B110F8013B013A83EA010313B1F8D12E
:100270000020704701387047002D06BF354603380F
:10028000073815F0010F07D1013015F4807F02BF48
:10029000013015F4C03F0130F0BC0138704700BF99
:1002A000034613F8012B002AFBD1181A01387047B6
:1002B00081F0004102E000BF83F0004330B54FEA17
:1002C00041044FEA430594EA050F08BF90EA020F84
:1002D0001FBF54EA000C55EA020C7FEA645C7FEA17
:1002E000655C00F0E2804FEA5454D4EB5555B8BF3A
:1002F0006D420CDD2C4480EA020281EA030382EAAB
:10030000000083EA010180EA020281EA0303362D3C
:1003100088BF30BD11F0004F4FEA01314FF4801C0F
:100320004CEA113102D0404261EB410113F0004F21
:100330004FEA03334CEA133302D0524263EB4303D8
:1003400094EA050F00F0A780A4F10104D5F1200E76
:100350000DDB02FA0EFC22FA05F2801841F10001D1
:1003600003FA0EF2801843FA05F359410EE0A5F1A5
:1003700020050EF1200E012A03FA0EFC28BF4CF0D6
:10038000020C43FA05F3C01851EBE37101F000458C
:1003900007D54FF0000EDCF1000C7EEB00006EEB99
:1003A0000101B1F5801F1BD3B1F5001F0CD3490823
:1003B0005FEA30004FEA3C0C04F101044FEA44527A
:1003C00012F5800F80F09A80BCF1004F08BF5FEA01
:1003D000500C50F1000041EB045141EA050130BDE1
:1003E0005FEA4C0C404141EB0101013C28BFB1F5F3
:1003F000801FE9D291F0000F04BF01460020B1FA3E
:1004000081F308BF2033A3F10B03B3F120020CDA10
:100410000C3208DD02F1140CC2F10C0201FA0CF0EE
:1004200021FA02F10CE002F11402D8BFC2F1200C53
:1004300001FA02F120FA0CFCDCBF41EA0C01904009
:10044000E41AA2BF01EB0451294330BD6FEA040452
:100450001F3C1CDA0C340EDC04F11404C4F120023D
:1004600020FA04F001FA02F340EA030021FA04F34F
:1004700045EA030130BDC4F10C04C4F1200220FAA6
:1004800002F001FA04F340EA0300294630BD21FAE4
:1004900004F0294630BD94F0000F83F4801306BFAA
:1004A00081F480110134013D4EE77FEA645C18BF9E
:1004B0007FEA655C29D094EA050F08BF90EA020F35
:1004C00005D054EA000C04BF1946104630BD91EA2D
:1004D000030F1EBF0021002030BD5FEA545C05D130
:1004E0004000494128BF41F0004130BD14F580046F
:1004F0003CBF01F5801130BD01F0004545F0FE41E3
:1005000041F470014FF0000030BD7FEA645C1ABF17
:10051000194610467FEA655C1CBF0B46024650EA4E
:10052000013406BF52EA033591EA030F41F400217A
:1005300030BD00BF90F0000F04BF0021704730B500
:100540004FF4806404F132044FF000054FF00001D5
:1005500050E700BF90F0000F04BF0021704730B596
:100560004FF4806404F1320410F0004548BF40426B
:100570004FF000013EE700BF42004FEAE2014FEAC0
:1005800031014FEA02701FBF12F07F4393F07F4F9B
:1005900081F06051704732F07F4208BF704793F09E
:1005A0007F4F04BF41F40021704730B54FF46074B1
:1005B00001F0004521F000411CE700BF50EA0102B4
:1005C00008BF704730B54FF000050AE050EA01025D
:1005D00008BF704730B511F0004502D5404261EBCD
:1005E00041014FF4806404F132045FEA915C3FF40E
:1005F000D8AE4FF003025FEADC0C18BF03325FEAAB
:10060000DC0C18BF033202EBDC02C2F1200300FA5B
:1006100003FC20FA02F001FA03FE40EA0E0021FA80
:1006200002F11444BDE600BF70B54FF0FF0C4CF46E
:10063000E06C1CEA11541DBF1CEA135594EA0C0F20
:1006400095EA0C0F00F0DEF82C4481EA030621EA5B
:100650004C5123EA4C5350EA013518BF52EA033596
:1006600041F4801143F4801338D0A0FB02CE4FF048
:100670000005E1FB02E506F00042E0FB03E54FF078
:100680000006E1FB03569CF0000F18BF4EF0010E70
:10069000A4F1FF04B6F5007F64F5407404D25FEA6C
:1006A0004E0E6D4146EB060642EAC62141EA55511F
:1006B0004FEAC52040EA5E504FEACE2EB4F1FD0C61
:1006C00088BFBCF5E06F1ED8BEF1004F08BF5FEADF
:1006D000500E50F1000041EB045170BD06F0004691
:1006E00046EA010140EA020081EA0301B4EB5C043E
:1006F000C2BFD4EB0C0541EA045170BD41F4801136
:100700004FF0000E013C00F3AB8014F1360FDEBF5A
:10071000002001F0004170BDC4F10004203C35DA36
:100720000C341BDC04F11404C4F1200500FA05F3B9
:1007300020FA04F001FA05F240EA020001F000425A
:1007400021F0004110EBD37021FA04F642EB0601D0
:100750005EEA430E08BF20EAD37070BDC4F10C04FA
:10076000C4F1200500FA04F320FA05F001FA04F2BE
:1007700040EA020001F0004110EBD37041F10001AA
:100780005EEA430E08BF20EAD37070BDC4F12005B5
:1007900000FA05F24EEA020E20FA04F301FA05F21D
:1007A00043EA020321FA04F001F0004121FA04F2C5
:1007B00020EA020000EBD3705EEA430E08BF20EA95
:1007C000D37070BD94F0000F0FD101F000464000CF
:1007D00041EB010111F4801F08BF013CF7D041EA51
:1007E000060195F0000F18BF704703F00046520055
:1007F00043EB030313F4801F08BF013DF7D043EA26
:100800000603704794EA0C0F0CEA135518BF95EADB
:100810000C0F0CD050EA410618BF52EA4306D1D162
:1008200081EA030101F000414FF0000070BD50EA81
:10083000410606BF1046194652EA430619D094EA0B
:100840000C0F02D150EA013613D195EA0C0F05D1F5
:1008500052EA03361CBF104619460AD181EA030149
:1008600001F0004141F0FE4141F470014FF0000001
:1008700070BD41F0FE4141F4780170BD70B54FF09C
:10088000FF0C4CF4E06C1CEA11541DBF1CEA13551C
:1008900094EA0C0F95EA0C0F00F0A7F8A4EB0504FE
:1008A00081EA030E52EA03354FEA013100F08880F5
:1008B0004FEA03334FF0805545EA131343EA1263BE
:1008C0004FEA022245EA111545EA10654FEA002673
:1008D0000EF000419D4208BF964244F1FD0404F52C
:1008E000407402D25B084FEA3202B61A65EB030588
:1008F0005B084FEA32024FF480104FF4002CB6EB45
:10090000020E75EB030E22BFB61A754640EA0C00C4
:100910005B084FEA3202B6EB020E75EB030E22BF04
:10092000B61A754640EA5C005B084FEA3202B6EB45
:10093000020E75EB030E22BFB61A754640EA9C0004
:100940005B084FEA3202B6EB020E75EB030E22BFD4
:10095000B61A754640EADC0055EA060E18D04FEA92
:10096000051545EA16754FEA06164FEAC30343EA32
:1009700052734FEAC2025FEA1C1CC0D111F4801FFF
:100980000BD141EA00014FF000004FF0004CB6E7F8
:1009900011F4801F04BF01430020B4F1FD0C88BF97
:1009A000BCF5E06F3FF6AFAEB5EB030C04BFB6EBA2
:1009B000020C5FEA500C50F1000041EB045170BD95
:1009C0000EF0004E4EEA113114EB5C04C2BFD4EBC2
:1009D0000C0541EA045170BD41F480114FF0000E46
:1009E000013C90E645EA060E8DE60CEA135594EAC2
:1009F0000C0F08BF95EA0C0F3FF43BAF94EA0C0FC5
:100A00000AD150EA01347FF434AF95EA0C0F7FF439
:100A100025AF104619462CE795EA0C0F06D152EA8D
:100A200003353FF4FDAE1046194622E750EA410671
:100A300018BF52EA43067FF4C5AE50EA41047FF482
:100A40000DAF52EA43057FF4EBAE12E74FF0FF3CE7
:100A500006E000BF4FF0010C02E000BF4FF0010CB8
:100A60004DF804CD4FEA410C7FEA6C5C4FEA430C31
:100A700018BF7FEA6C5C1BD001B050EA410C0CBF80
:100A800052EA430C91EA030F02BF90EA020F0020E2
:100A9000704710F1000F91EA030F58BF994208BF49
:100AA00090422CBFD8176FEAE37040F00100704706
:100AB0004FEA410C7FEA6C5C02D150EA013C07D15D
:100AC0004FEA430C7FEA6C5CD6D152EA033CD3D0A8
:100AD0005DF8040B704700BF8446104662468C46A2
:100AE0001946634600E000BF01B5FFF7B7FF0028D5
:100AF00048BF10F1000F01BD4DF808EDFFF7F4FFFE
:100B00000CBF012000205DF808FB00BF4DF808ED88
:100B1000FFF7EAFF34BF012000205DF808FB00BFAB
:100B20004DF808EDFFF7E0FF94BF012000205DF8CD
:100B300008FB00BF4DF808EDFFF7CEFF94BF012082
:100B400000205DF808FB00BF4DF808EDFFF7C4FF7B
:100B500034BF012000205DF808FB00BF4FEA410CC4
:100B60007FEA6C5C02D150EA013C0AD14FEA430CA7
:100B70007FEA6C5C02D152EA033C02D14FF00000E4
:100B800070474FF0010070474FEA410212F5001222
:100B900015D211D56FF47873B3EB625212D94FEAC4
:100BA000C12343F0004343EA505311F0004F23FAAE
:100BB00002F018BF404270474FF00000704750EA03
:100BC000013005D111F0004008BF6FF000407047C0
:100BD0004FF00000704700BF4A0011D212F500121A
:100BE00011D20DD56FF47873B3EB62520ED44FEA85
:100BF000C12343F0004343EA505323FA02F0704705
:100C00004FF00000704750EA013002D14FF0FF3042
:100C100070474FF0000070474FEA4102B2F1E043E5
:100C200024BFB3F5001CDCF1FE5C0DD901F0004CD3
:100C30004FEAC0024CEA5070B2F1004F40EB830023
:100C400008BF20F00100704711F0804F21D113F14F
:100C50003872BCBF01F00040704741F480114FEA88
:100C60005252C2F11802C2F1200C10FA0CF320FA11
:100C700002F018BF40F001004FEAC1234FEAD3232E
:100C800003FA0CFC40EA0C0023FA02F34FEA430398
:100C9000CCE77FEA625307D150EA01331EBF4FF021
:100CA000FE4040F44000704701F0004040F0FE403C
:100CB00040F40000704700BF7BB972B90029BEBF85
:100CC00000204FF0004106E008BF00281CBF6FF075
:100CD00000414FF0FF3000F0FFB9ADF1080C6DE9B5
:100CE00004CE002909DB002B1ADB00F097F8DDF8B1
:100CF00004E0DDE9022304B07047404261EB4101AA
:100D0000002B1BDB00F08AF8DDF804E0DDE90223AC
:100D100004B0404261EB4101524263EB4303704730
:100D2000524263EB430300F079F8DDF804E0DDE9BB
:100D3000022304B0404261EB41017047524263EB31
:100D4000430300F06BF8DDF804E0DDE9022304B0B2
:100D5000524263EB4303704753B94AB9002908BFB5
:100D600000281CBF4FF0FF314FF0FF3000F0B4B946
:100D7000ADF1080C6DE904CE00F050F8DDF804E0A8
:100D8000DDE9022304B07047430803F05533C01A6D
:100D9000830803F0333300F03330184400EB1010B5
:100DA00000F00F3000EB002000EB0040000E704719
:100DB00038B50022002304460D46FFF7A7FE28B9E8
:100DC00020462946BDE8384000F00AB8204605F123
:100DD000004100F005F8404261EB410138BD00BF21
:100DE000D0B50C4B002206460F46FFF71DFCFFF75F
:100DF000F3FE0446FFF79EFB074B0022FFF714FCAF
:100E000002460B4630463946FFF756FAFFF7E4FE36
:100E10002146D0BD0000F03D0000F0412DE9F04733
:100E2000089D0C46002B4ED194468C458646B2FA5E
:100E300082F262D94AB1C2F12003914020FA03F351
:100E40000CFA02FC194300FA02FE4FEA1C471FFA93
:100E50008CF6B1FBF7F44FEA1E4307FB141143EA8B
:100E6000014304FB06F199420AD91CEB030304F188
:100E7000FF3080F01281994240F20F81023C6344BE
:100E8000591A1FFA8EF3B1FBF7F007FB101143EA72
:100E9000014300FB06F69E420AD91CEB030300F156
:100EA000FF3180F0FC809E4240F2F98063440238BA
:100EB0009B1B40EA044000211DB1D3400022C5E93C
:100EC0000032BDE8F0878B4205D90DB1C5E90001BC
:100ED00000210846F5E7B3FA83F1002946D1A34281
:100EE00002D39042C0F0F080861A64EB0303012025
:100EF000002DE6D0C5E90063E3E7002A40F09080CA
:100F0000A1EB0C044FEA1C481FFA8CF70121B4FB3B
:100F1000F8F64FEA1E4308FB164443EA044307FB76
:100F200006F0984208D91CEB030306F1FF3402D205
:100F3000984200F2CD8026461C1A1FFA8EF3B4FBAD
:100F4000F8F008FB104443EA044300FB07F79F4214
:100F500008D91CEB030300F1FF3402D29F4200F2D8
:100F6000B0802046DB1B40EA0640A5E7C1F1200621
:100F70008B4022FA06F71F4320FA06FC04FA01F31D
:100F800043EA0C03F44000FA01F8380C4FEA134925
:100F9000B4FBF0FE1FFA87FC00FB1E4449EA044440
:100FA0000EFB0CF9A14502FA01F20AD93C190EF127
:100FB000FF3A80F08480A14540F28180AEF1020EBC
:100FC0003C44A4EB09041FFA83F9B4FBF0F300FBE3
:100FD000134449EA044403FB0CFCA44507D93C191B
:100FE00003F1FF3067D2A44565D9023B3C4443EA94
:100FF0000E40A0FB0293A4EB0C049C42CE469C4600
:1010000051D34ED055B1B8EB0E0364EB0C0404FA87
:1010100006F6CB401E43CC40C5E90064002150E7F2
:10102000C2F1200320FA03F10CFA02FC24FA03F3C4
:1010300094400C434FEA1C4800FA02FE1FFA8CF75A
:10104000B3FBF8F008FB1031230C43EA014300FB2B
:1010500007F1994208D91CEB030300F1FF362CD2AB
:1010600099422AD9023863445B1AA4B2B3FBF8F15F
:1010700008FB113344EA034401FB07F3A34208D9F8
:101080001CEB040401F1FF3613D2A34211D902393B
:101090006444E41A41EA004139E70446F0E60846B0
:1010A00006E7C845AED2B9EB020E63EB070C013878
:1010B000A8E73146EDE7034699E73046D4E7D64640
:1010C0007FE7634402384DE70646234608460FE7AC
:1010D000023E634430E700BF704700BF08B50022FE
:1010E0004FF48051014804F006FB08BD00040240A3
:1010F00008B501224FF48051014804F0FCFA08BD04
:101100000004024008B500224FF40041014804F0F9
:10111000F2FA08BD0000024008B501224FF4004178
:10112000014804F0E8FA08BD0000024010B58EB096
:10113000484B93E803000C90ADF834100DF1240CEB
:1011400003F1080494E807008CE80700143393E8DF
:1011500003000790ADF8201004AB94E8070083E883
:1011600007006FE000231A4601A93B48006806F01B
:101170003CFB00240EE000220EAB03EB440333F8EB
:10118000081C0EAB03EB840353F8140C04F0B3FA01
:101190000134E4B2022C5BD804F138036B4413F839
:1011A000343C002BE7D001220EAB03EB440333F8B1
:1011B000081C0EAB03EB840353F8140C04F09BFAE9
:1011C000E6E70EAB03EB440203EB840332F8081CA2
:1011D00053F8140C04F088FA04F138036B4403F854
:1011E000300C0134E4B2022CEBD91C4C206806F020
:1011F0004AFB00231A4602A9206806F0B4FA00242C
:1012000011E00EAB03EB440203EB840332F81C1C29
:1012100053F8280C04F068FA04F138036B4403F81F
:101220002C0C0134E4B2022CEBD90D4C206806F0F2
:101230002AFB00231A4603A9206806F094FA01202D
:1012400006F099F9044B186806F010FB002889D1C4
:101250000024C8E7B84B0308140800201808002031
:101260001C08002084B008B50DF1080C8CE80F00B4
:1012700000231A4661460448006806F074FABDE887
:10128000084004B0704700BF0C08002070B58AB059
:101290004FF47A7006F06FF906F006F8642006F055
:1012A0006AF90021012005F063FF002005F024FF0A
:1012B000484C01222146484805F0AEFF0122214654
:1012C000464805F0A9FF0B21012005F051FF01223E
:1012D0002146434805F0A0FF1621012005F048FFF4
:1012E000012221463F4805F097FF2121012005F00A
:1012F0003FFF3D4B59680A784B788878CD780E7956
:1013000049790391029601950090384905A819F092
:1013100005FF0122214605A805F07EFF06F06EF8C4
:1013200040F6B83007F092FC002503E04FF47A70E5
:1013300006F021F90021012005F01AFF002005F038
:10134000DBFE244C01222146294805F065FF264B8F
:101350005B689A68130E0193C2F307430093C2F3CC
:101360000723D2B2234905A819F0D8FE012221464D
:1013700005A805F051FF0A21012005F0F9FE012220
:1013800021461D4805F048FF01352A461B4905A89E
:1013900019F0C4FE0122214605A805F03DFF06F024
:1013A0002DF84FF47A7301227821154804F0EEFCF1
:1013B0000028BBD0124804F013FC4FF47A7007F0F9
:1013C00045FC00F02FFC4FF47A7007F03FFC05F06D
:1013D0006BFFE6E788000020344E0308404E030808
:1013E0004C4E0308584E030834080020604E030892
:1013F000804E0308844E0308944E0308949C03080F
:101400003C08002030B5BBB000233993634B644ADD
:101410006449654803F002FD6449654808F0E6FC4C
:1014200000287CDB634808F0CFFC634C204608F0C2
:10143000BFFC624808F0BCFC204608F0C5FC6048D0
:1014400008F0C2FC5F4808F0BFFC5F4808F0BCFC35
:101450005E4808F0B9FC002239A95D4808F0FCFBA1
:1014600000285FD001215A4808F034FC0446C62207
:1014700007A908F05FFC204608F050FC00228DF818
:101480001C20022307A95348006806F0D3FB002262
:1014900039A9514808F0E0FB002859D140F29A6080
:1014A00008F072FA0446002849D04C49012000F0A7
:1014B0004DFC4B4B186820609B88A3800DF1040CF9
:1014C000484D0FCDACE80F0095E803004CF8040B35
:1014D0008CF800100DF1040CBCE80F00C4F880007B
:1014E000C4F88410C4F88820C4F88C30DCF80000FC
:1014F000C4F890009CF8043084F8943002213648F7
:1015000008F0E8FB054640F29A62214608F01EFC0E
:10151000284608F003FC204608F0B8FA18E003F06B
:1015200073FF7FE7C622002107A81AF0B9F902234A
:10153000002207A92748006806F07CFBA7E72A4994
:10154000032000F003FCE6E74FF47A7006F013F88E
:10155000002207A91F4B186806F07FFE9DF81C307B
:10156000002BF1D01A4C204608F022FC0221204624
:1015700008F0B0FB04460028E6D0C62207A908F010
:10158000E5FB204608F0CAFB00228DF81C20022350
:1015900007A91048006806F04DFBD5E7B51701080C
:1015A000D9170108191101080511010805180108CA
:1015B000F1170108984E0308A04E0308AC4E03082B
:1015C000BC4E0308C84E0308D04E030898620308B7
:1015D000D84E030810080020EC4E0308284F0308DB
:1015E000604F0308684F0308FC4E030808B5012943
:1015F00014D002291AD001B108BD4AB1012AFBD189
:101600000223002201461248006806F013FBF3E7AC
:1016100001460F4B186806F020FEEDE7002AEBD1DB
:1016200001460C4B186806F018FEE5E74AB1012A9E
:10163000E2D10223002201460748006806F0FAFAC8
:10164000DAE70146054B186806F007FED4E700BF4D
:10165000100800201C080020140800201808002092
:1016600030B5D1B03E4800F065FB012000F068FBCA
:101670003C49012000F06AFB4FF4FA6005F07BFF63
:101680004FF4FA6448E000231A4607A93648006878
:1016900006F0ABF80221354808F01CFB05469DF822
:1016A0001D210DF11D0108F051FB284608F036FB05
:1016B00038E048A808F028FA4E9B04934D9B03930A
:1016C0004C9B02934B9B01934A9B0093499B489AE6
:1016D0002749012000F03AFB264C63689A68130EF4
:1016E0000193C2F307430093C2F30723D2B2224906
:1016F000012000F02BFB61680A784B788878CC7861
:101700000D79497903910295019400901B490120BC
:1017100000F01CFB00240134134B186806F0A6F8F7
:101720000028B0D14FF4FA7005F025FFB4F5FA6F38
:10173000F1D100224FA90D4808F08EFA4F9A4CF2D1
:1017400050339A42B5D90E4C204608F031FB214661
:10175000064808F021FB0B49012000F0F7FAA8E742
:1017600065120108804F03080C080020944F0308FD
:10177000C84F0308340800205C5003087850030861
:10178000A44F0308B44F030800B587B08DF80F10BD
:101790004FF0FF33009301230DF117020DF10F01FC
:1017A000034805F046F99DF8170007B05DF804FB03
:1017B0009408002000B583B08DF807004FF0FF3388
:1017C00001220DF10701034805F051F803B05DF85F
:1017D00004FB00BFEC08002008B50A464FF0FF33B9
:1017E0000146024805F04FFA08BD00BFEC08002092
:1017F00008B54FF0FF31024B186805F013FF08BD24
:101800000408002008B5024B186805F03AFF08BD2F
:101810000408002008B5294805F0BBFE284B1860D5
:10182000284805F0B6FE284B1860284A03210120FD
:1018300005F04EFF264B1860264A0321012005F0D3
:1018400047FF254B1860254A0321012005F040FF82
:10185000234B1860234AC621012005F039FF224B93
:101860001860224A4FF481710F2005F031FF204BA0
:101870001860204A0021204805F01EFE1F4B18600A
:101880001F4A00211F4805F017FE1F4B18601F4A12
:1018900000211F4805F010FE1E4B18601E4A002153
:1018A0001E4805F009FE1E4B18601E4A00211E4806
:1018B00005F002FE1D4B186008BD00BF7C510308F7
:1018C000080800206C51030804080020EC510308AC
:1018D0001C080020D451030818080020BC5103083C
:1018E00014080020A4510308100800208C5103089C
:1018F0000C080020945203085919010830080020F0
:10190000705203082D1101082C0800204C520308C6
:101910008D12010828080020285203080514010828
:101920002408002004520308611601082008002042
:1019300008B500224FF48071014803F0DCFE08BDB9
:101940000000024008B501224FF48071014803F005
:10195000D2FE08BD0000024030B5EBB022AD624BB4
:101960000FCB85E80F0002AC80220021204619F041
:1019700097FF40238DF8083022238DF809305B4B08
:101980001A7C8DF80A209A7C8DF80B201A7D8DF830
:101990000C201B7E8DF80D3001238DF827308DF83B
:1019A0002830534B0B930C95524B58AA1A605C602D
:1019B00003E04FF4FA7005F0DEFD08F011FA00289C
:1019C000F7D058A810F098FD4B4B03221A6002F094
:1019D00005F804460FE0FFF7ABFF4FF4FA7005F08F
:1019E000CAFDFFF7AFFF4FF4FA6005F0C4FD02A98E
:1019F00058A816F077F9BDF84C30002BEBD0062133
:101A000002A802F017FC3D4801F0F6FF394B2246D0
:101A10003B4958A814F094FB06E0012158A816F0A1
:101A2000FBFE012005F0A7FD9DF88430032BF4D1C7
:101A3000304B5B689A68130E0193C2F3074300931F
:101A4000C2F30723D2B22F49012000F07FF9002210
:101A5000114626A8FFF7CAFD9DF89930D3B12A494F
:101A6000012000F073F9254B01930DF23D13009313
:101A700047AB0DF19A0202A958A802F019FB58A829
:101A800002F0AEFF02A958A803F076F906F0D0FFE5
:101A9000054608E01D49012000F058F9EFE7012054
:101AA00005F069FD254606F0C3FF0446411B58A812
:101AB00016F0B2FE0B9BDB6802A898470028EED117
:101AC000FFF736FF642005F056FDFFF73BFF40F6B9
:101AD000B83005F050FD0B9B1B6802A8984741F6F3
:101AE000583005F048FDE5E7D44B0308007AFF1FA6
:101AF0009400002034080020A8000020ED15010803
:101B0000A05003085C500308B4500308CC500308ED
:101B10002DE9F04389B000240394049405940694BD
:101B2000079400943C4B1A6B42F080021A631A6BC4
:101B300002F080020092009A01941A6B42F00102B6
:101B40001A631A6B02F001020192019A02941A6B55
:101B500042F002021A631B6B03F002030293029B22
:101B60002E4E22464FF4F071304603F0C4FD2C4D4A
:101B700022460721284603F0BEFD01224FF4805182
:101B8000284603F0B8FD01224FF40041304603F02F
:101B9000B2FD4FF00709CDF80C9004944FF0020805
:101BA000CDF8148003A9304603F032FCE023039300
:101BB000012704970594069403A9304603F028FCF6
:101BC000CDF80C9004970594069403A9284603F0D9
:101BD0001FFC4FF48053039304970594CDF81880AD
:101BE00003A9284603F014FC4FF401430393049720
:101BF0000594CDF8188003A9304603F009FC4FF492
:101C0000807303930494059403A9284603F000FC11
:101C100009B0BDE8F08300BF003802400000024078
:101C20000004024008B50B480B4B03600B4B4360AC
:101C300000238360C3604FF480420261436183618B
:101C4000C361036203F0EEFE00B908BD00F028F99D
:101C5000FBE700BF3C08002000540040400D03009B
:101C600030B589B00023039304930593069307933B
:101C70000268154B9A4201D009B030BD002501958C
:101C8000124C236B43F002032363236B03F0020324
:101C90000193019BC0230393122304930123059313
:101CA000032306930423079303A9094803F0B0FB19
:101CB0000295236C43F400132364236C03F4001394
:101CC0000293029BD8E700BF005400400038024056
:101CD0000004024002680A4B9A4200D0704710B5D7
:101CE000084A136C23F400131364074C4021204668
:101CF00003F072FC8021204603F06EFC10BD00BF93
:101D000000540040003802400004024084B08DE8D6
:101D10000F0004B0704738B501FB00F4204607F00F
:101D200033FE054618B12246002119F0B9FD2846B8
:101D300038BD000008B1014A106070470000002063
:101D4000014B1870704700BF900800200EB4F0B52A
:101D5000ADF51C7D444B1B78834205D90DF51C7DE8
:101D6000BDE8F04003B07047044601214FF4807095
:101D7000FFF7D1FF05460028F0D04FF48172002113
:101D80005BA819F08DFD8DF86C4116F0D9FDFEF7BA
:101D900015FC06460F460022344BFEF76FFDFFF799
:101DA00007F8CDE958014FA958A819F00FFE4FAB1D
:101DB0002F4A40213FA81AF01BFC04463046394602
:101DC000FEF7E2FE2B4A82FB0032C317C3EBA213DD
:101DD0004FF47A7202FB1303274AC4F140013FA873
:101DE000204419F033F80444631C20223FA90A550B
:101DF0000022CA54A2AB5A930DF26D16A19AFD218E
:101E0000304619F0EBFA04469DF86C2101961B4B05
:101E100053F8223000933FAB194A4FF480712846A3
:101E200019F014F8F52C1BD82846FEF739FA8DF86E
:101E30006D024FF4807229460DF26D1019F077FD96
:101E4000104B1E6846B15BACF2225FA968461AF0DF
:101E500063FF94E80F00B047284607F017FE7DE7C0
:101E6000F6238DF86D32E4E79008002000408F40A3
:101E7000B8520308D34D6210CC520308040000206E
:101E8000D45203080000002008B50268034B9A42B0
:101E900000D008BD03F018FAFBE700BF0040014086
:101EA00072B6FEE700B595B03022002108A819F0FF
:101EB000F7FC002303930493059306930793019380
:101EC0001E4A116C41F080511164126C02F0805274
:101ED0000192019A02931A4A116841F4404111603B
:101EE000126802F440420292029A022208920121F0
:101EF0000B9110210C910E920F93082310936423E1
:101F0000119312920423139308A804F009F888B9D6
:101F10000F23039302230493002305934FF480526D
:101F200006920793032103A804F064FA20B915B0C0
:101F30005DF804FBFFF7B4FFFFF7B2FF0038024083
:101F40000070004000B583B072B6104B104A9A6022
:101F500062B6104B019302E0019B013B0193019B90
:101F6000002BF9DC03F096F9FFF79CFFFFF7D0FD9B
:101F700000F034F8FFF756FE00F00EF805F06EFAA8
:101F8000FFF748FC05F07CFAFEE700BF00ED00E03B
:101F90000000010840420F0008B50E480E4B0360D8
:101FA0004FF48273436000238360C3600361436125
:101FB0004FF4007282610822C2610362436283624D
:101FC0000A23C36204F0F4FB00B908BDFFF768FF01
:101FD000FBE700BFEC0800200030014008B50D48C9
:101FE0000D4B03604FF48273436000238360C36032
:101FF000036143614FF400728261C3610362436213
:1020000083620A23C36204F0D3FB00B908BDFFF763
:1020100047FFFBE7940800200038004000B58BB074
:102020000023059306930793089309930368284AAE
:10203000934205D0274A934225D00BB05DF804FBAC
:1020400000210191244B5A6C42F480525A645A6C1C
:1020500002F480520192019A02911A6B42F002023C
:102060001A631B6B03F002030293029B3823059350
:1020700002230693032308930523099305A9174810
:1020800003F0C6F9D9E700210391134B1A6C42F40F
:1020900080421A641A6C02F480420392039A0491FB
:1020A0001A6B42F002021A631B6B03F002030493E3
:1020B000049B4FF460430593022306930323089384
:1020C0000523099305A9054803F0A2F9B5E700BF68
:1020D0000030014000380040003802400004024057
:1020E00000B583B0002200920D4B596C41F4804141
:1020F0005964596C01F48041009100990192196C66
:1021000041F0805119641B6C03F080530193019BD3
:102110000F216FF0010003F063F903B05DF804FBD9
:102120000038024030B589B00546002401941D4BAB
:102130005A6C42F480325A645B6C03F4803301932E
:10214000019B02A903A804F02BFA04F019FA164A1D
:10215000A2FB00239B0C013B1448154A026040F28D
:10216000E732C260436004618460846104F096FFDA
:10217000044610B1204609B030BD0C4804F048FEBA
:1021800004460028F6D1182003F03AF90F2D01D9A2
:102190000124EFE700222946182003F021F9054B1E
:1021A0001D60E7E70038024083DE1B43440900203E
:1021B0000040014084000020FEE7FEE7FEE7FEE766
:1021C000FEE7704708B5024804F062FE08BD00BF94
:1021D000440900200120704708B51AF065FD162358
:1021E00003604FF0FF3008BD08B54FF0FF31FFF737
:1021F000F3FFFEE770B50C461646002506E0AFF388
:102200000080214601F8010B01350C46B542F6DB92
:10221000304670BD70B50C461646002504E014F833
:10222000010BAFF300800135B542F8DB304670BDDD
:102230004FF0FF3070474FF400534B600020704761
:10224000012070470020704710B503460C4A0D4925
:102250000D48006840B10C4800680344521A93428C
:1022600006D8094A136010BD0748084C0460F2E71D
:102270001AF01AFD0C2303604FF0FF30F3E700BFA4
:102280000000022000080000900900202891012091
:10229000034AD2F8883043F47003C2F8883070479C
:1022A00000ED00E0DFF834D0FFF7F2FF0C480D49F5
:1022B0000D4A002302E0D458C4500433C4188C42A1
:1022C000F9D30A4A0A4C002301E013600432A24207
:1022D000FBD31AF0F7FCFFF735FE70470000022031
:1022E00000000020E80700200CAC0308E8070020ED
:1022F00028910120FEE7000008B5034B034AC821DE
:1023000010F010FE08BD00BFF49503081853030831
:1023100070B584B005460C4602AE1449304610F044
:102320008BFF0023009396E80C0094E8030011F063
:10233000A5F998B10E4B1B6A0E48984738B10E4B61
:102340000E4AC821284610F0EDFD04B070BD0C4BBC
:102350000A4AC821284610F0E5FDF6E7094B074A6E
:102360004FF4C871284610F0DDFDEEE7B8530308BE
:102370001C000020AC4E0308C0530308FC530308A4
:102380006C540308B054030870B584B005460C467D
:1023900002AE1249304610F04FFF0023009396E83A
:1023A0000C0094E8030011F069F978B10C4E336A1F
:1023B0000C4C20469847736A204698470A4B0B4AB4
:1023C000C821284610F0AEFD04B070BD084B074A86
:1023D0004FF4C871284610F0A5FDF5E7B85303087F
:1023E0001C000020984E030800550308FC53030806
:1023F000B054030830B5C7B004460D4690F8AC3071
:1024000013F0400220D0124B05F18001F2B1114AC5
:102410004FF461600290019200910F4A4FF4807175
:1024200006A810F07FF80595002204920B4B039349
:102430000B490291019200930A4B06AAC82120463B
:1024400010F070FD47B030BD074BDDE7074ADFE70E
:10245000485503086C55030878550308B51702085A
:1024600018630308BC5503085C5503089857030814
:102470002DE9F043E5B005460C461646002159917A
:1024800025225AA819F00CFA8022009202AB22A948
:10249000204611F0F9FD9DF8883013B19DF8082011
:1024A0004AB9002B40F0AD809DF80830002B40F079
:1024B000A4800020A6E042A810F00CFE02A8FDF7C0
:1024C000EFFE024602A942A810F01EFE42A959A83A
:1024D00010F054FE002426E049462846FFF78AFF04
:1024E00062E04A4F802222A9384619F020FA16F0FD
:1024F00027FA474BC31841F10001C7F8B030C7F8BD
:10250000B410282107F1800012F004FA0EB901205E
:1025100078E0B821A7F1B80301FB04312846FFF7A2
:1025200069FFF4E70134092C40DC22A9A920394BCA
:1025300000FB0430FDF754FE0028F3D1A92304FB6F
:1025400003F3803359A933481844FDF749FE0028A6
:10255000E8D1314BB82202FB0433D3F8B080D3F872
:10256000B47016F0EDF980458F41BAD2B82704FB5C
:1025700007F7DFF8A48007EB0809802222A9484664
:1025800019F0D5F916F0DCF9214BC01841F1000122
:10259000C9F8B000C9F8B41007F180002821404400
:1025A00012F0B8F9002E97D101202BE0002029E08D
:1025B000B822194B02FB04330093184B184AC82168
:1025C000284610F0AFFC16E00134092C17DCB823C4
:1025D00004FB03F3803302A90F481844FDF700FE03
:1025E0000028F1D1B82304FB03F30B4AD35C002B82
:1025F000EAD0002EDCD1012004E00024E5E7002031
:1026000000E0002065B0BDE8F08300BF500A002064
:1026100080EE3600C810002098090020C455030839
:10262000FC53030810B504460122FFF721FF00B157
:1026300010BD044B044A40F29311204610F072FC86
:10264000F6E700BF04560308FC53030810B590B02A
:10265000044609A807F058FA0C490120FFF776FB59
:102660000F9B06930E9B05930D9B04930C9B03936A
:102670000B9B02930A9B0193099B0093044B054A11
:10268000C821204610F04EFC10B010BD345603088F
:102690005456030858570308F0B591B006460C4647
:1026A0000CAD4B49284610F0C7FD0023009395E878
:1026B0000C0094E8030010F0E1FF28B3454C2368B8
:1026C000002201210AA898472368002202210DF167
:1026D0002B0098479DF828309DF829209DF82A1056
:1026E0009DF82B009DF82C409DF82D5005950494E5
:1026F0000390029101920093374B384AC82130462B
:1027000010F010FC11B0F0BD0EAD3549284610F0A8
:1027100093FD0023009395E80C0094E8030010F06B
:10272000ADFF00284BD008AB2E4A04F5007103C959
:102730000FF0BCFC00283AD00AAB2B4A04F5007419
:1027400094E803000FF0B2FC002830D0DDE9080166
:10275000FEF742FAC4B2DDE90A01FEF73DFAC5B25E
:10276000631EDBB2022B01D8012D07D91F4B1B4A78
:102770004FF4C871304610F0D5FBC3E7154F3B68E6
:102780000022022107A8984704F13F036B4403F895
:10279000245C3B680122022107A898470195009418
:1027A000134B0E4AC821304610F0BCFBAAE7114B70
:1027B0000A4A4FF4C871304610F0B4FBA2E70E4B42
:1027C000064A4FF4C871304610F0ACFB9AE700BFE0
:1027D0009C57030864170020A0570308FC53030804
:1027E000B8530308D4570308E057030820580308D8
:1027F000E85703085C5803089858030838B501FBEC
:1028000000F4204607F0C0F8054618B12246002122
:1028100019F046F8284638BDF0B58BB006460C4690
:1028200006AD8449284610F007FD0023009395E883
:102830000C0094E8030010F021FF00283BD0C621D3
:102840000120FFF7DBFF054640B37B4B1B680022EE
:102850001146984705F1A5073846FDF721FDC4B29A
:1028600022462A21384619F01BF82C44002384F80C
:10287000A5306B78EBB1714BAA1C05F1840103976D
:102880000291019200936E4B6E4AC821304610F0BF
:1028900049FB284607F0FAF80BB0F0BD6A4B694ACD
:1028A0004FF4FA71304610F03DFB284607F0EEF881
:1028B000F2E7664BE0E708AD6549284610F0BCFC3E
:1028C0000023009395E80C0094E8030010F0D6FE76
:1028D000002800F0A780C6210120FFF78FFF0546E2
:1028E00010B305AB5B4A04F5007103C90FF074F92E
:1028F000002824DB6B1C584A04F5007797E8030096
:102900000FF0FAFB554A97E8030011F085FD0746E2
:1029100028B316F031FA0346E0B10433032B79D81B
:10292000DFE803F070686052474B464A4FF4FA7193
:10293000304610F0F7FA284607F0A8F8ACE7484B05
:10294000404A4FF4C871304610F0ECFA284607F0C0
:102950009DF8A1E77F223946A81C18F0E8FF384609
:1029600007F094F83F4A04F5007393E8030011F070
:1029700053FD074628B12022014605F1840018F0D6
:10298000D6FF384607F082F8374A04F5007494E819
:10299000030011F041FD044628B12022014605F153
:1029A000A50018F0C4FF204607F070F801222A7035
:1029B000214B1B680021284698472C4B214AC821EF
:1029C000304610F0AFFAC1E7294B1E4A4FF4C871E8
:1029D000304610F0A7FA384607F058F8284607F0B6
:1029E00055F859E7234B174A4FF4C871304610F099
:1029F00099FAF0E7204B134A4FF4C871304610F0B3
:102A000091FAE8E71D4B0F4A4FF4C871304610F0B9
:102A100089FAE0E71A4B0B4A4FF4C871304610F0C0
:102A200081FAD8E7174B074A4FF4C871304610F0C7
:102A300079FA31E79C57030864170020EC58030823
:102A400038590308FC530308FC580308F4580308DA
:102A5000B853030880590308B4590308C059030840
:102A600084590308085B0308145B0308205B030810
:102A7000CC590308105A03085C5A03089C5A0308EF
:102A8000D45A0308985803082DE9F04FC7B081467F
:102A90008A4672228E4927A81AF03EF901211E208B
:102AA000FFF7ACFE064601212E20FFF7A7FE0746E2
:102AB00001212E20FFF7A2FE804601214FF4407035
:102AC000FFF79CFE044601214FF4C070FFF796FE0D
:102AD0000546002E00F0E380002F00F0E080B8F102
:102AE000000F00F0DC80002C00F0D980002800F0FE
:102AF000D6800DF5887B7749584610F09DFB002362
:102B000000939BE80C009AE8030010F0B7FD002842
:102B100000F0BD8001F0C6FA824658B390F8AC30A0
:102B200013F0200F2CD190F8AD3013F0200F2DD0E2
:102B30001E226949304618F0FAFEDFF8C4B10AF1E6
:102B4000080300935B46654A2E2140460FF0EAFCDD
:102B50000AF11C0300935B46604A2E2138460FF0B1
:102B6000E1FC2046FDF79CFB5D4B1B8823524FF098
:102B7000010A28E01E225B49304618F0D8FEF0E733
:102B80001E225949304618F0D2FED6E71E22574978
:102B9000304618F0CCFED0E75FFA8AF3012280219C
:102BA00007A801F06FFE07A9204618F081FE204615
:102BB000FDF776FB034621184D4A1068E050137963
:102BC0000B710AF1010ABAF1030FE5DD4FF0010ABA
:102BD00007E02046FDF764FB414B1B8823520AF1B6
:102BE000010ABAF1030F18DC5FFA8AF3022280218E
:102BF00007A801F047FE07A9204618F059FEBAF1D0
:102C0000020FE6DC2046FDF74BFB03462118384A4D
:102C10001068E05013790B71E1E72846FDF740FB9F
:102C20002F4B1B882B524FF0010A07E02846FDF777
:102C300037FB2B4B1B882B520AF1010ABAF1030F09
:102C400018DC5FFA8AF30222802107A801F002FE55
:102C500007A9284618F02CFEBAF1020FE6DC284638
:102C6000FDF71EFB03462918214A1068E850137926
:102C70000B71E1E7049503940297CDF80480009668
:102C800027AB1C4AC821484610F04CF90EE01A4BFD
:102C9000184A4FF4C871484610F044F906E0174B43
:102CA000144A4FF4C871484610F03CF9304606F01B
:102CB000EDFE384606F0EAFE404606F0E7FE204606
:102CC00006F0E4FE284606F0E1FE47B0BDE8F08FCE
:102CD000C85B03089C570308685B03087C5B030818
:102CE000805B0308849703085C5B0308705B030840
:102CF000845B0308FC530308985803088C5B0308A3
:102D0000D54F0208F0B58DB007460C46154608AE03
:102D10002349304610F090FA0023009396E80C0007
:102D200094E8030010F0AAFC18B300230293039365
:102D300004930593069307931A4B02931A4B079338
:102D400045B1012D0ED002AB184A2146384610F08D
:102D500051FE05E002AB154A2146384610F04AFE06
:102D60000DB0F0BD02AB124A2146384610F042FECB
:102D7000F6E70AAD0F49284610F05EFA00230093EB
:102D800095E80C0094E8030010F078FC0028E7D1E7
:102D9000094B0A4A4FF4C871384610F0C3F8DFE710
:102DA0009C570308D04E03081C000020944F0308D2
:102DB000A44F0308B85303083C5C0308FC53030802
:102DC000F8B504460D461646094F3B6A984702225D
:102DD000214638460EF017FE04467B69A92206FB01
:102DE00002F229460068984720460EF025FEF8BDFD
:102DF0001C0000202DE9F043AFB007460C4626AD7D
:102E0000A449284610F018FA0023009395E80C0016
:102E100094E8030010F032FC002800F090800121BB
:102E20004FF48060FFF7EAFC80460121A020FFF705
:102E3000E5FC8146B8F1000F46D0002844D0964BFF
:102E400007CBC8F80000C8F80410C8F808201B78A1
:102E500088F80C300C26002509E04B468F4AC6F551
:102E6000806108EB060017F0F1FF06440135092DDB
:102E70001ADCA92205FB02F2894B9B5C002BF5D0E2
:102E8000A922874B02FB0533864AA021484617F04A
:102E9000DDFF0C2EE1D9844AC6F5806108EB0600FF
:102EA00017F0D4FF0644D8E7804AC6F5806108EBE6
:102EB000060017F0CBFFCDF80080784B7C4AC82184
:102EC000384610F02FF80AE07A490320FEF73EFF5B
:102ED000794B774A4FF4FA71384610F023F84046A0
:102EE00006F0D4FD484606F0D1FD2CAD73492846C6
:102EF00010F0A2F90023009395E80C0094E8030079
:102F000010F0BCFB002800F0B2816D4A04F500749B
:102F100094E8030011F080FA064618B10378002BFC
:102F200040F08E81674B624A4FF4C87138460FF00B
:102F3000F9FF304606F0AAFD2FB0BDE8F08328ADBA
:102F40006149284610F078F90023009395E80C00B9
:102F500094E8030010F092FB002800F0C78003AB58
:102F60005A4A04F5007103C90EF036FE002821DB31
:102F7000534A04F5007696E8030011F04DFA054631
:102F8000534A96E8030011F047FA064625B118B1F6
:102F90002B780BB103788BBB4E4B454A4FF4C8716D
:102FA00038460FF0BFFF284606F070FD304606F0A9
:102FB0006DFD9AE7484B3E4A4FF4C87138460FF012
:102FC000B1FFB9E708F10108B8F1090F19DC29468A
:102FD000A920334B00FB0830FDF702F90028F1D19E
:102FE0003E4B334A4FF4C87138460FF09BFF2846DA
:102FF00006F04CFD304606F049FD9DE74FF0000815
:10300000E2E74FF00008CDF810802522414605A8E0
:1030100018F046FC0FA810F05DF83046FDF740F9B7
:10302000024631460FA810F06FF80FA904A810F05F
:10303000A5F8434600E00133092B23DCA92203FB5A
:1030400002F217498A5C002AF5D1A92202FB03F893
:1030500089467F22294609EB080018F068FC08F130
:103060008000282204A9484418F061FC0A2249463D
:103070001B48FFF7A5FE1B4B0D4AC82138460FF031
:1030800051FF90E7184B0A4A4FF4C87138460FF0C9
:1030900049FF88E79C570308945C0308909703084E
:1030A000C8100020A45C0308B45C0308B85C0308E3
:1030B000FC530308BC5C0308F05C0308D05E030803
:1030C000185D03086C5F0308B853030880590308B0
:1030D000205D0308D45D030884590308285D0308B4
:1030E000EC4E0308645D0308A05D03082AAD644943
:1030F000284610F0A1F80023009395E80C0094E80E
:10310000030010F0BBFA00283FF4EFAE03AB5D4ABA
:1031100004F5007103C90EF05FFD002821DB5A4A57
:1031200004F5007696E8030011F076F90546574A53
:1031300096E8030011F070F9064625B118B12B7816
:103140000BB10378BBB9524B524A4FF4C8713846A1
:103150000FF0E8FE284606F099FC304606F096FC93
:10316000C3E64D4B4B4A4FF4C87138460FF0DAFEB8
:1031700000263546EEE74FF00008CDF810802522F6
:10318000414605A818F08CFB0FA80FF0A3FF3046AE
:10319000FDF786F8024631460FA80FF0B5FF0FA9DC
:1031A00004A80FF0EBFFB8F1090F26DC2946A9208F
:1031B0003A4B00FB0830FDF713F810B108F1010895
:1031C000F1E7A92303FB08F808F18000DFF8CC90B1
:1031D000282204A9484418F0AAFBC844002388F810
:1031E000A8300A2249462E48FFF7EAFD2D4B294A0E
:1031F000C82138460FF096FEACE72B4B254A4FF41A
:10320000CA7138460FF08EFEA4E7802200212846BE
:1032100018F046FBA92303FB04F080301F4C292241
:103220000021204418F03CFB0A2221461C48FFF7ED
:10323000C7FD1E4B174AC82138460FF073FE78E6CB
:103240000124092C0BDCA923144D03FB0455314642
:103250002846FCF7C5FF0028D7D00134F1E7144B0E
:103260000C4A4FF4C87138460FF05CFE61E6114B12
:10327000084A4FF4C87138460FF054FE5CE600BFB0
:10328000145E030880590308185D0308205D0308D5
:103290008C5E0308FC53030884590308C8100020FF
:1032A000EC4E0308185E03085C5E0308D85E030852
:1032B000185F0308AC5F030870B50E461446012280
:1032C00001460A480EF09FFB68B10546074B1B6993
:1032D000A92204FB02F231460068984728460EF006
:1032E000ABFB012070BD0020FCE700BF1C000020EC
:1032F00070B586B005460C4604AE154930460FF051
:103300009BFF0023009396E80C0094E8030010F064
:10331000B5F9A0B1EB6F1868002302930D4B019330
:10332000012300934FF4FA62002311F067F90A4B6E
:103330000A4AC82128460FF0F5FD06B070BD084BBB
:10334000064A4FF4C87128460FF0ECFDF5E700BFC0
:10335000B8530308095401080C600308FC53030820
:10336000B054030870B584B005460C4602AE14494B
:1033700030460FF061FF0023009396E80C0094E8BC
:10338000030010F07BF998B10E4BDB690E490F4832
:10339000984728B121462846FFF7AAFF04B070BD20
:1033A0000B4B0C4A4FF4FA7128460FF0BBFDF5E7C2
:1033B000094B084A4FF4C87128460FF0B3FDEDE7FA
:1033C000B85303081C000020AC4E030844600308F7
:1033D0005C600308FC530308B054030870B5A4B044
:1033E00005460C4622AE1A4930460FF025FF002351
:1033F000009396E80C0094E8030010F03FF9F0B158
:10340000802302AA134904F1100010F002FE1249B1
:1034100002A8FCF7E5FE40B9104B0093104B114A8F
:103420002146284612F080FB10E00B4B00930E4B18
:103430000E4A4FF4C87128460FF074FD06E00C4B9D
:103440000A4A4FF4C87128460FF06CFD24B070BDD5
:10345000B8530308E0960308A060030890D0030067
:10346000A04E03081C000020B0600308FC530308B2
:10347000B054030870B5C4B006460C4642AD2049AE
:1034800028460FF0D9FE0023009395E80C0094E83D
:10349000030010F0F3F850B37B2323AA194904F575
:1034A000007010F0B6FD002819DD23AB164A80210C
:1034B00003A817F0CBFC154B5B6A03A8984730B103
:1034C000134B144AC82130460FF02CFD16E0124B66
:1034D000104A4FF4FA7130460FF024FD0EE00F4B06
:1034E0000C4A4FF4C87130460FF01CFD06E00C4B3F
:1034F000084A4FF4C87130460FF014FD44B070BD57
:10350000B8530308FC600308046103081C00002092
:103510000C610308FC530308406103087C61030845
:10352000B0540308F0B597B004460E4601214FF49D
:103530008060FFF763F9054650B101222146284813
:103540000EF061FA044640B168460EF06BFE10E0E2
:1035500006F09CFA4FF0FF3040E00EF06DFA28467E
:1035600006F094FA6FF0010038E0294668460EF044
:103570006FFE1B4B1B694FF48062294620689847F9
:1035800002460028F1D120460EF056FA0121102003
:10359000FFF734F9074628B1014668460EF0AFFE42
:1035A000002412E0284606F071FA384606F06EFA5A
:1035B0004FF0FF3012E061003B5D0A4AC1F121018A
:1035C00006EB440017F042FC01340F2CF3DD2846D3
:1035D00006F05CFA384606F059FA002017B0F0BD44
:1035E0001C000020B861030870B584B005460C4685
:1035F00002AE194930460FF01FFE0023009396E8F3
:103600000C0094E8030010F039F8E8B10121212002
:10361000FFF7F4F8044601461048FFF783FF58B956
:1036200000940F4B0F4AC82128460FF07BFC204620
:1036300006F02CFA04B070BD0B4B0A4A4FF4CA7165
:1036400028460FF06FFCF2E7084B064A4FF4C871AA
:1036500028460FF067FCEDE79C5703084460030819
:10366000C0610308FC530308E461030824620308F3
:103670000B2900D07047F0B5ADB0054614460022C6
:103680002146FEF7F5FE074608AEA94930460FF081
:10369000D3FD0023009396E80C0094E803000FF09C
:1036A000EDFF20B12846FEF727FE2DB0F0BD0AAE93
:1036B000A04930460FF0C0FD0023009396E80C00AF
:1036C00004F1080103C90FF0D9FF00B19FB10CAE9E
:1036D000994930460FF0B0FD0023009396E80C00A6
:1036E00004F1080103C90FF0C9FF60B12146284663
:1036F000FEF798FFD9E7914B914A40F29311284683
:103700000FF010FCD1E70EAE8E4930460FF094FD5D
:103710000023009396E80C0004F1080103C90FF0A0
:10372000ADFF18B12846FEF791FFBEE710AE8649FF
:1037300030460FF081FD0023009396E80C0004F161
:10374000080103C90FF09AFF20B121462846FEF771
:10375000A3FFAAE712AE7D4930460FF06DFD0023AE
:10376000009396E80C0004F1080103C90FF086FFEE
:1037700020B121462846FFF74FF896E714AE74496A
:1037800030460FF059FD0023009396E80C0004F139
:10379000080103C90FF072FF20B121462846FFF748
:1037A00073F982E716AE6B4930460FF045FD0023F2
:1037B000009396E80C0004F1080103C90FF05EFFC6
:1037C00028B1002221462846FFF79CFA6DE718AE83
:1037D000614930460FF030FD0023009396E80C005D
:1037E00004F1080103C90FF049FF28B10122214665
:1037F0002846FFF787FA58E71AAE584930460FF0C7
:103800001BFD0023009396E80C00E168A0680FF010
:1038100035FF20B121462846FFF7ECFA45E71CAEFC
:103820004F4930460FF008FD0023009396E80C0046
:10383000E168A0680FF022FF20B121462846FFF77B
:1038400057FD32E71EAE474930460FF0F5FC002326
:10385000009396E80C00E168A0680FF00FFF20B11C
:1038600021462846FFF7BAFD1FE720AE3E49304605
:103870000FF0E2FC0023009396E80C00E168A068DA
:103880000FF0FCFE20B121462846FFF7ADFE0CE705
:1038900022AE364930460FF0CFFC0023009396E865
:1038A0000C00E168A0680FF0E9FE20B1214628462F
:1038B000FFF758FDF9E624AE2D4930460FF0BCFC69
:1038C0000023009396E80C00E168A0680FF0D6FE94
:1038D00020B121462846FEF71BFDE6E626AE254927
:1038E00030460FF0A9FC0023009396E80C00E16835
:1038F000A0680FF0C3FE20B121462846FEF744FD24
:10390000D3E628AE1C4930460FF096FC0023009306
:1039100096E80C00E168A0680FF0B0FEA0B3174B6A
:103920000093174B174A2146284612F0FDF8BCE6D3
:10393000746203087C6203089462030884620308CB
:1039400098570308A0620308B0620308C062030826
:10395000D4620308E8620308F86203080C630308F2
:1039600020630308346303084C630308606303089F
:1039700084630308A0630308BC63030860E31600C4
:10398000984E03081C0000202AAE114930460FF063
:1039900053FC0023009396E80C00E168A0680FF048
:1039A0006DFE20B121462846FFF764FD7DE6002329
:1039B000029303930493059306930793054B029395
:1039C000054B079302AA2146284611F0C7FF6CE673
:1039D000D8630308984E03081C00002008B50A228B
:1039E00002490348FFF768FC024808BDC8100020E0
:1039F000EC4E030871360108014B1860704700BF98
:103A0000641700201A4B1B6803B1704730B585B0AE
:103A100018490120FEF79AF9174C40220021204650
:103A200017F03EFF02AD154B196828460FF004FC55
:103A300095E8030084E80300114B196828460FF04D
:103A4000FBFB04F1080395E8030083E803003C2333
:103A50006385002300930B4B22460B4909680B48F2
:103A6000006814F021F9024B186005B030BD00BFAA
:103A700088170020F46303088C170020E01700204B
:103A8000DC170020E13F0108E4170020D0170020D8
:103A90002DE9F04F85B08146884692462A4C00F1C8
:103AA00008030093294B2A4A282120680EF03AFD8A
:103AB00024682046FCF7F4FB0146204600F0E0FBBA
:103AC00000263BE008EBC60318F836401D79214F6D
:103AD0002B4622468021386800F0F0FBDFF880B0EA
:103AE0002B4622464FF41671DBF8000000F096FCDE
:103AF000194D02AC396820460FF09EFB05F1180302
:103B000094E8030083E80300DBF8001020460FF080
:103B100093FB05F1200394E8030083E803000124EC
:103B200085F8284085F82E402946484612F022FEA6
:103B30003A680A492046FEF709F926445645C1D39A
:103B400005B0BDE8F08F00BF84170020B94F020810
:103B50007C5B0308D81700208C170020146403082E
:103B6000D417002070B584B00023019305688668DF
:103B700026B3044615B3714B1B680022022103A82B
:103B80009847039BADF808301B0C8DF80A306C4940
:103B9000284617F005FF002800F0BA8001AA6949FD
:103BA00017F0DCFA012818D0674B1B68002B00F3D4
:103BB000A58066490320FEF7C9F8B2E0624B1B6896
:103BC000002B40F3AE80624B92226249012011F03B
:103BD0006BFA61480FF052F9A3E05B4B1B68012BB5
:103BE00018DC2B46019A5D490120FEF7AFF8019DD4
:103BF0006B1E022B1AD8E468022C2ED0032C4FD057
:103C0000514B1B68002B6EDC324655490320FEF7F2
:103C10009DF886E04E4B9F224E49022011F044FA57
:103C20002A4601994F480FF029F9DAE7464B1B68FD
:103C3000002B06DC019B03224B491046FEF786F859
:103C40006FE0434BA4224349012011F02DFA019A61
:103C5000032145480FF012F9ECE7022243493046B0
:103C600017F053FE0028C9D105F10F036B44012260
:103C700003F8082C344B1B68934206DC2F4B1B685F
:103C80000122022102A898474BE0314BAE22314974
:103C9000022011F009FA019935480FF0EFF8EDE72D
:103CA00003223449304617F030FE0028A8D105F130
:103CB0000F036B44002203F8082C234B1B68012BD5
:103CC00006DC1E4B1B680122022102A8984728E04F
:103CD0001F4BB2221F49022011F0E6F90199264834
:103CE0000FF0CCF8EDE71A4BB6221A49012011F07B
:103CF000DBF931461A480FF0C1F885E7144BBB22B7
:103D00001449012011F0D0F91C480FF0B7F850E722
:103D10000D4B1B68002B06DC2A4619490320FEF7D1
:103D200015F804B070BD0A4BBF220A49012011F0FA
:103D3000BBF9294612480FF0A1F8EDE770170020F3
:103D4000A8640308B0640308A80000200466030800
:103D5000386403085864030884640308E8640308AB
:103D600090650308BC6403081065030860650308D8
:103D700064650308786503087C650308CC6503085F
:103D80003C66030838B501FB00F4204605F0FCFD55
:103D9000054618B12246002117F082FD284638BD9D
:103DA0002DE9F04387B007460C46584D2B6800229A
:103DB000012104A898472B68002202210DF113006D
:103DC00098470322524904A817F0D6FC48B90322A9
:103DD00050490DF1130017F0CFFC10B9002C00F082
:103DE00091804B4B06AA12E90300186099800121CB
:103DF0004FF41670FFF7C6FF064601218020FFF73B
:103E0000C1FF0546002238E002F101085FFA88F898
:103E100002F118030DEB030212F8083C009343462D
:103E200001224FF41671304600F0ECFC43460122AB
:103E30008021284600F026FDDFF8DC9002AC294600
:103E400020460FF0F9F909F1180394E8030083E81C
:103E50000300314620460FF0EFF909F1200394E802
:103E6000030083E80300002389F8283089F82E3006
:103E70004946384612F07EFC4246022AC4D9002246
:103E800038E002F101085FFA88F802F118030DEB3F
:103E9000030212F8053C0093434602224FF41671C8
:103EA000304600F0AFFC434602228021284600F055
:103EB000E9FCDFF8649002AC294620460FF0BCF91B
:103EC00009F1180394E8030083E803003146204613
:103ED0000FF0B2F909F1200394E8030083E803002E
:103EE000002389F8283089F82E304946384612F0E8
:103EF00041FC4246022AC4D9304605F0C7FD284697
:103F000005F0C4FD07B0BDE8F08300BF70170020C6
:103F1000681700206B1700208C17002008B5054B90
:103F2000186810B1044B1B7803B908BD0021FFF7D6
:103F300037FFFAE7881700207417002008B5054BF3
:103F40001B7803B908BD0121034B1868FFF728FF50
:103F5000F8E700BF74170020881700202DE9F04F04
:103F600083B081460D461646002400E00134B44279
:103F70002ED205EBC40855F83430022BF6D10121BE
:103F80008020FFF7FFFE074698F8043002228021C8
:103F900000F060FCDFF844804FF0010B88F828B097
:103FA000EA46394650460FF047F908F118039AE8F7
:103FB000030083E803004146484612F08DFB3A4671
:103FC00005495846FDF7C2FE384605F05FFDCDE7CE
:103FD00003B0BDE8F08F00BF6C6603088C170020AB
:103FE00070B5102931D00546112902D009293AD0DF
:103FF00070BD224B1B68022B1DDC21490120FDF7FF
:10400000A5FE204B1D60204B1B78002BF0D11F4ECE
:10401000062231462846FFF73BFD1A4C0121206855
:10402000FFF7BEFE062231462068FFF797FF164BCA
:1040300001221A70DCE7164BCD221649032011F03D
:1040400033F815480EF01AFFD7E71446134901203C
:10405000FDF77CFE2046FFF785FD0021094B18681F
:10406000FFF79EFEC4E70E490120FDF76FFE002317
:10407000044A1360044A1370BAE700BFA800002086
:10408000B46603088817002074170020440000203D
:1040900088660308586403089C660308CC66030816
:1040A000F0660308014B1868704700BF88170020AE
:1040B0002DE9F04786B006460C4691461D46012183
:1040C0008020FFF75FFEDFF848A1CAF80000012159
:1040D0002120FFF757FEDFF83C81C8F800000121DE
:1040E0002120FFF74FFE3B4F386001218020FFF772
:1040F00049FE394B186001214FF41670FFF742FE5C
:10410000364B186001212820FFF73CFE344B186025
:104110000F9A344B1A60DAF800A04946504618F05E
:10412000C9FDD8F800902946484618F0C3FD0E99FD
:10413000386818F0BFFD4B4652462B490120FDF769
:1041400005FE2A4D2E602A4B1C600621204600F0F9
:1041500071F8284E04ACD8F8001020460FF06CF827
:1041600094E8030086E80300396820460FF064F8FD
:1041700006F1080394E8030083E803003C237385F9
:10418000002402941C4B01930323009342F210720B
:104190000023286810F032FA184B18600294184B6C
:1041A00001930126009643F698220023286810F018
:1041B00025FA144B18600294134B019300964FF4A8
:1041C000FA720023286810F019FA104B186006B034
:1041D000BDE8F087DC170020D8170020D417002096
:1041E000841700207017002008670308D0170020EC
:1041F000CC1700208C170020053A010880170020FA
:104200003D3F01087C1700201D3F01087817002062
:10421000E4170020E017002038B501FB00F4204629
:1042200005F0B2FB054618B12246002117F038FB15
:10423000284638BD70B506460D460F4B186808B1C4
:1042400005F024FC680001210844FFF7E5FF0A4B54
:10425000186008B100240BE04FF0FF300BE0064B74
:104260001868325D054900EB440016F057FF013431
:10427000AC42F4D3002070BDEC1700203467030873
:1042800038B505460C460C4B186808B105F0FEFB26
:1042900001216018FFF7C0FF074B186040B12246AC
:1042A000294617F044FB044B1B680020185538BD05
:1042B0004FF0FF30FBE700BFE817002000B587B0E4
:1042C0004FF0000C80F800C0013A072A00F2878006
:1042D000DFE802F004162545356575550493414B1A
:1042E0000393414B1B680293404B0193404B009357
:1042F000404B414A16F0AAFD002007B05DF804FBD0
:1043000004933E4B0393384A12680292374A019253
:104310000093384B384A16F099FD0020EDE70493DE
:10432000374B0393304B1B680293304B0193354B53
:104330000093304B304A16F089FD0020DDE70493EE
:10434000314B0393284B1B680293284B01932D4B51
:104350000093284B284A16F079FD0020CDE70493FE
:104360002A4B0393204B1B680293204B0193254B50
:104370000093204B204A16F069FD0020BDE704930E
:10438000234B0393184B1B680293184B01931D4B4F
:104390000093184B184A16F059FD0020ADE704931E
:1043A0001C4B0393104B1B680293104B0193154B4E
:1043B0000093104B104A16F049FD00209DE704932E
:1043C000154B0393084B1B680293084B01930D4B4D
:1043D0000093084B084A16F039FD00208DE74FF096
:1043E000FF308AE754670308EC1700205C67030876
:1043F00064670308740000203C670308A86403088E
:10440000746703087C670308846703088C670308E4
:1044100094670308A4670308B46703082DE9F04F05
:1044200099B017900D4617461C460A46002117F012
:1044300037FA7A1E072A00F2BA81DFE812F0080084
:104440004300A100EA00C5006E019301490101216A
:104450008020FFF7E1FE07460094804B804A8021D0
:1044600016F0F4FC7F4B1A687F4B1B6814937F4B4C
:1044700013937F4B12937F4B11937F4B10937F4B82
:104480000F930E927E4B0D937E490C910B947E49B7
:104490000A910992089307977C4806900594049125
:1044A0000394029101920093794B7A4A2946179816
:1044B00016F0CCFC0446384605F0E8FAE0B219B034
:1044C000BDE8F08F01218020FFF7A6FE07460121FD
:1044D0008020FFF7A1FE8046DFF8F09100944B4664
:1044E0006D4A8021384616F0B1FCDFF894A1654E84
:1044F00002960197DFF86CB1DBF800300093534669
:10450000664A8021404616F0A1FC0094644B544A50
:104510008021384616F09AFCDBF80030524A1268C7
:104520001492524A1392524A1292524A1192524A89
:104530001092524A0F920E93CDF834A00C960B9421
:10454000CDF828900993CDF820A00797CDF81880D2
:104550000594CDF810900394CDF808900193CDF810
:1045600000A04B464B4A2946179816F06FFC0446AC
:10457000384605F08BFA404605F088FAE0B29EE72F
:10458000384B19683E4B474A374800681090374807
:104590000F9037480E9037480D9037480C903748A9
:1045A0000B900A9109934048089007920691059351
:1045B0003E4804903E48039002923E48019000918C
:1045C0003449179816F0AAFD264B19682C4B3A4A25
:1045D00025480068109025480F9025480E902548E2
:1045E0000D9025480C9025480B900A91099333486B
:1045F0000890079206910593314804902348039050
:1046000002922C48019000912249179816F086FDDD
:10461000DAE7144B19681A4B1D4A134800681090CA
:1046200012480F9012480E9012480D9012480C90AC
:1046300012480B900A91099322480890079206911C
:104640000593214804901148039002921948019063
:1046500000911049179816F061FDB5E7BC67030893
:10466000C8670308EC170020E8170020D06703088C
:10467000D4670308D8670308E8670308FC670308E2
:104680005C6703089857030854670308308C0308D5
:104690008C67030860690308086803083869030821
:1046A000106803087467030824680308286803086F
:1046B000386803085C6803088467030864680308B3
:1046C00068680308786803087C680308A86403081E
:1046D000384B1968384B394A3948006810903948C6
:1046E0000F9039480E9039480D9039480C90394850
:1046F0000B900A9109933848089007920691059308
:104700003648049036480390029236480190009152
:104710003549179816F002FD56E7264B1968264BC7
:10472000324A27480068109026480F9026480E907D
:1047300026480D9026480C9026480B900A91099324
:104740002B4808900792069105932A480490244824
:10475000039002922348019000912349179816F084
:10476000DDFC31E7134B1968134B234A14480068EA
:10477000109014480F9014480E9014480D9014484F
:104780000C9014480B900A9109931C4808900792CA
:10479000069105931A48049011480390029211481B
:1047A000019000911049179816F0B8FC0CE74FF0F3
:1047B000FF3084E6EC1700205C6703089467030869
:1047C000E8170020D0670308D4670308D8670308F8
:1047D000E8670308FC670308A0680308A4680308E7
:1047E000308C03085C68030860690308A467030849
:1047F000C4680308C8680308B4670308F4680308BA
:10480000F868030830B583B01C469DF81850012A9B
:104810000BD0022A0BD10A4B5DB10A4A01920094D7
:10482000094A16F013FB03B030BD084BF4E7002330
:10483000F2E7074A01920094034A16F007FBF2E7F9
:10484000A86403086065030828690308546703081F
:104850007865030800B585B00293064B0193064BBB
:104860001B680093054B064A16F0F0FA05B05DF898
:1048700004FB00BFA8640308EC1700205C67030872
:104880000469030800B585B04FF0000C80F800C043
:10489000012A06D0022A0FD04FF0FF3005B05DF894
:1048A00004FB02930A4B01930A4B1B6800930A4BCB
:1048B0000A4A16F0CBFAF1E70293094B0193054B34
:1048C0001B680093044B054A16F0C0FAE6E700BFE8
:1048D00054670308EC1700205C6703081469030899
:1048E000A864030808B5084B1B682BB1064B186871
:1048F00008B114F0E9F808BD044A194614F0B6F9F5
:10490000014B1860F2E700BFF017002011490108C1
:1049100070B5122902D0092946D070BD1446264927
:104920000120FDF713FA14F00BF806460D46234B51
:104930001B68012B20DC32462B4621490120FDF764
:1049400005FA2568646810F0AAFB281A4FF47A72F9
:104950004FF0000364EB0101FCF7FEF9194BC3E9CA
:104960000001164B1B68012B12DC2A462346164910
:104970000120FDF7EBF9D0E7144B1B22144902206C
:1049800010F092FB32462B460D480EF077FAD2E734
:104990000E4B21220E49022010F086FB2A462346A8
:1049A0000C480EF06BFAE0E70B490120FDF7CEF959
:1049B0000A4B00221A60B0E7E06A0308A800002052
:1049C000246B0308F81700207C6B0308D86B0308DE
:1049D000046B0308586B0308A06B0308F017002052
:1049E00030B585B004460D490120FDF7AFF90294BA
:1049F0000B4D01950023009344F6206200232046CE
:104A00000FF0FCFD0294019501230093054A002359
:104A100020460FF0F3FD05B030BD00BFBC6B0308AE
:104A2000E5480108C07A100038B501FB00F42046C3
:104A300004F0AAFF054618B12246002116F030FF07
:104A4000284638BD70B588B005460C461749002089
:104A5000FDF77CF906AE164930460EF0EDFB00235B
:104A6000009396E80C0094E803000EF007FEA8B14E
:104A7000104B1B680593104B1B6804930F4B03935B
:104A80000F4B02930F4B01930F4B00930F4B104AA8
:104A9000C82128460EF046FA08B070BD0D4B0C4AEE
:104AA0004FF4C87128460EF03DFAF5E7DC6B0308B9
:104AB0009C5703080C18002014180020D067030826
:104AC000E8670308D8670308FC670308E46E030877
:104AD000985703083C5C030810B5044605490020BC
:104AE000FDF734F9044B054A4FF4CA7120460EF025
:104AF00019FA10BDFC6B0308146C030898570308DF
:104B00000B2900D0704770B586B00546144617498A
:104B10000020FDF71BF902AE154930460EF08CFB64
:104B20000023009396E80C0004F1080103C90EF07D
:104B3000A5FD28B121462846FFF784FF06B070BDC9
:104B400004AE0C4930460EF077FB0023009396E844
:104B50000C0004F1080103C90EF090FD0028EDD00F
:104B600021462846FFF7B8FFE8E700BF406C03087E
:104B7000686C0308806C030810B584B002460846D0
:104B8000140E8DF80F40110C8DF80E10130A8DF8CD
:104B90000D308DF80C200194C9B20091DBB2D2B275
:104BA000024916F0BBFA04B010BD00BF846C0308C4
:104BB00070B584B006461E490020FDF7C7F81D4BAE
:104BC0001868FBF76DFB0446012100F23910FFF76E
:104BD0002BFF194A106030B3184B1B68184D296819
:104BE0009868FFF7C9FF134B1B680293154B01939D
:104BF0002B680093144B154A04F59C710E4800680D
:104C000016F024F94EB10C4B1C682046FBF748FB0C
:104C100002462146304611F0FBFA074B186804F0B3
:104C200035FF04B070BD0A490320FDF78FF8F8E79F
:104C3000906C03081418002010180020041800209D
:104C40000C180020E06C0308D86C0308EC6D030816
:104C5000A86C0308072900D0704770B588B00446D7
:104C60001A490020FDF772F8194B1B6802AD1A6C47
:104C7000996B28460EF0ECFA04AE164930460EF059
:104C8000DBFA0023009396E80C0095E803000EF091
:104C9000F5FC18B90023236408B070BD06AD0E49B9
:104CA00028460EF0C9FA0023009395E80C0002A9EB
:104CB00003C90EF0E3FC0028ECD008490020FDF702
:104CC00045F8034B1868FFF773FFE3E7E86C030848
:104CD000001800201C6D0308286D0308386D0308B8
:104CE00010B50C490020FDF731F800231A460A4997
:104CF0000A48006812F060FF30B10446FFF758FF21
:104D0000204611F043F910BD05490320FDF71EF8B8
:104D1000F9E700BF686D03088870030808180020D1
:104D2000806D030870B506460D4610490020FDF75A
:104D30000DF8D6B1CDB10E4B186808B104F0A6FE3F
:104D4000680001210844FFF76FFE094B186060B14D
:104D5000002408E0064B1868325D064900EB440069
:104D600016F0DCF90134A542F4D870BDA86D030833
:104D7000141800203467030830B585B0184B18604C
:104D8000184B196001212820FFF74EFE164B1860C2
:104D900018B3144D06212868FFF7C4FF13490120FA
:104DA000FCF7D4FF0E4C00230293114B0193032315
:104DB00000934EF66022002320680FF01FFC2B6842
:104DC0000C4A0D49206811F0BBF92B680B4A0C49BD
:104DD000206811F031F90B4B186005B030BD00BFF1
:104DE00008180020041800200C180020BC6D0308CF
:104DF000E14C0108014B0108D46D0308554C010832
:104E000088700308001800207047000008B5024BA6
:104E10005B68984708BD00BF5818002010B458B10F
:104E200004460948C46059B10748016106494A600F
:104E30008B605DF8044B70470348044CC460F2E794
:104E4000014902480861F1E758180020094E01089D
:104E500008B5024BDB68984708BD00BF5818002012
:104E600008B5024B1B69984708BD00BF58180020C1
:104E700000B583B0054B5B6801210DF10700984731
:104E80009DF8070003B05DF804FB00BF5818002030
:104E900008B5024B9B68984708BD00BF5818002012
:104EA00008B5FFF7D5FF6620FFF7F2FF9920FFF75F
:104EB000EFFFFFF7D5FF08BD08B5642000F016FA34
:104EC000FFF7EEFF642000F011FA642000F00EFA04
:104ED00008BD70B506460C461546FFF7B9FF102D04
:104EE00017D90B20FFF7D4FFC4F30740FFF7D0FF1B
:104EF000C4F30720FFF7CCFFE0B2FFF7C9FF0020A3
:104F0000FFF7C6FF29463046FFF780FFFFF7A8FFEF
:104F100070BD0320FFF7BCFFC4F30740FFF7B8FFE5
:104F2000C4F30720FFF7B4FFE0B2FFF7B1FF04E0DE
:104F3000FFF79EFF06F8010B25466B1E9CB2002D65
:104F4000F6D1E3E770B5FFF783FFFFF789FFFFF7BF
:104F50007FFFFFF785FFFFF77BFF9F20FFF798FF9D
:104F6000FFF786FF0646FFF783FF0446FFF780FF43
:104F70000546FFF775FF240244EA064444EA0500AB
:104F800070BD000038B50546FFF796FFFFF7DAFF62
:104F9000524B984200F08580C0F09C80504B984264
:104FA00000F29880033B9842C0F094804D4B03443C
:104FB000032B00F28F80DFE803F0022B445D4A4CA4
:104FC0004A4B23600123A380E3804FF48053238165
:104FD0004FF4807363814FF40073A38131224449FD
:104FE00004F10E0016F0A3FC002384F83F30AC4619
:104FF0003D4C0FCCACE80F000FCCACE80F000FCC51
:10500000ACE80F0094E80F008CE80F00284638BD8C
:10501000354C384B23600123A380E3804FF4805349
:1050200023814FF4807363814FF48063A381312225
:10503000314904F10E0016F07AFC002384F83F3069
:10504000D5E7294C2D4B23600123A380E3804FF447
:10505000805323814FF4807363814FF40063A381F5
:105060003122274904F10E0016F061FC002384F878
:105070003F30BCE71C4C1A4B23600123A380E38024
:105080004FF4805323814FF480726281A3813122D7
:105090001C4904F10E0016F04AFC002384F83F304E
:1050A000A5E7114C0D4B23600123A380E3804FF44F
:1050B000805323814FF4807363814FF48063A38115
:1050C0003122114904F10E0016F031FC002384F85E
:1050D0003F308CE7044B00221A6088E71620C2009C
:1050E0001840EF00EBBF10FF181800201540EF002C
:1050F000A47003081640EF00AC7003081740EF00DF
:10510000B4700308BC700308C470030808B5FFF747
:105110009FFE0620FFF7BCFEFFF7A2FE08BD0000C1
:1051200038B5094DFFF794FE0520FFF7B1FEFFF7F4
:105130009FFE0446FFF794FE2B46013D13B114F089
:10514000010FEFD138BD00BFA086010010B50446A5
:10515000FFF7DCFFFFF77CFE2020FFF799FEC4F38A
:105160000740FFF795FEC4F30720FFF791FEE0B27A
:10517000FFF78EFEFFF774FEFFF7D2FF10BD70B58C
:1051800006460C461546FFF7C1FFFFF761FE0220F9
:10519000FFF77EFEC4F30740FFF77AFEC4F3072053
:1051A000FFF776FEE0B2FFF773FE04E016F8010B9E
:1051B000FFF76EFE25466B1E9CB2002DF6D1FFF761
:1051C0004FFEFFF7ADFF70BD2DE9F84305460C46D5
:1051D0001746CBB2110AD3B971B92146FFF7CFFFF9
:1051E00013E04FF4807221462846FFF7C8FF04F50C
:1051F000807405F5807531464B1EDEB20029F0D172
:10520000FAB221462846FFF7BAFFBDE8F883C3F19A
:1052100000085FFA88F8D2B2A1B990450DD21344C4
:10522000DEB242462146FFF7AAFF324608EB0401F0
:1052300005EB0800FFF7A3FFE7E73A462146FFF733
:105240009EFFE2E7A7EB08071FFA87F9C7F30726D7
:10525000FFB242462146FFF792FF444445440AE02C
:105260004FF4807221462846FFF789FF04F58074C9
:1052700005F580754646731E5FFA83F8002EEFD160
:10528000002FC2D05FFA89F221462846FFF777FF48
:10529000BBE7000008B50B4B1A6842F400721A60B5
:1052A0001A6842F480621A601A6842F480721A60C6
:1052B000032000F083F80F20FCF734FFFCF710FF09
:1052C000002008BD003C0240034A1168034B1B78D4
:1052D0000B441360704700BF6C1800208200002050
:1052E000014B1868704700BF6C18002038B50446A1
:1052F000FFF7F6FF0546B4F1FF3F02D0044B1B78E1
:105300001C44FFF7EDFF401BA042FAD338BD00BF9D
:1053100082000020002807DB00F01F024009012363
:105320009340024A42F82030704700BF00E100E09D
:10533000002808DB0901C9B200F1604000F56140B6
:1053400080F80013704700F00F000901C9B2014B4B
:105350001954704714ED00E000B500F00700C0F1EB
:10536000070CBCF1040F28BF4FF0040C031D062BE3
:105370000FD9C31E4FF0FF3E0EFA0CF021EA0001D8
:1053800099400EFA03FE22EA0E0241EA02005DF89D
:1053900004FB0023EEE70000BFF34F8F0549CA6806
:1053A00002F4E062044B1343CB60BFF34F8F00BFA6
:1053B000FDE700BF00ED00E00400FA05074AD368EE
:1053C00023F4E0631B041B0C000200F4E0600343C1
:1053D00043F0BF6343F40033D360704700ED00E057
:1053E00010B50446054BD868C0F30220FFF7B4FFA0
:1053F00001462046FFF79CFF10BD00BF00ED00E016
:1054000008B5FFF787FF08BD08B5FFF7C5FF000027
:1054100000230F2B00F2D78070B582B065E085685D
:105420004FEA430E032404FA0EF425EA0405CC687F
:1054300004FA0EF42C438460446824EA02044A68A7
:10544000C2F300129A40224342605CE0DC08083458
:1054500050F8242003F00705AD004FF00F0E0EFAB0
:1054600005FE22EA0E0E0A69AA4042EA0E0240F840
:1054700024205CE0042200E0002202FA0EF22A431B
:105480000234514D45F82420504A94686FEA0C02CA
:1054900024EA0C054E6816F4801F01D04CEA04057E
:1054A0004A4CA560E46802EA04054E6816F4001F41
:1054B00001D04CEA0405454CE560646802EA040545
:1054C0004E6816F4003F01D04CEA04053F4C65607D
:1054D000246822404D6815F4803F01D04CEA040254
:1054E0003A4C226001330F2B6BD801229A400C6892
:1054F00004EA020C32EA0404F4D14C6804F0030418
:10550000013C012C8BD94A6802F00302032A09D01E
:10551000C4685D000322AA4024EA02048A68AA4003
:105520002243C2604A6802F00302022A8ED0046855
:105530004FEA430E032202FA0EF224EA02044A68FA
:1055400002F0030202FA0EF2224302604A6812F4E9
:10555000403FC7D0002201921D4A546C44F480445D
:105560005464526C02F480420192019A9C08A51C7A
:10557000154A52F8255003F0030E4FEA8E0E0F2203
:1055800002FA0EF225EA0205124A90423FF474AF85
:1055900002F5806290420ED002F5806290420CD0FB
:1055A00002F5806290420AD002F5806290423FF498
:1055B00061AF072261E701225FE702225DE7032274
:1055C0005BE702B070BD704700380140003C01400D
:1055D000003802400000024000230F2B7CD8F0B5B9
:1055E0002DE0042500E0002505FA0CF5A54257D072
:1055F00004685D004FF0030C0CFA05FC24EA0C046F
:1056000004604FEAD30E0EF1080E50F82E4003F05E
:105610000706B6000F25B54024EA050440F82E40E1
:10562000C46824EA0C04C460446824EA02024260AC
:10563000826822EA0C02826001330F2B4BD80122D0
:105640009A4002EA010632EA0104F5D14FEA930ECC
:105650000EF10205214C54F8254003F0030C4FEAEB
:105660008C0C0F2505FA0CF73C401D4DA842BAD012
:1056700005F58065A8420DD005F58065A8420BD0E0
:1056800005F58065A84209D005F58065A842A8D037
:105690000725A9E70125A7E70225A5E70325A3E735
:1056A000104C256825EA06052560656825EA06058B
:1056B0006560E56825EA0605E560A56825EA060552
:1056C000A560064E0EF1020456F8245025EA07059F
:1056D00046F824508CE7F0BD704700BF0038014009
:1056E00000000240003C01400369194201D0012042
:1056F0007047002070470AB18161704709048161D9
:10570000704703685A6912F4806F01D10020704716
:105710006FF480625A6100230363202280F83D20E9
:1057200080F83E30026C42F00402026480F83C30A3
:10573000012070472DE9F04106460C461746984671
:105740003BE0FFF7CDFD069BC01A404502D8B8F1FB
:10575000000F32D1012D18D033689B6924EA03036E
:105760009BB2B3FA83F35B099F4226D100233363D4
:10577000202286F83D2086F83E30326C42F020022E
:10578000326486F83C30012027E033685B6924EA04
:1057900003039BB2B3FA83F35B09E5E733685B6904
:1057A00024EA030C1FFA8CFCBCFA8CFC4FEA5C1C4C
:1057B000674511D1B8F1FF3FC3D1C4F30745012DAF
:1057C000ECD033689B6924EA030C1FFA8CFCBCFA0A
:1057D0008CFC4FEA5C1CEBE70020BDE8F0812DE972
:1057E000F84305460E469046994653E01A6842F43F
:1057F00000721A602B686FF480625A6100232B6379
:10580000202285F83D2085F83E302A6C42F00402C3
:105810002A6485F83C3001204AE0FFF761FDA0EBE7
:105820000900404502D8B8F1000F33D1012F17D03D
:105830002B689B6926EA03039BB2003B18BF012338
:1058400043B300232B63202285F83D2085F83E30AA
:105850002A6C42F020022A6485F83C30012027E0BF
:105860002B685B6926EA03039BB2003B18BF012348
:10587000E6E72B689C6926EA0404A4B2003C18BF42
:105880000124A4B12B685A6912F4806FAED1B8F12B
:10589000FF3FC2D1C6F30747012FEAD12B685C69ED
:1058A00026EA0404A4B2003C18BF0124E9E7002062
:1058B000BDE8F883F0B583B004460D4616461F4692
:1058C000C36A082B0DD0012B0BD013F5803F08D0F5
:1058D000036B122B0AD10268136843F480731360C0
:1058E00004E02268136843F4807313600097334622
:1058F00000224FF001112046FFF71CFF80B92369F9
:10590000B3F5804F16D1236805F0FE051D613B46B7
:10591000324613492046FFF762FFF8B903B0F0BDE5
:1059200023681B6813F4807F02D04FF40073236454
:105930000320F3E7EB11226803F0060343F0F003C2
:1059400013613B46324607492046FFF748FF18B926
:105950002368EDB21D61DAE70120DFE70120DDE712
:10596000020001000800010070B504460D4616460D
:1059700023685B6913F0800F21D12046FFF7C1FE39
:10598000F8B9B5F1FF3FF3D0FFF7AAFC801BA8429E
:1059900001D8002DECD123685B6913F0800FE7D1AB
:1059A00000232363202284F83D2084F83E30226CBB
:1059B00042F02002226484F83C30012000E0002004
:1059C00070BD0120FCE770B504460D4616462368FD
:1059D0005B6913F0040F21D12046FFF792FEF8B95E
:1059E000B5F1FF3FF3D0FFF77BFC801BA84201D845
:1059F000002DECD123685B6913F0040FE7D100237D
:105A00002363202284F83D2084F83E30226C42F04B
:105A10002002226484F83C30012000E0002070BDA8
:105A20000120FCE7002800F0CC8070B5044690F817
:105A30003D30002B77D0242384F83D302268136852
:105A400023F0010313602268136843F400431360DA
:105A50002268136823F40043136000F081FD62683C
:105A60005A4B9A4264D85A4B98428CBF0023012368
:105A7000002B40F0A8805749A1FB00318B0C256812
:105A80006A6822F03F0242EA91426A6021680A6A2B
:105A900022F03F0266684D4DAE424FD801331343AA
:105AA0000B622168CA6922F44F4222F0FF02656846
:105AB000464B9D424CD8431E6D00B3FBF5F30133BA
:105AC00040F6FC70034278D0C3F30B031A43CA615B
:105AD00021680B6823F0C003E269206A0243134384
