:020000040801F1
:1000000000000220112B0108252A0108272A0108D7
:10001000292A01082B2A01082D2A010800000000C6
:1000200000000000000000000000000081BC01088A
:100030002F2A01080000000021BD0108E19A0108F3
:10004000612B0108612B0108612B0108612B01085C
:10005000612B0108612B0108612B0108612B01084C
:10006000612B0108612B0108612B0108612B01083C
:10007000612B0108612B0108612B0108612B01082C
:10008000612B0108612B0108612B010800000000B1
:10009000000000000000000000000000612B0108CB
:1000A000312A0108612B0108612B0108612B01082D
:1000B000612B0108612B0108612B0108612B0108EC
:1000C000612B0108612B0108612B0108612B0108DC
:1000D000612B0108612B0108612B01080000000061
:1000E000612B0108612B0108612B01080000000051
:1000F000000000000000000000000000612B01086B
:1001000000000000612B0108612B0108612B010830
:1001100000000000000000000000000000000000DF
:10012000612B0108612B0108612B0108612B01087B
:10013000612B01080000000000000000000000002A
:10014000000000000000000000000000612B01081A
:10015000612B0108612B0108612B0108612B01084B
:10016000612B0108612B0108000000000000000065
:10017000000000000000000000000000000000007F
:1001800000000000612B01080000000000000000DA
:08019000612B0108612B01083D
:1001A00010B5054C237833B9044B13B10448AFF3B1
:1001B00000800123237010BDA00800200000000073
:1001C0007878030808B5034B1BB103490348AFF324
:1001D000008008BD00000000A40800207878030813
:1001E00010F8012B11F8013B012A28BF9A42F7D0E1
:1001F000D01A70470000000000000000000000005E
:1002000001F0FF01102A2BDB10F0070F08D010F8C7
:10021000013B013A8B422DD010F0070F42B3F6D1CB
:10022000F0B441EA012141EA014122F007047FF0E4
:1002300000070023F0E80256083C85EA010586EA3B
:10024000010685FA47F5A3FA87F586FA47F6A5FA77
:1002500087F68EB9EED1F0BC01F0FF0102F0070283
:1002600032B110F8013B013A83EA010313B1F8D12E
:100270000020704701387047002D06BF354603380F
:10028000073815F0010F07D1013015F4807F02BF48
:10029000013015F4C03F0130F0BC0138704700BF99
:1002A000034613F8012B002AFBD1181A01387047B6
:1002B00081F0004102E000BF83F0004330B54FEA17
:1002C00041044FEA430594EA050F08BF90EA020F84
:1002D0001FBF54EA000C55EA020C7FEA645C7FEA17
:1002E000655C00F0E2804FEA5454D4EB5555B8BF3A
:1002F0006D420CDD2C4480EA020281EA030382EAAB
:10030000000083EA010180EA020281EA0303362D3C
:1003100088BF30BD11F0004F4FEA01314FF4801C0F
:100320004CEA113102D0404261EB410113F0004F21
:100330004FEA03334CEA133302D0524263EB4303D8
:1003400094EA050F00F0A780A4F10104D5F1200E76
:100350000DDB02FA0EFC22FA05F2801841F10001D1
:1003600003FA0EF2801843FA05F359410EE0A5F1A5
:1003700020050EF1200E012A03FA0EFC28BF4CF0D6
:10038000020C43FA05F3C01851EBE37101F000458C
:1003900007D54FF0000EDCF1000C7EEB00006EEB99
:1003A0000101B1F5801F1BD3B1F5001F0CD3490823
:1003B0005FEA30004FEA3C0C04F101044FEA44527A
:1003C00012F5800F80F09A80BCF1004F08BF5FEA01
:1003D000500C50F1000041EB045141EA050130BDE1
:1003E0005FEA4C0C404141EB0101013C28BFB1F5F3
:1003F000801FE9D291F0000F04BF01460020B1FA3E
:1004000081F308BF2033A3F10B03B3F120020CDA10
:100410000C3208DD02F1140CC2F10C0201FA0CF0EE
:1004200021FA02F10CE002F11402D8BFC2F1200C53
:1004300001FA02F120FA0CFCDCBF41EA0C01904009
:10044000E41AA2BF01EB0451294330BD6FEA040452
:100450001F3C1CDA0C340EDC04F11404C4F120023D
:1004600020FA04F001FA02F340EA030021FA04F34F
:1004700045EA030130BDC4F10C04C4F1200220FAA6
:1004800002F001FA04F340EA0300294630BD21FAE4
:1004900004F0294630BD94F0000F83F4801306BFAA
:1004A00081F480110134013D4EE77FEA645C18BF9E
:1004B0007FEA655C29D094EA050F08BF90EA020F35
:1004C00005D054EA000C04BF1946104630BD91EA2D
:1004D000030F1EBF0021002030BD5FEA545C05D130
:1004E0004000494128BF41F0004130BD14F580046F
:1004F0003CBF01F5801130BD01F0004545F0FE41E3
:1005000041F470014FF0000030BD7FEA645C1ABF17
:10051000194610467FEA655C1CBF0B46024650EA4E
:10052000013406BF52EA033591EA030F41F400217A
:1005300030BD00BF90F0000F04BF0021704730B500
:100540004FF4806404F132044FF000054FF00001D5
:1005500050E700BF90F0000F04BF0021704730B596
:100560004FF4806404F1320410F0004548BF40426B
:100570004FF000013EE700BF42004FEAE2014FEAC0
:1005800031014FEA02701FBF12F07F4393F07F4F9B
:1005900081F06051704732F07F4208BF704793F09E
:1005A0007F4F04BF41F40021704730B54FF46074B1
:1005B00001F0004521F000411CE700BF50EA0102B4
:1005C00008BF704730B54FF000050AE050EA01025D
:1005D00008BF704730B511F0004502D5404261EBCD
:1005E00041014FF4806404F132045FEA915C3FF40E
:1005F000D8AE4FF003025FEADC0C18BF03325FEAAB
:10060000DC0C18BF033202EBDC02C2F1200300FA5B
:1006100003FC20FA02F001FA03FE40EA0E0021FA80
:1006200002F11444BDE600BF70B54FF0FF0C4CF46E
:10063000E06C1CEA11541DBF1CEA135594EA0C0F20
:1006400095EA0C0F00F0DEF82C4481EA030621EA5B
:100650004C5123EA4C5350EA013518BF52EA033596
:1006600041F4801143F4801338D0A0FB02CE4FF048
:100670000005E1FB02E506F00042E0FB03E54FF078
:100680000006E1FB03569CF0000F18BF4EF0010E70
:10069000A4F1FF04B6F5007F64F5407404D25FEA6C
:1006A0004E0E6D4146EB060642EAC62141EA55511F
:1006B0004FEAC52040EA5E504FEACE2EB4F1FD0C61
:1006C00088BFBCF5E06F1ED8BEF1004F08BF5FEADF
:1006D000500E50F1000041EB045170BD06F0004691
:1006E00046EA010140EA020081EA0301B4EB5C043E
:1006F000C2BFD4EB0C0541EA045170BD41F4801136
:100700004FF0000E013C00F3AB8014F1360FDEBF5A
:10071000002001F0004170BDC4F10004203C35DA36
:100720000C341BDC04F11404C4F1200500FA05F3B9
:1007300020FA04F001FA05F240EA020001F000425A
:1007400021F0004110EBD37021FA04F642EB0601D0
:100750005EEA430E08BF20EAD37070BDC4F10C04FA
:10076000C4F1200500FA04F320FA05F001FA04F2BE
:1007700040EA020001F0004110EBD37041F10001AA
:100780005EEA430E08BF20EAD37070BDC4F12005B5
:1007900000FA05F24EEA020E20FA04F301FA05F21D
:1007A00043EA020321FA04F001F0004121FA04F2C5
:1007B00020EA020000EBD3705EEA430E08BF20EA95
:1007C000D37070BD94F0000F0FD101F000464000CF
:1007D00041EB010111F4801F08BF013CF7D041EA51
:1007E000060195F0000F18BF704703F00046520055
:1007F00043EB030313F4801F08BF013DF7D043EA26
:100800000603704794EA0C0F0CEA135518BF95EADB
:100810000C0F0CD050EA410618BF52EA4306D1D162
:1008200081EA030101F000414FF0000070BD50EA81
:10083000410606BF1046194652EA430619D094EA0B
:100840000C0F02D150EA013613D195EA0C0F05D1F5
:1008500052EA03361CBF104619460AD181EA030149
:1008600001F0004141F0FE4141F470014FF0000001
:1008700070BD41F0FE4141F4780170BD70B54FF09C
:10088000FF0C4CF4E06C1CEA11541DBF1CEA13551C
:1008900094EA0C0F95EA0C0F00F0A7F8A4EB0504FE
:1008A00081EA030E52EA03354FEA013100F08880F5
:1008B0004FEA03334FF0805545EA131343EA1263BE
:1008C0004FEA022245EA111545EA10654FEA002673
:1008D0000EF000419D4208BF964244F1FD0404F52C
:1008E000407402D25B084FEA3202B61A65EB030588
:1008F0005B084FEA32024FF480104FF4002CB6EB45
:10090000020E75EB030E22BFB61A754640EA0C00C4
:100910005B084FEA3202B6EB020E75EB030E22BF04
:10092000B61A754640EA5C005B084FEA3202B6EB45
:10093000020E75EB030E22BFB61A754640EA9C0004
:100940005B084FEA3202B6EB020E75EB030E22BFD4
:10095000B61A754640EADC0055EA060E18D04FEA92
:10096000051545EA16754FEA06164FEAC30343EA32
:1009700052734FEAC2025FEA1C1CC0D111F4801FFF
:100980000BD141EA00014FF000004FF0004CB6E7F8
:1009900011F4801F04BF01430020B4F1FD0C88BF97
:1009A000BCF5E06F3FF6AFAEB5EB030C04BFB6EBA2
:1009B000020C5FEA500C50F1000041EB045170BD95
:1009C0000EF0004E4EEA113114EB5C04C2BFD4EBC2
:1009D0000C0541EA045170BD41F480114FF0000E46
:1009E000013C90E645EA060E8DE60CEA135594EAC2
:1009F0000C0F08BF95EA0C0F3FF43BAF94EA0C0FC5
:100A00000AD150EA01347FF434AF95EA0C0F7FF439
:100A100025AF104619462CE795EA0C0F06D152EA8D
:100A200003353FF4FDAE1046194622E750EA410671
:100A300018BF52EA43067FF4C5AE50EA41047FF482
:100A40000DAF52EA43057FF4EBAE12E74FF0FF3CE7
:100A500006E000BF4FF0010C02E000BF4FF0010CB8
:100A60004DF804CD4FEA410C7FEA6C5C4FEA430C31
:100A700018BF7FEA6C5C1BD001B050EA410C0CBF80
:100A800052EA430C91EA030F02BF90EA020F0020E2
:100A9000704710F1000F91EA030F58BF994208BF49
:100AA00090422CBFD8176FEAE37040F00100704706
:100AB0004FEA410C7FEA6C5C02D150EA013C07D15D
:100AC0004FEA430C7FEA6C5CD6D152EA033CD3D0A8
:100AD0005DF8040B704700BF8446104662468C46A2
:100AE0001946634600E000BF01B5FFF7B7FF0028D5
:100AF00048BF10F1000F01BD4DF808EDFFF7F4FFFE
:100B00000CBF012000205DF808FB00BF4DF808ED88
:100B1000FFF7EAFF34BF012000205DF808FB00BFAB
:100B20004DF808EDFFF7E0FF94BF012000205DF8CD
:100B300008FB00BF4DF808EDFFF7CEFF94BF012082
:100B400000205DF808FB00BF4DF808EDFFF7C4FF7B
:100B500034BF012000205DF808FB00BF4FEA410CC4
:100B60007FEA6C5C02D150EA013C0AD14FEA430CA7
:100B70007FEA6C5C02D152EA033C02D14FF00000E4
:100B800070474FF0010070474FEA410212F5001222
:100B900015D211D56FF47873B3EB625212D94FEAC4
:100BA000C12343F0004343EA505311F0004F23FAAE
:100BB00002F018BF404270474FF00000704750EA03
:100BC000013005D111F0004008BF6FF000407047C0
:100BD0004FF00000704700BF4A0011D212F500121A
:100BE00011D20DD56FF47873B3EB62520ED44FEA85
:100BF000C12343F0004343EA505323FA02F0704705
:100C00004FF00000704750EA013002D14FF0FF3042
:100C100070474FF0000070474FEA4102B2F1E043E5
:100C200024BFB3F5001CDCF1FE5C0DD901F0004CD3
:100C30004FEAC0024CEA5070B2F1004F40EB830023
:100C400008BF20F00100704711F0804F21D113F14F
:100C50003872BCBF01F00040704741F480114FEA88
:100C60005252C2F11802C2F1200C10FA0CF320FA11
:100C700002F018BF40F001004FEAC1234FEAD3232E
:100C800003FA0CFC40EA0C0023FA02F34FEA430398
:100C9000CCE77FEA625307D150EA01331EBF4FF021
:100CA000FE4040F44000704701F0004040F0FE403C
:100CB00040F40000704700BF7BB972B90029BEBF85
:100CC00000204FF0004106E008BF00281CBF6FF075
:100CD00000414FF0FF3000F01DBAADF1080C6DE996
:100CE00004CE002909DB002B1ADB00F097F8DDF8B1
:100CF00004E0DDE9022304B07047404261EB4101AA
:100D0000002B1BDB00F08AF8DDF804E0DDE90223AC
:100D100004B0404261EB4101524263EB4303704730
:100D2000524263EB430300F079F8DDF804E0DDE9BB
:100D3000022304B0404261EB41017047524263EB31
:100D4000430300F06BF8DDF804E0DDE9022304B0B2
:100D5000524263EB4303704753B94AB9002908BFB5
:100D600000281CBF4FF0FF314FF0FF3000F0D2B928
:100D7000ADF1080C6DE904CE00F050F8DDF804E0A8
:100D8000DDE9022304B07047430803F05533C01A6D
:100D9000830803F0333300F03330184400EB1010B5
:100DA00000F00F3000EB002000EB0040000E704719
:100DB00038B50022002304460D46FFF7A7FE28B9E8
:100DC00020462946BDE8384000F00AB8204605F123
:100DD000004100F005F8404261EB410138BD00BF21
:100DE000D0B50C4B002206460F46FFF71DFCFFF75F
:100DF000F3FE0446FFF79EFB074B0022FFF714FCAF
:100E000002460B4630463946FFF756FAFFF7E4FE36
:100E10002146D0BD0000F03D0000F0412DE9F04733
:100E2000089D8E4604468846002B4AD18A421746C2
:100E300062D9B2FA82F64EB1C6F1200301FA06F881
:100E400020FA03F3B74043EA0808B4404FEA174ECC
:100E50001FFA87FCB8FBFEF1230C0EFB118843EA56
:100E6000084301FB0CF29A4209D9FB1801F1FF304B
:100E700080F0EA809A4240F2E78002393B449A1AB5
:100E8000A3B2B2FBFEF00EFB102243EA024300FBCA
:100E90000CFC9C4509D9FB1800F1FF3280F0D6808C
:100EA0009C4540F2D3803B44023840EA0140A3EB2A
:100EB0000C0300211DB1F3400022C5E90032BDE85A
:100EC000F0878B4205D90DB1C5E900010021084624
:100ED000F5E7B3FA83F1002946D1734502D3824284
:100EE00000F20581841A6EEB030201209046002D6A
:100EF000E5D0C5E90048E2E7002A00F09080B2FAA8
:100F000082F6002E40F0A4808A1A030C4FEA174E96
:100F100080B2BCB20121B2FBFEFC0EFB1C2243EAF4
:100F2000024304FB0CF29A4207D9FB180CF1FF387C
:100F300002D29A4200F2E080C4469B1AB3FBFEF252
:100F40000EFB123340EA034302FB04F49C4207D930
:100F5000FB1802F1FF3002D29C4200F2CA80024626
:100F60001B1B42EA0C40A5E7C1F120068B4022FA88
:100F700006F71F430EFA01F420FA06F32EFA06FED6
:100F80004FEA1749234300FA01F81FFA87FCBEFB1A
:100F9000F9F01C0C09FB10EE44EA0E4400FB0CFEB9
:100FA000A64502FA01F209D93C1900F1FF3A80F096
:100FB0009C80A64540F2998002383C44A4EB0E0484
:100FC0001FFA83FEB4FBF9F309FB13444EEA044411
:100FD00003FB0CFCA44508D93C1903F1FF3E80F04B
:100FE0008280A4457FD9023B3C4443EA0040A4EB05
:100FF0000C04A0FB02EC64457346E14662D35FD06B
:101000005DB1B8EB030264EB090404FA06F622FAB8
:1010100001F31E43CC40C5E9006400214FE7B1FB5A
:10102000F2FC010C41EA0E4180B240EA01423B462B
:1010300038463C46B846BE462026B1FBF7F1A2EB47
:10104000080241EA0C4166E7014618E710462CE722
:10105000C6F120022EFA02F3B740B14020FA02F2A4
:101060004FEA174E0A43B3FBFEF8BCB20EFB18332F
:10107000110C41EA034108FB04F9B04089454FEAED
:10108000104380B23ED9791808F1FF3C01D289455E
:101090001FD8A1EB0901B1FBFEF909FB04F80EFB17
:1010A000191192B242EA0142424529D2BA1809F115
:1010B000FF31C4D24245C2D2A9F102013A44BEE78F
:1010C000F0459DD2BEEB02036CEB070C0138E14604
:1010D00096E7A7EB09094944A8F1020CB1FBFEF918
:1010E00009FB04F8DBE773467FE7504666E70846EE
:1010F000FDE63B44023A33E7ACF1020C3B441CE70B
:1011000049469CE7A1EB0901C446B1FBFEF909FB86
:1011100004F8C4E7704700BF00B585B00023009312
:101120000193029303931548154A02604FF440322D
:10113000426083600361037680F82030C362114A05
:101140008262C3600122C26180F83030426105F0E2
:1011500083FF68B9122300930123019300230293B4
:101160006946064806F0A8F828B905B05DF804FB02
:1011700001F014FAEEE701F011FAF6E7BC080020DE
:10118000002001400100000F0268094B9A4200D084
:10119000704782B000230193064B5A6C42F4807270
:1011A0005A645B6C03F480730193019B02B0704737
:1011B000002001400038024010B52DED028B84B0B4
:1011C0001C4B5B8D07EE903AB8EE678A00230093C4
:1011D00001930293039311230093012301930723A7
:1011E00002936946144806F067F828B1BFEE000A7A
:1011F00004B0BDEC028B10BD0F4C204605F058FF2B
:101200000A21204605F0F8FF68B1DFED0C8A0A4894
:1012100005F0D2FFF8EE688A88EE280ADFED087A3A
:1012200020EE270AE4E7204606F042F808EE900A8E
:10123000EDE700BF007AFF1FBC080020000000009F
:101240003333534010B52DED028B84B0002300934F
:10125000019302930393FFF7AFFFB5EEC00AF1EEDF
:1012600010FA32D4B0EE408A122300930123019386
:1012700007230293002303936946174806F01CF8DE
:1012800010B1BFEE000A22E0134C204605F010FF1B
:101290000A21204605F0B0FF88B1DFED108A0E4824
:1012A00005F08AFFF8EE687A9FED0D7A87EE870ADF
:1012B00020EE080AF1EE007A20EE270A07E0204629
:1012C00005F0F6FF08EE900AE9E7BFEE000A04B069
:1012D000BDEC028B10BD00BFBC0800200000000068
:1012E00000F07F4508B509490B685A1C0A60084997
:1012F000C8540A2801D0FF2A07D9054B0549012007
:1013000001F0A2F8014B00221A6008BD040A002077
:10131000040900200C7B030808B500224FF480511B
:10132000014806F090FA08BD0004024008B5012209
:101330004FF48051014806F086FA08BD00040240CF
:1013400008B500224FF40041014806F07CFA08BDC0
:101350000000024008B501224FF40041014806F0A8
:1013600072FA08BD0000024010B58EB04A4B93E8F7
:1013700003000C90ADF834100DF1240C03F10804B7
:1013800094E807008CE80700143393E80300079003
:10139000ADF8201004AB94E8070083E8070072E082
:1013A00000231A4601A93D48006808F06AFD0024A0
:1013B0000EE000220EAB03EB440333F8081C0EAB27
:1013C00003EB840353F8140C06F03DFA0134E4B245
:1013D000022C5ED804F138036B4413F8343C002B24
:1013E000E7D001220EAB03EB440333F8081C0EAB2D
:1013F00003EB840353F8140C06F025FAE6E70EAB72
:1014000003EB440203EB840332F8081C53F8140C7A
:1014100006F012FA04F138036B4403F8300C01347F
:10142000E4B2022CEBD91E4C206808F078FD0023B2
:101430001A4602A9206808F0E2FC002414E00EAB72
:1014400003EB440203EB840332F81C1C53F8280C12
:1014500006F0F2F9B0FA80F0400904F138036B4469
:1014600003F82C0C0134E4B2022CE8D90D4C2068AE
:1014700008F055FD00231A4603A9206808F0BFFCB8
:10148000012008F0C2FB054B186808F03BFD00285E
:1014900086D10024C5E700BF90780308200A002009
:1014A000240A0020280A002084B008B50DF1080C99
:1014B0008CE80F0000231A4661460448006808F0D3
:1014C0009EFCBDE8084004B0704700BF180A002029
:1014D00070B5BAB0002339937E4B7F4A7F4980486C
:1014E00005F062FA7F4980480AF0CCFF00283EDB15
:1014F0007E480AF0B1FF7E4C20460AF0A1FF7D48ED
:101500000AF09EFF20460AF0A7FF7B480AF0A4FFDE
:101510007A480AF0A1FF7A480AF09EFF79480AF05B
:101520009BFF79480AF098FF002239A977480AF012
:10153000DBFE30B3012175480AF014FF0446C622D1
:1015400007A90AF03FFF20460AF030FF00228DF87D
:101550001C20022307A96E48006808F0B7FE00228D
:1015600039A96C480AF0C0FEC0B1002489E06A4B7A
:1015700001221A7040F6B83008F047FB05F0ECFF86
:10158000B6E7C622002107A81BF03AF90223002281
:1015900007A95F48006808F099FEE0E740F29A600A
:1015A0000AF03AFD044690B35C49012000F04CFF7C
:1015B0005B4B186820609B88A38001AD594E0FCE0D
:1015C0000FC596E8030045F8040B297001AD0FCD57
:1015D000C4F88000C4F88410C4F88820C4F88C30A3
:1015E0002868C4F890002B7984F894300221494887
:1015F0000AF0B8FE054640F29A6221460AF0EEFE75
:1016000028460AF0D3FE20460AF088FDADE7464999
:10161000032000F019FFF6E73C4D28460AF010FFC2
:10162000022128460AF09EFE0546002833D0C62235
:1016300007A90AF0D3FE28460AF0B8FE00228DF86A
:101640001C20022307A93248006808F03FFE22E070
:10165000012008F0DAFA4FF48071344806F0ECF813
:101660000028F5D04FF47A7008F0CFFA29480AF034
:10167000E7FE05F071FF00E000244FF47A7008F0F7
:10168000C4FA002207A9224B186809F032F99DF824
:101690001C30002BC0D14FF48071244806F0CCF8E8
:1016A0000028E9D10134E4B2204D0122022128466C
:1016B00006F0C9F8642008F0A8FA002202212846A2
:1016C00006F0C1F8082CD8D101220221284606F0E4
:1016D000BAF8C0E7C91C0108ED1C01085513010840
:1016E00041130108191D0108051D0108147B030899
:1016F0001C7B0308287B0308387B0308447B030812
:10170000209503084C7B0308547B03085C7B03088B
:101710001C0A0020707B0308440A0020AC7B0308ED
:10172000E47B0308EC7B0308807B03080004024091
:1017300008B5012913D0022919D089B94AB1012A63
:101740000ED10223002201461148006808F0BEFDB8
:1017500006E001460E4B186809F0CBF800E002B134
:1017600008BD01460B4B186809F0C3F8F8E74AB109
:10177000012AF5D10223002201460748006808F03B
:10178000A5FDEDE70146054B186809F0B2F8E7E75B
:101790001C0A0020280A0020200A0020240A002019
:1017A000F0B58BB04FF47A7008F02FFA08F0CAF851
:1017B000642008F02AFA0021012008F027F8002010
:1017C00007F0E8FFA94B1C78002C48D1A84D012256
:1017D0002946A84808F06EF801222946A64808F0D4
:1017E00069F804F10B01C9B2012008F00FF80122D9
:1017F0002946A24808F05EF804F11601C9B201209A
:1018000008F004F89E4B59680A784B788878CE78AF
:101810000F7949790391029701960090994905A89B
:101820001AF0FAFD0122294605A808F043F804F150
:101830002101C9B2012007F0E9FF0AF01FFE0146AD
:1018400005A81CF027FD0122294605A808F032F85A
:1018500008F022F940F6B83008F0D7F9CEE00021C0
:10186000012007F0D3FF002007F094FF804C0122F5
:101870002146854808F01EF80A21012007F0C6FF1E
:1018800001222146814808F015F81421012007F0B3
:10189000BDFF012221467E4808F00CF808F0FCF854
:1018A00040F6B83009F01EFD14248FE713F1050F40
:1018B00008D12821012007F0A9FF01226C497548B1
:1018C00007F0F8FF0021012007F0A0FF684C01227B
:1018D0002146714807F0EEFF694B5B689A68130E6A
:1018E0000193C2F307430093C2F30723D2B26B49BB
:1018F00005A81AF091FD0122214605A807F0DAFF9C
:101900000B21012007F082FF01222146644807F0E5
:10191000D1FF0B213D2007F079FF00253D241FE07A
:101920002821012007F072FF012251495D4807F08C
:10193000C1FFC7E72821012007F068FF01224C49B9
:10194000594807F0B7FFBDE70122494905A807F04C
:10195000B1FF0834E4B20B21204607F057FF3546AB
:10196000022D0FDC6E1C3246504905A81AF054FDBA
:101970004F4B5B5D002BE7D000223D4905A807F0E7
:1019800099FFE6E71621012007F040FF01223849C0
:10199000484807F08FFF16213D2007F037FF00254C
:1019A0003D240BE00122324905A807F083FF0834EB
:1019B000E4B21621204607F029FF3546022D10DC3F
:1019C0006E1C3246394905A81AF026FD384B2B44C7
:1019D000DB78002BE6D00022254905A807F06AFF36
:1019E000E5E708F059F84FF47A730122782132487C
:1019F00006F07EFA50BBC82008F007F92C4C0022F4
:101A000001212046FFF794FE00220221E01CFFF78F
:101A10008FFE002007F0BEFE284B93F9003013F133
:101A20000C0F87D03FF742AF13F1540F3FF478AF5C
:101A300013F1180F7FF446AF2821012007F0E6FECE
:101A400001220B491E4807F035FF3BE71A4806F014
:101A500079F94FF47A7009F045FC00F0FDFB4FF482
:101A60007A7009F03FFC07F06DFFBCE7440A0020E4
:101A70001C010020387C0308447C0308507C0308C8
:101A8000480A00205C7C0308047C0308187C0308D7
:101A9000247C03087C7C0308B87C0308BC7C030816
:101AA000CC7C0308887C0308A87C0308C8C303080F
:101AB000080A0020D47C0308500A0020450A0020B0
:101AC000987C03082DE9F041C6B05A4800F0B0FCFC
:101AD000012000F0B3FC5849012000F0B5FC03E000
:101AE0004FF4FA7008F091F80AF0C2FC0028F7D021
:101AF0000AF0C4FC02465149012000F0A5FC504AFE
:101B00005049012000F0A0FC00252F462E4644F647
:101B1000206438E000231A4604A94B48006808F006
:101B2000B0F9022149480AF01DFC80469DF81121B8
:101B30000DF111010AF052FC454B187040460AF0B5
:101B400035FC26E0434C2A460221204607F089F85E
:101B50002A460321204607F084F832460421204615
:101B600007F07FF832460521204607F07AF83A461A
:101B70000621204607F075F83A460721204607F06F
:101B800070F800240134304B186808F0BBF90028C5
:101B9000C0D14FF4FA7008F038F8C82CF2D90022FE
:101BA00045A92A480AF0A0FB459A2B4B9A42C9D96D
:101BB0002A4C20460AF044FC214624480AF034FC12
:101BC0002749012000F040FC264B59680A784B78E1
:101BD0008878CC780D794979039102950194009029
:101BE0002149012000F030FC0AF048FC024613496C
:101BF000012000F029FC124A1249012000F024FCC7
:101C000005F02CF9064605F02FF9074605F032F9E4
:101C1000054632461549012000F016FC3A461449A3
:101C2000012000F011FC2A461249012000F00CFCB2
:101C300088E700BFA9140108E07C0308F47C0308CE
:101C4000107D0308187D0308180A0020307D030862
:101C5000450A0020B40A0020A0860100407D030848
:101C6000507D0308480A0020647D03088C7D03082A
:101C7000A87D0308C47D030808B5064806F02EFABF
:101C80004FF4FA7007F0C1FF0121034805F0E1FDB0
:101C9000F3E700BFA40A00200004024000B587B0AB
:101CA0008DF80F104FF0FF33009301230DF1170251
:101CB0000DF10F01034807F00AFA9DF8170007B06D
:101CC0005DF804FBD40A002000B583B08DF807004E
:101CD0004FF0FF3301220DF10701034807F015F91A
:101CE00003B05DF804FB00BF2C0B002008B50A46CA
:101CF0004FF0FF330146024807F013FB08BD00BF59
:101D00002C0B002008B54FF0FF31024B186807F08C
:101D1000D5FF08BD100A002008B5024B186807F06F
:101D2000FCFF08BD100A002008B52C4807F07BFF17
:101D30002B4B18602B4807F076FF2B4B18602B4A73
:101D40000321012008F010F8294B1860294A0321CB
:101D5000012008F009F8284B1860284A03210120C7
:101D600008F002F8264B1860264AC621012007F029
:101D7000FBFF254B1860254A4FF48171192007F0AD
:101D8000F3FF234B1860234A0021234807F0E2FEAB
:101D9000224B1860224A0021224807F0DBFE224B2A
:101DA0001860224A0021224807F0D4FE214B186017
:101DB000214A0021214807F0CDFE214B1860214A1D
:101DC0000021214807F0C6FE204B1860204A002160
:101DD000204807F0BFFE204B186008BD04C7030869
:101DE000140A0020F4C60308100A002074C7030870
:101DF000280A00205CC70308240A002044C70308FF
:101E0000200A00202CC703081C0A002014C703085E
:101E1000180A002040C80308851E0108400A002057
:101E20001CC80308691301083C0A0020F8C703080E
:101E3000A1170108380A0020D4C70308D1140108EB
:101E4000340A0020B0C70308C51A0108300A002070
:101E50008CC70308791C01082C0A002008B5002251
:101E60004FF48071014805F0EEFC08BD000002400F
:101E700008B501224FF48071014805F0E4FC08BD6B
:101E80000000024030B5EBB022AD664B0FCB85E8C9
:101E90000F0002AC8022002120461AF0B1FC402342
:101EA0008DF8083022238DF809305F4B1A7C8DF8AD
:101EB0000A209A7C8DF80B201A7D8DF80C201B7E51
:101EC0008DF80D3001238DF827308DF82830574BD1
:101ED0000B930C95564B58AA1A605C6003E04FF4C4
:101EE000FA7007F092FE0AF0C3FA0028F7D000213A
:101EF000504812F0BFFC58A812F0A4FE4E4B02222C
:101F00001A6003F07FF804460FE0FFF7A7FF4FF4D5
:101F1000FA7007F07AFEFFF7ABFF4FF4FA6007F0B4
:101F200074FE02A958A818F0E3FABDF84C30002B53
:101F3000EBD0062102A803F0C1FD404803F070F881
:101F40003B4B22463E4958A816F004FD06E001210D
:101F500058A819F067F8012007F057FE9DF8843063
:101F6000032BF4D1324B5B689A68130E0193C2F3D2
:101F700007430093C2F30723D2B23249012000F095
:101F800063FA0022114626A8FFF7D2FB9DF899308C
:101F9000EBB12D49012000F057FA284B01930DF2C7
:101FA0003D13009347AB0DF19A0202A958A803F024
:101FB0008FFC58A804F0DAFA02A958A804F0A2FC91
:101FC00058A801F057F909F07FF8054608E01F49C5
:101FD000012000F039FAECE7012007F016FE254653
:101FE00009F072F80446411B58A819F01BF80B9B26
:101FF000DB6802A898470028EED1FFF72FFF642086
:1020000007F003FEFFF734FF40F6B83007F0FDFDA0
:102010000B9B1B6802A8984741F6583007F0F5FD66
:10202000E5E700BFAC780308007AFF1F2801002015
:10203000480A0020E51201083C0100203117010880
:10204000D87D0308EC7D0308087E0308207E030882
:102050000BB2002B20DD70B582B0064615468B18FA
:10206000042B02DD012002B070BD4C1EA4B2002280
:10207000012101A8FFF75CFB0AE004F108036B44AF
:1020800013F8043C0122A1B2304600F049FF0134AC
:10209000A542F2DC0020E6E701207047F0B583B0EE
:1020A00016460AB2002A43DD05461F468B19042B4B
:1020B00041DC27B3012F39D101398CB20022022132
:1020C00001A8FFF735FB27460FE00122B9B22846E9
:1020D00000F05AFF01220021284600F055FF07F1C9
:1020E00008036B4403F8040C01373319BB42ECDCE2
:1020F0000122022101A8FFF71BFB002019E04C1E62
:10210000A4B20022022101A8FFF712FB0AE004F1A9
:1021100008036B4413F8043C0122A1B2284600F0E6
:10212000FFFE0134A642F2DC384602E0012000E066
:10213000012003B0F0BD0120FBE701207047012022
:10214000704700002DE9F04389B000240394049403
:1021500005940694079400943C4B1A6B42F080025D
:102160001A631A6B02F080020092009A01941A6BB3
:1021700042F001021A631A6B02F001020192019A05
:1021800002941A6B42F002021A631B6B03F0020303
:102190000293029B2E4E22464FF4F071304605F01A
:1021A00052FB2C4D22460721284605F04CFB01220C
:1021B0004FF48051284605F046FB01224FF40041C0
:1021C000304605F040FB4FF00709CDF80C90049421
:1021D0004FF00208CDF8148003A9304605F0C0F98D
:1021E000E0230393012704970594069403A930463E
:1021F00005F0B6F9CDF80C9004970594069403A960
:10220000284605F0ADF94FF48053039304970594E5
:10221000CDF8188003A9284605F0A2F94FF4014330
:10222000039304970594CDF8188003A9304605F070
:1022300097F94FF4807303930494059403A92846F7
:1022400005F08EF909B0BDE8F08300BF0038024008
:10225000000002400004024008B50B480B4B03602D
:102260000B4B436000238360C3604FF480420261E4
:1022700043618361C361036205F086FC00B908BD58
:1022800000F08CF9FBE700BF500A0020005400402A
:10229000400D030030B589B00023039304930593E8
:1022A000069307930268154B9A4201D009B030BDDE
:1022B00000250195124C236B43F002032363236B2B
:1022C00003F002030193019BC023039312230493A1
:1022D00001230593032306930423079303A90948C5
:1022E00005F03EF90295236C43F400132364236C3C
:1022F00003F400130293029BD8E700BF0054004090
:10230000003802400004024002680A4B9A4200D0A2
:10231000704710B5084A136C23F400131364074C7C
:102320004021204605F000FA8021204605F0FCF906
:1023300010BD00BF005400400038024000040240BD
:1023400008B50748074B03600323436040F6FF735B
:10235000836005F097FE00B908BD00F01FF9FBE7A8
:10236000A40A00200030004084B08DE80F0004B0C3
:10237000704738B501FB00F4204609F04DFE0546D4
:1023800018B1224600211AF03BFA284638BD000059
:1023900010B590B0254C00220BA9204606F01DFC7C
:1023A00000220AA9204606F03EFC2422002101A8B2
:1023B0001AF026FA9DF82B30643306939DF82930E5
:1023C000013B05939DF82A3004939DF82C3003932C
:1023D0009DF82D3002939DF82E30019301A81AF03C
:1023E0000FFD0C9A4FF47A7303FB02F20D9BB2FBC4
:1023F000F3F2C2F5797203324FEA411C4CEAD06C19
:1024000043011B1A6CEB010C4FEA8C0C4CEA937CD9
:102410009B001B1841EB0C01C90041EA5371DB0022
:10242000D01841F1000110B010BD00BFB40A002067
:1024300008B1014A1060704700000020014B18707D
:10244000704700BFB00A00200EB4F0B5ADF51C7D9A
:10245000444B1B78834205D90DF51C7DBDE8F04047
:1024600003B07047044601214FF48070FFF781FFED
:1024700005460028F0D04FF4817200215BA81AF0C5
:10248000BFF98DF86C41FFF783FFFEF79FF8064612
:102490000F460022344BFEF7F1F9FEF789FCCDE937
:1024A00058014FA958A81AF0E7FA4FAB2F4A40211C
:1024B0003FA81BF081FB044630463946FEF764FB1B
:1024C0002B4A82FB0032C317C3EBA2134FF47A727C
:1024D00002FB1303274AC4F140013FA8204419F02E
:1024E00065FF0444631C20223FA90A550022CA54F8
:1024F000A2AB5A930DF26D16A19AFD2130461AF047
:10250000F1F804469DF86C2101961B4B53F82230DC
:1025100000933FAB194A4FF48071284619F046FFEB
:10252000F52C1BD82846FDF7BBFE8DF86D024FF445
:10253000807229460DF26D101AF0A9F9104B1E6831
:1025400046B15BACF2225FA968461BF0D5FE94E869
:102550000F00B047284609F0E1FD7DE7F6238DF82E
:102560006D32E4E7B00A002000408F40CC7E0308C3
:10257000D34D6210E07E030804000020E87E0308CB
:102580000000002008B50268034B9A4200D008BD45
:1025900004F0A2FCFBE700BF0040014072B6FEE77A
:1025A00000B595B03022002108A81AF029F90023BF
:1025B000039304930593069307930193204A116CA8
:1025C00041F080511164126C02F080520192019A24
:1025D00002931C4B1A6842F440421A601B6803F4D1
:1025E00040430293029B092308934FF480330993DD
:1025F00001230D9302220E924FF480030F930423C4
:102600001093642111911292139308A805F06CFDA8
:1026100088B90F23039302230493002305934FF4F7
:10262000805206920793032103A805F0C7FF20B943
:1026300015B05DF804FBFFF7B1FFFFF7AFFF00BF78
:10264000003802400070004000B583B072B62F4BD6
:102650002F4A9A6062B62F4B019302E0019B013B27
:102660000193019B002BF9DC04F01CFCFFF798FFA1
:10267000FFF768FD00F0E8F8FFF7EEFD00F0C2F8A4
:10268000FFF75EFEFEF748FD00F048F8224D0221FC
:10269000284606F0EBFA04460321284606F0E6FA3F
:1026A00084421ED01C4D0421284606F0DFFA044661
:1026B0000521284606F0DAFA844219D0164D062183
:1026C000284606F0D3FA04460721284606F0CEFA3B
:1026D000844214D007F010FAFFF726FB07F01EFA29
:1026E000FEE70221284606F0C1FA04F0D5FBD9E73F
:1026F0000421284606F0BAFA04F0C2FBDEE7062100
:10270000284606F0B3FA04F0C1FBE3E700ED00E071
:102710000000010840420F00B40A002000B587B055
:10272000002301930293039304930593009320489D
:10273000204A026043607F228260FF22C260036100
:102740004361836106F038F940BB0121184806F067
:102750008DFA43F2F22398421DD000238DF8043005
:102760008DF805308DF8063004930593012201A9F8
:102770000F4806F07BF9A0B901228DF800208DF8F2
:1027800001208DF8022000238DF8033069460848A7
:1027900006F0CCF940B907B05DF804FBFFF7FEFE88
:1027A000D3E7FFF7FBFEE7E7FFF7F8FEF3E700BF2D
:1027B000B40A00200028004000B587B00023009331
:1027C0000193029303930493059302680B4B9A427F
:1027D00002D007B05DF804FB022300934FF40073AE
:1027E0000493684605F0DEFF20B9054B0122C3F8CB
:1027F0003C2EEEE7FFF7D2FEF7E700BF00280040CF
:102800000000474208B50E480E4B03604FF4827338
:10281000436000238360C360036143614FF400722F
:1028200082610822C2610362436283620A23C36237
:1028300006F00CFB00B908BDFFF7B0FEFBE700BFD8
:102840002C0B00200030014008B50D480D4B0360F3
:102850004FF48273436000238360C360036143616C
:102860004FF400728261C3610362436283620A2390
:10287000C36206F0EBFA00B908BDFFF78FFEFBE775
:10288000D40A00200038004000B58BB00023059327
:1028900006930793089309930368284A934205D047
:1028A000274A934225D00BB05DF804FB002101912B
:1028B000244B5A6C42F480525A645A6C02F480528F
:1028C0000192019A02911A6B42F002021A631B6B89
:1028D00003F002030293029B38230593022306931D
:1028E000032308930523099305A9174804F038FE2C
:1028F000D9E700210391134B1A6C42F480421A6409
:102900001A6C02F480420392039A04911A6B42F00B
:1029100002021A631B6B03F002030493049B4FF43F
:102920006043059302230693032308930523099329
:1029300005A9054804F014FEB5E700BF00300140CA
:1029400000380040003802400004024000B583B067
:10295000002200920D4B596C41F480415964596C2E
:1029600001F48041009100990192196C41F080516D
:1029700019641B6C03F080530193019B0F216FF0CE
:10298000010004F0D5FD03B05DF804FB00380240FF
:1029900030B589B00546002401941D4B5A6C42F4B1
:1029A00080325A645B6C03F480330193019B02A96B
:1029B00003A805F0D9FE05F0C7FE164AA2FB0023C6
:1029C0009B0C013B1448154A026040F2E732C2609A
:1029D000436004618460846106F0AEFE044610B179
:1029E000204609B030BD0C4806F060FD04460028C2
:1029F000F6D1182004F0ACFD0F2D01D90124EFE72A
:102A000000222946182004F093FD054B1D60E7E7DE
:102A10000038024083DE1B43840B0020004001404D
:102A200018010020FEE7FEE7FEE7FEE7FEE770473D
:102A300008B5024806F07AFD08BD00BF840B0020EF
:102A40000120704708B51BF01FFC162303604FF0F0
:102A5000FF3008BD08B54FF0FF31FFF7F3FFFEE789
:102A600070B50C461646002506E0AFF300802146FF
:102A700001F8010B01350C46B542F6DB304670BD5E
:102A800070B50C461646002504E014F8010BAFF3B0
:102A900000800135B542F8DB304670BD4FF0FF30A5
:102AA00070474FF400534B6000207047012070477F
:102AB0000020704710B503460C4A0D490D480068C8
:102AC00040B10C4800680344521A934206D8094AA0
:102AD000136010BD0748084C0460F2E71BF0D4FBFC
:102AE0000C2303604FF0FF30F3E700BF000002202B
:102AF00000080000D00B002060A40120034AD2F897
:102B0000883043F47003C2F88830704700ED00E06D
:102B1000DFF834D0FFF7F2FF0C480D490D4A0023CF
:102B200002E0D458C4500433C4188C42F9D30A4A82
:102B30000A4C002301E013600432A242FBD31BF0D5
:102B4000B1FBFFF781FD704700000220000000206C
:102B50009C0800200CE30308A008002060A40120CA
:102B6000FEE738B50B88052B01D0032038BD0C4695
:102B70004378817841EA0321013189B2C37802792F
:102B800042EA0322531E9BB240F2CE7C634520D81A
:102B9000002323800123037023880133238012F054
:102BA000070F10D0C2F3C7030133DDB2457023888D
:102BB0000133238000230230FFF770FA30B92388F5
:102BC0002B442380D2E7C2F3C705EFE700F0F0F90A
:102BD000CCE70320CAE70B88052B01D00320704700
:102BE0004378817841EA0321013189B20379F3B94D
:102BF000C278531EDBB2FD2B1BD900B583B0002376
:102C00008DF80530FF2A0BD000238DF80430012306
:102C10001A4601A8FFF742FA30B903B05DF804FB89
:102C200001238DF80430F2E700F0C2F9F5E7032044
:102C30007047032070470B88052B2DD910B50C4623
:102C40004278837843EA0223013399B2C278037948
:102C500043EA022290F805E013F0070F0ED0C2F30A
:102C6000C70C0CF1010C5FFA8CFC531E9BB2B3F540
:102C7000F66F13D2F44504D0032010BDC2F3C70C85
:102C8000F3E701230630FFF709FA10B90523238083
:102C9000F3E700F08DF9F0E7032070470320ECE73D
:102CA00038B50B88052B01D0032038BD0C4643787E
:102CB000817841EA0321013189B2C378027942EA7D
:102CC0000322531E9BB240F2CE7C63451FD80023E3
:102CD00023800223037023880133238012F0070F1F
:102CE0000FD0C2F3C7030133DDB24570238801332F
:102CF00023800230FFF7ACF930B923882B442380BE
:102D0000D3E7C2F3C705F0E700F052F9CDE703209F
:102D1000CBE708B50B88052B01D0032008BD43780D
:102D2000817841EA0321013101231A4689B2033037
:102D3000FFF705FA0028F1D000F03AF9EEE70B882A
:102D4000052B22D910B50C464278837843EA02233A
:102D5000013399B2C378027942EA032290F805C0A0
:102D6000531E9BB2772B12D85300DBB2634501D0C0
:102D7000032010BD01230630FFF7E1F910B9052348
:102D80002380F6E700F014F9F3E7032070470320EF
:102D9000EFE738B50B88052B01D0032038BD02467C
:102DA0000C464378817841EA0321013189B20579E3
:102DB0006B1E9BB27C2B01D90320EFE700232380FD
:102DC0004FF0030C00F802CBB4F800C00CF1010C7A
:102DD000A4F800C04FEA450C82F801C022880132F5
:102DE00022802A46FFF7ABF920B9238803EB45037D
:102DF0002380D3E700F0DCF8D0E7F8B50B88092B87
:102E000043D904460D464378817841EA03210131D4
:102E10008EB2C378077947EA03274379817941EA7B
:102E20000321013189B2C379027A42EA0322407A4E
:102E30007B1E9BB27C2B2AD85AB3792A2BD8B0EBB5
:102E4000420F01D0032021E0012304F10A00FFF723
:102E500076F90346B0B928802046172200F8022BE5
:102E60002A8801322A807A0062702A8801322A80F8
:102E70003A463146FFF763F920B92B8803EB470345
:102E80002B8003E000F094F800E00020F8BD032060
:102E9000FCE70320FAE70320F8E70A88052A01D0B7
:102EA0000320704738B503460C464278817841EAE2
:102EB0000221013189B2C278057945EA02256A1EEC
:102EC00092B27B2A01D9032038BD0022228004223D
:102ED00000F8022B2288013222806A005A7023886F
:102EE000013323802A46FFF728F920B9238803EB12
:102EF00045032380E8E700F05BF8E5E738B50D46C9
:102F0000054B1C882246054901301BF0F5F90134B8
:102F10002C80002038BD00BFD40B0020D80B00202F
:102F200010B5082A23D84FEAD10E01F0070403FA9E
:102F300004F44FF0010C0CFA02F292B2013A92B290
:102F400001F0070102FA01F110F80E300EEB0C024D
:102F500010F802C043EA0C231BB223EA01031BB2A0
:102F6000234300F80E30C3F30723835410BD034BF3
:102F7000034A3721034818F049FB00BF147F0308B8
:102F80007CC80308247F03084FEAD10C0123934037
:102F90009BB2013B10F80C206044407842EA0022CA
:102FA00001F007010A4192B203EA0200C0B2704781
:102FB000012803D0072803D020B9704702207047AA
:102FC000062070470420704710B500F0CEF9044683
:102FD00020B1114B01221A70204610BD00F0CAF832
:102FE000C0B10E4B0E4A1A600E4B0F4A1A600F4BBF
:102FF0000F4A1A600F4B104A1A60104B00221A60D9
:103000000F4BFF221A700F4B02221A70024B012243
:103010001A70E1E70324DFE79C000020100C002079
:103020007B3301080C0C00207D330108080C0020C4
:1030300085330108140C0020C5330108040C00205E
:10304000190C0020180C002008B5064B1B78012B2A
:1030500001D0062008BD044B1B6898470020014B97
:103060001870F7E79C000020100C002030B583B0EA
:10307000364B1C78002C63D10DF1070000F08EF860
:10308000012802D0204603B030BD9DF80730012B47
:1030900014D0022BF6D12E4B186801782D4B1970E5
:1030A0002D4B01221A7000230F2B25DC2B4A12F81E
:1030B00033200AB3914217D00133F5E7284B1B6840
:1030C000284A23492848984705460028DAD1264B44
:1030D0001B78264A1278934201D0002B32D102206D
:1030E00000F050F82C46CDE71C4A02EBC3035B68A6
:1030F0001C499847184B18701B4B1B7823B3164B71
:103100001B789BB1174A0021118012490978104899
:1031100005684FF0010CA2F800C041F08001297051
:103120000068118801EB0C0515804354104B1B6897
:103130000C4A1288064909680C4800789847A1E7AC
:1031400006249FE704469DE71C469BE79C00002061
:10315000FC0B0020F90B0020F80B00201C000020C5
:10316000080C0020FA0B0020000C0020190C002095
:10317000140C0020024B00221A700120704700BF7F
:103180001A0C00200123034A1370034A10701846DA
:10319000704700BF1A0C00201B0C00200346054A94
:1031A000107830B1044A12781A70024B00221A705B
:1031B000012070471A0C00201B0C0020072900D0AA
:1031C000704738B504461E4B00F11C0293E803001B
:1031D00014F010FB012806D094F8AD3043F0200322
:1031E00084F8AD3038BD226C93B216490B8033B9E8
:1031F00094F8AD3043F0200384F8AD30F2E71A467E
:10320000A16B11481BF078F80120FFF7BBFFFFF717
:103210002DFFFFF72BFF0D4B1B7833B994F8AD3022
:1032200043F0200384F8AD30DCE70025074B1D7028
:10323000074B1A880749204615F0F4FB2564D1E7AF
:103240001C0C0020281400202C140020240C00202A
:10325000260C0020280C002038B501FB00F4204685
:1032600008F0DAFE054618B12246002119F0C8FA26
:10327000284638BD30B583B00023244A244915F0D0
:10328000E5FA0020FFF7A0FEFFF7DEFE0022019224
:1032900001A9204809F028F80198421E40F2FE33A7
:1032A0009A4215D801210844FFF7D6FF1A4D28602D
:1032B0000121184809F056F80446019A296809F0D6
:1032C00081F8019B6B60204609F070F803B030BDB7
:1032D00001210B20FFF7C0FF03460F4C20600B229B
:1032E00062600E4A03CA1860596011889278198189
:1032F0009A720221074809F035F80546626821688C
:1033000009F06CF8284609F051F8DFE7BD310108F3
:103310006C7F0308807F03081C0C0020947F030847
:1033200001207047044B0360044B1A880A80002276
:103330001A800120704700BF2C14002028140020A0
:1033400010B50C460A46014604481AF0D5FF044B56
:103350001C800120034B187010BD00BF280C0020FA
:10336000260C0020240C0020704708B5FFF7D8FF7A
:1033700008B1002008BD0320FCE7704708B5FFF73F
:10338000F3FF08BD70B582B006460D4614460DF138
:10339000020101A8FFF7C6FF80B1019B9978DA7896
:1033A00052EA01220CD107332B60BDF80230073BF3
:1033B0002380FF233370002002B070BD0520FBE79F
:1033C0000520F9E708B50846D11D531C1B1200F86B
:1033D000033C013200F8022C89B20738FFF7B0FF36
:1033E00008B1002008BD0520FCE7000008B5034B2C
:1033F000034AC82112F050F908BD00BF28BD0308D8
:10340000A07F030870B586B005460C4604AE12498D
:10341000304612F0CBFA0023009396E80C0094E8B3
:10342000030012F0EBFC78B10C4B03930C4B0293AE
:103430000C4B01930C4B00930C4B0D4AC8212846B2
:1034400012F02AF906B070BD0A4B094A40F29511F4
:10345000284612F021F9F5E740800308507C030864
:10346000008103080C810308107D030844800308D1
:10347000908003081081030870B584B005460C469F
:1034800002AE1449304612F091FA0023009396E8F8
:103490000C0094E8030012F0B1FC98B10E4B1B6ACB
:1034A0000E48984738B10E4B0E4AC821284612F0F4
:1034B000F3F804B070BD0C4B0A4AC821284612F03C
:1034C000EBF8F6E7094B074A40F29511284612F04F
:1034D000E3F8EEE760810308A0000020287B0308E2
:1034E0006881030890800308A4810308E881030829
:1034F00070B584B005460C4602AE1249304612F053
:1035000055FA0023009396E80C0094E8030012F0AB
:1035100075FC78B10C4E336A0C4C20469847736AA0
:10352000204698470A4B0B4AC821284612F0B4F8A7
:1035300004B070BD084B074A40F29511284612F0BE
:10354000ABF8F5E760810308A0000020147B0308B6
:103550003882030890800308E8810308F0B5C3B0FF
:1035600006460D4680242246002122A819F048F97B
:103570002246002102A819F043F9009402AB22462A
:1035800022A9284613F03AF99DF8883013B19DF826
:10359000082062B913B99DF808304BBB204B214A73
:1035A0004FF4CA71304612F077F843B0F0BD1E4BAD
:1035B0001C4A4FF4CA71304612F06EF8F5E7B82392
:1035C00003FB04F4194FE5192A4619490120FEF7B7
:1035D0003BFF002385F8803000200021C5E92C0145
:1035E0003B55144B0F4AC821304612F055F8DCE722
:1035F0000024092C0CDCB82304FB03F3803302A95C
:103600000A481844FCF7ECFD0028D8D00134F0E754
:10361000094B044A4FF4CA71304612F03DF8C4E732
:10362000848303089080030880820308301C0020F4
:1036300000830308148303085083030830B5C7B020
:1036400005460C4690F8AC3013F0400224D0144BE1
:1036500004F1800112B3134A1348029001920091C1
:10366000124A4FF4807106A811F002FB0594002263
:1036700004920F4B03930F490291019200930E4B5A
:1036800006AAC821284612F007F822460B49012055
:10369000FEF7DAFE47B030BD094BD9E7094ADBE750
:1036A000FC8303082084030800A302002C84030881
:1036B000253E02086895030870840308788403088F
:1036C00010840308848603082DE9F043E5B005461D
:1036D0000C4616462922002159A819F091F880229B
:1036E000009202AB22A9204613F088F89DF888309A
:1036F00013B19DF808204AB9002B40F0BB809DF81B
:103700000830002B40F0B2800020B4E022AA5B49D0
:103710000120FEF799FE42A812F096F802A8FCF7E5
:10372000BFFD024602A942A812F0A8F842A959A872
:1037300012F0DEF800242AE041462846FFF77EFF1B
:1037400066E04F4F802222A9384619F0A0F817F002
:10375000FDFC4C4BC31841F10001C7F8B030C7F86D
:10376000B410282107F1800013F0A4FC4EB9B82250
:10377000454B02FB043245490120FEF765FE01205E
:1037800079E039462846FFF759FFF0E70134092C64
:1037900045DC22A9A9203E4B00FB0430FCF720FDAC
:1037A0000028F3D1A92304FB03F3803359A9384837
:1037B0001844FCF715FD0028E8D1334BB82202FB72
:1037C0000433D3F8B080D3F8B47017F0BFFC804551
:1037D0008F41B6D2B82704FB07F7DFF8AC9007EBB0
:1037E0000908802222A9404619F051F817F0AEFCD2
:1037F000244BC01841F10001C8F8B000C8F8B4105B
:1038000007F180002821484413F054FC002E93D186
:1038100042461E490120FEF717FE01202BE0002042
:1038200029E0B822184B02FB04330093194B1A4AC3
:10383000C821284611F030FF16E00134092C17DCAE
:10384000B82304FB03F3803302A90F481844FCF7A4
:10385000C7FC0028F1D1B82304FB03F30A4AD35C68
:10386000002BEAD0002EDCD1012004E00024E5E7A3
:10387000002000E0002065B0BDE8F08394840308D8
:10388000E81C002000B84C0A301C0020B484030857
:1038900060230020D08403089080030810B50446FC
:1038A0000122FFF711FF00B110BD044B044A40F2A2
:1038B0009311204611F0F0FEF6E700BF10850308D3
:1038C0009080030810B590B0044609A808F064FC85
:1038D0000F9B06930E9B05930D9B04930C9B0393E8
:1038E0000B9B02930A9B0193099B0093034B044A91
:1038F000C821204611F0D0FE10B010BD408503084D
:1039000044860308F0B591B006460C460CAD4B4911
:10391000284612F04BF80023009395E80C0094E839
:10392000030012F06BFA28B3454C236800220121F2
:103930000AA898472368002202210DF12B0098471E
:103940009DF828309DF829209DF82A109DF82B001D
:103950009DF82C409DF82D500595049403900291FC
:1039600001920093374B384AC821304611F094FE3B
:1039700011B0F0BD0EAD3549284612F017F80023FE
:10398000009395E80C0094E8030012F037FA002841
:103990004BD008AB2E4A04F5007103C910F022FF8A
:1039A00000283AD00AAB2B4A04F5007494E80300CF
:1039B00010F018FF002830D0DDE90801FDF70CF900
:1039C000C4B2DDE90A01FDF707F9C5B2631EDBB237
:1039D000022B01D8012D07D91F4B1B4A4FF4C87188
:1039E000304611F059FEC3E7154F3B680022022113
:1039F00007A8984704F13F036B4403F8245C3B6835
:103A00000122022107A8984701950094134B0E4A02
:103A1000C821304611F040FEAAE7114B0A4A4FF484
:103A2000C871304611F038FEA2E70E4B064A40F24C
:103A30009511304611F030FE9AE700BF4080030830
:103A4000FC29002088860308908003086081030811
:103A5000BC860308C886030808870308D0860308C5
:103A6000448703088087030838B501FB00F420462B
:103A700008F0D2FA054618B12246002118F0C0FE1F
:103A8000284638BDF0B58BB006460C4606AD8449D5
:103A9000284611F08BFF0023009395E80C0094E872
:103AA000030012F0ABF900283BD0C6210120FFF73C
:103AB000DBFF054640B37B4B1B680022114698474D
:103AC00005F1A5073846FCF7EBFBC4B222462A21D4
:103AD000384618F095FE2C44002384F8A5306B7806
:103AE000EBB1714BAA1C05F184010397029101927D
:103AF00000936E4B6E4AC821304611F0CDFD28462A
:103B000008F00CFB0BB0F0BD6A4B694A4FF4FA7138
:103B1000304611F0C1FD284608F000FBF2E7664B85
:103B2000E0E708AD6549284611F040FF0023009307
:103B300095E80C0094E8030012F060F9002800F00A
:103B4000A780C6210120FFF78FFF054610B305AB04
:103B50005B4A04F5007103C910F0E0FB002824DB88
:103B60006B1C584A04F5007797E8030010F060FEDC
:103B7000554A97E8030013F009F8074628B317F0F1
:103B800003FD0346E0B10433032B79D8DFE803F0EB
:103B900070686052474B464A4FF4FA71304611F054
:103BA0007BFD284608F0BAFAACE7484B404A4FF490
:103BB000C871304611F070FD284608F0AFFAA1E751
:103BC0007F223946A81C18F062FE384608F0A6FA93
:103BD0003F4A04F5007393E8030012F0D7FF07464D
:103BE00028B12022014605F1840018F050FE384625
:103BF00008F094FA374A04F5007494E8030012F0D0
:103C0000C5FF044628B12022014605F1A50018F0A1
:103C10003EFE204608F082FA01222A70214B1B68E2
:103C20000021284698472C4B214AC821304611F0E4
:103C300033FDC1E7294B1E4A4FF4C871304611F0DD
:103C40002BFD384608F06AFA284608F067FA59E76B
:103C5000234B174A4FF4C871304611F01DFDF0E7B1
:103C6000204B134A4FF4C871304611F015FDE8E7B8
:103C70001D4B0F4A4FF4C871304611F00DFDE0E7BF
:103C80001A4B0B4A4FF4C871304611F005FDD8E7C6
:103C9000174B074A40F29511304611F0FDFC31E711
:103CA00040800308FC290020D487030820880308EB
:103CB00090800308E4870308DC8703086081030819
:103CC000688803089C880308A88803086C88030890
:103CD000F0890308FC890308088A0308B4880308EC
:103CE000F88803084489030884890308BC89030809
:103CF0008087030870B58AB006460C4604AD5E495D
:103D0000284611F053FE0023009395E80C0094E838
:103D1000030012F073F800283DD00022039203A99B
:103D2000564808F0E1FA0398421E40F2FE339A42E8
:103D300029D801210844FFF797FE0446B8B10121B4
:103D40004E4808F00FFB0546039A214608F03AFB5F
:103D5000284608F02BFB0094494B4A4AC8213046BC
:103D600011F09AFC204608F0D9F90AB070BD464916
:103D70000320FEF769FB454B424A4FF4FA71304687
:103D800011F08AFCF1E7424B3E4A4FF4FA7130469B
:103D900011F082FCE9E706AD3E49284611F006FE27
:103DA0000023009395E80C0094E8030012F026F835
:103DB000002858D003AB384A04F5007103C910F04D
:103DC000ADFA002834DB354A04F5007494E80300AA
:103DD00012F0DCFE044600283DD008AD014628461E
:103DE00011F0E4FD06F11C0295E8030013F002FD5A
:103DF000002825DB214D284608F022FB0221284619
:103E000008F0B0FA05462046FCF74AFA421C214663
:103E1000284608F0E3FA284608F0C8FA204B194A69
:103E2000C821304611F038FC204608F077F99CE7AD
:103E30001C4B144A4FF4C871304611F02DFC94E726
:103E4000194B104A4FF4C871304611F025FC20463A
:103E500008F064F989E7154B0A4A4FF4C8713046F7
:103E600011F01AFC81E7124B064A40F295113046D8
:103E700011F012FC79E700BF40800308807F03083F
:103E8000A08A030890800308448A0308788A0308FC
:103E9000CC8A03086081030868880308008B030844
:103EA000488B03086C880308108B03089C8B03085D
:103EB000E48B03082DE9F04FC7B081468A46722291
:103EC0008E4927A81AF018FA01211E20FFF7CCFD11
:103ED000064601212E20FFF7C7FD074601212E20AF
:103EE000FFF7C2FD804601214FF44070FFF7BCFD93
:103EF000044601214FF4C070FFF7B6FD0546002EC1
:103F000000F0E380002F00F0E080B8F1000F00F037
:103F1000DC80002C00F0D980002800F0D6800DF560
:103F2000887B7749584611F041FD002300939BE8B8
:103F30000C009AE8030011F061FF002800F0BD803A
:103F400001F0C0FC824658B390F8AC3013F0200F5B
:103F50002CD190F8AD3013F0200F2DD01E226949DE
:103F6000304618F094FCDFF8C4B10AF1080300935E
:103F70005B46654A2E21404610F07AFE0AF11C038A
:103F800000935B46604A2E21384610F071FE2046B1
:103F9000FCF786F95D4B1B8823524FF0010A28E09D
:103FA0001E225B49304618F072FCF0E71E22594988
:103FB000304618F06CFCD6E71E225749304618F000
:103FC00066FCD0E75FFA8AF30122802107A802F09D
:103FD0007BF907A9204618F01BFC2046FCF760F986
:103FE000034621184D4A1068E05013790B710AF10D
:103FF000010ABAF1030FE5DD4FF0010A07E02046A0
:10400000FCF74EF9414B1B8823520AF1010ABAF121
:10401000030F18DC5FFA8AF30222802107A802F05E
:1040200053F907A9204618F0F3FBBAF1020FE6DCBA
:104030002046FCF735F903462118384A1068E0504D
:1040400013790B71E1E72846FCF72AF92F4B1B88FF
:104050002B524FF0010A07E02846FCF721F92B4BC1
:104060001B882B520AF1010ABAF1030F18DC5FFA20
:104070008AF30222802107A802F00CF907A928463A
:1040800018F0C6FBBAF1020FE6DC2846FCF708F987
:1040900003462918214A1068E85013790B71E1E7AB
:1040A000049503940297CDF80480009627AB1C4A30
:1040B000C821484611F0F0FA0EE01A4B184A40F2B7
:1040C0009511484611F0E8FA06E0174B144A4FF4F0
:1040D000FA71484611F0E0FA304608F01FF8384609
:1040E00008F01CF8404608F019F8204608F016F8C9
:1040F000284608F013F847B0BDE8F08FA48C0308F9
:1041000040800308448C0308588C03085C8C030827
:10411000B8BE0308388C03084C8C0308608C030875
:104120009080030880870308688C0308757702086D
:10413000F0B58DB007460C46154608AE234930460B
:1041400011F034FC0023009396E80C0094E803007F
:1041500011F054FE18B300230293039304930593C4
:10416000069307931A4B02931A4B079345B1012DFF
:104170000ED002AB184A2146384611F0FBFF05E08D
:1041800002AB154A2146384611F0F4FF0DB0F0BDE0
:1041900002AB124A2146384611F0ECFFF6E70AADB1
:1041A0000F49284611F002FC0023009395E80C000B
:1041B00094E8030011F022FE0028E7D1094B0A4AD7
:1041C00040F29511384611F067FADFE740800308A6
:1041D00020950308A0000020307D0308407D0308DF
:1041E00060810308188D030890800308F8B5044621
:1041F0000D4616460B4F3B6A984702222146384629
:104200000FF0A2FF04467B69A92206FB02F22946B1
:104210000068984720460FF0B0FF03490120FEF7E1
:1042200013F9F8BDA0000020708D03082DE9F041BE
:10423000AEB006460C4626ADBD49284611F0B6FB89
:104240000023009395E80C0094E8030011F0D6FDDC
:10425000002843D128ADB749284611F0A7FB002319
:10426000009395E80C0094E8030011F0C7FD0028C6
:1042700000F0FB8003ABB04A04F5007103C910F0F5
:104280004DF80028C0F28980AC4A04F5007494E827
:10429000030012F07BFC0546A94A94E8030012F0E3
:1042A00075FC0746002D00F0D280002800F0CF807A
:1042B0002B78002B00F0CB800378002B00F0C78018
:1042C0000024092C7FDC2946A9209E4B00FB0430EA
:1042D000FBF786FF002868D00134F2E701214FF494
:1042E0008060FFF7C1FB07460121A020FFF7BCFB60
:1042F0008046002F3DD000283BD0934B07CB386041
:104300007960BA601B783B7300240C2508E04346B3
:104310008E4AC5F58061781918F048F805440134D3
:10432000092C18DCA92204FB02F2864B9A5C002AB5
:10433000F5D0A92202FB0433854AA021404618F09B
:1043400035F80C2DE3D9834AC5F58061781918F04A
:104350002DF80544DBE7804AC5F58061781918F02F
:1043600025F80097794B7D4AC821304611F094F921
:104370000AE07B490320FEF767F87A4B774A4FF44F
:10438000FA71304611F088F9384607F0C7FE40460A
:1043900007F0C4FE2EB0BDE8F081734B6F4A4FF4B6
:1043A000C871304611F078F9F4E7704B6B4A4FF45E
:1043B000C871304611F070F9284607F0AFFE384654
:1043C00007F0ACFEE6E72922002104A818F018FA4D
:1043D0000FA811F039FA3846FBF762FF024639465A
:1043E0000FA811F04BFA0FA904A811F081FA0023CD
:1043F000092B24DCA92203FB02F252498A5C0AB190
:104400000133F5E7A92202FB03F488467F222946FF
:1044100008EB040018F03BFA04F18000282204A9FC
:10442000404418F034FA0A2241465148FFF7DEFEB4
:10443000504B4A4AC821304611F02EF90EE04E4B3F
:10444000464A4FF4C871304611F026F906E04B4B4E
:10445000424A4FF4C871304611F01EF9284607F061
:104460005DFE384607F05AFE94E72AAD44492846D7
:1044700011F09CFA0023009395E80C0094E80300E7
:1044800011F0BCFC38BB2CAD3E49284611F08EFA29
:104490000023009395E80C0094E8030011F0AEFCB3
:1044A000002800F0F680254A04F5007494E8030023
:1044B00012F06CFB074618B10378002B40F0D28055
:1044C000314B264A4FF4C871304611F0E5F83846B2
:1044D00007F024FE5EE703AB174A04F5007103C939
:1044E0000FF01CFF002853DB144A04F5007494E815
:1044F000030012F04BFB0546114A94E8030012F04A
:1045000045FB04462DB120B12B7813B10378002B65
:1045100048D11E4B114A4FF4C871304611F0BCF817
:10452000284607F0FBFD204607F0F8FD32E700BF04
:10453000408003086081030868880308B08D030881
:10454000B88D030860230020888D0308C4BE0308CB
:10455000988D0308A88D0308AC8D0308908003088C
:10456000448A0308788A03086C880308C08D03080E
:10457000707B0308FC8D0308388E03086C8E0308DB
:10458000AC8E0308688F030804900308248F030887
:10459000444B454A4FF4C871304611F07DF8002471
:1045A0002546BDE72922002104A818F029F90FA803
:1045B00011F04AF92046FBF773FE024621460FA888
:1045C00011F05CF90FA904A811F092F90027092F46
:1045D00025DC2946A920354B00FB0730FBF700FE00
:1045E00008B10137F3E7A92303FB07F707F18000C0
:1045F000DFF8B880282204A9404418F048F947445D
:10460000002387F8A8300A2241462948FFF7EEFD2B
:10461000284B254AC821304611F03EF880E7264B4A
:10462000214A4FF4CA71304611F036F878E78022FB
:104630000021284618F0E4F8A92303FB04F0803099
:104640001A4C29220021204418F0DAF80A222146C7
:104650001748FFF7CBFD194B134AC821304611F01C
:104660001BF834E70124092C0BDCA9230F4D03FBB5
:10467000045539462846FBF7B3FD0028D7D001344E
:10468000F1E70F4B084A4FF4C871304611F004F8B7
:104690001DE70C4B044A40F29511304610F0FCFF28
:1046A00078E600BF6C880308908003086023002030
:1046B000707B0308B08E0308F48E0308708F030824
:1046C000B08F03084490030870B50E4614460122CB
:1046D00001460E480FF038FD88B105460B4B1B69AB
:1046E000A92204FB02F231460068984728460FF0E1
:1046F00044FD07490120FDF7A7FE012070BD0549D3
:104700000320FDF7A1FE0020F8E700BFA000002075
:10471000C0900308A490030870B586B005460C4607
:1047200004AE1549304611F041F90023009396E894
:104730000C0094E8030011F061FBA0B1EB6F186866
:10474000002302930D4B0193012300934FF4FA626F
:10475000002312F023FB0A4B0A4AC821284610F016
:104760009BFF06B070BD084B064A40F295112846E3
:1047700010F092FFF5E700BF60810308597501084A
:10478000DC90030890800308E881030870B584B0CA
:1047900005460C4602AE1449304611F007F90023D5
:1047A000009396E80C0094E8030011F027FB98B101
:1047B0000E4BDB690E490F48984728B12146284621
:1047C000FFF7AAFF04B070BD0B4B0C4A4FF4FA710F
:1047D000284610F061FFF5E7094B084A40F29511B1
:1047E000284610F059FFEDE760810308A000002083
:1047F000287B0308149103082C9103089080030878
:10480000E881030870B58CB005460C460AAE1C4919
:10481000304611F0CBF80023009396E80C0094E8A2
:10482000030011F0EBFA10B3FCF70CFD10EE104A88
:10483000FCF7C2FC10EE100AFBF79EFECDE9080162
:104840002046FBF799FECDE906010E4B04930E4B73
:1048500003930E4B02930E4B01930E4B00930E4BA2
:104860000E4AC821284610F017FF0CB070BD0C4B43
:104870000A4A40F29511284610F00EFFF5E700BFF6
:10488000408003080C920308209203082C9203082E
:104890000C810308107D03087091030890800308C1
:1048A0001081030870B5C4B006460C4642AD2049DD
:1048B000284611F07BF80023009395E80C0094E85B
:1048C000030011F09BFA50B37B2323AA194904F586
:1048D000007011F058FF002819DD23AB164A802123
:1048E00003A817F063FD154B5B6A03A8984730B126
:1048F000134B144AC821304610F0CEFE16E0124B7E
:10490000104A4FF4FA71304610F0C6FE0EE00F4B1D
:104910000C4A4FF4C871304610F0BEFE06E00C4B56
:10492000084A40F29511304610F0B6FE44B070BD12
:1049300060810308349203083C920308A000002021
:10494000449203089080030878920308B492030805
:10495000E881030870B5A4B005460C4622AE1C4998
:10496000304611F023F80023009396E80C0094E8F9
:10497000030011F043FA08B3802302AA154904F199
:10498000100011F000FF144902A8FBF729FC58B9E8
:10499000124B0093124B134A2146284613F0CEFCCB
:1049A000012006F09FFC10E00B4B00930E4B0F4ACA
:1049B0004FF4C871284610F06FFE06E00C4B0B4A0E
:1049C00040F29511284610F067FE24B070BD00BF7C
:1049D0006081030814BE0308F092030890D003001E
:1049E0001C7B0308A00000200093030890800308AC
:1049F000E8810308F0B597B004460E4601214FF454
:104A00008060FFF731F8054650B101222146284861
:104A10000FF09AFB044640B168460FF0A9FF10E082
:104A200007F07CFB4FF0FF3040E00FF0A6FB28467C
:104A300007F074FB6FF0010038E0294668460FF07C
:104A4000ADFF1B4B1B694FF48062294620689847D5
:104A500002460028F1D120460FF08FFB01211020E3
:104A6000FFF702F8074628B1014668460FF0EDFF50
:104A7000002412E0284607F051FB384607F04EFBB1
:104A80004FF0FF3012E061003B5D0A4AC1F12101A5
:104A900006EB440017F08AFC01340F2CF3DD2846A6
:104AA00007F03CFB384607F039FB002017B0F0BD9B
:104AB000A00000204C93030870B584B005460C4656
:104AC00002AE1949304610F071FF0023009396E8BA
:104AD0000C0094E8030011F091F9E8B101212120C4
:104AE000FEF7C2FF044601461048FFF783FF58B99E
:104AF00000940F4B0F4AC821284610F0CDFD2046E8
:104B000007F00CFB04B070BD0B4B0A4A4FF4CA719E
:104B1000284610F0C1FDF2E7084B064A40F2951115
:104B2000284610F0B9FDEDE7408003081491030812
:104B300054930308908003087893030810810308B6
:104B40000B2900D07047F0B5B5B0054614460022D9
:104B50002146FEF7B9FD074608AEAF49304610F0D2
:104B600025FF0023009396E80C0094E8030011F061
:104B700045F920B12846FEF739FC35B0F0BD0AAE44
:104B8000A649304610F012FF0023009396E80C006F
:104B900004F1080103C911F031F900B1BFB10CAE45
:104BA0009F49304610F002FF0023009396E80C0066
:104BB00004F1080103C911F021F980B199490120DC
:104BC000FDF742FC21462846FEF768FED5E7964BE6
:104BD000964A40F29311284610F05EFDCDE70EAEE6
:104BE0009349304610F0E2FE0023009396E80C0053
:104BF00004F1080103C911F001F940B18D49012008
:104C0000FDF722FC21462846FEF7A8FCB5E710AECA
:104C10008949304610F0CAFE0023009396E80C0044
:104C200004F1080103C911F0E9F838B18349012002
:104C3000FDF70AFC2846FEF745FE9EE712AE8049C6
:104C4000304610F0B3FE0023009396E80C0004F108
:104C5000080103C911F0D2F840B17A490120FDF7EB
:104C6000F3FB21462846FEF74DFE86E714AE764953
:104C7000304610F09BFE0023009396E80C0004F1F0
:104C8000080103C911F0BAF840B170490120FDF7DD
:104C9000DBFB21462846FEF7F5FE6EE716AE6C49B3
:104CA000304610F083FE0023009396E80C0004F1D8
:104CB000080103C911F0A2F840B166490120FDF7CF
:104CC000C3FB21462846FFF715F856E718AE6249A0
:104CD000304610F06BFE0023009396E80C0004F1C0
:104CE000080103C911F08AF840B15C490120FDF7C1
:104CF000ABFB21462846FFF7DDF83EE71AAE5849E0
:104D0000304610F053FE0023009396E80C00E16853
:104D1000A06811F073F848B152490120FDF794FBE7
:104D2000002221462846FFF703FA26E71CAE4E492B
:104D3000304610F03BFE0023009396E80C00E1683B
:104D4000A06811F05BF848B148490120FDF77CFBF1
:104D5000012221462846FFF7EBF90EE71EAE444933
:104D6000304610F023FE0023009396E80C00E16823
:104D7000A06811F043F840B13E490120FDF764FB03
:104D800021462846FFF752FAF7E620AE3A49304668
:104D900010F00CFE0023009396E80C00E168A06878
:104DA00011F02CF840B135490120FDF74DFB2146AB
:104DB0002846FFF7B1FCE0E622AE3149304610F05C
:104DC000F5FD0023009396E80C00E168A06811F05F
:104DD00015F840B12B490120FDF736FB2146284646
:104DE000FEF710FBC9E624AE2749304610F0DEFD81
:104DF0000023009396E80C00E168A06810F0FEFF25
:104E0000002845D021490120FDF71EFB21462846F8
:104E1000FFF7F8FCB1E600BFB8930308C09303089E
:104E2000D8930308E4930308C8930308848603080F
:104E3000F8930308049403081C9403082C940308B3
:104E40004894030858940308709403088494030852
:104E5000A0940308B0940308CC940308E0940308DA
:104E6000FC9403080C950308289503083C95030857
:104E70005C950308709503088C950308A0950308BA
:104E8000C0950308D4950308F49503080896030811
:104E900026AE5049304610F089FD0023009396E875
:104EA0000C00E168A06810F0A9FF20B12146284657
:104EB000FFF750FD61E628AE4749304610F076FD19
:104EC0000023009396E80C00E168A06810F096FFBC
:104ED00040B142490120FDF7B7FA21462846FFF7C5
:104EE000EBFD4AE62AAE3E49304610F05FFD002356
:104EF000009396E80C00E168A06810F07FFF40B1D5
:104F000038490120FDF7A0FA21462846FFF73EFC6C
:104F100033E62CAE3449304610F048FD00230093B0
:104F200096E80C00E168A06810F068FF20B1214607
:104F30002846FEF7A1FA20E62EAE2C49304610F0A6
:104F400035FD0023009396E80C00E168A06810F09E
:104F500055FF20B121462846FEF7CAFA0DE630AECD
:104F60002349304610F022FD0023009396E80C0000
:104F7000E168A06810F042FF40B11E4B00931E4B49
:104F80001E4A2146284613F0D9F9F6E532AE1C49EF
:104F9000304610F00BFD0023009396E80C00E1680A
:104FA000A06810F02BFF20B121462846FFF77AFCBD
:104FB000E3E5002302930393049305930693079379
:104FC0000D4B02930D4B079302AA2146284613F07E
:104FD000D3F8D2E5249603083C96030850960308BC
:104FE0006C96030880960308A0960308BC960308F5
:104FF000D896030860E31600147B0308A000002085
:10500000F496030808B50A2202490348FFF75CFB3F
:10501000024808BD60230020707B0308414B010853
:10502000014B1860704700BFFC29002008B5044BF5
:105030001B7803B908BD034B186813F0A5FDF9E709
:105040000C2A00202C2A00201B4B1B6803B1704740
:1050500030B585B019490120FDF7F6F9184C40220A
:105060000021204617F0CCFB02AD164B19682846EC
:1050700010F09CFC95E8030084E80300124B1968CB
:10508000284610F093FC04F1080395E8030083E838
:1050900003003C236385012384F82F300023009311
:1050A0000A4B22460A4909680A48006815F002FAC4
:1050B000014B186005B030BD2C2A00201097030862
:1050C000302A0020842A0020802A00200558010868
:1050D000882A0020742A00202DE9F04F85B08146EF
:1050E000884692462A4C00F108030093294B2A4A2D
:1050F000282120680FF0BCFD24682046FBF7D0F87B
:105100000146204600F004FD00263BE008EBC60304
:1051100018F836401D79214F2B46224680213868E9
:1051200000F014FDDFF880B02B4622464FF41671D4
:10513000DBF8000000F0E4FD194D02AC39682046B0
:1051400010F034FC05F1180394E8030083E8030031
:10515000DBF80010204610F029FC05F1200394E84C
:10516000030083E80300012485F8284085F82E40D9
:105170002946484613F00EFF3A680A492046FDF7D3
:1051800063F926445645C1D305B0BDE8F08F00BF92
:10519000282A002059770208588C03087C2A00200E
:1051A000302A002030970308782A002038B501FB08
:1051B00000F4204606F030FF054618B122460021D3
:1051C00017F01EFB284638BD2DE9F04F2DED028B60
:1051D00085B0019001214FF41670FFF7E7FF0646F6
:1051E00001218020FFF7E2FF0546FCF72BF8F0EEE7
:1051F000408AFBF7E1FFB0EE408A3A490020FDF714
:1052000023F9002309228021284601F05DF8DFF808
:10521000E8B02A4659460020FDF716F9B0EE680AB4
:105220003149304601F0A0F8324630490020FDF700
:105230000BF92F4F02AC2946204610F0B7FB07F1BF
:10524000180A94E803008AE803003146204610F06B
:10525000ADFB07F1200994E8030089E803004FF053
:10526000000887F8288087F82E803946019813F0C7
:1052700091FE43460A228021284601F025F82A465D
:1052800059464046FDF7E0F8B0EE480A1949304665
:1052900001F06AF8324615494046FDF7D5F829462F
:1052A000204610F083FB94E803008AE803003146AF
:1052B000204610F07BFB94E8030089E8030087F8A0
:1052C000288087F82E803946019813F063FE304617
:1052D00006F024FF284606F021FF05B0BDEC028B46
:1052E000BDE8F08F5497030884970308909703084C
:1052F000302A00209C9703087897030808B50749CF
:105300000020FDF7A1F8064B186810B1054B1B787B
:1053100003B908BDFFF758FFFBE700BFAC970308D0
:105320002C2A00200C2A00202DE9F04387B00746E4
:105330000C46584D2B680022012104A898472B6881
:10534000002202210DF1130098470322524904A8BC
:1053500017F02CFA48B9032250490DF1130017F049
:1053600025FA10B9002C00F091804B4B06AA12E9E7
:1053700003001860998001214FF41670FFF716FFA3
:10538000064601218020FFF711FF0546002238E084
:1053900002F101085FFA88F802F118030DEB03022D
:1053A00012F8083C0093434601224FF41671304630
:1053B00000F048FF434601228021284600F084FF88
:1053C000DFF8DC9002AC2946204610F0EFFA09F134
:1053D000180394E8030083E803003146204610F0E8
:1053E000E5FA09F1200394E8030083E803000023B1
:1053F00089F8283089F82E304946384613F0CAFD1E
:105400004246022AC4D9002238E002F101085FFABC
:1054100088F802F118030DEB030212F8053C009323
:10542000434602224FF41671304600F00BFF43460C
:1054300002228021284600F047FFDFF8649002AC8A
:105440002946204610F0B2FA09F1180394E8030047
:1054500083E803003146204610F0A8FA09F1200342
:1054600094E8030083E80300002389F8283089F8D2
:105470002E304946384613F08DFD4246022AC4D9E3
:10548000304606F04BFE284606F048FE07B0BDE861
:10549000F08300BF082A0020002A0020032A0020F1
:1054A000302A002008B5054B186810B1044B1B7852
:1054B00003B908BD0021FFF737FFFAE72C2A0020C7
:1054C0000C2A002008B5054B1B7803B908BD012143
:1054D000034B1868FFF728FFF8E700BF0C2A0020ED
:1054E0002C2A00202DE9F04F83B081460D46164648
:1054F000002400E00134B4422ED205EBC40855F874
:105500003430022BF6D101218020FFF74FFE0746F1
:1055100098F804300222802100F0BCFEDFF84480BD
:105520004FF0010B88F828B0EA463946504610F093
:105530003DFA08F118039AE8030083E803004146A6
:10554000484613F0D9FC3A4605495846FCF77CFF1B
:10555000384606F0E3FDCDE703B0BDE8F08F00BFAD
:10556000DC970308302A00202DE9F04387B00023A0
:105570000393076845688468C668ACB1A7B105B1F4
:105580000EBB8C490320FCF75FFF8B4B1B68002B85
:1055900040F30181894BCA228949012012F090F918
:1055A000884810F025F8F6E0834B1B68002B40F389
:1055B000F280824BC4228249012012F081F9824894
:1055C00010F016F8E7E001217018FFF7EFFD8146B3
:1055D00001216818FFF7EAFD804632462146484619
:1055E00017F055F92A463946404617F050F9774BDF
:1055F0001B680022022105A89847059BADF81030D2
:105600001B0C8DF812307249404617F079F90028CA
:1056100000F0B28003AA6F4916F020FF012809D0DC
:10562000654B1B68002B00F39D806B490320FCF742
:105630000BFFAAE0604B1B68012B19DCCDF8009032
:10564000039B424665490120FCF7FEFE039C631E56
:10565000022B19D8022E34D0032E55D0564B1B687E
:10566000002B74DC4A465E490320FCF7EDFE8CE01B
:10567000524BDD225249022012F022F94246039990
:1056800058480FF0B5FFD9E74B4B1B68002B0CDCDB
:10569000039B032254491046FCF7D6FE484606F009
:1056A0003DFD404606F03AFD75E0444BE222444998
:1056B000012012F005F9039A03214B480FF098FFDF
:1056C000E6E702224949484617F0CFF80028C3D13F
:1056D00004F117036B44012203F8082C364B1B68B6
:1056E000934206DC394B1B680122022104A898472B
:1056F0004BE0324BEF223249022012F0E1F80399DD
:105700003B480FF075FFEDE703223A49484617F092
:10571000ACF80028A2D104F117036B44002203F86F
:10572000082C254B1B68012B06DC284B1B6801222B
:10573000022104A8984728E0204BF32220490220A8
:1057400012F0BEF803992C480FF052FFEDE71B4B07
:10575000F7221B49012012F0B3F8494620480FF008
:1057600047FF7FE7154BFC221549012012F0A8F8EE
:1057700022480FF03DFF58E70F4B1B68002B0DDC54
:1057800042461F490320FCF75FFE484606F0C6FC70
:10579000404606F0C3FC07B0BDE8F083074B4FF46A
:1057A00080720749012012F08BF8414614480FF02F
:1057B0001FFFE5E7689803083C010020F8970308FD
:1057C000189803089098030844980308082A0020B2
:1057D000BC980308C4980308309A0308FC9803088F
:1057E000BC990308D09803083C9903088C990308D6
:1057F00090990308A4990308A8990308F899030845
:10580000689A030870B510293AD0054611290BD0C3
:10581000092942D121490120FCF716FE0023204A24
:105820001360204A137038E01F4B1B68022B1CDCEE
:105830001E490120FCF708FE194B1D60194B1B780F
:105840005BBB1B4E082231462846FFF745FC144C33
:1058500001212068FFF768FD082231462068FFF724
:1058600041FE104B01221A7017E0124B40F2171242
:105870001149032012F024F810480FF0B9FED7E7C1
:1058800014460F490120FCF7DFFD2046FFF76CFEB0
:105890000021034B1868FFF747FD70BD009B03080C
:1058A0002C2A00200C2A00203C010020C49A030866
:1058B000C8000020989A030818980308AC9A0308B7
:1058C000DC9A0308014B1868704700BF2C2A00209F
:1058D0002DE9F04786B007460D4692461C46012149
:1058E0008020FFF763FCDFF8B091C9F800000121C8
:1058F0002120FFF75BFCDFF8A481C8F8000001213C
:105900002120FFF753FC4E4E306001218020FFF72D
:105910004DFC4C4B186001214FF41670FFF746FC0C
:10592000494B186001212820FFF740FC474B1860C5
:105930000F9A474B1A605146D9F8000018F0AAFC9C
:105940002146D8F8000018F0A5FC0E99306818F030
:10595000A1FC404C2760404B1D600621284600F00A
:10596000ADF83E4F04ADD8F80010284610F01EF8F0
:1059700095E8030087E803003168284610F016F820
:1059800007F1080395E8030083E803003C237B85C7
:10599000012687F82F60D8F80030D9F80020304968
:1059A0003046FCF751FD002502952E4B01934FF038
:1059B0000308CDF8008042F210720023206811F035
:1059C000EDF9294B18600295284B01930096284A5F
:1059D0000023206811F0E2F9264B18600295264B4F
:1059E000019300964FF4FA720023206811F0D6F963
:1059F000224B18600295224F0197CDF80080214A72
:105A00000023206811F0CAF91F4B18600295019716
:105A1000009544F620620023206811F0BFF91B4B6B
:105A2000186002951A4B0193009642F6E06200233B
:105A3000206811F0B3F9174B186006B0BDE8F08785
:105A4000802A00207C2A0020782A0020282A002092
:105A5000082A0020742A0020702A0020302A002002
:105A6000189B030849500108242A0020C554010846
:105A7000E0930400202A0020A55401081C2A0020DD
:105A8000FD520108804F1200182A0020142A00201D
:105A90002D500108102A0020882A0020842A002086
:105AA00038B501FB00F4204606F0B6FA054618B1F9
:105AB0002246002116F0A4FE284638BD70B50646E1
:105AC0000D46104B186808B106F028FB680001214C
:105AD0000844FFF7E5FF0B4B186008B100240BE00A
