:020000040801F1
:100000000000022005230108192201081B22010813
:100010001D2201081F220108212201080000000002
:1000200000000000000000000000000061980108CE
:10003000232201080000000001990108C17601088F
:1000400055230108552301085523010855230108AC
:10005000552301085523010855230108552301089C
:10006000552301085523010855230108552301088C
:10007000552301085523010855230108552301087C
:1000800055230108552301085523010800000000ED
:1000900000000000000000000000000055230108DF
:1000A000252201085523010855230108552301087D
:1000B000552301085523010855230108552301083C
:1000C000552301085523010855230108552301082C
:1000D000552301085523010855230108000000009D
:1000E000552301085523010855230108000000008D
:1000F000000000000000000000000000552301087F
:10010000000000005523010855230108552301086C
:1001100000000000000000000000000000000000DF
:1001200055230108552301085523010855230108CB
:10013000552301080000000000000000000000003E
:10014000000000000000000000000000552301082E
:10015000552301085523010855230108552301089B
:10016000552301085523010800000000000000008D
:10017000000000000000000000000000000000007F
:1001800000000000552301080000000000000000EE
:08019000552301085523010865
:1001A00010B5054C237833B9044B13B10448AFF3B1
:1001B00000800123237010BDE8070020000000002C
:1001C0000C4E030808B5034B1BB103490348AFF3BA
:1001D000008008BD00000000EC0700200C4E030862
:1001E00010F8012B11F8013B012A28BF9A42F7D0E1
:1001F000D01A70470000000000000000000000005E
:1002000001F0FF01102A2BDB10F0070F08D010F8C7
:10021000013B013A8B422DD010F0070F42B3F6D1CB
:10022000F0B441EA012141EA014122F007047FF0E4
:1002300000070023F0E80256083C85EA010586EA3B
:10024000010685FA47F5A3FA87F586FA47F6A5FA77
:1002500087F68EB9EED1F0BC01F0FF0102F0070283
:1002600032B110F8013B013A83EA010313B1F8D12E
:100270000020704701387047002D06BF354603380F
:10028000073815F0010F07D1013015F4807F02BF48
:10029000013015F4C03F0130F0BC0138704700BF99
:1002A000034613F8012B002AFBD1181A01387047B6
:1002B00081F0004102E000BF83F0004330B54FEA17
:1002C00041044FEA430594EA050F08BF90EA020F84
:1002D0001FBF54EA000C55EA020C7FEA645C7FEA17
:1002E000655C00F0E2804FEA5454D4EB5555B8BF3A
:1002F0006D420CDD2C4480EA020281EA030382EAAB
:10030000000083EA010180EA020281EA0303362D3C
:1003100088BF30BD11F0004F4FEA01314FF4801C0F
:100320004CEA113102D0404261EB410113F0004F21
:100330004FEA03334CEA133302D0524263EB4303D8
:1003400094EA050F00F0A780A4F10104D5F1200E76
:100350000DDB02FA0EFC22FA05F2801841F10001D1
:1003600003FA0EF2801843FA05F359410EE0A5F1A5
:1003700020050EF1200E012A03FA0EFC28BF4CF0D6
:10038000020C43FA05F3C01851EBE37101F000458C
:1003900007D54FF0000EDCF1000C7EEB00006EEB99
:1003A0000101B1F5801F1BD3B1F5001F0CD3490823
:1003B0005FEA30004FEA3C0C04F101044FEA44527A
:1003C00012F5800F80F09A80BCF1004F08BF5FEA01
:1003D000500C50F1000041EB045141EA050130BDE1
:1003E0005FEA4C0C404141EB0101013C28BFB1F5F3
:1003F000801FE9D291F0000F04BF01460020B1FA3E
:1004000081F308BF2033A3F10B03B3F120020CDA10
:100410000C3208DD02F1140CC2F10C0201FA0CF0EE
:1004200021FA02F10CE002F11402D8BFC2F1200C53
:1004300001FA02F120FA0CFCDCBF41EA0C01904009
:10044000E41AA2BF01EB0451294330BD6FEA040452
:100450001F3C1CDA0C340EDC04F11404C4F120023D
:1004600020FA04F001FA02F340EA030021FA04F34F
:1004700045EA030130BDC4F10C04C4F1200220FAA6
:1004800002F001FA04F340EA0300294630BD21FAE4
:1004900004F0294630BD94F0000F83F4801306BFAA
:1004A00081F480110134013D4EE77FEA645C18BF9E
:1004B0007FEA655C29D094EA050F08BF90EA020F35
:1004C00005D054EA000C04BF1946104630BD91EA2D
:1004D000030F1EBF0021002030BD5FEA545C05D130
:1004E0004000494128BF41F0004130BD14F580046F
:1004F0003CBF01F5801130BD01F0004545F0FE41E3
:1005000041F470014FF0000030BD7FEA645C1ABF17
:10051000194610467FEA655C1CBF0B46024650EA4E
:10052000013406BF52EA033591EA030F41F400217A
:1005300030BD00BF90F0000F04BF0021704730B500
:100540004FF4806404F132044FF000054FF00001D5
:1005500050E700BF90F0000F04BF0021704730B596
:100560004FF4806404F1320410F0004548BF40426B
:100570004FF000013EE700BF42004FEAE2014FEAC0
:1005800031014FEA02701FBF12F07F4393F07F4F9B
:1005900081F06051704732F07F4208BF704793F09E
:1005A0007F4F04BF41F40021704730B54FF46074B1
:1005B00001F0004521F000411CE700BF50EA0102B4
:1005C00008BF704730B54FF000050AE050EA01025D
:1005D00008BF704730B511F0004502D5404261EBCD
:1005E00041014FF4806404F132045FEA915C3FF40E
:1005F000D8AE4FF003025FEADC0C18BF03325FEAAB
:10060000DC0C18BF033202EBDC02C2F1200300FA5B
:1006100003FC20FA02F001FA03FE40EA0E0021FA80
:1006200002F11444BDE600BF70B54FF0FF0C4CF46E
:10063000E06C1CEA11541DBF1CEA135594EA0C0F20
:1006400095EA0C0F00F0DEF82C4481EA030621EA5B
:100650004C5123EA4C5350EA013518BF52EA033596
:1006600041F4801143F4801338D0A0FB02CE4FF048
:100670000005E1FB02E506F00042E0FB03E54FF078
:100680000006E1FB03569CF0000F18BF4EF0010E70
:10069000A4F1FF04B6F5007F64F5407404D25FEA6C
:1006A0004E0E6D4146EB060642EAC62141EA55511F
:1006B0004FEAC52040EA5E504FEACE2EB4F1FD0C61
:1006C00088BFBCF5E06F1ED8BEF1004F08BF5FEADF
:1006D000500E50F1000041EB045170BD06F0004691
:1006E00046EA010140EA020081EA0301B4EB5C043E
:1006F000C2BFD4EB0C0541EA045170BD41F4801136
:100700004FF0000E013C00F3AB8014F1360FDEBF5A
:10071000002001F0004170BDC4F10004203C35DA36
:100720000C341BDC04F11404C4F1200500FA05F3B9
:1007300020FA04F001FA05F240EA020001F000425A
:1007400021F0004110EBD37021FA04F642EB0601D0
:100750005EEA430E08BF20EAD37070BDC4F10C04FA
:10076000C4F1200500FA04F320FA05F001FA04F2BE
:1007700040EA020001F0004110EBD37041F10001AA
:100780005EEA430E08BF20EAD37070BDC4F12005B5
:1007900000FA05F24EEA020E20FA04F301FA05F21D
:1007A00043EA020321FA04F001F0004121FA04F2C5
:1007B00020EA020000EBD3705EEA430E08BF20EA95
:1007C000D37070BD94F0000F0FD101F000464000CF
:1007D00041EB010111F4801F08BF013CF7D041EA51
:1007E000060195F0000F18BF704703F00046520055
:1007F00043EB030313F4801F08BF013DF7D043EA26
:100800000603704794EA0C0F0CEA135518BF95EADB
:100810000C0F0CD050EA410618BF52EA4306D1D162
:1008200081EA030101F000414FF0000070BD50EA81
:10083000410606BF1046194652EA430619D094EA0B
:100840000C0F02D150EA013613D195EA0C0F05D1F5
:1008500052EA03361CBF104619460AD181EA030149
:1008600001F0004141F0FE4141F470014FF0000001
:1008700070BD41F0FE4141F4780170BD70B54FF09C
:10088000FF0C4CF4E06C1CEA11541DBF1CEA13551C
:1008900094EA0C0F95EA0C0F00F0A7F8A4EB0504FE
:1008A00081EA030E52EA03354FEA013100F08880F5
:1008B0004FEA03334FF0805545EA131343EA1263BE
:1008C0004FEA022245EA111545EA10654FEA002673
:1008D0000EF000419D4208BF964244F1FD0404F52C
:1008E000407402D25B084FEA3202B61A65EB030588
:1008F0005B084FEA32024FF480104FF4002CB6EB45
:10090000020E75EB030E22BFB61A754640EA0C00C4
:100910005B084FEA3202B6EB020E75EB030E22BF04
:10092000B61A754640EA5C005B084FEA3202B6EB45
:10093000020E75EB030E22BFB61A754640EA9C0004
:100940005B084FEA3202B6EB020E75EB030E22BFD4
:10095000B61A754640EADC0055EA060E18D04FEA92
:10096000051545EA16754FEA06164FEAC30343EA32
:1009700052734FEAC2025FEA1C1CC0D111F4801FFF
:100980000BD141EA00014FF000004FF0004CB6E7F8
:1009900011F4801F04BF01430020B4F1FD0C88BF97
:1009A000BCF5E06F3FF6AFAEB5EB030C04BFB6EBA2
:1009B000020C5FEA500C50F1000041EB045170BD95
:1009C0000EF0004E4EEA113114EB5C04C2BFD4EBC2
:1009D0000C0541EA045170BD41F480114FF0000E46
:1009E000013C90E645EA060E8DE60CEA135594EAC2
:1009F0000C0F08BF95EA0C0F3FF43BAF94EA0C0FC5
:100A00000AD150EA01347FF434AF95EA0C0F7FF439
:100A100025AF104619462CE795EA0C0F06D152EA8D
:100A200003353FF4FDAE1046194622E750EA410671
:100A300018BF52EA43067FF4C5AE50EA41047FF482
:100A40000DAF52EA43057FF4EBAE12E74FF0FF3CE7
:100A500006E000BF4FF0010C02E000BF4FF0010CB8
:100A60004DF804CD4FEA410C7FEA6C5C4FEA430C31
:100A700018BF7FEA6C5C1BD001B050EA410C0CBF80
:100A800052EA430C91EA030F02BF90EA020F0020E2
:100A9000704710F1000F91EA030F58BF994208BF49
:100AA00090422CBFD8176FEAE37040F00100704706
:100AB0004FEA410C7FEA6C5C02D150EA013C07D15D
:100AC0004FEA430C7FEA6C5CD6D152EA033CD3D0A8
:100AD0005DF8040B704700BF8446104662468C46A2
:100AE0001946634600E000BF01B5FFF7B7FF0028D5
:100AF00048BF10F1000F01BD4DF808EDFFF7F4FFFE
:100B00000CBF012000205DF808FB00BF4DF808ED88
:100B1000FFF7EAFF34BF012000205DF808FB00BFAB
:100B20004DF808EDFFF7E0FF94BF012000205DF8CD
:100B300008FB00BF4DF808EDFFF7CEFF94BF012082
:100B400000205DF808FB00BF4DF808EDFFF7C4FF7B
:100B500034BF012000205DF808FB00BF4FEA410CC4
:100B60007FEA6C5C02D150EA013C0AD14FEA430CA7
:100B70007FEA6C5C02D152EA033C02D14FF00000E4
:100B800070474FF0010070474FEA410212F5001222
:100B900015D211D56FF47873B3EB625212D94FEAC4
:100BA000C12343F0004343EA505311F0004F23FAAE
:100BB00002F018BF404270474FF00000704750EA03
:100BC000013005D111F0004008BF6FF000407047C0
:100BD0004FF00000704700BF4A0011D212F500121A
:100BE00011D20DD56FF47873B3EB62520ED44FEA85
:100BF000C12343F0004343EA505323FA02F0704705
:100C00004FF00000704750EA013002D14FF0FF3042
:100C100070474FF0000070474FEA4102B2F1E043E5
:100C200024BFB3F5001CDCF1FE5C0DD901F0004CD3
:100C30004FEAC0024CEA5070B2F1004F40EB830023
:100C400008BF20F00100704711F0804F21D113F14F
:100C50003872BCBF01F00040704741F480114FEA88
:100C60005252C2F11802C2F1200C10FA0CF320FA11
:100C700002F018BF40F001004FEAC1234FEAD3232E
:100C800003FA0CFC40EA0C0023FA02F34FEA430398
:100C9000CCE77FEA625307D150EA01331EBF4FF021
:100CA000FE4040F44000704701F0004040F0FE403C
:100CB00040F40000704700BF7BB972B90029BEBF85
:100CC00000204FF0004106E008BF00281CBF6FF075
:100CD00000414FF0FF3000F0FFB9ADF1080C6DE9B5
:100CE00004CE002909DB002B1ADB00F097F8DDF8B1
:100CF00004E0DDE9022304B07047404261EB4101AA
:100D0000002B1BDB00F08AF8DDF804E0DDE90223AC
:100D100004B0404261EB4101524263EB4303704730
:100D2000524263EB430300F079F8DDF804E0DDE9BB
:100D3000022304B0404261EB41017047524263EB31
:100D4000430300F06BF8DDF804E0DDE9022304B0B2
:100D5000524263EB4303704753B94AB9002908BFB5
:100D600000281CBF4FF0FF314FF0FF3000F0B4B946
:100D7000ADF1080C6DE904CE00F050F8DDF804E0A8
:100D8000DDE9022304B07047430803F05533C01A6D
:100D9000830803F0333300F03330184400EB1010B5
:100DA00000F00F3000EB002000EB0040000E704719
:100DB00038B50022002304460D46FFF7A7FE28B9E8
:100DC00020462946BDE8384000F00AB8204605F123
:100DD000004100F005F8404261EB410138BD00BF21
:100DE000D0B50C4B002206460F46FFF71DFCFFF75F
:100DF000F3FE0446FFF79EFB074B0022FFF714FCAF
:100E000002460B4630463946FFF756FAFFF7E4FE36
:100E10002146D0BD0000F03D0000F0412DE9F04733
:100E2000089D0C46002B4ED194468C458646B2FA5E
:100E300082F262D94AB1C2F12003914020FA03F351
:100E40000CFA02FC194300FA02FE4FEA1C471FFA93
:100E50008CF6B1FBF7F44FEA1E4307FB141143EA8B
:100E6000014304FB06F199420AD91CEB030304F188
:100E7000FF3080F01281994240F20F81023C6344BE
:100E8000591A1FFA8EF3B1FBF7F007FB101143EA72
:100E9000014300FB06F69E420AD91CEB030300F156
:100EA000FF3180F0FC809E4240F2F98063440238BA
:100EB0009B1B40EA044000211DB1D3400022C5E93C
:100EC0000032BDE8F0878B4205D90DB1C5E90001BC
:100ED00000210846F5E7B3FA83F1002946D1A34281
:100EE00002D39042C0F0F080861A64EB0303012025
:100EF000002DE6D0C5E90063E3E7002A40F09080CA
:100F0000A1EB0C044FEA1C481FFA8CF70121B4FB3B
:100F1000F8F64FEA1E4308FB164443EA044307FB76
:100F200006F0984208D91CEB030306F1FF3402D205
:100F3000984200F2CD8026461C1A1FFA8EF3B4FBAD
:100F4000F8F008FB104443EA044300FB07F79F4214
:100F500008D91CEB030300F1FF3402D29F4200F2D8
:100F6000B0802046DB1B40EA0640A5E7C1F1200621
:100F70008B4022FA06F71F4320FA06FC04FA01F31D
:100F800043EA0C03F44000FA01F8380C4FEA134925
:100F9000B4FBF0FE1FFA87FC00FB1E4449EA044440
:100FA0000EFB0CF9A14502FA01F20AD93C190EF127
:100FB000FF3A80F08480A14540F28180AEF1020EBC
:100FC0003C44A4EB09041FFA83F9B4FBF0F300FBE3
:100FD000134449EA044403FB0CFCA44507D93C191B
:100FE00003F1FF3067D2A44565D9023B3C4443EA94
:100FF0000E40A0FB0293A4EB0C049C42CE469C4600
:1010000051D34ED055B1B8EB0E0364EB0C0404FA87
:1010100006F6CB401E43CC40C5E90064002150E7F2
:10102000C2F1200320FA03F10CFA02FC24FA03F3C4
:1010300094400C434FEA1C4800FA02FE1FFA8CF75A
:10104000B3FBF8F008FB1031230C43EA014300FB2B
:1010500007F1994208D91CEB030300F1FF362CD2AB
:1010600099422AD9023863445B1AA4B2B3FBF8F15F
:1010700008FB113344EA034401FB07F3A34208D9F8
:101080001CEB040401F1FF3613D2A34211D902393B
:101090006444E41A41EA004139E70446F0E60846B0
:1010A00006E7C845AED2B9EB020E63EB070C013878
:1010B000A8E73146EDE7034699E73046D4E7D64640
:1010C0007FE7634402384DE70646234608460FE7AC
:1010D000023E634430E700BF704700BF08B50022FE
:1010E0004FF48051014804F044FC08BD0004024064
:1010F00008B501224FF48051014804F03AFC08BDC4
:101100000004024008B500224FF40041014804F0F9
:1011100030FC08BD0000024008B501224FF4004138
:10112000014804F026FC08BD0000024010B58EB056
:10113000484B93E803000C90ADF834100DF1240CEB
:1011400003F1080494E807008CE80700143393E8DF
:1011500003000790ADF8201004AB94E8070083E883
:1011600007006FE000231A4601A93B48006806F01B
:101170007AFC00240EE000220EAB03EB440333F8AC
:10118000081C0EAB03EB840353F8140C04F0F1FBC2
:101190000134E4B2022C5BD804F138036B4413F839
:1011A000343C002BE7D001220EAB03EB440333F8B1
:1011B000081C0EAB03EB840353F8140C04F0D9FBAA
:1011C000E6E70EAB03EB440203EB840332F8081CA2
:1011D00053F8140C04F0C6FB04F138036B4403F815
:1011E000300C0134E4B2022CEBD91C4C206806F020
:1011F00088FC00231A4602A9206806F0F2FB0024AE
:1012000011E00EAB03EB440203EB840332F81C1C29
:1012100053F8280C04F0A6FB04F138036B4403F8E0
:101220002C0C0134E4B2022CEBD90D4C206806F0F2
:1012300068FC00231A4603A9206806F0D2FB0120AF
:1012400006F0D7FA044B186806F04EFC002889D146
:101250000024C8E7284E03081408002018080020BE
:101260001C08002084B008B50DF1080C8CE80F00B4
:1012700000231A4661460448006806F0B2FBBDE848
:10128000084004B0704700BF0C08002070B58AB059
:101290004FF47A7006F0ADFA06F044F9642006F0D7
:1012A000A8FA0021012006F0A1F8002006F062F85B
:1012B000484C01222146484806F0ECF8012221461C
:1012C000464806F0E7F80B21012006F08FF80122CE
:1012D0002146434806F0DEF81621012006F086F884
:1012E000012221463F4806F0D5F82121012006F0D1
:1012F0007DF83D4B59680A784B788878CD780E791F
:1013000049790391029601950090384905A81AF091
:101310003DF80122214605A806F0BCF806F0ACF91C
:1013200040F6B83007F0D0FD002503E04FF47A70A6
:1013300006F05FFA0021012006F058F8002006F0C0
:1013400019F8244C01222146294806F0A3F8264B1F
:101350005B689A68130E0193C2F307430093C2F3CC
:101360000723D2B2234905A81AF010F8012221461A
:1013700005A806F08FF80A21012006F037F80122AF
:1013800021461D4806F086F801352A461B4905A866
:1013900019F0FCFF0122214605A806F07BF806F0B3
:1013A0006BF94FF47A7301227821154804F02CFE72
:1013B0000028BBD0124804F051FD4FF47A7007F0BA
:1013C00083FD00F05DFC4FF47A7007F07DFD06F0C0
:1013D000A9F8E6E788000020A4500308B0500308ED
:1013E000BC500308C850030834080020D05003083C
:1013F000F0500308F450030804510308D8A203086E
:101400003C08002070B5BAB000233993794B7A4A72
:101410007A497B4803F040FE7A497B4808F01EFE7B
:1014200000283BDB794808F007FE794C204608F09D
:10143000F7FD784808F0F4FD204608F0FDFD7648F9
:1014400008F0FAFD754808F0F7FD754808F0F4FD5E
:10145000744808F0F1FD002239A9734808F034FD02
:10146000F8B10121704808F06DFD0446C62207A9B5
:1014700008F098FD204608F089FD00228DF81C2018
:10148000022307A96948006806F012FD002239A965
:10149000674808F019FD88B1002482E004F0F2F8F2
:1014A000C0E7C622002107A81AF032FB022300225F
:1014B00007A95E48006806F0FBFCE7E740F29A6087
:1014C00008F09AFB044690B35A49012000F06CFCE6
:1014D000594B186820609B88A38001AD574E0FCEF2
:1014E0000FC596E8030045F8040B297001AD0FCD38
:1014F000C4F88000C4F88410C4F88820C4F88C3084
:101500002868C4F890002B7984F894300221484868
:1015100008F018FD054640F29A62214608F04EFD9B
:10152000284608F033FD204608F0E8FBB4E74449BC
:10153000032000F039FCF6E73B4D284608F070FD2B
:101540000221284608F0FEFC0546002833D0C622BA
:1015500007A908F033FD284608F018FD00228DF891
:101560001C20022307A93148006806F0A1FC22E0F4
:10157000012006F03EF94FF48071324804F0F2F990
:101580000028F5D04FF47A7006F033F9284808F0B7
:1015900047FD04F077F800E000244FF47A7006F07D
:1015A00028F9002207A9214B186806F094FF9DF83E
:1015B0001C30002BC0D14FF48071224804F0D2F9C6
:1015C0000028E9D10134E4B21E4D0122022128464F
:1015D00004F0CFF9642006F00CF90022022128461D
:1015E00004F0C7F9082CD8D101220221284604F0C2
:1015F000C0F9C0E7111801083518010819110108D0
:1016000005110108611801084D1801080851030867
:10161000105103081C5103082C51030838510308CA
:10162000AC68030840510308485103081008002023
:101630005C51030898510308D0510308D85103089E
:101640006C5103080004024008B5012914D0022996
:101650001AD001B108BD4AB1012AFBD102230022F0
:1016600001461248006806F023FCF3E701460F4BE1
:10167000186806F030FFEDE7002AEBD101460C4B6D
:10168000186806F028FFE5E74AB1012AE2D10223F3
:10169000002201460748006806F00AFCDAE7014626
:1016A000054B186806F017FFD4E700BF10080020AC
:1016B0001C080020140800201808002030B5D1B004
:1016C0003E4800F065FB012000F068FB3C4901202A
:1016D00000F06AFB4FF4FA6006F08BF84FF4FA64FE
:1016E00048E000231A4607A93648006806F0BBF90F
:1016F0000221354808F026FC05469DF81D210DF114
:101700001D0108F05BFC284608F040FC38E048A8C2
:1017100008F032FB4E9B04934D9B03934C9B02932A
:101720004B9B01934A9B0093499B489A2749012070
:1017300000F03AFB264C63689A68130E0193C2F3DB
:1017400007430093C2F30723D2B22249012000F0DD
:101750002BFB61680A784B788878CC780D794979C9
:1017600003910295019400901B49012000F01CFB9D
:1017700000240134134B186806F0B6F90028B0D1E4
:101780004FF4FA7006F035F8B4F5FA6FF1D1002293
:101790004FA90D4808F098FB4F9A4CF250339A42EB
:1017A000B5D90E4C204608F03BFC2146064808F00F
:1017B0002BFC0B49012000F0F7FAA8E7651201089D
:1017C000F05103080C0800200452030838520308A3
:1017D00034080020CC520308E852030814520308CE
:1017E0002452030800B587B08DF80F104FF0FF3377
:1017F000009301230DF117020DF10F01034805F0CD
:1018000056FA9DF8170007B05DF804FB9408002015
:1018100000B583B08DF807004FF0FF3301220DF1C2
:101820000701034805F061F903B05DF804FB00BF50
:10183000EC08002008B50A464FF0FF330146024885
:1018400005F05FFB08BD00BFEC08002008B54FF0B5
:10185000FF31024B186806F023F808BD0408002089
:1018600008B5024B186806F04AF808BD04080020C5
:1018700008B5294805F0CBFF284B1860284805F02B
:10188000C6FF284B1860284A0321012006F05EF8A5
:10189000264B1860264A0321012006F057F8254BF5
:1018A0001860254A0321012006F050F8234B1860E8
:1018B000234AC621012006F049F8224B1860224A2B
:1018C0004FF48171142006F041F8204B1860204A33
:1018D0000021204805F02EFF1F4B18601F4A0021F1
:1018E0001F4805F027FF1F4B18601F4A00211F48A3
:1018F00005F020FF1E4B18601E4A00211E4805F00F
:1019000019FF1E4B18601E4A00211E4805F012FFE9
:101910001D4B186008BD00BFEC53030808080020E9
:10192000DC530308040800205C5403081C08002052
:1019300044540308180800202C54030814080020FD
:101940001454030810080020FC5303080C0800205E
:1019500004550308B519010830080020E0540308B5
:101960002D1101082C080020BC5403088D12010819
:1019700028080020985403080514010824080020B2
:1019800074540308BD1601082008002008B5002281
:101990004FF48071014803F0ECFF08BD00000240E5
:1019A00008B501224FF48071014803F0E2FF08BD41
:1019B0000000024030B5EBB022AD624B0FCB85E8A2
:1019C0000F0002AC8022002120461AF0A1F840232B
:1019D0008DF8083022238DF809305B4B1A7C8DF886
:1019E0000A209A7C8DF80B201A7D8DF80C201B7E26
:1019F0008DF80D3001238DF827308DF82830534BAA
:101A00000B930C95524B58AA1A605C6003E04FF49C
:101A1000FA7005F0EEFE08F01BFB0028F7D058A87E
:101A200010F0A2FE4B4B03221A6002F015F9044697
:101A30000FE0FFF7ABFF4FF4FA7005F0DAFEFFF7A7
:101A4000AFFF4FF4FA6005F0D4FE02A958A816F0D3
:101A500081FABDF84C30002BEBD0062102A802F031
:101A600027FD3D4802F006F9394B22463B4958A86C
:101A700014F09EFC06E0012158A817F005F801209B
:101A800005F0B7FE9DF88430032BF4D1304B5B6832
:101A90009A68130E0193C2F307430093C2F307231E
:101AA000D2B22F49012000F07FF90022114626A86A
:101AB000FFF7CAFD9DF89930D3B12A49012000F003
:101AC00073F9254B01930DF23D13009347AB0DF1D4
:101AD0009A0202A958A802F029FC58A803F0BEF8FF
:101AE00002A958A803F086FA07F0E0F8054608E0D6
:101AF0001D49012000F058F9EFE7012005F079FEBB
:101B0000254607F0D3F80446411B58A816F0BCFF41
:101B10000B9BDB6802A898470028EED1FFF736FF41
:101B2000642005F066FEFFF73BFF40F6B83005F095
:101B300060FE0B9B1B6802A8984741F6583005F0E1
:101B400058FEE5E7444E0308007AFF1F940000208A
:101B500034080020A800002049160108105303088B
:101B6000CC520308245303083C5303082DE9F043E7
:101B700089B0002403940494059406940794009477
:101B80003C4B1A6B42F080021A631A6B02F080021F
:101B90000092009A01941A6B42F001021A631A6BC8
:101BA00002F001020192019A02941A6B42F00202C1
:101BB0001A631B6B03F002030293029B2E4E224614
:101BC0004FF4F071304603F0D4FE2C4D224607212D
:101BD000284603F0CEFE01224FF48051284603F040
:101BE000C8FE01224FF40041304603F0C2FE4FF020
:101BF0000709CDF80C9004944FF00208CDF814803A
:101C000003A9304603F042FDE02303930127049724
:101C10000594069403A9304603F038FDCDF80C90E6
:101C200004970594069403A9284603F02FFD4FF46A
:101C30008053039304970594CDF8188003A9284690
:101C400003F024FD4FF40143039304970594CDF86A
:101C5000188003A9304603F019FD4FF480730393F5
:101C60000494059403A9284603F010FD09B0BDE8CB
:101C7000F08300BF00380240000002400004024030
:101C800008B50B480B4B03600B4B4360002383608C
:101C9000C3604FF48042026143618361C3610362A8
:101CA00003F0FEFF00B908BD00F028F9FBE700BF14
:101CB0003C08002000540040400D030030B589B0BE
:101CC0000023039304930593069307930268154B2F
:101CD0009A4201D009B030BD00250195124C236B0A
:101CE00043F002032363236B03F002030193019B80
:101CF000C023039312230493012305930323069324
:101D00000423079303A9094803F0C0FC0295236C40
:101D100043F400132364236C03F400130293029B27
:101D2000D8E700BF005400400038024000040240E1
:101D300002680A4B9A4200D0704710B5084A136CEB
:101D400023F400131364074C4021204603F082FD66
:101D50008021204603F07EFD10BD00BF00540040EE
:101D6000003802400004024084B08DE80F0004B047
:101D7000704738B501FB00F4204607F03DFF0546EB
:101D800018B12246002119F0C3FE284638BD0000D4
:101D900008B1014A1060704700000020014B187024
:101DA000704700BF900800200EB4F0B5ADF51C7D63
:101DB000444B1B78834205D90DF51C7DBDE8F040EE
:101DC00003B07047044601214FF48070FFF7D1FF44
:101DD00005460028F0D04FF4817200215BA819F06D
:101DE00097FE8DF86C4116F0E3FEFEF7E7FB064622
:101DF0000F460022344BFEF741FDFEF7D9FFCDE937
:101E000058014FA958A819F019FF4FAB2F4A40218C
:101E10003FA81AF025FD044630463946FEF7B4FEC9
:101E20002B4A82FB0032C317C3EBA2134FF47A7222
:101E300002FB1303274AC4F140013FA8204419F0D4
:101E40003DF90444631C20223FA90A550022CA54CC
:101E5000A2AB5A930DF26D16A19AFD21304619F0EE
:101E6000F5FB04469DF86C2101961B4B53F822307C
:101E700000933FAB194A4FF48071284619F01EF9C0
:101E8000F52C1BD82846FEF70BFA8DF86D024FF49F
:101E9000807229460DF26D1019F081FE104B1E68FC
:101EA00046B15BACF2225FA968461BF06DF894E87E
:101EB0000F00B047284607F021FF7DE7F6238DF895
:101EC0006D32E4E79008002000408F402855030859
:101ED000D34D62103C55030804000020445503080C
:101EE0000000002008B50268034B9A4200D008BDEC
:101EF00003F028FBFBE700BF0040014072B6FEE79D
:101F000000B595B03022002108A819F001FE002389
:101F10000393049305930693079301931F4A116C4F
:101F200041F080511164126C02F080520192019ACA
:101F300002931B4B1A6842F440421A601B6803F478
:101F400040430293029B012308934FF4803309938B
:101F500002220E924FF480030F9304231093642106
:101F600011911292139308A804F018F988B90F235D
:101F7000039302230493002305934FF480520692A7
:101F80000793032103A804F073FB20B915B05DF893
:101F900004FBFFF7B3FFFFF7B1FF00BF00380240BB
:101FA0000070004000B583B072B6104B104A9A60C2
:101FB00062B6104B019302E0019B013B0193019B30
:101FC000002BF9DC03F0A4FAFFF79AFFFFF7CEFD30
:101FD00000F034F8FFF754FE00F00EF805F07CFB3B
:101FE000FFF746FC05F08AFBFEE700BF00ED00E0CE
:101FF0000000010840420F0008B50E480E4B036078
:102000004FF48273436000238360C36003614361C4
:102010004FF4007282610822C261036243628362EC
:102020000A23C36204F002FD00B908BDFFF766FF92
:10203000FBE700BFEC0800200030014008B50D4868
:102040000D4B03604FF48273436000238360C360D1
:10205000036143614FF400728261C36103624362B2
:1020600083620A23C36204F0E1FC00B908BDFFF7F4
:1020700045FFFBE7940800200038004000B58BB016
:102080000023059306930793089309930368284A4E
:10209000934205D0274A934225D00BB05DF804FB4C
:1020A00000210191244B5A6C42F480525A645A6CBC
:1020B00002F480520192019A02911A6B42F00202DC
:1020C0001A631B6B03F002030293029B38230593F0
:1020D00002230693032308930523099305A91748B0
:1020E00003F0D4FAD9E700210391134B1A6C42F4A0
:1020F00080421A641A6C02F480420392039A04919B
:102100001A6B42F002021A631B6B03F00203049382
:10211000049B4FF460430593022306930323089323
:102120000523099305A9054803F0B0FAB5E700BFF8
:1021300000300140003800400038024000040240F6
:1021400000B583B0002200920D4B596C41F48041E0
:102150005964596C01F48041009100990192196C05
:1021600041F0805119641B6C03F080530193019B73
:102170000F216FF0010003F071FA03B05DF804FB6A
:102180000038024030B589B00546002401941D4B4B
:102190005A6C42F480325A645B6C03F480330193CE
:1021A000019B02A903A804F039FB04F027FB164A9F
:1021B000A2FB00239B0C013B1448154A026040F22D
:1021C000E732C260436004618460846105F0A4F872
:1021D000044610B1204609B030BD0C4804F056FF4B
:1021E00004460028F6D1182003F048FA0F2D01D933
:1021F0000124EFE700222946182003F02FFA054BAF
:102200001D60E7E70038024083DE1B4344090020DD
:102210000040014084000020FEE7FEE7FEE7FEE705
:10222000FEE7704708B5024804F070FF08BD00BF24
:10223000440900200120704708B51AF06DFE1623EE
:1022400003604FF0FF3008BD08B54FF0FF31FFF7D6
:10225000F3FFFEE770B50C461646002506E0AFF327
:102260000080214601F8010B01350C46B542F6DB32
:10227000304670BD70B50C461646002504E014F8D3
:10228000010BAFF300800135B542F8DB304670BD7D
:102290004FF0FF3070474FF400534B600020704701
:1022A000012070470020704710B503460C4A0D49C5
:1022B0000D48006840B10C4800680344521A93422C
:1022C00006D8094A136010BD0748084C0460F2E7BD
:1022D0001AF022FE0C2303604FF0FF30F3E700BF3B
:1022E0000000022000080000900900202891012031
:1022F000034AD2F8883043F47003C2F8883070473C
:1023000000ED00E0DFF834D0FFF7F2FF0C480D4994
:102310000D4A002302E0D458C4500433C4188C4240
:10232000F9D30A4A0A4C002301E013600432A242A6
:10233000FBD31AF0FFFDFFF735FE704700000220C7
:1023400000000020E807002054B20308E80700203E
:1023500028910120FEE7000008B5034B034AC8217D
:1023600010F018FF08BD00BF389C0308885503080B
:1023700070B584B005460C4602AE1449304611F0E3
:1023800093F80023009396E80C0094E8030011F002
:10239000ADFA98B10E4B1B6A0E48984738B10E4BF8
:1023A0000E4AC821284610F0F5FE04B070BD0C4B53
:1023B0000A4AC821284610F0EDFEF6E7094B074A05
:1023C0004FF4C871284610F0E5FEEEE728560308E2
:1023D0001C0000201C510308305603086C560308EB
:1023E000DC5603082057030870B584B005460C4638
:1023F00002AE1249304611F057F80023009396E8D8
:102400000C0094E8030011F071FA78B10C4E336AB5
:102410000C4C20469847736A204698470A4B0B4A53
:10242000C821284610F0B6FE04B070BD084B074A1C
:102430004FF4C871284610F0ADFEF5E728560308A2
:102440001C00002008510308705703086C5603084D
:1024500020570308F0B5C3B006460D460024229469
:102460007C273A46214623A819F052FB02943A46AB
:10247000214603A819F04CFB8022009202AB22A94E
:10248000284611F039FF9DF8883013B19DF80820D7
:1024900062B913B99DF808304BBB214B214A4FF468
:1024A000CA71304610F076FE43B0F0BD1E4B1D4A97
:1024B0004FF4C871304610F06DFEF5E7B82303FB0A
:1024C00004F41A4FE5192A4619490120FFF76CFC5C
:1024D000002385F8803000200021C5E92C013B5500
:1024E000144B104AC821304610F054FEDCE700249B
:1024F000092C0CDCB82304FB03F3803302A90B483E
:102500001844FDF76DFE0028D8D00134F0E70A4BDF
:10251000044A4FF4CA71304610F03CFEC4E700BFD5
:10252000BC5803086C560308B857030898090020E4
:10253000385803084C5803088858030830B5C7B00A
:1025400005460C4690F8AC3013F0400224D0144BF2
:1025500004F1800112B3134A1348029001920091D2
:10256000124A4FF4807106A810F014F90594002265
:1025700004920F4B03930F490291019200930E4B6B
:1025800006AAC821284610F005FE22460B49012064
:10259000FFF70AFC47B030BD094BD9E7094ADBE732
:1025A000345903085859030800A30200645903086A
:1025B000251A0208F4680308A8590308B05903084B
:1025C00048590308BC5B03082DE9F043E5B0054614
:1025D0000C4616460021599125225AA819F098FA5E
:1025E0008022009202AB22A9204611F085FE9DF8C0
:1025F000883013B19DF808204AB9002B40F0BB8009
:102600009DF80830002B40F0B2800020B4E022AAF0
:102610005B490120FFF7C8FB42A810F093FE02A817
:10262000FDF73EFE024602A942A810F0A5FE42A90F
:1026300059A810F0DBFE00242AE041462846FFF7A7
:102640007DFF66E04F4F802222A9384619F0A7FA95
:1026500016F0AEFA4C4BC31841F10001C7F8B03088
:10266000C7F8B410282107F1800012F08BFA4EB998
:10267000B822464B02FB043245490120FFF794FB88
:10268000012079E039462846FFF758FFF0E701348A
:10269000092C45DC22A9A9203E4B00FB0430FDF7A4
:1026A0009FFD0028F3D1A92304FB03F3803359A92C
:1026B00038481844FDF794FD0028E8D1334BB82280
:1026C00002FB0433D3F8B080D3F8B47016F070FA7C
:1026D00080458F41B6D2B82704FB07F7DFF8AC90EE
:1026E00007EB0908802222A9404619F058FA16F093
:1026F0005FFA254BC01841F10001C8F8B000C8F8D6
:10270000B41007F180002821484412F03BFA002E53
:1027100093D142461E490120FFF746FB01202BE0E2
:10272000002029E0B822194B02FB043300931A4B16
:102730001A4AC821284610F02DFD16E00134092C54
:1027400017DCB82304FB03F3803302A90F481844B5
:10275000FDF746FD0028F1D1B82304FB03F30B4A33
:10276000D35C002BEAD0002EDCD1012004E0002451
:10277000E5E7002000E0002065B0BDE8F08300BF81
:10278000CC590308500A002000B84C0A98090020D0
:10279000EC590308C8100020085A03086C560308B7
:1027A00010B504460122FFF70FFF00B110BD044B26
:1027B000044A40F29311204610F0ECFCF6E700BF0B
:1027C000485A03086C56030810B590B0044609A88F
:1027D00007F0D2FA0F9B06930E9B05930D9B049373
:1027E0000C9B03930B9B02930A9B0193099B009301
:1027F000034B044AC821204610F0CCFC10B010BD99
:10280000785A03087C5B0308F0B591B006460C4685
:102810000CAD4B49284610F047FE0023009395E885
:102820000C0094E8030011F061F828B3454C2368CC
:10283000002201210AA898472368002202210DF1F5
:102840002B0098479DF828309DF829209DF82A10E4
:102850009DF82B009DF82C409DF82D500595049473
:102860000390029101920093374B384AC8213046B9
:1028700010F090FC11B0F0BD0EAD3549284610F0B7
:1028800013FE0023009395E80C0094E8030011F078
:102890002DF800284BD008AB2E4A04F5007103C96F
:1028A0000FF03CFD00283AD00AAB2B4A04F5007427
:1028B00094E803000FF032FD002830D0DDE9080174
:1028C000FEF78AF9C4B2DDE90A01FEF785F9C5B25F
:1028D000631EDBB2022B01D8012D07D91F4B1B4A07
:1028E0004FF4C871304610F055FCC3E7154F3B68F4
:1028F0000022022107A8984704F13F036B4403F824
:10290000245C3B680122022107A8984701950094A6
:10291000134B0E4AC821304610F03CFCAAE7114B7D
:102920000A4A4FF4C871304610F034FCA2E70E4B4F
:10293000064A4FF4C871304610F02CFC9AE700BFED
:10294000C05B030864170020C45B03086C560308CF
:1029500028560308F85B0308045C0308445C03087A
:102960000C5C0308805C0308BC5C030838B501FB01
:1029700000F4204607F040F9054618B12246002130
:1029800019F0C6F8284638BDF0B58BB006460C469F
:1029900006AD8449284610F087FD0023009395E892
:1029A0000C0094E8030010F0A1FF00283BD0C621E2
:1029B0000120FFF7DBFF054640B37B4B1B6800227D
:1029C0001146984705F1A5073846FDF769FCC4B2E2
:1029D00022462A21384619F09BF82C44002384F81B
:1029E000A5306B78EBB1714BAA1C05F184010397FC
:1029F0000291019200936E4B6E4AC821304610F04E
:102A0000C9FB284607F07AF90BB0F0BD6A4B694A5A
:102A10004FF4FA71304610F0BDFB284607F06EF90E
:102A2000F2E7664BE0E708AD6549284610F03CFD4B
:102A30000023009395E80C0094E8030010F056FF83
:102A4000002800F0A780C6210120FFF78FFF054670
:102A500010B305AB5B4A04F5007103C90FF0F4F93C
:102A6000002824DB6B1C584A04F5007797E8030024
:102A70000FF07AFC554A97E8030011F005FE07466F
:102A800028B316F0B1FA0346E0B10433032B79D82A
:102A9000DFE803F070686052474B464A4FF4FA7122
:102AA000304610F077FB284607F028F9ACE7484B92
:102AB000404A4FF4C871304610F06CFB284607F0CE
:102AC0001DF9A1E77F223946A81C19F068F838469D
:102AD00007F014F93F4A04F5007393E8030011F07E
:102AE000D3FD074628B12022014605F1840019F0E4
:102AF00056F8384607F002F9374A04F5007494E8AE
:102B0000030011F0C1FD044628B12022014605F161
:102B1000A50019F044F8204607F0F0F801222A70C9
:102B2000214B1B680021284698472C4B214AC8217D
:102B3000304610F02FFBC1E7294B1E4A4FF4C871F5
:102B4000304610F027FB384607F0D8F8284607F043
:102B5000D5F859E7234B174A4FF4C871304610F0A7
:102B600019FBF0E7204B134A4FF4C871304610F0C0
:102B700011FBE8E71D4B0F4A4FF4C871304610F0C7
:102B800009FBE0E71A4B0B4A4FF4C871304610F0CE
:102B900001FBD8E7174B074A4FF4C871304610F0D5
:102BA000F9FA31E7C05B030864170020105D0308E1
:102BB0005C5D03086C560308205D0308185D03087C
:102BC00028560308A45D0308D85D0308E45D0308E4
:102BD000A85D03082C5F0308385F0308445F0308FF
:102BE000F05D0308345E0308805E0308C05E0308DE
:102BF000F85E0308BC5C03082DE9F04FC7B08146BE
:102C00008A4672228E4927A81AF0BEF901211E2099
:102C1000FFF7ACFE064601212E20FFF7A7FE074670
:102C200001212E20FFF7A2FE804601214FF44070C3
:102C3000FFF79CFE044601214FF4C070FFF796FE9B
:102C40000546002E00F0E380002F00F0E080B8F190
:102C5000000F00F0DC80002C00F0D980002800F08C
:102C6000D6800DF5887B7749584610F01DFC00236F
:102C700000939BE80C009AE8030010F037FE002850
:102C800000F0BD8001F04CFB824658B390F8AC30A8
:102C900013F0200F2CD190F8AD3013F0200F2DD071
:102CA0001E226949304618F07AFFDFF8C4B10AF1F4
:102CB000080300935B46654A2E2140460FF06AFDEB
:102CC0000AF11C0300935B46604A2E2138460FF040
:102CD00061FD2046FDF7E4FA5D4B1B8823524FF05F
:102CE000010A28E01E225B49304618F058FFF0E741
:102CF0001E225949304618F052FFD6E71E22574986
:102D0000304618F04CFFD0E75FFA8AF301228021A9
:102D100007A801F0F5FE07A9204618F001FF20469C
:102D2000FDF7BEFA034621184D4A1068E0501379AA
:102D30000B710AF1010ABAF1030FE5DD4FF0010A48
:102D400007E02046FDF7ACFA414B1B8823520AF1FD
:102D5000010ABAF1030F18DC5FFA8AF3022280211C
:102D600007A801F0CDFE07A9204618F0D9FEBAF158
:102D7000020FE6DC2046FDF793FA03462118384A95
:102D80001068E05013790B71E1E72846FDF788FAE7
:102D90002F4B1B882B524FF0010A07E02846FDF706
:102DA0007FFA2B4B1B882B520AF1010ABAF1030F51
:102DB00018DC5FFA8AF30222802107A801F088FE5E
:102DC00007A9284618F0ACFEBAF1020FE6DC284647
:102DD000FDF766FA03462918214A1068E85013796E
:102DE0000B71E1E7049503940297CDF804800096F7
:102DF00027AB1C4AC821484610F0CCF90EE01A4B0C
:102E0000184A4FF4C871484610F0C4F906E0174B51
:102E1000144A4FF4C871484610F0BCF9304606F029
:102E20006DFF384606F06AFF404606F067FF204611
:102E300006F064FF284606F061FF47B0BDE8F08F5A
:102E4000EC5F0308C05B03088C5F0308A05F030806
:102E5000A45F0308C89D0308805F0308945F03080C
:102E6000A85F03086C560308BC5C0308B05F030846
:102E700045520208F0B58DB007460C46154608AE1F
:102E80002349304610F010FB0023009396E80C0015
:102E900094E8030010F02AFD18B300230293039373
:102EA00004930593069307931A4B02931A4B0793C7
:102EB00045B1012D0ED002AB184A2146384610F01C
:102EC000D1FE05E002AB154A2146384610F0CAFE95
:102ED0000DB0F0BD02AB124A2146384610F0C2FEDA
:102EE000F6E70AAD0F49284610F0DEFA00230093FA
:102EF00095E80C0094E8030010F0F8FC0028E7D1F6
:102F0000094B0A4A4FF4C871384610F043F9DFE71D
:102F1000C05B0308AC6803081C00002004520308CF
:102F20001452030828560308606003086C5603080F
:102F3000F8B504460D4616460B4F3B6A98470222E9
:102F4000214638460EF097FE04467B69A92206FB0F
:102F500002F229460068984720460EF0A5FE034974
:102F60000120FEF721FFF8BD1C000020B860030817
:102F70002DE9F041AEB006460C4626ADA8492846DC
:102F800010F092FA0023009395E80C0094E80300F7
:102F900010F0ACFC002843D128ADA249284610F01F
:102FA00083FA0023009395E80C0094E8030010F0E6
:102FB0009DFC002800F0FD8003AB9B4A04F50071E6
:102FC00003C90EF041FF0028C0F28980974A04F53A
:102FD000007494E8030011F057FB0546944A94E806
:102FE000030011F051FB0746002D00F0D4800028AB
:102FF00000F0D1802B78002B00F0CD800378002BDF
:1030000000F0C9800024092C7FDC2946A920894BC7
:1030100000FB0430FDF7E4F8002868D00134F2E743
:1030200001214FF48060FFF7A1FC07460121A02099
:10303000FFF79CFC8046002F3DD000283BD07E4B04
:1030400007CB38607960BA601B783B730C2500248D
:1030500008E04346794AC5F58061781918F02EF8E2
:1030600005440134092C18DCA92204FB02F2714B3F
:103070009A5C002AF5D0A92202FB0433704AA021F1
:10308000404618F01BF80C2DE3D96E4AC5F5806157
:10309000781918F013F80544DBE76B4AC5F5806131
:1030A000781918F00BF80097644B684AC82130462D
:1030B00010F070F80AE066490320FEF775FE654BD4
:1030C000624A4FF4FA71304610F064F8384606F060
:1030D00015FE404606F012FE2EB0BDE8F0815E4BB4
:1030E0005A4A4FF4C871304610F054F8F4E75B4B7D
:1030F000564A4FF4C871304610F04CF8284606F096
:10310000FDFD384606F0FAFDE6E70024049425228A
:10311000214605A818F0FCFC0FA810F013F938465A
:10312000FDF7BEF8024639460FA810F025F90FA9A1
:1031300004A810F05BF92146092924DCA92301FB2E
:1031400003F33C4AD35C0BB10131F5E7A92303FB40
:1031500001F490467F22294608EB040018F01FFD79
:103160008034282204A908EB040018F018FD0A2274
:1031700041463B48FFF7DCFE3A4B344AC821304613
:1031800010F008F80EE0384B304A4FF4C871304662
:1031900010F000F806E0354B2C4A4FF4C871304669
:1031A0000FF0F8FF284606F0A9FD384606F0A6FD08
:1031B00092E72AAD2E49284610F076F900230093B5
:1031C00095E80C0094E8030010F090FB002855D11E
:1031D0002CAD2849284610F067F90023009395E8A4
:1031E0000C0094E8030010F081FB002800F0F3804D
:1031F0000E4A04F5007494E8030011F045FA0746FE
:1032000018B10378002B40F0CF801B4B0F4A4FF4CE
:10321000C87130460FF0BEFF384606F06FFD5BE721
:10322000C05B030828560308A45D03085461030823
:103230005C610308C8100020D0600308D49D030817
:10324000E0600308F0600308F46003086C560308AC
:10325000F86003082C610308A85D03086461030893
:103260005C510308A0610308DC61030810620308D5
:10327000506203080C630308A863030803AB684AA1
:1032800004F5007103C90EF0DFFD002821DB654A5B
:1032900004F5007494E8030011F0F6F90546624A5B
:1032A00094E8030011F0F0F9044625B118B12B7829
:1032B0000BB10378BBB95D4B5D4A4FF4C871304622
:1032C0000FF068FF284606F019FD204606F016FDAF
:1032D00002E7584B564A4FF4C87130460FF05AFF78
:1032E00000242546EEE7002704972522394605A845
:1032F00018F00EFC0FA810F025F82046FCF7D0FFC0
:10330000024621460FA810F037F80FA904A810F0C4
:103310006DF8092F25DC2946A920474B00FB073013
:10332000FCF75EFF08B10137F3E7A92303FB07F7BA
:1033300007F18000DFF80081282204A9404418F03A
:103340002EFC4744002387F8A8300A2241463B4818
:10335000FFF7EEFD3A4B364AC82130460FF01AFF10
:10336000B0E7384B324A4FF4CA7130460FF012FFC3
:10337000A8E780220021284618F0CAFBA92303FBF6
:1033800004F080302C4C29220021204418F0C0FB8E
:103390000A2221462948FFF7CBFD2B4B244AC8219E
:1033A00030460FF0F7FE37E70124092C0BDCA92388
:1033B000214D03FB045539462846FCF711FF002830
:1033C000D7D00134F1E7214B194A4FF4C871304688
:1033D0000FF0E0FE20E71E490320FEF7E5FC6068E1
:1033E00001210230FFF7C2FA054678B16268216810
:1033F00018F0D5FB0095174B0D4A4FF4C8713046B5
:103400000FF0C8FE284606F079FC65E60090124BE6
:10341000074A4FF4C87130460FF0BCFEF2E700BF18
:10342000A45D0308546103085C610308C8620308D3
:103430006C560308A85D0308C81000205C510308FF
:103440005462030898620308146303085463030872
:10345000E86303080C6403087064030870B50E4643
:103460001446012201460E480EF005FC88B10546BF
:103470000B4B1B69A92204FB02F2314600689847F6
:1034800028460EF011FC07490120FEF78DFC0120B3
:1034900070BD05490320FEF787FC0020F8E700BF58
:1034A0001C000020EC640308D064030870B586B0EB
:1034B00005460C4604AE154930460FF0F5FF0023D3
:1034C000009396E80C0094E8030010F00FFAA0B106
:1034D000EB6F1868002302930D4B019301230093B7
:1034E0004FF4FA62002311F0C1F90A4B0A4AC821CD
:1034F00028460FF04FFE06B070BD084B064A4FF449
:10350000C87128460FF046FEF5E700BF28560308AD
:1035100085560108086503086C5603082057030800
:1035200070B584B005460C4602AE144930460FF023
:10353000BBFF0023009396E80C0094E8030010F012
:10354000D5F998B10E4BDB690E490F48984728B161
:1035500021462846FFF7AAFF04B070BD0B4B0C4A6A
:103560004FF4FA7128460FF015FEF5E7094B084AAB
:103570004FF4C87128460FF00DFEEDE728560308FA
:103580001C0000201C51030840650308586503080F
:103590006C5603082057030870B5C4B006460C46A5
:1035A00042AD204928460FF07FFF0023009395E8A5
:1035B0000C0094E8030010F099F950B37B2323AA80
:1035C000194904F5007010F05CFE002819DD23ABEA
:1035D000164A802103A817F071FD154B5B6A03A8FA
:1035E000984730B1134B144AC82130460FF0D2FD32
:1035F00016E0124B104A4FF4FA7130460FF0CAFD34
:103600000EE00F4B0C4A4FF4C87130460FF0C2FD6C
:1036100006E00C4B084A4FF4C87130460FF0BAFD73
:1036200044B070BD285603089C650308A4650308D0
:103630001C000020AC6503086C560308E065030815
:103640001C6603082057030870B5A4B005460C4655
:1036500022AE1C4930460FF027FF0023009396E866
:103660000C0094E8030010F041F908B3802302AA8B
:10367000154904F1100010F004FE144902A8FCF7EB
:10368000AFFD58B9124B0093124B134A21462846FE
:1036900012F082FB012005F017FC10E00B4B0093A9
:1036A0000E4B0F4A4FF4C87128460FF073FD06E029
:1036B0000C4B0B4A4FF4C87128460FF06BFD24B039
:1036C00070BD00BF28560308249D030858660308F0
:1036D00090D00300105103081C0000206866030806
:1036E0006C56030820570308F0B597B004460E4601
:1036F00001214FF48060FFF739F9054650B10122EE
:10370000214628480EF0B7FA044640B168460EF04C
:10371000C1FE10E006F0F2FA4FF0FF3040E00EF08C
:10372000C3FA284606F0EAFA6FF0010038E02946AD
:1037300068460EF0C5FE1B4B1B694FF4806229469C
:103740002068984702460028F1D120460EF0ACFAD6
:1037500001211020FFF70AF9074628B10146684603
:103760000EF005FF002412E0284606F0C7FA38469E
:1037700006F0C4FA4FF0FF3012E061003B5D0A4AE8
:10378000C1F1210106EB440017F098FC01340F2C25
:10379000F3DD284606F0B2FA384606F0AFFA00200C
:1037A00017B0F0BD1C000020B466030870B584B0EB
:1037B00005460C4602AE194930460FF075FE00234F
:1037C000009396E80C0094E8030010F08FF8E8B13D
:1037D00001212120FFF7CAF8044601461048FFF7EF
:1037E00083FF58B900940F4B0F4AC82128460FF0A9
:1037F000D1FC204606F082FA04B070BD0B4B0A4A99
:103800004FF4CA7128460FF0C5FCF2E7084B064A90
:103810004FF4C87128460FF0BDFCEDE7C05B03080C
:1038200040650308BC6603086C560308E06603089D
:10383000206703080B2900D07047F0B5AFB00546EC
:10384000144600222146FEF7BFFE074608AEAD49EA
:1038500030460FF029FE0023009396E80C0094E810
:10386000030010F043F820B12846FEF775FD2FB095
:10387000F0BD0AAEA44930460FF016FE00230093B7
:1038800096E80C0004F1080103C910F02FF800B10C
:10389000BFB10CAE9D4930460FF006FE00230093E9
:1038A00096E80C0004F1080103C910F01FF880B17C
:1038B00097490120FEF778FA21462846FEF770FF67
:1038C000D5E7944B944A40F2931128460FF062FCDE
:1038D000CDE70EAE914930460FF0E6FD0023009390
:1038E00096E80C0004F1080103C90FF0FFFF40B196
:1038F0008B490120FEF758FA21462846FEF7AAFD1B
:10390000B5E710AE874930460FF0CEFD0023009397
:1039100096E80C0004F1080103C90FF0E7FF38B185
:1039200081490120FEF740FA2846FEF74DFF9EE749
:1039300012AE7E4930460FF0B7FD0023009396E8A3
:103940000C0004F1080103C90FF0D0FF40B1784921
:103950000120FEF729FA21462846FEF755FF86E7A3
:1039600014AE744930460FF09FFD0023009396E893
:103970000C0004F1080103C90FF0B8FF40B16E4913
:103980000120FEF711FA21462846FEF7FDFF6EE7FB
:1039900016AE6A4930460FF087FD0023009396E883
:1039A0000C0004F1080103C90FF0A0FF40B1644905
:1039B0000120FEF7F9F921462846FFF71DF956E7E1
:1039C00018AE604930460FF06FFD0023009396E873
:1039D0000C0004F1080103C90FF088FF48B15A49EF
:1039E0000120FEF7E1F9002221462846FFF742FABE
:1039F0003DE71AAE554930460FF056FD00230093BF
:103A000096E80C00E168A0680FF070FF48B15049DB
:103A10000120FEF7C9F9012221462846FFF72AFABC
:103A200025E71CAE4B4930460FF03EFD00230093C6
:103A300096E80C00E168A0680FF058FF40B14649D5
:103A40000120FEF7B1F921462846FFF791FA0EE76B
:103A50001EAE424930460FF027FD0023009396E842
:103A60000C00E168A0680FF041FF40B13C49012023
:103A7000FEF79AF921462846FFF718FDF7E620AE33
:103A8000384930460FF010FD0023009396E80C00F3
:103A9000E168A0680FF02AFF20B121462846FFF711
:103AA000D3FDE4E622AE304930460FF0FDFC0023A2
:103AB000009396E80C00E168A0680FF017FF40B192
:103AC0002A490120FEF770F921462846FFF76EFECD
:103AD000CDE624AE264930460FF0E6FC00230093E5
:103AE00096E80C00E168A0680FF000FF002843D0C2
:103AF00020490120FEF758F921462846FFF710FD1E
:103B0000B5E600BF7067030878670308906703088D
:103B10009C67030880670308BC5B0308B067030861
:103B2000BC670308D4670308E46703080068030858
:103B300010680308286803083C68030858680308ED
:103B40006C6803088868030898680308B468030869
:103B5000C8680308E8680308FC68030818690308D4
:103B60002C6903084C690308646903087869030831
:103B700094690308A869030826AE304930460FF05F
:103B800093FC0023009396E80C00E168A0680FF016
:103B9000ADFE20B121462846FEF7EAFB67E628AED7
:103BA000274930460FF080FC0023009396E80C0074
:103BB000E168A0680FF09AFE20B121462846FEF782
:103BC00013FC54E62AAE1F4930460FF06DFC00236B
:103BD000009396E80C00E168A0680FF087FE40B102
:103BE000194B0093194B1A4A2146284612F0D4F873
:103BF0003DE62CAE174930460FF056FC00230093EB
:103C000096E80C00E168A0680FF070FE20B1214634
:103C10002846FFF7C1FC2AE600230293039304938E
:103C2000059306930793094B0293094B079302AA46
:103C30002146284611F0CAFF19E600BFC8690308EB
:103C4000E4690308006A030860E3160008510308EA
:103C50001C0000201C6A030808B50A220249034818
:103C6000FFF7FCFB024808BDC81000205C510308A8
:103C700035380108014B1860704700BF64170020F9
:103C80001A4B1B6803B1704730B585B01849012045
:103C9000FEF78AF8174C40220021204617F038FF23
:103CA00002AD154B196828460FF0FEFB95E803009E
:103CB00084E80300114B196828460FF0F5FB04F166
:103CC000080395E8030083E803003C236385002391
:103CD00000930B4B22460B4909680B48006814F00F
:103CE0001BF9024B186005B030BD00BF88170020DB
:103CF000386A03088C170020E0170020DC1700202A
:103D00005D420108E4170020D01700202DE9F04F94
:103D100085B08146884692462A4C00F108030093FC
:103D2000294B2A4A282120680EF034FD24682046B9
:103D3000FCF7B6FA0146204600F0E0FB00263BE027
:103D400008EBC60318F836401D79214F2B46224652
:103D50008021386800F0F0FBDFF880B02B46224667
:103D60004FF41671DBF8000000F096FC194D02AC20
:103D7000396820460FF098FB05F1180394E803001A
:103D800083E80300DBF8001020460FF08DFB05F1FF
:103D9000200394E8030083E80300012485F8284009
:103DA00085F82E402946484612F01CFE3A680A491A
:103DB0002046FDF7F9FF26445645C1D305B0BDE8BE
:103DC000F08F00BF8417002029520208A05F03086B
:103DD000D81700208C170020586A0308D417002039
:103DE00070B584B0002301930568866826B3044645
:103DF00015B3714B1B680022022103A89847039B4F
:103E0000ADF808301B0C8DF80A306C49284617F0C5
:103E1000FFFE002800F0BA8001AA694917F0D6FA1F
:103E2000012818D0674B1B68002B00F3A58066495A
:103E30000320FDF7B9FFB2E0624B1B68002B40F393
:103E4000AE80624B92226249012011F065FA61480E
:103E50000FF04CF9A3E05B4B1B68012B18DC2B46E1
:103E6000019A5D490120FDF79FFF019D6B1E022B0A
:103E70001AD8E468022C2ED0032C4FD0514B1B686B
:103E8000002B6EDC324655490320FDF78DFF86E09E
:103E90004E4B9F224E49022011F03EFA2A460199CC
:103EA0004F480FF023F9DAE7464B1B68002B06DC7E
:103EB000019B03224B491046FDF776FF6FE0434B11
:103EC000A4224349012011F027FA019A0321454811
:103ED0000FF00CF9ECE702224349304617F04DFE93
:103EE0000028C9D105F10F036B44012203F8082C07
:103EF000344B1B68934206DC2F4B1B6801220221C6
:103F000002A898474BE0314BAE223149022011F014
:103F100003FA019935480FF0E9F8EDE70322344937
:103F2000304617F02AFE0028A8D105F10F036B4494
:103F3000002203F8082C234B1B68012B06DC1E4BC8
:103F40001B680122022102A8984728E01F4BB222D9
:103F50001F49022011F0E0F9019926480FF0C6F838
:103F6000EDE71A4BB6221A49012011F0D5F9314676
:103F70001A480FF0BBF885E7144BBB221449012007
:103F800011F0CAF91C480FF0B1F850E70D4B1B684F
:103F9000002B06DC2A4619490320FDF705FF04B073
:103FA00070BD0A4BBF220A49012011F0B5F929461C
:103FB00012480FF09BF8EDE770170020EC6A030839
:103FC000F46A0308A8000020486C03087C6A030810
:103FD0009C6A0308C86A03082C6B0308D46B0308A7
:103FE000006B0308546B0308A46B0308A86B030859
:103FF000BC6B0308C06B0308106C0308806C0308DB
:1040000038B501FB00F4204605F0F6FD054618B171
:104010002246002117F07CFD284638BD2DE9F043EB
:1040200087B007460C46584D2B680022012104A892
:1040300098472B68002202210DF1130098470322B4
:10404000524904A817F0D0FC48B9032250490DF199
:10405000130017F0C9FC10B9002C00F091804B4BF5
:1040600006AA12E903001860998001214FF4167026
:10407000FFF7C6FF064601218020FFF7C1FF054676
:10408000002238E002F101085FFA88F802F1180313
:104090000DEB030212F8083C0093434601224FF453
:1040A0001671304600F0ECFC434601228021284680
:1040B00000F026FDDFF8DC9002AC294620460FF028
:1040C000F3F909F1180394E8030083E8030031468B
:1040D00020460FF0E9F909F1200394E8030083E892
:1040E0000300002389F8283089F82E3049463846E5
:1040F00012F078FC4246022AC4D9002238E002F1CC
:1041000001085FFA88F802F118030DEB030212F8B8
:10411000053C0093434602224FF41671304600F0EE
:10412000AFFC434602228021284600F0E9FCDFF87C
:10413000649002AC294620460FF0B6F909F1180345
:1041400094E8030083E80300314620460FF0ACF901
:1041500009F1200394E8030083E80300002389F8B1
:10416000283089F82E304946384612F03BFC42464A
:10417000022AC4D9304605F0C1FD284605F0BEFD2F
:1041800007B0BDE8F08300BF70170020681700205B
:104190006B1700208C17002008B5054B186810B16C
:1041A000044B1B7803B908BD0021FFF737FFFAE77E
:1041B000881700207417002008B5054B1B7803B939
:1041C00008BD0121034B1868FFF728FFF8E700BF7F
:1041D00074170020881700202DE9F04F83B0814626
:1041E0000D461646002400E00134B4422ED205EB01
:1041F000C40855F83430022BF6D101218020FFF796
:10420000FFFE074698F804300222802100F060FC8F
:10421000DFF844804FF0010B88F828B0EA463946B1
:1042200050460FF041F908F118039AE8030083E8BB
:1042300003004146484612F087FB3A460549584676
:10424000FDF7B2FD384605F059FDCDE703B0BDE8F6
:10425000F08F00BFB06C03088C17002070B51029D8
:1042600031D00546112902D009293AD070BD224B20
:104270001B68022B1DDC21490120FDF795FD204B19
:104280001D60204B1B78002BF0D11F4E06223146BB
:104290002846FFF73BFD1A4C01212068FFF7BEFEC0
:1042A000062231462068FFF797FF164B01221A704D
:1042B000DCE7164BCD221649032011F02DF81548E6
:1042C0000EF014FFD7E7144613490120FDF76CFDEB
:1042D0002046FFF785FD0021094B1868FFF79EFE79
:1042E000C4E70E490120FDF75FFD0023044A136077
:1042F000044A1370BAE700BFA8000020F86C030856
:10430000881700207417002044000020CC6C03089C
:104310009C6A0308E06C0308106D0308346D030801
:10432000014B1868704700BF881700202DE9F0473F
:1043300086B006460C4691461D4601218020FFF7B7
:104340005FFEDFF848A1CAF8000001212120FFF735
:1043500057FEDFF83C81C8F8000001212120FFF75B
:104360004FFE3B4F386001218020FFF749FE394B5B
:10437000186001214FF41670FFF742FE364B1860AB
:1043800001212820FFF73CFE344B18600F9A344B74
:104390001A60DAF800A04946504618F0C3FDD8F874
:1043A00000902946484618F0BDFD0E99386818F06F
:1043B000B9FD4B4652462B490120FDF7F5FC2A4D2D
:1043C0002E602A4B1C600621204600F071F8284E12
:1043D00004ACD8F8001020460FF066F894E803000B
:1043E00086E80300396820460FF05EF806F10803FE
:1043F00094E8030083E803003C23738500240294BF
:104400001C4B01930323009342F21072002328688F
:1044100010F02CFA184B18600294184B01930126E7
:10442000009643F698220023286810F01FFA144BD8
:1044300018600294134B019300964FF4FA72002314
:10444000286810F013FA104B186006B0BDE8F0872A
:10445000DC170020D8170020D41700208417002074
:10446000701700204C6D0308D0170020CC170020D7
:104470008C170020813C010880170020B9410108F9
:104480007C1700209941010878170020E4170020CC
:10449000E017002038B501FB00F4204605F0ACFB26
:1044A000054618B12246002117F032FB284638BDD8
:1044B00070B506460D460F4B186808B105F01EFC96
:1044C000680001210844FFF7E5FF0A4B186008B1B6
:1044D00000240BE04FF0FF300BE0064B1868325D14
:1044E000054900EB440016F051FF0134AC42F4D30F
:1044F000002070BDEC170020786D030838B5054624
:104500000C460C4B186808B105F0F8FB0121601847
:10451000FFF7C0FF074B186040B12246294617F04D
:104520003EFB044B1B680020185538BD4FF0FF3090
:10453000FBE700BFE817002000B587B04FF0000C84
:1045400080F800C0013A072A00F28780DFE802F015
:1045500004162545356575550493414B0393414B2E
:104560001B680293404B0193404B0093404B414AE0
:1045700016F0A4FD002007B05DF804FB04933E4B49
:104580000393384A12680292374A01920093384BDB
:10459000384A16F093FD0020EDE70493374B039360
:1045A000304B1B680293304B0193354B0093304BDB
:1045B000304A16F083FD0020DDE70493314B03936E
:1045C000284B1B680293284B01932D4B0093284BDB
:1045D000284A16F073FD0020CDE704932A4B03937D
:1045E000204B1B680293204B0193254B0093204BDB
:1045F000204A16F063FD0020BDE70493234B03938C
:10460000184B1B680293184B01931D4B0093184BDA
:10461000184A16F053FD0020ADE704931C4B03939A
:10462000104B1B680293104B0193154B0093104BDA
:10463000104A16F043FD00209DE70493154B0393A9
:10464000084B1B680293084B01930D4B0093084BDA
:10465000084A16F033FD00208DE74FF0FF308AE75F
:10466000986D0308EC170020A06D0308A86D0308DF
:1046700074000020806D0308EC6A0308B86D03081D
:10468000C06D0308C86D0308D06D0308D86D03081A
:10469000E86D0308F86D03082DE9F04F99B0179005
:1046A0000D4617461C460A46002117F031FA7A1EBD
:1046B000072A00F2BA81DFE812F008004300A100E7
:1046C000EA00C5006E019301490101218020FFF736
:1046D000E1FE07460094804B804A802116F0EEFCF4
:1046E0007F4B1A687F4B1B6814937F4B13937F4B50
:1046F00012937F4B11937F4B10937F4B0F930E922E
:104700007E4B0D937E490C910B947E490A91099240
:10471000089307977C4806900594049103940291AE
:1047200001920093794B7A4A2946179816F0C6FCF5
:104730000446384605F0E2FAE0B219B0BDE8F08F61
:1047400001218020FFF7A6FE074601218020FFF708
:10475000A1FE8046DFF8F09100944B466D4A80211F
:10476000384616F0ABFCDFF894A1654E029601972F
:10477000DFF86CB1DBF8003000935346664A8021C5
:10478000404616F09BFC0094644B544A8021384606
:1047900016F094FCDBF80030524A12681492524A28
:1047A0001392524A1292524A1192524A1092524A0B
:1047B0000F920E93CDF834A00C960B94CDF8289060
:1047C0000993CDF820A00797CDF818800594CDF86F
:1047D00010900394CDF808900193CDF800A04B46BB
:1047E0004B4A2946179816F069FC0446384605F0EE
:1047F00085FA404605F082FAE0B29EE7384B196828
:104800003E4B474A37480068109037480F9037486A
:104810000E9037480D9037480C9037480B900A910E
:104820000993404808900792069105933E480490EA
:104830003E48039002923E480190009134491798F7
:1048400016F0A4FD264B19682C4B3A4A25480068FF
:10485000109025480F9025480E9025480D9025482A
:104860000C9025480B900A910993334808900792C1
:1048700006910593314804902348039002922C48F6
:10488000019000912249179816F080FDDAE7144B49
:1048900019681A4B1D4A13480068109012480F906F
:1048A00012480E9012480D9012480C9012480B902E
:1048B0000A9109932248089007920691059321488E
:1048C00004901148039002921948019000911049F8
:1048D000179816F05BFDB5E7006E03080C6E030831
:1048E000EC170020E8170020146E0308186E030868
:1048F0001C6E03082C6E0308406E0308A06D0308AD
:10490000BC5B0308986D030874920308D06D03081C
:10491000A46F03084C6E03087C6F0308546E0308F1
:10492000B86D0308686E03086C6E03087C6E03089C
:10493000A06E0308C86D0308A86E0308AC6E0308D8
:10494000BC6E0308C06E0308EC6A0308384B196894
:10495000384B394A39480068109039480F90394827
:104960000E9039480D9039480C9039480B900A91B7
:1049700009933848089007920691059336480490A9
:1049800036480390029236480190009135491798B5
:1049900016F0FCFC56E7264B1968264B324A27488E
:1049A0000068109026480F9026480E9026480D90DB
:1049B00026480C9026480B900A9109932B480890A2
:1049C0000792069105932A48049024480390029286
:1049D0002348019000912349179816F0D7FC31E73E
:1049E000134B1968134B234A14480068109014485D
:1049F0000F9014480E9014480D9014480C901448D1
:104A00000B900A9109931C48089007920691059310
:104A10001A480490114803900292114801900091A5
:104A20001049179816F0B2FC0CE74FF0FF3084E6FF
:104A3000EC170020A06D0308D86D0308E8170020CC
:104A4000146E0308186E03081C6E03082C6E03080E
:104A5000406E0308E46E0308E86E030874920308CE
:104A6000A06E0308A46F0308E86D0308086F03082D
:104A70000C6F0308F86D0308386F03083C6F0308D8
:104A800030B583B01C469DF81850012A0BD0022A7D
:104A90000BD10A4B5DB10A4A01920094094A16F003
:104AA0000DFB03B030BD084BF4E70023F2E7074AE3
:104AB00001920094034A16F001FBF2E7EC6A030846
:104AC000A46B03086C6F0308986D0308BC6B0308A4
:104AD00000B585B00293064B0193064B1B6800930B
:104AE000054B064A16F0EAFA05B05DF804FB00BF74
:104AF000EC6A0308EC170020A06D0308486F030858
:104B000000B585B04FF0000C80F800C0012A06D037
:104B1000022A0FD04FF0FF3005B05DF804FB02937E
:104B20000A4B01930A4B1B6800930A4B0A4A16F082
:104B3000C5FAF1E70293094B0193054B1B680093FB
:104B4000044B054A16F0BAFAE6E700BF986D030871
:104B5000EC170020A06D0308586F0308EC6A0308E7
:104B600008B5084B1B682BB1064B186808B114F048
:104B7000E3F808BD044A194614F0B0F9014B186077
:104B8000F2E700BFF01700208D4B010870B5122925
:104B900002D0092946D070BD144626490120FDF7F0
:104BA00003F914F005F806460D46234B1B68012B4C
:104BB00020DC32462B4621490120FDF7F5F8256817
:104BC000646810F0A4FB281A4FF47A724FF00003C7
:104BD00064EB0101FCF7C0F8194BC3E90001164B67
:104BE0001B68012B12DC2A46234616490120FDF7DB
:104BF000DBF8D0E7144B1B221449022010F08CFB89
:104C000032462B460D480EF071FAD2E70E4B2122A8
:104C10000E49022010F080FB2A4623460C480EF075
:104C200065FAE0E70B490120FDF7BEF80A4B0022C8
:104C30001A60B0E724710308A80000206871030817
:104C4000F8170020C07103081C720308487103089C
:104C50009C710308E4710308F017002030B585B09B
:104C600004460D490120FDF79FF802940B4D019574
:104C70000023009344F62062002320460FF0F6FD47
:104C80000294019501230093054A002320460FF06A
:104C9000EDFD05B030BD00BF00720308614B010897
:104CA000C07A100038B501FB00F4204604F0A4FFE0
:104CB000054618B12246002116F02AFF284638BDC5
:104CC00070B588B005460C4617490020FDF76CF812
:104CD00006AE164930460EF0E7FB0023009396E837
:104CE0000C0094E803000EF001FEA8B1104B1B6805
:104CF0000593104B1B6804930F4B03930F4B0293C8
:104D00000F4B01930F4B00930F4B104AC8212846BD
:104D10000EF040FA08B070BD0D4B0C4A4FF4C8714C
:104D200028460EF037FAF5E720720308C05B030847
:104D30000C18002014180020146E03082C6E0308B1
:104D40001C6E0308406E030828750308BC5B03084B
:104D50006060030810B5044605490020FDF724F8FB
:104D6000044B054A4FF4CA7120460EF013FA10BDE9
:104D70004072030858720308BC5B03080B2900D07B
:104D8000704770B586B00546144617490020FDF7F8
:104D90000BF802AE154930460EF086FB0023009357
:104DA00096E80C0004F1080103C90EF09FFD28B13C
:104DB00021462846FFF784FF06B070BD04AE0C49BB
:104DC00030460EF071FB0023009396E80C0004F1CE
:104DD000080103C90EF08AFD0028EDD021462846BF
:104DE000FFF7B8FFE8E700BF84720308AC7203085E
:104DF000C472030810B584B002460846140E8DF83C
:104E00000F40110C8DF80E10130A8DF80D308DF82F
:104E10000C200194C9B20091DBB2D2B2024916F063
:104E2000B5FA04B010BD00BFC872030870B584B0F5
:104E300006461E490020FCF7B7FF1D4B1868FBF71C
:104E40002FFA0446012100F23910FFF72BFF194A0F
:104E5000106030B3184B1B68184D29689868FFF72D
:104E6000C9FF134B1B680293154B01932B680093EA
:104E7000144B154A04F59C710E48006816F01EF993
:104E80004EB10C4B1C682046FBF70AFA024621463D
:104E9000304611F0F5FA074B186804F02FFF04B004
:104EA00070BD0A490320FCF77FFFF8E7D4720308BE
:104EB0001418002010180020041800200C180020DE
:104EC000247303081C73030830740308EC7203088E
:104ED000072900D0704770B588B004461A490020F1
:104EE000FCF762FF194B1B6802AD1A6C996B2846E0
:104EF0000EF0E6FA04AE164930460EF0D5FA00235D
:104F0000009396E80C0095E803000EF0EFFC18B94A
:104F10000023236408B070BD06AD0E4928460EF08C
:104F2000C3FA0023009395E80C0002A903C90EF010
:104F3000DDFC0028ECD008490020FCF735FF034BCE
:104F40001868FFF773FFE3E72C73030800180020CD
:104F5000607303086C7303087C73030810B50C4975
:104F60000020FCF721FF00231A460A490A4800687E
:104F700012F05AFF30B10446FFF758FF204611F0F7
:104F80003DF910BD05490320FCF70EFFF9E700BF0E
:104F9000AC730308CC76030808180020C473030818
:104FA00070B506460D4610490020FCF7FDFED6B14F
:104FB000CDB10E4B186808B104F0A0FE68000121C5
:104FC0000844FFF76FFE094B186060B1002408E049
:104FD000064B1868325D064900EB440016F0D6F91E
:104FE0000134A542F4D870BDEC73030814180020F6
:104FF000786D030830B585B0184B1860184B1960F0
:1050000001212820FFF74EFE164B186018B3144DEF
:1050100006212868FFF7C4FF13490120FCF7C4FEEE
:105020000E4C00230293114B0193032300934EF681
:105030006022002320680FF019FC2B680C4A0D49F0
:10504000206811F0B5F92B680B4A0C49206811F063
:105050002BF90B4B186005B030BD00BF08180020BD
:10506000041800200C180020007403085D4F01088C
:105070007D4D010818740308D14E0108CC76030851
:10508000001800207047000008B5024B5B68984785
:1050900008BD00BF5818002010B458B10446094894
:1050A000C46059B10748016106494A608B605DF8E8
:1050B000044B70470348044CC460F2E701490248BE
:1050C0000861F1E7581800208550010808B5024B27
:1050D000DB68984708BD00BF5818002008B5024B90
:1050E0001B69984708BD00BF5818002000B583B061
:1050F000054B5B6801210DF1070098479DF80700FB
:1051000003B05DF804FB00BF5818002008B5024B3F
:105110009B68984708BD00BF5818002008B5FFF7E6
:10512000D5FF6620FFF7F2FF9920FFF7EFFFFFF7AB
:10513000D5FF08BD08B5642000F016FAFFF7EEFFB2
:10514000642000F011FA642000F00EFA08BD70B57A
:1051500006460C461546FFF7B9FF102D17D90B2050
:10516000FFF7D4FFC4F30740FFF7D0FFC4F30720D5
:10517000FFF7CCFFE0B2FFF7C9FF0020FFF7C6FF43
:1051800029463046FFF780FFFFF7A8FF70BD0320D8
:10519000FFF7BCFFC4F30740FFF7B8FFC4F30720D5
:1051A000FFF7B4FFE0B2FFF7B1FF04E0FFF79EFFA7
:1051B00006F8010B25466B1E9CB2002DF6D1E3E7E5
:1051C00070B5FFF783FFFFF789FFFFF77FFFFFF75A
:1051D00085FFFFF77BFF9F20FFF798FFFFF786FF14
:1051E0000646FFF783FF0446FFF780FF0546FFF7FB
:1051F00075FF240244EA064444EA050070BD00003D
:1052000038B50546FFF796FFFFF7DAFF524B984295
:1052100000F08580C0F09C80504B984200F298804E
:10522000033B9842C0F094804D4B0344032B00F2A3
:105230008F80DFE803F0022B445D4A4C4A4B236029
:105240000123A380E3804FF4805323814FF48073C4
:1052500063814FF40073A3813122444904F10E00AD
:1052600016F09DFC002384F83F30AC463D4C0FCC3B
:10527000ACE80F000FCCACE80F000FCCACE80F008F
:1052800094E80F008CE80F00284638BD354C384BA9
:1052900023600123A380E3804FF4805323814FF4E4
:1052A000807363814FF48063A3813122314904F11B
:1052B0000E0016F074FC002384F83F30D5E7294C2B
:1052C0002D4B23600123A380E3804FF4805323817F
:1052D0004FF4807363814FF40063A3813122274927
:1052E00004F10E0016F05BFC002384F83F30BCE7AD
:1052F0001C4C1A4B23600123A380E3804FF480539E
:1053000023814FF480726281A38131221C4904F110
:105310000E0016F044FC002384F83F30A5E7114C42
:105320000D4B23600123A380E3804FF4805323813E
:105330004FF4807363814FF48063A381312211495C
:1053400004F10E0016F02BFC002384F83F308CE7AC
:10535000044B00221A6088E71620C2001840EF00B4
:10536000EBBF10FF181800201540EF00E876030887
:105370001640EF00F07603081740EF00F8760308B8
:10538000007703080877030808B5FFF79FFE06209B
:10539000FFF7BCFEFFF7A2FE08BD000038B5094DBF
:1053A000FFF794FE0520FFF7B1FEFFF79FFE0446CE
:1053B000FFF794FE2B46013D13B114F0010FEFD11E
:1053C00038BD00BFA086010010B50446FFF7DCFF22
:1053D000FFF77CFE2020FFF799FEC4F30740FFF79C
:1053E00095FEC4F30720FFF791FEE0B2FFF78EFEB3
:1053F000FFF774FEFFF7D2FF10BD70B506460C46EE
:105400001546FFF7C1FFFFF761FE0220FFF77EFEA2
:10541000C4F30740FFF77AFEC4F30720FFF776FED8
:10542000E0B2FFF773FE04E016F8010BFFF76EFE23
:1054300025466B1E9CB2002DF6D1FFF74FFEFFF7FD
:10544000ADFF70BD2DE9F84305460C461746CBB2BB
:10545000110AD3B971B92146FFF7CFFF13E04FF41A
:10546000807221462846FFF7C8FF04F5807405F5D1
:10547000807531464B1EDEB20029F0D1FAB22146CA
:105480002846FFF7BAFFBDE8F883C3F100085FFACA
:1054900088F8D2B2A1B990450DD21344DEB242468B
:1054A0002146FFF7AAFF324608EB040105EB08008E
:1054B000FFF7A3FFE7E73A462146FFF79EFFE2E743
:1054C000A7EB08071FFA87F9C7F30726FFB2424682
:1054D0002146FFF792FF444445440AE04FF48072AE
:1054E00021462846FFF789FF04F5807405F580758D
:1054F0004646731E5FFA83F8002EEFD1002FC2D00C
:105500005FFA89F221462846FFF777FFBBE70000E4
:1055100008B50B4B1A6842F400721A601A6842F41C
:1055200080621A601A6842F480721A60032000F0E8
:1055300083F80F20FCF726FEFCF702FE002008BDD2
:10554000003C0240034A1168034B1B780B44136074
:10555000704700BF6C18002082000020014B1868C3
:10556000704700BF6C18002038B50446FFF7F6FFFF
:105570000546B4F1FF3F02D0044B1B781C44FFF7F3
:10558000EDFF401BA042FAD338BD00BF82000020CF
:10559000002807DB00F01F02400901239340024A64
:1055A00042F82030704700BF00E100E0002808DB2F
:1055B0000901C9B200F1604000F5614080F80013B4
:1055C000704700F00F000901C9B2014B1954704730
:1055D00014ED00E000B500F00700C0F1070CBCF1CD
:1055E000040F28BF4FF0040C031D062B0FD9C31E58
:1055F0004FF0FF3E0EFA0CF021EA000199400EFA3E
:1056000003FE22EA0E0241EA02005DF804FB0023D9
:10561000EEE70000BFF34F8F0549CA6802F4E0626D
:10562000044B1343CB60BFF34F8F00BFFDE700BFB8
:1056300000ED00E00400FA05074AD36823F4E063B4
:105640001B041B0C000200F4E060034343F0BF6343
:1056500043F40033D360704700ED00E010B504461A
:10566000054BD868C0F30220FFF7B4FF014620467F
:10567000FFF79CFF10BD00BF00ED00E008B5FFF78D
:1056800087FF08BD08B5FFF7C5FF000000230F2BFB
:1056900000F2D78070B582B065E085684FEA430EAE
:1056A000032404FA0EF425EA0405CC6804FA0EF487
:1056B0002C438460446824EA02044A68C2F300125E
:1056C0009A40224342605CE0DC08083450F8242011
:1056D00003F00705AD004FF00F0E0EFA05FE22EAAB
:1056E0000E0E0A69AA4042EA0E0240F824205CE04D
:1056F000042200E0002202FA0EF22A430234514D45
:1057000045F82420504A94686FEA0C0224EA0C05FC
:105710004E6816F4801F01D04CEA04054A4CA5607F
:10572000E46802EA04054E6816F4001F01D04CEA52
:105730000405454CE560646802EA04054E6816F409
:10574000003F01D04CEA04053F4C656024682240CC
:105750004D6815F4803F01D04CEA04023A4C2260B7
:1057600001330F2B6BD801229A400C6804EA020C1B
:1057700032EA0404F4D14C6804F00304013C012C27
:105780008BD94A6802F00302032A09D0C4685D007D
:105790000322AA4024EA02048A68AA402243C26083
:1057A0004A6802F00302022A8ED004684FEA430ED0
:1057B000032202FA0EF224EA02044A6802F003020B
:1057C00002FA0EF2224302604A6812F4403FC7D048
:1057D000002201921D4A546C44F480445464526C7B
:1057E00002F480420192019A9C08A51C154A52F8C5
:1057F000255003F0030E4FEA8E0E0F2202FA0EF22E
:1058000025EA0205124A90423FF474AF02F5806225
:1058100090420ED002F5806290420CD002F5806278
:1058200090420AD002F5806290423FF461AF0722B5
:1058300061E701225FE702225DE703225BE702B036
:1058400070BD704700380140003C01400038024004
:105850000000024000230F2B7CD8F0B52DE004257A
:1058600000E0002505FA0CF5A54257D004685D005C
:105870004FF0030C0CFA05FC24EA0C0404604FEA18
:10588000D30E0EF1080E50F82E4003F00706B600B6
:105890000F25B54024EA050440F82E40C46824EAE8
:1058A0000C04C460446824EA02024260826822EA6E
:1058B0000C02826001330F2B4BD801229A4002EA7E
:1058C000010632EA0104F5D14FEA930E0EF102050A
:1058D000214C54F8254003F0030C4FEA8C0C0F25A3
:1058E00005FA0CF73C401D4DA842BAD005F580657D
:1058F000A8420DD005F58065A8420BD005F580655E
:10590000A84209D005F58065A842A8D00725A9E7D7
:105910000125A7E70225A5E70325A3E7104C256885
:1059200025EA06052560656825EA06056560E568DF
:1059300025EA0605E560A56825EA0605A560064E88
:105940000EF1020456F8245025EA070546F82450C3
:105950008CE7F0BD704700BF0038014000000240F6
:10596000003C01400369194201D00120704700202A
:1059700070470AB18161704709048161704703680B
:105980005A6912F4806F01D1002070476FF4806271
:105990005A6100230363202280F83D2080F83E30C6
:1059A000026C42F00402026480F83C30012070472F
:1059B0002DE9F04106460C46174698463BE0FFF7B6
:1059C000CDFD069BC01A404502D8B8F1000F32D178
:1059D000012D18D033689B6924EA03039BB2B3FA04
:1059E00083F35B099F4226D100233363202286F88C
:1059F0003D2086F83E30326C42F02002326486F858
:105A00003C30012027E033685B6924EA03039BB242
:105A1000B3FA83F35B09E5E733685B6924EA030CB7
:105A20001FFA8CFCBCFA8CFC4FEA5C1C674511D158
:105A3000B8F1FF3FC3D1C4F30745012DECD0336863
:105A40009B6924EA030C1FFA8CFCBCFA8CFC4FEA1D
:105A50005C1CEBE70020BDE8F0812DE9F84305462A
:105A60000E469046994653E01A6842F400721A6056
:105A70002B686FF480625A6100232B63202285F823
:105A80003D2085F83E302A6C42F004022A6485F8F5
:105A90003C3001204AE0FFF761FDA0EB09004045E2
:105AA00002D8B8F1000F33D1012F17D02B689B69B2
:105AB00026EA03039BB2003B18BF012343B3002334
:105AC0002B63202285F83D2085F83E302A6C42F079
:105AD00020022A6485F83C30012027E02B685B69AE
