:020000040801F1
:100000000000022051270108652601086726010823
:10001000692601086B2601086D2601080000000012
:10002000000000000000000000000000C1AC01085A
:100030006F2601080000000061AD0108218B010856
:10004000A1270108A1270108A1270108A12701086C
:10005000A1270108A1270108A1270108A12701085C
:10006000A1270108A1270108A1270108A12701084C
:10007000A1270108A1270108A1270108A12701083C
:10008000A1270108A1270108A127010800000000FD
:10009000000000000000000000000000A12701088F
:1000A00071260108A1270108A1270108A12701083D
:1000B000A1270108A1270108A1270108A1270108FC
:1000C000A1270108A1270108A1270108A1270108EC
:1000D000A1270108A1270108A127010800000000AD
:1000E000A1270108A1270108A1270108000000009D
:1000F000000000000000000000000000A12701082F
:1001000000000000A1270108A1270108A12701087C
:1001100000000000000000000000000000000000DF
:10012000A1270108A1270108A1270108A12701088B
:10013000A1270108000000000000000000000000EE
:10014000000000000000000000000000A1270108DE
:10015000A1270108A1270108A1270108A12701085B
:10016000A1270108A12701080000000000000000ED
:10017000000000000000000000000000000000007F
:1001800000000000A127010800000000000000009E
:08019000A1270108A1270108C5
:1001A00010B5054C237833B9044B13B10448AFF3B1
:1001B00000800123237010BD7008002000000000A3
:1001C000EC63030808B5034B1BB103490348AFF3C5
:1001D000008008BD0000000074080020EC630308E4
:1001E00010F8012B11F8013B012A28BF9A42F7D0E1
:1001F000D01A70470000000000000000000000005E
:1002000001F0FF01102A2BDB10F0070F08D010F8C7
:10021000013B013A8B422DD010F0070F42B3F6D1CB
:10022000F0B441EA012141EA014122F007047FF0E4
:1002300000070023F0E80256083C85EA010586EA3B
:10024000010685FA47F5A3FA87F586FA47F6A5FA77
:1002500087F68EB9EED1F0BC01F0FF0102F0070283
:1002600032B110F8013B013A83EA010313B1F8D12E
:100270000020704701387047002D06BF354603380F
:10028000073815F0010F07D1013015F4807F02BF48
:10029000013015F4C03F0130F0BC0138704700BF99
:1002A000034613F8012B002AFBD1181A01387047B6
:1002B00081F0004102E000BF83F0004330B54FEA17
:1002C00041044FEA430594EA050F08BF90EA020F84
:1002D0001FBF54EA000C55EA020C7FEA645C7FEA17
:1002E000655C00F0E2804FEA5454D4EB5555B8BF3A
:1002F0006D420CDD2C4480EA020281EA030382EAAB
:10030000000083EA010180EA020281EA0303362D3C
:1003100088BF30BD11F0004F4FEA01314FF4801C0F
:100320004CEA113102D0404261EB410113F0004F21
:100330004FEA03334CEA133302D0524263EB4303D8
:1003400094EA050F00F0A780A4F10104D5F1200E76
:100350000DDB02FA0EFC22FA05F2801841F10001D1
:1003600003FA0EF2801843FA05F359410EE0A5F1A5
:1003700020050EF1200E012A03FA0EFC28BF4CF0D6
:10038000020C43FA05F3C01851EBE37101F000458C
:1003900007D54FF0000EDCF1000C7EEB00006EEB99
:1003A0000101B1F5801F1BD3B1F5001F0CD3490823
:1003B0005FEA30004FEA3C0C04F101044FEA44527A
:1003C00012F5800F80F09A80BCF1004F08BF5FEA01
:1003D000500C50F1000041EB045141EA050130BDE1
:1003E0005FEA4C0C404141EB0101013C28BFB1F5F3
:1003F000801FE9D291F0000F04BF01460020B1FA3E
:1004000081F308BF2033A3F10B03B3F120020CDA10
:100410000C3208DD02F1140CC2F10C0201FA0CF0EE
:1004200021FA02F10CE002F11402D8BFC2F1200C53
:1004300001FA02F120FA0CFCDCBF41EA0C01904009
:10044000E41AA2BF01EB0451294330BD6FEA040452
:100450001F3C1CDA0C340EDC04F11404C4F120023D
:1004600020FA04F001FA02F340EA030021FA04F34F
:1004700045EA030130BDC4F10C04C4F1200220FAA6
:1004800002F001FA04F340EA0300294630BD21FAE4
:1004900004F0294630BD94F0000F83F4801306BFAA
:1004A00081F480110134013D4EE77FEA645C18BF9E
:1004B0007FEA655C29D094EA050F08BF90EA020F35
:1004C00005D054EA000C04BF1946104630BD91EA2D
:1004D000030F1EBF0021002030BD5FEA545C05D130
:1004E0004000494128BF41F0004130BD14F580046F
:1004F0003CBF01F5801130BD01F0004545F0FE41E3
:1005000041F470014FF0000030BD7FEA645C1ABF17
:10051000194610467FEA655C1CBF0B46024650EA4E
:10052000013406BF52EA033591EA030F41F400217A
:1005300030BD00BF90F0000F04BF0021704730B500
:100540004FF4806404F132044FF000054FF00001D5
:1005500050E700BF90F0000F04BF0021704730B596
:100560004FF4806404F1320410F0004548BF40426B
:100570004FF000013EE700BF42004FEAE2014FEAC0
:1005800031014FEA02701FBF12F07F4393F07F4F9B
:1005900081F06051704732F07F4208BF704793F09E
:1005A0007F4F04BF41F40021704730B54FF46074B1
:1005B00001F0004521F000411CE700BF50EA0102B4
:1005C00008BF704730B54FF000050AE050EA01025D
:1005D00008BF704730B511F0004502D5404261EBCD
:1005E00041014FF4806404F132045FEA915C3FF40E
:1005F000D8AE4FF003025FEADC0C18BF03325FEAAB
:10060000DC0C18BF033202EBDC02C2F1200300FA5B
:1006100003FC20FA02F001FA03FE40EA0E0021FA80
:1006200002F11444BDE600BF70B54FF0FF0C4CF46E
:10063000E06C1CEA11541DBF1CEA135594EA0C0F20
:1006400095EA0C0F00F0DEF82C4481EA030621EA5B
:100650004C5123EA4C5350EA013518BF52EA033596
:1006600041F4801143F4801338D0A0FB02CE4FF048
:100670000005E1FB02E506F00042E0FB03E54FF078
:100680000006E1FB03569CF0000F18BF4EF0010E70
:10069000A4F1FF04B6F5007F64F5407404D25FEA6C
:1006A0004E0E6D4146EB060642EAC62141EA55511F
:1006B0004FEAC52040EA5E504FEACE2EB4F1FD0C61
:1006C00088BFBCF5E06F1ED8BEF1004F08BF5FEADF
:1006D000500E50F1000041EB045170BD06F0004691
:1006E00046EA010140EA020081EA0301B4EB5C043E
:1006F000C2BFD4EB0C0541EA045170BD41F4801136
:100700004FF0000E013C00F3AB8014F1360FDEBF5A
:10071000002001F0004170BDC4F10004203C35DA36
:100720000C341BDC04F11404C4F1200500FA05F3B9
:1007300020FA04F001FA05F240EA020001F000425A
:1007400021F0004110EBD37021FA04F642EB0601D0
:100750005EEA430E08BF20EAD37070BDC4F10C04FA
:10076000C4F1200500FA04F320FA05F001FA04F2BE
:1007700040EA020001F0004110EBD37041F10001AA
:100780005EEA430E08BF20EAD37070BDC4F12005B5
:1007900000FA05F24EEA020E20FA04F301FA05F21D
:1007A00043EA020321FA04F001F0004121FA04F2C5
:1007B00020EA020000EBD3705EEA430E08BF20EA95
:1007C000D37070BD94F0000F0FD101F000464000CF
:1007D00041EB010111F4801F08BF013CF7D041EA51
:1007E000060195F0000F18BF704703F00046520055
:1007F00043EB030313F4801F08BF013DF7D043EA26
:100800000603704794EA0C0F0CEA135518BF95EADB
:100810000C0F0CD050EA410618BF52EA4306D1D162
:1008200081EA030101F000414FF0000070BD50EA81
:10083000410606BF1046194652EA430619D094EA0B
:100840000C0F02D150EA013613D195EA0C0F05D1F5
:1008500052EA03361CBF104619460AD181EA030149
:1008600001F0004141F0FE4141F470014FF0000001
:1008700070BD41F0FE4141F4780170BD70B54FF09C
:10088000FF0C4CF4E06C1CEA11541DBF1CEA13551C
:1008900094EA0C0F95EA0C0F00F0A7F8A4EB0504FE
:1008A00081EA030E52EA03354FEA013100F08880F5
:1008B0004FEA03334FF0805545EA131343EA1263BE
:1008C0004FEA022245EA111545EA10654FEA002673
:1008D0000EF000419D4208BF964244F1FD0404F52C
:1008E000407402D25B084FEA3202B61A65EB030588
:1008F0005B084FEA32024FF480104FF4002CB6EB45
:10090000020E75EB030E22BFB61A754640EA0C00C4
:100910005B084FEA3202B6EB020E75EB030E22BF04
:10092000B61A754640EA5C005B084FEA3202B6EB45
:10093000020E75EB030E22BFB61A754640EA9C0004
:100940005B084FEA3202B6EB020E75EB030E22BFD4
:10095000B61A754640EADC0055EA060E18D04FEA92
:10096000051545EA16754FEA06164FEAC30343EA32
:1009700052734FEAC2025FEA1C1CC0D111F4801FFF
:100980000BD141EA00014FF000004FF0004CB6E7F8
:1009900011F4801F04BF01430020B4F1FD0C88BF97
:1009A000BCF5E06F3FF6AFAEB5EB030C04BFB6EBA2
:1009B000020C5FEA500C50F1000041EB045170BD95
:1009C0000EF0004E4EEA113114EB5C04C2BFD4EBC2
:1009D0000C0541EA045170BD41F480114FF0000E46
:1009E000013C90E645EA060E8DE60CEA135594EAC2
:1009F0000C0F08BF95EA0C0F3FF43BAF94EA0C0FC5
:100A00000AD150EA01347FF434AF95EA0C0F7FF439
:100A100025AF104619462CE795EA0C0F06D152EA8D
:100A200003353FF4FDAE1046194622E750EA410671
:100A300018BF52EA43067FF4C5AE50EA41047FF482
:100A40000DAF52EA43057FF4EBAE12E74FF0FF3CE7
:100A500006E000BF4FF0010C02E000BF4FF0010CB8
:100A60004DF804CD4FEA410C7FEA6C5C4FEA430C31
:100A700018BF7FEA6C5C1BD001B050EA410C0CBF80
:100A800052EA430C91EA030F02BF90EA020F0020E2
:100A9000704710F1000F91EA030F58BF994208BF49
:100AA00090422CBFD8176FEAE37040F00100704706
:100AB0004FEA410C7FEA6C5C02D150EA013C07D15D
:100AC0004FEA430C7FEA6C5CD6D152EA033CD3D0A8
:100AD0005DF8040B704700BF8446104662468C46A2
:100AE0001946634600E000BF01B5FFF7B7FF0028D5
:100AF00048BF10F1000F01BD4DF808EDFFF7F4FFFE
:100B00000CBF012000205DF808FB00BF4DF808ED88
:100B1000FFF7EAFF34BF012000205DF808FB00BFAB
:100B20004DF808EDFFF7E0FF94BF012000205DF8CD
:100B300008FB00BF4DF808EDFFF7CEFF94BF012082
:100B400000205DF808FB00BF4DF808EDFFF7C4FF7B
:100B500034BF012000205DF808FB00BF4FEA410CC4
:100B60007FEA6C5C02D150EA013C0AD14FEA430CA7
:100B70007FEA6C5C02D152EA033C02D14FF00000E4
:100B800070474FF0010070474FEA410212F5001222
:100B900015D211D56FF47873B3EB625212D94FEAC4
:100BA000C12343F0004343EA505311F0004F23FAAE
:100BB00002F018BF404270474FF00000704750EA03
:100BC000013005D111F0004008BF6FF000407047C0
:100BD0004FF00000704700BF4A0011D212F500121A
:100BE00011D20DD56FF47873B3EB62520ED44FEA85
:100BF000C12343F0004343EA505323FA02F0704705
:100C00004FF00000704750EA013002D14FF0FF3042
:100C100070474FF0000070474FEA4102B2F1E043E5
:100C200024BFB3F5001CDCF1FE5C0DD901F0004CD3
:100C30004FEAC0024CEA5070B2F1004F40EB830023
:100C400008BF20F00100704711F0804F21D113F14F
:100C50003872BCBF01F00040704741F480114FEA88
:100C60005252C2F11802C2F1200C10FA0CF320FA11
:100C700002F018BF40F001004FEAC1234FEAD3232E
:100C800003FA0CFC40EA0C0023FA02F34FEA430398
:100C9000CCE77FEA625307D150EA01331EBF4FF021
:100CA000FE4040F44000704701F0004040F0FE403C
:100CB00040F40000704700BF7BB972B90029BEBF85
:100CC00000204FF0004106E008BF00281CBF6FF075
:100CD00000414FF0FF3000F0FFB9ADF1080C6DE9B5
:100CE00004CE002909DB002B1ADB00F097F8DDF8B1
:100CF00004E0DDE9022304B07047404261EB4101AA
:100D0000002B1BDB00F08AF8DDF804E0DDE90223AC
:100D100004B0404261EB4101524263EB4303704730
:100D2000524263EB430300F079F8DDF804E0DDE9BB
:100D3000022304B0404261EB41017047524263EB31
:100D4000430300F06BF8DDF804E0DDE9022304B0B2
:100D5000524263EB4303704753B94AB9002908BFB5
:100D600000281CBF4FF0FF314FF0FF3000F0B4B946
:100D7000ADF1080C6DE904CE00F050F8DDF804E0A8
:100D8000DDE9022304B07047430803F05533C01A6D
:100D9000830803F0333300F03330184400EB1010B5
:100DA00000F00F3000EB002000EB0040000E704719
:100DB00038B50022002304460D46FFF7A7FE28B9E8
:100DC00020462946BDE8384000F00AB8204605F123
:100DD000004100F005F8404261EB410138BD00BF21
:100DE000D0B50C4B002206460F46FFF71DFCFFF75F
:100DF000F3FE0446FFF79EFB074B0022FFF714FCAF
:100E000002460B4630463946FFF756FAFFF7E4FE36
:100E10002146D0BD0000F03D0000F0412DE9F04733
:100E2000089D0C46002B4ED194468C458646B2FA5E
:100E300082F262D94AB1C2F12003914020FA03F351
:100E40000CFA02FC194300FA02FE4FEA1C471FFA93
:100E50008CF6B1FBF7F44FEA1E4307FB141143EA8B
:100E6000014304FB06F199420AD91CEB030304F188
:100E7000FF3080F01281994240F20F81023C6344BE
:100E8000591A1FFA8EF3B1FBF7F007FB101143EA72
:100E9000014300FB06F69E420AD91CEB030300F156
:100EA000FF3180F0FC809E4240F2F98063440238BA
:100EB0009B1B40EA044000211DB1D3400022C5E93C
:100EC0000032BDE8F0878B4205D90DB1C5E90001BC
:100ED00000210846F5E7B3FA83F1002946D1A34281
:100EE00002D39042C0F0F080861A64EB0303012025
:100EF000002DE6D0C5E90063E3E7002A40F09080CA
:100F0000A1EB0C044FEA1C481FFA8CF70121B4FB3B
:100F1000F8F64FEA1E4308FB164443EA044307FB76
:100F200006F0984208D91CEB030306F1FF3402D205
:100F3000984200F2CD8026461C1A1FFA8EF3B4FBAD
:100F4000F8F008FB104443EA044300FB07F79F4214
:100F500008D91CEB030300F1FF3402D29F4200F2D8
:100F6000B0802046DB1B40EA0640A5E7C1F1200621
:100F70008B4022FA06F71F4320FA06FC04FA01F31D
:100F800043EA0C03F44000FA01F8380C4FEA134925
:100F9000B4FBF0FE1FFA87FC00FB1E4449EA044440
:100FA0000EFB0CF9A14502FA01F20AD93C190EF127
:100FB000FF3A80F08480A14540F28180AEF1020EBC
:100FC0003C44A4EB09041FFA83F9B4FBF0F300FBE3
:100FD000134449EA044403FB0CFCA44507D93C191B
:100FE00003F1FF3067D2A44565D9023B3C4443EA94
:100FF0000E40A0FB0293A4EB0C049C42CE469C4600
:1010000051D34ED055B1B8EB0E0364EB0C0404FA87
:1010100006F6CB401E43CC40C5E90064002150E7F2
:10102000C2F1200320FA03F10CFA02FC24FA03F3C4
:1010300094400C434FEA1C4800FA02FE1FFA8CF75A
:10104000B3FBF8F008FB1031230C43EA014300FB2B
:1010500007F1994208D91CEB030300F1FF362CD2AB
:1010600099422AD9023863445B1AA4B2B3FBF8F15F
:1010700008FB113344EA034401FB07F3A34208D9F8
:101080001CEB040401F1FF3613D2A34211D902393B
:101090006444E41A41EA004139E70446F0E60846B0
:1010A00006E7C845AED2B9EB020E63EB070C013878
:1010B000A8E73146EDE7034699E73046D4E7D64640
:1010C0007FE7634402384DE70646234608460FE7AC
:1010D000023E634430E700BF704700BF00B585B0F3
:1010E000002300930193029303931548154A02606D
:1010F0004FF44032426083600361037680F8203011
:10110000C362114A8262C3600122C26180F830303A
:10111000426105F02FFB68B912230093012301936C
:10112000002302936946064805F050FB28B905B034
:101130005DF804FB01F002F9EEE701F0FFF8F6E7D5
:101140008C080020002001400100000F0268094BBC
:101150009A4200D0704782B000230193064B5A6C2C
:1011600042F480725A645B6C03F480730193019BB8
:1011700002B07047002001400038024008B500224C
:101180004FF48051014805F0E8FD08BD000402401D
:1011900008B501224FF48051014805F0DEFD08BD7D
:1011A0000004024008B500224FF40041014805F058
:1011B000D4FD08BD0000024008B501224FF40041F3
:1011C000014805F0CAFD08BD0000024010B58EB010
:1011D0004A4B93E803000C90ADF834100DF1240C49
:1011E00003F1080494E807008CE80700143393E83F
:1011F00003000790ADF8201004AB94E8070083E8E3
:10120000070072E000231A4601A93D48006807F074
:101210005AFE00240EE000220EAB03EB440333F829
:10122000081C0EAB03EB840353F8140C05F095FD7A
:101230000134E4B2022C5ED804F138036B4413F895
:10124000343C002BE7D001220EAB03EB440333F810
:10125000081C0EAB03EB840353F8140C05F07DFD62
:10126000E6E70EAB03EB440203EB840332F8081C01
:1012700053F8140C05F06AFD04F138036B4403F8CD
:10128000300C0134E4B2022CEBD91E4C206807F07C
:1012900068FE00231A4602A9206807F0D2FD002448
:1012A00014E00EAB03EB440203EB840332F81C1C86
:1012B00053F8280C05F04AFDB0FA80F0400904F11B
:1012C00038036B4403F82C0C0134E4B2022CE8D947
:1012D0000D4C206807F045FE00231A4603A920683C
:1012E00007F0AFFD012007F0B4FC054B186807F0CC
:1012F0002BFE002886D10024C5E700BF0864030840
:10130000EC080020F0080020F408002084B008B5A4
:101310000DF1080C8CE80F0000231A4661460448C2
:10132000006807F08EFDBDE8084004B0704700BFBC
:10133000E408002070B5BAB0002339937E4B7F4A91
:101340007F49804804F0D0FE7F4980480AF0BAF80F
:1013500000283EDB7E480AF09FF87E4C20460AF0CB
:101360008FF87D480AF08CF820460AF095F87B4803
:101370000AF092F87A480AF08FF87A480AF08CF866
:1013800079480AF089F879480AF086F8002239A9E4
:10139000774809F0C9FF30B3012175480AF002F817
:1013A0000446C62207A90AF02DF820460AF01EF8C6
:1013B00000228DF81C20022307A96E48006807F060
:1013C000A7FF002239A96C4809F0AEFFC0B1002484
:1013D00089E06A4B01221A7040F6B83007F039FCF8
:1013E00005F044FBB6E7C622002107A81BF080FEEB
:1013F0000223002207A95F48006807F089FFE0E7A1
:1014000040F29A6009F028FE044690B35C4901203E
:1014100000F0EAFE5B4B186820609B88A38001AD5A
:10142000594E0FCE0FC596E8030045F8040B2970FE
:1014300001AD0FCDC4F88000C4F88410C4F8882032
:10144000C4F88C302868C4F890002B7984F8943064
:101450000221494809F0A6FF054640F29A6221465A
:1014600009F0DCFF284609F0C1FF204609F076FEAE
:10147000ADE74649032000F0B7FEF6E73C4D2846AD
:1014800009F0FEFF0221284609F08CFF05460028DE
:1014900033D0C62207A909F0C1FF284609F0A6FFEC
:1014A00000228DF81C20022307A93248006807F0AB
:1014B0002FFF22E0012007F0CCFB4FF4807134486D
:1014C00005F044FC0028F5D04FF47A7007F0C1FB1A
:1014D000294809F0D5FF05F0C9FA00E000244FF4CF
:1014E0007A7007F0B6FB002207A9224B186808F0B3
:1014F00022FA9DF81C30002BC0D14FF48071244893
:1015000005F024FC0028E9D10134E4B2204D012289
:101510000221284605F021FC642007F09AFB0022F6
:101520000221284605F019FC082CD8D101220221FD
:10153000284605F012FCC0E7151B0108391B0108FD
:10154000B9110108A5110108651B0108511B01080B
:10155000846603088C66030898660308A866030877
:10156000B466030868820308BC660308C4660308FF
:10157000CC660308E8080020E06603081009002094
:101580001C670308546703085C670308F0660308D8
:101590000004024008B5012914D002291AD001B173
:1015A00008BD4AB1012AFBD102230022014612489C
:1015B000006807F0ADFEF3E701460F4B186808F02E
:1015C000BAF9EDE7002AEBD101460C4B186808F098
:1015D000B2F9E5E74AB1012AE2D10223002201462D
:1015E0000748006807F094FEDAE70146054B1868E3
:1015F00008F0A1F9D4E700BFE8080020F4080020B3
:10160000EC080020F0080020F0B58BB04FF47A70A1
:1016100007F01FFB07F0B6F9642007F01AFB002162
:10162000012007F013F9002007F0D4F8A94B1C782B
:10163000002C48D1A84D01222946A84807F05AF9A4
:1016400001222946A64807F055F904F10B01C9B259
:10165000012007F0FBF801222946A24807F04AF9C9
:1016600004F11601C9B2012007F0F0F89E4B596849
:101670000A784B788878CE780F7949790391029768
:1016800001960090994905A81BF070F9012229469E
:1016900005A807F02FF904F12101C9B2012007F0D4
:1016A000D5F809F00BFF014605A81CF02BFF01221D
:1016B000294605A807F01EF907F00EFA40F6B830E3
:1016C00007F0C7FACEE00021012007F0BFF80020A4
:1016D00007F080F8804C01222146854807F00AF97E
:1016E0000A21012007F0B2F801222146814807F0C3
:1016F00001F91421012007F0A9F8012221467E48B2
:1017000007F0F8F807F0E8F940F6B83008F00CFEFA
:1017100014248FE713F1050F08D12821012007F0C9
:1017200095F801226C49754807F0E4F80021012082
:1017300007F08CF8684C01222146714807F0DAF86E
:10174000694B5B689A68130E0193C2F307430093D9
:10175000C2F30723D2B26B4905A81BF007F9012297
:10176000214605A807F0C6F80B21012007F06EF806
:1017700001222146644807F0BDF80B213D2007F007
:1017800065F800253D241FE02821012007F05EF8C0
:10179000012251495D4807F0ADF8C7E72821012033
:1017A00007F054F801224C49594807F0A3F8BDE767
:1017B0000122494905A807F09DF80834E4B20B213D
:1017C000204607F043F83546022D0FDC6E1C3246EA
:1017D000504905A81BF0CAF84F4B5B5D002BE7D0C2
:1017E00000223D4905A807F085F8E6E7162101200B
:1017F00007F02CF801223849484807F07BF81621F9
:101800003D2007F023F800253D240BE0012232495A
:1018100005A807F06FF80834E4B21621204607F057
:1018200015F83546022D10DC6E1C3246394905A8E4
:101830001BF09CF8384B2B44DB78002BE6D00022C1
:10184000254905A807F056F8E5E707F045F94FF4F4
:101850007A7301227821324805F0D4FD50BBC820AC
:1018600007F0F7F92C4C002201212046FFF792FEE9
:1018700000220221E01CFFF78DFE002006F0AAFFE7
:10188000284B93F9003013F10C0F87D03FF742AF8C
:1018900013F1540F3FF478AF13F1180F7FF446AFF4
:1018A0002821012006F0D2FF01220B491E4807F033
:1018B00021F83BE71A4805F0CFFC4FF47A7008F0A6
:1018C00033FD00F0E9FB4FF47A7008F02DFD07F0CE
:1018D00059F8BCE7100900200C010020A867030894
:1018E000B4670308C067030814090020CC67030825
:1018F000746703088867030894670308EC670308A4
:10190000286803082C6803083C680308F867030884
:101910001868030880BD0308D40800204468030841
:101920001C090020110900200868030830B5D1B057
:10193000534800F04DFC012000F050FC51490120BB
:1019400000F052FC03E04FF4FA7007F082F909F05E
:10195000AFFD0028F7D044F6206450E000231A467B
:1019600007A94948006807F0AEFA0221474809F084
:1019700019FD05469DF81D210DF11D0109F04EFDD3
:10198000434B1870284609F031FD3EE048A809F0A5
:1019900023FC4E9B04934D9B03934C9B02934B9BC8
:1019A00001934A9B0093499B489A3A49012000F0D1
:1019B0001BFC394B5B689A68130E0193C2F3074313
:1019C0000093C2F30723D2B23449012000F00CFC8B
:1019D00004F0E4FD02463249012000F005FC04F069
:1019E000E3FD02462F49012000F0FEFB04F0E2FD7A
:1019F00002462D49012000F0F7FB00240134224B60
:101A0000186807F0A1FA0028A8D14FF4FA7007F07F
:101A100020F944F620639C42F0D100224FA91B48D4
:101A200009F082FC4F9A4CF250339A42AED91F4CC7
:101A3000204609F025FD2146144809F015FD1C49F2
:101A4000012000F0D1FB144B59680A784B78887854
:101A5000CC780D794979039102950194009015494C
:101A6000012000F0C1FB09F029FD024612490120C6
:101A700000F0BAFB114A1249012000F0B5FB85E7DE
:101A80000D13010850680308E40800206468030887
:101A900011090020F8680308140900208C69030864
:101AA000A8690308C4690308E069030874680308A7
:101AB0008468030898680308C0680308DC680308A2
:101AC000E068030808B5064805F092FD4FF4FA7087
:101AD00007F0BFF80121034805F045F9F3E700BF1F
:101AE000700900200004024000B587B08DF80F1087
:101AF0004FF0FF33009301230DF117020DF10F0199
:101B0000034806F004FB9DF8170007B05DF804FBDE
:101B10008009002000B583B08DF807004FF0FF3337
:101B200001220DF10701034806F00FFA03B05DF83A
:101B300004FB00BFD809002008B50A464FF0FF3368
:101B40000146024806F00DFC08BD00BFD809002080
:101B500008B54FF0FF31024B186807F0D1F808BD07
:101B6000DC08002008B5024B186807F0F8F808BD3B
:101B7000DC08002008B52C4807F079F82B4B1860DA
:101B80002B4807F074F82B4B18602B4A03210120D7
:101B900007F00CF9294B1860294A0321012007F0AE
:101BA00005F9284B1860284A0321012007F0FEF8A8
:101BB000264B1860264AC621012007F0F7F8254B6E
:101BC0001860254A4FF481710F2007F0EFF8234B7E
:101BD0001860234A0021234806F0DCFF224B1860DE
:101BE000224A0021224806F0D5FF224B1860224AE3
:101BF0000021224806F0CEFF214B1860214A002127
:101C0000214806F0C7FF214B1860214A00212148D6
:101C100006F0C0FF204B1860204A0021204806F043
:101C2000B9FF204B186008BDDC6A0308E0080020FB
:101C3000CC6A0308DC0800204C6B0308F408002081
:101C4000346B0308F00800201C6B0308EC0800202C
:101C5000046B0308E8080020EC6A0308E40800208D
:101C6000186C0308D11C01080C090020F46B030850
:101C7000CD11010808090020D06B030809160108DE
:101C800004090020AC6B030835130108000900208B
:101C9000886B03082D190108FC080020646B0308F9
:101CA000C51A0108F808002008B500224FF4807119
:101CB000014805F052F808BD0000024008B50122B5
:101CC0004FF48071014805F048F808BD000002405B
:101CD00030B5EBB022AD644B0FCB85E80F0002AC02
:101CE0008022002120461BF003FA40238DF80830A3
:101CF00022238DF809305D4B1A7C8DF80A209A7CDE
:101D00008DF80B201A7D8DF80C201B7E8DF80D3080
:101D100001238DF827308DF82830554B0B930C9507
:101D2000544B58AA1A605C6003E04FF4FA7006F056
:101D300090FF09F0BDFB0028F7D058A811F0CAFFAA
:101D40004D4B03221A6002F071FF04460FE0FFF7CB
:101D5000ABFF4FF4FA7006F07CFFFFF7AFFF4FF4D4
:101D6000FA6006F076FF02A958A817F0E3FBBDF869
:101D70004C30002BEBD0062102A803F0C1FB3F48FA
:101D800002F062FF3B4B22463D4958A815F000FE89
:101D900006E0012158A818F067F9012006F059FF64
:101DA0009DF88430032BF4D1324B5B689A68130E94
:101DB0000193C2F307430093C2F30723D2B2314920
:101DC000012000F011FA0022114626A8FFF7E2FBDD
:101DD0009DF89930EBB12C49012000F005FA274B12
:101DE00001930DF23D13009347AB0DF19A0202A946
:101DF00058A803F0C3FA58A803F058FF02A958A83E
:101E000004F020F958A801F055F808F07FF90546CC
:101E100008E01E49012000F0E7F9ECE7012006F098
:101E200018FF254608F072F90446411B58A818F01F
:101E30001BF90B9BDB6802A898470028EED1FFF73F
:101E400033FF642006F005FFFFF738FF40F6B83097
:101E500006F0FFFE0B9B1B6802A8984741F658301E
:101E600006F0F7FEE5E700BF24640308007AFF1FD1
:101E700018010020140900202C01002095150108EC
:101E8000F46903088C690308086A0308206A0308D8
:101E90000BB2002B20DD70B582B0064615468B18BC
:101EA000042B02DD012002B070BD4C1EA4B2002242
:101EB000012101A8FFF76EFB0AE004F108036B445F
:101EC00013F8043C0122A1B2304600F049FE01346F
:101ED000A542F2DC0020E6E701207047F0B583B0B0
:101EE00016460AB2002A43DD05461F468B19042B0D
:101EF00041DC27B3012F39D101398CB200220221F4
:101F000001A8FFF747FB27460FE00122B9B2284698
:101F100000F05AFE01220021284600F055FE07F18C
:101F200008036B4403F8040C01373319BB42ECDCA3
:101F30000122022101A8FFF72DFB002019E04C1E11
:101F4000A4B20022022101A8FFF724FB0AE004F159
:101F500008036B4413F8043C0122A1B2284600F0A8
:101F6000FFFD0134A642F2DC384602E0012000E029
:101F7000012003B0F0BD0120FBE7012070470120E4
:101F8000704700002DE9F04389B0002403940494C5
:101F900005940694079400943C4B1A6B42F080021F
:101FA0001A631A6B02F080020092009A01941A6B75
:101FB00042F001021A631A6B02F001020192019AC7
:101FC00002941A6B42F002021A631B6B03F00203C5
:101FD0000293029B2E4E22464FF4F071304604F0DD
:101FE000BCFE2C4D22460721284604F0B6FE0122F5
:101FF0004FF48051284604F0B0FE01224FF4004116
:10200000304604F0AAFE4FF00709CDF80C90049476
:102010004FF00208CDF8148003A9304604F02AFDE1
:10202000E0230393012704970594069403A93046FF
:1020300004F020FDCDF80C9004970594069403A9B4
:10204000284604F017FD4FF480530393049705943A
:10205000CDF8188003A9284604F00CFD4FF4014385
:10206000039304970594CDF8188003A9304604F033
:1020700001FD4FF4807303930494059403A928464B
:1020800004F0F8FC09B0BDE8F08300BF003802405E
:10209000000002400004024008B50B480B4B0360EF
:1020A0000B4B436000238360C3604FF480420261A6
:1020B00043618361C361036204F0F0FF00B908BDAE
:1020C00000F03CF9FBE700BF1C0900200054004071
:1020D000400D030030B589B00023039304930593AA
:1020E000069307930268154B9A4201D009B030BDA0
:1020F00000250195124C236B43F002032363236BED
:1021000003F002030193019BC02303931223049362
:1021100001230593032306930423079303A9094886
:1021200004F0A8FC0295236C43F400132364236C91
:1021300003F400130293029BD8E700BF0054004051
:10214000003802400004024002680A4B9A4200D064
:10215000704710B5084A136C23F400131364074C3E
:102160004021204604F06AFD8021204604F066FDEF
:1021700010BD00BF0054004000380240000402407F
:1021800008B50748074B03600323436040F6FF731D
:10219000836005F001FA00B908BD00F0CFF8FBE755
:1021A000700900200030004084B08DE80F0004B0BA
:1021B000704738B501FB00F4204608F04DFF054696
:1021C00018B1224600211AF093FF284638BD0000BE
:1021D00008B1014A1060704700000020014B1870E0
:1021E000704700BF7C0900200EB4F0B5ADF51C7D32
:1021F000444B1B78834205D90DF51C7DBDE8F040AA
:1022000003B07047044601214FF48070FFF7D1FFFF
:1022100005460028F0D04FF4817200215BA81AF027
:1022200067FF8DF86C4117F0B3FFFEF7C7F906465C
:102230000F460022344BFEF721FBFEF7B9FDCDE936
:1022400058014FA958A81AF0E9FF4FAB2F4A402177
:102250003FA81BF0F5FD044630463946FEF794FCD6
:102260002B4A82FB0032C317C3EBA2134FF47A72DE
:1022700002FB1303274AC4F140013FA820441AF08F
:102280000DFA0444631C20223FA90A550022CA54B7
:10229000A2AB5A930DF26D16A19AFD2130461AF0A9
:1022A000C5FC04469DF86C2101961B4B53F8223067
:1022B00000933FAB194A4FF4807128461AF0EEF9AB
:1022C000F52C1BD82846FDF7EBFF8DF86D024FF477
:1022D000807229460DF26D101AF051FF104B1E68E6
:1022E00046B15BACF2225FA968461CF03DF994E868
:1022F0000F00B047284608F031FF7DE7F6238DF840
:102300006D32E4E77C09002000408F403C6C0308FC
:10231000D34D6210506C030804000020586C030871
:102320000000002008B50268034B9A4200D008BDA7
:1023300004F060F9FBE700BF0040014072B6FEE721
:1023400000B595B03022002108A81AF0D1FE002374
:10235000039304930593069307930193204A116C0A
:1023600041F080511164126C02F080520192019A86
:1023700002931C4B1A6842F440421A601B6803F433
:1023800040430293029B092308934FF4803309933F
:1023900001230D9302220E924FF480030F93042326
:1023A0001093642111911292139308A805F026F955
:1023B00088B90F23039302230493002305934FF45A
:1023C000805206920793032103A805F081FB20B9F0
:1023D00015B05DF804FBFFF7B1FFFFF7AFFF00BFDB
:1023E000003802400070004000B583B072B6124B56
:1023F000124A9A6062B6124B019302E0019B013BC4
:102400000193019B002BF9DC04F0DAF8FFF798FF49
:10241000FFF7B8FD00F038F8FFF73EFE00F012F8C5
:10242000FFF7AEFEFEF75AFE06F086FBFFF7A2FBB3
:1024300006F094FBFEE700BF00ED00E0000001089D
:1024400040420F0008B50E480E4B03604FF48273F4
:10245000436000238360C360036143614FF40072F3
:1024600082610822C2610362436283620A23C362FB
:1024700005F00CFD00B908BDFFF760FFFBE700BFEA
:10248000D80900200030014008B50D480D4B03600D
:102490004FF48273436000238360C3600361436130
:1024A0004FF400728261C3610362436283620A2354
:1024B000C36205F0EBFC00B908BDFFF73FFFFBE787
:1024C000800900200038004000B58BB00023059340
:1024D00006930793089309930368284A934205D00B
:1024E000274A934225D00BB05DF804FB00210191EF
:1024F000244B5A6C42F480525A645A6C02F4805253
:102500000192019A02911A6B42F002021A631B6B4C
:1025100003F002030293029B3823059302230693E0
:10252000032308930523099305A9174804F0A2FA89
:10253000D9E700210391134B1A6C42F480421A64CC
:102540001A6C02F480420392039A04911A6B42F0CF
:1025500002021A631B6B03F002030493049B4FF403
:1025600060430593022306930323089305230993ED
:1025700005A9054804F07EFAB5E700BF0030014028
:1025800000380040003802400004024000B583B02B
:10259000002200920D4B596C41F480415964596CF2
:1025A00001F48041009100990192196C41F0805131
:1025B00019641B6C03F080530193019B0F216FF092
:1025C000010004F03FFA03B05DF804FB003802405C
:1025D00030B589B00546002401941D4B5A6C42F475
:1025E00080325A645B6C03F480330193019B02A92F
:1025F00003A805F043FB05F031FB164AA2FB0023BC
:102600009B0C013B1448154A026040F2E732C2605D
:10261000436004618460846106F0AEF8044610B142
:10262000204609B030BD0C4805F060FF0446002884
:10263000F6D1182004F016FA0F2D01D90124EFE786
:1026400000222946182004F0FDF9054B1D60E7E73C
:102650000038024083DE1B43300A00200040014066
:1026600008010020FEE7FEE7FEE7FEE7FEE7704711
:1026700008B5024805F07AFF08BD00BF300A002007
:102680000120704708B51BF037FF162303604FF099
:10269000FF3008BD08B54FF0FF31FFF7F3FFFEE74D
:1026A00070B50C461646002506E0AFF300802146C3
:1026B00001F8010B01350C46B542F6DB304670BD22
:1026C00070B50C461646002504E014F8010BAFF374
:1026D00000800135B542F8DB304670BD4FF0FF3069
:1026E00070474FF400534B60002070470120704743
:1026F0000020704710B503460C4A0D490D4800688C
:1027000040B10C4800680344521A934206D8094A63
:10271000136010BD0748084C0460F2E71BF0ECFEA4
:102720000C2303604FF0FF30F3E700BF00000220EE
:10273000000800007C0A0020B8A20120034AD2F859
:10274000883043F47003C2F88830704700ED00E031
:10275000DFF834D0FFF7F2FF0C480D490D4A002393
:1027600002E0D458C4500433C4188C42F9D30A4A46
:102770000A4C002301E013600432A242FBD31BF099
:10278000C9FEFFF731FE7047000002200000002064
:1027900070080020FCCC030870080020B8A20120BB
:1027A000FEE738B50B88052B01D0032038BD0C4659
:1027B0004378817841EA0321013189B2C3780279F3
:1027C00042EA0322531E9BB240F2CE7C634520D8DE
:1027D000002323800123037023880133238012F018
:1027E000070F10D0C2F3C7030133DDB24570238851
:1027F0000133238000230230FFF770FB30B92388B8
:102800002B442380D2E7C2F3C705EFE700F0F0F9CD
:10281000CCE70320CAE70B88052B01D003207047C3
:102820004378817841EA0321013189B20379F3B910
:10283000C278531EDBB2FD2B1BD900B583B0002339
:102840008DF80530FF2A0BD000238DF804300123CA
:102850001A4601A8FFF742FB30B903B05DF804FB4C
:1028600001238DF80430F2E700F0C2F9F5E7032008
:102870007047032070470B88052B2DD910B50C46E7
:102880004278837843EA0223013399B2C27803790C
:1028900043EA022290F805E013F0070F0ED0C2F3CE
:1028A000C70C0CF1010C5FFA8CFC531E9BB2B3F504
:1028B000F66F13D2F44504D0032010BDC2F3C70C49
:1028C000F3E701230630FFF709FB10B90523238046
:1028D000F3E700F08DF9F0E7032070470320ECE701
:1028E00038B50B88052B01D0032038BD0C46437842
:1028F000817841EA0321013189B2C378027942EA41
:102900000322531E9BB240F2CE7C63451FD80023A6
:1029100023800223037023880133238012F0070FE2
:102920000FD0C2F3C7030133DDB2457023880133F2
:1029300023800230FFF7ACFA30B923882B44238080
:10294000D3E7C2F3C705F0E700F052F9CDE7032063
:10295000CBE708B50B88052B01D0032008BD4378D1
:10296000817841EA0321013101231A4689B20330FB
:10297000FFF705FB0028F1D000F03AF9EEE70B88ED
:10298000052B22D910B50C464278837843EA0223FE
:10299000013399B2C378027942EA032290F805C064
:1029A000531E9BB2772B12D85300DBB2634501D084
:1029B000032010BD01230630FFF7E1FA10B905230B
:1029C0002380F6E700F014F9F3E7032070470320B3
:1029D000EFE738B50B88052B01D0032038BD024640
:1029E0000C464378817841EA0321013189B20579A7
:1029F0006B1E9BB27C2B01D90320EFE700232380C1
:102A00004FF0030C00F802CBB4F800C00CF1010C3D
:102A1000A4F800C04FEA450C82F801C022880132B8
:102A200022802A46FFF7ABFA20B9238803EB45033F
:102A30002380D3E700F0DCF8D0E7F8B50B88092B4A
:102A400043D904460D464378817841EA0321013198
:102A50008EB2C378077947EA03274379817941EA3F
:102A60000321013189B2C379027A42EA0322407A12
:102A70007B1E9BB27C2B2AD85AB3792A2BD8B0EB79
:102A8000420F01D0032021E0012304F10A00FFF7E7
:102A900076FA0346B0B928802046172200F8022BA8
:102AA0002A8801322A807A0062702A8801322A80BC
:102AB0003A463146FFF763FA20B92B8803EB470308
:102AC0002B8003E000F094F800E00020F8BD032024
:102AD000FCE70320FAE70320F8E70A88052A01D07B
:102AE0000320704738B503460C464278817841EAA6
:102AF0000221013189B2C278057945EA02256A1EB0
:102B000092B27B2A01D9032038BD00222280042200
:102B100000F8022B2288013222806A005A70238832
:102B2000013323802A46FFF728FA20B9238803EBD4
:102B300045032380E8E700F05BF8E5E738B50D468C
:102B4000054B1C882246054901301BF00DFD013460
:102B50002C80002038BD00BF800A0020840A00209D
:102B600010B5082A23D84FEAD10E01F0070403FA62
:102B700004F44FF0010C0CFA02F292B2013A92B254
:102B800001F0070102FA01F110F80E300EEB0C0211
:102B900010F802C043EA0C231BB223EA01031BB264
:102BA000234300F80E30C3F30723835410BD034BB7
:102BB000034A3721034817F049FD00BF9C6C030806
:102BC000F46C0308AC6C03084FEAD10C012393406A
:102BD0009BB2013B10F80C206044407842EA00228E
:102BE00001F007010A4192B203EA0200C0B2704745
:102BF000012805D0072805D008B104207047704788
:102C0000022070470620704710B500F0CEF9044648
:102C100020B1114B01221A70204610BD00F0CAF8F5
:102C2000C0B10E4B0E4A1A600E4B0F4A1A600F4B82
:102C30000F4A1A600F4B104A1A60104B00221A609C
:102C40000F4BFF221A700F4B02221A70024B012207
:102C50001A70E1E70324DFE79C000020BC0A002093
:102C6000BB2F0108B80A0020BD2F0108B40A0020BC
:102C7000C52F0108C00A002005300108B00A002055
:102C8000C50A0020C40A002008B5064B1B78012B9A
:102C900001D0062008BD044B1B6898470020014B5B
:102CA0001870F7E79C000020BC0A002030B583B004
:102CB000364B1C78002C63D10DF1070000F08EF824
:102CC000012802D0204603B030BD9DF80730012B0B
:102CD00014D0022BF6D12E4B186801782D4B1970A9
:102CE0002D4B01221A7000230F2B25DC2B4A12F8E2
:102CF00033200AB3914217D00133F5E7284B1B6804
:102D0000284A23492848984705460028DAD1264B07
:102D10001B78264A1278934201D0002B32D1022030
:102D200000F050F82C46CDE71C4A02EBC3035B6869
:102D30001C499847184B18701B4B1B7823B3164B34
:102D40001B789BB1174A002111801249097810485D
:102D500005684FF0010CA2F800C041F08001297015
:102D60000068118801EB0C0515804354104B1B685B
:102D70000C4A1288064909680C4800789847A1E770
:102D800006249FE704469DE71C469BE79C00002025
:102D9000A80A0020A50A0020A40A00201C00002088
:102DA000B40A0020A60A0020AC0A0020C50A0020B0
:102DB000C00A0020024B00221A700120704700BF99
:102DC000C60A00200123034A1370034A10701846F4
:102DD000704700BFC60A0020C70A00200346054A04
:102DE000107830B1044A12781A70024B00221A701F
:102DF00001207047C60A0020C70A0020072900D01A
:102E0000704738B504461E4B00F11C0293E80300DE
:102E100013F00CFD012806D094F8AD3043F02003E8
:102E200084F8AD3038BD226C93B216490B8033B9AB
:102E300094F8AD3043F0200384F8AD30F2E71A4641
:102E4000A16B11481BF090FB0120FFF7BBFFFFF7C0
:102E50002DFFFFF72BFF0D4B1B7833B994F8AD30E6
:102E600043F0200384F8AD30DCE70025074B1D70EC
:102E7000074B1A880749204614F0F2FD2564D1E774
:102E8000C80A0020D4120020D8120020D00A002046
:102E9000D20A0020D40A002038B501FB00F42046F5
:102EA00008F0DAF8054618B1224600211AF020F998
:102EB000284638BD30B583B00023244A244914F095
:102EC000E3FC0020FFF7A0FEFFF7DEFE00220192E8
:102ED00001A9204808F028FA0198421E40F2FE336A
:102EE0009A4215D801210844FFF7D6FF1A4D2860F1
:102EF0000121184808F056FA0446019A296808F09A
:102F000081FA019B6B60204608F070FA03B030BD77
:102F100001210B20FFF7C0FF03460F4C20600B225E
:102F200062600E4A03CA186059601188927819814C
:102F30009A720221074808F035FA0546626821684E
:102F400008F06CFA284608F051FADFE7FD2D010879
:102F5000046D0308186D0308C80A00202C6D0308CF
:102F600001207047044B0360044B1A880A8000223A
:102F70001A800120704700BFD8120020D412002010
:102F800010B50C460A46014604481BF0EDFA044B06
:102F90001C800120034B187010BD00BFD40A002014
:102FA000D20A0020D00A0020704708B5FFF7D8FFEA
:102FB00008B1002008BD0320FCE7704708B5FFF703
:102FC000F3FF08BD70B582B006460D4614460DF1FC
:102FD000020101A8FFF7C6FF80B1019B9978DA785A
:102FE00052EA01220CD107332B60BDF80230073BB7
:102FF0002380FF233370002002B070BD0520FBE763
:103000000520F9E708B50846D11D531C1B1200F82E
:10301000033C013200F8022C89B20738FFF7B0FFF9
:1030200008B1002008BD0520FCE7000008B5034BEF
:10303000034AC82111F062FB08BD00BFE0B60308D7
:10304000386D030870B584B005460C4602AE1049D1
:10305000304611F0DDFC0023009396E80C0094E864
:10306000030011F0F7FE58B10A4B01930A4B00938D
:103070000A4B0B4AC821284611F040FB04B070BD32
:10308000084B074A40F29511284611F037FBF5E747
:10309000D86D0308846E0308DC680308DC6D030840
:1030A000146E0308886E030870B588B005460C4698
:1030B00006AE1349304611F0ABFC0023009396E8AE
:1030C0000C0094E8030011F0C5FE88B10D4B049389
:1030D0000D4B03930D4B02930D4B01930D4B00933E
:1030E0000D4B0E4AC821284611F008FB08B070BDF0
:1030F0000B4B0A4A40F29511284611F0FFFAF5E70A
:10310000D86D0308446F0308586F0308646F030801
:10311000846E0308DC680308D86E0308146E030885
:10312000886E030870B584B005460C4602AE14499B
:10313000304611F06DFC0023009396E80C0094E8F3
:10314000030011F087FE98B10E4B1B6A0E4898479A
:1031500038B10E4B0E4AC821284611F0CFFA04B000
:1031600070BD0C4B0A4AC821284611F0C7FAF6E791
:10317000094B074A40F29511284611F0BFFAEEE7D5
:103180006C6F0308A000002098660308746F0308A2
:10319000146E0308B06F0308F46F030870B584B0B1
:1031A00005460C4602AE1249304611F031FC0023B0
:1031B000009396E80C0094E8030011F04BFE78B100
:1031C0000C4E336A0C4C20469847736A2046984749
:1031D0000A4B0B4AC821284611F090FA04B070BD82
:1031E000084B074A40F29511284611F087FAF5E797
:1031F0006C6F0308A0000020846603084470030875
:10320000146E0308F46F0308F0B5C3B006460D460C
:10321000002422947C273A46214623A819F068FF0F
:1032200002943A46214603A819F062FF80220092D8
:1032300002AB22A9284612F013FB9DF8883013B187
:103240009DF8082062B913B99DF808304BBB214B9B
:10325000214A4FF4CA71304611F050FA43B0F0BD24
:103260001E4B1D4A4FF4CA71304611F047FAF5E77C
:10327000B82303FB04F41A4FE5192A461949012023
:10328000FEF7B2FF002385F8803000200021C5E959
:103290002C013B55144B104AC821304611F02EFA30
:1032A000DCE70024092C0CDCB82304FB03F3803397
:1032B00002A90B481844FCF793FF0028D8D001342A
:1032C000F0E70A4B044A4FF4CA71304611F016FA7F
:1032D000C4E700BF90710308146E03088C700308E4
:1032E000D81A00200C710308207103085C710308D0
:1032F00030B5C7B005460C4690F8AC3013F040022C
:1033000024D0144B04F1800112B3134A13480290E5
:1033100001920091124A4FF4807106A810F0F0FC5F
:103320000594002204920F4B03930F4902910192DE
:1033300000930E4B06AAC821284611F0DFF9224659
:103340000B490120FEF750FF47B030BD094BD9E7CC
:10335000094ADBE7087203082C72030800A3020085
:1033600038720308BD2E0208B08203087C7203087D
:10337000847203081C720308907403082DE9F0435B
:10338000E5B005460C4616460021599125225AA85B
:1033900019F0AEFE8022009202AB22A9204612F064
:1033A0005FFA9DF8883013B19DF808204AB9002BC8
:1033B00040F0BB809DF80830002B40F0B280002028
:1033C000B4E022AA5B490120FEF70EFF42A811F0EB
:1033D0006DFA02A8FCF764FF024602A942A811F0A8
:1033E0007FFA42A959A811F0B5FA00242AE0414613
:1033F0002846FFF77DFF66E04F4F802222A938461E
:1034000019F0BDFE16F0C4FE4C4BC31841F100018B
:10341000C7F8B030C7F8B410282107F1800012F0C7
:1034200065FE4EB9B822464B02FB043245490120E5
:10343000FEF7DAFE012079E039462846FFF758FF0B
:10344000F0E70134092C45DC22A9A9203E4B00FB02
:103450000430FCF7C5FE0028F3D1A92304FB03F3D5
:10346000803359A938481844FCF7BAFE0028E8D13F
:10347000334BB82202FB0433D3F8B080D3F8B470D6
:1034800016F086FE80458F41B6D2B82704FB07F7B9
:10349000DFF8AC9007EB0908802222A9404619F01A
:1034A0006EFE16F075FE254BC01841F10001C8F8FC
:1034B000B000C8F8B41007F180002821484412F089
:1034C00015FE002E93D142461E490120FEF78CFEC8
:1034D00001202BE0002029E0B822194B02FB043325
:1034E00000931A4B1A4AC821284611F007F916E032
:1034F0000134092C17DCB82304FB03F3803302A941
:103500000F481844FCF76CFE0028F1D1B82304FBE7
:1035100003F30B4AD35C002BEAD0002EDCD1012050
:1035200004E00024E5E7002000E0002065B0BDE8ED
:10353000F08300BFA0720308901B002000B84C0A63
:10354000D81A0020C072030808220020DC72030889
:10355000146E030810B504460122FFF70FFF00B1F7
:1035600010BD044B044A40F29311204611F0C6F8F6
:10357000F6E700BF1C730308146E030810B590B083
:10358000044609A807F028FE0F9B06930E9B05939F
:103590000D9B04930C9B03930B9B02930A9B01933B
:1035A000099B0093034B044AC821204611F0A6F85A
:1035B00010B010BD4C73030850740308F0B591B0FF
:1035C00006460C460CAD4B49284611F021FA002363
:1035D000009395E80C0094E8030011F03BFC28B33D
:1035E000454C2368002201210AA89847236800223D
:1035F00002210DF12B0098479DF828309DF82920D5
:103600009DF82A109DF82B009DF82C409DF82D5018
:10361000059504940390029101920093374B384A28
:10362000C821304611F06AF811B0F0BD0EAD354931
:10363000284611F0EDF90023009395E80C0094E87A
:10364000030011F007FC00284BD008AB2E4A04F50C
:10365000007103C910F018F900283AD00AAB2B4AC0
:1036600004F5007494E8030010F00EF9002830D03F
:10367000DDE90801FDF7B0FAC4B2DDE90A01FDF7A2
:10368000ABFAC5B2631EDBB2022B01D8012D07D9FC
:103690001F4B1B4A4FF4C871304611F02FF8C3E797
:1036A000154F3B680022022107A8984704F13F0309
:1036B0006B4403F8245C3B680122022107A8984769
:1036C00001950094134B0E4AC821304611F016F8AC
:1036D000AAE7114B0A4A4FF4C871304611F00EF8B0
:1036E000A2E70E4B064A40F29511304611F006F85B
:1036F0009AE700BFD86D0308A4280020947403083B
:10370000146E03086C6F0308C8740308D4740308AC
:1037100014750308DC740308507503088C750308DE
:1037200038B501FB00F4204607F096FC054618B1B9
:103730002246002119F0DCFC284638BDF0B58BB0DC
:1037400006460C4606AD8449284611F061F900236F
:10375000009395E80C0094E8030011F07BFB00282F
:103760003BD0C6210120FFF7DBFF054640B37B4B72
:103770001B6800221146984705F1A5073846FCF75B
:103780008FFDC4B222462A21384619F0B1FC2C44E0
:10379000002384F8A5306B78EBB1714BAA1C05F1BE
:1037A000840103970291019200936E4B6E4AC821E7
:1037B000304610F0A3FF284607F0D0FC0BB0F0BD58
:1037C0006A4B694A4FF4FA71304610F097FF284669
:1037D00007F0C4FCF2E7664BE0E708AD6549284610
:1037E00011F016F90023009395E80C0094E803000B
:1037F00011F030FB002800F0A780C6210120FFF760
:103800008FFF054610B305AB5B4A04F5007103C991
:103810000FF0D0FD002824DB6B1C584A04F500771C
:1038200097E8030010F056F8554A97E8030012F0A5
:10383000DFF9074628B316F0C7FE0346E0B10433AC
:10384000032B79D8DFE803F070686052474B464A93
:103850004FF4FA71304610F051FF284607F07EFC15
:10386000ACE7484B404A4FF4C871304610F046FF71
:10387000284607F073FCA1E77F223946A81C19F0FF
:103880007EFC384607F06AFC3F4A04F5007393E873
:10389000030012F0ADF9074628B12022014605F1D8
:1038A000840019F06CFC384607F058FC374A04F5E0
:1038B000007494E8030012F09BF9044628B120221A
:1038C000014605F1A50019F05AFC204607F046FC18
:1038D00001222A70214B1B680021284698472C4B57
:1038E000214AC821304610F009FFC1E7294B1E4A82
:1038F0004FF4C871304610F001FF384607F02EFC37
:10390000284607F02BFC59E7234B174A4FF4C871A0
:10391000304610F0F3FEF0E7204B134A4FF4C87125
:10392000304610F0EBFEE8E71D4B0F4A4FF4C8712C
:10393000304610F0E3FEE0E71A4B0B4A4FF4C87133
:10394000304610F0DBFED8E7174B074A40F29511DE
:10395000304610F0D3FE31E7D86D0308A4280020CC
:10396000E07503082C760308146E0308F07503084D
:10397000E87503086C6F030874760308A8760308DB
:10398000B476030878760308FC7703080878030800
:1039900014780308C07603080477030850770308F7
:1039A00090770308C87703088C75030870B58AB050
:1039B00006460C4604AD5E49284611F029F800235E
:1039C000009395E80C0094E8030011F043FA0028F6
:1039D0003DD00022039203A9564807F0A5FC0398A6
:1039E000421E40F2FE339A4229D801210844FFF7D3
:1039F00097FE0446B8B101214E4807F0D3FC0546B6
:103A0000039A214607F0FEFC284607F0EFFC0094DD
:103A1000494B4A4AC821304610F070FE204607F054
:103A20009DFB0AB070BD46490320FEF7DDFB454B08
:103A3000424A4FF4FA71304610F060FEF1E7424B13
:103A40003E4A4FF4FA71304610F058FEE9E706ADF1
:103A50003E49284610F0DCFF0023009395E80C0057
:103A600094E8030011F0F6F9002858D003AB384A67
:103A700004F5007103C90FF09DFC002834DB354AC2
:103A800004F5007494E8030012F0B2F8044600282C
:103A90003DD008AD0146284610F0BAFF06F11C02E1
:103AA00095E8030012F0C2FE002825DB214D2846D0
:103AB00007F0E6FC0221284607F074FC0546204684
:103AC000FCF7EEFB421C2146284607F0A7FC2846DF
:103AD00007F08CFC204B194AC821304610F00EFE2E
:103AE000204607F03BFB9CE71C4B144A4FF4C8717F
:103AF000304610F003FE94E7194B104A4FF4C8719A
:103B0000304610F0FBFD204607F028FB89E7154BF7
:103B10000A4A4FF4C871304610F0F0FD81E7124BAD
:103B2000064A40F29511304610F0E8FD79E700BFF3
:103B3000D86D0308186D0308AC780308146E0308E9
:103B40005078030884780308D87803086C6F03085A
:103B5000747603080C79030854790308787603080F
:103B60001C790308A8790308F07903082DE9F04FC0
:103B7000C7B081468A4672228E4927A81AF0F4FC03
:103B800001211E20FFF7CCFD064601212E20FFF764
:103B9000C7FD074601212E20FFF7C2FD8046012107
:103BA0004FF44070FFF7BCFD044601214FF4C07094
:103BB000FFF7B6FD0546002E00F0E380002F00F071
:103BC000E080B8F1000F00F0DC80002C00F0D9801C
:103BD000002800F0D6800DF5887B7749584610F014
:103BE00017FF002300939BE80C009AE8030011F0F4
:103BF00031F9002800F0BD8001F0BAFB824658B3CD
:103C000090F8AC3013F0200F2CD190F8AD3013F0B9
:103C1000200F2DD01E226949304619F0B0FADFF886
:103C2000C4B10AF1080300935B46654A2E21404661
:103C300010F066F80AF11C0300935B46604A2E21DF
:103C4000384610F05DF82046FCF72AFB5D4B1B88D8
:103C500023524FF0010A28E01E225B49304619F03A
:103C60008EFAF0E71E225949304619F088FAD6E755
:103C70001E225749304619F082FAD0E75FFA8AF3DC
:103C80000122802107A801F063FF07A9204619F04F
:103C900037FA2046FCF704FB034621184D4A10680A
:103CA000E05013790B710AF1010ABAF1030FE5DD57
:103CB0004FF0010A07E02046FCF7F2FA414B1B885F
:103CC00023520AF1010ABAF1030F18DC5FFA8AF3F2
:103CD0000222802107A801F03BFF07A9204619F026
:103CE0000FFABAF1020FE6DC2046FCF7D9FA0346D8
:103CF0002118384A1068E05013790B71E1E7284623
:103D0000FCF7CEFA2F4B1B882B524FF0010A07E02D
:103D10002846FCF7C5FA2B4B1B882B520AF1010AE7
:103D2000BAF1030F18DC5FFA8AF30222802107A898
:103D300001F0F6FE07A9284619F0E2F9BAF1020FE0
:103D4000E6DC2846FCF7ACFA03462918214A10683D
:103D5000E85013790B71E1E7049503940297CDF8CD
:103D60000480009627AB1C4AC821484610F0C6FCC8
:103D70000EE01A4B184A40F29511484610F0BEFC6E
:103D800006E0174B144A4FF4FA71484610F0B6FC9F
:103D9000304607F0E3F9384607F0E0F9404607F00F
:103DA000DDF9204607F0DAF9284607F0D7F947B0E1
:103DB000BDE8F08FB07A0308D86D0308507A030885
:103DC000647A0308687A030870B80308447A030821
:103DD000587A03086C7A0308146E03088C7503087C
:103DE000747A0308AD670208F0B58DB007460C463B
:103DF000154608AE2349304610F00AFE0023009312
:103E000096E80C0094E8030011F024F818B300239E
:103E10000293039304930593069307931A4B02931B
:103E20001A4B079345B1012D0ED002AB184A21461B
:103E3000384611F0CBF905E002AB154A2146384669
:103E400011F0C4F90DB0F0BD02AB124A214638465C
:103E500011F0BCF9F6E70AAD0F49284610F0D8FD7D
:103E60000023009395E80C0094E8030010F0F2FFA3
:103E70000028E7D1094B0A4A40F29511384610F064
:103E80003DFCDFE7D86D030868820308A00000202E
:103E900064680308746803086C6F0308247B0308D4
:103EA000146E0308F8B504460D4616460B4F3B6AE0
:103EB00098470222214638460FF092F904467B6962
:103EC000A92206FB02F229460068984720460FF017
:103ED000A0F903490120FEF787F9F8BDA0000020F2
:103EE0007C7B03082DE9F041AEB006460C4626ADBA
:103EF000A849284610F08CFD0023009395E80C009B
:103F000094E8030010F0A6FF002843D128ADA24991
:103F1000284610F07DFD0023009395E80C0094E8FE
:103F2000030010F097FF002800F0FD8003AB9B4AD0
:103F300004F5007103C90FF03DFA0028C0F2898032
:103F4000974A04F5007494E8030011F051FE054609
:103F5000944A94E8030011F04BFE0746002D00F050
:103F6000D480002800F0D1802B78002B00F0CD8089
:103F70000378002B00F0C9800024092C7FDC29463F
:103F8000A920894B00FB0430FCF72AF9002868D0EF
:103F90000134F2E701214FF48060FFF7C1FB0746CF
:103FA0000121A020FFF7BCFB8046002F3DD0002858
:103FB0003BD07E4B07CB38607960BA601B783B738F
:103FC0000C25002408E04346794AC5F5806178193C
:103FD00018F064FB05440134092C18DCA92204FB09
:103FE00002F2714B9A5C002AF5D0A92202FB04333D
:103FF000704AA021404618F051FB0C2DE3D96E4ABF
:10400000C5F58061781918F049FB0544DBE76B4A78
:10401000C5F58061781918F041FB0097644B684A38
:10402000C821304610F06AFB0AE066490320FEF71B
:10403000DBF8654B624A4FF4FA71304610F05EFBD4
:10404000384607F08BF8404607F088F82EB0BDE8F8
:10405000F0815E4B5A4A4FF4C871304610F04EFB67
:10406000F4E75B4B564A4FF4C871304610F046FBFC
:10407000284607F073F8384607F070F8E6E70024A2
:1040800004942522214605A819F032F80FA810F053
:104090000DFC3846FCF704F9024639460FA810F02B
:1040A0001FFC0FA904A810F055FC2146092924DCA7
:1040B000A92301FB03F33C4AD35C0BB10131F5E7C3
:1040C000A92303FB01F490467F22294608EB040054
:1040D00019F055F88034282204A908EB040019F0DF
:1040E0004EF80A2241463B48FFF7DCFE3A4B344A81
:1040F000C821304610F002FB0EE0384B304A4FF436
:10410000C871304610F0FAFA06E0354B2C4A4FF4ED
:10411000C871304610F0F2FA284607F01FF838460A
:1041200007F01CF892E72AAD2E49284610F070FCE3
:104130000023009395E80C0094E8030010F08AFE39
:10414000002855D12CAD2849284610F061FC0023E9
:10415000009395E80C0094E8030010F07BFE002823
:1041600000F0F3800E4A04F5007494E8030011F0A7
:104170003FFD074618B10378002B40F0CF801B4B62
:104180000F4A4FF4C871304610F0B8FA384606F0BE
:10419000E5FF5BE7D86D03086C6F030874760308CE
:1041A000BC7B0308C47B030808220020947B03081F
:1041B0007CB80308A47B0308B47B0308B87B03081E
:1041C000146E03085078030884780308787603088F
:1041D000CC7B0308E0660308087C0308447C0308E2
:1041E000787C0308B87C0308747D0308107E0308FC
:1041F00003AB5A4A04F5007103C90FF0DBF800283D
:1042000021DB574A04F5007494E8030011F0F0FC38
:104210000546544A94E8030011F0EAFC044625B12F
:1042200018B12B780BB10378BBB94F4B4F4A4FF401
:10423000C871304610F062FA284606F08FFF20461B
:1042400006F08CFF02E74A4B484A4FF4C8713046EB
:1042500010F054FA00242546EEE7002704972522A3
:10426000394605A818F044FF0FA810F01FFB2046A0
:10427000FCF716F8024621460FA810F031FB0FA9F3
:1042800004A810F067FB092F25DC2946A920394B2B
:1042900000FB0730FBF7A4FF08B10137F3E7A923C0
:1042A00003FB07F707F18000DFF8C880282204A984
:1042B000404418F064FF4744002387F8A8300A22DE
:1042C00041462D48FFF7EEFD2C4B284AC8213046C9
:1042D00010F014FAB0E72A4B244A4FF4CA71304662
:1042E00010F00CFAA8E780220021284618F000FF01
:1042F000A92303FB04F080301E4C29220021204416
:1043000018F0F6FE0A2221461B48FFF7CBFD1D4B95
:10431000164AC821304610F0F1F937E70124092C7C
:104320000BDCA923134D03FB045539462846FBF744
:1043300057FF0028D7D00134F1E7134B0B4A4FF455
:10434000C871304610F0DAF920E7104B074A40F206
:104350009511304610F0D2F978E600BF7476030864
:10436000BC7B0308C47B0308307D0308146E03087C
:104370007876030808220020E0660308BC7C030866
:10438000007D03087C7D0308BC7D0308507E030884
:1043900070B50E461446012201460E480EF020FF6D
:1043A00088B105460B4B1B69A92204FB02F231467A
:1043B0000068984728460EF02CFF07490120FDF7BA
:1043C00013FF012070BD05490320FDF70DFF0020FC
:1043D000F8E700BFA0000020CC7E0308B07E0308F1
:1043E00070B586B005460C4604AE1549304610F04F
:1043F0000FFB0023009396E80C0094E8030010F0F4
:1044000029FDA0B1EB6F1868002302930D4B0193B7
:10441000012300934FF4FA62002311F0DBFC0A4BF6
:104420000A4AC821284610F069F906B070BD084B49
:10443000064A40F29511284610F060F9F5E700BFF2
:104440006C6F03086D6A0108E87E0308146E0308A8
:10445000F46F030870B584B005460C4602AE1449EB
:10446000304610F0D5FA0023009396E80C0094E84B
:10447000030010F0EFFC98B10E4BDB690E490F48BA
:10448000984728B121462846FFF7AAFF04B070BD1F
:104490000B4B0C4A4FF4FA71284610F02FF9F5E750
:1044A000094B084A40F29511284610F027F9EDE72C
:1044B0006C6F0308A000002098660308207F0308A3
:1044C000387F0308146E0308F46F030870B5C4B096
:1044D00006460C4642AD2049284610F099FA0023C2
:1044E000009395E80C0094E8030010F0B3FC50B37F
:1044F0007B2323AA194904F5007011F076F90028EE
:1045000019DD23AB164A802103A818F0C7F8154B14
:104510005B6A03A8984730B1134B144AC821304650
:1045200010F0ECF816E0124B104A4FF4FA713046D6
:1045300010F0E4F80EE00F4B0C4A4FF4C87130460F
:1045400010F0DCF806E00C4B084A40F295113046BA
:1045500010F0D4F844B070BD6C6F03087C7F030882
:10456000847F0308A00000208C7F0308146E0308DA
:10457000C07F0308FC7F0308F46F030870B5A4B084
:1045800005460C4622AE1C49304610F041FA002385
:10459000009396E80C0094E8030010F05BFC08B36D
:1045A000802302AA154904F1100011F01EF91449E4
:1045B00002A8FBF715FE58B9124B0093124B134A91
:1045C0002146284612F0D8FE012005F0ADFE10E08D
:1045D0000B4B00930E4B0F4A4FF4C871284610F056
:1045E0008DF806E00C4B0B4A40F29511284610F06E
:1045F00085F824B070BD00BF6C6F0308CCB703080A
:104600003880030890D003008C660308A0000020C7
:1046100048800308146E0308F46F0308F0B597B0E0
:1046200004460E4601214FF48060FFF779F80546F5
:1046300050B10122214628480EF0D2FD044640B177
:1046400068460FF0DDF910E006F088FD4FF0FF300E
:1046500040E00EF0DEFD284606F080FD6FF0010020
:1046600038E0294668460FF0E1F91B4B1B694FF40F
:10467000806229462068984702460028F1D12046EA
:104680000EF0C7FD01211020FFF74AF8074628B1B8
:10469000014668460FF021FA002412E0284606F091
:1046A0005DFD384606F05AFD4FF0FF3012E0610024
:1046B0003B5D0A4AC1F1210106EB440017F0EEFF11
:1046C00001340F2CF3DD284606F048FD384606F08D
:1046D00045FD002017B0F0BDA00000209480030825
:1046E00070B584B005460C4602AE1949304610F04C
:1046F0008FF90023009396E80C0094E8030010F073
:10470000A9FBE8B101212120FFF70AF80446014680
:104710001048FFF783FF58B900940F4B0F4AC82188
:1047200028460FF0EBFF204606F018FD04B070BDE0
:104730000B4B0A4A4FF4CA7128460FF0DFFFF2E72D
:10474000084B064A40F2951128460FF0D7FFEDE7D7
:10475000D86D0308207F03089C800308146E0308AB
:10476000C0800308886E03080B2900D07047F0B59D
:10477000B5B00546144600222146FEF7FFFD074668
:1047800008AEAF49304610F043F90023009396E895
:104790000C0094E8030010F05DFB20B12846FEF702
:1047A00045FC35B0F0BD0AAEA649304610F030F9F0
:1047B0000023009396E80C0004F1080103C910F0EF
:1047C00049FB00B1BFB10CAE9F49304610F020F953
:1047D0000023009396E80C0004F1080103C910F0CF
:1047E00039FB80B199490120FDF7FEFC214628469E
:1047F000FEF7B0FED5E7964B964A40F29311284655
:104800000FF07CFFCDE70EAE9349304610F000F973
:104810000023009396E80C0004F1080103C910F08E
:1048200019FB40B18D490120FDF7DEFC21462846E9
:10483000FEF7EAFCB5E710AE8949304610F0E8F81B
:104840000023009396E80C0004F1080103C910F05E
:1048500001FB38B183490120FDF7C6FC2846FEF76D
:104860008DFE9EE712AE8049304610F0D1F800234D
:10487000009396E80C0004F1080103C910F0EAFA6D
:1048800040B17A490120FDF7AFFC21462846FEF7EA
:1048900095FE86E714AE7649304610F0B9F800234D
:1048A000009396E80C0004F1080103C910F0D2FA55
:1048B00040B170490120FDF797FC21462846FEF7DC
:1048C0003DFF6EE716AE6C49304610F0A1F80023AC
:1048D000009396E80C0004F1080103C910F0BAFA3D
:1048E00040B166490120FDF77FFC21462846FFF7CD
:1048F0005DF856E718AE6249304610F089F800239B
:10490000009396E80C0004F1080103C910F0A2FA24
:1049100040B15C490120FDF767FC21462846FFF7BE
:1049200025F93EE71AAE5849304610F071F80023D9
:10493000009396E80C00E168A06810F08BFA48B18B
:1049400052490120FDF750FC002221462846FFF77E
:104950004BFA26E71CAE4E49304610F059F80023BA
:10496000009396E80C00E168A06810F073FA48B173
:1049700048490120FDF738FC012221462846FFF76F
:1049800033FA0EE71EAE4449304610F041F80023DA
:10499000009396E80C00E168A06810F05BFA40B163
:1049A0003E490120FDF720FC21462846FFF79AFAF0
:1049B000F7E620AE3A49304610F02AF8002300937B
:1049C00096E80C00E168A06810F044FA40B135495F
:1049D0000120FDF709FC21462846FFF701FDE0E62E
:1049E00022AE3149304610F013F80023009396E8C8
:1049F0000C00E168A06810F02DFA40B12B490120AD
:104A0000FDF7F2FB21462846FEF71CFBC9E624AE63
:104A1000274930460FF0FCFF0023009396E80C0076
:104A2000E168A06810F016FA002845D0214901205D
:104A3000FDF7DAFB21462846FEF736FBB1E600BF5C
:104A40000081030808810308208103082C810308E2
:104A50001081030890740308408103084C81030807
:104A6000648103087481030890810308A08103080E
:104A7000B8810308CC810308E8810308F8810308A2
:104A8000148203082882030844820308548203081E
:104A90007082030884820308A4820308B882030892
:104AA000D4820308E8820308088303081C830308F0
:104AB0003C8303085083030826AE504930460FF06C
:104AC000A7FF0023009396E80C00E168A06810F0AF
:104AD000C1F920B121462846FFF750FD61E628AE16
:104AE000474930460FF094FF0023009396E80C00EE
:104AF000E168A06810F0AEF940B142490120FDF72D
:104B000073FB21462846FFF7EBFD4AE62AAE3E49F5
:104B100030460FF07DFF0023009396E80C00E1681B
:104B2000A06810F097F940B138490120FDF75CFB0F
:104B300021462846FFF78EFC33E62CAE344930463A
:104B40000FF066FF0023009396E80C00E168A06870
:104B500010F080F920B121462846FEF7E3FA20E65E
:104B60002EAE2C4930460FF053FF0023009396E8F9
:104B70000C00E168A06810F06DF920B121462846CC
:104B8000FEF70CFB0DE630AE234930460FF040FF38
:104B90000023009396E80C00E168A06810F05AF931
:104BA00040B11E4B00931E4B1E4A2146284612F070
:104BB000E3FBF6E532AE1C4930460FF029FF002337
:104BC000009396E80C00E168A06810F043F920B16A
:104BD00021462846FFF77AFCE3E50023029303937E
:104BE00004930593069307930D4B02930D4B079384
:104BF00002AA2146284612F0D9FAD2E56C830308AE
:104C00008483030898830308B4830308C8830308D4
:104C1000E8830308048403082084030860E3160083
:104C200084660308A00000203C84030808B50A221B
:104C300002490348FFF7ACFB024808BD08220020E8
:104C4000E066030869470108014B1860704700BF20
:104C5000A42800201A4B1B6803B1704730B585B0FB
:104C600018490120FDF7C0FA174C402200212046C8
:104C700018F03EFA02AD154B196828460FF0C8FE31
:104C800095E8030084E80300114B196828460FF0EB
:104C9000BFFE04F1080395E8030083E803003C230A
:104CA0006385002300930B4B22460B4909680B4890
:104CB000006814F021FC024B186005B030BD00BF45
:104CC000C828002058840308CC2800202029002070
:104CD0001C290020AD5201082429002010290020A1
:104CE0002DE9F04F85B08146884692462A4C00F166
:104CF00008030093294B2A4A282120680FF000F866
:104D000024682046FBF7CCFA0146204600F01EFC42
:104D100000263BE008EBC60318F836401D79214F0A
:104D20002B4622468021386800F02EFCDFF880B048
:104D30002B4622464FF41671DBF8000000F0D4FC3D
:104D4000194D02AC396820460FF062FE05F11803D8
:104D500094E8030083E80300DBF8001020460FF01E
:104D600057FE05F1200394E8030083E803000124C3
:104D700085F8284085F82E402946484613F022F948
:104D80003A680A492046FDF72FFA26445645C1D312
:104D900005B0BDE8F08F00BFC4280020916702086D
:104DA000647A030818290020CC280020788403089E
:104DB0001429002038B501FB00F4204606F04CF918
:104DC000054618B12246002118F092F9284638BD50
:104DD0002DE9F04387B007460C46584D2B6800225A
:104DE000012104A898472B68002202210DF113002D
:104DF00098470322524904A818F0E6F848B903225C
:104E000050490DF1130018F0DFF810B9002C00F034
:104E100091804B4B06AA12E903001860998001218A
:104E20004FF41670FFF7C6FF064601218020FFF7FA
:104E3000C1FF0546002238E002F101085FFA88F858
:104E400002F118030DEB030212F8083C00934346ED
:104E500001224FF41671304600F03AFE434601221B
:104E60008021284600F074FEDFF8DC9002AC294671
:104E700020460FF0CDFD09F1180394E8030083E804
:104E80000300314620460FF0C3FD09F1200394E8EA
:104E9000030083E80300002389F8283089F82E30C6
:104EA0004946384613F08EF84246022AC4D90022F9
:104EB00038E002F101085FFA88F802F118030DEBFF
:104EC000030212F8053C0093434602224FF4167188
:104ED000304600F0FDFD434602228021284600F0C6
:104EE00037FEDFF8649002AC294620460FF090FDB3
:104EF00009F1180394E8030083E8030031462046D3
:104F00000FF086FD09F1200394E8030083E8030015
:104F1000002389F8283089F82E304946384613F0A6
:104F200051F84246022AC4D9304606F017F92846FD
:104F300006F014F907B0BDE8F08300BFB0280020E8
:104F4000A8280020AB280020CC28002008B5054B5D
:104F5000186810B1044B1B7803B908BD0021FFF796
:104F600037FFFAE7C8280020B428002008B5054B11
:104F70001B7803B908BD0121034B1868FFF728FF10
:104F8000F8E700BFB4280020C82800202DE9F04F22
:104F900083B081460D461646002400E00134B44239
:104FA0002ED205EBC40855F83430022BF6D101217E
:104FB0008020FFF7FFFE074698F804300222802188
:104FC00000F0AEFDDFF844804FF0010B88F828B008
:104FD000EA46394650460FF01BFD08F118039AE8DF
:104FE000030083E803004146484612F09DFF3A461D
:104FF00005495846FDF7F8F8384606F0AFF8CDE712
:1050000003B0BDE8F08F00BF9C840308CC280020CB
:105010002DE9F04387B0002303930768456884684F
:10502000C668ACB1A7B105B10EBB8C490320FDF732
:10503000DBF88B4B1B68002B40F30181894B9A22D4
:105040008949012011F058FC88480FF003FBF6E075
:10505000834B1B68002B40F3F280824B94228249E1
:10506000012011F049FC82480FF0F4FAE7E0012139
:105070007018FFF79FFE814601216818FFF79AFE1E
:10508000804632462146484618F079F82A46394685
:10509000404618F074F8774B1B680022022105A8DF
:1050A0009847059BADF810301B0C8DF812307249F3
:1050B000404618F09DF8002800F0B28003AA6F491E
:1050C00017F074FC012809D0654B1B68002B00F316
:1050D0009D806B490320FDF787F8AAE0604B1B68B1
:1050E000012B19DCCDF80090039B42466549012055
:1050F000FDF77AF8039C631E022B19D8022E34D0D8
:10510000032E55D0564B1B68002B74DC4A465E4973
:105110000320FDF769F88CE0524BAD225249022082
:1051200011F0EAFB4246039958480FF093FAD9E789
:105130004B4B1B68002B0CDC039B0322544910468D
:10514000FDF752F8484606F009F8404606F006F822
:1051500075E0444BB2224449012011F0CDFB039A83
:1051600003214B480FF076FAE6E702224949484608
:1051700017F0F3FF0028C3D104F117036B44012299
:1051800003F8082C364B1B68934206DC394B1B682E
:105190000122022104A898474BE0324BBF2232493A
:1051A000022011F0A9FB03993B480FF053FAEDE7F9
:1051B00003223A49484617F0D0FF0028A2D104F153
:1051C00017036B44002203F8082C254B1B68012BA6
:1051D00006DC284B1B680122022104A8984728E01E
:1051E000204BC3222049022011F086FB03992C4852
:1051F0000FF030FAEDE71B4BC7221B49012011F0DD
:105200007BFB494620480FF025FA7FE7154BCC225F
:105210001549012011F070FB22480FF01BFA58E7E6
:105220000F4B1B68002B0DDC42461F490320FCF787
:10523000DBFF484605F092FF404605F08FFF07B0C0
:10524000BDE8F083074BD0220749012011F054FB41
:10525000414615480FF0FEF9E6E700BF2885030830
:105260002C010020B8840308D88403085085030863
:1052700004850308B02800207C8503088485030882
:10528000F0860308BC8503087C8603089085030824
:10529000FC8503084C8603085086030864860308CF
:1052A00068860308B88603082887030870B51029A4
:1052B00031D00546112902D009293AD070BD224BC0
:1052C0001B68022B1DDC21490120FCF78DFF204BC0
:1052D0001D60204B1B78002BF0D11F4E062231465B
:1052E0002846FFF7FDFC1A4C01212068FFF770FDEE
:1052F000062231462068FFF749FE164B01221A703C
:10530000DCE7164BE1221649032011F0F5FA1548A7
:105310000FF0A0F9D7E7144613490120FCF764FF0A
:105320002046FFF775FE0021094B1868FFF750FD76
:10533000C4E70E490120FCF757FF0023044A13601D
:10534000044A1370BAE700BF2C01002084870308C9
:10535000C8280020B4280020C8000020588703086F
:10536000D88403086C8703089C870308C087030858
:10537000014B1868704700BFC82800202DE9F0478E
:1053800086B006460C4691461D4601218020FFF757
:1053900011FDDFF848A1CAF8000001212120FFF724
:1053A00009FDDFF83C81C8F8000001212120FFF74A
:1053B00001FD3B4F386001218020FFF7FBFC394B9A
:1053C000186001214FF41670FFF7F4FC364B18609B
:1053D00001212820FFF7EEFC344B18600F9A344B64
:1053E0001A60DAF800A04946504619F08BF8D8F850
:1053F00000902946484619F085F80E99386819F04A
:1054000081F84B4652462B490120FCF7EDFE2A4D10
:105410002E602A4B1C600621204600F071F8284EB1
:1054200004ACD8F8001020460FF0F2FA94E803001C
:1054300086E80300396820460FF0EAFA06F108030F
:1054400094E8030083E803003C237385002402945E
:105450001C4B01930323009342F21072002328682F
:1054600010F0B8FC184B18600294184B01930126F9
:10547000009643F698220023286810F0ABFC144BEA
:1054800018600294134B019300964FF4FA720023B4
:10549000286810F09FFC104B186006B0BDE8F0873C
:1054A0001C2900201829002014290020C4280020CD
:1054B000B0280020D8870308102900200C290020DC
:1054C000CC280020554C0108C02800206D4F010851
:1054D000BC2800204D4F0108B828002024290020B6
:1054E0002029002038B501FB00F4204605F0B4FD6A
:1054F000054618B12246002117F0FAFD284638BDAE
:1055000070B506460D460F4B186808B105F026FE2B
:10551000680001210844FFF7E5FF0A4B186008B155
:1055200000240BE04FF0FF300BE0064B1868325DB3
:10553000054900EB440017F019FA0134AC42F4D3EA
:10554000002070BD2C2900200488030838B50546CA
:105550000C460C4B186808B105F000FE01216018DC
:10556000FFF7C0FF074B186040B12246294617F0ED
:1055700006FE044B1B680020185538BD4FF0FF3065
:10558000FBE700BF2829002000B587B04FF0000CD2
:1055900080F800C0013A072A00F28780DFE802F0B5
:1055A00004162545356575550493414B0393414BCE
:1055B0001B680293404B0193404B0093404B414A80
:1055C00017F06CF8002007B05DF804FB04933E4B25
:1055D0000393384A12680292374A01920093384B7B
:1055E000384A17F05BF80020EDE70493374B03933C
:1055F000304B1B680293304B0193354B0093304B7B
:10560000304A17F04BF80020DDE70493314B039349
:10561000284B1B680293284B01932D4B0093284B7A
:10562000284A17F03BF80020CDE704932A4B039358
:10563000204B1B680293204B0193254B0093204B7A
:10564000204A17F02BF80020BDE70493234B039367
:10565000184B1B680293184B01931D4B0093184B7A
:10566000184A17F01BF80020ADE704931C4B039376
:10567000104B1B680293104B0193154B0093104B7A
:10568000104A17F00BF800209DE70493154B039385
:10569000084B1B680293084B01930D4B0093084B7A
:1056A000084A16F0FBFF00208DE74FF0FF308AE735
:1056B000248803082C290020646F03082C88030821
:1056C000F80000200C8803087C8503083C88030848
:1056D000448803084C880308548803085C8803083E
:1056E0006C8803087C8803082DE9F04F99B0179067
:1056F0000D4617461C460A46002117F0F9FC7A1E93
:10570000072A00F2BA81DFE812F008004300A10086
:10571000EA00C5006E019301490101218020FFF7D5
:10572000E1FE07460094804B804A802116F0B6FFC8
:105730007F4B1A687F4B1B6814937F4B13937F4BEF
:1057400012937F4B11937F4B10937F4B0F930E92CD
:105750007E4B0D937E490C910B947E490A910992E0
:10576000089307977C48069005940491039402914E
:1057700001920093794B7A4A2946179816F08EFFCA
:105780000446384605F0EAFCE0B219B0BDE8F08FF7
:1057900001218020FFF7A6FE074601218020FFF7A8
:1057A000A1FE8046DFF8F09100944B466D4A8021BF
:1057B000384616F073FFDFF894A1654E0296019704
:1057C000DFF86CB1DBF8003000935346664A802165
:1057D000404616F063FF0094644B544A80213846DB
:1057E00016F05CFFDBF80030524A12681492524AFD
:1057F0001392524A1292524A1192524A1092524AAB
:105800000F920E93CDF834A00C960B94CDF82890FF
:105810000993CDF820A00797CDF818800594CDF80E
:1058200010900394CDF808900193CDF800A04B465A
:105830004B4A2946179816F031FF0446384605F0C2
:105840008DFC404605F08AFCE0B29EE7384B1968B3
:105850003E4B474A37480068109037480F9037480A
:105860000E9037480D9037480C9037480B900A91AE
:105870000993404808900792069105933E4804908A
:105880003E48039002923E48019000913449179897
:1058900017F06CF8264B19682C4B3A4A25480068DB
:1058A000109025480F9025480E9025480D902548CA
:1058B0000C9025480B900A91099333480890079261
:1058C00006910593314804902348039002922C4896
:1058D000019000912249179817F048F8DAE7144B25
:1058E00019681A4B1D4A13480068109012480F900F
:1058F00012480E9012480D9012480C9012480B90CE
:105900000A9109932248089007920691059321482D
:105910000490114803900292194801900091104997
:10592000179817F023F8B5E78488030890880308D0
:105930002C29002028290020DC680308846E030835
:1059400098880308446F0308586F0308646F0308BE
:1059500090740308248803081CAD030854880308C6
:10596000008A0308A8880308D8890308B0880308B8
:105970003C880308C4880308C8880308D88803083B
:10598000FC8803084C880308048903080889030875
:10599000188903081C8903087C850308384B19689B
:1059A000384B394A39480068109039480F903948C7
:1059B0000E9039480D9039480C9039480B900A9157
:1059C0000993384808900792069105933648049049
:1059D0003648039002923648019000913549179855
:1059E00016F0C4FF56E7264B1968264B324A274863
:1059F0000068109026480F9026480E9026480D907B
:105A000026480C9026480B900A9109932B48089041
:105A10000792069105932A48049024480390029225
:105A20002348019000912349179816F09FFF31E712
:105A3000134B1968134B234A1448006810901448FC
:105A40000F9014480E9014480D9014480C90144870
:105A50000B900A9109931C480890079206910593B0
:105A60001A48049011480390029211480190009145
:105A70001049179816F07AFF0CE74FF0FF3084E6D4
:105A80002C290020646F03085C8803082829002063
:105A9000DC680308846E030898880308446F0308D1
:105AA000586F030840890308448903081CAD0308A4
:105AB000FC880308008A03086C88030864890308CB
:105AC000688903087C880308948903089889030877
:105AD00030B583B01C469DF81850012A0BD0022A1D
