:020000040801F1
:10000000000002203D200108511F0108531F010874
:10001000551F0108571F0108591F01080000000063
:1000200000000000000000000000000051890108ED
:100030005B1F010800000000F1890108F967010851
:100040008D2001088D2001088D2001088D200108D8
:100050008D2001088D2001088D2001088D200108C8
:100060008D2001088D2001088D2001088D200108B8
:100070008D2001088D2001088D2001088D200108A8
:100080008D2001088D2001088D200108000000004E
:100090000000000000000000000000008D200108AA
:1000A0005D1F01088D2001088D2001088D200108A9
:1000B0008D2001088D2001088D2001088D20010868
:1000C0008D2001088D2001088D2001088D20010858
:1000D0008D2001088D2001088D20010800000000FE
:1000E0008D2001088D2001088D20010800000000EE
:1000F0000000000000000000000000008D2001084A
:10010000000000008D2001088D2001088D200108CD
:1001100000000000000000000000000000000000DF
:100120008D2001088D2001088D2001088D200108F7
:100130008D20010800000000000000000000000009
:100140000000000000000000000000008D200108F9
:100150008D2001088D2001088D2001088D200108C7
:100160008D2001088D200108000000000000000023
:10017000000000000000000000000000000000007F
:10018000000000008D2001080000000000000000B9
:080190008D2001088D200108FB
:1001A00010B5054C237833B9044B13B10448AFF3B1
:1001B00000800123237010BD80010020000000009A
:1001C00028A2020808B5034B1BB103490348AFF34B
:1001D000008008BD000000008401002028A2020861
:1001E00001F0FF01102A2BDB10F0070F08D010F8E8
:1001F000013B013A8B422DD010F0070F42B3F6D1EC
:10020000F0B441EA012141EA014122F007047FF004
:1002100000070023F0E80256083C85EA010586EA5B
:10022000010685FA47F5A3FA87F586FA47F6A5FA97
:1002300087F68EB9EED1F0BC01F0FF0102F00702A3
:1002400032B110F8013B013A83EA010313B1F8D14E
:100250000020704701387047002D06BF354603382F
:10026000073815F0010F07D1013015F4807F02BF68
:10027000013015F4C03F0130F0BC0138704700BFB9
:10028000034613F8012B002AFBD1181A01387047D6
:1002900010F8012B11F8013B012A28BF9A42F7D030
:1002A000D01A704781F0004102E000BF83F00043A4
:1002B00030B54FEA41044FEA430594EA050F08BF01
:1002C00090EA020F1FBF54EA000C55EA020C7FEAC5
:1002D000645C7FEA655C00F0E2804FEA5454D4EB42
:1002E0005555B8BF6D420CDD2C4480EA020281EA0C
:1002F000030382EA000083EA010180EA020281EA44
:100300000303362D88BF30BD11F0004F4FEA013195
:100310004FF4801C4CEA113102D0404261EB4101A4
:1003200013F0004F4FEA03334CEA133302D052422A
:1003300063EB430394EA050F00F0A780A4F10104E6
:10034000D5F1200E0DDB02FA0EFC22FA05F2801820
:1003500041F1000103FA0EF2801843FA05F3594106
:100360000EE0A5F120050EF1200E012A03FA0EFC85
:1003700028BF4CF0020C43FA05F3C01851EBE371AF
:1003800001F0004507D54FF0000EDCF1000C7EEBCC
:1003900000006EEB0101B1F5801F1BD3B1F5001F0A
:1003A0000CD349085FEA30004FEA3C0C04F1010429
:1003B0004FEA445212F5800F80F09A80BCF1004F52
:1003C00008BF5FEA500C50F1000041EB045141EAD4
:1003D000050130BD5FEA4C0C404141EB0101013C9D
:1003E00028BFB1F5801FE9D291F0000F04BF01468C
:1003F0000020B1FA81F308BF2033A3F10B03B3F15E
:1004000020020CDA0C3208DD02F1140CC2F10C02ED
:1004100001FA0CF021FA02F10CE002F11402D8BF4B
:10042000C2F1200C01FA02F120FA0CFCDCBF41EA17
:100430000C019040E41AA2BF01EB0451294330BDE6
:100440006FEA04041F3C1CDA0C340EDC04F11404C3
:10045000C4F1200220FA04F001FA02F340EA03009A
:1004600021FA04F345EA030130BDC4F10C04C4F1E0
:10047000200220FA02F001FA04F340EA03002946C0
:1004800030BD21FA04F0294630BD94F0000F83F40A
:10049000801306BF81F480110134013D4EE77FEAED
:1004A000645C18BF7FEA655C29D094EA050F08BF39
:1004B00090EA020F05D054EA000C04BF194610461A
:1004C00030BD91EA030F1EBF0021002030BD5FEA5E
:1004D000545C05D14000494128BF41F0004130BD86
:1004E00014F580043CBF01F5801130BD01F00045DA
:1004F00045F0FE4141F470014FF0000030BD7FEA4D
:10050000645C1ABF194610467FEA655C1CBF0B4647
:10051000024650EA013406BF52EA033591EA030F5E
:1005200041F4002130BD00BF90F0000F04BF002156
:10053000704730B54FF4806404F132044FF0000589
:100540004FF0000150E700BF90F0000F04BF002102
:10055000704730B54FF4806404F1320410F0004568
:1005600048BF40424FF000013EE700BF42004FEA63
:10057000E2014FEA31014FEA02701FBF12F07F43E0
:1005800093F07F4F81F06051704732F07F4208BF97
:10059000704793F07F4F04BF41F40021704730B59E
:1005A0004FF4607401F0004521F000411CE700BFEA
:1005B00050EA010208BF704730B54FF000050AE06D
:1005C00050EA010208BF704730B511F0004502D56E
:1005D000404261EB41014FF4806404F132045FEA70
:1005E000915C3FF4D8AE4FF003025FEADC0C18BF19
:1005F00003325FEADC0C18BF033202EBDC02C2F10B
:10060000200300FA03FC20FA02F001FA03FE40EA9C
:100610000E0021FA02F11444BDE600BF70B54FF0A0
:10062000FF0C4CF4E06C1CEA11541DBF1CEA13557E
:1006300094EA0C0F95EA0C0F00F0DEF82C4481EAE6
:10064000030621EA4C5123EA4C5350EA013518BF06
:1006500052EA033541F4801143F4801338D0A0FBF3
:1006600002CE4FF00005E1FB02E506F00042E0FBA0
:1006700003E54FF00006E1FB03569CF0000F18BFA6
:100680004EF0010EA4F1FF04B6F5007F64F540744E
:1006900004D25FEA4E0E6D4146EB060642EAC621E1
:1006A00041EA55514FEAC52040EA5E504FEACE2E4E
:1006B000B4F1FD0C88BFBCF5E06F1ED8BEF1004F51
:1006C00008BF5FEA500E50F1000041EB045170BDCD
:1006D00006F0004646EA010140EA020081EA030111
:1006E000B4EB5C04C2BFD4EB0C0541EA045170BD0D
:1006F00041F480114FF0000E013C00F3AB8014F187
:10070000360FDEBF002001F0004170BDC4F10004CF
:10071000203C35DA0C341BDC04F11404C4F1200550
:1007200000FA05F320FA04F001FA05F240EA0200AB
:1007300001F0004221F0004110EBD37021FA04F6E1
:1007400042EB06015EEA430E08BF20EAD37070BD9B
:10075000C4F10C04C4F1200500FA04F320FA05F0FA
:1007600001FA04F240EA020001F0004110EBD370FC
:1007700041F100015EEA430E08BF20EAD37070BD6C
:10078000C4F1200500FA05F24EEA020E20FA04F345
:1007900001FA05F243EA020321FA04F001F00041F4
:1007A00021FA04F220EA020000EBD3705EEA430E65
:1007B00008BF20EAD37070BD94F0000F0FD101F094
:1007C0000046400041EB010111F4801F08BF013CCD
:1007D000F7D041EA060195F0000F18BF704703F00B
:1007E0000046520043EB030313F4801F08BF013D92
:1007F000F7D043EA0603704794EA0C0F0CEA13554E
:1008000018BF95EA0C0F0CD050EA410618BF52EA07
:100810004306D1D181EA030101F000414FF000000D
:1008200070BD50EA410606BF1046194652EA43061B
:1008300019D094EA0C0F02D150EA013613D195EA8F
:100840000C0F05D152EA03361CBF104619460AD1D7
:1008500081EA030101F0004141F0FE4141F47001E1
:100860004FF0000070BD41F0FE4141F4780170BDD1
:1008700070B54FF0FF0C4CF4E06C1CEA11541DBF36
:100880001CEA135594EA0C0F95EA0C0F00F0A7F838
:10089000A4EB050481EA030E52EA03354FEA013165
:1008A00000F088804FEA03334FF0805545EA131378
:1008B00043EA12634FEA022245EA111545EA106540
:1008C0004FEA00260EF000419D4208BF964244F1D7
:1008D000FD0404F5407402D25B084FEA3202B61AF6
:1008E00065EB03055B084FEA32024FF480104FF4CA
:1008F000002CB6EB020E75EB030E22BFB61A75463E
:1009000040EA0C005B084FEA3202B6EB020E75EBD0
:10091000030E22BFB61A754640EA5C005B084FEA38
:100920003202B6EB020E75EB030E22BFB61A754605
:1009300040EA9C005B084FEA3202B6EB020E75EB10
:10094000030E22BFB61A754640EADC0055EA060ED1
:1009500018D04FEA051545EA16754FEA06164FEA14
:10096000C30343EA52734FEAC2025FEA1C1CC0D1C0
:1009700011F4801F0BD141EA00014FF000004FF04D
:10098000004CB6E711F4801F04BF01430020B4F10E
:10099000FD0C88BFBCF5E06F3FF6AFAEB5EB030CC6
:1009A00004BFB6EB020C5FEA500C50F1000041EBC3
:1009B000045170BD0EF0004E4EEA113114EB5C0490
:1009C000C2BFD4EB0C0541EA045170BD41F4801163
:1009D0004FF0000E013C90E645EA060E8DE60CEA6B
:1009E000135594EA0C0F08BF95EA0C0F3FF43BAF88
:1009F00094EA0C0F0AD150EA01347FF434AF95EA3F
:100A00000C0F7FF425AF104619462CE795EA0C0F22
:100A100006D152EA03353FF4FDAE1046194622E7EF
:100A200050EA410618BF52EA43067FF4C5AE50EAC9
:100A300041047FF40DAF52EA43057FF4EBAE12E7B9
:100A40004FF0FF3C06E000BF4FF0010C02E000BF9A
:100A50004FF0010C4DF804CD4FEA410C7FEA6C5C7D
:100A60004FEA430C18BF7FEA6C5C1BD001B050EA20
:100A7000410C0CBF52EA430C91EA030F02BF90EA0B
:100A8000020F0020704710F1000F91EA030F58BFCA
:100A9000994208BF90422CBFD8176FEAE37040F02C
:100AA000010070474FEA410C7FEA6C5C02D150EACA
:100AB000013C07D14FEA430C7FEA6C5CD6D152EA85
:100AC000033CD3D05DF8040B704700BF844610464A
:100AD00062468C461946634600E000BF01B5FFF749
:100AE000B7FF002848BF10F1000F01BD4DF808ED19
:100AF000FFF7F4FF0CBF012000205DF808FB00BFEA
:100B00004DF808EDFFF7EAFF34BF012000205DF843
:100B100008FB00BF4DF808EDFFF7E0FF94BF012090
:100B200000205DF808FB00BF4DF808EDFFF7CEFF91
:100B300094BF012000205DF808FB00BF4DF808EDD0
:100B4000FFF7C4FF34BF012000205DF808FB00BFA1
:100B50004FEA410212F5001215D211D56FF47873E5
:100B6000B3EB625212D94FEAC12343F0004343EA88
:100B7000505311F0004F23FA02F018BF4042704763
:100B80004FF00000704750EA013005D111F00040ED
:100B900008BF6FF0004070474FF00000704700BF83
:100BA0004A0011D212F5001211D20DD56FF47873EC
:100BB000B3EB62520ED44FEAC12343F0004343EA41
:100BC000505323FA02F070474FF00000704750EA8C
:100BD000013002D14FF0FF3070474FF000007047F6
:100BE0007BB972B90029BEBF00204FF0004106E07A
:100BF00008BF00281CBF6FF000414FF0FF3000F02D
:100C0000FFB9ADF1080C6DE904CE002909DB002B1A
:100C10001ADB00F097F8DDF804E0DDE9022304B008
:100C20007047404261EB4101002B1BDB00F08AF86A
:100C3000DDF804E0DDE9022304B0404261EB41014C
:100C4000524263EB43037047524263EB430300F0AD
:100C500079F8DDF804E0DDE9022304B0404261EBFD
:100C600041017047524263EB430300F06BF8DDF83B
:100C700004E0DDE9022304B0524263EB4303704712
:100C800053B94AB9002908BF00281CBF4FF0FF31F3
:100C90004FF0FF3000F0B4B9ADF1080C6DE904CEAF
:100CA00000F050F8DDF804E0DDE9022304B07047FD
:100CB000430803F05533C01A830803F0333300F0C0
:100CC0003330184400EB101000F00F3000EB002020
:100CD00000EB0040000E704738B5002200230446A8
:100CE0000D46FFF70DFF28B920462946BDE83840DC
:100CF00000F00AB8204605F1004100F005F8404236
:100D000061EB410138BD00BFD0B50C4B0022064657
:100D10000F46FFF783FCFFF743FF0446FFF704FC91
:100D2000074B0022FFF77AFC02460B463046394655
:100D3000FFF7BCFAFFF734FF2146D0BD0000F03DBD
:100D40000000F0412DE9F047089D0C46002B4ED1E4
:100D500094468C458646B2FA82F262D94AB1C2F113
:100D60002003914020FA03F30CFA02FC194300FA25
:100D700002FE4FEA1C471FFA8CF6B1FBF7F44FEA6C
:100D80001E4307FB141143EA014304FB06F1994299
:100D90000AD91CEB030304F1FF3080F01281994261
:100DA00040F20F81023C6344591A1FFA8EF3B1FBE3
:100DB000F7F007FB101143EA014300FB06F69E42E1
:100DC0000AD91CEB030300F1FF3180F0FC809E4246
:100DD00040F2F980634402389B1B40EA0440002142
:100DE0001DB1D3400022C5E90032BDE8F0878B4237
:100DF00005D90DB1C5E9000100210846F5E7B3FAB0
:100E000083F1002946D1A34202D39042C0F0F08082
:100E1000861A64EB03030120002DE6D0C5E90063C8
:100E2000E3E7002A40F09080A1EB0C044FEA1C4855
:100E30001FFA8CF70121B4FBF8F64FEA1E4308FBBA
:100E4000164443EA044307FB06F0984208D91CEB1A
:100E5000030306F1FF3402D2984200F2CD80264609
:100E60001C1A1FFA8EF3B4FBF8F008FB104443EA97
:100E7000044300FB07F79F4208D91CEB030300F172
:100E8000FF3402D29F4200F2B0802046DB1B40EAD2
:100E90000640A5E7C1F120068B4022FA06F71F4362
:100EA00020FA06FC04FA01F343EA0C03F44000FACA
:100EB00001F8380C4FEA1349B4FBF0FE1FFA87FC27
:100EC00000FB1E4449EA04440EFB0CF9A14502FA5A
:100ED00001F20AD93C190EF1FF3A80F08480A14555
:100EE00040F28180AEF1020E3C44A4EB09041FFAEB
:100EF00083F9B4FBF0F300FB134449EA044403FB19
:100F00000CFCA44507D93C1903F1FF3067D2A44576
:100F100065D9023B3C4443EA0E40A0FB0293A4EB9C
:100F20000C049C42CE469C4651D34ED055B1B8EBF2
:100F30000E0364EB0C0404FA06F6CB401E43CC40CF
:100F4000C5E90064002150E7C2F1200320FA03F153
:100F50000CFA02FC24FA03F394400C434FEA1C48B9
:100F600000FA02FE1FFA8CF7B3FBF8F008FB103111
:100F7000230C43EA014300FB07F1994208D91CEB1B
:100F8000030300F1FF362CD299422AD90238634478
:100F90005B1AA4B2B3FBF8F108FB113344EA034433
:100FA00001FB07F3A34208D91CEB040401F1FF364F
:100FB00013D2A34211D902396444E41A41EA004130
:100FC00039E70446F0E6084606E7C845AED2B9EB75
:100FD000020E63EB070C0138A8E73146EDE7034644
:100FE00099E73046D4E7D6467FE7634402384DE7B9
:100FF0000646234608460FE7023E634430E700BF3B
:10100000704700BF10B58EB0484B93E803000C90BA
:10101000ADF834100DF1240C03F1080494E8070036
:101020008CE80700143393E803000790ADF8201014
:1010300004AB94E8070083E807006FE000231A463A
:1010400001A93B48006805F0A9FD00240EE000223C
:101050000EAB03EB440333F8081C0EAB03EB840325
:1010600053F8140C03F021FD0134E4B2022C5BD8D8
:1010700004F138036B4413F8343C002BE7D0012211
:101080000EAB03EB440333F8081C0EAB03EB8403F5
:1010900053F8140C03F009FDE6E70EAB03EB440232
:1010A00003EB840332F8081C53F8140C03F0F6FC2D
:1010B00004F138036B4403F8300C0134E4B2022C21
:1010C000EBD91C4C206805F0B7FD00231A4602A995
:1010D000206805F021FD002411E00EAB03EB440273
:1010E00003EB840332F81C1C53F8280C03F0D6FCE5
:1010F00004F138036B4403F82C0C0134E4B2022CE5
:10110000EBD90D4C206805F097FD00231A4603A982
:10111000206805F001FD012005F006FC044B18686D
:1011200005F07DFD002889D10024C8E740A202080F
:10113000AC010020B0010020B401002084B008B54B
:101140000DF1080C8CE80F0000231A466146044894
:10115000006805F0E1FCBDE8084004B0704700BF3E
:10116000A401002070B58AB04FF47A7005F0DCFB62
:1011700005F074FA642005F0D7FB0021012005F08A
:10118000D1F9002005F092F9484C01222146484847
:1011900005F01CFA01222146464805F017FA0B21FA
:1011A000012005F0BFF901222146434805F00EFA5F
:1011B0001621012005F0B6F9012221463F4805F02D
:1011C00005FA2121012005F0ADF93D4B59680A7857
:1011D0004B788878CD780E794979039102960195FC
:1011E0000090384905A815F0C3FD0122214605A845
:1011F00005F0ECF905F0DCFA40F6B83006F0DCFE5C
:10120000002512E0304803F0C5FE4FF47A7006F076
:10121000D3FE00F033FC4FF47A7006F0CDFE05F0FB
:101220001DFA4FF47A7005F07FFB0021012005F0D4
:1012300079F9002005F03AF91C4C01222146234897
:1012400005F0C4F91E4B5B689A68130E0193C2F354
:1012500007430093C2F30723D2B21D4905A815F036
:1012600087FD0122214605A805F0B0F90A210120D9
:1012700005F058F901222146164805F0A7F9013575
:101280002A46154905A815F073FD0122214605A837
:1012900005F09CF905F08CFA4FF47A73012278215D
:1012A000094803F04DFF0028ACD1BAE778000020D0
:1012B000C8A40208D4A40208E0A40208ECA402080E
:1012C000CC010020F4A40208D401002014A50208D7
:1012D00018A5020828A50208C0EC020808B50129D3
:1012E00014D002291AD001B108BD4AB1012AFBD19C
:1012F0000223002201461248006805F073FEF3E75E
:1013000001460F4B186806F080F9EDE7002AEBD193
:1013100001460C4B186806F078F9E5E74AB1012A56
:10132000E2D10223002201460748006805F05AFE78
:10133000DAE70146054B186806F067F9D4E700BF05
:10134000A8010020B4010020AC010020B001002061
:1013500010B5B4B0002333933B4B3C4A3C493D4865
:1013600002F082FF3C493D4807F0EAFE002831DBED
:101370003B4807F0D9FE3B4C204607F0C9FE3A48EF
:1013800007F0C6FE204607F0CFFE384807F0CCFE37
:10139000374807F0C9FE374807F0C6FE002233A9D8
:1013A000354807F009FEC0B10121334807F042FE7D
:1013B0000446C62201A907F06DFE204607F05EFE36
:1013C00000228DF80420022301A92C48006805F0B2
:1013D00009FE13E003F0F2F9CAE7C622002101A8D2
:1013E00016F086F80223002201A92448006805F0BF
:1013F000F9FD03E04FF47A7005F096FA002201A996
:101400001E4B186806F001F99DF80430002BF1D04E
:10141000194C204607F07CFE0221204607F00AFE08
:1014200004460028E6D0C62201A907F03FFE204668
:1014300007F024FE00228DF80420022301A90F48A2
:10144000006805F0CFFDD5E77D160108A11601085B
:1014500021160108C915010841160108ED150108FA
:101460002CA5020834A5020840A5020850A50208D0
:101470005CA5020864A502086CA50208A80100206A
:1014800030B5D1B04FF4FA6005F04EFA3B4800F0A9
:101490007DFB3B49012000F07FFB4FF4FA6448E0FC
:1014A00000231A4607A93748006805F077FB022198
:1014B000354807F0BFFD05469DF81D210DF11D01C2
:1014C00007F0F4FD284607F0D9FD38E048A807F0FA
:1014D000CBFC4E9B04934D9B03934C9B02934B9BE5
:1014E00001934A9B0093499B489A2849012000F0A8
:1014F00053FB274C63689A68130E0193C2F30743AA
:101500000093C2F30723D2B22249012000F044FB2A
:1015100061680A784B788878CC780D79497903919D
:101520000295019400901C49012000F035FB002435
:101530000134144B186805F072FB0028B0D14FF449
:10154000FA7005F0F1F9B4F5FA6FF1D100224FA964
:101550000D4807F031FD4F9A4CF250339A42B5D9FD
:101560000E4C204607F0D4FD2146074807F0C4FD85
:101570000B49012000F010FBA8E700BF3D11010856
:1015800080A50208A401002094A50208C8A50208AD
:10159000CC0100205CA6020878A60208A4A50208D7
:1015A000B4A5020808B54FF0FF31054B186805F0E7
:1015B00012FA00224FF48051024803F076FA08BD77
:1015C000A00100200004024008B54FF0FF31054B98
:1015D000186805F000FA00224FF40071024803F089
:1015E00064FA08BDA00100200000024008B54FF0D9
:1015F000FF31024B186805F0EEF908BD9C01002090
:1016000008B501224FF48051034803F04EFA034B12
:10161000186805F00FFA08BD00040240A001002080
:1016200008B501224FF40071034803F03EFA034B62
:10163000186805F0FFF908BD00000240A001002075
:1016400008B5024B186805F0F5F908BD9C010020AB
:1016500000B587B08DF80F104FF0FF3300930123D2
:101660000DF117020DF10F01034804F0BCFB9DF8CA
:10167000170007B05DF804FB2802002000B583B016
:101680008DF807004FF0FF3301220DF107010348E9
:1016900004F0C7FA03B05DF804FB00BF2802002085
:1016A00008B50A464FF0FF330146024804F0C5FC76
:1016B00008BD00BF2802002008B5294805F042F9FE
:1016C000284B1860284805F03DF9284B1860284A37
:1016D0000321012005F0D5F9264B1860264A032185
:1016E000012005F0CEF9254B1860254A0321012081
:1016F00005F0C7F9234B1860234AC621012005F0E5
:10170000C0F9224B1860224A4FF481710F2005F076
:10171000B8F9204B1860204A0021204805F0A6F8AF
:101720001F4B18601F4A00211F4805F09FF81F4BF0
:1017300018601F4A00211F4805F098F81E4B1860DA
:101740001E4A00211E4805F091F81E4B18601E4AE3
:1017500000211E4805F08AF81D4B186008BD00BF27
:101760007CA70208A00100206CA702089C010020B1
:10177000ECA70208B4010020D4A70208B0010020A1
:10178000BCA70208AC010020A4A70208A801002001
:101790008CA70208A401002094A80208FD170108E4
:1017A000C801002070A8020805100108C40100202B
:1017B0004CA8020865110108C001002028A80208F1
:1017C00051130108BC01002004A80208811401087B
:1017D000B801002008B500224FF48071014803F0E1
:1017E00064F908BD0000024008B501224FF4807181
:1017F000014803F05AF908BD0000024030B5EBB0D3
:1018000022AD5D4B0FCB85E80F0002AC802200219A
:10181000204615F06DFE40238DF8083022238DF808
:101820000930564B1A7C8DF80A209A7C8DF80B20D3
:101830001A7D8DF80C201B7E8DF80D3001238DF85C
:1018400027308DF828304E4B0B930C954D4B58A8F4
:1018500018605C600EF03AFF4B4B03221A6001F0F7
:10186000A1FB04460FE0FFF7B5FF4FF4FA7005F057
:101870005BF8FFF7B9FF4FF4FA6005F055F802A9DD
:1018800058A814F093F9BDF84C30002BEBD006218A
:1018900002A801F0A9FF3D4801F088FB394B224620
:1018A0003B4958A812F0B0FB06E0012158A814F0FB
:1018B00017FF012005F038F89DF88430032BF4D190
:1018C000304B5B689A68130E0193C2F30743009391
:1018D000C2F30723D2B22F49012000F05DF90022A4
:1018E000114626A8FFF7FAFC9DF89930D3B12A4992
:1018F000012000F051F9254B01930DF23D130093A7
:1019000047AB0DF19A0202A958A801F0ABFE58A806
:1019100002F040FB02A958A802F06AFC06F03EFA69
:10192000054608E01D49012000F036F9EFE70120E7
:1019300004F0FAFF254606F031FA0446411B58A888
:1019400014F0CEFE0B9BDB6802A898470028EED16E
:10195000FFF740FF642004F0E7FFFFF745FF40F684
:10196000B83004F0E1FF0B9B1B6802A8984741F6D2
:10197000583004F0D9FFE5E75CA20208007AFF1FA7
:1019800084000020CC01002098000020DD12010816
:10199000A0A602085CA60208B4A60208CCA602080B
:1019A0002DE9F04188B00024039404940594069432
:1019B000079400942E4B1A6B42F080021A631A6B44
:1019C00002F080020092009A01941A6B42F0010228
:1019D0001A631A6B02F001020192019A02941A6BC7
:1019E00042F002021A631B6B03F002030293029B94
:1019F000204D22464FF4F071284603F056F8DFF8E8
:101A0000788001224FF48051404603F04EF80122C5
:101A10004FF40071284603F048F807230393049419
:101A20000226059603A9284602F0CCFEE023039384
:101A3000012704970594069403A9284602F0C2FEE4
:101A40004FF48053039304970594069603A94046E8
:101A500002F0B8FE4FF44073039304970594069682
:101A600003A9284602F0AEFE08B0BDE8F08100BF31
:101A700000380240000002400004024008B50B4854
:101A80000B4B03600B4B436000238360C3604FF438
:101A90008042026143618361C361036203F09CF988
:101AA00000B908BD00F012F9FBE700BFD401002027
:101AB00000540040400D030030B589B0002303936B
:101AC00004930593069307930268154B9A4201D03D
:101AD00009B030BD00250195124C236B43F0020381
:101AE0002363236B03F002030193019BC023039341
:101AF00012230493012305930323069304230793DE
:101B000003A9094802F05EFE0295236C43F400131A
:101B10002364236C03F400130293029BD8E700BFF5
:101B200000540040003802400004024002680A4BA2
:101B30009A4200D0704710B5084A136C23F4001382
:101B40001364074C4021204602F020FF80212046EC
:101B500002F01CFF10BD00BF0054004000380240DE
:101B60000004024084B08DE80F0004B0704738B51F
:101B700001FB00F4204607F0B7F8054618B12246ED
:101B8000002115F0B5FC284638BD000008B1014A17
:101B900010607047000000200EB4F0B5ADF51C7D5C
:101BA000044601214FF48070FFF7E1FF00286BD05D
:101BB00005464FF4817200215BA815F099FC8DF861
:101BC0006C4114F021FEFEF7F3FC06460F4600229E
:101BD000324BFEF74DFEFFF77FF8CDE958014FA9D4
:101BE00058A815F08DFC4FAB2D4A40213FA816F0A8
:101BF00099FA044630463946FEF7AAFF294A82FB85
:101C00000032C317C3EBA2134FF47A7202FB130323
:101C1000254AC4F140013FA8204415F075F804445A
:101C2000631C20223FA90A550022CA540334A2ABE8
:101C30005A930DF26D17A19AFD21384615F01AFB43
:101C4000064600973FAB194A4FF48071284615F0BD
:101C50005BF8FC2E1ED834448DF86D424FF4807230
:101C600029460DF26D1015F0CAFB114B1E6846B1E6
:101C70005BACF2225FA9684616F003FE94E80F0001
:101C8000B047284607F0B2F80DF51C7DBDE8F040DE
:101C900003B07047FD238DF86D32DFE700408F40C1
:101CA000B8A80208D34D6210CCA80208D4A8020834
:101CB0000000002008B50268034B9A4200D008BD1E
:101CC00002F0DCFCFBE700BF0040014072B6FEE71B
:101CD00000B595B03022002108A815F009FC0023BA
:101CE0000393049305930693079301931F4A116C82
:101CF00041F080511164126C02F080520192019AFD
:101D000002931B4B1A6842F440421A601B6803F4AA
:101D100040430293029B012308934FF480330993BD
:101D200002220E924FF480030F9304231093642138
:101D300011911292139308A803F0CCFA88B90F23DB
:101D4000039302230493002305934FF480520692D9
:101D50000793032103A803F027FD20B915B05DF810
:101D600004FBFFF7B3FFFFF7B1FF00BF00380240ED
:101D70000070004000B583B072B60F4B0F4A9A60F6
:101D800062B60F4B019302E0019B013B0193019B63
:101D9000002BF9DC02F058FCFFF79AFFFFF700FE7A
:101DA00000F010F8FFF76AFE04F032FDFFF784FC44
:101DB00004F040FDFEE700BF00ED00E00000010878
:101DC00040420F0008B50E480E4B03604FF482737B
:101DD000436000238360C360036143614FF400727A
:101DE00082611022C2610362436283620A23C3627A
:101DF00003F0B8FE00B908BDFFF768FFFBE700BFBE
:101E0000280200200038004000B589B00023039369
:101E100004930593069307930268154B9A4202D0E8
:101E200009B05DF804FB0021019103F500331A6C41
:101E300042F480421A641A6C02F480420192019AC0
:101E400002911A6B42F002021A631B6B03F0020349
:101E50000293029B4FF4604303930223049306937F
:101E60000523079303A9034802F0ACFCD8E700BFA1
:101E7000003800400004024000B583B00022009208
:101E80000D4B596C41F480415964596C01F4804107
:101E9000009100990192196C41F0805119641B6CFA
:101EA00003F080530193019B0F216FF0010002F0BA
:101EB00071FC03B05DF804FB0038024030B589B016
:101EC0000546002401941D4B5A6C42F480325A643A
:101ED0005B6C03F480330193019B02A903A803F018
:101EE00039FD03F027FD164AA2FB00239B0C013BA2
:101EF0001448154A026040F2E732C2604360046150
:101F00008460846104F0A4FA044610B1204609B04C
:101F100030BD0C4804F056F904460028F6D11820CC
:101F200002F048FC0F2D01D90124EFE700222946D9
:101F3000182002F02FFC054B1D60E7E70038024037
:101F400083DE1B438002002000400140740000201B
:101F5000FEE7FEE7FEE7FEE7FEE7704708B502484A
:101F600004F070F908BD00BF800200200120704716
:101F700008B516F057FC162303604FF0FF3008BD7C
:101F800008B54FF0FF31FFF7F3FFFEE770B50C46E1
:101F90001646002506E0AFF30080214601F8010B4C
:101FA00001350C46B542F6DB304670BD70B50C46C7
:101FB0001646002504E014F8010BAFF3008001354C
:101FC000B542F8DB304670BD4FF0FF3070474FF43C
:101FD00000534B600020704701207047002070477D
:101FE00010B503460C4A0D490D48006840B10C4835
:101FF00000680344521A934206D8094A136010BD80
:102000000748084C0460F2E716F00CFC0C23036050
:102010004FF0FF30F3E700BF00000220000800008F
:10202000CC020020E8780120034AD2F8883043F43B
:102030007003C2F88830704700ED00E0DFF834D05C
:10204000FFF7F2FF0C480D490D4A002302E0D45877
:10205000C4500433C4188C42F9D30A4A0A4C0023F2
:1020600001E013600432A242FBD316F0E1FBFFF75C
:1020700081FE704700000220000000208001002047
:10208000A0F9020880010020E4780120FEE70000AA
:1020900008B5034B034AC8210FF02CF808BD00BF58
:1020A00020E60208F4A8020870B588B006460C467F
:1020B00004AD274928460FF025F90023009395E841
:1020C0000C0094E803000FF0D1FAA8B1214B1B6873
:1020D000002203A92048984738B1204B204AC82144
:1020E00030460FF007F808B070BD1E4B1C4AC821DF
:1020F00030460EF0FFFFF6E706AD1B4928460FF00D
:1021000001F90023009395E80C0094E803000FF018
:10211000ADFAA0B10F4BDB690F491448984730B1B5
:102120000E4B0F4AC82130460EF0E4FFDBE7104BA0
:102130000B4A4FF4FA7130460EF0DCFFD3E70D4B3B
:10214000074A4FF4C87130460EF0D4FFCBE700BF0A
:1021500094A902080C00002040A5020898A90208D2
:10216000D0A9020840AA02087CAA020884AA020890
:102170009CAA0208E0AA020870B584B005460C4685
:1021800002AE144930460FF0BDF80023009396E8E4
:102190000C0094E803000FF069FA98B10E4B1B6A2B
:1021A0000E48984738B10E4B0E4AC82128460EF00B
:1021B000A1FF04B070BD0C4B0A4AC82128460EF09E
:1021C00099FFF6E7094B074A4FF4C87128460EF00D
:1021D00091FFEEE77CAA02080C00002040A502084F
:1021E00038AB0208D0A9020874AB0208B8AB0208E9
:1021F00070B584B005460C4602AE124930460FF069
:1022000081F80023009396E80C0094E803000FF097
:102210002DFA78B10C4E336A0C4C20469847736AFD
:10222000204698470A4B0B4AC82128460EF062FF09
:1022300004B070BD084B074A4FF4C87128460EF031
:1022400059FFF5E77CAA02080C0000202CA5020823
:1022500008AC0208D0A90208B8AB020810B590B0CB
:10226000044609A806F000FE0C490120FFF794FC83
:102270000F9B06930E9B05930D9B04930C9B03935E
:102280000B9B02930A9B0193099B0093044B054A05
:10229000C82120460EF02EFF10B010BD50AC020831
:1022A00070AC020874AD0208F0B591B006460C4659
:1022B0000CAD4B4928460FF025F80023009395E814
:1022C0000C0094E803000FF0D1F928B3454C2368C3
:1022D000002201210AA898472368002202210DF15B
:1022E0002B0098479DF828309DF829209DF82A104A
:1022F0009DF82B009DF82C409DF82D5005950494D9
:102300000390029101920093374B384AC82130461E
:102310000EF0F0FE11B0F0BD0EAD354928460EF0BE
:10232000F1FF0023009395E80C0094E803000FF000
:102330009DF900284BD008AB2E4A04F5007103C963
:102340000DF09EFF00283AD00AAB2B4A04F500742A
:1023500094E803000DF094FF002830D0DDE9080177
:10236000FEF71EFCC4B2DDE90A01FEF719FCC5B296
:10237000631EDBB2022B01D8012D07D91F4B1B4A6C
:102380004FF4C87130460EF0B5FEC3E7154F3B68F9
:102390000022022107A8984704F13F036B4403F889
:1023A000245C3B680122022107A89847019500940C
:1023B000134B0E4AC82130460EF09CFEAAE7114B83
:1023C0000A4A4FF4C87130460EF094FEA2E70E4B55
:1023D000064A4FF4C87130460EF08CFE9AE700BFF3
:1023E00094A90208D0020020B8AD0208D0A90208C2
:1023F0007CAA0208ECAD0208F8AD020838AE02086B
:1024000000AE020874AE0208B0AE020838B501FB97
:1024100000F4204606F068FC054618B1224600216B
:1024200015F066F8284638BDF0B58BB006460C4668
:1024300006AD844928460EF065FF0023009395E819
:102440000C0094E803000FF011F900283BD0C621DE
:102450000120FFF7DBFF054640B37B4B1B680022E2
:102460001146984705F1A5073846FDF709FFC4B2A4
:1024700022462A21384615F03BF82C44002384F8E4
:10248000A5306B78EBB1714BAA1C05F18401039761
:102490000291019200936E4B6E4AC82130460EF0B5
:1024A00029FE284606F0A2FC0BB0F0BD6A4B694A33
:1024B0004FF4FA7130460EF01DFE284606F096FCE9
:1024C000F2E7664BE0E708AD654928460EF01AFFD3
:1024D0000023009395E80C0094E803000FF0C6F881
:1024E000002800F0A780C6210120FFF78FFF0546D6
:1024F00010B305AB5B4A04F5007103C90DF056FC3F
:10250000002824DB6B1C584A04F5007797E8030089
:102510000DF0DCFE554A97E803000FF0E3FE074696
:1025200028B314F08DFB0346E0B10433032B79D8B4
:10253000DFE803F070686052474B464A4FF4FA7187
:1025400030460EF0D7FD284606F050FCACE7484B6D
:10255000404A4FF4C87130460EF0CCFD284606F0D4
:1025600045FCA1E77F223946A81C14F048FF3846F5
:1025700006F03CFC3F4A04F5007393E803000FF0BB
:10258000B1FE074628B12022014605F1840014F06F
:1025900036FF384606F02AFC374A04F5007494E802
:1025A00003000FF09FFE044628B12022014605F1EA
:1025B000A50014F024FF204606F018FC01222A7022
:1025C000214B1B680021284698472C4B214AC821E3
:1025D00030460EF08FFDC1E7294B1E4A4FF4C871FB
:1025E00030460EF087FD384606F000FC284606F01F
:1025F000FDFB59E7234B174A4FF4C87130460EF0E4
:1026000079FDF0E7204B134A4FF4C87130460EF0C5
:1026100071FDE8E71D4B0F4A4FF4C87130460EF0CC
:1026200069FDE0E71A4B0B4A4FF4C87130460EF0D3
:1026300061FDD8E7174B074A4FF4C87130460EF0DA
:1026400059FD31E794A90208D002002004AF020826
:1026500050AF0208D0A9020814AF02080CAF02085C
:102660007CAA020898AF0208CCAF0208D8AF0208D3
:102670009CAF020820B102082CB1020838B1020850
:10268000E4AF020828B0020874B00208B4B002082F
:10269000ECB00208B0AE02082DE9F04FC7B0814699
:1026A0008A4672228E4927A816F0EBF801211E20D7
:1026B000FFF7ACFE064601212E20FFF7A7FE0746D6
:1026C00001212E20FFF7A2FE804601214FF4407029
:1026D000FFF79CFE044601214FF4C070FFF796FE01
:1026E0000546002E00F0E380002F00F0E080B8F1F6
:1026F000000F00F0DC80002C00F0D980002800F0F2
:10270000D6800DF5887B774958460EF0FBFD0023F7
:1027100000939BE80C009AE803000EF0A7FF002846
:1027200000F0BD8000F098FF824658B390F8AC30BE
:1027300013F0200F2CD190F8AD3013F0200F2DD0D6
:102740001E226949304614F05AFEDFF8C4B10AF17E
:10275000080300935B46654A2E2140460DF0CCFFEE
:102760000AF11C0300935B46604A2E2138460DF0A7
:10277000C3FF2046FDF784FD5D4B1B8823524FF0BD
:10278000010A28E01E225B49304614F038FEF0E7CB
:102790001E225949304614F032FED6E71E22574910
:1027A000304614F02CFED0E75FFA8AF30122802134
:1027B00007A801F041FB07A9204614F0E1FD2046DF
:1027C000FDF75EFD034621184D4A1068E05013796D
:1027D0000B710AF1010ABAF1030FE5DD4FF0010AAE
:1027E00007E02046FDF74CFD414B1B8823520AF1C0
:1027F000010ABAF1030F18DC5FFA8AF30222802182
:1028000007A801F019FB07A9204614F0B9FDBAF199
:10281000020FE6DC2046FDF733FD03462118384A57
:102820001068E05013790B71E1E72846FDF728FDA9
:102830002F4B1B882B524FF0010A07E02846FDF76B
:102840001FFD2B4B1B882B520AF1010ABAF1030F13
:1028500018DC5FFA8AF30222802107A801F0D4FA7B
:1028600007A9284614F08CFDBAF1020FE6DC2846D1
:10287000FDF706FD03462918214A1068E850137930
:102880000B71E1E7049503940297CDF8048000965C
:1028900027AB1C4AC82148460EF02CFC0EE01A4B10
:1028A000184A4FF4C87148460EF024FC06E0174B56
:1028B000144A4FF4C87148460EF01CFC304606F02E
:1028C00095FA384606F092FA404606F08FFA20460E
:1028D00006F08CFA284606F089FA47B0BDE8F08F7A
:1028E000E0B1020894A9020880B1020894B102087C
:1028F00098B10208B0E7020874B1020888B1020872
:102900009CB10208D0A90208B0AE0208A4B1020826
:102910009D2E0208F0B58DB007460C46154608AE50
:10292000234930460EF0EEFC0023009396E80C009D
:1029300094E803000EF09AFE18B300230293039369
:1029400004930593069307931A4B02931A4B07932C
:1029500045B1012D0ED002AB184A214638460FF082
:1029600041F805E002AB154A214638460FF03AF827
:102970000DB0F0BD02AB124A214638460FF032F8D6
:10298000F6E70AAD0F4928460EF0BCFC0023009381
:1029900095E80C0094E803000EF068FE0028E7D1EB
:1029A000094B0A4A4FF4C87138460EF0A3FBDFE723
:1029B00094A9020864A502080C00002094A502084E
:1029C000A4A502087CAA0208E0AA0208D0A902086D
:1029D00070B586B005460C4604AE154930460EF07B
:1029E00091FC0023009396E80C0094E803000EF09D
:1029F0003DFEA0B1EB6F1868002302930D4B0193CD
:102A0000012300934FF4FA6200230FF05DFD0A4B9F
:102A10000A4AC82128460EF06DFB06B070BD084B6F
:102A2000064A4FF4C87128460EF064FBF5E700BF74
:102A30007CAA0208BD47010854B20208D0A90208C6
:102A4000B8AB020870B5A4B005460C4622AE1A49D0
:102A500030460EF057FC0023009396E80C0094E8F3
:102A600003000EF003FEF0B1802302AA134904F123
:102A700010000FF0C6FA124902A8FDF709FC40B990
:102A8000104B0093104B114A2146284610F0B0FF1E
:102A900010E00B4B00930E4B0E4A4FF4C8712846C2
:102AA0000EF028FB06E00C4B0A4A4FF4C87128468A
:102AB0000EF020FB24B070BD7CAA02080CE70208CF
:102AC00088B20208400D030034A502080C00002063
:102AD00098B20208D0A90208B8AB0208F0B597B0C6
:102AE00004460E4601214FF48060FFF78FFC054637
:102AF00050B10122214628480DF06EF8044640B13D
:102B000068460DF079FC10E006F070F94FF0FF30E8
:102B100040E00DF07AF8284606F068F96FF0010001
:102B200038E0294668460DF07DFC1B4B1B694FF4CD
:102B3000806229462068984702460028F1D1204645
:102B40000DF063F801211020FFF760FC074628B163
:102B5000014668460DF0BDFC002412E0284606F050
:102B600045F9384606F042F94FF0FF3012E06100B7
:102B70003B5D0A4AC1F1210106EB440014F0C4F8A0
:102B800001340F2CF3DD284606F030F9384606F004
:102B90002DF9002017B0F0BD0C000020E4B20208AF
:102BA00070B584B005460C4602AE194930460EF0A9
:102BB000A9FB0023009396E80C0094E803000EF0B4
:102BC00055FDE8B101212120FFF720FC0446014614
:102BD0001048FFF783FF58B900940F4B0F4AC821E4
:102BE00028460EF087FA204606F000F904B070BDC2
:102BF0000B4B0A4A4FF4CA7128460EF07BFAF2E7F3
:102C0000084B064A4FF4C87128460EF073FAEDE7F8
:102C100094A9020884AA0208ECB20208D0A902080A
:102C200010B3020850B3020870B5C4B006460C4693
:102C300042AD204928460EF065FB0023009395E83D
:102C40000C0094E803000EF011FD50B37B2323AA7F
:102C5000194904F500700FF0D4F9002819DD23ABF1
:102C6000164A802103A814F04FF8154B5B6A03A89D
:102C7000984730B1134B144AC82130460EF03AFA47
:102C800016E0124B104A4FF4FA7130460EF032FA49
:102C90000EE00F4B0C4A4FF4C87130460EF02AFA82
:102CA00006E00C4B084A4FF4C87130460EF022FA89
:102CB00044B070BD7CAA0208A0B30208A8B3020801
:102CC0000C000020B0B30208D0A90208E4B3020847
:102CD00020B40208B8AB02080B2900D0704770B5C9
:102CE000A6B00546144608AE9C4930460EF00AFBD5
:102CF0000023009396E80C0094E803000EF0B6FC65
:102D000020B12846FFF7C4F926B070BD0AAE944939
:102D100030460EF0F7FA0023009396E80C0004F119
:102D2000080103C90EF0A2FC18B12846FFF796FA75
:102D3000EAE70CAE8B4930460EF0E4FA002300932C
:102D400096E80C0004F1080103C90EF08FFC20B1D5
:102D500021462846FFF7A8FAD6E70EAE824930464C
:102D60000EF0D0FA0023009396E80C0004F108015D
:102D700003C90EF07BFC20B121462846FFF754FB27
:102D8000C2E710AE794930460EF0BCFA002300933A
:102D900096E80C0004F1080103C90EF067FC20B1AD
:102DA00021462846FFF778FCAEE712AE7049304660
:102DB0000EF0A8FA0023009396E80C0004F1080135
:102DC00003C90EF053FC28B1002221462846FFF724
:102DD000A1FD99E714AE674930460EF093FA00233F
:102DE000009396E80C0004F1080103C90EF03EFCC4
:102DF00028B1012221462846FFF78CFD84E716AE54
:102E00005D4930460EF07EFA0023009396E80C00F0
:102E100004F1080103C90EF029FC20B1214628461F
:102E2000FFF7D6FD70E718AE544930460EF06AFA47
:102E30000023009396E80C00E168A0680EF016FCF1
:102E400020B121462846FFF7FDFD5DE71AAE4C494B
:102E500030460EF057FA0023009396E80C00E16824
:102E6000A0680EF003FC20B121462846FFF798FE2B
:102E70004AE71CAE434930460EF044FA0023009363
:102E800096E80C00E168A0680EF0F0FB20B1214646
:102E90002846FFF709F937E71EAE3B4930460EF0EA
:102EA00031FA0023009396E80C00E168A0680EF068
:102EB000DDFB20B121462846FFF75EF924E720AE6E
:102EC000324930460EF01EFA0023009396E80C00BB
:102ED000E168A0680EF0CAFB20B121462846FFF742
:102EE00087F911E722AE2A4930460EF00BFA00238B
:102EF000009396E80C00E168A0680EF0B7FB40B1C3
:102F0000244B0093244B254A2146284610F070FD9F
:102F1000FAE624AE224930460EF0F4F9002300937D
:102F200096E80C00E168A0680EF0A0FB20B12146F5
:102F30002846FFF779FEE7E6002302930393049304
:102F4000059306930793144B0293144B079302AA1D
:102F50002146284610F066FCD6E600BF5CB40208A5
:102F600064B4020874B4020884B4020898B4020875
:102F7000ACB40208BCB40208D0B40208E4B402083D
:102F8000FCB4020810B5020834B5020850B50208B6
:102F90006CB5020860E316002CA502080C000020A6
:102FA00088B5020800487047D92C0108014B186009
:102FB000704700BFD00200201A4B1B6803B1704756
:102FC00030B585B018490120FEF7E6FD174C4022C8
:102FD0000021204614F08CFA02AD154B19682846E2
:102FE0000EF090F995E8030084E80300114B19688E
:102FF00028460EF087F904F1080395E8030083E8FA
:1030000003003C236385002300930B4B22460B49AE
:1030100009680B48006812F0ABFD024B186005B060
:1030200030BD00BFF4020020A4B50208F802002061
:103030004C03002048030020953501085003002070
:103040003C0300202DE9F04F85B08146884692462A
:103050002A4C00F108030093294B2A4A28212068B2
:103060000DF04AFB24682046FDF70AF90146204688
:1030700000F0E0FB00263BE008EBC60318F8364002
:103080001D79214F2B4622468021386800F0F0FB45
:10309000DFF880B02B4622464FF41671DBF80000B3
:1030A00000F096FC194D02AC396820460EF02AF962
:1030B00005F1180394E8030083E80300DBF800102F
:1030C00020460EF01FF905F1200394E8030083E881
:1030D0000300012485F8284085F82E4029464846FB
:1030E00011F0ACFA3A680A492046FEF755FD26442D
:1030F0005645C1D305B0BDE8F08F00BFF0020020F7
:10310000812E020894B1020844030020F802002036
:10311000C4B502084003002070B584B000230193B9
:103120000568866826B3044615B3714B1B680022F8
:10313000022103A89847039BADF808301B0C8DF8BB
:103140000A306C49284614F093F9002800F0BA8040
:1031500001AA694913F02CFE012818D0674B1B689F
:10316000002B00F3A58066490320FEF715FDB2E0B1
:10317000624B1B68002B40F3AE80624B9222624987
:1031800001200FF0F5FE61480DF060FFA3E05B4BFE
:103190001B68012B18DC2B46019A5D490120FEF7C4
:1031A000FBFC019D6B1E022B1AD8E468022C2ED06A
:1031B000032C4FD0514B1B68002B6EDC3246554917
:1031C0000320FEF7E9FC86E04E4B9F224E49022089
:1031D0000FF0CEFE2A4601994F480DF037FFDAE78F
:1031E000464B1B68002B06DC019B03224B49104613
:1031F000FEF7D2FC6FE0434BA422434901200FF0BD
:10320000B7FE019A032145480DF020FFECE70222AA
:103210004349304614F0E1F80028C9D105F10F0305
:103220006B44012203F8082C344B1B68934206DCE4
:103230002F4B1B680122022102A898474BE0314B1B
:10324000AE22314902200FF093FE019935480DF06E
:10325000FDFEEDE703223449304614F0BEF80028A5
:10326000A8D105F10F036B44002203F8082C234B6F
:103270001B68012B06DC1E4B1B680122022102A8E1
:10328000984728E01F4BB2221F4902200FF070FE22
:10329000019926480DF0DAFEEDE71A4BB6221A49DD
:1032A00001200FF065FE31461A480DF0CFFE85E78C
:1032B000144BBB22144901200FF05AFE1C480DF09C
:1032C000C5FE50E70D4B1B68002B06DC2A4619494A
:1032D0000320FEF761FC04B070BD0A4BBF220A490F
:1032E00001200FF045FE294612480DF0AFFEEDE734
:1032F000DC02002058B6020860B6020898000020E0
:10330000B4B70208E8B5020808B6020834B60208E5
:1033100098B6020840B702086CB60208C0B60208A8
:1033200010B7020814B7020828B702082CB7020821
:103330007CB70208ECB7020838B501FB00F4204660
:1033400005F0D2FC054618B12246002114F0D0F851
:10335000284638BD2DE9F04387B007460C46584D46
:103360002B680022012104A898472B680022022123
:103370000DF1130098470322524904A814F08EF867
:1033800048B9032250490DF1130014F087F810B921
:10339000002C00F091804B4B06AA12E90300186044
:1033A000998001214FF41670FFF7C6FF06460121F0
:1033B0008020FFF7C1FF0546002238E002F1010836
:1033C0005FFA88F802F118030DEB030212F8083CCB
:1033D0000093434601224FF41671304600F0ECFC96
:1033E000434601228021284600F026FDDFF8DC90CC
:1033F00002AC294620460DF085FF09F1180394E838
:10340000030083E80300314620460DF07BFF09F1FD
:10341000200394E8030083E80300002389F82830A0
:1034200089F82E304946384611F008F94246022AFA
:10343000C4D9002238E002F101085FFA88F802F1ED
:1034400018030DEB030212F8053C009343460222D9
:103450004FF41671304600F0AFFC43460222802143
:10346000284600F0E9FCDFF8649002AC29462046CB
:103470000DF048FF09F1180394E8030083E8030006
:10348000314620460DF03EFF09F1200394E8030089
:1034900083E80300002389F8283089F82E30494654
:1034A000384611F0CBF84246022AC4D9304605F01E
:1034B0009DFC284605F09AFC07B0BDE8F08300BFEC
:1034C000DC020020D4020020D7020020F8020020F5
:1034D00008B5054B186810B1044B1B7803B908BD3B
:1034E0000021FFF737FFFAE7F4020020E002002096
:1034F00008B5054B1B7803B908BD0121034B1868BB
:10350000FFF728FFF8E700BFE0020020F4020020E8
:103510002DE9F04F83B081460D461646002400E0A9
:103520000134B4422ED205EBC40855F83430022BD6
:10353000F6D101218020FFF7FFFE074698F80430FE
:103540000222802100F060FCDFF844804FF0010B84
:1035500088F828B0EA46394650460DF0D3FE08F107
:1035600018039AE8030083E803004146484611F037
:1035700017F83A4605495846FEF70EFB384605F05F
:1035800035FCCDE703B0BDE8F08F00BF1CB80208E2
:10359000F802002070B5102931D00546112902D05B
:1035A00009293AD070BD224B1B68022B1DDC214932
:1035B0000120FEF7F1FA204B1D60204B1B78002BF9
:1035C000F0D11F4E062231462846FFF73BFD1A4C2C
:1035D00001212068FFF7BEFE062231462068FFF772
:1035E00097FF164B01221A70DCE7164BCD221649C5
:1035F00003200FF0BDFC15480DF028FDD7E7144659
:1036000013490120FEF7C8FA2046FFF785FD002187
:10361000094B1868FFF79EFEC4E70E490120FEF72C
:10362000BBFA0023044A1360044A1370BAE700BFD0
:103630009800002064B80208F4020020E002002094
:103640003400002038B8020808B602084CB8020856
:103650007CB80208A0B80208014B1868704700BF88
:10366000F40200202DE9F04786B006460C4691464C
:103670001D4601218020FFF75FFEDFF848A1CAF850
:10368000000001212120FFF757FEDFF83C81C8F838
:10369000000001212120FFF74FFE3B4F3860012140
:1036A0008020FFF749FE394B186001214FF4167056
:1036B000FFF742FE364B186001212820FFF73CFE41
:1036C000344B18600F9A344B1A60DAF800A0494660
:1036D000504615F0E4F8D8F800902946484615F011
:1036E000DEF80E99386815F0DAF84B4652462B4949
:1036F0000120FEF751FA2A4D2E602A4B1C6006214C
:10370000204600F071F8284E04ACD8F8001020468E
:103710000DF0F8FD94E8030086E8030039682046C0
:103720000DF0F0FD06F1080394E8030083E80300C0
:103730003C237385002402941C4B019303230093C4
:1037400042F21072002328680EF0BEFE184B18607B
:103750000294184B01930126009643F69822002309
:1037600028680EF0B1FE144B18600294134B0193BD
:1037700000964FF4FA72002328680EF0A5FE104B55
:10378000186006B0BDE8F08748030020440300201D
:1037900040030020F0020020DC020020B8B802083C
:1037A0003C03002038030020F8020020B92F010854
:1037B000EC020020F1340108E8020020D1340108B5
:1037C000E4020020500300204C03002038B501FB28
:1037D00000F4204605F088FA054618B1224600217B
:1037E00013F086FE284638BD70B506460D460F4BD1
:1037F000186808B105F0FAFA680001210844FFF7DB
:10380000E5FF0A4B186008B100240BE04FF0FF30D1
:103810000BE0064B1868325D054900EB440013F0DD
:10382000A7FA0134AC42F4D3002070BD5803002045
:10383000E4B8020838B505460C460C4B186808B1C8
:1038400005F0D4FA01216018FFF7C0FF074B18609C
:1038500040B12246294613F0D2FD044B1B680020DC
:10386000185538BD4FF0FF30FBE700BF5403002070
:1038700000B587B04FF0000C80F800C0013A072A6D
:1038800000F28780DFE802F004162545356575559E
:103890000493414B0393414B1B680293404B0193AC
:1038A000404B0093404B414A13F02EFA002007B0E2
:1038B0005DF804FB04933E4B0393384A126802926E
:1038C000374A01920093384B384A13F01DFA002012
:1038D000EDE70493374B0393304B1B680293304B57
:1038E0000193354B0093304B304A13F00DFA002012
:1038F000DDE70493314B0393284B1B680293284B5D
:1039000001932D4B0093284B284A13F0FDF900201A
:10391000CDE704932A4B0393204B1B680293204B63
:103920000193254B0093204B204A13F0EDF9002022
:10393000BDE70493234B0393184B1B680293184B6A
:1039400001931D4B0093184B184A13F0DDF900202A
:10395000ADE704931C4B0393104B1B680293104B71
:103960000193154B0093104B104A13F0CDF9002032
:103970009DE70493154B0393084B1B680293084B78
:1039800001930D4B0093084B084A13F0BDF900203A
:103990008DE74FF0FF308AE704B902085803002092
:1039A0000CB9020814B9020864000020ECB802083F
:1039B00058B6020824B902082CB9020834B9020822
:1039C0003CB9020844B9020854B9020864B90208B3
:1039D0002DE9F04F99B017900D4617461C460A4640
:1039E000002113F085FD7A1E072A00F2BA81DFE874
:1039F00012F008004300A100EA00C5006E01930127
:103A0000490101218020FFF7E1FE07460094804B29
:103A1000804A802113F078F97F4B1A687F4B1B682E
:103A200014937F4B13937F4B12937F4B11937F4BD8
:103A300010937F4B0F930E927E4B0D937E490C910A
:103A40000B947E490A910992089307977C48069047
:103A5000059404910394029101920093794B7A4A60
:103A60002946179813F050F90446384605F0BEF978
:103A7000E0B219B0BDE8F08F01218020FFF7A6FE6B
:103A8000074601218020FFF7A1FE8046DFF8F09174
:103A900000944B466D4A8021384613F035F9DFF823
:103AA00094A1654E02960197DFF86CB1DBF8003007
:103AB00000935346664A8021404613F025F900944E
:103AC000644B544A8021384613F01EF9DBF800306D
:103AD000524A12681492524A1392524A1292524A0D
:103AE0001192524A1092524A0F920E93CDF834A07E
:103AF0000C960B94CDF828900993CDF820A0079749
:103B0000CDF818800594CDF810900394CDF8089066
:103B10000193CDF800A04B464B4A2946179813F065
:103B2000F3F80446384605F061F9404605F05EF9C1
:103B3000E0B29EE7384B19683E4B474A3748006869
:103B4000109037480F9037480E9037480D903748FF
:103B50000C9037480B900A910993404808900792BF
:103B6000069105933E4804903E48039002923E48D9
:103B7000019000913449179813F0FAF8264B196810
:103B80002C4B3A4A25480068109025480F9025484C
:103B90000E9025480D9025480C9025480B900A91D1
:103BA0000993334808900792069105933148049091
:103BB0002348039002922C480190009122491798C3
:103BC00013F0D6F8DAE7144B19681A4B1D4A13485C
:103BD0000068109012480F9012480E9012480D90F5
:103BE00012480C9012480B900A91099322480890B1
:103BF0000792069105932148049011480390029280
:103C00001948019000911049179813F0B1F8B5E7E1
:103C10006CB9020878B90208580300205403002048
:103C200080B9020884B9020888B9020898B9020864
:103C3000ACB902080CB90208B4AD020804B9020814
:103C40006CDC02083CB9020810BB0208B8B90208D3
:103C5000E8BA0208C0B9020824B90208D4B90208B7
:103C6000D8B90208E8B902080CBA020834B9020847
:103C700014BA020818BA020828BA02082CBA0208B4
:103C800058B60208384B1968384B394A3948006829
:103C9000109039480F9039480E9039480D903948A6
:103CA0000C9039480B900A91099338480890079274
:103CB00006910593364804903648039002923648A0
:103CC000019000913549179813F052F856E7264BAA
:103CD0001968264B324A27480068109026480F90F2
:103CE00026480E9026480D9026480C9026480B90AA
:103CF0000A9109932B4808900792069105932A4848
:103D00000490244803900292234801900091234993
:103D1000179813F02DF831E7134B1968134B234A0A
:103D200014480068109014480F9014480E901448DE
:103D30000D9014480C9014480B900A9109931C485C
:103D400008900792069105931A4804901148039031
:103D500002921148019000911049179813F008F849
:103D60000CE74FF0FF3084E6580300200CB902083E
:103D700044B902085403002080B9020884B902083B
:103D800088B9020898B90208ACB9020850BA02080A
:103D900054BA02086CDC02080CBA020810BB020814
:103DA00054B9020874BA020878BA020864B9020861
:103DB000A4BA0208A8BA020830B583B01C469DF820
:103DC0001850012A0BD0022A0BD10A4B5DB10A4AC6
:103DD00001920094094A12F097FF03B030BD084BDE
:103DE000F4E70023F2E7074A01920094034A12F035
:103DF0008BFFF2E758B6020810B70208D8BA0208DB
:103E000004B9020828B7020800B585B00293064B32
:103E10000193064B1B680093054B064A12F074FF92
:103E200005B05DF804FB00BF58B602085803002037
:103E30000CB90208B4BA020800B585B04FF0000C06
:103E400080F800C0012A06D0022A0FD04FF0FF30C0
:103E500005B05DF804FB02930A4B01930A4B1B6803
:103E600000930A4B0A4A12F04FFFF1E70293094B05
:103E70000193054B1B680093044B054A12F044FF65
:103E8000E6E700BF04B90208580300200CB9020895
:103E9000C4BA020858B6020808B5084B1B682BB113
:103EA000064B186808B112F073FD08BD044A1946A4
:103EB00012F040FE014B1860F2E700BF5C030020E7
:103EC000C53E010870B5122902D0092946D070BD3F
:103ED000144626490120FDF75FFE12F095FC0646C8
:103EE0000D46234B1B68012B20DC32462B46214913
:103EF0000120FDF751FE256864680FF034F8281A98
:103F00004FF47A724FF0000364EB0101FCF7B8FE46
:103F1000194BC3E90001164B1B68012B12DC2A4622
:103F2000234616490120FDF737FED0E7144B1B222C
:103F3000144902200FF01CF832462B460D480DF0B4
:103F400085F8D2E70E4B21220E4902200FF010F81F
:103F50002A4623460C480DF079F8E0E70B49032088
:103F6000FDF71AFE0A4B00221A60B0E790BC020867
:103F700098000020D4BC0208600300202CBD020879
:103F800088BD0208B4BC020808BD020850BD020882
:103F90005C03002030B585B004460D490120FDF7D3
:103FA000FBFD02940B4D01950023009344F6206223
:103FB000002320460EF088FA029401950123009315
:103FC000054A002320460EF07FFA05B030BD00BF41
:103FD0006CBD0208993E0108C07A100038B501FB9B
:103FE00000F4204604F080FE054618B12246002168
:103FF00013F07EFA284638BD70B588B005460C46E9
:1040000006AE154930460DF07DF90023009396E881
:104010000C0094E803000DF029FBA8B10F4B1B68BE
:1040200005930F4B1B6804930E4B03930E4B0293A7
:104030000E4B01930E4B00930E4B0F4AC82128469E
:104040000DF058F808B070BD0C4B0B4A4FF4C87116
:1040500028460DF04FF8F5E794A9020870030020F8
:104060007803002080B9020898B9020888B90208CC
:10407000ACB90208F4BE0208B4AD0208E0AA020816
:1040800008B5034B034A4FF4CA710DF033F808BD6D
:104090008CBD0208B4AD02080B2900D0704770B582
:1040A00086B00546144602AE144930460DF02AF992
:1040B0000023009396E80C0004F1080103C90DF0F9
:1040C000D5FA28B121462846FFF796FF06B070BD05
:1040D00004AE0B4930460DF015F90023009396E825
:1040E0000C0004F1080103C90DF0C0FA0028EDD05E
:1040F00021462846FFF7C4FFE8E700BFB8BD020825
:10410000D0BD020830B585B000231A461C4911F015
:10411000B7FC0446012140F2E910FFF75FFF194B9D
:10412000186050B3184D04F108030093174B184A58
:10413000282128680CF0E0FA164B1B680293164BF6
:1041400001932B680093154B154A4FF4F4710D48F9
:10415000006812F0D9FD64B10A4B1D682846FCF7CF
:104160008FF80246294620460FF0B6FF20460FF092
:1041700071FE044B186804F039FE05B030BD00BF75
:1041800098C002087403002070030020812E0208EA
:1041900094B1020878030020DCBD0208D4BD0208F7
:1041A000FCBD0208F0B170B50D460646C9B10E4B14
:1041B000186808B104F01AFE680001210844FFF7EE
:1041C0000DFF094B186060B1002408E0064B186829
:1041D000325D064900EB440012F0CAFD0134A542ED
:1041E000F4D870BD704700BF78030020E4B802081F
:1041F00030B585B0114B1860114B19600121282092
:10420000FFF7ECFE0F4B1860B0B10D4D062128688A
:10421000FFF7C8FF094C206802900B4B0193032362
:10422000009347F2305200230EF04EF92B68074AF4
:10423000074920680FF0E8FE05B030BD6C03002090
:10424000680300207003002005410108994001081F
:10425000E4BD02087047000008B5024B5B68984750
:1042600008BD00BF8C03002010B458B104460948B3
:10427000C46059B10748016106494A608B605DF826
:10428000044B70470348044CC460F2E701490248FC
:104290000861F1E78C0300205542010808B5024B84
:1042A000DB68984708BD00BF8C03002008B5024BAF
:1042B0001B69984708BD00BF8C03002000B583B080
:1042C000054B5B6801210DF1070098479DF8070039
:1042D00003B05DF804FB00BF8C03002008B5024B5F
:1042E0009B68984708BD00BF8C03002008B5FFF706
:1042F000D5FF6620FFF7F2FF9920FFF7EFFFFFF7EA
:10430000D5FF08BD08B5642000F0CAF9FFF7EEFF3D
:10431000642000F0C5F9642000F0C2F908BD70B552
:1043200006460C461546FFF7B9FF102D17D90B208E
:10433000FFF7D4FFC4F30740FFF7D0FFC4F3072013
:10434000FFF7CCFFE0B2FFF7C9FF0020FFF7C6FF81
:1043500029463046FFF780FFFFF7A8FF70BD032016
:10436000FFF7BCFFC4F30740FFF7B8FFC4F3072013
:10437000FFF7B4FFE0B2FFF7B1FF04E0FFF79EFFE5
:1043800006F8010B25466B1E9CB2002DF6D1E3E723
:1043900070B5FFF783FFFFF789FFFFF77FFFFFF798
:1043A00085FFFFF77BFF9F20FFF798FFFFF786FF52
:1043B0000646FFF783FF0446FFF780FF0546FFF739
:1043C00075FF240244EA064444EA050070BD00007B
:1043D00010B50446FFF796FFFFF7DAFF344B98421B
:1043E00051D060D3334B98425DD8033B98425AD3A7
:1043F000314B0344032B56D8DFE803F0021727376D
:104400002E4B2F4A1A6001229A80DA804FF4805294
:104410001A814FF480725A814FF400729A81274BAF
:104420000FCB84E80F00204610BD244B254A1A60AC
:1044300001229A80DA804FF480521A814FF4807200
:104440005A814FF480629A81E9E71C4B1E4A1A6038
:1044500001229A80DA804FF480521A814FF48072E0
:104460005A814FF400629A81D9E7144B114A1A60BD
:1044700001229A80DA804FF480521A814FF48071C1
:1044800059819A81CBE70D4B094A1A6001229A8023
:10449000DA804FF480521A814FF480725A814FF4BF
:1044A00080629A81BBE7054B00221A60B7E700BF24
:1044B0001620C2001840EF00EBBF10FF7C03002065
:1044C0001540EF001640EF001740EF0008B5FFF76A
:1044D000E5FE0620FFF702FFFFF7E8FE08BD08B57E
:1044E000FFF7DCFE0520FFF7F9FE0520FFF7F6FEDB
:1044F000FFF7E4FE10F0010FF7D1FFF7D7FE08BD7C
:1045000010B50446FFF7E2FFFFF7C8FE2020FFF7D3
:10451000E5FEC4F30740FFF7E1FEC4F30720FFF711
:10452000DDFEE0B2FFF7DAFEFFF7C0FEFFF7D7FFD0
:1045300010BD70B506460C461546FFF7C7FFFFF7DE
:10454000ADFE0220FFF7CAFEC4F30740FFF7C6FE28
:10455000C4F30720FFF7C2FEE0B2FFF7BFFE04E09E
:1045600016F8010BFFF7BAFE25466B1E9CB2002D14
:10457000F6D1FFF79BFEFFF7B2FF70BD2DE9F843C0
:1045800005460C461746CBB2110AD3B971B921467C
:10459000FFF7CFFF13E04FF4807221462846FFF764
:1045A000C8FF04F5807405F5807531464B1EDEB2F8
:1045B0000029F0D1FAB221462846FFF7BAFFBDE83C
:1045C000F883C3F100085FFA88F8D2B2A1B9904528
:1045D0000DD21344DEB242462146FFF7AAFF32460F
:1045E00008EB040105EB0800FFF7A3FFE7E73A46F5
:1045F0002146FFF79EFFE2E7A7EB08071FFA87F9BE
:10460000C7F30726FFB242462146FFF792FF444414
:1046100045440AE04FF4807221462846FFF789FF9F
:1046200004F5807405F580754646731E5FFA83F8BD
:10463000002EEFD1002FC2D05FFA89F22146284622
:10464000FFF777FFBBE7000008B50B4B1A6842F491
:1046500000721A601A6842F480621A601A6842F4A2
:1046600080721A60032000F083F80F20FDF726FC0B
:10467000FDF702FC002008BD003C0240034A11681F
:10468000034B1B780B441360704700BFA00300204E
:1046900072000020014B1868704700BFA003002083
:1046A00038B50446FFF7F6FF0546B4F1FF3F02D0E8
:1046B000044B1B781C44FFF7EDFF401BA042FAD3CC
:1046C00038BD00BF72000020002807DB00F01F0289
:1046D000400901239340024A42F82030704700BF4E
:1046E00000E100E0002808DB0901C9B200F16040E8
:1046F00000F5614080F80013704700F00F000901D9
:10470000C9B2014B1954704714ED00E000B500F038
:104710000700C0F1070CBCF1040F28BF4FF0040CD8
:10472000031D062B0FD9C31E4FF0FF3E0EFA0CF0EF
:1047300021EA000199400EFA03FE22EA0E0241EA44
:1047400002005DF804FB0023EEE70000BFF34F8F8B
:104750000549CA6802F4E062044B1343CB60BFF31F
:104760004F8F00BFFDE700BF00ED00E00400FA0539
:10477000074AD36823F4E0631B041B0C000200F417
:10478000E060034343F0BF6343F40033D3607047FA
:1047900000ED00E010B50446054BD868C0F30220D8
:1047A000FFF7B4FF01462046FFF79CFF10BD00BF96
:1047B00000ED00E008B5FFF787FF08BD08B5FFF77B
:1047C000C5FF000000230F2B00F2D78070B582B028
:1047D00065E085684FEA430E032404FA0EF425EAE7
:1047E0000405CC6804FA0EF42C438460446824EA7F
:1047F00002044A68C2F300129A40224342605CE01D
:10480000DC08083450F8242003F00705AD004FF011
:104810000F0E0EFA05FE22EA0E0E0A69AA4042EABF
:104820000E0240F824205CE0042200E0002202FA9C
:104830000EF22A430234514D45F82420504A946820
:104840006FEA0C0224EA0C054E6816F4801F01D0B2
:104850004CEA04054A4CA560E46802EA04054E6887
:1048600016F4001F01D04CEA0405454CE56064686D
:1048700002EA04054E6816F4003F01D04CEA040534
:104880003F4C6560246822404D6815F4803F01D09C
:104890004CEA04023A4C226001330F2B6BD8012200
:1048A0009A400C6804EA020C32EA0404F4D14C6821
:1048B00004F00304013C012C8BD94A6802F0030286
:1048C000032A09D0C4685D000322AA4024EA020436
:1048D0008A68AA402243C2604A6802F00302022AA0
:1048E0008ED004684FEA430E032202FA0EF224EA45
:1048F00002044A6802F0030202FA0EF22243026046
:104900004A6812F4403FC7D0002201921D4A546CFD
:1049100044F480445464526C02F480420192019A3F
:104920009C08A51C154A52F8255003F0030E4FEAC7
:104930008E0E0F2202FA0EF225EA0205124A90426A
:104940003FF474AF02F5806290420ED002F58062AF
:1049500090420CD002F5806290420AD002F580624B
:1049600090423FF461AF072261E701225FE7022234
:104970005DE703225BE702B070BD7047003801407D
:10498000003C0140003802400000024000230F2B91
:104990007CD8F0B52DE0042500E0002505FA0CF5E3
:1049A000A54257D004685D004FF0030C0CFA05FCDB
:1049B00024EA0C0404604FEAD30E0EF1080E50F8FE
:1049C0002E4003F00706B6000F25B54024EA050483
:1049D00040F82E40C46824EA0C04C460446824EA09
:1049E00002024260826822EA0C02826001330F2BCD
:1049F0004BD801229A4002EA010632EA0104F5D1BD
:104A00004FEA930E0EF10205214C54F8254003F0B5
:104A1000030C4FEA8C0C0F2505FA0CF73C401D4D9A
:104A2000A842BAD005F58065A8420DD005F580658D
:104A3000A8420BD005F58065A84209D005F5806530
:104A4000A842A8D00725A9E70125A7E70225A5E7E1
:104A50000325A3E7104C256825EA0605256065684F
:104A600025EA06056560E56825EA0605E560A568AE
:104A700025EA0605A560064E0EF1020456F82450FC
:104A800025EA070546F824508CE7F0BD704700BFC3
:104A90000038014000000240003C01400369194217
:104AA00001D001207047002070470AB18161704732
:104AB00009048161704703685A6912F4806F01D15B
:104AC000002070476FF480625A6100230363202244
:104AD00080F83D2080F83E30026C42F0040202640F
:104AE00080F83C30012070472DE9F04106460C4625
:104AF000174698463BE0FFF7CDFD069BC01A4045A0
:104B000002D8B8F1000F32D1012D18D033689B695B
:104B100024EA03039BB2B3FA83F35B099F4226D1D5
:104B200000233363202286F83D2086F83E30326C25
:104B300042F02002326486F83C30012027E03368DE
:104B40005B6924EA03039BB2B3FA83F35B09E5E7ED
:104B500033685B6924EA030C1FFA8CFCBCFA8CFCFA
:104B60004FEA5C1C674511D1B8F1FF3FC3D1C4F3D4
:104B70000745012DECD033689B6924EA030C1FFA2A
:104B80008CFCBCFA8CFC4FEA5C1CEBE70020BDE817
:104B9000F0812DE9F84305460E469046994653E0CC
:104BA0001A6842F400721A602B686FF480625A61CE
:104BB00000232B63202285F83D2085F83E302A6CA7
:104BC00042F004022A6485F83C3001204AE0FFF7F5
:104BD00061FDA0EB0900404502D8B8F1000F33D1C8
:104BE000012F17D02B689B6926EA03039BB2003B79
:104BF00018BF012343B300232B63202285F83D20F7
:104C000085F83E302A6C42F020022A6485F83C3058
:104C1000012027E02B685B6926EA03039BB2003B77
:104C200018BF0123E6E72B689C6926EA0404A4B2B6
:104C3000003C18BF0124A4B12B685A6912F4806F9C
:104C4000AED1B8F1FF3FC2D1C6F30747012FEAD179
:104C50002B685C6926EA0404A4B2003C18BF012456
:104C6000E9E70020BDE8F883F0B583B004460D46BF
:104C700016461F46C36A082B0DD0012B0BD013F527
:104C8000803F08D0036B122B0AD10268136843F4EB
:104C90008073136004E02268136843F48073136028
:104CA0000097334600224FF001112046FFF71CFF0A
:104CB00080B92369B3F5804F16D1236805F0FE054E
:104CC0001D613B46324613492046FFF762FFF8B9A3
:104CD00003B0F0BD23681B6813F4807F02D04FF44B
:104CE000007323640320F3E7EB11226803F006034B
:104CF00043F0F00313613B46324607492046FFF775
:104D000048FF18B92368EDB21D61DAE70120DFE73B
:104D10000120DDE7020001000800010070B5044633
:104D20000D46164623685B6913F0800F21D120469B
:104D3000FFF7C1FEF8B9B5F1FF3FF3D0FFF7AAFCCA
:104D4000801BA84201D8002DECD123685B6913F0C9
:104D5000800FE7D100232363202284F83D2084F8CC
:104D60003E30226C42F02002226484F83C30012064
:104D700000E0002070BD0120FCE770B504460D4640
:104D8000164623685B6913F0040F21D12046FFF714
:104D900092FEF8B9B5F1FF3FF3D0FFF77BFC801B23
:104DA000A84201D8002DECD123685B6913F0040FF1
:104DB000E7D100232363202284F83D2084F83E308D
:104DC000226C42F02002226484F83C30012000E092
:104DD000002070BD0120FCE7002800F0CC8070B5F9
:104DE000044690F83D30002B77D0242384F83D30E2
:104DF0002268136823F0010313602268136843F4E8
:104E0000004313602268136823F40043136000F02A
:104E100081FD62685A4B9A4264D85A4B98428CBFC3
:104E200000230123002B40F0A8805749A1FB00314B
:104E30008B0C25686A6822F03F0242EA91426A6060
:104E400021680A6A22F03F0266684D4DAE424FD893
:104E5000013313430B622168CA6922F44F4222F0E6
:104E6000FF026568464B9D424CD8431E6D00B3FB64
:104E7000F5F3013340F6FC70034278D0C3F30B0323
:104E80001A43CA6121680B6823F0C003E269206AF3
:104E9000024313430B6021688B6823F4034323F020
:104EA000FF032269E068024313438B602168CB68EB
:104EB00023F0FF036269A06902431343CB602268B9
:104EC000136843F00103136000202064202384F85A
:104ED0003D30206384F83E0070BD80F83C30FCF724
:104EE000EBFD82E7294B98428CBF0023012399E711
:104EF0004FF4967505FB03F3254DA5FB03539B0962
:104F00000133A6E7A668BEB9431E05EB450CB3FB0B
:104F1000FCF30133C3F30B03B3FA83F35B0943BB25
:104F2000C6B9431E05EB4505B3FBF5F30133C3F3E7
:104F30000B0343F40043A3E7431E05EB850C0CEB86
:104F40008C0CB3FBFCF30133C3F30B03B3FA83F311
:104F50005B09E4E7431E05EB850505EB8505B3FB1F
:104F6000F5F30133C3F30B0343F4404388E7042311
:104F700086E7012384E7012070470120ACE700BFEA
:104F8000A08601007F841E0083DE1B43FF083D00D6
:104F9000D34D6210A8B110B50446242380F83D30EB
:104FA0000268136823F001031360FCF7BFFD0020C3
:104FB000206484F83D00206384F83E0084F83C00BF
:104FC00010BD0120704700002DE9F04385B0044674
:104FD0000F46914698460C9EFFF75CFB054694F8F9
:104FE0003D00C0B2202804D00227384605B0BDE8F5
:104FF000F0830095192301224F492046FFF774FDE5
:10500000002840F0928094F83C30012B00F08F8013
:10501000012384F83C3023681A6812F0010F03D191
:105020001A6842F001021A602268136823F40063D0
:105030001360212384F83D30102384F83E30002390
:105040002364C4F82490A4F82A80638D23853B4B05
:10505000E3622B46324639462046FFF705FE0746F7
:10506000002866D10023039323685A6903929B6941
:105070000393039B11E0236C042B01D00127B4E7B9
:105080002268136843F400731360F7E72A46314639
:105090002046FFF772FE00282ED1238D002B36D03C
:1050A0002A4631462046FFF739FE0028E3D1626ADE
:1050B000236812781A61606A431C6362618D89B249
:1050C000013989B26185238D013B9BB2238522681A
:1050D000516911F0040FD9D0002BD7D04378136158
:1050E000636A01336362638D9BB2013B9BB263854C
:1050F000238D013B2385C9E7236C042B01D00127B5
:1051000073E72268136843F400731360F7E72268BB
:10511000136843F400731360202384F83D300023A8
:1051200084F83E3084F83C305FE702275DE70227D1
:105130005BE7012759E700BF020010000000FFFFF6
:105140002DE9F04385B00446884691461D46FFF799
:10515000A1FA94F83D30DBB2202B03D0022005B039
:10516000BDE8F083064600901923012257492046E6
:10517000FFF7BAFC002840F0A08094F83C30012BE7
:1051800000F09D80012384F83C3023681A6812F0F7
:10519000010F03D11A6842F001021A6022681368F5
:1051A00023F400631360242384F83D300027276430
:1051B000474BE36240E023681B6813F4807F02D012
:1051C0004FF4007323640320C9E7A02384F83D3023
:1051D00022685369C3F340035269C2F3802294F8F2
:1051E0003DC05FFA8CFCBCF1A00F09D043B93AB9BD
:1051F000FFF750FA801BA842E7D8002DE8D1E4E77A
:10520000202384F83D3023685A6912F0020F31D10F
:105210001A6842F400721A6023686FF480625A615F
:1052200000961923012229492046FFF75DFC00283A
:1052300049D101374F4538D22268136843F480734F
:10524000136000962B4600224FF001112046FFF715
:105250004BFC0028AFD1236808F0FE021A61FFF76B
:1052600019FA064622685369C3F340035269C2F330
:105270008022B4E71A6842F400721A600023039394
:1052800023685A6903929B690393039B0096192331
:1052900001220E492046FFF727FC90B9202384F80D
:1052A0003D30002384F83C3059E7202384F83D301A
:1052B000002384F83C30012051E702204FE7022010
:1052C0004DE701204BE7012049E700BF0200100035
:1052D0000000FFFF002800F0E08170B582B00446B6
:1052E000036813F0010F3BD09F4B9B6803F00C0346
:1052F000042B2CD09C4B9B6803F00C03082B21D073
:105300006368B3F5803F4FD0B3F5A02F52D0964BD2
:105310001A6822F480321A601A6822F480221A6015
:105320006368002B50D0FFF7B5F905468E4B1B681C
:1053300013F4003F14D1FFF7ADF9401B6428F5D9F1
:105340000320B1E1884B5B6813F4800FD8D0864B03
:105350001B6813F4003F03D06368002B00F09F81AB
:10536000236813F0020F54D07F4B9B6813F00C0F8F
:105370003ED07D4B9B6803F00C03082B33D0E368D1
:10538000002B68D0794B01221A60FFF783F905469C
:10539000754B1B6813F0020F54D1FFF77BF9401BCC
:1053A0000228F5D903207FE16F4A136843F4803364
:1053B0001360B5E76C4B1A6842F480221A601A68D1
:1053C00042F480321A60ABE7FFF764F90546664B9A
:1053D0001B6813F4003FC3D0FFF75CF9401B64283F
:1053E000F5D9032060E1604B5B6813F4800FC6D1F0
:1053F0005D4B1B6813F0020F03D0E368012B40F0F4
:105400005081594A136823F0F803216943EAC10324
:105410001360236813F0080F42D063696BB3534BDA
:105420000122C3F8802EFFF735F905464E4B5B6F1E
:1054300013F0020F34D1FFF72DF9401B0228F5D9E4
:10544000032031E1484A136823F0F803216943EA55
:10545000C1031360DDE7454B00221A60FFF71AF91C
:105460000546414B1B6813F0020FD2D0FFF712F92B
:10547000401B0228F5D9032016E13C4B0022C3F85B
:10548000802EFFF707F90546374B5B6F13F0020FCD
:1054900006D0FFF7FFF8401B0228F5D9032003E1EF
:1054A000236813F0040F77D02F4B1B6C13F0805F31
:1054B00033D1002301932C4B1A6C42F080521A64B2
:1054C0001B6C03F080530193019B0125284B1B6843
:1054D00013F4807F23D0A368012B34D0052B38D060
:1054E000214B1A6F22F001021A671A6F22F0040290
:1054F0001A67A368002B3DD0FFF7CCF806461A4B7D
:105500001B6F13F0020F46D1FFF7C4F8801B41F266
:1055100088339842F3D90320C6E00025D6E7144A21
:10552000136843F480731360FFF7B4F80646104B1A
:105530001B6813F4807FCED1FFF7ACF8801B0228E4
:10554000F5D90320B0E0084A136F43F00103136755
:10555000CFE7054B1A6F42F004021A671A6F42F048
:1055600001021A67C5E700BF003802400000474249
:1055700000700040FFF78EF80646524B1B6F13F089
:10558000020F08D0FFF786F8801B41F2883398425B
:10559000F3D9032088E0EDB9A369002B00F08380E4
:1055A000484A926802F00C02082A51D0022B17D008
:1055B000454B00221A66FFF76DF80446414B1B6805
:1055C00013F0007F42D0FFF765F8001B0228F5D9E1
:1055D000032069E03B4A136C23F080531364DBE73C
:1055E000394B00221A66FFF755F80546354B1B6804
:1055F00013F0007F06D0FFF74DF8401B0228F5D9C5
:10560000032051E0E369226A1343626A43EA82138A
:10561000A26A5208013A43EA0243E26A43EA026399
:10562000284A5360284B01221A66FFF733F80446D4
:10563000244B1B6813F0007F06D1FFF72BF8001BEB
:105640000228F5D903202FE000202DE000202BE0D8
:10565000012B2BD01B4B5B6803F48001E269914264
:1056600026D103F03F02216A8A4223D1616A47F6BC
:10567000C0721A40B2EB811F1ED103F44031A26AFE
:105680005208013AB1EB024F18D103F07063E26A9D
:10569000B3EB026F14D1002006E001207047012017
:1056A00002E0012000E0002002B070BD0120FBE715
:1056B0000120F9E70120F7E70120F5E70120F3E7F2
:1056C0000120F1E7003802400000474208B5334BA3
:1056D0009B6803F00C03042B5BD0082B5BD12F4B92
:1056E0005A6802F03F025B6813F4800F2CD02B4BFA
:1056F0005868C0F388104FEA401CBCEB000C6EEBFE
:105700000E0E4FEA8E1343EA9C634FEA8C11B1EB05
:105710000C0163EB0E03DB0043EA5173C90011EB8C
:10572000000C43F10003590200234FEA4C2041EAE8
:10573000DC51FBF7A5FA194B5B68C3F30143013356
:105740005B00B0FBF3F027E0144B5868C0F38810FF
:105750004FEA401CBCEB000C6EEB0E0E4FEA8E13B2
:1057600043EA9C634FEA8C11B1EB0C0163EB0E032F
:10577000DB0043EA5173C90011EB000C43F1000355
:10578000990200234FEA8C2041EA9C51FBF778FAFA
:10579000D1E7034800E0034808BD00BF00380240DD
:1057A00000127A000024F400002800F09B8070B5FD
:1057B0000D4604464F4B1B6803F007038B4208D28B
:1057C000CBB24C4A1370136803F007038B4240F0CE
:1057D0008B80236813F0020F17D013F0040F04D04E
:1057E000454A936843F4E0539360236813F0080F2D
:1057F00004D0414A936843F4604393603E4A9368FF
:1058000023F0F003A1680B439360236813F0010FAA
:1058100032D06368012B21D09A1E012A25D9364A3D
:10582000126812F0020F61D033498A6822F0030235
:1058300013438B60FEF72EFF06462F4B9B6803F049
:105840000C036268B3EB820F16D0FEF723FF801BB8
:1058500041F288339842F0D9032042E0264A126888
:1058600012F4003FE0D101203BE0234A126812F01D
:10587000007FD9D1012034E01E4B1B6803F00703E1
:10588000AB4207D9EAB21B4B1A701B6803F007033F
:10589000AB422DD1236813F0040F06D0164A93684B
:1058A00023F4E053E1680B439360236813F0080F7F
:1058B00007D0114A936823F46043216943EAC10386
:1058C0009360FFF703FF0C4B9B68C3F303130B4A72
:1058D000D35CD8400A4B18600A4B1868FCF7EEFA04
:1058E000002070BD012070470120FAE70120F8E791
:1058F0000120F6E7003C024000380240E4A802081C
:105900000800002074000020014B1868704700BF99
:105910000800002008B5FFF7F7FF044B9B68C3F3AE
:105920008223034AD35CD84008BD00BF0038024040
:10593000DCA8020808B5FFF7E7FF044B9B68C3F338
:105940004233034AD35CD84008BD00BF0038024050
:10595000DCA802080F2303600B4B9A6802F00302D5
:1059600042609A6802F0F00282609A6802F4E052A3
:10597000C2609B68DB0803F4E0530361034B1B68C0
:1059800003F007030B60704700380240003C024000
:105990002DE9F04782B00546884617461E46FEF7B9
:1059A00079FE0A9B1B1A03EB0609FEF773FE82467B
:1059B000284B1B68C3F3CB3309FB03F301932B681C
:1059C0009C6838EA04040CBF01230023BB423DD08D
:1059D000B6F1FF3FF3D0FEF75DFEA0EB0A004845AD
:1059E00007D2019A02B14A46019B013B01939146BD
:1059F000E5E72A68536823F0E00353606B68B3F56A
:105A0000827F0BD0AB6AB3F5005F14D0012385F819
:105A10005130002385F85030032018E0AB68B3F50F
:105A2000004F02D0B3F5806FECD12A68136823F0E1
:105A300040031360E6E72A68136823F400531360F9
:105A40002A68136843F400531360DFE7002002B0B4
:105A5000BDE8F0870800002070B584B004460D460C
:105A6000164600920B4601220221FFF791FFD0B9A2
:105A7000174B1B68174AA2FB03235B0D4FF47A7286
:105A800002FB03F303936368B3F5827F11D0039B9A
:105A90003BB1039B013B039323689B6813F0800F8A
:105AA000F5D104B070BD636D43F02003636503203E
:105AB000F7E700962B46002280212046FFF768FF7B
:105AC0000028EED0636D43F0200363650320E8E710
:105AD00008000020819F5E1610B582B004460B4678
