:020000040801F1
:1000000000000220312B01084D2A01084F2A010867
:10001000512A0108532A0108552A0108000000004E
:10002000000000000000000000000000F1BA01081C
:10003000572A01080000000091BB0108D19901086E
:10004000812B0108812B0108812B0108812B0108DC
:10005000812B0108812B0108812B0108812B0108CC
:10006000812B0108812B0108812B0108812B0108BC
:10007000812B0108812B0108812B0108812B0108AC
:10008000812B0108812B0108812B01080000000051
:10009000000000000000000000000000812B0108AB
:1000A000592A0108812B0108812B0108812B0108A5
:1000B000812B0108812B0108812B0108812B01086C
:1000C000812B0108812B0108812B0108812B01085C
:1000D000812B0108812B0108812B01080000000001
:1000E000812B0108812B0108812B010800000000F1
:1000F000000000000000000000000000812B01084B
:1001000000000000812B0108812B0108812B0108D0
:1001100000000000000000000000000000000000DF
:10012000812B0108812B0108812B0108812B0108FB
:10013000812B01080000000000000000000000000A
:10014000000000000000000000000000812B0108FA
:10015000812B0108812B0108812B0108812B0108CB
:10016000812B0108812B0108000000000000000025
:10017000000000000000000000000000000000007F
:1001800000000000812B01080000000000000000BA
:08019000812B0108812B0108FD
:1001A00010B5054C237833B9044B13B10448AFF3B1
:1001B00000800123237010BDA00800200000000073
:1001C000C879030808B5034B1BB103490348AFF3D3
:1001D000008008BD00000000A4080020C8790308C2
:1001E00010F8012B11F8013B012A28BF9A42F7D0E1
:1001F000D01A70470000000000000000000000005E
:1002000001F0FF01102A2BDB10F0070F08D010F8C7
:10021000013B013A8B422DD010F0070F42B3F6D1CB
:10022000F0B441EA012141EA014122F007047FF0E4
:1002300000070023F0E80256083C85EA010586EA3B
:10024000010685FA47F5A3FA87F586FA47F6A5FA77
:1002500087F68EB9EED1F0BC01F0FF0102F0070283
:1002600032B110F8013B013A83EA010313B1F8D12E
:100270000020704701387047002D06BF354603380F
:10028000073815F0010F07D1013015F4807F02BF48
:10029000013015F4C03F0130F0BC0138704700BF99
:1002A000034613F8012B002AFBD1181A01387047B6
:1002B00081F0004102E000BF83F0004330B54FEA17
:1002C00041044FEA430594EA050F08BF90EA020F84
:1002D0001FBF54EA000C55EA020C7FEA645C7FEA17
:1002E000655C00F0E2804FEA5454D4EB5555B8BF3A
:1002F0006D420CDD2C4480EA020281EA030382EAAB
:10030000000083EA010180EA020281EA0303362D3C
:1003100088BF30BD11F0004F4FEA01314FF4801C0F
:100320004CEA113102D0404261EB410113F0004F21
:100330004FEA03334CEA133302D0524263EB4303D8
:1003400094EA050F00F0A780A4F10104D5F1200E76
:100350000DDB02FA0EFC22FA05F2801841F10001D1
:1003600003FA0EF2801843FA05F359410EE0A5F1A5
:1003700020050EF1200E012A03FA0EFC28BF4CF0D6
:10038000020C43FA05F3C01851EBE37101F000458C
:1003900007D54FF0000EDCF1000C7EEB00006EEB99
:1003A0000101B1F5801F1BD3B1F5001F0CD3490823
:1003B0005FEA30004FEA3C0C04F101044FEA44527A
:1003C00012F5800F80F09A80BCF1004F08BF5FEA01
:1003D000500C50F1000041EB045141EA050130BDE1
:1003E0005FEA4C0C404141EB0101013C28BFB1F5F3
:1003F000801FE9D291F0000F04BF01460020B1FA3E
:1004000081F308BF2033A3F10B03B3F120020CDA10
:100410000C3208DD02F1140CC2F10C0201FA0CF0EE
:1004200021FA02F10CE002F11402D8BFC2F1200C53
:1004300001FA02F120FA0CFCDCBF41EA0C01904009
:10044000E41AA2BF01EB0451294330BD6FEA040452
:100450001F3C1CDA0C340EDC04F11404C4F120023D
:1004600020FA04F001FA02F340EA030021FA04F34F
:1004700045EA030130BDC4F10C04C4F1200220FAA6
:1004800002F001FA04F340EA0300294630BD21FAE4
:1004900004F0294630BD94F0000F83F4801306BFAA
:1004A00081F480110134013D4EE77FEA645C18BF9E
:1004B0007FEA655C29D094EA050F08BF90EA020F35
:1004C00005D054EA000C04BF1946104630BD91EA2D
:1004D000030F1EBF0021002030BD5FEA545C05D130
:1004E0004000494128BF41F0004130BD14F580046F
:1004F0003CBF01F5801130BD01F0004545F0FE41E3
:1005000041F470014FF0000030BD7FEA645C1ABF17
:10051000194610467FEA655C1CBF0B46024650EA4E
:10052000013406BF52EA033591EA030F41F400217A
:1005300030BD00BF90F0000F04BF0021704730B500
:100540004FF4806404F132044FF000054FF00001D5
:1005500050E700BF90F0000F04BF0021704730B596
:100560004FF4806404F1320410F0004548BF40426B
:100570004FF000013EE700BF42004FEAE2014FEAC0
:1005800031014FEA02701FBF12F07F4393F07F4F9B
:1005900081F06051704732F07F4208BF704793F09E
:1005A0007F4F04BF41F40021704730B54FF46074B1
:1005B00001F0004521F000411CE700BF50EA0102B4
:1005C00008BF704730B54FF000050AE050EA01025D
:1005D00008BF704730B511F0004502D5404261EBCD
:1005E00041014FF4806404F132045FEA915C3FF40E
:1005F000D8AE4FF003025FEADC0C18BF03325FEAAB
:10060000DC0C18BF033202EBDC02C2F1200300FA5B
:1006100003FC20FA02F001FA03FE40EA0E0021FA80
:1006200002F11444BDE600BF70B54FF0FF0C4CF46E
:10063000E06C1CEA11541DBF1CEA135594EA0C0F20
:1006400095EA0C0F00F0DEF82C4481EA030621EA5B
:100650004C5123EA4C5350EA013518BF52EA033596
:1006600041F4801143F4801338D0A0FB02CE4FF048
:100670000005E1FB02E506F00042E0FB03E54FF078
:100680000006E1FB03569CF0000F18BF4EF0010E70
:10069000A4F1FF04B6F5007F64F5407404D25FEA6C
:1006A0004E0E6D4146EB060642EAC62141EA55511F
:1006B0004FEAC52040EA5E504FEACE2EB4F1FD0C61
:1006C00088BFBCF5E06F1ED8BEF1004F08BF5FEADF
:1006D000500E50F1000041EB045170BD06F0004691
:1006E00046EA010140EA020081EA0301B4EB5C043E
:1006F000C2BFD4EB0C0541EA045170BD41F4801136
:100700004FF0000E013C00F3AB8014F1360FDEBF5A
:10071000002001F0004170BDC4F10004203C35DA36
:100720000C341BDC04F11404C4F1200500FA05F3B9
:1007300020FA04F001FA05F240EA020001F000425A
:1007400021F0004110EBD37021FA04F642EB0601D0
:100750005EEA430E08BF20EAD37070BDC4F10C04FA
:10076000C4F1200500FA04F320FA05F001FA04F2BE
:1007700040EA020001F0004110EBD37041F10001AA
:100780005EEA430E08BF20EAD37070BDC4F12005B5
:1007900000FA05F24EEA020E20FA04F301FA05F21D
:1007A00043EA020321FA04F001F0004121FA04F2C5
:1007B00020EA020000EBD3705EEA430E08BF20EA95
:1007C000D37070BD94F0000F0FD101F000464000CF
:1007D00041EB010111F4801F08BF013CF7D041EA51
:1007E000060195F0000F18BF704703F00046520055
:1007F00043EB030313F4801F08BF013DF7D043EA26
:100800000603704794EA0C0F0CEA135518BF95EADB
:100810000C0F0CD050EA410618BF52EA4306D1D162
:1008200081EA030101F000414FF0000070BD50EA81
:10083000410606BF1046194652EA430619D094EA0B
:100840000C0F02D150EA013613D195EA0C0F05D1F5
:1008500052EA03361CBF104619460AD181EA030149
:1008600001F0004141F0FE4141F470014FF0000001
:1008700070BD41F0FE4141F4780170BD70B54FF09C
:10088000FF0C4CF4E06C1CEA11541DBF1CEA13551C
:1008900094EA0C0F95EA0C0F00F0A7F8A4EB0504FE
:1008A00081EA030E52EA03354FEA013100F08880F5
:1008B0004FEA03334FF0805545EA131343EA1263BE
:1008C0004FEA022245EA111545EA10654FEA002673
:1008D0000EF000419D4208BF964244F1FD0404F52C
:1008E000407402D25B084FEA3202B61A65EB030588
:1008F0005B084FEA32024FF480104FF4002CB6EB45
:10090000020E75EB030E22BFB61A754640EA0C00C4
:100910005B084FEA3202B6EB020E75EB030E22BF04
:10092000B61A754640EA5C005B084FEA3202B6EB45
:10093000020E75EB030E22BFB61A754640EA9C0004
:100940005B084FEA3202B6EB020E75EB030E22BFD4
:10095000B61A754640EADC0055EA060E18D04FEA92
:10096000051545EA16754FEA06164FEAC30343EA32
:1009700052734FEAC2025FEA1C1CC0D111F4801FFF
:100980000BD141EA00014FF000004FF0004CB6E7F8
:1009900011F4801F04BF01430020B4F1FD0C88BF97
:1009A000BCF5E06F3FF6AFAEB5EB030C04BFB6EBA2
:1009B000020C5FEA500C50F1000041EB045170BD95
:1009C0000EF0004E4EEA113114EB5C04C2BFD4EBC2
:1009D0000C0541EA045170BD41F480114FF0000E46
:1009E000013C90E645EA060E8DE60CEA135594EAC2
:1009F0000C0F08BF95EA0C0F3FF43BAF94EA0C0FC5
:100A00000AD150EA01347FF434AF95EA0C0F7FF439
:100A100025AF104619462CE795EA0C0F06D152EA8D
:100A200003353FF4FDAE1046194622E750EA410671
:100A300018BF52EA43067FF4C5AE50EA41047FF482
:100A40000DAF52EA43057FF4EBAE12E74FF0FF3CE7
:100A500006E000BF4FF0010C02E000BF4FF0010CB8
:100A60004DF804CD4FEA410C7FEA6C5C4FEA430C31
:100A700018BF7FEA6C5C1BD001B050EA410C0CBF80
:100A800052EA430C91EA030F02BF90EA020F0020E2
:100A9000704710F1000F91EA030F58BF994208BF49
:100AA00090422CBFD8176FEAE37040F00100704706
:100AB0004FEA410C7FEA6C5C02D150EA013C07D15D
:100AC0004FEA430C7FEA6C5CD6D152EA033CD3D0A8
:100AD0005DF8040B704700BF8446104662468C46A2
:100AE0001946634600E000BF01B5FFF7B7FF0028D5
:100AF00048BF10F1000F01BD4DF808EDFFF7F4FFFE
:100B00000CBF012000205DF808FB00BF4DF808ED88
:100B1000FFF7EAFF34BF012000205DF808FB00BFAB
:100B20004DF808EDFFF7E0FF94BF012000205DF8CD
:100B300008FB00BF4DF808EDFFF7CEFF94BF012082
:100B400000205DF808FB00BF4DF808EDFFF7C4FF7B
:100B500034BF012000205DF808FB00BF4FEA410CC4
:100B60007FEA6C5C02D150EA013C0AD14FEA430CA7
:100B70007FEA6C5C02D152EA033C02D14FF00000E4
:100B800070474FF0010070474FEA410212F5001222
:100B900015D211D56FF47873B3EB625212D94FEAC4
:100BA000C12343F0004343EA505311F0004F23FAAE
:100BB00002F018BF404270474FF00000704750EA03
:100BC000013005D111F0004008BF6FF000407047C0
:100BD0004FF00000704700BF4A0011D212F500121A
:100BE00011D20DD56FF47873B3EB62520ED44FEA85
:100BF000C12343F0004343EA505323FA02F0704705
:100C00004FF00000704750EA013002D14FF0FF3042
:100C100070474FF0000070474FEA4102B2F1E043E5
:100C200024BFB3F5001CDCF1FE5C0DD901F0004CD3
:100C30004FEAC0024CEA5070B2F1004F40EB830023
:100C400008BF20F00100704711F0804F21D113F14F
:100C50003872BCBF01F00040704741F480114FEA88
:100C60005252C2F11802C2F1200C10FA0CF320FA11
:100C700002F018BF40F001004FEAC1234FEAD3232E
:100C800003FA0CFC40EA0C0023FA02F34FEA430398
:100C9000CCE77FEA625307D150EA01331EBF4FF021
:100CA000FE4040F44000704701F0004040F0FE403C
:100CB00040F40000704700BF7BB972B90029BEBF85
:100CC00000204FF0004106E008BF00281CBF6FF075
:100CD00000414FF0FF3000F01DBAADF1080C6DE996
:100CE00004CE002909DB002B1ADB00F097F8DDF8B1
:100CF00004E0DDE9022304B07047404261EB4101AA
:100D0000002B1BDB00F08AF8DDF804E0DDE90223AC
:100D100004B0404261EB4101524263EB4303704730
:100D2000524263EB430300F079F8DDF804E0DDE9BB
:100D3000022304B0404261EB41017047524263EB31
:100D4000430300F06BF8DDF804E0DDE9022304B0B2
:100D5000524263EB4303704753B94AB9002908BFB5
:100D600000281CBF4FF0FF314FF0FF3000F0D2B928
:100D7000ADF1080C6DE904CE00F050F8DDF804E0A8
:100D8000DDE9022304B07047430803F05533C01A6D
:100D9000830803F0333300F03330184400EB1010B5
:100DA00000F00F3000EB002000EB0040000E704719
:100DB00038B50022002304460D46FFF7A7FE28B9E8
:100DC00020462946BDE8384000F00AB8204605F123
:100DD000004100F005F8404261EB410138BD00BF21
:100DE000D0B50C4B002206460F46FFF71DFCFFF75F
:100DF000F3FE0446FFF79EFB074B0022FFF714FCAF
:100E000002460B4630463946FFF756FAFFF7E4FE36
:100E10002146D0BD0000F03D0000F0412DE9F04733
:100E2000089D8E4604468846002B4AD18A421746C2
:100E300062D9B2FA82F64EB1C6F1200301FA06F881
:100E400020FA03F3B74043EA0808B4404FEA174ECC
:100E50001FFA87FCB8FBFEF1230C0EFB118843EA56
:100E6000084301FB0CF29A4209D9FB1801F1FF304B
:100E700080F0EA809A4240F2E78002393B449A1AB5
:100E8000A3B2B2FBFEF00EFB102243EA024300FBCA
:100E90000CFC9C4509D9FB1800F1FF3280F0D6808C
:100EA0009C4540F2D3803B44023840EA0140A3EB2A
:100EB0000C0300211DB1F3400022C5E90032BDE85A
:100EC000F0878B4205D90DB1C5E900010021084624
:100ED000F5E7B3FA83F1002946D1734502D3824284
:100EE00000F20581841A6EEB030201209046002D6A
:100EF000E5D0C5E90048E2E7002A00F09080B2FAA8
:100F000082F6002E40F0A4808A1A030C4FEA174E96
:100F100080B2BCB20121B2FBFEFC0EFB1C2243EAF4
:100F2000024304FB0CF29A4207D9FB180CF1FF387C
:100F300002D29A4200F2E080C4469B1AB3FBFEF252
:100F40000EFB123340EA034302FB04F49C4207D930
:100F5000FB1802F1FF3002D29C4200F2CA80024626
:100F60001B1B42EA0C40A5E7C1F120068B4022FA88
:100F700006F71F430EFA01F420FA06F32EFA06FED6
:100F80004FEA1749234300FA01F81FFA87FCBEFB1A
:100F9000F9F01C0C09FB10EE44EA0E4400FB0CFEB9
:100FA000A64502FA01F209D93C1900F1FF3A80F096
:100FB0009C80A64540F2998002383C44A4EB0E0484
:100FC0001FFA83FEB4FBF9F309FB13444EEA044411
:100FD00003FB0CFCA44508D93C1903F1FF3E80F04B
:100FE0008280A4457FD9023B3C4443EA0040A4EB05
:100FF0000C04A0FB02EC64457346E14662D35FD06B
:101000005DB1B8EB030264EB090404FA06F622FAB8
:1010100001F31E43CC40C5E9006400214FE7B1FB5A
:10102000F2FC010C41EA0E4180B240EA01423B462B
:1010300038463C46B846BE462026B1FBF7F1A2EB47
:10104000080241EA0C4166E7014618E710462CE722
:10105000C6F120022EFA02F3B740B14020FA02F2A4
:101060004FEA174E0A43B3FBFEF8BCB20EFB18332F
:10107000110C41EA034108FB04F9B04089454FEAED
:10108000104380B23ED9791808F1FF3C01D289455E
:101090001FD8A1EB0901B1FBFEF909FB04F80EFB17
:1010A000191192B242EA0142424529D2BA1809F115
:1010B000FF31C4D24245C2D2A9F102013A44BEE78F
:1010C000F0459DD2BEEB02036CEB070C0138E14604
:1010D00096E7A7EB09094944A8F1020CB1FBFEF918
:1010E00009FB04F8DBE773467FE7504666E70846EE
:1010F000FDE63B44023A33E7ACF1020C3B441CE70B
:1011000049469CE7A1EB0901C446B1FBFEF909FB86
:1011100004F8C4E7704700BF00B585B00023009312
:101120000193029303931548154A02604FF440322D
:10113000426083600361037680F82030C362114A05
:101140008262C3600122C26180F83030426105F0E2
:1011500055FE68B9122300930123019300230293E3
:101160006946064806F010F828B905B05DF804FB9A
:1011700001F0E6FAEEE701F0E3FAF6E7BC0800203A
:10118000002001400100000F0268094B9A4200D084
:10119000704782B000230193064B5A6C42F4807270
:1011A0005A645B6C03F480730193019B02B0704737
:1011B000002001400038024030B52DED028B85B093
:1011C0001A4B5C8D00230393112300930123019399
:1011D000072302936946164805F0D6FF28B1BFEEF3
:1011E000000A05B0BDEC028B30BD114D284605F05C
:1011F000C7FE0A21284605F067FF88B19FED0D8ADA
:101200000B4805F041FF07EE904AF8EE677AB8EE1A
:10121000488A87EE880ADFED087A20EE270AE0E7A1
:10122000284605F0ADFF08EE100AE9E7007AFF1F37
:10123000BC080020000000003333534010B52DEDF2
:10124000028B84B000230093019302930393FFF772
:10125000B3FFB5EEC00AF1EE10FA32D4B0EE408A18
:101260001223009301230193072302930023039386
:101270006946174805F088FF10B1BFEE000A22E06A
:10128000134C204605F07CFE0A21204605F01CFF89
:1012900088B1DFED108A0E4805F0F6FEF8EE687AA8
:1012A0009FED0D7A87EE870A20EE080AF1EE007AAC
:1012B00020EE270A07E0204605F062FF08EE900ABC
:1012C000E9E7BFEE000A04B0BDEC028B10BD00BF21
:1012D000BC0800200000000000F07F4508B5002297
:1012E0004FF48051014806F00DFA08BD0004024099
:1012F00008B501224FF48051014806F003FA08BDF9
:101300000004024008B500224FF40041014806F0F5
:10131000F9F908BD0000024008B501224FF4004170
:10132000014806F0EFF908BD000002402DE9F04742
:101330008EB08023ADF830304023ADF8323020231A
:10134000ADF834303B4B09AC93E8070084E8070064
:101350000422ADF81C200222ADF81E200122ADF8B7
:10136000202004AC93E8070084E80700DFF8D0A051
:101370004FF000084FF001092CE04346424601A916
:10138000DAF8000008F0D1FC01AC09AE0CAD0DF1AB
:10139000070708E042462988306806F0B3F90436AA
:1013A0000235BC421CD014F8013B002BF2D04A4657
:1013B0002988306806F0A6F9F1E71F4C206808F08C
:1013C00002FD4346424603A9206808F06CFC4846EB
:1013D00008F083FBDAF8000008F0E8FC0028CCD124
:1013E00009AC0CAE02AD374636F8021B54F8040BBC
:1013F00006F082F905F8010BBC42F5D10F4C2068CC
:1014000008F0E1FC4346424602A9206808F04BFC84
:1014100004AC07AE03AD374636F8021B54F8040B94
:1014200006F06AF9B0FA80F0400905F8010BBC42F9
:10143000F2D1C2E7E0790308240900202009002046
:101440001C09002084B008B50DF1080C8CE80F00D1
:1014500000231A4661460448006808F024FCBDE8F1
:10146000084004B0704700BF140900202DE9F04384
:10147000BBB000233993814B814A8249824805F0F1
:10148000F9F9824982480AF009FF002843DB8148C4
:101490000AF0EEFE804C20460AF0DEFE7F480AF09D
:1014A000DBFE20460AF0E4FE7D480AF0E1FE7D48BE
:1014B0000AF0DEFE7C480AF0DBFE7C480AF0D8FE2B
:1014C0007B480AF0D5FE002239A97A480AF01EFEB0
:1014D00058B3012177480AF055FE0446C62207A9F1
:1014E0000AF07EFE20460AF06FFE00228DF81C20D6
:1014F000022307A97048006808F024FE002239A9D9
:101500006E480AF003FEE8B10025DFF8AC81DFF891
:10151000A4916B4C86E06B4B01221A7040F6B830F8
:1015200008F0DBFA05F05CFFB1E7C622002107A84E
:101530001BF00EFA0223002207A95F48006808F09A
:1015400001FEDBE740F29A600AF06AFC044690B3C1
:101550005D49012000F084FF5C4B186820609B8887
:10156000A38001AD5A4E0FCE0FC596E8030045F893
:10157000040B297001AD0FCDC4F88000C4F88410AD
:10158000C4F88820C4F88C302868C4F890002B79FF
:1015900084F89430022149480AF0F4FD054640F2EF
:1015A0009A6221460AF028FE28460AF00DFE2046DF
:1015B0000AF0D4FCA8E74749032000F051FFF6E702
:1015C00048460AF049FE022148460AF0DBFD06467D
:1015D00090B3C62207A90AF00FFE30460AF0F4FDC8
:1015E00000228DF81C20022307A9D8F8000008F07B
:1015F000A9FD21E0384608F070FA3146204606F091
:101600007BF80028F6D04FF47A7008F066FA2B4881
:101610000AF022FE05F0E4FE00E000254FF47A70A7
:1016200008F05BFA002207A9D8F8000009F0A4F836
:101630009DF81C30002BC3D14FF48071204606F07A
:101640005BF80028E9D10135EDB2012202212046E4
:1016500006F058F8642008F040FA002202212046E3
:1016600006F050F8082DD9D101220221204606F0BB
:1016700049F84FF480760127BFE700BFDD1C010861
:10168000011D010819130108051301082D1D01088A
:10169000191D01084C7C0308547C0308607C030876
:1016A000707C03087C7C0308708E0308847C03082C
:1016B0008C7C0308947C030818090020A87C03088C
:1016C0000004024040090020E47C03081C7D03085C
:1016D000247D0308B87C030808B5012913D002292A
:1016E00019D089B94AB1012A0ED10223002201463C
:1016F0001148006808F026FD06E001460E4B186808
:1017000009F03AF800E002B108BD01460B4B186839
:1017100009F032F8F8E74AB1012AF5D10223002294
:1017200001460748006808F00DFDEDE70146054B4E
:10173000186809F021F8E7E71809002024090020BB
:101740001C090020200900202DE9F0478AB04FF441
:101750007A7008F0C2F908F06DF8642008F0BDF95D
:101760000021012007F0BCFF002007F07FFFAE4BF7
:101770001C78002C4FD1AD4D01222946AC4808F011
:101780000DF801222946AB4808F008F804F10B01D6
:10179000C9B2012007F0A4FF01222946A64807F09C
:1017A000FDFF04F11601C9B2012007F099FFA34B18
:1017B00059684B780A784879039008790290C8787C
:1017C0000190897800919E4905A81AF0CDFE01226A
:1017D000294605A807F0E2FF04F12101C9B2012062
:1017E00007F07EFF0AF056FD014605A81CF0FAFD41
:1017F0000122294605A807F0D1FF08F0C3F840F6FA
:10180000B83008F06AF900270125884E4FF00B091F
:10181000DFF86482CFE00021012007F061FF0020A3
:1018200007F024FF814C01222146864807F0B6FFCD
:101830000A21012007F054FF01222146824807F0C7
:10184000ADFF1421012007F04BFF012221467F4804
:1018500007F0A4FF08F096F840F6B83009F08AFCCB
:10186000142488E713F1050F08D12821284607F032
:1018700037FF2A463146764807F090FF394628461A
:1018800007F02EFF2A463146724807F087FF6B4B60
:101890005B689A68130E0193C2F307430093C2F387
:1018A0000723D2B26C4905A81AF05EFE2A463146DB
:1018B00005A807F073FF4946284607F011FF2A469E
:1018C0003146664807F06AFF49463D2007F008FFA9
:1018D000DFF898A1002420E02821284607F000FF27
:1018E0002A4631465E4807F059FFC7E728212846B7
:1018F00007F0F6FE2A4631465A4807F04FFFBDE78B
:101900002A46314605A807F049FFE0003D30494628
:1019100080B207F0E5FE032C0FD001342246414689
:1019200005A81AF021FE1AF8013B002BE8D03A4630
:10193000314605A807F032FFE7E71621284607F0F1
:10194000CFFE2A463146484807F028FF16213D20A1
:1019500007F0C6FEDFF824A100240CE02A46314639
:1019600005A807F01BFFE0003D30162180B207F00C
:10197000B7FE032C0FD001342246414605A81AF0C9
:10198000F3FD1AF8013F002BE8D03A46314605A88E
:1019900007F004FFE7E707F0F5FFDFF8E4A04FF4F6
:1019A0007A7423462A467821504606F0B1F960BB86
:1019B000C82008F092F82D4C3A4629462046FFF7F9
:1019C0008BFE3A460221E01CFFF786FE384607F000
:1019D0004DFE274B93F9003013F10C0F86D013F115
:1019E0000B0FBFF63FAF13F1540F3FF475AF13F178
:1019F000180F7FF443AF2821284607F071FE2A46CE
:101A000031461C4807F0CAFE38E7504606F062F837
:101A1000204609F0AFFB00F03BFC204609F0AAFB92
:101A200007F008FFBDE700BF400900201C010020AF
:101A3000707D03087C7D0308887D0308440900202D
:101A4000947D03083C7D0308507D03085C7D0308FA
:101A5000B47D0308F07D0308F47D0308047E0308C9
:101A6000C07D0308E07D03080C7E03080409002004
:101A700041090020D07D03088CBA03080609002024
:101A80004C0900202DE9F047D0B06D4800F0DCFC97
:101A9000012000F0DFFC6B49012000F0E1FC4FF475
:101AA000FA7402E0204608F018F80AF0EDFB00286E
:101AB000F8D00AF0EFFB02466349012000F0D0FCA9
:101AC000624A6349012000F0CBFC44F62064614F78
:101AD000DFF8AC81DFF8AC9171E000231A4607A96A
:101AE000386808F022F9022140460AF04BFB05460F
:101AF0009DF81D210DF11D010AF07EFB89F8000003
:101B000028460AF061FB5FE048A80AF065FA4E9BA0
:101B100004934D9B03934C9B02934B9B01934A9BD5
:101B20000093499B489A4C49012000F099FC4B4B8B
:101B30005B689A68130E0193C2F307430093C2F3E4
:101B40000723D2B24649012000F08AFC05F0F2F8E2
:101B5000064605F0F5F8054605F0F8F882463246E7
:101B60004049012000F07CFC2A463F49012000F05A
:101B700077FC52463D49012000F072FC3C4C524635
:101B80000221204606F097FF52460321204606F028
:101B900092FF32460421204606F08DFF3246052191
:101BA000204606F088FF2A460621204606F083FFDD
:101BB0002A460721204606F07EFF002401343868BB
:101BC00008F0F4F8002888D14FF4FA7007F085FF88
:101BD00044F620639C42F1D100224FA940460AF00E
:101BE00095FA4F9A4CF250339A428DD9214C2046A7
:101BF0000AF032FB214640460AF022FB1E49012032
:101C000000F02EFC154B59684B780A784879039000
:101C100008790290C87801908978009117490120CD
:101C200000F01EFC0AF036FB02460749012000F0D6
:101C300017FC064A0649012000F012FC64E700BFC9
:101C400045140108187E03082C7E0308487E03080B
:101C50004C7E030814090020C07E030844090020BC
:101C6000547F0308707F03088C7F0308A87F030854
:101C7000B0090020747E0308847E0308987E030860
:101C8000647E03084109002008B5074E4FF4FA7539
:101C9000064C304606F043F9284607F01EFF0121A6
:101CA000204605F035FDF4E7A009002000040240BD
:101CB00000B587B08DF80F104FF0FF33009301236C
:101CC0000DF117020DF10F01034807F02EF99DF8F1
:101CD000170007B05DF804FBD009002000B583B001
:101CE0008DF807004FF0FF3301220DF10701034883
:101CF00007F03FF803B05DF804FB00BF280A00209E
:101D000008B50A464FF0FF330146024807F035FA9E
:101D100008BD00BF280A002008B54FF0FF31024B74
:101D2000186807F026FF08BD0C09002008B5024B13
:101D3000186807F04DFF08BD0C09002008B52C48B5
:101D400007F0D9FE2B4B18602B4807F0D4FE2B4B25
:101D500018602B4A0321012007F05FFF294B186010
:101D6000294A0321012007F058FF284B1860284A10
:101D70000321012007F051FF264B1860264AC62197
:101D8000012007F04AFF254B1860254A4FF4817166
:101D9000192007F042FF234B1860234A00212348F3
:101DA00007F050FE224B1860224A0021224807F01B
:101DB00049FE224B1860224A0021224807F042FEC9
:101DC000214B1860214A0021214807F03BFE214B9E
:101DD0001860214A0021214807F034FE204B18608A
:101DE000204A0021204807F02DFE204B186008BD36
:101DF00080C803081009002070C803080C090020DF
:101E0000F0C8030824090020D8C8030820090020CE
:101E1000C0C803081C090020A8C80308180900202E
:101E200090C8030814090020BCC90308991E0108C2
:101E30003C09002098C903082D1301083809002027
:101E400074C90308491701083409002050C9030860
:101E50006D140108300900202CC90308851A0108F7
:101E60002C09002008C90308891C01082809002042
:101E700008B500224FF48071014805F043FC08BD0D
:101E80000000024008B501224FF48071014805F0BE
:101E900039FC08BD0000024070B5EAB022AD694BC4
:101EA0000FCB85E80F0002AC8022002120461AF0FB
:101EB0004FFD40238DF8083022238DF80930624B06
:101EC0001A7C8DF80A209A7C8DF80B201A7D8DF8EB
:101ED0000C201B7E8DF80D3001238DF827308DF8F6
:101EE00028305A4B0B930C95594B58AA1A605C60DA
:101EF0004FF4FA7402E0204607F0EFFD0AF0C4F94F
:101F00000028F8D058A812F08DFE524B03221A6018
:101F100002F0F6FF0646BDF84C30ABB94FF4FA7547
:101F20004FF4FA64FFF7A4FF284607F0D6FDFFF749
:101F3000A9FF204607F0D1FD02A958A816F052FAD1
:101F4000BDF84C30002BEDD0062102A803F024FD93
:101F5000414802F0FFFF3E4B3246404958A815F079
:101F60004FFD9DF88430032B0BD00124214658A847
:101F700018F07CFC204607F0B0FD9DF88430032B60
:101F8000F4D1334B5B689A68130E0193C2F3074395
:101F90000093C2F30723D2B23149012000F060FA66
:101FA0000022114626A8FFF797FB9DF89930F3B160
:101FB0002C49012000F054FA274B01930DF23D13F8
:101FC000009347AB0DF19A0202A958A803F0FEFB5B
:101FD00058A804F043FA02A958A804F0F9FB58A83D
:101FE00001F034F908F0A6FF0546642608E01E4912
:101FF000012000F035FAEBE7012007F06EFD2546E1
:1020000008F098FF0446411B58A818F02FFC40F632
:10201000B8350B9BDB6802A898470028ECD1FFF786
:1020200027FF304607F059FDFFF72CFF284607F041
:1020300054FD0B9B1B6802A8984741F6583007F0E7
:102040004CFDE6E7EC790308007AFF1F2801002029
:10205000440900203C010020D9160108BC7F030878
:10206000547F0308D07F0308E87F03080BB2002BDE
:1020700024DD2DE9F04182B006460C4615468B184A
:10208000042B03DD012002B0BDE8F0810022012114
:1020900001A8FFF721FB013CA4B2A5420CDD0DF124
:1020A0000408012718F804303A46A1B2304600F07F
:1020B00035FF0134A542F5DC0020E4E7012070473C
:1020C0002DE9F04383B015460AB2002A4CDD0646DE
:1020D0000C461F464B19042B4ADC47B3012F3FD156
:1020E0004C1EA4B20022022101A8FFF7F5FA2746F0
:1020F0002544AC4214DA01AB1C444FF001084FF008
:1021000000094246B9B2304600F036FF4246494621
:10211000304600F031FF04F8010B0137AF42F0D137
:102120000122022101A8FFF7D7FA00201DE00022BA
:10213000022101A8FFF7D0FA013CA4B2A54211DDAB
:102140000DF104094FF0010819F804304246A1B21C
:10215000304600F0E3FE0134A542F5DC384604E0E9
:10216000012002E0384600E0012003B0BDE8F08322
:102170000120FAE701207047012070472DE9F04364
:1021800089B0002403940494059406940794009461
:102190003C4B1A6B42F080021A631A6B02F0800209
:1021A0000092009A01941A6B42F001021A631A6BB2
:1021B00002F001020192019A02941A6B42F00202AB
:1021C0001A631B6B03F002030293029B2E4E2246FE
:1021D0004FF4F071304605F095FA2C4D2246072158
:1021E000284605F08FFA01224FF48051284605F069
:1021F00089FA01224FF40041304605F083FA4FF08E
:102200000709CDF80C9004944FF00208CDF8148023
:1022100003A9304605F0F6F8E0230393012704975D
:102220000594069403A9304605F0ECF8CDF80C901F
:1022300004970594069403A9284605F0E3F84FF4A3
:102240008053039304970594CDF8188003A928467A
:1022500005F0D8F84FF40143039304970594CDF8A3
:10226000188003A9304605F0CDF84FF4807303932E
:102270000494059403A9284605F0C4F809B0BDE804
:10228000F08300BF0038024000000240000402401A
:1022900008B50B480B4B03600B4B43600023836076
:1022A000C3604FF48042026143618361C361036292
:1022B00005F04EFB00B908BD00F042FAFBE700BF95
:1022C0004C09002000540040400D030030B589B097
:1022D0000023039304930593069307930268154B19
:1022E0009A4201D009B030BD00250195124C236BF4
:1022F00043F002032363236B03F002030193019B6A
:10230000C02303931223049301230593032306930D
:102310000423079303A9094805F074F80295236C78
:1023200043F400132364236C03F400130293029B11
:10233000D8E700BF005400400038024000040240CB
:1023400002680A4B9A4200D0704710B5084A136CD5
:1023500023F400131364074C4021204605F03AF99A
:102360008021204605F036F910BD00BF0054004022
:10237000003802400004024008B50748074B0360DC
:102380000323436040F6FF73836005F097FD00B9B7
:1023900008BD00F0D5F9FBE7A0090020003000409F
:1023A00084B08DE80F0004B07047000010B590B005
:1023B000244C00220BA9204606F039FB00220AA972
:1023C000204606F05AFB00230793089309939DF8D3
:1023D0002B30643306939DF82930013B05939DF81B
:1023E0002A3004939DF82C3003939DF82D300293EE
:1023F0009DF82E30019301A81AF0AAFD0C9A4FF413
:102400007A7303FB02F20D9BB2FBF3F2C2F5797211
:1024100003324FEA411C4CEAD06C43011B1A6CEBAF
:10242000010C4FEA8C0C4CEA937C9B001B1841EB8F
:102430000C01C90041EA5371DB00D01841F10001E1
:1024400010B010BDB009002008B1014A10607047FB
:1024500000000020014B1870704700BFAC0900203D
:102460000EB42DE9F043ADF51C7D474B1B7883423C
:1024700005D90DF51C7DBDE8F04303B07047044657
:102480004FF4807009F0CCFC05460028F1D04FF4E1
:102490008078424600211AF05BFA4FF481720021E5
:1024A0005BA81AF055FA8DF86C41FFF77FFFFEF735
:1024B0008DF806460F460022344BFEF7DFF9FEF793
:1024C00077FCCDE958014FA958A81AF07DFB0DF112
:1024D000FC094FAB2E4A402148461BF015FC044630
:1024E00030463946FEF750FB2A4A82FB0032C317BA
:1024F000C3EBA2134FF47A7202FB1303264AC4F112
:10250000400109EB040019F0F9FF0444202309F805
:1025100004304C4400236370A4AB5A930DF26D1643
:10252000A39AFD2130461AF085F9044601969DF8DC
:102530006C211A4B53F8223000934B46184A4146FF
:10254000284619F0DBFFF52C04D82846FDF7A8FE35
:10255000C0B200E0F6208DF86D024FF4807229467B
:102560000DF26D101AF03BFA0E4B1E6846B15BACD3
:10257000F2225FA968461BF067FF94E80F00B0479E
:10258000284609F0EBFC74E7AC09002000408F40BE
:1025900094800308D34D6210A88003080400002033
:1025A000B08003080000002000B595B03022002163
:1025B00008A81AF0CDF9002303930493059306931A
:1025C00007930193204A116C41F080511164126C01
:1025D00002F080520192019A02931C4B1A6842F455
:1025E00040421A601B6803F440430293029B092394
:1025F00008934FF48033099301230D9302220E9226
:102600004FF480030F9304231093642111911292CD
:10261000139308A805F08AFC88B90F2303930223BB
:102620000493002305934FF48052069207930321ED
:1026300003A805F0E5FE20B915B05DF804FB72B6FD
:10264000FEE772B6FEE700BF0038024000700040AF
:1026500000B583B072B6304B304A9A6062B6304BE8
:102660000193019B002B05DD019B013B0193019B25
:10267000002BF9DC04F082FBFFF796FFFFF77EFDED
:1026800000F0F4F8FFF704FE00F0CEF8FFF774FE58
:10269000FEF742FD00F056F8224D0221284606F0D2
:1026A0000FFA04460321284606F00AFA84421ED097
:1026B0001C4D0421284606F003FA0446052128464D
:1026C00006F0FEF9844219D0164D0621284606F080
:1026D000F7F904460721284606F0F2F9844214D09F
:1026E00007F082F9FFF72AFB07F090F9FEE70221D5
:1026F000284606F0E5F904F03BFBD9E7042128461B
:1027000006F0DEF904F028FBDEE70621284606F095
:10271000D7F904F027FBE3E700ED00E00000010833
:1027200040420F00B009002008B50268034B9A42EE
:1027300000D008BD04F03CFBFBE700BF00400140B7
:1027400072B6FEE700B587B00023019302930393AE
:102750000493059300932048204A026043607F223F
:102760008260FF22C26003614361836106F042F828
:1027700040BB0121184806F0A3F943F2F223984226
:102780001DD000238DF804308DF805308DF806300B
:1027900004930593012201A90F4806F089F8A0B916
:1027A00001228DF800208DF801208DF802200023F1
:1027B0008DF803306946084806F0DEF840B907B0E6
:1027C0005DF804FBFFF7BCFFD3E7FFF7B9FFE7E7CE
:1027D000FFF7B6FFF3E700BFB00900200028004074
:1027E00000B587B000230193029303930593026819
:1027F0000B4B9A4202D007B05DF804FB0223009312
:102800004FF400730493684605F0EAFE20B9054BC7
:102810000122C3F83C2EEEE7FFF792FFF7E700BF77
:10282000002800400000474208B50E480E4B0360E8
:102830004FF48273436000238360C360036143618C
:102840004FF4007282610822C261036243628362B4
:102850000A23C36206F02EFA00B908BDFFF770FF25
:10286000FBE700BF280A00200030014008B50D48F2
:102870000D4B03604FF48273436000238360C36099
:10288000036143614FF400728261C361036243627A
:1028900083620A23C36206F00DFA00B908BDFFF790
:1028A0004FFFFBE7D00900200038004000B58BB097
:1028B0000023059306930793089309930368284A16
:1028C000934205D0274A934225D00BB05DF804FB14
:1028D00000210191244B5A6C42F480525A645A6C84
:1028E00002F480520192019A02911A6B42F00202A4
:1028F0001A631B6B03F002030293029B38230593B8
:1029000002230693032308930523099305A9174877
:1029100004F078FDD9E700210391134B1A6C42F4BF
:1029200080421A641A6C02F480420392039A049162
:102930001A6B42F002021A631B6B03F0020304934A
:10294000049B4FF4604305930223069303230893EB
:102950000523099305A9054804F054FDB5E700BF18
:1029600000300140003800400038024000040240BE
:1029700000B583B0002200920D4B596C41F48041A8
:102980005964596C01F48041009100990192196CCD
:1029900041F0805119641B6C03F080530193019B3B
:1029A0000F216FF0010004F0D7FC03B05DF804FBC9
:1029B0000038024030B589B00546002401941E4B12
:1029C0005A6C42F480325A645B6C03F48033019396
:1029D000019B02A903A805F0E5FD05F0D3FD034620
:1029E0001648174A026040F2E732C260154AA2FB5D
:1029F00003239B0C013B436004618460846106F007
:102A000007FE044610B1204609B030BD0B4806F061
:102A100083FC04460028F6D1182004F0D3FC0F2DC7
:102A200001D90124EFE700222946182004F094FC84
:102A3000054B1D60E7E700BF00380240800A002018
:102A40000040014083DE1B4318010020FEE7FEE743
:102A5000FEE7FEE7FEE7704708B5024806F09CFC7B
:102A600008BD00BF800A00200120704708B51BF098
:102A7000B3FC162303604FF0FF3008BD08B51BF010
:102A8000ABFC16230360FEE770B5161E07DD0C468F
:102A90008D19AFF3008004F8010BA542F9D130463F
:102AA00070BD70B5161E07DD0C468D1914F8010BAC
:102AB000AFF30080A542F9D1304670BD4FF0FF3032
:102AC00070474FF400534B6000207047012070475F
:102AD0000020704708B503460C4A126852B10B4AF1
:102AE000106803440A4A0B49521A934206D8074A0F
:102AF000136008BD054A08491160F0E71BF06CFC43
:102B00000C2303604FF0FF30F3E700BFCC0A002036
:102B1000000002200008000040A30120034AD2F870
:102B2000883043F47003C2F88830704700ED00E04D
:102B3000DFF834D0FFF7F2FF0C480D490D4A0023AF
:102B400002E0D458C4500433C4188C42F9D30A4A62
:102B50000A4C002301E013600432A242FBD31BF0B5
:102B600049FCFFF775FD70470000022000000020BF
:102B70009C0800208CE40308A008002040A301204A
:102B8000FEE738B50B88052B01D0032038BD0C4675
:102B9000C378027942EA0322531E9BB240F2CE71FF
:102BA0008B4225D890F801C081780023238001232F
:102BB000037023880133238012F0070F1DBFD5084F
:102BC0000135EDB2C2F3C705457023880133238078
:102BD00041EA0C210131002389B20230FFF770FA7B
:102BE00018B923881D442580D0E700F0D7F9CDE738
:102BF0000320CBE70B88052B01D003207047037916
:102C00000BBBC278531EDBB2FD2B1ED900B583B0BF
:102C10004378817800208DF80500FF2A14BF002238
:102C200001228DF8042041EA0321013101231A46D3
:102C300089B201A8FFF744FA10B903B05DF804FBAC
:102C400000F0ACF9F9E703207047032070470B88C8
:102C5000052B28D910B50C46C278037943EA022225
:102C600013F0070F1DBFD1080131C9B2C2F3C7016C
:102C7000531E9BB2B3F5F66F17D243798B4201D046
:102C8000032010BD4378817841EA032101310123FB
:102C900089B20630FFF714FA10B905232380F0E754
:102CA00000F07CF9EDE7032070470320E9E738B531
:102CB0000B88052B01D0032038BD0C46C378027960
:102CC00042EA0322531E9BB240F2CE718B4224D8BB
:102CD00090F801C0817800232380022303702388A9
:102CE0000133238012F0070F1DBFD5080135EDB267
:102CF000C2F3C705457023880133238041EA0C21C4
:102D0000013189B20230FFF7B1F918B923881D44A7
:102D10002580D1E700F042F9CEE70320CCE708B5E3
:102D20000B88052B01D0032008BD4378817841EA48
:102D30000321013101231A4689B20330FFF71CFA3F
:102D40000028F1D000F02AF9EEE70B88052B21D9F5
:102D500010B50C46C378027942EA0322531E9BB297
:102D6000772B19D853004179DBB2994201D0032067
:102D700010BD4378817841EA03210131012389B2F2
:102D80000630FFF7F9F910B905232380F0E700F0CA
:102D900005F9EDE7032070470320E9E738B50B8814
:102DA000052B01D0032038BD0C4605796B1E9BB264
:102DB0007C2B01D90320F6E790F801C0817800232D
:102DC0002380032202702288013222806A0042702E
:102DD00022880132228041EA0C2101312A4689B23F
:102DE0000230FFF7C9F920B9238803EB450323809C
:102DF000D9E700F0D3F8D6E70B88092B44D92DE9A1
:102E0000F04104460D46C378067946EA0326731E50
:102E10009BB27C2B3AD8C379027A42EA0322531E32
:102E20009BB2782B35D8437AB3EB420F01D0032005
:102E30002DE090F8018087784379817941EA032178
:102E40000131012389B20A30FFF796F90346C0B970
:102E50002880172222702A8801322A80720062702C
:102E60002A8801322A8047EA08210131324689B294
:102E7000A01CFFF781F920B92B8803EB46032B80B8
:102E800005E000F08BF802E0002070470320BDE869
:102E9000F0810320FBE738B50B88052B01D0032018
:102EA00038BD0C46C378057945EA03256B1E9BB2F5
:102EB0007B2B01D90320F3E742788178002323801C
:102EC000042303702388013323806B00437023881D
:102ED0000133238041EA022101312A4689B20230BE
:102EE000FFF748F920B9238803EB45032380D7E790
:102EF00000F054F8D4E7000038B50D46054B1C88A7
:102F00002246054901301BF09FFA01342C80002035
:102F100038BD00BFD00A0020D40A002038B5082AE6
:102F20001ED81D46CC0804F1010E4FF0010C0CFA1E
:102F300002F2013A92B2A1EBC4039A4010F80EC01B
:102F4000035D43EA0C2323EA020301F007018D40ED
:102F50002B431BB20355C3F3072300F80E3038BDD3
:102F6000024B034A3721034818F0F8FBDC800308C2
:102F7000F8C90308EC8003084FEAD10C00EBD10339
:102F80005B7810F80C0040EA032001F007010841CB
:102F900001239340013B1840C0B27047012806D07E
:102FA000072806D0003818BF012080007047022093
:102FB000704706207047000010B500F0C8F90446BD
:102FC00020B1104B01221A70204610BD00F0CCF841
:102FD000A8B10D4B0D4A1A600D4B0E4A1A600E4BEC
:102FE0000E4A1A600E4B0F4A1A600F4B00221A60ED
:102FF0000E4BFF221A70034B01221A70E4E70324E0
:10300000E2E700BF9C0000200C0B00205F330108AA
:10301000080B002061330108040B0020693301080C
:10302000100B0020A9330108000B0020140B002016
:1030300008B5064B1B78012B01D0062008BD044BB8
:103040001B6898470020014B1870F7E79C00002090
:103050000C0B002030B583B0394B1C78002C55D1B7
:103060000DF1070000F094F8012802D0204603B0CB
:1030700030BD9DF80730012B19D0022BF6D1314B12
:1030800018680178304B1970304B01221A700023F8
:103090002F4D15F8332022B191421DD00133102B52
:1030A000F7D12C4B1B78002B34D11C46DEE72A4B82
:1030B0001B682A4A23492748984705460028D5D146
:1030C000244B1B78264A12789A4200D003BB022078
:1030D00000F052F82C46C9E71D4A02EBC3035B68B7
:1030E0001E499847194B18701A4B1B7863B1174B40
:1030F0001B788BB91B4B1B68184A12881149096849
:10310000174800789847B1E71C46AFE70624ADE7BB
:103110000446ABE70D4B1B780B4A1178094805684C
:103120000E4A4FF0010CA2F800C061F07F01297037
:103130000068118801EB0C0515804354DAE700BFE5
:103140009C000020F80A0020F50A0020F40A002064
:103150001C000020FC0A0020040B0020F60A0020BE
:10316000140B0020100B0020024B00221A700120CB
:10317000704700BF150B00200123034A1370034A58
:1031800010701846704700BF150B0020160B00206A
:103190000346054A107830B1044A12781A70024B7F
:1031A00000221A7001207047150B0020160B00201A
:1031B000072900D0704738B504461E4B00F11C02A9
:1031C00093E8030017F02AFE012806D094F8AD30EA
:1031D00043F0200384F8AD3038BD226C93B2164919
:1031E0000B8033B994F8AD3043F0200384F8AD3050
:1031F000F2E71A46A16B11481BF026F90120FFF7F0
:10320000BBFFFFF727FFFFF725FF0D4B1B7833B9F7
:1032100094F8AD3043F0200384F8AD30DCE70025AE
:10322000074B1D70074B1A880749204614F094FE7F
:103230002564D1E7180B0020241300202813002058
:10324000200B0020220B0020240B002070B582B040
:103250000023274A274914F04FFB0020FFF7ACFE5C
:10326000FFF7E6FE0022019201A9234808F04EFF75
:10327000019C611E40F2FE3399421BD80134204666
:1032800008F0CEFD064618B12246002119F060FB79
:103290001A4D2E600121184808F074FF0446019A67
:1032A000296808F09DFF019B6B60204608F08CFFA9
:1032B00002B070BD0B2008F0B3FD03460F4C206038
:1032C0000B2262600E4A03CA186059601188927816
:1032D00019819A720221084808F054FF0546626875
:1032E000216808F089FF284608F06EFFE0E700BF7C
:1032F000B13101083481030848810308180B00200C
:103300005C81030801207047044B0360044B1A885A
:103310000A8000221A800120704700BF2813002075
:103320002413002010B50C460A46014604481BF041
:103330008BF8044B1C800120034B187010BD00BF9C
:10334000240B0020220B0020200B0020704708B522
:10335000FFF7D8FF00280CBF0320002008BD7047EE
:1033600008B5FFF7F3FF08BD70B582B006460D46FD
:1033700014460DF1020101A8FFF7C6FF80B1019BC1
:103380009978DA7852EA01220CD107332B60BDF824
:103390000230073B2380FF233370002002B070BD52
:1033A0000520FBE70520F9E708B50846531C1B126A
:1033B00001F8033C531C01F8023C073291B2073874
:1033C000FFF7B0FF00280CBF0520002008BD00005B
:1033D00030B5C7B005460C4690F8AC3013F0400F3E
:1033E00022D18031124B134A13480290019200916E
:1033F000124A4FF4807106A811F02AFC05940022AD
:1034000004920F4B03930F490291019200930E4BCC
:1034100006AAC821284612F087FA22460B49012045
:10342000FFF71EF847B030BD8031094B094ADBE792
:10343000688103082088030800A30200988103081C
:10344000A9360208B88E0308DC810308E48103086A
:10345000788103088C8103082DE9F041E4B0074628
:103460000C4616462922002159A819F071FA80222B
:10347000009202AB22A9204613F04CFF9DF8883041
:10348000002B00F08F809DF808301BB9002064B03D
:10349000BDE8F08122AA58490120FEF7E1FF42A8C9
:1034A00012F0E8FE02A8FCF7FBFE024602A942A8C1
:1034B00012F0FAFE42A959A812F038FF4F4C00252D
:1034C0002FE029463846FFF783FF62E04C4C80220C
:1034D00022A9204619F083FA12F07EFF494A80188B
:1034E00041F10001C4F8B000C4F8B410282104F17F
:1034F0008000B83C15F016F84EB9B822424B02FBDA
:10350000053242490120FEF7ABFF0120BFE704F17D
:10351000B8013846FFF75CFFEFE70135A9340A2D03
:103520003ED022A92046FCF75BFE0028F5D159A920
:1035300004F18000FCF754FE0028EED1324BB82293
:1035400002FB0533D3F8B080D3F8B44012F044FF47
:1035500080458C41BAD2B82405FB04F4DFF8A8807A
:1035600004EB0805802222A9284619F038FA12F047
:1035700033FF244BC01841F10001C5F8B000C5F875
:10358000B41004F180002821404414F0CBFF002E39
:1035900097D12A461D490120FEF762FF012076E7F8
:1035A000002074E79DF808301BB3194C002510E08B
:1035B000B822154B02FB05330093164B164AC8215F
:1035C000384612F0B1F9304661E70135B8340A2DBA
:1035D0000DD002A92046FCF703FE0028F5D114F80F
:1035E000803C002BF1D0002EE2D101204FE70020DB
:1035F0004DE700204BE700BF00820308582200205F
:10360000E01B002000B84C0A281B00202082030881
:10361000A81B00203C8203087C820308F0B58DB013
:1036200007460C46154608AE2249304612F0EAFE1F
:103630000023009396E80C0094E8030013F010F9BF
:1036400008B3002303930493059306931A4B029344
:103650001A4B079345B1012D0ED002AB184A2146F3
:10366000384613F071FA05E002AB154A2146384698
:1036700013F06AFA0DB0F0BD02AB124A214638468B
:1036800013F062FAF6E70AAD0F49284612F0BAFEC7
:103690000023009395E80C0094E8030013F0E0F891
:1036A0000028E7D1094B0A4A40F29511384612F03A
:1036B0003BF9DFE7EC820308708E0308A0000020CE
:1036C000647E0308747E0308F0820308F88203080E
:1036D0007C820308F8B504460D4616460B4F3B6A3C
:1036E000984702222146384610F025FC04467B69A3
:1036F000A92206FB02F2294600689847204610F0EE
:1037000035FC03490120FEF7ABFEF8BDA000002008
:103710005083030870B586B005460C4604AE1549C3
:10372000304612F06FFE0023009396E80C0094E8F8
:10373000030013F095F8A0B1EB6F18680023029313
:103740000D4B0193012300934FF4FA62002311F013
:103750004BFA0A4B0A4AC821284612F0E5F806B08F
:1037600070BD084B064A40F29511284612F0DCF86D
:10377000F5E700BFF0820308E173010868830308DE
:103780007C820308A08303080B2900D070472DE931
:10379000F04FADF5217D0446904600224146FFF7EB
:1037A0005BFE06464CAD9849284612F02BFE0023DE
:1037B000009395E80C0098E8030013F051F848B125
:1037C000924B934AC821204612F0AEF80DF5217DA8
:1037D000BDE8F08F4EAD8F49284612F013FE00234E
:1037E000009395E80C0008F1080103C913F038F8BC
:1037F00000B10EB350AD8849284612F003FE0023F5
:10380000009395E80C0008F1080103C913F028F8AB
:10381000D0B182490120FEF723FE01224146204615
:10382000FFF71AFE0028D1D17D4B7E4A40F293115A
:10383000204612F079F8C9E77B4B7C4A40F293119D
:10384000204612F071F8C1E752AD7949284612F0CE
:10385000D9FD0023009395E80C0008F1080103C985
:1038600012F0FEFF00285BD072490120FEF7F8FD40
:1038700080252A4600210CA819F06AF82A46002162
:103880002CA819F065F800952CAB2A460CA94046E7
:1038900013F040FD9DF8303093B19DF8B0303BB946
:1038A000654B604A4FF4CA71204612F03DF88DE72F
:1038B000624B5C4A4FF4CA71204612F035F885E736
:1038C0009DF8B030002BEBD05D4E00252CA9304682
:1038D000FCF786FC58B10135B8360A2DF6D1594BA4
:1038E000504A4FF4CA71204612F01EF86EE7B82312
:1038F00003FB05F5544FEE19324654490120FEF7FB
:10390000AFFD002386F8803000200021C6E92C019D
:103910007B554F4B434AC821204612F005F855E726
:1039200054AD4C49284612F06DFD0023009395E8F4
:103930000C0008F1080103C912F092FFD8B1464902
:103940000120FEF78DFD2CA808F046FB329B069364
:10395000319B0593309B04932F9B03932E9B0293E3
:103960002D9B01932C9B00933C4B3D4AC821204644
:1039700011F0DAFF2AE756AD3A49284612F042FD27
:103980000023009395E80C0008F1080103C912F028
:1039900067FF002800F0D38033490120FEF760FD67
:1039A0007AAD3249284612F02DFD0023009395E8A8
:1039B0000C0098E8030012F053FF00285CD02C4D57
:1039C0002B68002201212CA898472B680022022195
:1039D0000DF1B30098479DF8B53005939DF8B430CC
:1039E00004939DF8B33003939DF8B23002939DF891
:1039F000B13001939DF8B03000931E4B094AC821A5
:103A0000204611F091FFE1E600840308A8BE0308F8
:103A100008840308A8840308C0840308CC8403082E
:103A2000E08403087C820308B0840308208803082C
:103A3000108503081C8503083886030834850308AD
:103A4000A81B002004860308281B0020B485030857
:103A5000C8850308B0860308C0860308DC8603080F
:103A6000E08703082488030834880308EC820308ED
:103A7000F42800204C88030878ADB749284612F096
:103A8000C1FC0023009395E80C0098E8030012F0B5
:103A9000E7FE00284BD00CABB04AD8F80412D8F897
:103AA000000210F047FE002839D02CABAC4AD8F801
:103AB0000412D8F8000210F03DFE00282FD0DDE9F6
:103AC0000C01FDF789F8C5B2DDE92C016B1EDBB2F4
:103AD000022B04D8FDF780F8C6B2012E07D9A14BFE
:103AE000A14A4FF4C871204611F01EFF6EE69F4FA9
:103AF0003B68002202210BA898470BAB2B4403F82C
:103B0000016C3B68012202210BA8984701960095A1
:103B1000974B954AC821204611F006FF56E6954B73
:103B2000914A4FF4C871204611F0FEFE4EE6924BCA
:103B30008D4A40F29511204611F0F6FE46E658AD4A
:103B40008E49284612F05EFC0023009395E80C0095
:103B500008F1080103C912F083FE002800F03A8141
:103B600087490120FEF77CFC7EAD8649284612F08D
:103B700049FC0023009395E80C0098E8030012F03C
:103B80006FFE002836D0C62008F04AF90546002806
:103B900001F04381C622002118F0DAFE734B1B6846
:103BA000002211462846984705F1A5073846FCF73C
:103BB00077FBC6B232462A21384618F0C9FE2E4499
:103BC000002386F8A53069786F4B704A002918BF2A
:103BD0001346039705F184020292AA1C01920093F6
:103BE0006B4B614AC821204611F09EFE284608F022
:103BF000B5F9EBE57CAD5849284612F003FC0023EB
:103C0000009395E80C0098E8030012F029FE0028C4
:103C100000F0D880C62008F003F90546002801F01E
:103C20000881C622002118F093FE2CAB594AD8F81F
:103C30000412D8F8000210F0E7FA002819DB6B1C18
:103C4000554A08F5007696E8030010F099FD534AAE
:103C500096E8030013F0C0FC0646D0B117F03CFD17
:103C6000034688B10433032B6ED8DFE803F0655DAB
:103C700055474B4B3C4A4FF4C871204611F054FE57
:103C8000284608F06BF9A1E57F223146A81C18F000
:103C9000A6FE304608F062F9424AD8F80412D8F875
:103CA000000213F099FC064628B12022014605F1D6
:103CB000840018F094FE304608F050F93A4AD8F8DB
:103CC0000412D8F8000213F087FC064628B120221F
:103CD000014605F1A50018F082FE304608F03EF9D5
:103CE00001222A70214B1B680021284698472F4B40
:103CF0001D4AC821204611F017FEC1E72C4B1A4A75
:103D00004FF4C871204611F00FFE304608F026F936
:103D1000284608F023F959E5264B134A4FF4C87199
:103D2000204611F001FEF0E7234B0F4A4FF4C87113
:103D3000204611F0F9FDE8E7204B0B4A4FF4C8711B
:103D4000204611F0F1FDE0E71D4B074A4FF4C87122
:103D5000204611F0E9FDD8E7F082030880880308C7
:103D60008C880308CC8803087C820308F428002090
:103D7000948803080889030844890308988903087C
:103D8000AC890308EC820308F8830308F083030876
:103D9000C8890308108A0308448A0308508A030864
:103DA000148A0308988B0308A48B0308B08B0308BC
:103DB0005C8A0308A08A0308EC8A03082C8B03089A
:103DC000648B0308694B6A4A40F29511204611F052
:103DD000ABFDFBE45AAD6749284612F013FB002304
:103DE000009395E80C0008F1080103C912F038FDB2
:103DF000002800F0DB8060490120FEF731FB84AD34
:103E00005E49284612F0FEFA0023009395E80C0064
:103E100098E8030012F024FD002836D000222C92EE
:103E20002CA9574808F072F92C9D6A1E40F2FE3307
:103E30009A4222D80135284607F0F2FF06460028AC
:103E400001F003802A46002118F082FD01214C4830
:103E500008F098F905462C9A314608F0C1F9284631
:103E600008F0B2F90096474B414AC821204611F0AC
:103E70005BFD304608F072F8A8E4434B3C4A4FF42F
:103E8000FA71204611F050FDA0E482AD3F4928466A
:103E900012F0B8FA0023009395E80C0098E80300AC
:103EA00012F0DEFC002859D02CAB394AD8F80412A5
:103EB000D8F8000210F0A8F9002834DB354AD8F809
:103EC0000412D8F8000213F087FB054600283DD005
:103ED00080AE0146304612F095FA04F11C0296E8D5
:103EE000030016F09BFF002825DB254E304608F026
:103EF000B3F90221304608F045F906462846FCF79A
:103F0000CFF9421C2946304608F076F9304608F0D1
:103F10005BF9214B164AC821204611F005FD2846C1
:103F200008F01CF852E41D4B114A4FF4C8712046AA
:103F300011F0FAFC4AE41A4B0D4A4FF4C8712046BE
:103F400011F0F2FC284608F009F83FE4154B084A46
:103F50004FF4C871204611F0E7FC37E4124B044AD5
:103F600040F29511204611F0DFFC2FE4448903084C
:103F70007C820308EC8B0308FC8B0308EC820308AB
:103F800048810308188C0308448C0308F082030856
:103F9000108A0308788C0308C08C0308148A03086D
:103FA000888C0308148D03085C8D03085CADBF4941
:103FB000284612F027FA0023009395E80C0008F138
:103FC000080103C912F04CFC002800F03881B84900
:103FD0000120FEF745FA7222B6490CA81AF034FA0D
:103FE0001E2007F01DFF074618B11E22002118F001
:103FF000AFFC2E2007F014FF824618B12E220021BC
:1040000018F0A6FC2E2007F00BFF814618B12E22D7
:10401000002118F09DFC4FF4407007F001FF0546A9
:1040200020B14FF44072002118F092FC4FF4C070A0
:1040300007F0F6FE064620B14FF4C072002118F0DA
:1040400087FC002F00F0E380BAF1000F00F0DF8062
:10405000B9F1000F00F0DB80002D00F0D880002EB9
:1040600000F0D5800DF5067B9349584612F0CAF949
:10407000002300939BE80C0098E8030012F0F0FB8B
:10408000002800F0BC8001F09BFB804600284ED049
:1040900090F8AC3013F0200F4FD190F8AD3013F002
:1040A000200F4FF01E0214BF84498549384618F08E
:1040B00096FCDFF83CB208F1080300935B46814AA6
:1040C0002E21484610F0C4FD08F11C0300935B4606
:1040D0007C4A2E21504610F0BBFD2846FCF7E0F844
:1040E000794B1B882B524FF00108DFF808B25FFABA
:1040F00088F3012280212CA802F06AF82CA9284616
:1041000018F02EFC2846FCF7CBF803462A18DBF8FB
:104110000000E8509BF80430137108F10108B8F171
:10412000040FE4D14FF00108DFF8C8B118E01E22F7
:104130006649384618F053FCCFE71E2264493846DA
:1041400018F04DFCB5E72846FCF7AAF803462A18F4
:10415000DBF80000E8509BF80430137108F1010807
:104160005FFA88F3022280212CA802F031F82CA9F2
:10417000284618F0F5FBB8F1030FE4D12846FCF708
:104180008FF8514BB3F8008025F800803046FCF7DB
:1041900087F826F800804FF00108DFF858B10CE0EE
:1041A0003046FCF77DF803463218DBF80000F0508B
:1041B0009BF80430137108F101085FFA88F30222BA
:1041C00080212CA801F0ECFF2CA9304618F0C8FB88
:1041D000B8F1030FE4D13046FCF762F83A4B1B8884
:1041E000335204960395CDF808A0CDF804900097BB
:1041F0000CAB384AC821204611F096FB0EE0364B36
:10420000344A40F29511204611F08EFB06E0334B04
:10421000304A4FF4FA71204611F086FB384607F019
:104220009DFE504607F09AFE484607F097FE284646
:1042300007F094FE304607F091FEFFF7C7BA5EAD77
:104240002749284612F0DEF80023009395E80C0079
:10425000D8F80C10D8F8080012F002FB50B1214930
:104260000120FEF7FDF8002241462046FFF7D6F96F
:10427000FFF7ACBA60AD1C49284612F0C3F8002322
:10428000009395E80C00D8F80C10D8F8080012F04C
:10429000E7FA88B315490120FEF7E2F8012241460A
:1042A0002046FFF7BBF9FFF791BA00BFB08D0308B6
:1042B000C48D03082C980308EC820308EC8D0308D6
:1042C000F48D0308008E0308048E0308ECB903087C
:1042D000E08D03087C82030844890308108E0308DC
:1042E0004C8E03085C8E0308788E03088C8E0308BE
:1042F00019580208088E030862ADC049284612F01A
:1043000081F80023009395E80C00D8F80C10D8F839
:10431000080012F0A5FA002800F04882B8490120F0
:10432000FEF79EF88EADB749284612F06BF80023D1
:10433000009395E80C0098E8030012F091FA002829
:104340006DD18CADB049284612F05CF80023009383
:1043500095E80C0098E8030012F082FA002800F0BB
:1043600004810BABA94AD8F80412D8F800020FF068
:104370004BFF0028C0F2B780A54A08F5007898E8FE
:10438000030013F029F90646A24A98E8030013F047
:1043900023F90546002E00F0D980002800F0D680D1
:1043A0003378002B00F0D2800378002B00F0CE8011
:1043B000DFF86482002731464046FBF711FF0028F2
:1043C00000F09A80013708F1A9080A2FF3D12922B9
:1043D00000210CA818F0BCFA2CA811F04BFF2846BD
:1043E000FBF75EFF024629462CA811F05DFF2CA9C1
:1043F0000CA811F09BFF0023A921874A01FB03F7BA
:10440000D05D002800F0878001330A2BF6D1834B62
:10441000834A4FF4C871204611F086FA9DE04FF4AC
:10442000806007F0FDFC0546F0B14FF4806200218A
:1044300018F08EFAA02007F0F3FC0746002840F0A1
:104440001C8578490320FEF70BF8774B744A4FF42C
:10445000FA71204611F068FA284607F07FFD3846C9
:1044600007F07CFDFFF7B2B9A02007F0D9FC0746A2
:104470000028E6D0A022002118F06AFA002DE0D032
:1044800000F0FFBC3B465246C6F58061A81918F003
:1044900035F8064409F1010908F1A908B9F10A0F34
:1044A00013D098F80030002BF4D043465A46A02190
:1044B000384618F023F80C2EE4D95C4AC6F5806122
:1044C000A81918F01BF80644DCE7594AC6F58061C4
:1044D000A81918F013F80095564B514AC8212046E8
:1044E00011F022FAB8E7544B4D4A4FF4C8712046F8
:1044F00011F01AFAFFF76AB9504B494A4FF4C871E4
:10450000204611F011FA304607F028FD284607F042
:1045100025FDFFF75BB9DFF800817F22314608EB0C
:10452000070018F05CFA07F1800028220CA940442B
:1045300018F055FA0A2241464148FFF7CBF8414BA3
:10454000374AC821204611F0EFF906E03E4B344AC5
:104550004FF4C871204611F0E7F9304607F0FEFC31
:10456000284607F0FBFCFFF731B98AAD37492846EA
:1045700011F048FF0023009395E80C0098E8030031
:1045800012F06EF9002867D188AD3149284611F044
:1045900039FF0023009395E80C0098E8030012F01F
:1045A0005FF9002800F0F980194AD8F80412D8F809
:1045B000000213F011F80746002800F0E2800378AB
:1045C000002B00F0DE8001264FF0A90ADFF84890AA
:1045D0000AFB06F505EB090839464046FBF700FEE5
:1045E000002800F0B58001360A2EF1D1194B0C4A93
:1045F0004FF4C871204611F097F9C9E0AC8E03085A
:10460000C08E0308EC820308F0820308108A0308B6
:10461000608F0308688F030858220020E88F030882
:104620007C820308048F0308388F0308FC8E03087C
:10463000008F0308A8B80308148A0308708F0308C2
:10464000A87C0308AC8F03081C9003085C90030847
:1046500018910308609103080BABA64AD8F804121E
:10466000D8F800020FF0D0FD002822DBA24A08F59E
:10467000007898E8030012F0AFFF07469F4A98E8D9
:10468000030012F0A9FF054627B118B13B780BB122
:104690000378C3B99A4B9B4A4FF4C871204611F076
:1046A00043F9384607F05AFC284607F057FCFFF755
:1046B0008DB8954B934A4FF4C871204611F034F9E8
:1046C00000252F46EDE7292200210CA818F040F91B
:1046D0002CA811F0CFFD2846FBF7E2FD0246294643
:1046E0002CA811F0E1FD2CA90CA811F01FFEDFF899
:1046F0002882002639464046FBF772FD60B101363C
:1047000008F1A9080A2EF5D1804B7E4A4FF4CA71F0
:10471000204611F009F9C4E7A92303FB06F606F1C8
:104720008000DFF8F48128220CA9404418F057F9E2
:104730004644002386F8A8300A2241467448FEF712
:10474000C9FF744B6F4AC821204611F0EDF8A8E765
:1047500080220021404618F0FBF805F180006E4DE4
:1047600029220021284418F0F3F80A222946684833
:10477000FEF7B0FF694B634AC821204611F0D4F818
:1047800006E0674B5F4A4FF4C871204611F0CCF841
:10479000384607F0E3FBFFF719B8624B594A40F27D
:1047A0009511204611F0C0F8FFF710B864AD5E49CE
:1047B000284611F027FE0023009395E80C00D8F856
:1047C0000C10D8F8080012F04BF848B157490120F6
:1047D000FDF746FE41462046FEF79CFFFEF7F6BF7A
:1047E00066AD5349284611F00DFE0023009395E86D
:1047F0000C00D8F80C10D8F8080012F031F850B3BB
:104800004C490120FDF72CFE90AD4B49284611F094
:10481000F9FD0023009395E80C0098E8030012F0DE
:104820001FF878B1454B0393454B0293454B0193D9
:10483000454B0093454B334AC821204611F074F88C
:10484000FEF7C4BF424B2F4A40F29511204611F0AB
:104850006BF8FEF7BBBF68AD3E49284611F0D2FDAC
:104860000023009395E80C00D8F80C10D8F8080045
:1048700011F0F6FF002879D037490120FDF7F0FD4F
:1048800092AD2D49284611F0BDFD0023009395E817
:104890000C0098E8030011F0E3FF10B3FCF7CEFC26
:1048A00010EE105AFCF788FC10EE100AFBF764FEBD
:1048B000CDE908012846FBF75FFECDE90601274B4D
:1048C0000493274B0393274B02931E4B01931E4BDC
:1048D0000093254B0B4AC821204611F025F8FEF71E
:1048E00075BF1B4B074A40F29511204611F01CF88A
:1048F000FEF76CBF108A0308608F0308688F0308F7
:10490000D49003087C820308148A0308A490030847
:10491000A87C030860900308582200202091030817
:10492000B4910308F49103085492030868920308B1
:10493000889203089C920308EC820308887D030890
:104940000893030814930308487E0308BC920308E5
:1049500018930308689303087C93030834940308AE
:104960004894030854940308989303086AADB64921
:10497000284611F047FD0023009395E80C00D8F875
:104980000C10D8F8080011F06BFF00283AD094AD55
:10499000AE49284611F036FD0023009395E80C003F
:1049A00098E8030011F05CFF18B380232CAAA849F3
:1049B00008F1100012F073FCA6492CA8FBF710FCBC
:1049C00060B9A54B0093A54BA54A4146204616F079
:1049D00007FD012006F0CEFBFEF7F8BE9D4B0093CD
:1049E000A04BA14A4FF4C871204610F09DFFFEF77E
:1049F000EDBE9E4B9C4A40F29511204610F094FF6C
:104A0000FEF7E4BE6CAD9A49284611F0FBFC00238A
:104A1000009395E80C00D8F80C10D8F8080011F0B5
:104A20001FFF002800F0938092490120FDF718FD38
:104A300096AD9149284611F0E5FC0023009395E8D6
:104A40000C0098E8030011F00BFF002876D021201D
:104A500007F0E6F9804618B12122002117F078FF0F
:104A60004FF4806007F0DCF90646002800F0018270
:104A70004FF48062002117F06BFF01227F497848D4
:104A80000FF059FA054638B12CA80FF037FFDFF8C0
:104A9000D0914FF4806710E00FF068FA304607F0CD
:104AA0005DFA774B704A4FF4CA71204610F03CFF14
:104AB0003FE031462CA80FF037FFD9F810303A46C6
:104AC00031462868984702460028F2D128460FF060
:104AD0004DFA102007F0A4F90546002800F0C28125
:104AE0000023036043608360C36001462CA80FF07D
:104AF0007FFF05F1FF392127DFF8ACB108EB070A8A
:104B000019F8013F5A463946AAEB070017F0F6FCA0
:104B1000023F012FF4D1304607F020FA284607F073
:104B20001DFACDF80080574B4F4AC821204610F09F
:104B3000FBFE404607F012FAFEF748BE524B4A4AC7
:104B400040F29511204610F0EFFEFEF73FBE6EAD2D
:104B50004E49284611F056FC0023009395E80C00BE
:104B6000D8F80C10D8F8080011F07AFE78B348494C
:104B70000120FDF775FC98AD3449284611F042FC40
:104B80000023009395E80C0098E8030011F068FEFC
:104B9000A0B1334BDB693F493848984728B14146BB
:104BA0002046FEF7B7FDFEF711BE3B4B2E4A4FF4F1
:104BB000FA71204610F0B8FEFEF708BE2B4B2A4AC9
:104BC00040F29511204610F0AFFEFEF7FFBD70AD2C
:104BD0003249284611F016FC0023009395E80C009A
:104BE000D8F80C10D8F8080011F03AFE00285DD073
:104BF0009AAD1649284611F005FC0023009395E86C
:104C00000C0098E8030011F02BFEA0B1144B1B6AB6
:104C10002048984738B1224B134AC821204610F04B
:104C200083FEFEF7D3BD1F4B0F4AC821204610F06C
:104C30007BFEFEF7CBBD0D4B0B4A40F29511204693
:104C400010F072FEFEF7C2BD5C940308F082030808
:104C500030C503087494030890D00300547C030803
:104C6000A0000020849403087C820308A08303082A
:104C7000D0940308E4940308EC8203080095030829
:104C8000EC9703082095030818930308449503083C
:104C900058950308607C030878950308BC950308C1
:104CA000D8950308149603081895030872AD7E4939
:104CB000284611F0A7FB0023009395E80C00D8F8D4
:104CC0000C10D8F8080011F0CBFD30B39CAD77493B
:104CD000284611F097FB0023009395E80C0098E814
:104CE000030011F0BDFD78B1714D724E336A284654
:104CF0009847736A284698476F4B704AC8212046E8
:104D000010F012FEFEF762BD6D4B6C4A40F2951139
:104D1000204610F009FEFEF759BD74AD69492846DA
:104D200011F070FB0023009395E80C00D8F80C10EC
:104D3000D8F8080011F094FD48B1634B00935C4B28
:104D40005C4A4146204616F04BFBFEF73FBD76AD70
:104D50005E49284611F056FB0023009395E80C00AD
:104D6000D8F80C10D8F8080011F07AFD002844D0CB
:104D70009EAD4E49284611F045FB0023009395E86F
:104D80000C0098E8030011F06BFD68B37B230CAABC
:104D90004F4908F5007012F082FA00281BDD0CABB9
:104DA0004C4A80212CA817F0A9FB424B5B6A2CA827
:104DB000984738B1484B414AC821204610F0B4FD0D
:104DC000FEF704BD454B3D4A4FF4FA71204610F002
:104DD000ABFDFEF7FBBC424B384A4FF4C87120468E
:104DE00010F0A2FDFEF7F2BC354B344A40F29511AB
:104DF000204610F099FDFEF7E9BC00232D932E9379
:104E00002F9330932A4B2C932A4B31932CAA414653
:104E1000204616F0CFF8FEF7D9BC324B274A4FF4A4
:104E2000FA71204610F080FD002007F097F8FEF799
:104E3000CDBC2C4B214A4FF4FA71204610F074FD82
:104E4000002007F08BF8FEF7C1BC27490320FDF7CF
:104E500007FB264B194A4FF4FA71204610F064FD07
:104E6000FEF7B4BC304607F079F8002007F076F87A
:104E700017E6002007F072F813E6A022002117F0D1
:104E800067FD1B4B07CB28606960AA601B782B73FA
:104E9000DFF860800C264FF00009DFF85CB0DFF827
:104EA0005CA0FFF7FEBA00BF58960308F082030823
:104EB0004C7C0308A0000020749603087C82030841
:104EC000A0830308BC96030860E31600D896030885
:104ED000F4960308FC960308049703083897030820
:104EE00074970308B0970308048F0308388F0308EA
:104EF000DC8E030858220020EC8E0308A8B80308B3
:104F000010B501220D490E480FF015F880B1044686
:104F10000B4B1B6940F29A620A4900689847204689
:104F20000FF024F808490120FDF79AFA074810BD50
:104F300007490320FDF794FAF8E700BFA87C0308AF
:104F4000A000002058220020BC98030889370108DF
:104F5000A0980308014B1860704700BFF428002098
:104F60001A4B1B6803B1704730B585B01849012052
:104F7000FDF776FA174C40220021204617F0E8FC96
:104F800002AD154B1968284611F03CFA95E803006C
:104F900084E80300114B1968284611F033FA04F134
:104FA000080395E8030083E803003C23638500239E
:104FB00000930B4B22460B4909680B48006814F01C
:104FC00009FB024B186005B030BD00BF1C29002052
:104FD000D898030820290020702900206C2900207F
:104FE0000D53010874290020602900202DE9F04F9D
:104FF0002DED028B83B04D490020FDF731FA4C4B6B
:105000001D6815B14B4B1B7823B903B0BDEC028B67
:10501000BDE8F08F4FF4167006F002FF804620B115
:105020004FF41672002117F093FC802006F0F8FE72
:10503000074618B18022002117F08AFCFCF7FEF821
:10504000F0EE408AFCF7B8F8B0EE408A3A4900200A
:10505000FDF706FA002309228021384601F0B8F84E
:105060003A4636490020FDF7FBF9B0EE680A3449AC
:10507000404601F0FDF8424632490020FDF7F0F9C4
:10508000314E6C463946204611F0BCF906F1180B3A
:1050900094E803008BE803004146204611F0B2F982
:1050A00006F1200A94E803008AE803004FF00009A3
:1050B00086F8289086F82E903146284613F0DAFEBE
:1050C0004B460A228021384601F082F83A461B49B5
:1050D0004846FDF7C5F9B0EE480A1C49404601F0C4
:1050E000C7F8424617494846FDF7BAF939462046FF
:1050F00011F088F994E803008BE80300414620464C
:1051000011F080F994E803008AE8030086F82890FB
:1051100086F82E903146284613F0ACFE404606F045
:105120001DFF384606F01AFF6FE700BFF898030826
:105130001C29002004290020289903084C99030801
:1051400058990308649903082029002070990308DE
:105150002DE9F04F87B081460C46574D2B68002251
:10516000012104A898472B68002202210DF11300A9
:1051700098470322514904A817F0C0FB48B90322FD
:105180004F490DF1130017F0B9FB10B9002C00F0D6
:1051900090804A4B06AA12E90300186099804FF4E8
:1051A000167006F03DFE074620B14FF4167200213E
:1051B00017F0CEFB802006F033FE064618B18022A1
:1051C000002117F0C5FB00254FF0010BDFF8F88038
:1051D00008F1180A6C1CE4B204ABEB5C00932346A4
:1051E0005A464FF41671384600F0B2FF23465A462D
:1051F0008021304600F0ECFF02AC3146204611F031
:1052000001F994E803008AE803003946204611F0CA
:10521000F9F808F1200394E8030083E80300002371
:1052200088F8283088F82E304146484613F022FE90
:105230000135032DCED10DF1120B00244FF0020ADF
:10524000DFF884800134E4B21BF8013F0093234669
:1052500052464FF41671384600F07AFF2346524604
:105260008021304600F0B4FF02AD3146284611F0EF
:10527000C9F895E80300134B83E803003946284634
:1052800011F0C0F808F1200395E8030083E803005B
:10529000002388F8283088F82E304146484613F01D
:1052A000E9FD032CCED1384606F058FE304606F014
:1052B00055FE07B0BDE8F08F00290020F828002037
:1052C000FB280020382900202029002008B5054BA4
:1052D000186810B1044B1B7803B908BD0021FFF713
:1052E00037FFFAE71C2900200429002008B5054BE8
:1052F0001B7803B908BD0121034B1868FFF728FF8D
:10530000F8E700BF042900201C2900202DE9F04FF8
:105310008BB00290102900F0BE8011290CD0092911
:1053200040F02682B4490120FDF79AF80023B34AE1
:105330001360B34A13701BE2B24B1B68022B6ADC8A
:10534000B1490120FDF78CF8AC4B029A1A60AC4BC6
:105350001B78002B40F00C82AC4C134608330093B2
:10536000AB4BAC4A282120680FF072FC2468204621
:10537000FAF796FF0146204600F04AFBA64C04F1DE
:10538000400B2546A54FA64E0394DDF808A095F8DE
:10539000008095F804904B4642468021386800F022
:1053A0005DFBA04C4B4642464FF41671206800F05E
:1053B0002FFC0DF110083968404611F023F898E8E9
:1053C0000300994B83E803002168404611F01AF866
:1053D00006F1200398E8030083E80300012486F81F
:1053E000284086F82E403146504613F043FD3A6877
:1053F0008E492046FDF734F808355D45C7D1039C3A
:105400007E4D01212868FFF7A3FED5F800A0844F48
:1054100007F118092CE0864B40F20F128549032052
:1054200010F034FB844810F02BFA89E72B79022224
:105430008021304600F0B4FE4FF0010887F8288044
:1054400004AD3146284610F0DDFF95E8030089E8F9
:1054500003003946504613F0BCFC324677494046BB
:10546000FCF7FEFF304606F079FD08345C450ED0AF
:1054700025462368022BF8D1802006F0D1FC064691
:105480000028D3D08022002117F062FACEE75C4BCF
:1054900001221A706CE1144669490120FCF7E0FF13
:1054A0000023099327686668A568E468ADB1A7B1D1
:1054B00006B10CBB63490320FCF7D2FF514B1B68BC
:1054C000002B40F35081604BC8225A49012010F054
:1054D000DDFA5E4810F0D4F945E14A4B1B68002B19
:1054E00040F34181584BC2225249012010F0CEFABC
:1054F000574810F0C5F936E104F10108404606F0BE
:105500008FFC814618B14246002117F021FA06F1BE
:10551000010A504606F084FC804618B1524600212C
:1055200017F016FA22462946484617F058FA32462E
:105530003946404617F053FA464B1B6800220221B9
:1055400007A89847079BADF820301B0C8DF8223038
:105550004149404617F07CFA002800F0F58009AA7E
:105560003E4917F023F8012809D0264B1B68002B71
:1055700000F3E0803A490320FCF772FFEDE0214B95
:105580001B68012B1BDCCDF80090099B4246354976
:105590000120FCF765FF099D6B1E022B1BD8022C16
:1055A00074D0032C00F09680164B1B68002B00F380
:1055B000B6804A462C490320FCF752FFCDE0224B2F
:1055C000DB221C49022010F061FA42460999274863
:1055D00010F056F9D7E70B4B1B68002B4ADC099BF0
:1055E000032223491046FCF73BFF484606F0B6FC71
:1055F000404606F0B3FCB6E0C89C03081C29002016
:10560000042900203C010020D89903081829002013
:105610004D580208008E0308C800002068290020A9
:10562000202900206429002038290020F09903084F
:105630008099030894990308C0990308149A0308F1
:10564000309A0308989A0308549A0308C09A0308EA
:10565000749A030800290020EC9A0308F49A0308BE
:10566000609C03082C9B0308EC9B0308009B030829
:105670006C9B0308454BE0224549012010F006FAD7
:10568000099A0321434810F0FBF8A8E70222424997
:10569000484617F092F9002886D105F128030DEB52
:1056A0000305012305F8093C3C4B1B68012B06DC74
:1056B0003B4B1B680122022108A898474DE0334B61
:1056C000ED223349022010F0E1F90999354810F034
:1056D000D7F8EDE703223449484617F06EF9002861
:1056E0007FF462AF05F128030DEB0305002305F8F5
:1056F000093C2A4B1B68012B06DC294B1B68012245
:10570000022108A8984728E0204BF12220490220D6
:1057100010F0BCF90999254810F0B2F8EDE71B4BE1
:10572000F5221B49012010F0B1F94946204810F03C
:10573000A7F83EE7154BFA221549012010F0A6F90B
:105740001C4810F09DF815E7144B1B68002B12DC69
:10575000424619490320FCF783FE484606F0FEFB4B
:10576000404606F0FBFB0021144B1868FFF7F0FCE5
:105770000BB0BDE8F08F054BFE220549012010F06B
:1057800085F941460C4810F07BF8E1E7549A03088C
:10579000949903086C9B0308BC9B03083C01002000
:1057A00000290020C09B0308D49B0308D89B030852
:1057B000EC9B0308289C0308989C03081C290020E4
:1057C000014B1868704700BF1C2900202DE9F043E9
:1057D00087B006460C4617461D46802006F020FB83
:1057E000804618B18022002117F0B2F8574BC3F859
:1057F0000080212006F014FB804618B121220021F0
:1058000017F0A6F8524BC3F80080212006F008FBE1
:10581000804618B12122002117F09AF84D4BC3F8A9
:105820000080802006F0FCFA804618B1802200211A
:1058300017F08EF8484BC3F800804FF4167006F04E
:10584000EFFA804620B14FF41672002117F080F86D
:10585000424BC3F80080282006F0E2FA804618B1D7
:105860002822002117F074F83D4BC3F800800F9AEE
:105870003C4B1A60DFF8D4803946D8F8000018F0A5
:10588000B1FD334F2946386818F0ACFDDFF8C490FD
:105890000E99D9F8000018F0A5FD334D2E600621B1
:1058A000204600F079F8314E04AC3968204610F0FB
:1058B000A9FD94E8030086E80300D9F8001020460B
:1058C00010F0A0FD06F1080394E8030083E803004C
:1058D0003C2373853B68D8F8002025490120FCF75C
:1058E000BFFD00240294234B01930326009642F24D
:1058F0001072002328680FF077F91F4B186002948C
:105900001E4B01930127009743F698220023286835
:105910000FF06AF91A4B186002941A4B0193009722
:105920004FF4FA72002328680FF05EF9164B1860E6
:105930000294164B01930096154A002328680FF035
:1059400053F9144B186007B0BDE8F08374290020A8
:10595000702900206C29002068290020642900207B
:10596000182900200029002060290020202900207B
:10597000E09C0308614F010814290020ED52010842
:1059800010290020CD5201080C290020ED4F0108FC
:10599000C0D40100082900202DE9F84306468946B5
:1059A000184B186808B106F0D9FA4FEA49040134D7
:1059B000204606F035FA0546F0B12246002116F0E1
:1059C000C7FF104B1D60B9F1000F0FD035464E4494
:1059D0000024DFF838801F46386815F8012B41464F
:1059E000204416F0C1FD0234B542F5D1064BC3F890
:1059F00000900020BDE8F883024B00221A604FF0AF
:105A0000FF30F7E7802900207C2900200C9D030847
:105A1000F8B505460C46104B186808B106F09EFA1A
:105A2000671C384606F0FCF9064670B13A4600217C
:105A300016F08EFF084F3E6022462946304616F08B
:105A4000CEFF3B6800201855F8BD034B00221A60BA
:105A50004FF0FF30F8E700BF7829002000B587B08D
:105A60004FF0000C80F800C0013A092A00F2AD8026
:105A7000DFE812F00A001C004B006B005B008B009B
:105A80009B007B002B003B000493514B0393514B35
:105A90001B680293504B0193504B0093504B514A5B
:105AA00016F02CFD002007B05DF804FB04934E4B6C
:105AB0000393484A12680292474A01920093484B66
:105AC000484A16F01BFD0020EDE70493474B039373
:105AD000404B1B680293404B0193454B0093404B56
