:020000040801F1
:1000000000000220D52D0108D92B0108E12B0108A1
:10001000E92B0108F12B0108F92B01080000000071
:10002000000000000000000000000000E1EB0108FB
:10003000012C01080000000031EE01080DB9010893
:10004000252E0108252E0108252E0108252E010840
:10005000252E0108252E0108252E0108252E010830
:10006000252E0108252E0108252E0108252E010820
:10007000252E0108252E0108252E0108252E010810
:10008000252E0108252E0108252E0108000000005C
:10009000000000000000000000000000252E010804
:1000A000112C0108252E0108252E0108252E0108F6
:1000B000252E0108252E0108252E0108252E0108D0
:1000C000252E0108252E0108252E0108252E0108C0
:1000D000252E0108252E0108252E0108000000000C
:1000E000252E0108252E0108252E010800000000FC
:1000F000000000000000000000000000252E0108A4
:1001000000000000252E0108252E0108252E0108DB
:1001100000000000000000000000000000000000DF
:10012000252E0108252E0108252E0108252E01085F
:10013000252E010800000000000000000000000063
:10014000000000000000000000000000252E010853
:10015000252E0108252E0108252E0108252E01082F
:10016000252E0108252E01080000000000000000D7
:10017000000000000000000000000000000000007F
:1001800000000000252E0108000000000000000013
:08019000252E0108252E0108AF
:1001A00010B5054C237833B9044B13B10448AFF3B1
:1001B00000800123237010BD600A002000000000B1
:1001C000443A040808B5034B1BB103490348AFF395
:1001D000008008BD00000000640A0020443A0408C2
:1001E00010F8012B11F8013B012A28BF9A42F7D0E1
:1001F000D01A70470000000000000000000000005E
:1002000001F0FF01102A2BDB10F0070F08D010F8C7
:10021000013B013A8B422DD010F0070F42B3F6D1CB
:10022000F0B441EA012141EA014122F007047FF0E4
:1002300000070023F0E80256083C85EA010586EA3B
:10024000010685FA47F5A3FA87F586FA47F6A5FA77
:1002500087F68EB9EED1F0BC01F0FF0102F0070283
:1002600032B110F8013B013A83EA010313B1F8D12E
:100270000020704701387047002D06BF354603380F
:10028000073815F0010F07D1013015F4807F02BF48
:10029000013015F4C03F0130F0BC0138704700BF99
:1002A000034613F8012B002AFBD1181A01387047B6
:1002B00081F0004102E000BF83F0004330B54FEA17
:1002C00041044FEA430594EA050F08BF90EA020F84
:1002D0001FBF54EA000C55EA020C7FEA645C7FEA17
:1002E000655C00F0E2804FEA5454D4EB5555B8BF3A
:1002F0006D420CDD2C4480EA020281EA030382EAAB
:10030000000083EA010180EA020281EA0303362D3C
:1003100088BF30BD11F0004F4FEA01314FF4801C0F
:100320004CEA113102D0404261EB410113F0004F21
:100330004FEA03334CEA133302D0524263EB4303D8
:1003400094EA050F00F0A780A4F10104D5F1200E76
:100350000DDB02FA0EFC22FA05F2801841F10001D1
:1003600003FA0EF2801843FA05F359410EE0A5F1A5
:1003700020050EF1200E012A03FA0EFC28BF4CF0D6
:10038000020C43FA05F3C01851EBE37101F000458C
:1003900007D54FF0000EDCF1000C7EEB00006EEB99
:1003A0000101B1F5801F1BD3B1F5001F0CD3490823
:1003B0005FEA30004FEA3C0C04F101044FEA44527A
:1003C00012F5800F80F09A80BCF1004F08BF5FEA01
:1003D000500C50F1000041EB045141EA050130BDE1
:1003E0005FEA4C0C404141EB0101013C28BFB1F5F3
:1003F000801FE9D291F0000F04BF01460020B1FA3E
:1004000081F308BF2033A3F10B03B3F120020CDA10
:100410000C3208DD02F1140CC2F10C0201FA0CF0EE
:1004200021FA02F10CE002F11402D8BFC2F1200C53
:1004300001FA02F120FA0CFCDCBF41EA0C01904009
:10044000E41AA2BF01EB0451294330BD6FEA040452
:100450001F3C1CDA0C340EDC04F11404C4F120023D
:1004600020FA04F001FA02F340EA030021FA04F34F
:1004700045EA030130BDC4F10C04C4F1200220FAA6
:1004800002F001FA04F340EA0300294630BD21FAE4
:1004900004F0294630BD94F0000F83F4801306BFAA
:1004A00081F480110134013D4EE77FEA645C18BF9E
:1004B0007FEA655C29D094EA050F08BF90EA020F35
:1004C00005D054EA000C04BF1946104630BD91EA2D
:1004D000030F1EBF0021002030BD5FEA545C05D130
:1004E0004000494128BF41F0004130BD14F580046F
:1004F0003CBF01F5801130BD01F0004545F0FE41E3
:1005000041F470014FF0000030BD7FEA645C1ABF17
:10051000194610467FEA655C1CBF0B46024650EA4E
:10052000013406BF52EA033591EA030F41F400217A
:1005300030BD00BF90F0000F04BF0021704730B500
:100540004FF4806404F132044FF000054FF00001D5
:1005500050E700BF90F0000F04BF0021704730B596
:100560004FF4806404F1320410F0004548BF40426B
:100570004FF000013EE700BF42004FEAE2014FEAC0
:1005800031014FEA02701FBF12F07F4393F07F4F9B
:1005900081F06051704732F07F4208BF704793F09E
:1005A0007F4F04BF41F40021704730B54FF46074B1
:1005B00001F0004521F000411CE700BF50EA0102B4
:1005C00008BF704730B54FF000050AE050EA01025D
:1005D00008BF704730B511F0004502D5404261EBCD
:1005E00041014FF4806404F132045FEA915C3FF40E
:1005F000D8AE4FF003025FEADC0C18BF03325FEAAB
:10060000DC0C18BF033202EBDC02C2F1200300FA5B
:1006100003FC20FA02F001FA03FE40EA0E0021FA80
:1006200002F11444BDE600BF70B54FF0FF0C4CF46E
:10063000E06C1CEA11541DBF1CEA135594EA0C0F20
:1006400095EA0C0F00F0DEF82C4481EA030621EA5B
:100650004C5123EA4C5350EA013518BF52EA033596
:1006600041F4801143F4801338D0A0FB02CE4FF048
:100670000005E1FB02E506F00042E0FB03E54FF078
:100680000006E1FB03569CF0000F18BF4EF0010E70
:10069000A4F1FF04B6F5007F64F5407404D25FEA6C
:1006A0004E0E6D4146EB060642EAC62141EA55511F
:1006B0004FEAC52040EA5E504FEACE2EB4F1FD0C61
:1006C00088BFBCF5E06F1ED8BEF1004F08BF5FEADF
:1006D000500E50F1000041EB045170BD06F0004691
:1006E00046EA010140EA020081EA0301B4EB5C043E
:1006F000C2BFD4EB0C0541EA045170BD41F4801136
:100700004FF0000E013C00F3AB8014F1360FDEBF5A
:10071000002001F0004170BDC4F10004203C35DA36
:100720000C341BDC04F11404C4F1200500FA05F3B9
:1007300020FA04F001FA05F240EA020001F000425A
:1007400021F0004110EBD37021FA04F642EB0601D0
:100750005EEA430E08BF20EAD37070BDC4F10C04FA
:10076000C4F1200500FA04F320FA05F001FA04F2BE
:1007700040EA020001F0004110EBD37041F10001AA
:100780005EEA430E08BF20EAD37070BDC4F12005B5
:1007900000FA05F24EEA020E20FA04F301FA05F21D
:1007A00043EA020321FA04F001F0004121FA04F2C5
:1007B00020EA020000EBD3705EEA430E08BF20EA95
:1007C000D37070BD94F0000F0FD101F000464000CF
:1007D00041EB010111F4801F08BF013CF7D041EA51
:1007E000060195F0000F18BF704703F00046520055
:1007F00043EB030313F4801F08BF013DF7D043EA26
:100800000603704794EA0C0F0CEA135518BF95EADB
:100810000C0F0CD050EA410618BF52EA4306D1D162
:1008200081EA030101F000414FF0000070BD50EA81
:10083000410606BF1046194652EA430619D094EA0B
:100840000C0F02D150EA013613D195EA0C0F05D1F5
:1008500052EA03361CBF104619460AD181EA030149
:1008600001F0004141F0FE4141F470014FF0000001
:1008700070BD41F0FE4141F4780170BD70B54FF09C
:10088000FF0C4CF4E06C1CEA11541DBF1CEA13551C
:1008900094EA0C0F95EA0C0F00F0A7F8A4EB0504FE
:1008A00081EA030E52EA03354FEA013100F08880F5
:1008B0004FEA03334FF0805545EA131343EA1263BE
:1008C0004FEA022245EA111545EA10654FEA002673
:1008D0000EF000419D4208BF964244F1FD0404F52C
:1008E000407402D25B084FEA3202B61A65EB030588
:1008F0005B084FEA32024FF480104FF4002CB6EB45
:10090000020E75EB030E22BFB61A754640EA0C00C4
:100910005B084FEA3202B6EB020E75EB030E22BF04
:10092000B61A754640EA5C005B084FEA3202B6EB45
:10093000020E75EB030E22BFB61A754640EA9C0004
:100940005B084FEA3202B6EB020E75EB030E22BFD4
:10095000B61A754640EADC0055EA060E18D04FEA92
:10096000051545EA16754FEA06164FEAC30343EA32
:1009700052734FEAC2025FEA1C1CC0D111F4801FFF
:100980000BD141EA00014FF000004FF0004CB6E7F8
:1009900011F4801F04BF01430020B4F1FD0C88BF97
:1009A000BCF5E06F3FF6AFAEB5EB030C04BFB6EBA2
:1009B000020C5FEA500C50F1000041EB045170BD95
:1009C0000EF0004E4EEA113114EB5C04C2BFD4EBC2
:1009D0000C0541EA045170BD41F480114FF0000E46
:1009E000013C90E645EA060E8DE60CEA135594EAC2
:1009F0000C0F08BF95EA0C0F3FF43BAF94EA0C0FC5
:100A00000AD150EA01347FF434AF95EA0C0F7FF439
:100A100025AF104619462CE795EA0C0F06D152EA8D
:100A200003353FF4FDAE1046194622E750EA410671
:100A300018BF52EA43067FF4C5AE50EA41047FF482
:100A40000DAF52EA43057FF4EBAE12E74FF0FF3CE7
:100A500006E000BF4FF0010C02E000BF4FF0010CB8
:100A60004DF804CD4FEA410C7FEA6C5C4FEA430C31
:100A700018BF7FEA6C5C1BD001B050EA410C0CBF80
:100A800052EA430C91EA030F02BF90EA020F0020E2
:100A9000704710F1000F91EA030F58BF994208BF49
:100AA00090422CBFD8176FEAE37040F00100704706
:100AB0004FEA410C7FEA6C5C02D150EA013C07D15D
:100AC0004FEA430C7FEA6C5CD6D152EA033CD3D0A8
:100AD0005DF8040B704700BF8446104662468C46A2
:100AE0001946634600E000BF01B5FFF7B7FF0028D5
:100AF00048BF10F1000F01BD4DF808EDFFF7F4FFFE
:100B00000CBF012000205DF808FB00BF4DF808ED88
:100B1000FFF7EAFF34BF012000205DF808FB00BFAB
:100B20004DF808EDFFF7E0FF94BF012000205DF8CD
:100B300008FB00BF4DF808EDFFF7CEFF94BF012082
:100B400000205DF808FB00BF4DF808EDFFF7C4FF7B
:100B500034BF012000205DF808FB00BF4FEA410CC4
:100B60007FEA6C5C02D150EA013C0AD14FEA430CA7
:100B70007FEA6C5C02D152EA033C02D14FF00000E4
:100B800070474FF0010070474FEA410212F5001222
:100B900015D211D56FF47873B3EB625212D94FEAC4
:100BA000C12343F0004343EA505311F0004F23FAAE
:100BB00002F018BF404270474FF00000704750EA03
:100BC000013005D111F0004008BF6FF000407047C0
:100BD0004FF00000704700BF4A0011D212F500121A
:100BE00011D20DD56FF47873B3EB62520ED44FEA85
:100BF000C12343F0004343EA505323FA02F0704705
:100C00004FF00000704750EA013002D14FF0FF3042
:100C100070474FF0000070474FEA4102B2F1E043E5
:100C200024BFB3F5001CDCF1FE5C0DD901F0004CD3
:100C30004FEAC0024CEA5070B2F1004F40EB830023
:100C400008BF20F00100704711F0804F21D113F14F
:100C50003872BCBF01F00040704741F480114FEA88
:100C60005252C2F11802C2F1200C10FA0CF320FA11
:100C700002F018BF40F001004FEAC1234FEAD3232E
:100C800003FA0CFC40EA0C0023FA02F34FEA430398
:100C9000CCE77FEA625307D150EA01331EBF4FF021
:100CA000FE4040F44000704701F0004040F0FE403C
:100CB00040F40000704700BF7BB972B90029BEBF85
:100CC00000204FF0004106E008BF00281CBF6FF075
:100CD00000414FF0FF3000F0FFB9ADF1080C6DE9B5
:100CE00004CE002909DB002B1ADB00F097F8DDF8B1
:100CF00004E0DDE9022304B07047404261EB4101AA
:100D0000002B1BDB00F08AF8DDF804E0DDE90223AC
:100D100004B0404261EB4101524263EB4303704730
:100D2000524263EB430300F079F8DDF804E0DDE9BB
:100D3000022304B0404261EB41017047524263EB31
:100D4000430300F06BF8DDF804E0DDE9022304B0B2
:100D5000524263EB4303704753B94AB9002908BFB5
:100D600000281CBF4FF0FF314FF0FF3000F0B4B946
:100D7000ADF1080C6DE904CE00F050F8DDF804E0A8
:100D8000DDE9022304B07047430803F05533C01A6D
:100D9000830803F0333300F03330184400EB1010B5
:100DA00000F00F3000EB002000EB0040000E704719
:100DB00038B50022002304460D46FFF7A7FE28B9E8
:100DC00020462946BDE8384000F00AB8204605F123
:100DD000004100F005F8404261EB410138BD00BF21
:100DE000D0B50C4B002206460F46FFF71DFCFFF75F
:100DF000F3FE0446FFF79EFB074B0022FFF714FCAF
:100E000002460B4630463946FFF756FAFFF7E4FE36
:100E10002146D0BD0000F03D0000F0412DE9F04733
:100E2000089D0C46002B4ED194468C458646B2FA5E
:100E300082F262D94AB1C2F12003914020FA03F351
:100E40000CFA02FC194300FA02FE4FEA1C471FFA93
:100E50008CF6B1FBF7F44FEA1E4307FB141143EA8B
:100E6000014304FB06F199420AD91CEB030304F188
:100E7000FF3080F01281994240F20F81023C6344BE
:100E8000591A1FFA8EF3B1FBF7F007FB101143EA72
:100E9000014300FB06F69E420AD91CEB030300F156
:100EA000FF3180F0FC809E4240F2F98063440238BA
:100EB0009B1B40EA044000211DB1D3400022C5E93C
:100EC0000032BDE8F0878B4205D90DB1C5E90001BC
:100ED00000210846F5E7B3FA83F1002946D1A34281
:100EE00002D39042C0F0F080861A64EB0303012025
:100EF000002DE6D0C5E90063E3E7002A40F09080CA
:100F0000A1EB0C044FEA1C481FFA8CF70121B4FB3B
:100F1000F8F64FEA1E4308FB164443EA044307FB76
:100F200006F0984208D91CEB030306F1FF3402D205
:100F3000984200F2CD8026461C1A1FFA8EF3B4FBAD
:100F4000F8F008FB104443EA044300FB07F79F4214
:100F500008D91CEB030300F1FF3402D29F4200F2D8
:100F6000B0802046DB1B40EA0640A5E7C1F1200621
:100F70008B4022FA06F71F4320FA06FC04FA01F31D
:100F800043EA0C03F44000FA01F8380C4FEA134925
:100F9000B4FBF0FE1FFA87FC00FB1E4449EA044440
:100FA0000EFB0CF9A14502FA01F20AD93C190EF127
:100FB000FF3A80F08480A14540F28180AEF1020EBC
:100FC0003C44A4EB09041FFA83F9B4FBF0F300FBE3
:100FD000134449EA044403FB0CFCA44507D93C191B
:100FE00003F1FF3067D2A44565D9023B3C4443EA94
:100FF0000E40A0FB0293A4EB0C049C42CE469C4600
:1010000051D34ED055B1B8EB0E0364EB0C0404FA87
:1010100006F6CB401E43CC40C5E90064002150E7F2
:10102000C2F1200320FA03F10CFA02FC24FA03F3C4
:1010300094400C434FEA1C4800FA02FE1FFA8CF75A
:10104000B3FBF8F008FB1031230C43EA014300FB2B
:1010500007F1994208D91CEB030300F1FF362CD2AB
:1010600099422AD9023863445B1AA4B2B3FBF8F15F
:1010700008FB113344EA034401FB07F3A34208D9F8
:101080001CEB040401F1FF3613D2A34211D902393B
:101090006444E41A41EA004139E70446F0E60846B0
:1010A00006E7C845AED2B9EB020E63EB070C013878
:1010B000A8E73146EDE7034699E73046D4E7D64640
:1010C0007FE7634402384DE70646234608460FE7AC
:1010D000023E634430E700BF704700BF80B500AFF9
:1010E00033480AF025FD0346324A136032480AF0BD
:1010F0001FFD0346314A1360314A032101200AF0E3
:1011000025FE03462F4A13602F4A032101200AF0CF
:101110001DFE03462D4A13602D4A032101200AF0CB
:1011200015FE03462B4A13602B4AC62101200AF004
:101130000DFE0346294A1360294A4FF48171142099
:101140000AF004FE0346274A1360274A0021274875
:101150000AF040FC0346264A1360264A002126482E
:101160000AF038FC0346254A1360254A0021254829
:101170000AF030FC0346244A1360244A0021244824
:101180000AF028FC0346234A1360234A002123481F
:101190000AF020FC0346224A1360224A002122481A
:1011A0000AF018FC0346214A136000BF80BD00BF4F
:1011B000FC8D0408B00A00200C8E0408B40A00203C
:1011C000848D04089C0A00209C8D0408A00A00203D
:1011D000B48D0408A40A0020CC8D0408A80A0020BD
:1011E000E48D0408AC0A0020AC8C0408311201081C
:1011F000840A0020D08C040825150108880A0020E4
:10120000F48C0408ED1601088C0A0020188D0408DF
:1012100021190108900A00203C8D0408DD1B0108FB
:10122000940A0020608D0408991D0108980A002086
:1012300090B5F1B002AF07F5DC73A3F5DA7318606F
:1012400007F5DC73A3F59873A94A1C4613460FCB28
:1012500084E80F0007F5DC73A3F5D87318468023E4
:101260001A46002129F070FA07F5DC73A3F5D8734C
:1012700040221A7007F5DC73A3F5D87322225A7046
:101280009C4B1A7807F5DC73A3F5D8739A709A4BC8
:101290001A7807F5DC73A3F5D873DA70974B1A78D0
:1012A00007F5DC73A3F5D8731A71954B1A7807F517
:1012B000DC73A3F5D8735A7107F5DC73A3F5D87303
:1012C0000122DA7707F5DC73A3F5D873012283F8DE
:1012D000202007F5DC73A3F5D8738A4A5A6207F514
:1012E000DC73A3F5D87307F188029A62864A07F582
:1012F000B0731360844A07F10803536003E04FF4AE
:10130000FA700AF0FAFB0EF047FA034683F0010385
:10131000DBB2002BF3D107F5B07318461FF0E0FCE9
:101320007A4B03221A6005F07DF8C7F8B00113E08C
:1013300000F042FD4FF4FA700AF0DFFB00F048FDC8
:101340004FF4FA600AF0D9FB07F1080207F5B07311
:101350001146184622F04CFA07F5DC73A3F5D87352
:10136000B3F84430002BE3D007F1080306211846F8
:1013700005F098FD664805F065F8D7F8B02107F547
:10138000B070614B63491BF0C3FE08E007F5B07312
:101390000121184622F040FD01200AF0AEFB07F5BE
:1013A000DC73A3F5D87393F87C30032BEED1564B46
:1013B0005B689B68D9B2544B5B689B681B0AD8B2C8
:1013C000514B5B689B681B0CDBB24F4A52689268BA
:1013D000120E0192009303460A464F49012001F084
:1013E00093F807F1980300220021184600F094FDBD
:1013F00007F5DC73A3F590735B78002B18D0474991
:10140000012001F081F807F1980303F1840407F14A
:1014100098039A1C07F1080107F5B0703C4B019343
:1014200007F19803A5330093234605F045FC03E03C
:101430003B49012001F068F807F5B073184606F043
:101440002BFA07F1080207F5B0731146184606F0AB
:101450007DFC07F5B073184602F076FB0CF0C6FA77
:10146000C7F8B4010CF0C2FAC7F8AC01D7F8AC2148
:10147000D7F8B431D31AC7F8A831D7F8AC31C7F8C8
:10148000B431D7F8A82107F5B0731146184622F0F9
:10149000C3FC18E000F090FC64200AF02EFB00F082
:1014A00097FC40F6B8300AF028FB07F5DC73A3F58B
:1014B000D8735B6A1B6807F108021046984741F62B
:1014C00058300AF01AFB07F5DC73A3F5D8735B6A92
:1014D000DB6807F1080210469847034683F00103D2
:1014E000DBB2002BD6D101200AF007FBBAE700BF20
:1014F000543B0408107AFF1F127AFF1F147AFF1F53
:10150000187AFF1F380300207C0A002030030020D7
:10151000191F0108F43A0408083B0408243B040896
:101520003C3B040890B591B000AF7860694A07F180
:10153000380392E80300186004331980664A07F103
:101540002C0307CA83E80700644A07F1240392E8E2
:1015500003001860043319805F4A07F1180307CAB3
:1015600083E807005E4B1B6818460AF021FD03461E
:10157000002B41D05A4B186807F10C0100230022C0
:101580000AF0B8FC002387F83F3031E097F83F308D
:1015900040333B4413F8343C002B12D097F83F30D3
:1015A0009B0040333B4453F8140C97F83F305B00EA
:1015B00040333B4433F8083C0122194607F050FB06
:1015C00011E097F83F309B0040333B4453F8140C34
:1015D00097F83F305B0040333B4433F8083C00222F
:1015E000194607F03DFB97F83F30013387F83F304D
:1015F00097F83F30022BC9D9002387F83F301FE00E
:1016000097F83F309B0040333B4453F8142C97F835
:101610003F305B0040333B4433F8083C97F83F4091
:101620001946104607F004FB03461A4604F140032E
:101630003B4403F8302C97F83F30013387F83F30B4
:1016400097F83F30022BDBD9264B1B6818460AF06F
:10165000CFFC244B186807F11001002300220AF088
:10166000E9FB002387F83F301FE097F83F309B00ED
:1016700040333B4453F8282C97F83F305B0040330D
:101680003B4433F81C3C97F83F401946104607F09E
:10169000CFFA03461A4604F140033B4403F82C2CCE
:1016A00097F83F30013387F83F3097F83F30022BEF
:1016B000DBD90D4B1B6818460AF09AFC0A4B1868D8
:1016C00007F11401002300220AF0B4FB01200AF004
:1016D00014FA47E7643B04086C3B0408783B0408B1
:1016E000A40A0020A00A00209C0A0020F0B58FB0B8
:1016F00004AF78604FF47A700AF0FFF909F028FE21
:1017000064200AF0FAF9012387F82330002387F8D0
:1017100022300021012009F07BFF002009F000FFAA
:101720000122734973480AF007F801227049724890
:101730000AF002F8012387F8233097F822300B33A0
:1017400087F8223097F822309BB21946012009F021
:101750005FFF01226649694809F0EEFF012387F81F
:10176000233097F822300B3387F8223097F8223055
:101770009BB21946012009F04BFF01225C496048E9
:1017800009F0DAFF012387F8233097F822300B3372
:1017900087F8223097F822309BB21946012009F0D1
:1017A00037FF584B5B681B781D46564B5B685B7870
:1017B0001E46544B5B689B781A46524B5B68DB783D
:1017C0001946504B5B681B791C464E4B5B685B7936
:1017D00007F10C00039302940191009233462A46CC
:1017E000494928F0EFFB07F10C0301224049184654
:1017F00009F0A2FF09F066FE40F6B8300BF0A4FF36
:1018000000237B62012387F82330002387F82230EE
:101810000021012009F0FCFE002009F081FE0122D8
:1018200033493A4809F088FF364B5B689B68D9B268
:10183000344B5B689B681B0ADCB2324B5B689B686D
:101840001B0CDBB22F4A52689268120E07F10C0093
:101850000192009323460A462D4928F0B3FB07F175
:101860000C0301222249184609F066FF012387F87C
:1018700023300A2387F822300A21012009F0C8FE0C
:1018800001221B49234809F057FF7B6A01337B6221
:1018900007F10C037A6A2049184628F093FB07F1F8
:1018A0000C0301221249184609F046FF09F00AFE0E
:1018B0000EE01A4807F032FB4FF47A700BF044FF49
:1018C00000F022FD4FF47A700BF03EFF09F040FD6E
:1018D0004FF47A7301227821104807F04DFC03463B
:1018E000002BE6D14FF47A700AF007F98AE700BFBF
:1018F00014010020803B04088C3B0408983B04083A
:10190000A43B04087C0A0020AC3B0408CC3B040840
:10191000D03B0408E03B0408E43B0408B80A00207C
:10192000B0B5BEB000AF78600023C7F8E830002340
:10193000C7F8F030002387F8F730934B934A944967
:10194000944806F067FA944994480DF031FF034635
:10195000002B01DA06F0FFFE91480DF009FF9148D7
:101960000DF0F2FE90480DF0EFFE8E480DF000FFF6
:101970008E480DF0FDFE8E480DF0FAFE8D480DF0FC
:10198000F7FE8D480DF0F4FE07F1E803002219463A
:101990008A480DF081FD0346002B1DD001218748A8
:1019A0000DF018FEC7F8F00007F12003C622194613
:1019B000D7F8F0000DF05CFED7F8F0000DF044FE13
:1019C000002387F820307E4B186807F1200102239E
:1019D00000220AF015FE0EE007F12003C6220021C6
:1019E000184628F0B1FE764B186807F12001022353
:1019F00000220AF005FE07F1E803002219467148AB
:101A00000DF04AFD0346002B4DD10023C7F8EC3002
:101A100040F29A600DF0D2FA0346C7F8EC30D7F8DE
:101A2000EC30002B04D16849032000F06DFD36E056
:101A30006649012000F068FDD7F8EC30644A106870
:101A4000186092889A80634B07F108041D460FCDF9
:101A50000FC495E80300206004342170D7F8EC30FF
:101A600080331D4607F108040FCC28606960AA6026
:101A7000EB602068286123792B75022151480DF015
:101A8000A9FDC7F8F00040F29A62D7F8EC10D7F839
:101A9000F0000DF005FED7F8F0000DF0D5FDD7F8F9
:101AA000EC000DF059FB464B1B6807F120010022AA
:101AB00018460BF037F997F82030002B23D03F4819
:101AC0000DF042FE02213D480DF084FDC7F8F00004
:101AD000D7F8F030002B16D007F12003C6221946A4
:101AE000D7F8F0000DF0DCFDD7F8F0000DF0ACFDFC
:101AF000002387F82030324B186807F120010223B9
:101B000000220AF07DFD4FF48071334807F090F811
:101B10000346002B30D197F8F730013387F8F730C0
:101B2000012202212C4807F09BF8642009F0E5FF10
:101B300000220221284807F093F897F8F730082B85
:101B40001DD101220221244807F08AF802E0012079
:101B500009F0D3FF4FF480711F4807F069F803467E
:101B6000002BF4D04FF47A7009F0C7FF15480DF040
:101B7000EBFD06F0F0FD02E0002387F8F7304FF4AC
:101B80007A7009F0BAFF8EE7891E0108AD1E0108C0
:101B9000711E0108591E0108F91E0108D51E010811
:101BA000E83B0408F03B0408FC3B04080C3C040838
:101BB000183C0408203C0408283C0408303C040875
:101BC000A80A0020443C0408543C0408803C040853
:101BD000B83C0408C03C040800040240F0B5D5B08D
:101BE00006AF07F59C73A3F59A7318604FF4FA6378
:101BF000C7F834310023C7F830315D4800F062FC8B
:101C0000012000F071FC5B49012000F07DFC4FF4E5
:101C1000FA6009F072FF584B1B6818460AF0C8F9C1
:101C20000346002B20D0544B186807F10C01002309
:101C300000220AF05FF9022150480DF0CBFCC7F8F2
:101C4000300107F59C73A3F5967393F801311A469A
:101C500007F10C0301331946D7F830010DF020FDD0
:101C6000D7F830010DF0F0FC4FF4FA7009F045FFA1
:101C7000D7F83431B3F5FA6F73D107F596730022B4
:101C800019463E480DF008FCD7F82C314CF2503282
:101C900093420AD93A480DF057FD394937480DF0BB
:101CA0003DFD3849012000F02FFC0023C7F83431F6
:101CB00007F5887318460DF071FBD7F81051D7F867
:101CC0001461D7F81831D7F81C21D7F82011D7F8AC
:101CD0002401D7F8284104940390029101920093C3
:101CE00033462A462849012000F00EFC274B5B684A
:101CF0009B68D9B2254B5B689B681B0AD8B2234B03
:101D00005B689B681B0CDBB2204A52689268120E1B
:101D10000192009303460A461D49012000F0F4FB9E
:101D20001A4B5B681B781C46184B5B685B781D463A
:101D3000164B5B689B781A46144B5B68DB78194638
:101D4000124B5B681B791846104B5B685B790393F9
:101D50000290019100922B4622460E49012000F08C
:101D6000D3FBD7F834310133C7F8343153E700BF20
:101D7000D51F0108D83C0408AC0A0020EC3C04083C
:101D8000FC3C04080C3D0408203D04087C0A0020AB
:101D9000083B0408B43D040880B582B000AF786009
:101DA000044807F0B4FD4FF4FA7009F0A6FE00BF36
:101DB000F6E700BF0C0B002080B500AF00224FF407
:101DC0008071024806F04CFF00BF80BD0000024059
:101DD00080B500AF01224FF48071024806F040FF49
:101DE00000BF80BD0000024080B582B000AF7860C7
:101DF00000224FF48051034806F032FF00BF08373D
:101E0000BD4680BD0004024080B582B000AF78605E
:101E100001224FF48051034806F022FF00BF08372B
:101E2000BD4680BD0004024080B586B002AF786038
:101E30000B46FB7007F10F02F91C4FF0FF330093C4
:101E40000123044808F024FDFB7B18461037BD46EB
:101E500080BD00BF740B002080B500AF00224FF49E
:101E60000041024806F0FCFE00BF80BD00000240B9
:101E700080B500AF01224FF40041024806F0F0FEA9
:101E800000BF80BD0000024080B582B000AF0346B5
:101E9000FB71F91D4FF0FF330122034808F09BFA54
:101EA00000BF0837BD4680BD1C0B002080B582B046
:101EB00000AF78600B467B807A884FF0FF337968FB
:101EC000034808F0CCFB034618460837BD4680BDE2
:101ED0001C0B002080B582B000AF7860054B1B68FA
:101EE0004FF0FF31184609F0A9FE00BF0837BD4684
:101EF00080BD00BFB40A002080B582B000AF78601A
:101F0000044B1B68184609F0E4FE00BF0837BD46C5
:101F100080BD00BFB40A002080B586B000AF7860F5
:101F20000B46FB701346BB70FB78022B2BD0022BA9
:101F300044DC002B02D0012B18D03FE07B68FB6013
:101F4000BB78002B07D11F4B1B680022F96818468D
:101F50000AF0E8FE2FE0BB78012B2CD1194B186852
:101F600002230022F9680AF04BFB24E07B683B6106
:101F7000BB78002B21D1144B1B680022396918460D
:101F80000AF0D0FE19E07B687B61BB78002B07D19B
:101F90000E4B1B680022796918460AF0C3FE0DE05B
:101FA000BB78012B0AD10A4B1868022300227969F9
:101FB0000AF026FB02E000BF00E000BF00BF1837B8
:101FC000BD4680BDA80A00209C0A0020A00A00206F
:101FD000A40A002084B080B500AF07F1080C8CE89B
:101FE0000F00074B18680023002207F1080109F0D1
:101FF00021FF00BFBD46BDE8804004B0704700BF70
:10200000AC0A002080B586B000AF78600B467B80BC
:1020100013463B800023FB75B7F90230002B24DD0B
:102020007A883B881344042B1FDC7B88013B7B8030
:1020300007F10C03002201211846FFF76DFF7B8892
:102040003B610DE03B6999B207F10C023B69134417
:102050001B780122786801F0C1FA3B6901333B61CA
:102060003B883A699A42EDDB01E00123FB75FB7D79
:1020700018461837BD4680BD80B588B000AFF860FF
:10208000084611461A4603467B810B463B811346A0
:10209000FB710023FB75B7F90A30002B61DD7A89EB
:1020A0003B891344042B5CDCFB79002B36D0012BDD
:1020B00055D17B89013B7B8107F11003002202216E
:1020C0001846FFF729FF7B89FB6118E0FB699BB28B
:1020D00001221946F86801F0EDFA0346BB750122AA
:1020E0000021F86801F0E6FA0346194607F11002EC
:1020F000FB6913440A461A70FB690133FB613A8994
:102100007B891344FA699A42E0DB07F1100301224C
:1021100002211846FFF700FF002323E07B89013BE3
:102120007B8107F11003002202211846FFF7F4FE1D
:102130007B89BB610DE0BB6999B207F11002BB69F5
:1021400013441B780122F86801F048FABB69013397
:10215000BB613B89BA699A42EDDB002302E00123AF
:1021600000E0012318462037BD4680BD80B483B00F
:1021700000AF78600B467B8013463B8001231846F6
:102180000C37BD465DF8047B704780B485B000AF66
:10219000F860084611461A4603467B810B463B8190
:1021A0001346FB71012318461437BD465DF8047BC6
:1021B0007047000080B588B000AF07F10C03002223
:1021C0001A605A609A60DA601A610023BB604B4B58
:1021D0001B6B4A4A43F080031363484B1B6B03F0AD
:1021E0008003BB60BB6800237B60444B1B6B434A8E
:1021F00043F001031363414B1B6B03F001037B604E
:102200007B6800233B603D4B1B6B3C4A43F0020361
:1022100013633A4B1B6B03F002033B603B680022E5
:102220004FF4F071364806F01BFD002207213548B7
:1022300006F016FD01224FF48051324806F010FDE1
:1022400001224FF400412E4806F00AFD0723FB60EF
:1022500000233B6102237B6107F10C0319462848E8
:1022600006F07EFAE023FB6001233B6100237B61E3
:102270000023BB6107F10C031946214806F070FAF0
:102280000723FB6001233B6100237B610023BB61CB
:1022900007F10C0319461B4806F062FA4FF480530D
:1022A000FB6001233B6100237B610223BB6107F1DB
:1022B0000C031946134806F053FA4FF40143FB6030
:1022C00001233B6100237B610223BB6107F10C0307
:1022D00019460B4806F044FA4FF48073FB60002364
:1022E0003B6100237B6107F10C031946054806F0AA
:1022F00037FA00BF2037BD4680BD00BF003802401E
:10230000000002400004024080B500AF124B134AA7
:102310001A60114B124A5A600F4B00229A600E4B02
:102320000022DA600C4B4FF480421A610A4B002203
:102330005A61094B00229A61074B0022DA61064B71
:1023400000221A62044806F0A5FC0346002B01D0C7
:1023500000F0B6FA00BF80BDB80A0020005400406B
:10236000400D030080B58AB000AF786007F1140318
:1023700000221A605A609A60DA601A617B681B68F2
:10238000194A93422BD100233B61184B1B6B174A10
:1023900043F002031363154B1B6B03F002033B6115
:1023A0003B69C0237B611223BB610123FB610323D3
:1023B0003B6204237B6207F1140319460C4806F0C4
:1023C000CFF90023FB60094B1B6C084A43F4001350
:1023D0001364064B1B6C03F40013FB60FB6800BF27
:1023E0002837BD4680BD00BF005400400038024081
:1023F0000004024080B582B000AF78607B681B6843
:102400000A4A93420DD10A4B1B6C094A23F400136C
:1024100013644021074806F027FB8021054806F099
:1024200023FB00BF0837BD4680BD00BF00540040FD
:10243000003802400004024080B500AF094B0A4A50
:102440001A60084B03225A60064B40F6FF729A60EE
:10245000044807F01AFA0346002B01D000F030FAC6
:1024600000BF80BD0C0B00200030004080B584B060
:1024700000AF786039607B683A6802FB03F3184666
:102480000CF09CFD0346FB60FB68002B08D03B680A
:102490007A6802FB03F31A460021F86828F054F921
:1024A000FB6818461037BD4680BD84B090B400AFBD
:1024B00007F1080484E80F0000BFBD4690BC04B0DB
:1024C0007047000080B483B000AF78607B68002B59
:1024D00002D0044A7B68136000BF0C37BD465DF82C
:1024E000047B70471000002080B483B000AF034627
:1024F000FB71044AFB79137000BF0C37BD465DF8D1
:10250000047B7047180B00200EB4B0B5ADF5277DE5
:102510003EAF024607F5D073A3F299131A70002359
:10252000C7F89C31874B1B7807F5D072A2F299123D
:1025300012789A42C0F0FC8001214FF48070FFF7BE
:1025400095FFC7F89C01D7F89C31002B00F0F28072
:1025500007F180034FF481720021184628F0F4F847
:1025600007F5D073A3F5907307F5D072A2F2991214
:1025700012781A7023F026FC02460B4610461946C4
:10258000FEF71CF802460B46C7E964234FF0000231
:102590006D4BD7E96401FEF771F902460B46104610
:1025A0001946FEF705FC02460B46C7E91C2307F156
:1025B0004C0207F170031146184628F05BF907F149
:1025C0004C0307F10C00614A402128F065FF0346E7
:1025D000C7F88C31D7E96401FEF7D6FA03465C4AA6
:1025E00082FB03129111DA178A1A4FF47A7101FBF8
:1025F00002F29B1AC7F88831D7F88C3107F10C0228
:10260000D018D7F88C31C3F14001D7F88831514A3E
:1026100027F070FB0246D7F88C311344C7F88C3191
:10262000D7F88C315A1CC7F88C2107F5D072A2F567
:10263000CA722021D154D7F88C315A1CC7F88C218A
:1026400007F5D072A2F5CA720021D154D7F88C31A7
:102650000133C7F88C3107F5DC7207F5D073A3F5A9
:1026600092731A6007F5D073A3F5927307F1800295
:10267000501C1B68D7F8B421FD2127F003FEC7F8D2
:10268000840107F5D073A3F590731B781A46324B7B
:1026900053F8223007F10C0107F180020132019258
:1026A00000930B462D4A4FF48071D7F89C0127F018
:1026B00021FBD7F88431002B10DBD7F88431F52BC0
:1026C0000CDCD7F89C01FDF7EBFD0346DAB207F509
:1026D000D073A3F5907383F8012106E007F5D0735A
:1026E000A3F59073F62283F8012107F180030133EB
:1026F0004FF48072D7F89C11184628F06CF8184BEC
:102700001B68002B0FD0164B1D6807F5D073A3F57F
:102710009074684604F11003F222194629F050FA29
:1027200094E80F00A847D7F89C010CF015FD02E0D3
:1027300000BF00E000BF07F5D277BD46BDE8B0405E
:1027400003B07047180B002000408F40FC3D040888
:10275000D34D6210103E040800000020183E04080B
:102760001000002080B582B000AF72B600BF124BDF
:10277000124A9A6062B600BF114B7B6002E07B6830
:10278000013B7B607B68002BF9DC05F085FE00F0E7
:1027900019F8FFF70FFD00F0CFF8FFF7B5FD00F0D7
:1027A00095F8FFF749FE09F0CBF8FEF797FC09F022
:1027B000EBF800BFFDE700BF00ED00E000000108FE
:1027C00040420F0080B594B000AF07F120033022E3
:1027D0000021184627F0B8FF07F10C0300221A6009
:1027E0005A609A60DA601A610023BB60294B1B6C47
:1027F000284A43F080531364264B1B6C03F080532C
:10280000BB60BB6800237B60234B1B68224A43F4F8
:1028100040431360204B1B6803F440437B607B689C
:102820000A233B620123FB6210233B6301237B638A
:102830000223BB634FF48003FB6304233B646423E4
:102840007B640223BB640423FB6407F12003184666
:1028500007F06EF80346002B01D000F031F80F238B
:10286000FB6002233B6100237B614FF48053BB611B
:102870000023FB6107F10C030321184607F0D0FA8F
:102880000346002B01D000F01BF800BF5037BD46B7
:1028900080BD00BF003802400070004080B582B0AB
:1028A00000AF78607B681B68044A934201D105F051
:1028B00015FE00BF0837BD4680BD00BF0040014087
:1028C00080B400AF72B600BF00BFFDE780B500AFB7
:1028D000174B184A1A60164B4FF482725A60144B09
:1028E00000229A60124B0022DA60114B00221A611A
:1028F0000F4B00225A610E4B4FF400729A610C4B41
:102900000822DA610A4B00221A62094B00225A623D
:10291000074B00229A62064B0A22DA62044807F04B
:10292000D1FC0346002B01D0FFF7CAFF00BF80BDDA
:102930001C0B00200030014080B500AF174B184A37
:102940001A60164B4FF482725A60144B00229A6040
:10295000124B0022DA60114B00221A610F4B002249
:102960005A610E4B4FF400729A610C4B0022DA61EF
:102970000A4B00221A62094B00225A62074B0022BE
:102980009A62064B0A22DA62044807F09BFC03466F
:10299000002B01D0FFF794FF00BF80BD740B002017
:1029A0000038004080B58CB000AF786007F11C03A0
:1029B00000221A605A609A60DA601A617B681B68AC
:1029C000324A93422CD10023BB61314B5B6C304ABD
:1029D00043F4805353642E4B5B6C03F48053BB6110
:1029E000BB6900237B612A4B1B6B294A43F002031E
:1029F0001363274B1B6B03F002037B617B69382356
:102A0000FB6102233B6200237B620323BB6205233D
:102A1000FB6207F11C0319461E4805F0A1FE31E0D8
:102A20007B681B681C4A93422CD100233B61184BE6
:102A30001B6C174A43F480431364154B1B6C03F45F
:102A400080433B613B690023FB60114B1B6B104AC9
:102A500043F0020313630E4B1B6B03F00203FB6096
:102A6000FB684FF46043FB6102233B6200237B62FF
:102A70000323BB620523FB6207F11C0319460548CB
:102A800005F06EFE00BF3037BD4680BD003001400E
:102A900000380240000402400038004080B582B097
:102AA00000AF00237B60124B5B6C114A43F4804300
:102AB00053640F4B5B6C03F480437B607B680023A3
:102AC0003B600B4B1B6C0A4A43F080531364084B6A
:102AD0001B6C03F080533B603B6800220F216FF0BA
:102AE000010005F00EFE00BF0837BD4680BD00BFE7
:102AF0000038024080B58CB000AF78600023BB6224
:102B000000237B620023BB602E4B5B6C2D4A43F499
:102B1000803353642B4B5B6C03F48033BB60BB6826
:102B200007F10C0207F110031146184607F098FB55
:102B300007F082FBB862BB6A234AA2FB03239B0C0B
:102B4000013B7B62214B224A1A60204B40F2E73264
:102B5000DA601E4A7B6A53601C4B00221A611B4BD1
:102B600000229A60194B00229A61184808F07CF9FB
:102B7000034687F82F3097F82F30002B1BD11348CE
:102B800008F0CCF9034687F82F3097F82F30002B48
:102B900011D1182005F0D1FD7B680F2B08D8002239
:102BA0007968182005F0ADFD0A4A7B68136002E0E1
:102BB000012387F82F3097F82F3018463037BD465D
:102BC00080BD00BF0038024083DE1B43CC0B0020D9
:102BD000004001400C01002080B400AF00BFFDE7C1
:102BE00080B400AF00BFFDE780B400AF00BFFDE7D9
:102BF00080B400AF00BFFDE780B400AF00BFFDE7C9
:102C000080B400AF00BFBD465DF8047B7047000094
:102C100080B500AF024808F0E3F900BF80BD00BFF7
:102C2000CC0B002080B400AF01231846BD465DF8F0
:102C3000047B704780B582B000AF7860396028F0BF
:102C400087FF034616221A604FF0FF3318460837F5
:102C5000BD4680BD80B582B000AF78604FF0FF31D7
:102C60007868FFF7E7FF00BFFDE780B586B000AFEB
:102C7000F860B9607A6000237B610AE0AFF30080FE
:102C80000146BB685A1CBA60CAB21A707B6901332C
:102C90007B617A697B689A42F0DB7B68184618375B
:102CA000BD4680BD80B586B000AFF860B9607A607F
:102CB00000237B6109E0BB685A1CBA601B78184688
:102CC000AFF300807B6901337B617A697B689A424C
:102CD000F1DB7B6818461837BD4680BD80B483B0F1
:102CE00000AF78604FF0FF3318460C37BD465DF8F3
:102CF000047B704780B483B000AF786039603B6874
:102D00004FF400525A60002318460C37BD465DF858
:102D1000047B704780B483B000AF7860012318460D
:102D20000C37BD465DF8047B704780B485B000AFBA
:102D3000F860B9607A60002318461437BD465DF824
:102D4000047B704780B586B000AF7860144A154B9D
:102D5000D31A7B617B693B61134B1B68002B02D14B
:102D6000114B124A1A60104B1A687B6813443A6977
:102D70009A4207D228F0ECFE03460C221A604FF06C
:102D8000FF3309E0084B1B68FB60074B1A687B6840
:102D90001344054A1360FB6818461837BD4680BDCA
:102DA0000000022000080000180C002008A40120E8
:102DB00080B400AF064BD3F88830054A43F4700363
:102DC000C2F8883000BFBD465DF8047B704700BF85
:102DD00000ED00E0DFF834D0FFF7EAFF0C480D49C2
:102DE0000D4A002302E0D458C4500433C4188C4266
:102DF000F9D30A4A0A4C002301E013600432A242CC
:102E0000FBD328F0B3FEFFF7ADFC704700000220B3
:102E100000000020600A00207CA60408600A002050
:102E200004A40120FEE780B586B000AF7860396069
:102E30000023BB753B681B88052B6AD17B68013377
:102E40001B781B02BB827B6802331B781A46BB8A45
:102E50001343BB82BB8A0133BB827B6803331B787D
:102E60001B027B827B6804331B781A467B8A1343E0
:102E70007B827B8A002B49D07B8AB3F5FA6F45D2DF
:102E80007B68FB603B6800221A80FB685A1CFA6072
:102E900001221A703B681B8801339AB23B681A8082
:102EA0007B8A03F00703002B06D07B8ADB089BB2EA
:102EB000DBB20133FB7503E07B8ADB089BB2FB7559
:102EC000FB685A1CFA60FA7D1A703B681B88013354
:102ED0009AB23B681A807A8AB98A0023F868FFF7A9
:102EE000CBF80346FB72FB7A002B06D0FB7A184620
:102EF00000F01AFC0346BB750DE03B681A88FB7DA9
:102F00009BB213449AB23B681A8004E00323BB755A
:102F100001E00323BB75BB7D18461837BD4680BD55
:102F200080B584B000AF786039600023FB733B68E4
:102F30001B88052B3FD17B6801331B781B02BB81AB
:102F40007B6802331B781A46BB891343BB81BB895C
:102F50000133BB817B6804331B78002B28D17B684D
:102F600003331B78FF2B04D07B6803331B78002BC3
:102F70001ED100237B727B6803331B78FF2B02D1A9
:102F800001233B7201E000233B72B98907F108007D
:102F900001230122FFF770F80346FB72FB7A002B36
:102FA0000BD0FB7A184600F0BFFB0346FB7304E02E
:102FB0000323FB7301E00323FB73FB7B18461037ED
:102FC000BD4680BD80B584B000AF78603960002315
:102FD000BB733B681B88052B52D97B6801331B7878
:102FE0001B02BB817B6802331B781A46BB891343E3
:102FF000BB81BB890133BB817B6803331B781B0218
:103000007B817B6804331B781A467B8913437B8161
:103010007B685B797B727B8903F00703002B06D00A
:103020007B89DB089BB2DBB20133FB7303E07B8956
:10303000DB089BB2FB737B89002B1ED07B89B3F529
:10304000F66F1AD8FA7B7B7A9A4216D17B68981D64
:103050007A89B9890123FFF70FF803463B723B7A5F
:10306000002B06D03B7A184600F05EFB0346BB738C
:1030700008E03B6805221A8004E00323BB7301E0EB
:103080000323BB73BB7B18461037BD4680BD80B59C
:1030900086B000AF786039600023BB753B681B8841
:1030A000052B6AD17B6801331B781B02BB827B68CE
:1030B00002331B781A46BB8A1343BB82BB8A013397
:1030C000BB827B6803331B781B027B827B680433E3
:1030D0001B781A467B8A13437B827B8A002B49D05C
:1030E0007B8AB3F5FA6F45D27B68FB603B680022B0
:1030F0001A80FB685A1CFA6002221A703B681B880F
:1031000001339AB23B681A807B8A03F00703002BD5
:1031100006D07B8ADB089BB2DBB20133FB7503E090
:103120007B8ADB089BB2FB75FB685A1CFA60FA7D50
:103130001A703B681B8801339AB23B681A807A8AFE
:10314000BB8A1946F868FEF75DFF0346FB72FB7AFF
:10315000002B06D0FB7A184600F0E6FA0346BB7552
:103160000DE03B681A88FB7D9BB213449AB23B6822
:103170001A8004E00323BB7501E00323BB75BB7D0C
:1031800018461837BD4680BD80B584B000AF786062
:1031900039600023FB733B681B88052B21D17B68BA
:1031A00001331B781B02BB817B6802331B781A46F4
:1031B000BB891343BB81BB890133BB817B68D81CAE
:1031C000B98901230122FEF7E0FF0346FB72FB7A77
:1031D000002B08D0FB7A184600F0A6FA0346FB73D2
:1031E00001E00323FB73FB7B18461037BD4680BD0F
:1031F00080B584B000AF786039600023FB733B6812
:103200001B88052B44D97B6801331B781B02BB81CB
:103210007B6802331B781A46BB891343BB81BB8989
:103220000133BB817B6803331B781B027B817B6886
:1032300004331B781A467B8913437B817B685B7957
:103240007B727B89002B20D07B89782B1DD87B89D2
:10325000DBB25B00DBB27A7A9A4216D17B68981DAA
:103260007A89B9890123FEF790FF03463B723B7AC6
:10327000002B06D03B7A184600F056FA0346FB7343
:1032800008E03B6805221A8004E00323FB7301E099
:103290000323FB73FB7B18461037BD4680BD80B50A
:1032A00086B000AF786039600023FB753B681B88EF
:1032B000052B5AD17B6801331B781B02BB827B68CC
:1032C00002331B781A46BB8A1343BB82BB8A013385
:1032D000BB827B6803331B781B027B827B680433D1
:1032E0001B787B827B8A002B3CD07B8A7D2B39D854
:1032F0007B68FB603B6800221A80FB685A1CFA60FE
:1033000003221A703B681B8801339AB23B681A800B
:103310007B8ADAB2FB68591CF9605200D2B21A708B
:103320003B681B8801339AB23B681A807A8AB98A53
:103330000023F868FEF729FF0346FB72FB7A002B97
:1033400006D0FB7A184600F0EFF90346FB750EE055
:103350003B681A887B8A5B009BB213449AB23B6835
:103360001A8004E00323FB7501E00323FB75FB7D5A
:1033700018461837BD4680BD80B586B000AF78606E
:1033800039600023FB753B681B88092B40F2958050
:103390007B6801331B781B02BB827B6802331B787E
:1033A0001A46BB8A1343BB82BB8A0133BB827B684C
:1033B00003331B781B027B827B6804331B781A461D
:1033C0007B8A13437B827B6805331B781B023B821D
:1033D0007B6806331B781A463B8A13433B823B8A41
:1033E00001333B827B6807331B781B02FB817B68C0
:1033F00008331B781A46FB891343FB817B685B7A91
:103400007B737B8A002B56D07B8A7D2B53D8FB891C
:10341000002B50D0FB89792B4DD8FB895A007B7B40
:103420009A4248D17B6803F10A00FA89398A01235C
:10343000FEF7ABFE0346BB75BB7D002B31D17B682D
:10344000BB603B6800221A80BB685A1CBA60172216
:103450001A703B681B8801339AB23B681A807B8ADA
:10346000DAB2BB68591CB9605200D2B21A703B681C
:103470001B8801339AB23B681A807A8AB98A002382
:10348000B868FEF782FE0346BB75BB7D002B08D1F2
:103490003B681A887B8A5B009BB213449AB23B68F4
:1034A0001A80BB7D002B08D0BB7D184600F03CF98C
:1034B0000346FB7501E00323FB75FB7D18461837B7
:1034C000BD4680BD80B586B000AF7860396000230E
:1034D000FB753B681B88052B5DD17B6801331B782E
:1034E0001B02BB827B6802331B781A46BB8A1343DC
:1034F000BB82BB8A0133BB827B6803331B781B0210
:103500007B827B6804331B781A467B8A13437B8259
:103510007B8A002B3CD07B8A7C2B39D87B68FB6074
:103520003B6800221A80FB685A1CFA6004221A7059
:103530003B681B8801339AB23B681A807B8ADAB2F7
:10354000FB68591CF9605200D2B21A703B681B88A4
:1035500001339AB23B681A807A8ABB8A1946F868A6
:10356000FEF704FE0346FB72FB7A002B06D0FB7AC3
:10357000184600F0D9F80346FB750EE03B681A8840
:103580007B8A5B009BB213449AB23B681A8004E0CA
:103590000323FB7501E00323FB75FB7D18461837F9
:1035A000BD4680BD80B582B000AF786039607B6871
:1035B0000133084A12880849184628F001FB054BD8
:1035C0001B8801339AB23B681A80002318460837DB
:1035D000BD4680BD3C0C00201C0C002080B586B090
:1035E00000AF7860084611461A4603467B800B46BA
:1035F0007B7013463B703B78FB827B78082B05D9A8
:10360000294B2A4A37212A4824F04CFB7B88DB08C7
:10361000BB82BB8ADB009BB27A88D31A7B82FA8A90
:103620007B8A02FA03F3FB827B78012202FA03F31E
:103630009BB2013B3B823A8A7988BB8ADB00CB1A7A
:1036400002FA03F33B82BB8A7A6813441B78FB813E
:10365000BB8A01337A6813441B781B021AB2B7F98C
:103660000E3013431BB2FB81B7F91030DB431AB2A3
:10367000B7F90E3013401AB2B7F9163013431BB224
:10368000FB81BB8A7A681344FA89D2B21A70FB892B
:103690001B0A99B2BB8A01337A681344CAB21A7002
:1036A00000BF1837BD4680BD243E0408348E040890
:1036B000343E040880B485B000AF78600B467B8050
:1036C00013467B707B88DB08FB81FB89DB009BB2A8
:1036D0007A88D31ABB817B78012202FA03F39BB26A
:1036E000013B7B81FB897A6813441B783B81FB8912
:1036F00001337A6813441B781B021AB2B7F90830F9
:1037000013431BB23B813A89BB8942FA03F33B81E5
:103710003A897B8913403B813B89DBB218461437D9
:10372000BD465DF8047B704780B485B000AF0346AA
:10373000FB71FB79072B0CD0072B0DDC002B02D083
:10374000012B03D008E00023FB7308E00223FB7386
:1037500005E00623FB7302E00423FB7300BFFB7B41
:1037600018461437BD465DF8047B704780B584B0B9
:1037700000AF0346FB800023FB73FB88184600F074
:103780009EFA0346FB73FB7B002B03D0144B0122F4
:103790001A701FE000F012F90346002B02D1032338
:1037A000FB7317E00F4B104A1A60104B104A1A6057
:1037B000104B114A1A60114B114A1A60114B00222A
:1037C0001A60114BFF221A70104B02221A70044B20
:1037D00001221A70FB7B18461037BD4680BD00BF22
:1037E0001C000020440C0020E93C0108480C00208B
:1037F000F73C01084C0C0020033D0108400C002060
:10380000733D0108500C00203E0C00203F0C0020AE
:1038100080B582B000AF0023FB71094B1B78012BF0
:1038200006D1084B1B689847054B00221A7001E02F
:103830000623FB71FB7918460837BD4680BD00BFE3
:103840001C000020440C002090B583B000AF002382
:10385000FB70504B1B78002B01D0062395E0BB1C5E
:10386000184600F0CFF80346012B40F08D80BB785E
:10387000032B00F2898001A252F823F08939010854
:103880008D380108BF38010889390108424B1B688F
:10389000424A4349434898470346FB70FB78002B54
:1038A0006FD1404B1A78404B1B789A4203D03D4B66
:1038B0001B78002B65D1022000F08EF861E0384BB8
:1038C0001B681A78394B1A70394B01221A70002381
:1038D0007B601FE0374A7B6812F83330002B1DD025
:1038E000344A7B6812F83320304B1B789A420ED151
:1038F000304A7B68DB0013445B68294A1268274919
:103900001046984703461A46294B1A7007E07B6811
:1039100001337B607B680F2BDCDD00E000BF214BB7
:103920001B78002B2FD0224B1B78002B1DD01B4B5C
:1039300000221A801D4B1A78194B1968174B1B88E7
:10394000581C84B2154804800B4462F07F02D2B246
:103950001A70134B1A68114B1B88591C88B20F49F7
:1039600008801344124A12781A70134B1B680E4ACF
:1039700010780B4A1168094A128898470346FB7071
:1039800001E000BF00E000BF002318460C37BD4631
:1039900090BD00BF1C0000204C0C00205C0C0020DF
:1039A000580C0020540C00203E0C00205E0C00201F
:1039B0005F0C002020000020400C002080B400AFED
:1039C000044B00221A7001231846BD465DF8047BA3
:1039D000704700BF610C002080B483B000AF034685
:1039E000FB71064B01221A70054AFB791370012303
:1039F00018460C37BD465DF8047B7047610C00200B
:103A0000600C002080B485B000AF78600023FB73A9
:103A1000094B1B78002B08D0084B1A787B681A706A
:103A2000054B00221A700123FB73FB7B18461437E9
:103A3000BD465DF8047B7047610C0020600C0020DF
:103A400080B584B000AF786039607B683A6802FB6B
:103A500003F318460BF0B2FAF860FB68002B08D0AD
:103A60003B687A6802FB03F31A460021F86826F0E7
:103A70006BFEFB6818461037BD4680BD80B586B02A
:103A800000AFF860B9607A60BB68072B4DD1FB6866
:103A90001C3327491A4603C923F0EEFC0346012BC9
:103AA00007D0FA6892F8AD3043F0200382F8AD30C9
:103AB0003BE0FB6838337B617B699B689AB21D4BA6
:103AC0001A801C4B1B88002B28D07B691B68194A65
:103AD00012881946184828F073F80120FFF77CFF78
:103AE000FFF7B2FEFFF7B0FE144B1B78002B0DD092
:103AF000124B00221A70124B1B881A461149F868A3
:103B000020F05AFA7B6900229A600EE0FA6892F877
:103B1000AD3043F0200382F8AD3006E0FA6892F849
:103B2000AD3043F0200382F8AD301837BD4680BD7C
:103B30006C1C002064140020640C00206A1C00200F
:103B4000681C00206814002080B586B000AF786043
:103B50007B687B612F4B196800232F4A78691CF022
:103B6000F5FF0020FFF702FEFFF752FE0023BB60C7
:103B700007F108030022194628480BF08DFCBB68AA
:103B8000002B1FD0BB68B3F5806F1BD2BB6801331D
:103B900001211846FFF754FF0346214A1360012113
:103BA0001E480BF017FD38611D4B1B68BA6819469B
:103BB00038690BF05DFDBB68194A536038690BF03A
:103BC00043FD22E001210B20FFF73AFF0346144A90
:103BD0001360134B0B225A60114B1B68104A52683A
:103BE0001049184626F0F7FD02210C480BF0F2FCB4
:103BF000F8600B4B1B680A4A52681946F8680BF0CC
:103C00004FFDF8680BF020FD00BF00BF1837BD4620
:103C100080BD00BFA00000207D3A0108903E04084E
:103C20006C1C0020A43E040880B483B000AF03469F
:103C3000FB80012318460C37BD465DF8047B7047B6
:103C400080B483B000AF786039607B68074A1A603F
:103C5000074B1A883B681A80054B00221A80012303
:103C600018460C37BD465DF8047B7047640C002095
:103C70006414002080B582B000AF78600B467B8072
:103C80007B881A467968074827F09AFF064A7B889E
:103C90001380064B01221A70044B1B781846083714
:103CA000BD4680BD68140020681C00206A1C0020EE
:103CB00080B400AF00BFBD465DF8047B704780B59F
:103CC00084B000AF0346FB800023FB73FB881846DB
:103CD000FFF7AAFF0346002B01D10323FB73FB7BF5
:103CE00018461037BD4680BD80B400AF00BFBD464A
:103CF0005DF8047B704780B500AFFFF7D9FF00BFC8
:103D000080BD80B588B000AFF860B9607A600523E7
:103D1000FB7707F1160207F1180311461846FFF763
:103D20008FFF0346002B1DD0BB6902331B781B029B
:103D3000BB83BB6903331B781A46BB8B1343BB831E
:103D4000BB8B002B10D1BB69DA1DBB681A60FB8AE4
:103D5000073B9AB27B681A800023FB77FB68FF223F
:103D60001A7001E00523FB77FB7F18462037BD461C
:103D700080BD80B586B000AF03463960FB71134645
:103D8000BB800023FB753B68073B3B61BB88073367
:103D9000FB81BB8801331A123B690433D2B21A701B
:103DA000BB88DAB23B6905330132D2B21A70FB89A3
:103DB00019463869FFF75EFF0346002B01D1052342
:103DC000FB75FB7D18461837BD4680BD80B584B0B5
:103DD00000AF786039607B683A6802FB03F31846ED
:103DE0000BF0ECF80346FB60FB68002B08D03B6847
:103DF0007A6802FB03F31A460021F86826F0A4FC57
:103E0000FB6818461037BD4680BD000080B586B0FF
:103E100000AFF860B9607A600122F968114815F0C6
:103E2000B1FC78617B69002B05D10F490320FEF7B7
:103E30006BFB002311E00B4B1B697A6910687A68F1
:103E4000A92101FB02F2B9689847786915F0C1FC15
:103E500006490120FEF758FB012318461837BD46D6
:103E600080BD00BFA4000020B03E0408CC3E040882
:103E700080B586B000AFF860B9607A600F4B1B6AFE
:103E8000F86898470222F9680C4815F07BFC7861C5
:103E90000A4B5B697A6910687A68A92101FB02F212
:103EA000B9689847786915F094FC05490120FEF738
:103EB0002BFB00BF1837BD4680BD00BFA40000200B
:103EC000E83E040880B5CAB006AF07F58873A3F5CD
:103ED0008673186007F58873A3F58873196007F572
:103EE0008873A3F586731B6893F8AC3003F0400326
:103EF000DBB2002B01D0284B00E0284BC7F80C3177
:103F000007F58873A3F588731B68803307F58872FB
:103F1000A2F58672126892F8AC2002F04002D2B28A
:103F2000002A01D01E4A00E01E4A07F10C001E497B
:103F3000029101920093D7F80C311C4A4FF4807122
:103F400020F028F907F58873A3F588731B6807F13B
:103F50000C0207F58871A1F5867005930023049380
:103F6000134B0393134B029300230193104B0093C5
:103F7000114BC821006816F06DFF07F58873A3F593
:103F800088731B681A460D490120FEF7BDFA00BF71
:103F900007F58877BD4680BD003F0408143F04083C
:103FA000243F0408303F040800A30200343F040803
:103FB00021460308803F0408783F0408883F04082E
:103FC0002DE9B04FEAB002AF07F5D073A3F5CA737D
:103FD000186007F5D073A3F5CC73196007F5D0739B
:103FE000A3F299131A700023C7F86C3107F5B87360
:103FF00025220021184626F0A7FB07F1100307F140
:10400000900107F5D072A2F5CC7080220092802238
:10401000006818F0DBF807F5D073A3F588731B78F8
:10402000002B00F0F98007F5D073A3F5C8731B7857
:10403000002B00F0F18007F190031A46A2490120FD
:10404000FEF762FA07F58873184621F0B9FD07F10B
:1040500010031846FCF724F9024607F1100107F592
:104060008873184621F0D6FD07F5887207F5B673F8
:104070001146184621F034FE0023C7F89C31C5E0F4
:10408000D7F89C31A92202FB03F3904A134407F1AD
:10409000900211461846FCF7A3F80346002B40F0A7
:1040A000B080D7F89C31A92202FB03F38033874A02
:1040B000134407F5B67211461846FCF791F803460B
:1040C000002B40F09E800023C7F8983100BFD7F83E
:1040D0009831092B00F395807D4AD7F89C31B8219F
:1040E00001FB03F31344B033D3E900AB21F06AFEC4
:1040F00002460B4692457BEB03034ED2D7F89C3128
:10410000B82202FB03F3724A134407F190018022A4
:10411000184626F060FB21F055FE02460B466D491D
:10412000541843F100056A4AD7F89C31B82101FBC5
:1041300003F31344B033C3E90045D7F89C31B822E8
:1041400002FB03F38033624A13442821184623F00C
:1041500051F807F5D073A3F299131B78002B0ED0FA
:10416000D7F89C31B82202FB03F3594A1A4407F5E9
:10417000D073A3F5CA7311461868FFF7A3FED7F8EA
:104180009C31B82202FB03F3514A13441A465249A8
:104190000120FEF7B9F9012390E007F19003802296
:1041A00019464E4826F017FB21F00CFE02460B463E
:1041B000484912EB010843F10009454BC3E95A890C
:1041C0002821474823F016F807F5D073A3F2991376
:1041D0001B78002B07D007F5D073A3F5CA733F49AE
:1041E0001868FFF76FFED7F89C31B82202FB03F383
:1041F000374A13441A4638490120FEF785F901234E
:104200005CE0D7F89C310133C7F89C31D7F89C317A
:10421000092B7FF735AF50E007F5D073A3F588730E
:104220001B78002B49D107F5D073A3F5C8731B7811
:10423000002B42D00023C7F89C313AE0D7F89C31DC
:10424000B82202FB03F38033214A134407F1100222
:1042500011461846FBF7C4FF0346002B24D11C4A25
:10426000D7F89C31B82101FB03F313441B78002BD2
:104270001AD007F5D073A3F299131B78002B11D035
:10428000D7F89C31B82202FB03F3114A134407F517
:10429000D072A2F5CA700093124B134AC82100686D
:1042A00016F0D8FD012309E0D7F89C310133C7F897
:1042B0009C31D7F89C31092BC0DD0023184607F547
:1042C000D077BD46BDE8B08FA43F0408781C00201D
:1042D0001823002000B84C0AC43F0408D023002053
:1042E00050240020E03F04082040040880B582B03C
:1042F00000AF78603960012239687868FFF760FEA6
:104300000346002B06D1054B054A40F2931178680D
:1043100016F0A0FD00BF0837BD4680BD90400408E0
:104320002040040880B5C6B002AF07F58873A3F536
:104330008673186007F58873A3F5887319600023E6
:10434000C7F88C3007F190037C220021184626F034
:10435000FBF907F58873A3F5827300221A60043312
:104360007C220021184626F0EFF907F10C0307F133
:104370008C0107F58872A2F5887080220092802255
:10438000006817F023FF97F88C30002B12D007F548
:104390008873A3F582731B78002B0BD007F5887305
:1043A000A3F58670424B434A4FF4CA71006816F079
:1043B00051FD78E097F88C30002B69D107F58873B0
:1043C000A3F582731B78002B62D00023C7F80C3151
:1043D0004EE0D7F80C31B82202FB03F38033364AA3
:1043E000134407F10C0211461846FBF7F9FE034689
:1043F000002B38D1D7F80C31B82202FB03F32E4A38
:1044000013441A462D490120FEF77EF82A4AD7F8B0
:104410000C31B82101FB03F31344803300221A70DE
:10442000254AD7F80C31B82101FB03F3134403F1FB
:10443000B0014FF000024FF00003C1E900231E4A13
:10444000D7F80C31B82101FB03F3134400221A7092
:1044500007F58873A3F58670194B164AC8210068C2
:1044600016F0F8FC1FE0D7F80C310133C7F80C3117
:10447000D7F80C31092BACDD07F58873A3F58670EE
:10448000104B0C4A4FF4CA71006816F0E3FC0AE0C6
:1044900007F58873A3F586700B4B064A4FF4CA7173
:1044A000006816F0D7FC07F58877BD4680BD00BFD1
:1044B000C04004082040040818230020404104089C
:1044C0005441040890410408C4410408F0B593B075
:1044D00008AF786007F10C0318460AF05FFFFB682D
:1044E0003A697969B869FC693D6A7E6A06960595FC
:1044F00004940390029101920093054B054AC82150
:10450000786816F0A7FC00BF2C37BD46F0BD00BF91
:104510003C4204084043040880B5A0B000AF786076
:1045200039602123BB674FF48063A7F876301023EE
:1045300087F87530B7F8763001211846FFF746FC4A
:1045400038673B6F002B05D1386F0AF005FE4FF03E
:10455000FF3367E001227968344815F013F9F866F3
:10456000FB6E002B08D1F86E15F033F9386F0AF0A6
:10457000F3FD6FF0010355E007F10C03184619F045
:1045800057FF06E007F10C03BA6E396F18461AF0B0
:10459000FBFD264B1B69FA6E1068B7F87620396F61
:1045A0009847B866BB6E002BECD1F86E15F011F988
:1045B00097F8753001211846FFF708FC78667B6E86
:1045C000002B08D1386F0AF0C7FD786E0AF0C4FDE1
:1045D0004FF0FF3326E007F10C03796E18461AF00E
:1045E00051FE0023FB6713E0FB6F5B001A463B683C
:1045F0009818FB6F5B001A46BB6F991AFB6F7A6EB7
:1046000013441B780A4A25F075FBFB6F0133FB67E7
:10461000FB6F0F2BE8DD386F0AF09EFD786E0AF015
:104620009BFD002318468037BD4680BDA4000020B6
:1046300084430408B0B594B006AF7860396007F1E0
:1046400024036049184621F091FE39680023009345
:1046500007F124030CCB03C921F05BFF0346002BB9
:1046600023D0594B1B6807F11C00002201219847F9
:10467000554B1B6807F11C02D01C002202219847F1
:104680003B7F7A7FB97FF87F97F8204097F82150D9
:104690000595049403900291019200934B4B4C4A70
:1046A000C821786816F0D6FB87E007F12C0349494A
:1046B000184621F05BFE39680023009307F12C03B4
:1046C0000CCB03C921F025FF0346002B6DD007F169
:1046D00010033968404A01F5007103C919F0B0FBB5
:1046E0000346002B59D007F1080339683B4A01F50E
:1046F000007103C919F0A4FB0346002B4DD0D7E984
:10470000042310461946FCF767FA034687F837304A
:10471000D7E9022310461946FCF75EFA034687F8EC
:10472000363097F83730002B2FD097F83730032BDF
:104730002BD897F83630002B03D097F83630012B62
:1047400023D1214B1B6807F1180000220221984752
:1047500097F83730013B38333B4497F8362003F85D
:10476000202C194B1B6807F11800012202219847E1
:1047700097F8373097F8362001920093184B144A77
:10478000C821786816F066FB17E0164B104A4FF404
:10479000C871786816F05EFB0FE0134B0C4A4FF4BB
:1047A000C871786816F056FB07E0104B084A40F2D3
:1047B0009511786816F04EFBFFE700BF3837BD460D
:1047C000B0BD00BF8C430408741C00209043040853
:1047D00020400408C4430408CC430408D843040818
:1047E000E0430408184404085444040890440408AE
:1047F00080B592B004AF7860396007F10C03A74927
:10480000184621F0B3FD39680023009307F10C032B
:104810000CCB03C921F07DFE0346002B4DD00023B5
:1048200087F82330C6210120FFF7D0FAF861FB6931
:10483000002B0AD19A4B9B4A4FF4FA71786816F014
:1048400009FBF8690AF088FC24E1974B1B680022F9
:104850000021F8699847FB69A5331846FBF720FD4E
:10486000034687F82330FB69A53397F823202A21D4
:10487000184625F069FF97F82330FA69134400229F
:1048800083F8A520FB695B78002B01D0874B00E003
:10489000874BFA690232F9698431F869A5300390CF
:1048A000029101920093834B7E4AC821786816F0EA
:1048B000D1FAF8690AF050FCECE007F114037E49E4
:1048C000184621F053FD39680023009307F11403C3
:1048D0000CCB03C921F01DFE0346002B00F0D38052
:1048E000C6210120FFF772FA78637B6B002B0AD197
:1048F0006B4B6C4A4FF4FA71786816F0ABFA786B30
:104900000AF02AFCC6E007F1080339686B4A01F592
:10491000007103C918F05AFF0346002B07DA684BF1
:10492000604A4FF4C871786816F094FAA7E07B6B80
:1049300001333968634A01F5007103C919F0C7FAF8
:1049400000233B633B68604A03F5007393E8030070
:1049500019F087FB38633B6B002B4ED00023FB62C2
:10496000386B23F027F9F862FB6A002B07D17B6BC9
:1049700002337F22396B184625F02DFF3DE0FB6A9C
:104980000433032B2AD801A252F823F0CD490108A1
:10499000BD490108AD4901089D4901084B4B414AF9
:1049A0004FF4C871786816F055FA1FE0484B3D4A3D
:1049B0004FF4C871786816F04DFA17E0454B394A44
:1049C0004FF4C871786816F045FA0FE0424B354A4B
:1049D0004FF4C871786816F03DFA07E03F4B314A52
:1049E0004FF4C871786816F035FA00BF386B0AF0DA
:1049F000B3FB786B0AF0B0FB4CE0386B0AF0ACFB11
:104A00000023BB623B68364A03F5007393E803005A
:104A100019F027FBB862BB6A002B06D07B6B84338E
:104A20002022B96A184625F0D6FEB86A0AF094FB2F
:104A300000237B623B682B4A03F5007393E8030075
:104A400019F00FFB78627B6A002B06D07B6BA533D5
:104A50002022796A184625F0BEFE786A0AF07CFBAF
:104A60007B6B01221A70104B1B6801220021786BAE
:104A700098471D4B0B4AC821786816F0EBF9786B04
:104A80000AF06AFB06E0194B064A40F29511786875
:104A900016F0E0F93837BD4680BD00BF8C430408EE
:104AA000E444040820400408741C00202045040845
:104AB0002845040830450408C44304087845040820
:104AC0007C450408AC450408B8450408C4450408FE
:104AD000084604085446040894460408CC460408D2
:104AE000004704080C4704081847040890440408C9
:104AF00080B5D2B006AF07F59873A3F5967318602A
:104B000007F59873A3F598731960CF4A07F18C03E2
:104B100011467222184627F053F80023C7F82031B7
:104B20001E23C7F81C31D7F81C3101211846FFF7A6
:104B30004DF9C7F8180101212E20FFF747F9C7F8F2
:104B4000140101212E20FFF741F9C7F810010121BE
:104B50004FF44070FFF73AF9C7F80C0101214FF408
:104B6000C070FFF733F9C7F80801D7F81831002BE8
:104B700000F08281D7F81431002B00F07D81D7F846
:104B80001031002B00F07881D7F80C31002B00F0A9
:104B90007381D7F80831002B00F06E8107F5807320
:104BA000AA49184621F0E2FB07F59873A3F598731C
:104BB00019680023009307F580730CCB03C921F01B
:104BC000A8FC0346002B00F0328102F069F8C7F818
:104BD0002001D7F82031002B08D1D7F81C311A4614
:104BE0009B49D7F8180125F0F6FD41E0D7F82031B0
:104BF00093F8AC3003F02003DBB2002B08D0D7F8D9
:104C00001C311A469349D7F8180125F0E4FD19E044
:104C1000D7F8203193F8AD3003F02003DBB2002B3E
:104C200008D0D7F81C311A468B49D7F8180125F05F
:104C3000D2FD07E0D7F81C311A468849D7F8180189
:104C400025F0C9FDD7F8203108330093844B854AFD
:104C50002E21D7F810011FF09DFAD7F820311C3310
:104C600000937F4B7F4A2E21D7F814011FF092FA50
:104C7000D7F80C01FBF714FB03461A46D7F80C31A2
:104C8000134479491A460B461B8813800123C7F841
:104C90002C3122E0D7F82C31DBB207F10C000122D5
:104CA000802102F01BFD07F10C031946D7F80C0117
:104CB00025F052FDD7F80C01FBF7F2FA03461A462D
:104CC000D7F80C311344694A1068186012791A71C8
:104CD000D7F82C310133C7F82C31D7F82C31032BFE
:104CE000D8DD0123C7F8283135E0D7F82831DBB209
:104CF00007F10C000222802102F0F0FC07F10C0306
:104D00001946D7F80C0125F027FDD7F82831022BDA
:104D10000EDCD7F80C01FBF7C3FA03461A46D7F8A6
:104D20000C311344514A1068186012791A710DE061
:104D3000D7F80C01FBF7B4FA03461A46D7F80C3142
:104D4000134449491A460B461B881380D7F828316B
:104D50000133C7F82831D7F82831032BC5DDD7F840
:104D60000801FBF79DFA03461A46D7F808311344A9
:104D70003D491A460B461B8813800123C7F824318E
:104D800035E0D7F82431DBB207F10C000222802194
:104D900002F07AFC07F10C031946D7F8080125F058
:104DA000DBFCD7F82431022B0EDCD7F80801FBF727
:104DB00077FA03461A46D7F8083113442B4A10688D
:104DC000186012791A710DE0D7F80801FBF768FA3C
:104DD00003461A46D7F80831134423491A460B46AE
:104DE0001B881380D7F824310133C7F82431D7F852
:104DF0002431032BC5DD07F18C0207F59873A3F569
:104E00009670D7F808310493D7F80C310393D7F88C
:104E100014310293D7F810310193D7F81831009369
:104E20001346134AC821006816F014F82FE007F55E
:104E30009873A3F596700F4B0D4A40F295110068D8
:104E400016F008F823E000BFC84704088C430408A4
:104E5000544704085C47040868470408704704087E
:104E6000C54303087C4704088047040884470408B6
:104E7000204004089044040807F59873A3F5967041
:104E80000F4B104A4FF4FA71006815F0E3FFD7F8A2
:104E900018010AF061F9D7F814010AF05DF9D7F8A2
:104EA00010010AF059F9D7F80C010AF055F9D7F8B2
:104EB00008010AF051F900BF07F59877BD4680BD9B
:104EC0008C4704082040040880B582B000AF7860A9
:104ED000044B054AC821786815F0BCFF00BF0837AD
:104EE000BD4680BD3C4804084048040880B58AB0EF
:104EF00004AF7860396007F10C031A49184621F0B5
:104F000035FA39680023009307F10C030CCB03C971
:104F100021F0FFFA0346002B18D07B68DB6F7B6122
:104F20007B691968002302930F4B019301230093BF
:104F30004FF4FA624FF0000308461BF0A9FE0B4B3A
:104F40000B4AC821786815F085FF06E0094B084A2E
:104F500040F29511786815F07DFF00BF1837BD4607
:104F600080BD00BFC443040857870108E048040817
:104F7000204004081849040880B5A6B002AF786044
:104F8000396007F188032149184621F0EFF93968A3
:104F90000023009307F188030CCB03C921F0B9FA71
:104FA0000346002B27D03B6803F1100007F10802ED
:104FB0008023174914F0C0FD07F10803154918466E
:104FC000FBF70EF90346002B0BD1134B0093134B49
:104FD000134A3968786817F0D5FA012008F0B4FB55
:104FE00010E00C4B00930F4B0F4A4FF4C8717868D8
:104FF00015F030FF06E00D4B0B4A40F29511786832
:1050000015F028FF00BF9037BD4680BDC44304089B
:10501000684904087049040890D0030080490408D6
:10502000A40000208C490408204004081849040802
:1050300080B588B002AF7860396007F10C031D4974
:10504000184621F093F939680023009307F10C0307
:105050000CCB03C921F05DFA0346002B1FD00121C0
:105060002120FEF7B3FE786179691348FFF754FAFF
:105070000346002B08D17B690093104B104AC821CE
:10508000786815F0E7FE06E00E4B0D4A4FF4CA7142
:10509000786815F0DFFE78690AF05EF806E00A4BE2
:1050A000074A40F29511786815F0D4FE00BF183712
:1050B000BD4680BD8C430408D8490408F049040863
:1050C00020400408144A0408544A040880B586B0F5
:1050D00002AF7860396007F108031849184621F0DB
:1050E00045F939680023009307F108030CCB03C985
:1050F00021F00FFA0346002B14D0114BDB69114944
:10510000114898470346002B04D039687868FFF7A8
:10511000EDFE0EE00D4B0E4A4FF4FA71786815F073
:1051200099FE06E00B4B0A4A40F29511786815F09B
:1051300091FE00BF1037BD4680BD00BFC4430408C8
:10514000A4000020A44A0408D8490408284B0408F5
:10515000204004081849040880B586B002AF786082
:10516000396007F108031849184621F0FFF839683B
:105170000023009307F108030CCB03C921F0C9F900
:105180000346002B14D0114B1B6A11489847034665
:10519000002B06D00F4B104AC821786815F05AFE34
:1051A0000DE00E4B0C4AC821786815F053FE06E05E
:1051B0000B4B094A40F29511786815F04BFE00BF81
:1051C0001037BD4680BD00BFC4430408A4000020C2
:1051D000A44A0408C44B040820400408004C0408F6
:1051E0001849040880B586B002AF7860396007F1CD
:1051F00008031549184621F0B9F8396800230093CF
:1052000007F108030CCB03C921F083F90346002BF7
:105210000ED00E4B1B6A0E4898470C4B5B6A0C482D
:1052200098470C4B0C4AC821786815F013FE06E02D
:105230000A4B094A40F29511786815F00BFE00BF41
:105240001037BD4680BD00BFC4430408A400002041
:10525000444C04084C4C0408204004081849040835
:1052600080B5C6B002AF07F58873A3F586731860E2
:1052700007F58873A3F58873196007F584733449BB
:10528000184621F073F807F58873A3F58873196839
:105290000023009307F584730CCB03C921F039F97F
:1052A0000346002B43D007F58873A3F588731B686A
:1052B00003F5007007F18C027B23264914F03CFCB7
:1052C0000346002B27DD07F18C0307F10C00224A6F
:1052D000802124F00FFD214B5B6A07F10C02104680
:1052E00098470346002B0AD007F58873A3F586700C
:1052F0001B4B1C4AC821006815F0ACFD22E007F5E5
:105300008873A3F58670184B164A4FF4FA7100683B
:1053100015F0A0FD16E007F58873A3F58670134B12
:10532000104A4FF4C871006815F094FD0AE007F5C3
:105330008873A3F586700E4B0A4A40F295110068F7
:1053400015F088FD00BF07F58877BD4680BD00BF1A
:10535000C4430408944C04089C4C0408A400002096
:10536000A44C040820400408D84C0408144D040838
:105370001849040880B590B002AFF860B9607A604F
:1053800007F128032C49184620F0F0FFB9680023E4
:10539000009307F128030CCB03C921F0BAF80346A8
:1053A000002B2BD007F1100300221A605A609A607C
:1053B000DA601A615A61214B3B61214B7B627B6849
:1053C000002B03D07B68012B08D00FE007F11003FE
:1053D0001C4AB968F86815F031FF29E007F110039D
:1053E000194AB968F86815F029FF21E007F11003A0
:1053F000144AB968F86815F021FF19E007F1300385
:105400001249184620F0B2FFB9680023009307F153
:1054100030030CCB03C921F07CF80346002B07D1E5
:105420000B4B0C4A40F29511F86815F013FDFFE79D
:1054300000BF3837BD4680BD8C430408504D04087A
:10544000A4000020584D0408684D0408C443040813
:105450006C4B04082040040880B5C2B002AF7860ED
:1054600007F58073A3F58073196007F19803C849A5
:10547000184620F07BFF07F58073A3F58073196849
:105480000023009307F198030CCB03C921F041F8E6
:105490000346002B00F0BE804FF48063C7F8C43091
:1054A000A023C7F8C0300121D7F8C400FEF78EFC56
:1054B000C7F8BC000121D7F8C000FEF787FCC7F889
:1054C000B8000023C7F8FC30D7F8BC30002B00F040
:1054D0008D80D7F8B830002B00F08880D7F8BC203A
:1054E000D7F8FC30D018D7F8C420D7F8FC30D31A3E
:1054F000A84A194624F0FEFB03461A46D7F8FC30AA
:105500001344C7F8FC300023C7F8F8304BE0A24A38
:10551000D7F8F830A92101FB03F313441B78002BC3
:105520003CD0D7F8F830A92202FB03F39A4A13447F
:105530009A4AD7F8C010D7F8B80024F0DBFBD7F8A8
:10554000FC300C2B14D9D7F8BC20D7F8FC30D0187D
:10555000D7F8C420D7F8FC30D31A914A194624F062
:10556000C9FB03461A46D7F8FC301344C7F8FC3091
:10557000D7F8BC20D7F8FC30D018D7F8C420D7F81B
:10558000FC30D11AD7F8B830864A24F0B3FB034672
:105590001A46D7F8FC301344C7F8FC30D7F8F83077
:1055A0000133C7F8F830D7F8F830092BAFDDD7F85A
:1055B000BC20D7F8FC30D018D7F8C420D7F8FC307E
:1055C000D31A794A194624F095FB03461A46D7F8B0
:1055D000FC301344C7F8FC30D7F8BC300093714B53
:1055E000724AC821786815F035FC0AE0704903203A
:1055F000FCF78AFF6F4B6D4A4FF4FA71786815F02B
:1056000029FCD7F8BC0009F0A7FDD7F8B80009F0CD
:10561000A3FDD7E207F1A0036749184620F0A6FED4
:1056200007F58073A3F5807319680023009307F1D1
:10563000A0030CCB03C920F06CFF0346002B00F045
:1056400021810023C7F8CC300023C7F8C83007F108
:10565000940207F58073A3F5807319681346574ABF
:1056600001F5007103C918F0B1F80346002B07DA01
:10567000534B4E4A4FF4C871786815F0EBFBA1E22A
:1056800007F58073A3F580731B684E4A03F500731A
:1056900093E8030018F0E5FCC7F8CC0007F5807329
:1056A000A3F580731B68484A03F5007393E8030071
:1056B00018F0D7FCC7F8C800D7F8CC30002B00F0A2
:1056C000D180D7F8C830002B00F0CC80D7F8CC3090
:1056D0001B78002B00F0C680D7F8C8301B78002B51
:1056E00000F0C0800023C7F8F43023E0D7F8F4308E
:1056F000A92202FB03F3284A1344D7F8CC1018461A
:10570000FAF76EFD0346002B0FD1304B274A4FF4BA
:10571000C871786815F09EFBD7F8CC0009F01CFD25
:10572000D7F8C80009F018FD4CE2D7F8F43001337F
:10573000C7F8F430D7F8F430092BD7DD0023BB606D
:1057400007F10C0325220021184624F0FDFF07F184
:105750003403184620F034FAD7F8C800FAF7A0FD51
:10576000024607F13403D7F8C810184620F052FA61
:1057700007F1340207F108031146184620F0B0FA89
:10578000002387F8F3300023C7F8EC3053E000BF64
:105790008C430408784D0408781C0020884D0408C8
:1057A000984D04089C4D0408A04D040820400408AE
:1057B000A44D0408D84D0408C443040878450408DF
:1057C0007C450408004E0408084E0408104E0408E6
:1057D000BD4AD7F8EC30A92101FB03F313441B7831
:1057E000002B23D1D7F8EC30A92202FB03F3B64AF1
:1057F00013447F22D7F8CC10184624F0ECFFD7F8DA
:10580000EC30A92202FB03F38033AF4A134407F1C3
:1058100008012822184624F0DEFF0A22AA49AB48D4
:10582000FEF726FB012387F8F33008E0D7F8EC30C9
:105830000133C7F8EC30D7F8EC30092BC8DD97F806
:10584000F330002B06D0A24BA24AC821786815F08D
:1058500001FB0EE0A04B9F4A4FF4C871786815F029
:10586000F9FA06E09D4B9B4A4FF4C871786815F031
:10587000F1FAD7F8CC0009F06FFCD7F8C80009F0AE
:105880006BFC9FE107F1A8039549184620F06EFDD7
:1058900007F58073A3F5807319680023009307F15F
:1058A000A8030CCB03C920F034FE0346002B00F004
:1058B000D3800023C7F8E8300023C7F8E43007F1AD
:1058C000900207F58073A3F5807319681346854A23
:1058D00001F5007103C917F079FF0346002B07DAC1
:1058E000814B7C4A4FF4C871786815F0B3FAAAE08E
:1058F00007F58073A3F580731B687C4A03F500737A
:1059000093E8030018F0ADFBC7F8E80007F58073D3
:10591000A3F580731B68764A03F5007393E80300D0
:1059200018F09FFBC7F8E400D7F8E830002B00F030
:105930008380D7F8E430002B7ED0D7F8E8301B788E
:10594000002B79D0D7F8E4301B78002B74D00023DB
:1059500087F8E3300023BB6007F10C032522002108
:10596000184624F0F1FE07F13403184620F028F918
:10597000D7F8E400FAF794FC024607F13403D7F8AD
:10598000E410184620F046F907F1340207F1080345
:105990001146184620F0A4F90023C7F8DC3034E0A3
:1059A000D7F8DC30A92202FB03F3474A1344D7F8A7
:1059B000E8101846FAF714FC0346002B20D1D7F85C
:1059C000DC30A92202FB03F380333F4A134407F182
:1059D00008012822184624F0FEFE3B4AD7F8DC30A6
:1059E000A92101FB03F31344A83300221A700A22F1
:1059F00035493648FEF73CFA012387F8E33008E0E2
:105A0000D7F8DC300133C7F8DC30D7F8DC30092BAD
:105A1000C6DD97F8E330002B06D0364B2D4AC8215F
:105A2000786815F017FA0EE0334B2A4A4FF4CA7122
:105A3000786815F00FFA06E0304B264A4FF4C8712B
:105A4000786815F007FAD7F8E80009F085FBD7F871
:105A5000E40009F081FBB5E007F1B00328491846DE
:105A600020F084FC07F58073A3F580731968002388
:105A7000009307F1B0030CCB03C920F04AFD0346A5
:105A8000002B00F098800023C7F8D03007F5807312
:105A9000A3F580731B68154A03F5007393E80300B0
:105AA00018F0DFFAC7F8D000D7F8D030002B76D046
:105AB000D7F8D0301B78002B71D0002387F8DB306B
:105AC0000123C7F8D43053E0781C00204C4E040862
:105AD0005C4E040820400408984E0408CC4E04088C
