:020000040801F1
:10000000000002207927010895260108972601089B
:10001000992601089B2601089D2601080000000082
:1000200000000000000000000000000061AB0108BB
:100030009F2601080000000001AC0108698A010840
:10004000C9270108C9270108C9270108C9270108CC
:10005000C9270108C9270108C9270108C9270108BC
:10006000C9270108C9270108C9270108C9270108AC
:10007000C9270108C9270108C9270108C92701089C
:10008000C9270108C9270108C92701080000000085
:10009000000000000000000000000000C927010867
:1000A000A1260108C9270108C9270108C927010895
:1000B000C9270108C9270108C9270108C92701085C
:1000C000C9270108C9270108C9270108C92701084C
:1000D000C9270108C9270108C92701080000000035
:1000E000C9270108C9270108C92701080000000025
:1000F000000000000000000000000000C927010807
:1001000000000000C9270108C9270108C927010804
:1001100000000000000000000000000000000000DF
:10012000C9270108C9270108C9270108C9270108EB
:10013000C9270108000000000000000000000000C6
:10014000000000000000000000000000C9270108B6
:10015000C9270108C9270108C9270108C9270108BB
:10016000C9270108C927010800000000000000009D
:10017000000000000000000000000000000000007F
:1001800000000000C9270108000000000000000076
:08019000C9270108C927010875
:1001A00010B5054C237833B9044B13B10448AFF3B1
:1001B00000800123237010BD7008002000000000A3
:1001C0007464030808B5034B1BB103490348AFF33C
:1001D000008008BD0000000074080020746403085B
:1001E00010F8012B11F8013B012A28BF9A42F7D0E1
:1001F000D01A70470000000000000000000000005E
:1002000001F0FF01102A2BDB10F0070F08D010F8C7
:10021000013B013A8B422DD010F0070F42B3F6D1CB
:10022000F0B441EA012141EA014122F007047FF0E4
:1002300000070023F0E80256083C85EA010586EA3B
:10024000010685FA47F5A3FA87F586FA47F6A5FA77
:1002500087F68EB9EED1F0BC01F0FF0102F0070283
:1002600032B110F8013B013A83EA010313B1F8D12E
:100270000020704701387047002D06BF354603380F
:10028000073815F0010F07D1013015F4807F02BF48
:10029000013015F4C03F0130F0BC0138704700BF99
:1002A000034613F8012B002AFBD1181A01387047B6
:1002B00081F0004102E000BF83F0004330B54FEA17
:1002C00041044FEA430594EA050F08BF90EA020F84
:1002D0001FBF54EA000C55EA020C7FEA645C7FEA17
:1002E000655C00F0E2804FEA5454D4EB5555B8BF3A
:1002F0006D420CDD2C4480EA020281EA030382EAAB
:10030000000083EA010180EA020281EA0303362D3C
:1003100088BF30BD11F0004F4FEA01314FF4801C0F
:100320004CEA113102D0404261EB410113F0004F21
:100330004FEA03334CEA133302D0524263EB4303D8
:1003400094EA050F00F0A780A4F10104D5F1200E76
:100350000DDB02FA0EFC22FA05F2801841F10001D1
:1003600003FA0EF2801843FA05F359410EE0A5F1A5
:1003700020050EF1200E012A03FA0EFC28BF4CF0D6
:10038000020C43FA05F3C01851EBE37101F000458C
:1003900007D54FF0000EDCF1000C7EEB00006EEB99
:1003A0000101B1F5801F1BD3B1F5001F0CD3490823
:1003B0005FEA30004FEA3C0C04F101044FEA44527A
:1003C00012F5800F80F09A80BCF1004F08BF5FEA01
:1003D000500C50F1000041EB045141EA050130BDE1
:1003E0005FEA4C0C404141EB0101013C28BFB1F5F3
:1003F000801FE9D291F0000F04BF01460020B1FA3E
:1004000081F308BF2033A3F10B03B3F120020CDA10
:100410000C3208DD02F1140CC2F10C0201FA0CF0EE
:1004200021FA02F10CE002F11402D8BFC2F1200C53
:1004300001FA02F120FA0CFCDCBF41EA0C01904009
:10044000E41AA2BF01EB0451294330BD6FEA040452
:100450001F3C1CDA0C340EDC04F11404C4F120023D
:1004600020FA04F001FA02F340EA030021FA04F34F
:1004700045EA030130BDC4F10C04C4F1200220FAA6
:1004800002F001FA04F340EA0300294630BD21FAE4
:1004900004F0294630BD94F0000F83F4801306BFAA
:1004A00081F480110134013D4EE77FEA645C18BF9E
:1004B0007FEA655C29D094EA050F08BF90EA020F35
:1004C00005D054EA000C04BF1946104630BD91EA2D
:1004D000030F1EBF0021002030BD5FEA545C05D130
:1004E0004000494128BF41F0004130BD14F580046F
:1004F0003CBF01F5801130BD01F0004545F0FE41E3
:1005000041F470014FF0000030BD7FEA645C1ABF17
:10051000194610467FEA655C1CBF0B46024650EA4E
:10052000013406BF52EA033591EA030F41F400217A
:1005300030BD00BF90F0000F04BF0021704730B500
:100540004FF4806404F132044FF000054FF00001D5
:1005500050E700BF90F0000F04BF0021704730B596
:100560004FF4806404F1320410F0004548BF40426B
:100570004FF000013EE700BF42004FEAE2014FEAC0
:1005800031014FEA02701FBF12F07F4393F07F4F9B
:1005900081F06051704732F07F4208BF704793F09E
:1005A0007F4F04BF41F40021704730B54FF46074B1
:1005B00001F0004521F000411CE700BF50EA0102B4
:1005C00008BF704730B54FF000050AE050EA01025D
:1005D00008BF704730B511F0004502D5404261EBCD
:1005E00041014FF4806404F132045FEA915C3FF40E
:1005F000D8AE4FF003025FEADC0C18BF03325FEAAB
:10060000DC0C18BF033202EBDC02C2F1200300FA5B
:1006100003FC20FA02F001FA03FE40EA0E0021FA80
:1006200002F11444BDE600BF70B54FF0FF0C4CF46E
:10063000E06C1CEA11541DBF1CEA135594EA0C0F20
:1006400095EA0C0F00F0DEF82C4481EA030621EA5B
:100650004C5123EA4C5350EA013518BF52EA033596
:1006600041F4801143F4801338D0A0FB02CE4FF048
:100670000005E1FB02E506F00042E0FB03E54FF078
:100680000006E1FB03569CF0000F18BF4EF0010E70
:10069000A4F1FF04B6F5007F64F5407404D25FEA6C
:1006A0004E0E6D4146EB060642EAC62141EA55511F
:1006B0004FEAC52040EA5E504FEACE2EB4F1FD0C61
:1006C00088BFBCF5E06F1ED8BEF1004F08BF5FEADF
:1006D000500E50F1000041EB045170BD06F0004691
:1006E00046EA010140EA020081EA0301B4EB5C043E
:1006F000C2BFD4EB0C0541EA045170BD41F4801136
:100700004FF0000E013C00F3AB8014F1360FDEBF5A
:10071000002001F0004170BDC4F10004203C35DA36
:100720000C341BDC04F11404C4F1200500FA05F3B9
:1007300020FA04F001FA05F240EA020001F000425A
:1007400021F0004110EBD37021FA04F642EB0601D0
:100750005EEA430E08BF20EAD37070BDC4F10C04FA
:10076000C4F1200500FA04F320FA05F001FA04F2BE
:1007700040EA020001F0004110EBD37041F10001AA
:100780005EEA430E08BF20EAD37070BDC4F12005B5
:1007900000FA05F24EEA020E20FA04F301FA05F21D
:1007A00043EA020321FA04F001F0004121FA04F2C5
:1007B00020EA020000EBD3705EEA430E08BF20EA95
:1007C000D37070BD94F0000F0FD101F000464000CF
:1007D00041EB010111F4801F08BF013CF7D041EA51
:1007E000060195F0000F18BF704703F00046520055
:1007F00043EB030313F4801F08BF013DF7D043EA26
:100800000603704794EA0C0F0CEA135518BF95EADB
:100810000C0F0CD050EA410618BF52EA4306D1D162
:1008200081EA030101F000414FF0000070BD50EA81
:10083000410606BF1046194652EA430619D094EA0B
:100840000C0F02D150EA013613D195EA0C0F05D1F5
:1008500052EA03361CBF104619460AD181EA030149
:1008600001F0004141F0FE4141F470014FF0000001
:1008700070BD41F0FE4141F4780170BD70B54FF09C
:10088000FF0C4CF4E06C1CEA11541DBF1CEA13551C
:1008900094EA0C0F95EA0C0F00F0A7F8A4EB0504FE
:1008A00081EA030E52EA03354FEA013100F08880F5
:1008B0004FEA03334FF0805545EA131343EA1263BE
:1008C0004FEA022245EA111545EA10654FEA002673
:1008D0000EF000419D4208BF964244F1FD0404F52C
:1008E000407402D25B084FEA3202B61A65EB030588
:1008F0005B084FEA32024FF480104FF4002CB6EB45
:10090000020E75EB030E22BFB61A754640EA0C00C4
:100910005B084FEA3202B6EB020E75EB030E22BF04
:10092000B61A754640EA5C005B084FEA3202B6EB45
:10093000020E75EB030E22BFB61A754640EA9C0004
:100940005B084FEA3202B6EB020E75EB030E22BFD4
:10095000B61A754640EADC0055EA060E18D04FEA92
:10096000051545EA16754FEA06164FEAC30343EA32
:1009700052734FEAC2025FEA1C1CC0D111F4801FFF
:100980000BD141EA00014FF000004FF0004CB6E7F8
:1009900011F4801F04BF01430020B4F1FD0C88BF97
:1009A000BCF5E06F3FF6AFAEB5EB030C04BFB6EBA2
:1009B000020C5FEA500C50F1000041EB045170BD95
:1009C0000EF0004E4EEA113114EB5C04C2BFD4EBC2
:1009D0000C0541EA045170BD41F480114FF0000E46
:1009E000013C90E645EA060E8DE60CEA135594EAC2
:1009F0000C0F08BF95EA0C0F3FF43BAF94EA0C0FC5
:100A00000AD150EA01347FF434AF95EA0C0F7FF439
:100A100025AF104619462CE795EA0C0F06D152EA8D
:100A200003353FF4FDAE1046194622E750EA410671
:100A300018BF52EA43067FF4C5AE50EA41047FF482
:100A40000DAF52EA43057FF4EBAE12E74FF0FF3CE7
:100A500006E000BF4FF0010C02E000BF4FF0010CB8
:100A60004DF804CD4FEA410C7FEA6C5C4FEA430C31
:100A700018BF7FEA6C5C1BD001B050EA410C0CBF80
:100A800052EA430C91EA030F02BF90EA020F0020E2
:100A9000704710F1000F91EA030F58BF994208BF49
:100AA00090422CBFD8176FEAE37040F00100704706
:100AB0004FEA410C7FEA6C5C02D150EA013C07D15D
:100AC0004FEA430C7FEA6C5CD6D152EA033CD3D0A8
:100AD0005DF8040B704700BF8446104662468C46A2
:100AE0001946634600E000BF01B5FFF7B7FF0028D5
:100AF00048BF10F1000F01BD4DF808EDFFF7F4FFFE
:100B00000CBF012000205DF808FB00BF4DF808ED88
:100B1000FFF7EAFF34BF012000205DF808FB00BFAB
:100B20004DF808EDFFF7E0FF94BF012000205DF8CD
:100B300008FB00BF4DF808EDFFF7CEFF94BF012082
:100B400000205DF808FB00BF4DF808EDFFF7C4FF7B
:100B500034BF012000205DF808FB00BF4FEA410CC4
:100B60007FEA6C5C02D150EA013C0AD14FEA430CA7
:100B70007FEA6C5C02D152EA033C02D14FF00000E4
:100B800070474FF0010070474FEA410212F5001222
:100B900015D211D56FF47873B3EB625212D94FEAC4
:100BA000C12343F0004343EA505311F0004F23FAAE
:100BB00002F018BF404270474FF00000704750EA03
:100BC000013005D111F0004008BF6FF000407047C0
:100BD0004FF00000704700BF4A0011D212F500121A
:100BE00011D20DD56FF47873B3EB62520ED44FEA85
:100BF000C12343F0004343EA505323FA02F0704705
:100C00004FF00000704750EA013002D14FF0FF3042
:100C100070474FF0000070474FEA4102B2F1E043E5
:100C200024BFB3F5001CDCF1FE5C0DD901F0004CD3
:100C30004FEAC0024CEA5070B2F1004F40EB830023
:100C400008BF20F00100704711F0804F21D113F14F
:100C50003872BCBF01F00040704741F480114FEA88
:100C60005252C2F11802C2F1200C10FA0CF320FA11
:100C700002F018BF40F001004FEAC1234FEAD3232E
:100C800003FA0CFC40EA0C0023FA02F34FEA430398
:100C9000CCE77FEA625307D150EA01331EBF4FF021
:100CA000FE4040F44000704701F0004040F0FE403C
:100CB00040F40000704700BF7BB972B90029BEBF85
:100CC00000204FF0004106E008BF00281CBF6FF075
:100CD00000414FF0FF3000F0FFB9ADF1080C6DE9B5
:100CE00004CE002909DB002B1ADB00F097F8DDF8B1
:100CF00004E0DDE9022304B07047404261EB4101AA
:100D0000002B1BDB00F08AF8DDF804E0DDE90223AC
:100D100004B0404261EB4101524263EB4303704730
:100D2000524263EB430300F079F8DDF804E0DDE9BB
:100D3000022304B0404261EB41017047524263EB31
:100D4000430300F06BF8DDF804E0DDE9022304B0B2
:100D5000524263EB4303704753B94AB9002908BFB5
:100D600000281CBF4FF0FF314FF0FF3000F0B4B946
:100D7000ADF1080C6DE904CE00F050F8DDF804E0A8
:100D8000DDE9022304B07047430803F05533C01A6D
:100D9000830803F0333300F03330184400EB1010B5
:100DA00000F00F3000EB002000EB0040000E704719
:100DB00038B50022002304460D46FFF7A7FE28B9E8
:100DC00020462946BDE8384000F00AB8204605F123
:100DD000004100F005F8404261EB410138BD00BF21
:100DE000D0B50C4B002206460F46FFF71DFCFFF75F
:100DF000F3FE0446FFF79EFB074B0022FFF714FCAF
:100E000002460B4630463946FFF756FAFFF7E4FE36
:100E10002146D0BD0000F03D0000F0412DE9F04733
:100E2000089D0C46002B4ED194468C458646B2FA5E
:100E300082F262D94AB1C2F12003914020FA03F351
:100E40000CFA02FC194300FA02FE4FEA1C471FFA93
:100E50008CF6B1FBF7F44FEA1E4307FB141143EA8B
:100E6000014304FB06F199420AD91CEB030304F188
:100E7000FF3080F01281994240F20F81023C6344BE
:100E8000591A1FFA8EF3B1FBF7F007FB101143EA72
:100E9000014300FB06F69E420AD91CEB030300F156
:100EA000FF3180F0FC809E4240F2F98063440238BA
:100EB0009B1B40EA044000211DB1D3400022C5E93C
:100EC0000032BDE8F0878B4205D90DB1C5E90001BC
:100ED00000210846F5E7B3FA83F1002946D1A34281
:100EE00002D39042C0F0F080861A64EB0303012025
:100EF000002DE6D0C5E90063E3E7002A40F09080CA
:100F0000A1EB0C044FEA1C481FFA8CF70121B4FB3B
:100F1000F8F64FEA1E4308FB164443EA044307FB76
:100F200006F0984208D91CEB030306F1FF3402D205
:100F3000984200F2CD8026461C1A1FFA8EF3B4FBAD
:100F4000F8F008FB104443EA044300FB07F79F4214
:100F500008D91CEB030300F1FF3402D29F4200F2D8
:100F6000B0802046DB1B40EA0640A5E7C1F1200621
:100F70008B4022FA06F71F4320FA06FC04FA01F31D
:100F800043EA0C03F44000FA01F8380C4FEA134925
:100F9000B4FBF0FE1FFA87FC00FB1E4449EA044440
:100FA0000EFB0CF9A14502FA01F20AD93C190EF127
:100FB000FF3A80F08480A14540F28180AEF1020EBC
:100FC0003C44A4EB09041FFA83F9B4FBF0F300FBE3
:100FD000134449EA044403FB0CFCA44507D93C191B
:100FE00003F1FF3067D2A44565D9023B3C4443EA94
:100FF0000E40A0FB0293A4EB0C049C42CE469C4600
:1010000051D34ED055B1B8EB0E0364EB0C0404FA87
:1010100006F6CB401E43CC40C5E90064002150E7F2
:10102000C2F1200320FA03F10CFA02FC24FA03F3C4
:1010300094400C434FEA1C4800FA02FE1FFA8CF75A
:10104000B3FBF8F008FB1031230C43EA014300FB2B
:1010500007F1994208D91CEB030300F1FF362CD2AB
:1010600099422AD9023863445B1AA4B2B3FBF8F15F
:1010700008FB113344EA034401FB07F3A34208D9F8
:101080001CEB040401F1FF3613D2A34211D902393B
:101090006444E41A41EA004139E70446F0E60846B0
:1010A00006E7C845AED2B9EB020E63EB070C013878
:1010B000A8E73146EDE7034699E73046D4E7D64640
:1010C0007FE7634402384DE70646234608460FE7AC
:1010D000023E634430E700BF704700BF00B585B0F3
:1010E000002300930193029303931548154A02606D
:1010F0004FF44032426083600361037680F8203011
:10110000C362114A8262C3600122C26180F830303A
:10111000426105F04FFA68B912230093012301934D
:10112000002302936946064805F006FB28B905B07E
:101130005DF804FB01F09AF9EEE701F097F9F6E7A4
:101140008C080020002001400100000F0268094BBC
:101150009A4200D0704782B000230193064B5A6C2C
:1011600042F480725A645B6C03F480730193019BB8
:1011700002B07047002001400038024008B500224C
:101180004FF48051014805F095FD08BD0004024070
:1011900008B501224FF48051014805F08BFD08BDD0
:1011A0000004024008B500224FF40041014805F058
:1011B00081FD08BD0000024008B501224FF4004146
:1011C000014805F077FD08BD000002402DE9F04719
:1011D0008EB08023ADF830304023ADF8323020237C
:1011E000ADF834303B4B09AC93E8070084E80700C6
:1011F0000422ADF81C200222ADF81E200122ADF819
:10120000202004AC93E8070084E80700DFF8D0A0B2
:101210004FF000084FF001092CE04346424601A977
:10122000DAF8000007F0CEFD01AC09AE0CAD0DF10F
:10123000070708E042462988306805F03BFD043680
:101240000235BC421CD014F8013B002BF2D04A46B8
:101250002988306805F02EFDF1E71F4C206807F063
:10126000FFFD4346424603A9206807F069FD484652
:1012700007F07FFCDAF8000007F0E5FD0028CCD18C
:1012800009AC0CAE02AD374636F8021B54F8040B1D
:1012900005F00AFD05F8010BBC42F5D10F4C2068A2
:1012A00007F0DEFD4346424602A9206807F048FDEC
:1012B00004AC07AE03AD374636F8021B54F8040BF6
:1012C00005F0F2FCB0FA80F0400905F8010BBC42D1
:1012D000F2D1C2E790640308F4080020F00800206F
:1012E000EC08002084B008B50DF1080C8CE80F0064
:1012F00000231A4661460448006807F021FDBDE856
:10130000084004B0704700BFE40800202DE9F04316
:10131000BBB000233993814B814A8249824804F053
:1013200097FE8249824809F0F1FF002843DB81489B
:1013300009F0D6FF804C204609F0C6FF7F4809F02F
:10134000C3FF204609F0CCFF7D4809F0C9FF7D4866
:1013500009F0C6FF7C4809F0C3FF7C4809F0C0FFD4
:101360007B4809F0BDFF002239A97A4809F006FF41
:1013700058B30121774809F03DFF0446C62207A96A
:1013800009F066FF204609F057FF00228DF81C2067
:10139000022307A97048006807F020FF002239A93E
:1013A0006E4809F0EBFEE8B10025DFF8AC81DFF80C
:1013B000A4916B4C86E06B4B01221A7040F6B8305A
:1013C00007F0D7FB05F0E4FAB1E7C622002107A831
:1013D0001BF0D2FE0223002207A95F48006807F035
:1013E000FDFEDBE740F29A6009F052FD044690B33F
:1013F0005D49012000F006FF5C4B186820609B8867
:10140000A38001AD5A4E0FCE0FC596E8030045F8F4
:10141000040B297001AD0FCDC4F88000C4F884100E
:10142000C4F88820C4F88C302868C4F890002B7960
:1014300084F894300221494809F0DCFE054640F268
:101440009A62214609F010FF284609F0F5FE204671
:1014500009F0BCFDA8E74749032000F0D3FEF6E7FA
:10146000484609F031FF0221484609F0C3FE06460E
:1014700090B3C62207A909F0F7FE304609F0DCFE5A
:1014800000228DF81C20022307A9D8F8000007F0DD
:10149000A5FE21E0384607F06CFB3146204605F0FA
:1014A00003FC0028F6D04FF47A7007F062FB2B485B
:1014B00009F00AFF05F06CFA00E000254FF47A709D
:1014C00007F057FB002207A9D8F8000008F0A0F9A0
:1014D0009DF81C30002BC3D14FF48071204605F0DD
:1014E000E3FB0028E9D10135EDB2012202212046BB
:1014F00005F0E0FB642007F03CFB002202212046BF
:1015000005F0D8FB082DD9D101220221204605F093
:10151000D1FB4FF480760127BFE700BF1D1B0108F8
:10152000411B0108B9110108A51101086D1B010833
:10153000591B0108FC6603080467030810670308C9
:10154000206703082C670308B87A03083467030888
:101550003C67030844670308E8080020586703084D
:10156000000402401009002094670308CC670308B8
:10157000D46703086867030808B5012914D0022955
:101580001AD001B108BD4AB1012AFBD102230022C1
:1015900001461248006807F021FEF3E701460F4BB1
:1015A000186808F035F9EDE7002AEBD101460C4B3D
:1015B000186808F02DF9E5E74AB1012AE2D10223C3
:1015C000002201460748006807F008FEDAE70146F6
:1015D000054B186808F01CF9D4E700BFE8080020A4
:1015E000F4080020EC080020F00800202DE9F04766
:1015F0008AB04FF47A7007F0BCFA07F067F96420FC
:1016000007F0B7FA0021012007F0B6F8002007F034
:1016100079F8AE4B1C78002C4FD1AD4D01222946F4
:10162000AC4807F007F901222946AB4807F002F958
:1016300004F10B01C9B2012007F09EF801222946EE
:10164000A64807F0F7F804F11601C9B2012007F027
:1016500093F8A34B59684B780A7848790390087936
:101660000290C8780190897800919E4905A81BF0E6
:10167000C1F90122294605A807F0DCF804F121018F
:10168000C9B2012007F078F809F03CFE014605A830
:101690001CF07CFF0122294605A807F0CBF807F0D3
:1016A000BDF940F6B83007F064FA00270125884EEE
:1016B0004FF00B09DFF86482CFE00021012007F032
:1016C0005BF8002007F01EF8814C01222146864875
:1016D00007F0B0F80A21012007F04EF80122214658
:1016E000824807F0A7F81421012007F045F80122ED
:1016F00021467F4807F09EF807F090F940F6B83091
:1017000008F074FD142488E713F1050F08D128218F
:10171000284607F031F82A463146764807F08AF81D
:101720003946284607F028F82A463146724807F01D
:1017300081F86B4B5B689A68130E0193C2F3074301
:101740000093C2F30723D2B26C4905A81BF052F9EB
:101750002A46314605A807F06DF84946284607F0A5
:101760000BF82A463146664807F064F849463D20A2
:1017700007F002F8DFF898A1002420E0282128468D
:1017800006F0FAFF2A4631465E4807F053F8C7E7ED
:101790002821284606F0F0FF2A4631465A4807F02D
:1017A00049F8BDE72A46314605A807F043F8E000AE
:1017B0003D30494680B206F0DFFF032C0FD00134E4
:1017C0002246414605A81BF015F91AF8013B002BEB
:1017D000E8D03A46314605A807F02CF8E7E716218D
:1017E000284606F0C9FF2A463146484807F022F845
:1017F00016213D2006F0C0FFDFF824A100240CE0F4
:101800002A46314605A807F015F8E0003D301621BC
:1018100080B206F0B1FF032C0FD0013422464146BE
:1018200005A81BF0E7F81AF8013F002BE8D03A466C
:10183000314605A806F0FEFFE7E707F0EFF8DFF80E
:10184000E4A04FF47A7423462A467821504605F0E6
:1018500037FD60BBC82007F08CF92D4C3A4629466D
:101860002046FFF789FE3A460221E01CFFF784FE7E
:10187000384606F047FF274B93F9003013F10C0F61
:1018800086D013F10B0FBFF63FAF13F1540F3FF4A7
:1018900075AF13F1180F7FF443AF2821284606F0E7
:1018A0006BFF2A4631461C4806F0C4FF38E7504615
:1018B00005F0E8FB204608F099FC00F009FC204602
:1018C00008F094FC07F002F8BDE700BF1009002003
:1018D0000C010020206803082C68030838680308FE
:1018E0001409002044680308EC6703080068030833
:1018F0000C68030864680308A0680308A468030868
:10190000B46803087068030890680308BC6803089B
:10191000D40800201109002080680308F4B20308ED
:10192000D60800201C0900202DE9F041D0B0554810
:1019300000F05CFC012000F05FFC5349012000F046
:1019400061FC4FF4FA7402E0204607F012F909F046
:10195000D3FC0028F8D044F620644C4D4C4FDFF8FF
:1019600064814FE000231A4607A9286807F02AFA85
:101970000221384609F03EFC06469DF81D210DF176
:101980001D0109F071FC88F80000304609F054FC94
:101990003DE048A809F058FB4E9B04934D9B0393F0
:1019A0004C9B02934B9B01934A9B0093499B489A03
:1019B0003849012000F026FC374B5B689A68130E0B
:1019C0000193C2F307430093C2F30723D2B2334912
:1019D000012000F017FC04F09BFD02463049012075
:1019E00000F010FC04F09AFD02462E49012000F0A0
:1019F00009FC04F099FD02462B49012000F002FC8D
:101A000000240134286807F01EFA0028AAD14FF4F8
:101A1000FA7007F0AEF844F620639C42F1D1002240
:101A20004FA9384609F0AAFB4F9A4CF250339A421C
:101A3000AFD91E4C204609F047FC2146384609F034
:101A400037FC1B49012000F0DDFB134B59684B7834
:101A50000A784879039008790290C87801908978CB
:101A600000911449012000F0CDFB09F04BFC024627
:101A70001149012000F0C6FB104A1149012000F075
:101A8000C1FB86E7E5120108C8680308E4080020E6
:101A9000DC6803087069030814090020046A03085D
:101AA000206A03083C6A0308586A0308EC680308C4
:101AB000FC680308106903083869030854690308BF
:101AC000586903081109002008B5074E4FF4FA754C
:101AD000064C304605F0FBFC284607F04AF8012189
:101AE000204605F0EDF8F4E77009002000040240FC
:101AF00000B587B08DF80F104FF0FF33009301232E
:101B00000DF117020DF10F01034806F075FA9DF86B
:101B1000170007B05DF804FB8009002000B583B012
:101B20008DF807004FF0FF3301220DF10701034844
:101B300006F081F903B05DF804FB00BFD80900206E
:101B400008B50A464FF0FF330146024806F07EFB17
:101B500008BD00BFD809002008B54FF0FF31024B87
:101B6000186807F053F808BDDC08002008B5024BE0
:101B7000186807F07AF808BDDC08002008B52C4882
:101B800007F005F82B4B18602B4807F000F82B4B9B
:101B900018602B4A0321012007F08CF8294B1860AC
:101BA000294A0321012007F085F8284B1860284AAC
:101BB0000321012007F07EF8264B1860264AC62133
:101BC000012007F077F8254B1860254A4FF4817102
:101BD0000F2007F06FF8234B1860234A0021234899
:101BE00006F07CFF224B1860224A0021224806F0B2
:101BF00075FF224B1860224A0021224806F06EFF32
:101C0000214B1860214A0021214806F067FF214B33
:101C10001860214A0021214806F060FF204B18601F
:101C2000204A0021204806F059FF204B186008BDCB
:101C3000546B0308E0080020446B0308DC08002014
:101C4000C46B0308F4080020AC6B0308F008002004
:101C5000946B0308EC0800207C6B0308E808002064
:101C6000646B0308E4080020906C0308D91C010889
:101C70000C0900206C6C0308CD1101080809002034
:101C8000486C0308ED15010804090020246C0308C2
:101C90000D13010800090020006C03082919010830
:101CA000FC080020DC6B0308C91A0108F8080020B2
:101CB00008B500224FF48071014804F0FBFF08BD15
:101CC0000000024008B501224FF48071014804F081
:101CD000F1FF08BD0000024070B5EAB022AD694BCB
:101CE0000FCB85E80F0002AC8022002120461BF0BC
:101CF00043FA40238DF8083022238DF80930624BD7
:101D00001A7C8DF80A209A7C8DF80B201A7D8DF8AC
:101D10000C201B7E8DF80D3001238DF827308DF8B7
:101D200028305A4B0B930C95594B58AA1A605C609B
:101D30004FF4FA7402E0204606F01BFF09F0DCFACB
:101D40000028F8D058A811F099FF524B03221A60CE
:101D500002F0FAFE0646BDF84C30ABB94FF4FA7506
:101D60004FF4FA64FFF7A4FF284606F002FFFFF7DE
:101D7000A9FF204606F0FDFE02A958A815F02AFB8F
:101D8000BDF84C30002BEDD0062102A803F066FB15
:101D9000414802F003FF3E4B3246404958A814F038
:101DA00023FE9DF88430032B0BD00124214658A834
:101DB00017F014FD204606F0DCFE9DF88430032B5E
:101DC000F4D1334B5B689A68130E0193C2F3074357
:101DD0000093C2F30723D2B23149012000F012FA76
:101DE0000022114626A8FFF7C7FB9DF89930F3B1F2
:101DF0002C49012000F006FA274B01930DF23D1308
:101E0000009347AB0DF19A0202A958A803F050FACB
:101E100058A803F011FF02A958A804F0C7F858A861
:101E200001F038F808F0C2F80546642608E01E49BB
:101E3000012000F0E7F9EBE7012006F09AFE2546C5
:101E400008F0B4F80446411B58A817F0C7FC40F648
:101E5000B8350B9BDB6802A898470028ECD1FFF748
:101E600027FF304606F085FEFFF72CFF284606F0D8
:101E700080FE0B9B1B6802A8984741F6583006F07D
:101E800078FEE6E79C640308007AFF1F1801002033
:101E9000140900202C010020791501086C6A030840
:101EA000046A0308806A0308986A03080BB2002BCF
:101EB00024DD2DE9F04182B006460C4615468B180C
:101EC000042B03DD012002B0BDE8F08100220121D6
:101ED00001A8FFF751FB013CA4B2A5420CDD0DF1B6
:101EE0000408012718F804303A46A1B2304600F041
:101EF00039FE0134A542F5DC0020E4E701207047FB
:101F00002DE9F04383B015460AB2002A4CDD06469F
:101F10000C461F464B19042B4ADC47B3012F3FD117
:101F20004C1EA4B20022022101A8FFF725FB274680
:101F30002544AC4214DA01AB1C444FF001084FF0C9
:101F400000094246B9B2304600F03AFE42464946E0
:101F5000304600F035FE04F8010B0137AF42F0D1F6
:101F60000122022101A8FFF707FB00201DE000224B
:101F7000022101A8FFF700FB013CA4B2A54211DD3C
:101F80000DF104094FF0010819F804304246A1B2DE
:101F9000304600F0E7FD0134A542F5DC384604E0A8
:101FA000012002E0384600E0012003B0BDE8F083E4
:101FB0000120FAE701207047012070472DE9F04326
:101FC00089B0002403940494059406940794009423
:101FD0003C4B1A6B42F080021A631A6B02F08002CB
:101FE0000092009A01941A6B42F001021A631A6B74
:101FF00002F001020192019A02941A6B42F002026D
:102000001A631B6B03F002030293029B2E4E2246BF
:102010004FF4F071304604F04DFE2C4D224607215E
:10202000284604F047FE01224FF48051284604F070
:1020300041FE01224FF40041304604F03BFE4FF0D8
:102040000709CDF80C9004944FF00208CDF81480E5
:1020500003A9304604F0AEFCE02303930127049764
:102060000594069403A9304604F0A4FCCDF80C9026
:1020700004970594069403A9284604F09BFC4FF4AA
:102080008053039304970594CDF8188003A928463C
:1020900004F090FC4FF40143039304970594CDF8AA
:1020A000188003A9304604F085FC4FF48073039335
:1020B0000494059403A9284604F07CFC09B0BDE80B
:1020C000F08300BF003802400000024000040240DC
:1020D00008B50B480B4B03600B4B43600023836038
:1020E000C3604FF48042026143618361C361036254
:1020F00004F006FF00B908BD00F0B8F9FBE700BF27
:102100001C09002000540040400D030030B589B088
:102110000023039304930593069307930268154BDA
:102120009A4201D009B030BD00250195124C236BB5
:1021300043F002032363236B03F002030193019B2B
:10214000C0230393122304930123059303230693CF
:102150000423079303A9094804F02CFC0295236C7F
:1021600043F400132364236C03F400130293029BD3
:10217000D8E700BF0054004000380240000402408D
:1021800002680A4B9A4200D0704710B5084A136C97
:1021900023F400131364074C4021204604F0F2FCA2
:1021A0008021204604F0EEFC10BD00BF005400402A
:1021B000003802400004024008B50748074B03609E
:1021C0000323436040F6FF73836005F04FF900B9C5
:1021D00008BD00F04BF9FBE770090020003000401B
:1021E00084B08DE80F0004B07047000008B1014AC8
:1021F0001060704700000020014B1870704700BF4E
:102200007C0900200EB42DE9F043ADF51C7D474B51
:102210001B78834205D90DF51C7DBDE8F04303B062
:10222000704704464FF4807008F032FE05460028DF
:10223000F1D04FF48078424600211AF09DFF4FF410
:10224000817200215BA81AF097FF8DF86C4113F0A2
:10225000CFF8FEF7B3F906460F460022344BFEF7DF
:102260000DFBFEF7A5FDCDE958014FA958A81BF0BD
:1022700019F80DF1FC094FAB2E4A402148461BF0DE
:1022800023FE044630463946FEF77EFC2A4A82FB8E
:102290000032C317C3EBA2134FF47A7202FB13038D
:1022A000264AC4F1400109EB04001AF03BFA044449
:1022B000202309F804304C4400236370A4AB5A93E4
:1022C0000DF26D16A39AFD2130461AF0F3FC044678
:1022D00001969DF86C211A4B53F8223000934B461F
:1022E000184A414628461AF01DFAF52C04D828460B
:1022F000FDF7D6FFC0B200E0F6208DF86D024FF476
:10230000807229460DF26D101AF07DFF0E4B1E688B
:1023100046B15BACF2225FA968461CF069F994E80B
:102320000F00B047284608F051FE74E77C090020F2
:1023300000408F40B46C0308D34D6210C86C030892
:1023400004000020D06C03080000002000B595B008
:102350003022002108A81AF00FFF002303930493F2
:102360000593069307930193204A116C41F0805125
:102370001164126C02F080520192019A02931C4B7C
:102380001A6842F440421A601B6803F44043029307
:10239000029B092308934FF48033099301230D9383
:1023A00002220E924FF480030F93042310936421B2
:1023B00011911292139308A805F090F888B90F2391
:1023C000039302230493002305934FF48052069253
:1023D0000793032103A805F0EBFA20B915B05DF8C7
:1023E00004FB72B6FEE772B6FEE700BF003802409B
:1023F0000070004000B583B072B6134B134A9A6068
:1024000062B6134B0193019B002B05DD019B013B41
:102410000193019B002BF9DC04F08CF8FFF796FF89
:10242000FFF7CCFD00F046F8FFF752FE00F020F871
:10243000FFF7C2FEFEF752FE06F022FBFFF79EFBFF
:1024400006F030FBFEE700BF00ED00E000000108F1
:1024500040420F0008B50268034B9A4200D008BD05
:1024600004F082F8FBE700BF0040014072B6FEE7CF
:1024700008B50E480E4B03604FF48273436000238F
:102480008360C360036143614FF40072826108227C
:10249000C2610362436283620A23C36205F06CFC7B
:1024A00000B908BDFFF7E2FFFBE700BFD809002035
:1024B0000030014008B50D480D4B03604FF48273A6
:1024C000436000238360C360036143614FF4007283
:1024D0008261C3610362436283620A23C36205F0BF
:1024E0004BFC00B908BDFFF7C1FFFBE780090020E6
:1024F0000038004000B58BB0002305930693079386
:10250000089309930368284A934205D0274A9342C7
:1025100025D00BB05DF804FB00210191244B5A6CCF
:1025200042F480525A645A6C02F480520192019A29
:1025300002911A6B42F002021A631B6B03F0020352
:102540000293029B382305930223069303230893E7
:102550000523099305A9174804F02CFAD9E70021AF
:102560000391134B1A6C42F480421A641A6C02F401
:1025700080420392039A04911A6B42F002021A639A
:102580001B6B03F002030493049B4FF46043059319
:1025900002230693032308930523099305A90548FD
:1025A00004F008FAB5E700BF0030014000380040F1
:1025B000003802400004024000B583B000220092BF
:1025C0000D4B596C41F480415964596C01F48041C0
:1025D000009100990192196C41F0805119641B6CB3
:1025E00003F080530193019B0F216FF0010004F071
:1025F0008BF903B05DF804FB0038024030B589B0B8
:102600000546002401941E4B5A6C42F480325A64F1
:102610005B6C03F480330193019B02A903A805F0CE
:1026200099FA05F087FA03461648174A026040F205
:10263000E732C260154AA2FB03239B0C013B4360B7
:1026400004618460846106F02FF8044610B12046CE
:1026500009B030BD0B4805F0CBFE04460028F6D18A
:10266000182004F087F90F2D01D90124EFE700228B
:102670002946182004F048F9054B1D60E7E700BF24
:1026800000380240300A00200040014083DE1B4336
:1026900008010020FEE7FEE7FEE7FEE7FEE77047E1
:1026A00008B5024805F0E4FE08BD00BF300A00206E
:1026B0000120704708B51BF063FF162303604FF03D
:1026C000FF3008BD08B51BF05BFF16230360FEE773
:1026D00070B5161E07DD0C468D19AFF3008004F8A7
:1026E000010BA542F9D1304670BD70B5161E07DD4D
:1026F0000C468D1914F8010BAFF30080A542F9D1F7
:10270000304670BD4FF0FF3070474FF400534B60C0
:1027100000207047012070470020704708B503462D
:102720000C4A126852B10B4A106803440A4A0B491A
:10273000521A934206D8074A136008BD054A084951
:102740001160F0E71BF01CFF0C2303604FF0FF301B
:10275000F3E700BF7C0A0020000002200008000010
:10276000A8A20120034AD2F8883043F47003C2F8CB
:102770008830704700ED00E0DFF834D0FFF7F2FF5B
:102780000C480D490D4A002302E0D458C4500433CC
:10279000C4188C42F9D30A4A0A4C002301E01360A2
:1027A0000432A242FBD31BF0F9FEFFF723FE704771
:1027B00000000220000000207008002024CD030843
:1027C00070080020A8A20120FEE738B50B88052B71
:1027D00001D0032038BD0C46C378027942EA0322B7
:1027E000531E9BB240F2CE718B4225D890F801C0A7
:1027F0008178002323800123037023880133238001
:1028000012F0070F1DBFD5080135EDB2C2F3C705A1
:10281000457023880133238041EA0C2101310023D4
:1028200089B20230FFF76CFB18B923881D4425805C
:10283000D0E700F0D7F9CDE70320CBE70B88052BD5
:1028400001D00320704703790BBBC278531EDBB263
:10285000FD2B1ED900B583B04378817800208DF818
:102860000500FF2A14BF002201228DF8042041EA4E
:102870000321013101231A4689B201A8FFF740FB69
:1028800010B903B05DF804FB00F0ACF9F9E70320E0
:102890007047032070470B88052B28D910B50C46CC
:1028A000C278037943EA022213F0070F1DBFD10853
:1028B0000131C9B2C2F3C701531E9BB2B3F5F66F23
:1028C00017D243798B4201D0032010BD4378817821
:1028D00041EA03210131012389B20630FFF710FBE1
:1028E00010B905232380F0E700F07CF9EDE7032021
:1028F00070470320E9E738B50B88052B01D003208A
:1029000038BD0C46C378027942EA0322531E9BB2BB
:1029100040F2CE718B4224D890F801C08178002318
:1029200023800223037023880133238012F0070FD2
:102930001DBFD5080135EDB2C2F3C7054570238828
:102940000133238041EA0C21013189B20230FFF7C3
:10295000ADFA18B923881D442580D1E700F042F96B
:10296000CEE70320CCE708B50B88052B01D0032068
:1029700008BD4378817841EA0321013101231A46D9
:1029800089B20330FFF718FB0028F1D000F02AF9D4
:10299000EEE70B88052B21D910B50C46C3780279D8
:1029A00042EA0322531E9BB2772B19D85300417978
:1029B000DBB2994201D0032010BD4378817841EA0F
:1029C00003210131012389B20630FFF7F5FA10B96E
:1029D00005232380F0E700F005F9EDE703207047B9
:1029E0000320E9E738B50B88052B01D0032038BD5B
:1029F0000C4605796B1E9BB27C2B01D90320F6E7B0
:102A000090F801C08178002323800322027022887D
:102A1000013222806A00427022880132228041EA1B
:102A20000C2101312A4689B20230FFF7C5FA20B9DC
:102A3000238803EB45032380D9E700F0D3F8D6E7DA
:102A40000B88092B44D92DE9F04104460D46C37883
:102A5000067946EA0326731E9BB27C2B3AD8C379CB
:102A6000027A42EA0322531E9BB2782B35D8437A6E
:102A7000B3EB420F01D003202DE090F8018087785E
:102A80004379817941EA03210131012389B20A3076
:102A9000FFF792FA0346C0B92880172222702A88CD
:102AA00001322A80720062702A8801322A8047EA45
:102AB00008210131324689B2A01CFFF77DFA20B906
:102AC0002B8803EB46032B8005E000F08BF802E037
:102AD000002070470320BDE8F0810320FBE738B5F4
:102AE0000B88052B01D0032038BD0C46C37805792F
:102AF00045EA03256B1E9BB27B2B01D90320F3E72C
:102B000042788178002323800423037023880133D3
:102B100023806B00437023880133238041EA022124
:102B200001312A4689B20230FFF744FA20B92388DE
:102B300003EB45032380D7E700F054F8D4E7000007
:102B400038B50D46054B1C882246054901301BF05F
:102B50004FFD01342C80002038BD00BF800A0020CA
:102B6000840A002038B5082A1ED81D46CC0804F176
:102B7000010E4FF0010C0CFA02F2013A92B2A1EBF5
:102B8000C4039A4010F80EC0035D43EA0C2323EA05
:102B9000020301F007018D402B431BB20355C3F321
:102BA000072300F80E3038BD024B034A3721034893
:102BB00017F08EFD146D03086C6D0308246D030877
:102BC0004FEAD10C00EBD1035B7810F80C0040EA1F
:102BD000032001F00701084101239340013B184005
:102BE000C0B27047012806D0072806D0003818BFA9
:102BF00001208000704702207047062070470000C7
:102C000010B500F0C8F9044620B1104B01221A702B
:102C1000204610BD00F0CCF8A8B10D4B0D4A1A604B
:102C20000D4B0E4A1A600E4B0E4A1A600E4B0F4A9D
:102C30001A600F4B00221A600E4BFF221A70034BD2
:102C400001221A70E4E70324E2E700BF9C000020A1
:102C5000BC0A0020A72F0108B80A0020A92F0108EC
:102C6000B40A0020B12F0108C00A0020F12F01088A
:102C7000B00A0020C40A002008B5064B1B78012BBF
:102C800001D0062008BD044B1B6898470020014B6B
:102C90001870F7E79C000020BC0A002030B583B014
:102CA000394B1C78002C55D10DF1070000F094F839
:102CB000012802D0204603B030BD9DF80730012B1B
:102CC00019D0022BF6D1314B18680178304B1970AE
:102CD000304B01221A7000232F4D15F8332022B1FA
:102CE00091421DD00133102BF7D12C4B1B78002BB8
:102CF00034D11C46DEE72A4B1B682A4A2349274861
:102D0000984705460028D5D1244B1B78264A1278CF
:102D10009A4200D003BB022000F052F82C46C9E7CB
:102D20001D4A02EBC3035B681E499847194B187094
:102D30001A4B1B7863B1174B1B788BB91B4B1B6865
:102D4000184A128811490968174800789847B1E76E
:102D50001C46AFE70624ADE70446ABE70D4B1B78F6
:102D60000B4A1178094805680E4A4FF0010CA2F889
:102D700000C061F07F0129700068118801EB0C052B
:102D800015804354DAE700BF9C000020A80A002009
:102D9000A50A0020A40A00201C000020AC0A002084
:102DA000B40A0020A60A0020C40A0020C00A00209D
:102DB000024B00221A700120704700BFC50A002094
:102DC0000123034A1370034A10701846704700BF6E
:102DD000C50A0020C60A00200346054A107830B113
:102DE000044A12781A70024B00221A7001207047B0
:102DF000C50A0020C60A0020072900D0704738B550
:102E000004461E4B00F11C0293E8030016F0BEFFBF
:102E1000012806D094F8AD3043F0200384F8AD309B
:102E200038BD226C93B216490B8033B994F8AD309B
:102E300043F0200384F8AD30F2E71A46A16B114845
:102E40001BF0D6FB0120FFF7BBFFFFF727FFFFF7C3
:102E500025FF0D4B1B7833B994F8AD3043F02003B8
:102E600084F8AD30DCE70025074B1D70074B1A884E
:102E70000749204614F064F82564D1E7C80A002009
:102E8000D4120020D8120020D00A0020D20A00203C
:102E9000D40A002070B582B00023274A274913F0D6
:102EA0001FFD0020FFF7ACFEFFF7E6FE00220192B7
:102EB00001A9234808F062F9019C611E40F2FE332B
:102EC00099421BD80134204607F0E2FF064618B1AC
:102ED000224600211AF050F91A4D2E60012118489F
:102EE00008F088F90446019A296808F0B1F9019BB5
:102EF0006B60204608F0A0F902B070BD0B2007F00F
:102F0000C7FF03460F4C20600B2262600E4A03CAC3
:102F1000186059601188927819819A7202210848C4
:102F200008F068F905466268216808F09DF92846AE
:102F300008F082F9E0E700BFF92D01087C6D030875
:102F4000906D0308C80A0020A46D03080120704793
:102F5000044B0360044B1A880A8000221A80012067
:102F6000704700BFD8120020D412002010B50C46C4
:102F70000A46014604481BF03BFB044B1C80012021
:102F8000034B187010BD00BFD40A0020D20A0020E5
:102F9000D00A0020704708B5FFF7D8FF00280CBF03
:102FA0000320002008BD704708B5FFF7F3FF08BDF8
:102FB00070B582B006460D4614460DF1020101A817
:102FC000FFF7C6FF80B1019B9978DA7852EA0122B7
:102FD0000CD107332B60BDF80230073B2380FF2361
:102FE0003370002002B070BD0520FBE70520F9E733
:102FF00008B50846531C1B1201F8033C531C01F88A
:10300000023C073291B20738FFF7B0FF00280CBF2F
:103010000520002008BD000030B5C7B005460C46AD
:1030200090F8AC3013F0400F22D18031124B134A8C
:103030001348029001920091124A4FF4807106A841
:1030400010F032FE0594002204920F4B03930F49B7
:103050000291019200930E4B06AAC821284611F056
:103060007DFC22460B490120FFF7CCF847B030BD6C
:103070008031094B094ADBE7B06D03086874030827
:1030800000A30200E06D030841270208007B03084B
:10309000246E03082C6E0308C06D0308D46D03086A
:1030A0002DE9F041E4B007460C461646002159913F
:1030B00025225AA81AF060F88022009202AB22A9B9
:1030C000204613F017F99DF88830002B00F08F8010
:1030D0009DF808301BB9002064B0BDE8F08122AA39
:1030E00057490120FFF78EF842A812F0CFF802A846
:1030F000FDF7D6F8024602A942A812F0E1F842A96B
:1031000059A812F01FF94F4C00252FE029463846E8
:10311000FFF782FF62E04C4C802222A920461AF081
:1031200072F812F065F9494A801841F10001C4F8BB
:10313000B000C4F8B410282104F18000B83C14F0A9
:10314000E9F94EB9B822424B02FB05324149012050
:10315000FFF758F80120BFE704F1B8013846FFF740
:103160005BFFEFE70135A9340A2D3ED022A92046A6
:10317000FDF736F80028F5D159A904F18000FDF7D4
:103180002FF80028EED1324BB82202FB0533D3F8DA
:10319000B080D3F8B44012F02BF980458C41BAD2FC
:1031A000B82405FB04F4DFF8A88004EB08058022AE
:1031B00022A928461AF027F812F01AF9234BC01852
:1031C00041F10001C5F8B000C5F8B41004F1800069
:1031D0002821404414F09EF9002E97D12A461D491B
:1031E0000120FFF70FF8012076E7002074E79DF833
:1031F00008301BB3184C002510E0B822144B02FB1A
:1032000005330093154B164AC821384611F0A6FB2A
:10321000304661E70135B8340A2D0DD002A92046A9
:10322000FCF7DEFF0028F5D114F8803C002BF1D02C
:10323000002EE2D101204FE700204DE700204BE7B0
:10324000486E030808220020901B002000B84C0A9A
:10325000D81A0020686E0308581B0020846E0308EB
:10326000C46E0308F0B58DB007460C46154608AE8F
:103270002249304612F0D2F80023009396E80C0061
:1032800094E8030012F0F8FA08B3002303930493C0
:10329000059306931A4B02931A4B079345B1012DE0
:1032A0000ED002AB184A2146384612F059FC05E010
:1032B00002AB154A2146384612F052FC0DB0F0BD63
:1032C00002AB124A2146384612F04AFCF6E70AAD34
:1032D0000F49284612F0A2F80023009395E80C004D
:1032E00094E8030012F0C8FA0028E7D1094B0A4A13
:1032F00040F29511384611F031FBDFE7346F0308D7
:10330000B87A0308A0000020DC680308EC68030812
:10331000386F0308406F0308C46E0308F8B504460D
:103320000D4616460B4F3B6A984702222146384607
:103330000FF04DFE04467B69A92206FB02F22946E6
:103340000068984720460FF05DFE03490120FEF714
:1033500059FFF8BDA0000020986F030870B586B033
:1033600005460C4604AE1549304612F057F80023C6
:10337000009396E80C0094E8030012F07DFAA0B1E7
:10338000EB6F1868002302930D4B01930123009308
:103390004FF4FA62002310F053FC0A4B0A4AC8218A
:1033A000284611F0DBFA06B070BD084B064A40F221
:1033B0009511284611F0D2FAF5E700BF386F0308DF
:1033C00091690108B06F0308C46E0308E86F030831
:1033D0000B2900D070472DE9F04FADF51F7D044655
:1033E000904600224146FFF75BFE06464AAD9A49E9
:1033F000284612F013F80023009395E80C0098E893
:10340000030012F039FA48B1944B954AC82120467E
:1034100011F0A4FA0DF51F7DBDE8F08F4CAD914978
:10342000284611F0FBFF0023009395E80C0008F1FB
:10343000080103C912F020FA00B10EB34EAD8A495B
:10344000284611F0EBFF0023009395E80C0008F1EB
:10345000080103C912F010FAD0B184490120FEF727
:10346000D1FE012241462046FFF71AFE0028D1D1A5
:103470007F4B804A40F29311204611F06FFAC9E762
:103480007D4B7E4A40F29311204611F067FAC1E766
:1034900050AD7B49284611F0C1FF0023009395E809
:1034A0000C0008F1080103C912F0E6F900285ED00B
:1034B00074490120FEF7A6FE00250A957C263246B7
:1034C00029460BA819F058FE2A95324629462BA802
:1034D00019F052FE802200922AAB0AA9404612F04F
:1034E00009FF9DF8283093B19DF8A8303BB9664B91
:1034F000604A4FF4CA71204611F030FA8AE7634BF4
:103500005C4A4FF4CA71204611F028FA82E79DF810
:10351000A830002BEBD05E4E00252AA93046FCF7E0
:103520005FFE58B10135B8360A2DF6D1594B514AD4
:103530004FF4CA71204611F011FA6BE7B82303FB70
:1035400005F5554FEE19324654490120FEF75AFE53
:10355000002386F8803000200021C6E92C017B552D
:103560004F4B444AC821204611F0F8F952E752ADBA
:103570004C49284611F052FF0023009395E80C00B7
:1035800008F1080103C912F077F9D8B146490120C2
:10359000FEF738FE2AA807F057FD309B06932F9BB5
:1035A00005932E9B04932D9B03932C9B02932B9BA3
:1035B00001932A9B00933D4B3D4AC821204611F0C0
:1035C000CDF927E754AD3B49284611F027FF0023EA
:1035D000009395E80C0008F1080103C912F04CF9BA
:1035E000002800F0D48034490120FEF70BFE78ADAE
:1035F0003249284611F012FF0023009395E80C0091
:1036000098E8030012F038F900285DD02C4D2B68A3
:10361000002201212AA898472B68002202210DF1DF
:10362000AB0098479DF8AD3005939DF8AC300493FE
:103630009DF8AB3003939DF8AA3002939DF8A93012
:1036400001939DF8A83000931E4B0A4AC8212046DA
:1036500011F084F9DEE600BF4870030810B70308D4
:1036600050700308F0700308087103081471030810
:1036700028710308C46E0308F8700308687403080F
:103680005871030864710308807203087C71030891
:10369000581B00204C720308D81A0020FC71030844
:1036A00010720308F87203080873030824730308F0
:1036B000287403086C7403087C740308346F0308CF
:1036C000A42800209474030876ADB749284611F069
:1036D000A5FE0023009395E80C0098E8030012F083
:1036E000CBF800284BD00AABB04AD8F80412D8F86F
:1036F000000210F04BF8002839D02AABAC4AD8F8B9
:103700000412D8F8000210F041F800282FD0DDE9AB
:103710000A01FDF761FAC5B2DDE92A016B1EDBB2D1
:10372000022B04D8FDF758FAC6B2012E07D9A14BD7
:10373000A14A4FF4C871204611F010F96AE69F4F74
:103740003B680022022109A8984709AB2B4403F8E3
:10375000016C3B680122022109A898470196009557
:10376000974B954AC821204611F0F8F852E6954B40
:10377000914A4FF4C871204611F0F0F84AE6924B96
:103780008D4A40F29511204611F0E8F842E656AD18
:103790008E49284611F042FE0023009395E80C0064
:1037A00008F1080103C912F067F8002800F03A8117
:1037B00087490120FEF726FD7CAD8649284611F099
:1037C0002DFE0023009395E80C0098E8030012F00A
:1037D00053F8002836D0C62007F05AFB05460028CB
:1037E00001F04481C622002119F0C6FC734B1B680E
:1037F000002211462846984705F1A5073846FCF7F0
:103800004FFDC6B232462A21384619F0B5FC2E4487
:10381000002386F8A53069786F4B704A002918BFDD
:103820001346039705F184020292AA1C01920093A9
:103830006B4B614AC821204611F090F8284607F0EA
:10384000C5FBE7E57AAD5849284611F0E7FD0023AE
:10385000009395E80C0098E8030012F00DF800289A
:1038600000F0D880C62007F013FB0546002801F0C1
:103870000981C622002119F07FFC2AAB594AD8F8E9
:103880000412D8F800020FF009FD002819DB6B1CA8
:10389000554A08F5007696E803000FF09DFF534A5D
:1038A00096E8030012F08AFE0646D0B116F0CEFE6E
:1038B000034688B10433032B6ED8DFE803F0655D5F
:1038C00055474B4B3C4A4FF4C871204611F046F81F
:1038D000284607F07BFB9DE57F223146A81C19F0A6
:1038E00092FC304607F072FB424AD8F80412D8F82E
:1038F000000212F063FE064628B12022014605F1BF
:10390000840019F080FC304607F060FB3A4AD8F892
:103910000412D8F8000212F051FE064628B1202207
:10392000014605F1A50019F06EFC304607F04EFB8C
:1039300001222A70214B1B680021284698472F4BF3
:103940001D4AC821204611F009F8C1E72C4B1A4A3C
:103950004FF4C871204611F001F8304607F036FBED
:10396000284607F033FB55E5264B134A4FF4C87140
:10397000204610F0F3FFF0E7234B0F4A4FF4C871D5
:10398000204610F0EBFFE8E7204B0B4A4FF4C871DC
:10399000204610F0E3FFE0E71D4B074A4FF4C871E3
:1039A000204610F0DBFFD8E7386F0308C87403081F
:1039B000D474030814750308C46E0308A4280020F7
:1039C000DC740308507503088C750308E075030860
:1039D000F4750308346F0308407003083870030857
:1039E00010760308587603088C7603089876030847
:1039F0005C760308E0770308EC770308F8770308A0
:103A0000A4760308E876030834770308747703087C
:103A1000AC770308694B6A4A40F29511204610F0D2
:103A20009DFFF7E458AD6749284611F0F7FC0023E5
:103A3000009395E80C0008F1080103C911F01CFF80
:103A4000002800F0DB8060490120FEF7DBFB82AD3F
:103A50005E49284611F0E2FC0023009395E80C0033
:103A600098E8030011F008FF002836D000222A92BF
:103A70002AA9574807F082FB2A9D6A1E40F2FE33AE
:103A80009A4222D80135284607F002FA0646002855
:103A900001F004802A46002119F06EFB01214C48F8
:103AA00007F0A8FB05462A9A314607F0D1FB2846C5
:103AB00007F0C2FB0096474B414AC821204610F050
:103AC0004DFF304607F082FAA4E4434B3C4A4FF4E2
:103AD000FA71204610F042FF9CE480AD3F49284631
:103AE00011F09CFC0023009395E80C0098E803007B
:103AF00011F0C2FE002859D02AAB394AD8F8041276
:103B0000D8F800020FF0CAFB002834DB354AD8F899
:103B10000412D8F8000212F051FD054600283DD0ED
:103B20007EAE0146304611F079FC04F11C0296E8A5
:103B3000030016F02BF9002825DB254E304607F050
:103B4000C3FB0221304607F055FB06462846FCF72A
:103B5000A7FB421C2946304607F086FB304607F09B
:103B60006BFB214B164AC821204610F0F7FE284671
:103B700007F02CFA4EE41D4B114A4FF4C871204651
:103B800010F0ECFE46E41A4B0D4A4FF4C871204683
:103B900010F0E4FE284607F019FA3BE4154B084AFA
:103BA0004FF4C871204610F0D9FE33E4124B044A9A
:103BB00040F29511204610F0D1FE2BE48C750308DD
:103BC000C46E03083478030844780308346F03088C
:103BD000906D0308607803088C780308386F030839
:103BE00058760308C0780308087903085C76030850
:103BF000D07803085C790308A47903085AADC14959
:103C0000284611F00BFC0023009395E80C0008F106
:103C1000080103C911F030FE002800F03D81BA49C7
:103C20000120FEF7EFFA7222B8490AA81AF0E0FC68
:103C30001E2007F02DF9074618B11E22002119F0A9
:103C40009BFA2E2007F024F9824618B12E2200217B
:103C500019F092FA2E2007F01BF9814618B12E2296
:103C6000002119F089FA4FF4407007F011F9054668
:103C700020B14FF44072002119F07EFA4FF4C07069
:103C800007F006F9064620B14FF4C072002119F082
:103C900073FA002F00F0E880BAF1000F00F0E48022
:103CA000B9F1000F00F0E080002D00F0DD80002E63
:103CB00000F0DA800DF5047B9549584611F0AEFB13
:103CC000002300939BE80C0098E8030011F0D4FD5A
:103CD000002800F0C18001F0E5FA804600284ED0AF
:103CE00090F8AC3013F0200F4FD190F8AD3013F0B6
:103CF000200F4FF01E0214BF86498749384619F03D
:103D000082FADFF844B208F1080300935B46834A65
:103D10002E2148460FF0C8FF08F11C0300935B46B4
:103D20007E4A2E2150460FF0BFFF2846FCF7B8FA16
:103D30007B4B1B882B524FF00108DFF810B25FFA63
:103D400088F3012280212AA801F0D6FE2AA928465C
:103D500019F01AFA2846FCF7A3FA03462A18DBF8EA
:103D60000000E8509BF80430137108F10108B8F125
:103D7000040FE4D14FF00108DFF8D0B11BE01E22A0
:103D80006849384619F03FFACFE71E22664938469F
:103D900019F039FAB5E72846FCF782FA03462A18E3
:103DA000DBF80000E8509BF80430137108F10108BB
:103DB000B8F1040F13D05FFA88F3022280212AA8F9
:103DC00001F09AFE2AA9284619F0DEF9B8F1030F8E
:103DD000E1D12846FCF764FA514B1B882B52304640
:103DE000FCF75EFA4E4B1B8833524FF00108DFF8A8
:103DF0005CB10FE03046FCF753FA03463218DBF8AB
:103E00000000F0509BF80430137108F10108B8F17C
:103E1000040F13D05FFA88F3022280212AA801F050
:103E200053FE2AA9304619F0AFF9B8F1030FE1D1DA
:103E30003046FCF735FA3A4B1B883352049603950B
:103E4000CDF808A0CDF8049000970AAB374AC821F6
:103E5000204610F083FD0EE0354B344A40F29511B8
:103E6000204610F07BFD06E0324B304A4FF4FA71E9
:103E7000204610F073FD384607F0A8F8504607F0CA
:103E8000A5F8484607F0A2F8284607F09FF8304604
:103E900007F09CF8FFF7BEBA5CAD2749284611F041
:103EA000BDFA0023009395E80C00D8F80C10D8F860
:103EB000080011F0E1FC50B120490120FEF7A2F901
:103EC000002241462046FFF7CDF9FFF7A3BA5EADC9
:103ED0001B49284611F0A2FA0023009395E80C0034
:103EE000D8F80C10D8F8080011F0C6FC80B31549BA
:103EF0000120FEF787F9012241462046FFF7B2F97B
:103F0000FFF788BAF87903080C7A030824840308B9
:103F1000346F0308347A03083C7A0308487A0308AC
:103F20004C7A030854B20308287A0308C46E0308C5
:103F30008C750308587A0308947A0308A47A030856
:103F4000C07A0308D47A030851480208507A03085B
:103F500060ADC249284611F061FA0023009395E84C
:103F60000C00D8F80C10D8F8080011F085FC0028D7
:103F700000F04E82BA490120FEF744F98CADB949F0
:103F8000284611F04BFA0023009395E80C0098E8BE
:103F9000030011F071FC00286FD18AADB2492846A8
:103FA00011F03CFA0023009395E80C0098E8030018
:103FB00011F062FC002800F0078109ABAB4AD8F889
:103FC0000412D8F800020FF069F90028C0F2B98095
:103FD000A74A08F5007898E8030012F0EFFA0646C1
:103FE000A44A98E8030012F0E9FA0546002E00F012
:103FF000DC80002800F0D9803378002B00F0D580D9
:104000000378002B00F0D180DFF86C820027314666
:104010004046FCF7E5F8002800F09C80013708F1E5
:10402000A9080A2FF3D100270A97252239460BA8A1
:1040300019F0A2F82AA811F029F92846FCF730F95E
:10404000024629462AA811F03BF92AA90AA811F02C
:1040500079F93B46A921884A01FB03F7D05D002886
:1040600000F0878001330A2BF6D1844B844A4FF449
:10407000C871204610F072FC9EE04FF4806006F09C
:1040800007FF0546F0B14FF48062002119F074F883
:10409000A02006F0FDFE0746002840F0178579496C
:1040A0000320FEF7AFF8784B754A4FF4FA712046BB
:1040B00010F054FC284606F089FF384606F086FFCB
:1040C000FFF7A8B9A02006F0E3FE07460028E6D0D7
:1040D000A022002119F050F8002DE0D000F0FABC29
:1040E0003B465246C6F58061A81918F01BFB0644F2
:1040F00009F1010908F1A908B9F10A0F13D098F8DC
:104100000030002BF4D043465A46A021384618F020
:1041100009FB0C2EE4D95D4AC6F58061A81918F098
:1041200001FB0644DCE75A4AC6F58061A81918F07D
:10413000F9FA0095574B524AC821204610F00EFC60
:10414000B8E7554B4E4A4FF4C871204610F006FCB4
:10415000FFF760B9514B4A4A4FF4C871204610F03E
:10416000FDFB304606F032FF284606F02FFFFFF732
:1041700051B9DFF804817F22314608EB070019F0BE
:1041800042F807F1800028220DEB0201404419F0AB
:104190003AF80A2241464248FFF7C0F8414B384AF4
:1041A000C821204610F0DAFB06E03F4B344A4FF4BA
:1041B000C871204610F0D2FB304606F007FF2846B3
:1041C00006F004FFFFF726B988AD3849284611F0FC
:1041D00025F90023009395E80C0098E8030011F0FE
:1041E0004BFB002868D186AD3149284611F016F9FD
:1041F0000023009395E80C0098E8030011F03CFBC5
:10420000002800F0FC801A4AD8F80412D8F80002FE
:1042100012F0D4F90746002800F0E5800378002B5F
:1042200000F0E18001264FF0A90ADFF84C900AFB6C
:1042300006F505EB090839464046FBF7D1FF002893
:1042400000F0B88001360A2EF1D11A4B0C4A4FF417
:10425000C871204610F082FBCCE000BFF47A03085E
:10426000087B0308346F0308386F03085876030887
:10427000A87B0308B07B030808220020307C0308D9
:10428000C46E03084C7B0308807B0308447B03084F
:10429000487B030810B103085C760308B87B030869
:1042A00058670308F47B0308647C0308A47C0308B4
:1042B000607D0308A87D030809ABBA4AD8F8041248
:1042C000D8F800020EF0EAFF002822DBB64A08F513
:1042D000007898E8030012F071F90746B34A98E8AD
:1042E000030012F06BF9064627B118B13B780BB109
:1042F0000378C3B9AE4BAF4A4FF4C871204610F0F3
:104300002DFB384606F062FE304606F05FFEFFF7F2
:1043100081B8A94BA74A4FF4C871204610F01EFB84
:1043200000263746EDE700250A95252229460BA8E9
:1043300018F022FF2AA810F0A9FF3046FBF7B0FFC3
:10434000024631462AA810F0BBFF2AA90AA810F09D
:10435000F9FFDFF8748239464046FBF741FF60B150
:10436000013508F1A9080A2DF5D1944B914A4FF473
:10437000CA71204610F0F2FAC3E7A92303FB05F542
:1043800005F18000DFF8408228220DEB0201404455
:1043900018F039FF4544002385F8A8300A22414629
:1043A0008748FEF7BBFF874B824AC821204610F0A2
:1043B000D5FAA6E780220021404618F0DDFE05F17F
:1043C0008000814D29220021284418F0D5FE0A22C0
:1043D00029467B48FEF7A2FF7C4B764AC82120463F
:1043E00010F0BCFA06E07A4B724A4FF4C8712046CE
:1043F00010F0B4FA384606F0E9FDFFF70BB8754B3C
:104400006C4A40F29511204610F0A8FAFFF702B866
:1044100062AD7149284611F001F80023009395E838
:104420000C00D8F80C10D8F8080011F025FA48B1A3
:104430006A490120FDF7E6FE41462046FEF78EFF61
:10444000FEF7E8BF64AD6649284610F0E7FF002399
:10445000009395E80C00D8F80C10D8F8080011F07B
:104460000BFA30B35F490120FDF7CCFE8EAD5E49FB
:10447000284610F0D3FF0023009395E80C0098E83D
:10448000030011F0F9F958B1584B0193584B0093C0
:10449000584B484AC821204610F060FAFEF7BABFD0
:1044A000554B444A40F29511204610F057FAFEF75A
:1044B000B1BF66AD5149284610F0B0FF002300930C
:1044C00095E80C00D8F80C10D8F8080011F0D4F9D1
:1044D00060B34B490120FDF795FE90AD4249284657
:1044E00010F09CFF0023009395E80C0098E803006F
:1044F00011F0C2F988B1434B0493434B0393434BF0
:1045000002933A4B01933A4B0093414B294AC821FD
:10451000204610F023FAFEF77DBF374B254A40F2C4
:104520009511204610F01AFAFEF774BF68AD3949AC
:10453000284610F073FF0023009395E80C00D8F88C
:104540000C10D8F8080011F097F9002800F08480CA
:1045500092AD3149284610F061FF0023009395E8A1
:104560000C0098E8030011F087F900286BD0802335
:104570002AAA2A4908F1100011F081FE28492AA828
:10458000FBF72EFE002853D1264B0093264B274ADB
:104590004146204615F0DEFE012005F027FEFEF71D
:1045A00039BF00BF58760308A87B0308B07B030817
:1045B0001C7D0308C46E03085C760308EC7C0308CA
:1045C00058670308A87C030808220020687D0308B8
:1045D000FC7D03083C7E03089C7E0308B07E030834
:1045E000D07E0308E47E0308346F03083C7F030891
:1045F00054690308047F0308407F0308907F030881
:10460000A47F03082C800308408003084C80030823
:10461000C07F030854800308386F030898BD03085F
:104620006C80030890D0030004670308A0000020FA
:10463000B64B0093B64BB74A4FF4C871204610F002
:104640008DF9FEF7E7BEB44BB24A40F29511204611
:1046500010F084F9FEF7DEBE6AADB049284610F0CE
:10466000DDFE0023009395E80C00D8F80C10D8F874
:10467000080011F001F9002800F09380A8490120FA
:10468000FDF7C0FD94ADA749284610F0C7FE0023F2
:10469000009395E80C0098E8030011F0EDF800286D
:1046A00076D0212006F0F4FB804618B121220021AB
:1046B00018F062FD4FF4806006F0EAFB0646002821
:1046C00000F000824FF48062002118F055FD0122B5
:1046D000954996480EF07BFC054638B12AA80FF0A4
:1046E00039F9DFF848924FF4806710E00EF08AFC49
:1046F000304606F06BFC8E4B864A4FF4CA7120465A
:1047000010F02CF93FE031462AA80FF039F9D9F81A
:1047100010303A4631462868984702460028F2D1C0
:1047200028460EF06FFC102006F0B2FB054600286C
:1047300000F0C1810023036043608360C3600146D1
:104740002AA80FF081F905F1FF392127DFF818B207
:1047500008EB070A19F8013F5A463946AAEB070049
:1047600017F0E0FF023F012FF4D1304606F02EFC97
:10477000284606F02BFCCDF800806E4B654AC82118
:10478000204610F0EBF8404606F020FCFEF742BE53
:10479000694B604A40F29511204610F0DFF8FEF7B1
:1047A00039BE6CAD6549284610F038FE00230093F1
:1047B00095E80C00D8F80C10D8F8080011F05CF857
:1047C00078B35F490120FDF71DFD96AD5D49284690
:1047D00010F024FE0023009395E80C0098E80300F5
:1047E00011F04AF8A0B1514BDB6957494E48984740
:1047F00028B141462046FEF7B1FDFEF70BBE534BF4
:10480000444A4FF4FA71204610F0A8F8FEF702BEB1
:10481000414B404A40F29511204610F09FF8FEF7B8
:10482000F9BD6EAD4A49284610F0F8FD002300930B
:1048300095E80C00D8F80C10D8F8080011F01CF816
:1048400058B398AD3F49284610F0E8FD0023009387
:1048500095E80C0098E8030011F00EF8A0B1334B76
:104860001B6A3948984738B13A4B2A4AC821204632
:1048700010F074F8FEF7CEBD374B264AC82120460B
:1048800010F06CF8FEF7C6BD234B224A40F295119A
:10489000204610F063F8FEF7BDBD70AD2F492846E5
:1048A00010F0BCFD0023009395E80C00D8F80C1024
:1048B000D8F8080010F0E0FF002857D09AAD214941
:1048C000284610F0ABFD0023009395E80C0098E813
:1048D000030010F0D1FF78B1214D144E336A284601
:1048E0009847736A284698471E4B0A4AC8212046B3
:1048F00010F034F8FEF78EBD074B064A40F29511D2
:10490000204610F02BF8FEF785BD00BF6C80030831
:104910007C800308C46E0308E86F0308C88003089E
:10492000DC800308346F0308F8800308A00000202F
:10493000E483030818810308407F03083C810308CF
:1049400050810308386F030810670308708103085B
:10495000B4810308D08103080C8203085082030845
:10496000FC6603086C8203081081030872AD62497B
:10497000284610F053FD0023009395E80C00D8F86A
:104980000C10D8F8080010F077FF48B15B4B00938B
:104990005B4B5C4A4146204615F0DCFCFEF73ABD15
:1049A00074AD5949284610F039FD0023009395E86D
:1049B0000C00D8F80C10D8F8080010F05DFF0028A3
:1049C00044D09CAD5149284610F028FD00230093A7
:1049D00095E80C0098E8030010F04EFF68B37B23C5
:1049E0000AAA4B4908F5007011F049FC00281BDDAC
:1049F0000AAB484A80212AA817F094FE414B5B6A13
:104A00002AA8984738B1444B444AC82120460FF0A1
:104A1000A5FFFEF7FFBC424B404A4FF4FA71204617
:104A20000FF09CFFFEF7F6BC3E4B3C4A4FF4C871BA
:104A300020460FF093FFFEF7EDBC3B4B374A40F2A8
:104A4000951120460FF08AFFFEF7E4BC00232B935C
:104A50002C932D932E932A4B2A932A4B2F932AAAD9
:104A60004146204615F05CFAFEF7D4BC2F4B2B4A8A
:104A70004FF4FA7120460FF071FF002006F0A6FAFD
:104A8000FEF7C8BC294B254A4FF4FA7120460FF0B7
:104A900065FF002006F09AFAFEF7BCBC244903200B
:104AA000FDF7B0FB234B1D4A4FF4FA7120460FF07F
:104AB00055FFFEF7AFBC304606F088FA002006F03E
:104AC00085FA18E6002006F081FA14E6A0220021FB
:104AD00018F052FB184B07CB28606960AA601B785E
:104AE0002B73DFF858800C264FF00009DFF850B028
:104AF000DFF850A0FFF703BBB482030860E31600A1
:104B0000FC660308A0000020D0820308386F030869
:104B1000EC820308F4820308FC820308C46E0308D5
:104B2000308303086C830308E86F0308A883030835
:104B30004C7B0308807B0308247B030808220020A9
:104B4000347B030810B1030810B501220D490E484B
:104B50000EF03DFA80B104460B4B1B6940F29A629D
:104B60000A490068984720460EF04CFA084901208F
:104B7000FDF748FB074810BD07490320FDF742FB3E
:104B8000F8E700BF58670308A000002008220020B3
:104B9000B4840308D133010898840308014B1860DA
:104BA000704700BFA42800201A4B1B6803B1704750
:104BB00030B585B018490120FDF724FB174C402281
:104BC0000021204618F0D8FA02AD154B1968284686
:104BD00010F024FC95E8030084E80300114B1968E9
:104BE000284610F01BFC04F1080395E8030083E855
:104BF00003003C236385002300930B4B22460B49A3
:104C000009680B48006813F095FC024B186005B06A
:104C100030BD00BFC8280020D0840308CC28002065
:104C20001C29002018290020F14D0108202900200E
:104C30000C2900202DE9F04F87B081460C46574DD6
:104C40002B680022012104A898472B68002202212A
:104C50000DF1130098470322514904A818F0F8F900
:104C600048B903224F490DF1130018F0F1F910B9BA
:104C7000002C00F090804A4B06AA12E9030018604D
:104C800099804FF4167006F003F9074620B14FF4EF
:104C90001672002118F070FA802006F0F9F8064626
:104CA00018B18022002118F067FA00254FF0010B9F
:104CB000DFF8F88008F1180A6C1CE4B204ABEB5C76
:104CC000009323465A464FF41671384600F0D4FE3E
:104CD00023465A468021304600F00EFF02AC314692
:104CE000204610F09BFB94E803008AE80300394655
:104CF000204610F093FB08F1200394E8030083E8BA
:104D00000300002388F8283088F82E3041464846B2
:104D100013F090F80135032DCED10DF1120B0024C4
:104D20004FF0020ADFF884800134E4B21BF8013F3F
:104D30000093234652464FF41671384600F09CFE0D
:104D4000234652468021304600F0D6FE02AD314661
:104D5000284610F063FB95E80300134B83E803003B
:104D60003946284610F05AFB08F1200395E8030065
:104D700083E80300002388F8283088F82E30414665
:104D8000484613F057F8032CCED1384606F01EF9EA
:104D9000304606F01BF907B0BDE8F08FB0280020C0
:104DA000A8280020AB280020E4280020CC280020E0
:104DB00008B5054B186810B1044B1B7803B908BD42
:104DC0000021FFF737FFFAE7C8280020B4280020A9
:104DD00008B5054B1B7803B908BD0121034B1868C2
:104DE000FFF728FFF8E700BFB4280020C8280020FC
:104DF0002DE9F04F8BB00290102900F0B5801129F9
:104E000005D0092900F028820BB0BDE8F08FB54B22
:104E10001B68022B69DCB4490120FDF7F3F9B34BA1
:104E2000029A1A60B24B1B78002BEDD1B14C13469D
:104E300008330093B04BB14A282120680EF034FFAC
:104E400024682046FBF72CFA0146204600F03CFB84
:104E5000AB4C04F1300B2546AA4FAB4E0394DDF862
:104E600008A095F8008095F804904B4642468021B2
:104E7000386800F04FFBA54C4B4642464FF4167184
:104E8000206800F0F7FB0DF110083968404610F07B
:104E9000C5FA98E803009E4B83E80300216840466A
:104EA00010F0BCFA06F1200398E8030083E8030041
:104EB000012486F8284086F82E403146504612F0EC
:104EC000B9FF3A6893492046FDF79CF90835AB4590
:104ED000C7D1039C854D01212868FFF7ABFED5F8AB
:104EE00000A0894F07F118092BE08B4BE1228B4979
:104EF00003200FF0E3FD8A480FF0DCFC8BE72B79F1
:104F000002228021304600F0DFFD4FF0010887F8D3
:104F1000288004AD3146284610F080FA95E8030059
:104F200089E803003946504612F033FF32467D4986
:104F30004046FDF767F9304606F048F80834A345C7
:104F40000ED025462368022BF8D1802005F0A0FF63
:104F500006460028D3D08022002118F00DF9CEE7B4
:104F6000634B01221A704FE714466F490120FDF789
:104F700049F90023099327686668A568E468ADB11C
:104F8000A7B106B10CBB69490320FDF73BF9554BAE
:104F90001B68002B40F34F81654B9A225F4901202B
:104FA0000FF08CFD63480FF085FC44E14D4B1B680E
:104FB000002B40F340815E4B9422584901200FF0B2
:104FC0007DFD5D480FF076FC35E104F101084046B7
:104FD00005F05EFF814618B14246002118F0CCF87A
:104FE00006F1010A504605F053FF804618B15246BB
:104FF000002118F0C1F822462946484618F003F966
:1050000032463946404618F0FEF84C4B1B680022E9
:10501000022107A89847079BADF820301B0C8DF89C
:1050200022304749404618F027F9002800F0F48064
:1050300009AA444917F0FEFC012809D0294B1B6836
:10504000002B00F3DF8040490320FDF7DBF8ECE0A4
:10505000244B1B68012B1BDCCDF80090099B4246BA
:105060003A490120FDF7CEF8099D6B1E022B1BD893
:10507000022C73D0032C00F095801A4B1B68002B78
:1050800000F3B5804A4632490320FDF7BBF8CCE077
:10509000274BAD22214902200FF010FD424609990D
:1050A0002C480FF007FCD7E70E4B1B68002B0CDCDD
:1050B000099B032228491046FDF7A4F8484605F04D
:1050C00085FF404605F082FFB5E0194BB222134937
:1050D00001200FF0F3FC099A03211F480FF0EAFBAF
:1050E000E6E700BF2C01002048850308C8280020FF
:1050F000B4280020C428002081480208487A030808
:10510000C800002014290020CC28002010290020ED
:10511000E428002060850308F08403080485030860
:105120003085030884850308A085030808860308E2
:10513000C485030830860308E4850308B0280020EE
:105140005C86030864860308D08703089C860308EE
:105150005C87030870860308DC8603080222434943
:10516000484618F03EF8002887D105F128030DEBDA
:105170000305012305F8093C3D4B1B68012B06DCA8
:105180003C4B1B680122022108A898474DE03A4B8E
:10519000BF223A4902200FF091FC099938480FF0DC
:1051A00089FBEDE703223749484618F01AF8002832
:1051B0007FF463AF05F128030DEB0305002305F829
:1051C000093C2B4B1B68012B06DC2A4B1B68012278
:1051D000022108A8984728E0274BC322274902202C
:1051E0000FF06CFC099928480FF064FBEDE7224BA7
:1051F000C722224901200FF061FC494623480FF0E5
:1052000059FB3FE71C4BCC221C4901200FF056FCF8
:105210001F480FF04FFB16E7154B1B68002B10DCE7
:1052200042461C490320FCF7EDFF484605F0CEFE40
:10523000404605F0CBFE0021174B1868FFF7FAFC3B
:10524000E2E50D4BD0220D4901200FF037FC41461D
:1052500010480FF02FFBE3E710490120FCF7D2FFC5
:1052600000230D4A13600E4A1370CDE52C87030806
:105270002C010020B0280020C48503080485030801
:105280003087030844870308488703085C870308BE
:105290009887030808880308C8280020388803086E
:1052A000B4280020014B1868704700BFC8280020B0
:1052B0002DE9F04786B006460C4617461D4680206D
:1052C00005F0E6FD804618B18022002117F054FF5A
:1052D000524BC3F80080212005F0DAFD804618B15A
:1052E0002122002117F048FF4D4BC3F800802120F8
:1052F00005F0CEFD804618B12122002117F03CFFB9
:10530000484BC3F80080802005F0C2FD804618B1EC
:105310008022002117F030FF434BC3F800804FF488
:10532000167005F0B5FD804620B14FF416720021CD
:1053300017F022FF3D4BC3F80080282005F0A8FDA0
:10534000804618B12822002117F016FF384BC3F809
:1053500000800F9A374B1A60304BD3F800903946D3
:10536000484619F013F9DFF8B880D8F800A02946AC
:10537000504619F00BF92B4F0E99386819F006F9C1
:1053800053464A462C490120FCF73CFF2B4D2E602A
:105390000621204600F062F8294E04ACD8F800102F
:1053A000204610F03BF894E8030086E803003968D3
:1053B000204610F033F806F1080394E8030083E870
:1053C00003003C237385002402941E4B01930323A6
:1053D000009342F21072002328680EF031FC1A4B41
:1053E00018600294194B01930126009643F6982207
:1053F000002328680EF024FC154B18600294154B0E
:10540000019300964FF4FA72002328680EF018FCFE
:10541000114B186006B0BDE8F08700BF20290020BE
:105420001C29002018290020142900201029002000
:10543000C4280020B0280020508803080C29002030
:10544000CC280020A94B0108C0280020D14D01081C
:10545000BC280020B14D0108B82800202DE9F041FA
:1054600006460C46164B186808B105F0AFFD6500FE
:105470000135284605F00CFD0746D8B12A46002123
:1054800017F07AFE0E4B1F6094B135462644002477
:10549000DFF830801F46386815F8012B414620445C
:1054A00017F0A8FA0234B542F5D10020BDE8F0812A
:1054B0000020FBE7024B00221A604FF0FF30F5E7B7
:1054C000282900207C880308F8B505460C46104BB7
:1054D000186808B105F07AFD671C384605F0D8FC5D
:1054E000064670B13A46002117F046FE084F3E606E
:1054F00022462946304617F086FE3B6800201855A4
:10550000F8BD034B00221A604FF0FF30F8E700BFF0
:105510002429002000B587B04FF0000C80F800C0AF
:10552000013A072A00F28780DFE802F004162545D9
:10553000356575550493414B0393414B1B680293AA
:10554000404B0193404B0093404B414A17F0EAF81F
:10555000002007B05DF804FB04933E4B0393384AE8
:1055600012680292374A01920093384B384A17F07A
:10557000D9F80020EDE70493374B0393304B1B68B9
:105580000293304B0193354B0093304B304A17F068
:10559000C9F80020DDE70493314B0393284B1B68C7
:1055A0000293284B01932D4B0093284B284A17F068
:1055B000B9F80020CDE704932A4B0393204B1B68D6
:1055C0000293204B0193254B0093204B204A17F068
:1055D000A9F80020BDE70493234B0393184B1B68E5
:1055E0000293184B01931D4B0093184B184A17F068
:1055F00099F80020ADE704931C4B0393104B1B68F4
:105600000293104B0193154B0093104B104A17F067
:1056100089F800209DE70493154B0393084B1B6802
:105620000293084B01930D4B0093084B084A17F067
:1056300079F800208DE74FF0FF308AE79C88030857
:10564000282900204C800308A4880308F8000020C3
:10565000848803085C860308B4880308BC880308B0
:10566000C4880308CC880308D4880308E4880308A6
:10567000F48803082DE9F04F99B017900D461746AE
:105680001C460A46002117F077FD7A1E072A00F211
:10569000C881DFE812F008004800AE00F700D20031
:1056A0007C01A1015701802005F0F2FB074618B1EB
:1056B0008022002117F060FD0094854B854A8021EF
:1056C000384617F02FF8844B1A68844B1B681493E4
:1056D000834B1393834B1293834B1193834B109300
:1056E000834B0F930E92834B0D9383490C910B9434
:1056F00082490A9109920893079781480690059478
:10570000049103940291019200937E4B7E4A2946B4
:10571000179817F007F80446384605F057FCE0B232
:1057200019B0BDE8F08F802005F0B2FB074618B134
:105730008022002117F020FD802005F0A9FB824681
:1057400018B18022002117F017FDDFF8F4810094D2
:1057500043466E4A8021384616F0E4FFDFF8949104
:10576000654E02960197DFF870B1DBF800300093C8
:105770004B46674A8021504616F0D4FF0094654B93
:10578000544A8021384616F0CDFFDBF80030534AEA
:1057900012681492524A1392524A1292524A119229
:1057A000524A1092524A0F920E93CDF834900C96B2
:1057B0000B94CDF828800993CDF820900797CDF869
:1057C00018A00594CDF810800394CDF808800193BB
:1057D000CDF8009043464C4A2946179816F0A2FF90
:1057E0000446384605F0F2FB504605F0EFFBE0B208
:1057F00096E7394B19683F4B474A38480068109084
:1058000037480F9037480E9037480D9037480C9026
:1058100037480B900A9109934048089007920691E7
:1058200005933F4804903F48039002923E48019000
:1058300000913549179817F0DDF8274B19682D4B63
:105840003A4A26480068109025480F9025480E9047
:1058500025480D9025480C9025480B900A910993F6
:1058600033480890079206910593324804902448E3
:10587000039002922C48019000912349179817F049
:10588000B9F8DAE7144B19681A4B1E4A1348006836
:10589000109013480F9013480E9013480D90134822
:1058A0000C9013480B900A91099323480890079293
:1058B00006910593214804901148039002921A48DA
:1058C000019000911049179817F094F8B5E700BFC0
:1058D000FC880308088903082829002024290020BF
:1058E000546903083C7F0308108903082C800308CF
:1058F000408003084C800308687403089C880308F0
:1059000048AD0308CC880308788A03082089030877
:10591000508A030828890308B48803083C890308CF
:10592000408903085089030874890308C488030860
:105930007C890308808903089089030894890308F7
:105940005C860308384B1968384B394A3948006877
:10595000109039480F9039480E9039480D903948C9
:105960000C9039480B900A91099338480890079297
:1059700006910593364804903648039002923648C3
:10598000019000913549179817F034F855E7264BE8
:105990001968264B324A27480068109026480F9015
:1059A00026480E9026480D9026480C9026480B90CD
:1059B0000A9109932B4808900792069105932A486B
:1059C00004902448039002922348019000912349B7
:1059D000179817F00FF830E7134B1968134B234A49
:1059E00014480068109014480F9014480E90144802
:1059F0000D9014480C9014480B900A9109931C4880
:105A000008900792069105931A4804901148039054
:105A100002921148019000911049179816F0EAFF80
:105A20000BE74FF0FF307BE6282900204C8003086D
:105A3000D488030824290020546903083C7F030804
:105A4000108903082C80030840800308B8890308E4
:105A5000BC89030848AD030874890308788A0308E1
:105A6000E4880308DC890308E0890308F488030854
:105A70000C8A0308108A030830B583B01C469DF8D1
:105A80001850012A0CD0022A0A4B18BF00234DB12E
:105A9000094A01920094094A16F044FE03B030BD51
:105AA000074BF4E7074A01920094044A16F03AFEC5
:105AB000F4E700BF5C8603082C870308408A0308CC
:105AC0009C8803084487030800B585B00293064B01
:105AD0000193064B1B680093054B064A16F022FE05
